{
  "address": "0x685a13093cA561F531c93185B942a3f33385e14E",
  "abi": [
    {
      "inputs": [
        {
          "internalType": "address",
          "name": "_secondSigner",
          "type": "address"
        },
        {
          "internalType": "address",
          "name": "_thirdSigner",
          "type": "address"
        }
      ],
      "stateMutability": "nonpayable",
      "type": "constructor"
    },
    {
      "anonymous": false,
      "inputs": [
        {
          "indexed": false,
          "internalType": "address",
          "name": "destination",
          "type": "address"
        },
        {
          "indexed": false,
          "internalType": "bool",
          "name": "success",
          "type": "bool"
        },
        {
          "indexed": false,
          "internalType": "bytes",
          "name": "returndata",
          "type": "bytes"
        }
      ],
      "name": "Execution",
      "type": "event"
    },
    {
      "anonymous": false,
      "inputs": [
        {
          "indexed": false,
          "internalType": "address",
          "name": "signer",
          "type": "address"
        }
      ],
      "name": "NewSigner",
      "type": "event"
    },
    {
      "anonymous": false,
      "inputs": [
        {
          "indexed": false,
          "internalType": "uint256",
          "name": "threshold",
          "type": "uint256"
        }
      ],
      "name": "NewTheshold",
      "type": "event"
    },
    {
      "anonymous": false,
      "inputs": [
        {
          "indexed": false,
          "internalType": "address",
          "name": "signer",
          "type": "address"
        }
      ],
      "name": "SignerRemoved",
      "type": "event"
    },
    {
      "inputs": [
        {
          "internalType": "address",
          "name": "_signer",
          "type": "address"
        }
      ],
      "name": "addAdditionalOwners",
      "outputs": [],
      "stateMutability": "nonpayable",
      "type": "function"
    },
    {
      "inputs": [
        {
          "internalType": "uint256",
          "name": "_threshold",
          "type": "uint256"
        }
      ],
      "name": "changeThreshold",
      "outputs": [],
      "stateMutability": "nonpayable",
      "type": "function"
    },
    {
      "inputs": [
        {
          "internalType": "bytes[]",
          "name": "signatures",
          "type": "bytes[]"
        },
        {
          "internalType": "address",
          "name": "_to",
          "type": "address"
        },
        {
          "internalType": "uint256",
          "name": "_value",
          "type": "uint256"
        },
        {
          "internalType": "bytes",
          "name": "_data",
          "type": "bytes"
        },
        {
          "internalType": "bytes32",
          "name": "_nonce",
          "type": "bytes32"
        }
      ],
      "name": "executeTransaction",
      "outputs": [
        {
          "internalType": "bytes",
          "name": "",
          "type": "bytes"
        }
      ],
      "stateMutability": "nonpayable",
      "type": "function"
    },
    {
      "inputs": [
        {
          "internalType": "bytes32",
          "name": "",
          "type": "bytes32"
        }
      ],
      "name": "executed",
      "outputs": [
        {
          "internalType": "bool",
          "name": "",
          "type": "bool"
        }
      ],
      "stateMutability": "view",
      "type": "function"
    },
    {
      "inputs": [],
      "name": "getOwnerCount",
      "outputs": [
        {
          "internalType": "uint256",
          "name": "",
          "type": "uint256"
        }
      ],
      "stateMutability": "view",
      "type": "function"
    },
    {
      "inputs": [],
      "name": "getSigners",
      "outputs": [
        {
          "internalType": "address[]",
          "name": "",
          "type": "address[]"
        }
      ],
      "stateMutability": "view",
      "type": "function"
    },
    {
      "inputs": [
        {
          "internalType": "address",
          "name": "",
          "type": "address"
        }
      ],
      "name": "isSigner",
      "outputs": [
        {
          "internalType": "bool",
          "name": "",
          "type": "bool"
        }
      ],
      "stateMutability": "view",
      "type": "function"
    },
    {
      "inputs": [
        {
          "internalType": "address",
          "name": "_to",
          "type": "address"
        },
        {
          "internalType": "uint256",
          "name": "_value",
          "type": "uint256"
        },
        {
          "internalType": "bytes",
          "name": "_data",
          "type": "bytes"
        },
        {
          "internalType": "bytes",
          "name": "userSignature",
          "type": "bytes"
        },
        {
          "internalType": "bytes32",
          "name": "_nonce",
          "type": "bytes32"
        }
      ],
      "name": "recoverSigner",
      "outputs": [
        {
          "internalType": "address",
          "name": "",
          "type": "address"
        }
      ],
      "stateMutability": "view",
      "type": "function"
    },
    {
      "inputs": [],
      "name": "resign",
      "outputs": [],
      "stateMutability": "nonpayable",
      "type": "function"
    },
    {
      "inputs": [
        {
          "internalType": "uint256",
          "name": "",
          "type": "uint256"
        }
      ],
      "name": "signers",
      "outputs": [
        {
          "internalType": "address",
          "name": "",
          "type": "address"
        }
      ],
      "stateMutability": "view",
      "type": "function"
    },
    {
      "inputs": [],
      "name": "threshold",
      "outputs": [
        {
          "internalType": "uint256",
          "name": "",
          "type": "uint256"
        }
      ],
      "stateMutability": "view",
      "type": "function"
    },
    {
      "inputs": [
        {
          "components": [
            {
              "internalType": "address",
              "name": "to",
              "type": "address"
            },
            {
              "internalType": "uint256",
              "name": "value",
              "type": "uint256"
            },
            {
              "internalType": "bytes",
              "name": "data",
              "type": "bytes"
            },
            {
              "internalType": "bytes32",
              "name": "nonce",
              "type": "bytes32"
            }
          ],
          "internalType": "struct MultiSig.TxnRequest",
          "name": "params",
          "type": "tuple"
        }
      ],
      "name": "typedDataHash",
      "outputs": [
        {
          "internalType": "bytes32",
          "name": "",
          "type": "bytes32"
        }
      ],
      "stateMutability": "view",
      "type": "function"
    },
    {
      "inputs": [
        {
          "internalType": "bytes[]",
          "name": "signatures",
          "type": "bytes[]"
        },
        {
          "internalType": "bytes32",
          "name": "digest",
          "type": "bytes32"
        }
      ],
      "name": "verifySigners",
      "outputs": [
        {
          "internalType": "bool",
          "name": "",
          "type": "bool"
        }
      ],
      "stateMutability": "view",
      "type": "function"
    },
    {
      "stateMutability": "payable",
      "type": "receive"
    }
  ],
  "transactionHash": "0x4df76c55ac51e6d4a7925a7472e3ccd4be975461228d675cc63574059567e546",
  "args": [
    "0x5555581E88072387CDBdBb5732Ec58B23564D40f",
    "0x7777798435A15E461589Ff3A0D29ac44E17DD039"
  ],
  "numDeployments": 1,
  "solcInputHash": "2f7f1371fb370f36aabac366e012e4ce",
  "bytecode": "0x6101406040523480156200001257600080fd5b5060405162001c4538038062001c45833981016040819052620000359162000408565b60408051808201825260088152674d756c746953696760c01b6020808301918252835180850190945260058452640312e302e360dc1b908401528151902060e08190527f06c015bd22b4c69690933c1058878ebdfef31f9aaae40bbe86d8a09fe1b2972c6101008190524660a0529192917f8b73c3c69bb8fe3d512ecc4cf759cc79239f7b179b0ffacaa9a75d522b39400f620001178184846040805160208101859052908101839052606081018290524660808201523060a082015260009060c0016040516020818303038152906040528051906020012090509392505050565b6080523060c052610120525050600160005550506001600160a01b0382166200018f5760405162461bcd60e51b8152602060048201526030602482015260008051602062001c2583398151915260448201526f746865207a65726f206164647265737360801b60648201526084015b60405180910390fd5b6001600160a01b038116620001ee5760405162461bcd60e51b815260206004820152602f602482015260008051602062001c0583398151915260448201526e6865207a65726f206164647265737360881b606482015260840162000186565b806001600160a01b0316826001600160a01b031603620002665760405162461bcd60e51b8152602060048201526038602482015260008051602062001c2583398151915260448201527f746865207468697264207369676e657220616464726573730000000000000000606482015260840162000186565b336001600160a01b03831603620002ca5760405162461bcd60e51b8152602060048201526032602482015260008051602062001c258339815191526044820152717468652073656e646572206164647265737360701b606482015260840162000186565b336001600160a01b038216036200032d5760405162461bcd60e51b8152602060048201526031602482015260008051602062001c0583398151915260448201527068652073656e646572206164647265737360781b606482015260840162000186565b600260048190556001805480820182557fb10e2d527612073b26eecdfd717e6a320cf44b4afac2b0732d9fcbe2b7fa0cf690810180546001600160a01b03199081163390811790925583548085018555830180546001600160a01b039889169083168117909155845480860186559093018054969097169516851790955560009485526020929092526040808520805460ff199081168417909155928552808520805484168317905592845291909220805490921617905562000440565b80516001600160a01b03811681146200040357600080fd5b919050565b600080604083850312156200041c57600080fd5b6200042783620003eb565b91506200043760208401620003eb565b90509250929050565b60805160a05160c05160e0516101005161012051611775620004906000396000611103015260006111520152600061112d01526000611086015260006110b0015260006110da01526117756000f3fe6080604052600436106100d65760003560e01c80637df73e271161007f578063a9fcfb3311610059578063a9fcfb3314610249578063b7a2644414610279578063c6dc395014610299578063ef18374a146102b957600080fd5b80637df73e27146101c757806394cf795e146102075780639c8031221461022957600080fd5b80634bba7a0b116100b05780634bba7a0b14610170578063694e80c31461019257806369652fcf146101b257600080fd5b80632079fb9a146100e257806342cde4e81461011f578063466c0fd91461014357600080fd5b366100dd57005b600080fd5b3480156100ee57600080fd5b506101026100fd366004611264565b6102ce565b6040516001600160a01b0390911681526020015b60405180910390f35b34801561012b57600080fd5b5061013560045481565b604051908152602001610116565b34801561014f57600080fd5b5061016361015e3660046113e3565b6102f8565b60405161011691906114b9565b34801561017c57600080fd5b5061019061018b3660046114cc565b6105f5565b005b34801561019e57600080fd5b506101906101ad366004611264565b6107d5565b3480156101be57600080fd5b50610190610929565b3480156101d357600080fd5b506101f76101e23660046114cc565b60026020526000908152604090205460ff1681565b6040519015158152602001610116565b34801561021357600080fd5b5061021c610b60565b60405161011691906114e7565b34801561023557600080fd5b50610102610244366004611534565b610bc2565b34801561025557600080fd5b506101f7610264366004611264565b60036020526000908152604090205460ff1681565b34801561028557600080fd5b506101f761029436600461159b565b610c6a565b3480156102a557600080fd5b506101356102b43660046115e0565b610d7d565b3480156102c557600080fd5b50600154610135565b600181815481106102de57600080fd5b6000918252602090912001546001600160a01b0316905081565b3360009081526002602052604090205460609060ff166103565760405162461bcd60e51b81526020600482015260146024820152732ab730baba3437b934bd32b21039b4b3b732b91760611b60448201526064015b60405180910390fd5b61035e610e1c565b600454865110156103b15760405162461bcd60e51b815260206004820152601c60248201527f496e76616c6964206e756d626572206f66207369676e61747572657300000000604482015260640161034d565b6001600160a01b0385166104075760405162461bcd60e51b815260206004820152601c60248201527f43616e6e6f742073656e6420746f207a65726f20616464726573732e00000000604482015260640161034d565b604080516080810182526001600160a01b03871681526020810186905290810184905260608101839052600061043c82610d7d565b60008181526003602052604090205490915060ff16156104c45760405162461bcd60e51b815260206004820152602660248201527f5472616e73616374696f6e2068617320616c7265616479206265656e2065786560448201527f63757465642e0000000000000000000000000000000000000000000000000000606482015260840161034d565b6104ce8882610c6a565b5060008083600001516001600160a01b03168460200151886040516104f3919061168b565b60006040518083038185875af1925050503d8060008114610530576040519150601f19603f3d011682016040523d82523d6000602084013e610535565b606091505b5091509150816105875760405162461bcd60e51b815260206004820152601260248201527f4661696c6564207472616e73616374696f6e0000000000000000000000000000604482015260640161034d565b60008381526003602052604090819020805460ff19166001179055845190517f2fcaca726dcb634cc7f4efab00d0aaeb98bdc63521e21c2dff0127d9d237a986916105d591859085906116a7565b60405180910390a193505050506105ec6001600055565b95945050505050565b3360009081526002602052604090205460ff1661064b5760405162461bcd60e51b81526020600482015260146024820152732ab730baba3437b934bd32b21039b4b3b732b91760611b604482015260640161034d565b6001600160a01b0381166106c75760405162461bcd60e51b815260206004820152602960248201527f5369676e657220616464726573732063616e6e6f7420626520746865207a657260448201527f6f20616464726573730000000000000000000000000000000000000000000000606482015260840161034d565b6001600160a01b03811660009081526002602052604090205460ff16156107305760405162461bcd60e51b815260206004820152601c60248201527f4164647265737320697320616c72656164792061207369676e65722e00000000604482015260640161034d565b6001805480820182557fb10e2d527612073b26eecdfd717e6a320cf44b4afac2b0732d9fcbe2b7fa0cf601805473ffffffffffffffffffffffffffffffffffffffff19166001600160a01b038416908117909155600081815260026020908152604091829020805460ff1916909417909355519081527fffafe5c39be83f4bcf20d7e1a150f6e21c1858ea0948315ba84b6b1c386d45bb91015b60405180910390a150565b3360009081526002602052604090205460ff1661082b5760405162461bcd60e51b81526020600482015260146024820152732ab730baba3437b934bd32b21039b4b3b732b91760611b604482015260640161034d565b6001548111156108a35760405162461bcd60e51b815260206004820152602a60248201527f5468726573686f6c642063616e6e6f7420657863656564206e756d626572206f60448201527f66207369676e6572732e00000000000000000000000000000000000000000000606482015260840161034d565b60028110156108f45760405162461bcd60e51b815260206004820152601860248201527f5468726573686f6c642063616e6e6f74206265203c20322e0000000000000000604482015260640161034d565b60048190556040518181527fb5d09d519ddb9ede0d6b30efeabde6688b13f6eca621514f4ce37179c90ab915906020016107ca565b3360009081526002602052604090205460ff1661097f5760405162461bcd60e51b81526020600482015260146024820152732ab730baba3437b934bd32b21039b4b3b732b91760611b604482015260640161034d565b6001546002106109d15760405162461bcd60e51b815260206004820152601d60248201527f43616e6e6f742072656d6f7665206c6173742032207369676e6572732e000000604482015260640161034d565b6000805b600154811015610a3057336001600160a01b0316600182815481106109fc576109fc6116d1565b6000918252602090912001546001600160a01b031603610a1e57809150610a30565b80610a28816116fd565b9150506109d5565b50805b60018054610a419190611716565b811015610ad8576001610a548282611729565b81548110610a6457610a646116d1565b600091825260209091200154600180546001600160a01b039092169183908110610a9057610a906116d1565b6000918252602090912001805473ffffffffffffffffffffffffffffffffffffffff19166001600160a01b039290921691909117905580610ad0816116fd565b915050610a33565b506001805480610aea57610aea61173c565b600082815260208082206000199084018101805473ffffffffffffffffffffffffffffffffffffffff191690559092019092553380835260028252604092839020805460ff1916905591519182527f3525e22824a8a7df2c9a6029941c824cf95b6447f1e13d5128fd3826d35afe8b91016107ca565b60606001805480602002602001604051908101604052809291908181526020018280548015610bb857602002820191906000526020600020905b81546001600160a01b03168152600190910190602001808311610b9a575b5050505050905090565b6000806040518060800160405280886001600160a01b031681526020018781526020018681526020018481525090506000610bfc82610d7d565b9050610c5e610c58826040517f19457468657265756d205369676e6564204d6573736167653a0a3332000000006020820152603c8101829052600090605c01604051602081830303815290604052805190602001209050919050565b86610e75565b98975050505050505050565b6000805b600454811015610d71576000610cf3610cd4856040517f19457468657265756d205369676e6564204d6573736167653a0a3332000000006020820152603c8101829052600090605c01604051602081830303815290604052805190602001209050919050565b868481518110610ce657610ce66116d1565b6020026020010151610e75565b6001600160a01b03811660009081526002602052604090205490915060ff16610d5e5760405162461bcd60e51b815260206004820152600e60248201527f496e76616c6964207369676e6572000000000000000000000000000000000000604482015260640161034d565b5080610d69816116fd565b915050610c6e565b50600190505b92915050565b600080610e157fb016080d801ff2b39b6a2322ec74a73b8748e1d42cdf89942658d9e7e619a441846000015185602001518660400151805190602001208760600151604051602001610dfa9594939291909485526001600160a01b0393909316602085015260408401919091526060830152608082015260a00190565b60405160208183030381529060405280519060200120610e99565b9392505050565b600260005403610e6e5760405162461bcd60e51b815260206004820152601f60248201527f5265656e7472616e637947756172643a207265656e7472616e742063616c6c00604482015260640161034d565b6002600055565b6000806000610e848585610ee7565b91509150610e9181610f2c565b509392505050565b6000610d77610ea6611079565b8360405161190160f01b6020820152602281018390526042810182905260009060620160405160208183030381529060405280519060200120905092915050565b6000808251604103610f1d5760208301516040840151606085015160001a610f11878285856111a0565b94509450505050610f25565b506000905060025b9250929050565b6000816004811115610f4057610f40611752565b03610f485750565b6001816004811115610f5c57610f5c611752565b03610fa95760405162461bcd60e51b815260206004820152601860248201527f45434453413a20696e76616c6964207369676e61747572650000000000000000604482015260640161034d565b6002816004811115610fbd57610fbd611752565b0361100a5760405162461bcd60e51b815260206004820152601f60248201527f45434453413a20696e76616c6964207369676e6174757265206c656e67746800604482015260640161034d565b600381600481111561101e5761101e611752565b036110765760405162461bcd60e51b815260206004820152602260248201527f45434453413a20696e76616c6964207369676e6174757265202773272076616c604482015261756560f01b606482015260840161034d565b50565b6000306001600160a01b037f0000000000000000000000000000000000000000000000000000000000000000161480156110d257507f000000000000000000000000000000000000000000000000000000000000000046145b156110fc57507f000000000000000000000000000000000000000000000000000000000000000090565b50604080517f00000000000000000000000000000000000000000000000000000000000000006020808301919091527f0000000000000000000000000000000000000000000000000000000000000000828401527f000000000000000000000000000000000000000000000000000000000000000060608301524660808301523060a0808401919091528351808403909101815260c0909201909252805191012090565b6000807f7fffffffffffffffffffffffffffffff5d576e7357a4501ddfe92f46681b20a08311156111d7575060009050600361125b565b6040805160008082526020820180845289905260ff881692820192909252606081018690526080810185905260019060a0016020604051602081039080840390855afa15801561122b573d6000803e3d6000fd5b5050604051601f1901519150506001600160a01b0381166112545760006001925092505061125b565b9150600090505b94509492505050565b60006020828403121561127657600080fd5b5035919050565b634e487b7160e01b600052604160045260246000fd5b604051601f8201601f1916810167ffffffffffffffff811182821017156112bc576112bc61127d565b604052919050565b600082601f8301126112d557600080fd5b813567ffffffffffffffff8111156112ef576112ef61127d565b611302601f8201601f1916602001611293565b81815284602083860101111561131757600080fd5b816020850160208301376000918101602001919091529392505050565b600082601f83011261134557600080fd5b8135602067ffffffffffffffff808311156113625761136261127d565b8260051b611371838201611293565b938452858101830193838101908886111561138b57600080fd5b84880192505b85831015610c5e578235848111156113a95760008081fd5b6113b78a87838c01016112c4565b8352509184019190840190611391565b80356001600160a01b03811681146113de57600080fd5b919050565b600080600080600060a086880312156113fb57600080fd5b853567ffffffffffffffff8082111561141357600080fd5b61141f89838a01611334565b965061142d602089016113c7565b955060408801359450606088013591508082111561144a57600080fd5b50611457888289016112c4565b95989497509295608001359392505050565b60005b8381101561148457818101518382015260200161146c565b50506000910152565b600081518084526114a5816020860160208601611469565b601f01601f19169290920160200192915050565b602081526000610e15602083018461148d565b6000602082840312156114de57600080fd5b610e15826113c7565b6020808252825182820181905260009190848201906040850190845b818110156115285783516001600160a01b031683529284019291840191600101611503565b50909695505050505050565b600080600080600060a0868803121561154c57600080fd5b611555866113c7565b945060208601359350604086013567ffffffffffffffff8082111561157957600080fd5b61158589838a016112c4565b9450606088013591508082111561144a57600080fd5b600080604083850312156115ae57600080fd5b823567ffffffffffffffff8111156115c557600080fd5b6115d185828601611334565b95602094909401359450505050565b6000602082840312156115f257600080fd5b813567ffffffffffffffff8082111561160a57600080fd5b908301906080828603121561161e57600080fd5b6040516080810181811083821117156116395761163961127d565b604052611645836113c7565b81526020830135602082015260408301358281111561166357600080fd5b61166f878286016112c4565b6040830152506060830135606082015280935050505092915050565b6000825161169d818460208701611469565b9190910192915050565b6001600160a01b038416815282151560208201526060604082015260006105ec606083018461148d565b634e487b7160e01b600052603260045260246000fd5b634e487b7160e01b600052601160045260246000fd5b60006001820161170f5761170f6116e7565b5060010190565b81810381811115610d7757610d776116e7565b80820180821115610d7757610d776116e7565b634e487b7160e01b600052603160045260246000fd5b634e487b7160e01b600052602160045260246000fdfea164736f6c6343000813000a5468697264207369676e657220616464726573732063616e6e6f7420626520745365636f6e64207369676e657220616464726573732063616e6e6f7420626520",
  "devdoc": {
    "details": "Implements a multi-signature wallet. Transactions can be executed only when approved by a threshold number of signers.",
    "kind": "dev",
    "methods": {
      "addAdditionalOwners(address)": {
        "details": "Adds additional owners to the multisig",
        "params": {
          "_signer": "The address to be added to the signers list"
        }
      },
      "changeThreshold(uint256)": {
        "details": "Changes the threshold for the multisig",
        "params": {
          "_threshold": "The new threshold"
        }
      },
      "constructor": {
        "details": "Contract constructor. Sets the initial signers and threshold.",
        "params": {
          "_secondSigner": "The address of the second signer.",
          "_thirdSigner": "The address of the third signer."
        }
      },
      "executeTransaction(bytes[],address,uint256,bytes,bytes32)": {
        "details": "Executes a multisig transaction given an array of signatures, and TxnRequest params",
        "params": {
          "_data": "The data to be sent with the transaction (e.g: to call a contract function)",
          "_nonce": "The transaction nonce",
          "_to": "The address a transaction should be sent to",
          "_value": "The transaction value",
          "signatures": "The array of signatures from multisig holders"
        },
        "returns": {
          "_0": "The return data from the transaction call"
        }
      },
      "getOwnerCount()": {
        "details": "Returns the current number of signers.",
        "returns": {
          "_0": "The number of signers"
        }
      },
      "getSigners()": {
        "details": "Returns the current list of signers.",
        "returns": {
          "_0": "The list of signers"
        }
      },
      "recoverSigner(address,uint256,bytes,bytes,bytes32)": {
        "details": "Utility function to recover a signer given a signature",
        "params": {
          "_data": "Transaction calldata",
          "_nonce": "Transaction nonce",
          "_to": "The to address of the transaction",
          "_value": "Transaction value",
          "userSignature": "The signature provided by the user"
        },
        "returns": {
          "_0": "The address of the signer"
        }
      },
      "resign()": {
        "details": "Allows a signer to resign, removing them from the multisig"
      },
      "typedDataHash((address,uint256,bytes,bytes32))": {
        "details": "Returns hash of data to be signed",
        "params": {
          "params": "The struct containing transaction data"
        },
        "returns": {
          "_0": "Packed hash that is to be signed"
        }
      },
      "verifySigners(bytes[],bytes32)": {
        "details": "Verifies if signers are part of the signers' list.",
        "params": {
          "digest": "The hash of the transaction data",
          "signatures": "The list of signatures to be verified"
        },
        "returns": {
          "_0": "A boolean indicating if all signers are valid"
        }
      }
    },
    "title": "MultiSig",
    "version": 1
  },
  "userdoc": {
    "kind": "user",
    "methods": {},
    "version": 1
  },
  "storageLayout": {
    "storage": [
      {
        "astId": 507,
        "contract": "contracts/Multisig.sol:MultiSig",
        "label": "_status",
        "offset": 0,
        "slot": "0",
        "type": "t_uint256"
      },
      {
        "astId": 4088,
        "contract": "contracts/Multisig.sol:MultiSig",
        "label": "signers",
        "offset": 0,
        "slot": "1",
        "type": "t_array(t_address)dyn_storage"
      },
      {
        "astId": 4092,
        "contract": "contracts/Multisig.sol:MultiSig",
        "label": "isSigner",
        "offset": 0,
        "slot": "2",
        "type": "t_mapping(t_address,t_bool)"
      },
      {
        "astId": 4096,
        "contract": "contracts/Multisig.sol:MultiSig",
        "label": "executed",
        "offset": 0,
        "slot": "3",
        "type": "t_mapping(t_bytes32,t_bool)"
      },
      {
        "astId": 4098,
        "contract": "contracts/Multisig.sol:MultiSig",
        "label": "threshold",
        "offset": 0,
        "slot": "4",
        "type": "t_uint256"
      }
    ],
    "types": {
      "t_address": {
        "encoding": "inplace",
        "label": "address",
        "numberOfBytes": "20"
      },
      "t_array(t_address)dyn_storage": {
        "base": "t_address",
        "encoding": "dynamic_array",
        "label": "address[]",
        "numberOfBytes": "32"
      },
      "t_bool": {
        "encoding": "inplace",
        "label": "bool",
        "numberOfBytes": "1"
      },
      "t_bytes32": {
        "encoding": "inplace",
        "label": "bytes32",
        "numberOfBytes": "32"
      },
      "t_mapping(t_address,t_bool)": {
        "encoding": "mapping",
        "key": "t_address",
        "label": "mapping(address => bool)",
        "numberOfBytes": "32",
        "value": "t_bool"
      },
      "t_mapping(t_bytes32,t_bool)": {
        "encoding": "mapping",
        "key": "t_bytes32",
        "label": "mapping(bytes32 => bool)",
        "numberOfBytes": "32",
        "value": "t_bool"
      },
      "t_uint256": {
        "encoding": "inplace",
        "label": "uint256",
        "numberOfBytes": "32"
      }
    }
  }
}