{
  "address": "0xD5E253Ff866a342D4227c71eB90263713A79A04b",
  "abi": [
    {
      "inputs": [],
      "stateMutability": "nonpayable",
      "type": "constructor"
    },
    {
      "inputs": [
        {
          "internalType": "bytes32",
          "name": "_nonce",
          "type": "bytes32"
        },
        {
          "internalType": "bytes",
          "name": "userSignature",
          "type": "bytes"
        }
      ],
      "name": "recoverSigner",
      "outputs": [
        {
          "internalType": "address",
          "name": "",
          "type": "address"
        }
      ],
      "stateMutability": "view",
      "type": "function"
    },
    {
      "inputs": [
        {
          "components": [
            {
              "internalType": "bytes32",
              "name": "nonce",
              "type": "bytes32"
            }
          ],
          "internalType": "struct Verifier.TxnRequest",
          "name": "params",
          "type": "tuple"
        }
      ],
      "name": "typedDataHash",
      "outputs": [
        {
          "internalType": "bytes32",
          "name": "",
          "type": "bytes32"
        }
      ],
      "stateMutability": "view",
      "type": "function"
    },
    {
      "stateMutability": "payable",
      "type": "receive"
    }
  ],
  "transactionHash": "0x18f7cb8d1e6e978346a55112c108b5da2350e7420dcdc0d51b94453cf9879ca4",
  "args": [],
  "numDeployments": 1,
  "solcInputHash": "2f7f1371fb370f36aabac366e012e4ce",
  "bytecode": "0x61014060405234801561001157600080fd5b5060408051808201825260088152672b32b934b334b2b960c11b6020808301918252835180850190945260058452640312e302e360dc1b908401528151902060e08190527f06c015bd22b4c69690933c1058878ebdfef31f9aaae40bbe86d8a09fe1b2972c6101008190524660a0529192917f8b73c3c69bb8fe3d512ecc4cf759cc79239f7b179b0ffacaa9a75d522b39400f6100f38184846040805160208101859052908101839052606081018290524660808201523060a082015260009060c0016040516020818303038152906040528051906020012090509392505050565b6080523060c052610120525061010892505050565b60805160a05160c05160e05161010051610120516106a861015760003960006103ef0152600061043e01526000610419015260006103720152600061039c015260006103c601526106a86000f3fe60806040526004361061002d5760003560e01c806397aba7f914610039578063aff5823f1461008357600080fd5b3661003457005b600080fd5b34801561004557600080fd5b506100596100543660046105a4565b6100b1565b60405173ffffffffffffffffffffffffffffffffffffffff90911681526020015b60405180910390f35b34801561008f57600080fd5b506100a361009e366004610643565b6100e1565b60405190815260200161007a565b6040805160208101909152828152600090816100cc826100e1565b90506100d88185610149565b95945050505050565b6000806101427f729d3dc530453b3e95e98ff9ee210e6ad08033455632901a5ca32683fae7e9428460000151604051602001610127929190918252602082015260400190565b6040516020818303038152906040528051906020012061016d565b9392505050565b600080600061015885856101c1565b9150915061016581610206565b509392505050565b60006101bb61017a610358565b8360405161190160f01b6020820152602281018390526042810182905260009060620160405160208183030381529060405280519060200120905092915050565b92915050565b60008082516041036101f75760208301516040840151606085015160001a6101eb8782858561048c565b945094505050506101ff565b506000905060025b9250929050565b600081600481111561021a5761021a610685565b036102225750565b600181600481111561023657610236610685565b036102885760405162461bcd60e51b815260206004820152601860248201527f45434453413a20696e76616c6964207369676e6174757265000000000000000060448201526064015b60405180910390fd5b600281600481111561029c5761029c610685565b036102e95760405162461bcd60e51b815260206004820152601f60248201527f45434453413a20696e76616c6964207369676e6174757265206c656e67746800604482015260640161027f565b60038160048111156102fd576102fd610685565b036103555760405162461bcd60e51b815260206004820152602260248201527f45434453413a20696e76616c6964207369676e6174757265202773272076616c604482015261756560f01b606482015260840161027f565b50565b60003073ffffffffffffffffffffffffffffffffffffffff7f0000000000000000000000000000000000000000000000000000000000000000161480156103be57507f000000000000000000000000000000000000000000000000000000000000000046145b156103e857507f000000000000000000000000000000000000000000000000000000000000000090565b50604080517f00000000000000000000000000000000000000000000000000000000000000006020808301919091527f0000000000000000000000000000000000000000000000000000000000000000828401527f000000000000000000000000000000000000000000000000000000000000000060608301524660808301523060a0808401919091528351808403909101815260c0909201909252805191012090565b6000807f7fffffffffffffffffffffffffffffff5d576e7357a4501ddfe92f46681b20a08311156104c35750600090506003610554565b6040805160008082526020820180845289905260ff881692820192909252606081018690526080810185905260019060a0016020604051602081039080840390855afa158015610517573d6000803e3d6000fd5b5050604051601f19015191505073ffffffffffffffffffffffffffffffffffffffff811661054d57600060019250925050610554565b9150600090505b94509492505050565b634e487b7160e01b600052604160045260246000fd5b604051601f8201601f1916810167ffffffffffffffff8111828210171561059c5761059c61055d565b604052919050565b600080604083850312156105b757600080fd5b8235915060208084013567ffffffffffffffff808211156105d757600080fd5b818601915086601f8301126105eb57600080fd5b8135818111156105fd576105fd61055d565b61060f601f8201601f19168501610573565b9150808252878482850101111561062557600080fd5b80848401858401376000848284010152508093505050509250929050565b60006020828403121561065557600080fd5b6040516020810181811067ffffffffffffffff821117156106785761067861055d565b6040529135825250919050565b634e487b7160e01b600052602160045260246000fdfea164736f6c6343000813000a",
  "devdoc": {
    "details": "This contract is used for recovering the signer of a given message.",
    "kind": "dev",
    "methods": {
      "constructor": {
        "details": "Contract constructor Calls the EIP712 constructor to initialize domain separator."
      },
      "recoverSigner(bytes32,bytes)": {
        "details": "Recover signer's address for a given signature",
        "params": {
          "_nonce": "The unique transaction nonce",
          "userSignature": "The signature provided by the user"
        },
        "returns": {
          "_0": "The address recovered from the signature"
        }
      },
      "typedDataHash((bytes32))": {
        "details": "Returns the hash of the provided transaction request, according to EIP712",
        "params": {
          "params": "The transaction request"
        },
        "returns": {
          "_0": "The hash of the transaction request"
        }
      }
    },
    "title": "Verifier Contract",
    "version": 1
  },
  "userdoc": {
    "kind": "user",
    "methods": {},
    "version": 1
  },
  "storageLayout": {
    "storage": [],
    "types": null
  }
}