{
  "address": "0x5E24ebC230A4A225730162DB463BdbC24bf8E74a",
  "abi": [
    {
      "inputs": [],
      "stateMutability": "nonpayable",
      "type": "constructor"
    },
    {
      "anonymous": false,
      "inputs": [
        {
          "indexed": true,
          "internalType": "address",
          "name": "owner",
          "type": "address"
        },
        {
          "indexed": true,
          "internalType": "address",
          "name": "spender",
          "type": "address"
        },
        {
          "indexed": false,
          "internalType": "uint256",
          "name": "value",
          "type": "uint256"
        }
      ],
      "name": "Approval",
      "type": "event"
    },
    {
      "anonymous": false,
      "inputs": [
        {
          "indexed": false,
          "internalType": "address",
          "name": "account",
          "type": "address"
        }
      ],
      "name": "Paused",
      "type": "event"
    },
    {
      "anonymous": false,
      "inputs": [
        {
          "indexed": true,
          "internalType": "bytes32",
          "name": "role",
          "type": "bytes32"
        },
        {
          "indexed": true,
          "internalType": "bytes32",
          "name": "previousAdminRole",
          "type": "bytes32"
        },
        {
          "indexed": true,
          "internalType": "bytes32",
          "name": "newAdminRole",
          "type": "bytes32"
        }
      ],
      "name": "RoleAdminChanged",
      "type": "event"
    },
    {
      "anonymous": false,
      "inputs": [
        {
          "indexed": true,
          "internalType": "bytes32",
          "name": "role",
          "type": "bytes32"
        },
        {
          "indexed": true,
          "internalType": "address",
          "name": "account",
          "type": "address"
        },
        {
          "indexed": true,
          "internalType": "address",
          "name": "sender",
          "type": "address"
        }
      ],
      "name": "RoleGranted",
      "type": "event"
    },
    {
      "anonymous": false,
      "inputs": [
        {
          "indexed": true,
          "internalType": "bytes32",
          "name": "role",
          "type": "bytes32"
        },
        {
          "indexed": true,
          "internalType": "address",
          "name": "account",
          "type": "address"
        },
        {
          "indexed": true,
          "internalType": "address",
          "name": "sender",
          "type": "address"
        }
      ],
      "name": "RoleRevoked",
      "type": "event"
    },
    {
      "anonymous": false,
      "inputs": [
        {
          "indexed": false,
          "internalType": "uint256",
          "name": "id",
          "type": "uint256"
        }
      ],
      "name": "Snapshot",
      "type": "event"
    },
    {
      "anonymous": false,
      "inputs": [
        {
          "indexed": true,
          "internalType": "address",
          "name": "from",
          "type": "address"
        },
        {
          "indexed": true,
          "internalType": "address",
          "name": "to",
          "type": "address"
        },
        {
          "indexed": false,
          "internalType": "uint256",
          "name": "value",
          "type": "uint256"
        }
      ],
      "name": "Transfer",
      "type": "event"
    },
    {
      "anonymous": false,
      "inputs": [
        {
          "indexed": false,
          "internalType": "address",
          "name": "account",
          "type": "address"
        }
      ],
      "name": "Unpaused",
      "type": "event"
    },
    {
      "inputs": [],
      "name": "DEFAULT_ADMIN_ROLE",
      "outputs": [
        {
          "internalType": "bytes32",
          "name": "",
          "type": "bytes32"
        }
      ],
      "stateMutability": "view",
      "type": "function"
    },
    {
      "inputs": [],
      "name": "DOMAIN_SEPARATOR",
      "outputs": [
        {
          "internalType": "bytes32",
          "name": "",
          "type": "bytes32"
        }
      ],
      "stateMutability": "view",
      "type": "function"
    },
    {
      "inputs": [],
      "name": "MINTER_ROLE",
      "outputs": [
        {
          "internalType": "bytes32",
          "name": "",
          "type": "bytes32"
        }
      ],
      "stateMutability": "view",
      "type": "function"
    },
    {
      "inputs": [],
      "name": "PAUSER_ROLE",
      "outputs": [
        {
          "internalType": "bytes32",
          "name": "",
          "type": "bytes32"
        }
      ],
      "stateMutability": "view",
      "type": "function"
    },
    {
      "inputs": [],
      "name": "SNAPSHOT_ROLE",
      "outputs": [
        {
          "internalType": "bytes32",
          "name": "",
          "type": "bytes32"
        }
      ],
      "stateMutability": "view",
      "type": "function"
    },
    {
      "inputs": [],
      "name": "ZERO_ADDRESS",
      "outputs": [
        {
          "internalType": "address",
          "name": "",
          "type": "address"
        }
      ],
      "stateMutability": "view",
      "type": "function"
    },
    {
      "inputs": [
        {
          "internalType": "address",
          "name": "owner",
          "type": "address"
        },
        {
          "internalType": "address",
          "name": "spender",
          "type": "address"
        }
      ],
      "name": "allowance",
      "outputs": [
        {
          "internalType": "uint256",
          "name": "",
          "type": "uint256"
        }
      ],
      "stateMutability": "view",
      "type": "function"
    },
    {
      "inputs": [
        {
          "internalType": "address",
          "name": "spender",
          "type": "address"
        },
        {
          "internalType": "uint256",
          "name": "amount",
          "type": "uint256"
        }
      ],
      "name": "approve",
      "outputs": [
        {
          "internalType": "bool",
          "name": "",
          "type": "bool"
        }
      ],
      "stateMutability": "nonpayable",
      "type": "function"
    },
    {
      "inputs": [
        {
          "internalType": "address",
          "name": "account",
          "type": "address"
        }
      ],
      "name": "balanceOf",
      "outputs": [
        {
          "internalType": "uint256",
          "name": "",
          "type": "uint256"
        }
      ],
      "stateMutability": "view",
      "type": "function"
    },
    {
      "inputs": [
        {
          "internalType": "address",
          "name": "account",
          "type": "address"
        },
        {
          "internalType": "uint256",
          "name": "snapshotId",
          "type": "uint256"
        }
      ],
      "name": "balanceOfAt",
      "outputs": [
        {
          "internalType": "uint256",
          "name": "",
          "type": "uint256"
        }
      ],
      "stateMutability": "view",
      "type": "function"
    },
    {
      "inputs": [
        {
          "internalType": "uint256",
          "name": "amount",
          "type": "uint256"
        }
      ],
      "name": "burn",
      "outputs": [],
      "stateMutability": "nonpayable",
      "type": "function"
    },
    {
      "inputs": [
        {
          "internalType": "address",
          "name": "account",
          "type": "address"
        },
        {
          "internalType": "uint256",
          "name": "amount",
          "type": "uint256"
        }
      ],
      "name": "burnFrom",
      "outputs": [],
      "stateMutability": "nonpayable",
      "type": "function"
    },
    {
      "inputs": [],
      "name": "decimals",
      "outputs": [
        {
          "internalType": "uint8",
          "name": "",
          "type": "uint8"
        }
      ],
      "stateMutability": "view",
      "type": "function"
    },
    {
      "inputs": [
        {
          "internalType": "address",
          "name": "spender",
          "type": "address"
        },
        {
          "internalType": "uint256",
          "name": "subtractedValue",
          "type": "uint256"
        }
      ],
      "name": "decreaseAllowance",
      "outputs": [
        {
          "internalType": "bool",
          "name": "",
          "type": "bool"
        }
      ],
      "stateMutability": "nonpayable",
      "type": "function"
    },
    {
      "inputs": [
        {
          "internalType": "address",
          "name": "_recipient",
          "type": "address"
        },
        {
          "internalType": "uint256",
          "name": "_amount",
          "type": "uint256"
        }
      ],
      "name": "decreaseUnlockedTokens",
      "outputs": [],
      "stateMutability": "nonpayable",
      "type": "function"
    },
    {
      "inputs": [
        {
          "internalType": "bytes32",
          "name": "role",
          "type": "bytes32"
        }
      ],
      "name": "getRoleAdmin",
      "outputs": [
        {
          "internalType": "bytes32",
          "name": "",
          "type": "bytes32"
        }
      ],
      "stateMutability": "view",
      "type": "function"
    },
    {
      "inputs": [
        {
          "internalType": "address",
          "name": "_from",
          "type": "address"
        }
      ],
      "name": "getUnlockedTokens",
      "outputs": [
        {
          "internalType": "uint256",
          "name": "",
          "type": "uint256"
        }
      ],
      "stateMutability": "view",
      "type": "function"
    },
    {
      "inputs": [
        {
          "internalType": "bytes32",
          "name": "role",
          "type": "bytes32"
        },
        {
          "internalType": "address",
          "name": "account",
          "type": "address"
        }
      ],
      "name": "grantRole",
      "outputs": [],
      "stateMutability": "nonpayable",
      "type": "function"
    },
    {
      "inputs": [
        {
          "internalType": "bytes32",
          "name": "role",
          "type": "bytes32"
        },
        {
          "internalType": "address",
          "name": "account",
          "type": "address"
        }
      ],
      "name": "hasRole",
      "outputs": [
        {
          "internalType": "bool",
          "name": "",
          "type": "bool"
        }
      ],
      "stateMutability": "view",
      "type": "function"
    },
    {
      "inputs": [
        {
          "internalType": "address",
          "name": "spender",
          "type": "address"
        },
        {
          "internalType": "uint256",
          "name": "addedValue",
          "type": "uint256"
        }
      ],
      "name": "increaseAllowance",
      "outputs": [
        {
          "internalType": "bool",
          "name": "",
          "type": "bool"
        }
      ],
      "stateMutability": "nonpayable",
      "type": "function"
    },
    {
      "inputs": [
        {
          "internalType": "address",
          "name": "_recipient",
          "type": "address"
        },
        {
          "internalType": "uint256",
          "name": "_amount",
          "type": "uint256"
        }
      ],
      "name": "increaseUnlockedTokens",
      "outputs": [],
      "stateMutability": "nonpayable",
      "type": "function"
    },
    {
      "inputs": [
        {
          "internalType": "address",
          "name": "_to",
          "type": "address"
        },
        {
          "internalType": "uint256",
          "name": "_amount",
          "type": "uint256"
        }
      ],
      "name": "mint",
      "outputs": [],
      "stateMutability": "nonpayable",
      "type": "function"
    },
    {
      "inputs": [],
      "name": "name",
      "outputs": [
        {
          "internalType": "string",
          "name": "",
          "type": "string"
        }
      ],
      "stateMutability": "view",
      "type": "function"
    },
    {
      "inputs": [
        {
          "internalType": "address",
          "name": "owner",
          "type": "address"
        }
      ],
      "name": "nonces",
      "outputs": [
        {
          "internalType": "uint256",
          "name": "",
          "type": "uint256"
        }
      ],
      "stateMutability": "view",
      "type": "function"
    },
    {
      "inputs": [],
      "name": "owner",
      "outputs": [
        {
          "internalType": "address",
          "name": "",
          "type": "address"
        }
      ],
      "stateMutability": "view",
      "type": "function"
    },
    {
      "inputs": [],
      "name": "pause",
      "outputs": [],
      "stateMutability": "nonpayable",
      "type": "function"
    },
    {
      "inputs": [],
      "name": "paused",
      "outputs": [
        {
          "internalType": "bool",
          "name": "",
          "type": "bool"
        }
      ],
      "stateMutability": "view",
      "type": "function"
    },
    {
      "inputs": [
        {
          "internalType": "address",
          "name": "owner",
          "type": "address"
        },
        {
          "internalType": "address",
          "name": "spender",
          "type": "address"
        },
        {
          "internalType": "uint256",
          "name": "value",
          "type": "uint256"
        },
        {
          "internalType": "uint256",
          "name": "deadline",
          "type": "uint256"
        },
        {
          "internalType": "uint8",
          "name": "v",
          "type": "uint8"
        },
        {
          "internalType": "bytes32",
          "name": "r",
          "type": "bytes32"
        },
        {
          "internalType": "bytes32",
          "name": "s",
          "type": "bytes32"
        }
      ],
      "name": "permit",
      "outputs": [],
      "stateMutability": "nonpayable",
      "type": "function"
    },
    {
      "inputs": [
        {
          "internalType": "bytes32",
          "name": "role",
          "type": "bytes32"
        },
        {
          "internalType": "address",
          "name": "account",
          "type": "address"
        }
      ],
      "name": "renounceRole",
      "outputs": [],
      "stateMutability": "nonpayable",
      "type": "function"
    },
    {
      "inputs": [
        {
          "internalType": "bytes32",
          "name": "role",
          "type": "bytes32"
        },
        {
          "internalType": "address",
          "name": "account",
          "type": "address"
        }
      ],
      "name": "revokeRole",
      "outputs": [],
      "stateMutability": "nonpayable",
      "type": "function"
    },
    {
      "inputs": [],
      "name": "snapshot",
      "outputs": [],
      "stateMutability": "nonpayable",
      "type": "function"
    },
    {
      "inputs": [
        {
          "internalType": "bytes4",
          "name": "interfaceId",
          "type": "bytes4"
        }
      ],
      "name": "supportsInterface",
      "outputs": [
        {
          "internalType": "bool",
          "name": "",
          "type": "bool"
        }
      ],
      "stateMutability": "view",
      "type": "function"
    },
    {
      "inputs": [],
      "name": "symbol",
      "outputs": [
        {
          "internalType": "string",
          "name": "",
          "type": "string"
        }
      ],
      "stateMutability": "view",
      "type": "function"
    },
    {
      "inputs": [],
      "name": "totalSupply",
      "outputs": [
        {
          "internalType": "uint256",
          "name": "",
          "type": "uint256"
        }
      ],
      "stateMutability": "view",
      "type": "function"
    },
    {
      "inputs": [
        {
          "internalType": "uint256",
          "name": "snapshotId",
          "type": "uint256"
        }
      ],
      "name": "totalSupplyAt",
      "outputs": [
        {
          "internalType": "uint256",
          "name": "",
          "type": "uint256"
        }
      ],
      "stateMutability": "view",
      "type": "function"
    },
    {
      "inputs": [
        {
          "internalType": "address",
          "name": "to",
          "type": "address"
        },
        {
          "internalType": "uint256",
          "name": "amount",
          "type": "uint256"
        }
      ],
      "name": "transfer",
      "outputs": [
        {
          "internalType": "bool",
          "name": "",
          "type": "bool"
        }
      ],
      "stateMutability": "nonpayable",
      "type": "function"
    },
    {
      "inputs": [
        {
          "internalType": "address",
          "name": "from",
          "type": "address"
        },
        {
          "internalType": "address",
          "name": "to",
          "type": "address"
        },
        {
          "internalType": "uint256",
          "name": "amount",
          "type": "uint256"
        }
      ],
      "name": "transferFrom",
      "outputs": [
        {
          "internalType": "bool",
          "name": "",
          "type": "bool"
        }
      ],
      "stateMutability": "nonpayable",
      "type": "function"
    },
    {
      "inputs": [
        {
          "internalType": "address",
          "name": "",
          "type": "address"
        }
      ],
      "name": "unlockedTokens",
      "outputs": [
        {
          "internalType": "uint256",
          "name": "",
          "type": "uint256"
        }
      ],
      "stateMutability": "view",
      "type": "function"
    },
    {
      "inputs": [],
      "name": "unpause",
      "outputs": [],
      "stateMutability": "nonpayable",
      "type": "function"
    }
  ],
  "transactionHash": "0xa25f414ad8c7ab26927fdaf1922f2f2dc2694e30b260fc2344a31c3c21965826",
  "args": [],
  "numDeployments": 1,
  "solcInputHash": "8790eda4960a674a2f2c240cf78929a5",
  "bytecode": "0x6101406040523480156200001257600080fd5b506040518060400160405280600981526020016823b4b3b0aa37b5b2b760b91b81525080604051806040016040528060018152602001603160f81b8152506040518060400160405280600981526020016823b4b3b0aa37b5b2b760b91b815250604051806040016040528060048152602001634749474160e01b8152508160039081620000a091906200033f565b506004620000af82826200033f565b5050600a805460ff1916905550815160209283012081519183019190912060e08290526101008190524660a0818152604080517f8b73c3c69bb8fe3d512ecc4cf759cc79239f7b179b0ffacaa9a75d522b39400f818801819052818301969096526060810194909452608080850193909352308483018190528151808603909301835260c094850190915281519190950120905291909152610120525062000159600033620001f5565b620001857f5fdbd35e8da83ee755d5e62a539e5ed7f47126abede0b8b10f9ea43dc6eed07f33620001f5565b620001b17f65d7a28e3265b37a6474929f336521b332c1681b933f6cb9f3376673440d862a33620001f5565b620001dd7f9f2df0fed2c77648de5860a4cc508cd0818c85b8b8a1ab4ceeef8d981c8956a633620001f5565b600d80546001600160a01b031916331790556200040b565b60008281526009602090815260408083206001600160a01b038516845290915290205460ff16620002965760008281526009602090815260408083206001600160a01b03851684529091529020805460ff19166001179055620002553390565b6001600160a01b0316816001600160a01b0316837f2f8788117e7eff1d82e926ec794901d17c78024a50270940304540a733656f0d60405160405180910390a45b5050565b634e487b7160e01b600052604160045260246000fd5b600181811c90821680620002c557607f821691505b602082108103620002e657634e487b7160e01b600052602260045260246000fd5b50919050565b601f8211156200033a57600081815260208120601f850160051c81016020861015620003155750805b601f850160051c820191505b81811015620003365782815560010162000321565b5050505b505050565b81516001600160401b038111156200035b576200035b6200029a565b62000373816200036c8454620002b0565b84620002ec565b602080601f831160018114620003ab5760008415620003925750858301515b600019600386901b1c1916600185901b17855562000336565b600085815260208120601f198616915b82811015620003dc57888601518255948401946001909101908401620003bb565b5085821015620003fb5787850151600019600388901b60f8161c191681555b5050505050600190811b01905550565b60805160a05160c05160e05161010051610120516123fd6200045b60003960006111e4015260006112330152600061120e0152600061116701526000611191015260006111bb01526123fd6000f3fe608060405234801561001057600080fd5b50600436106102ad5760003560e01c80635c975abb1161017b5780639711715a116100d8578063d505accf1161008c578063d547741f11610071578063d547741f146105cc578063dd62ed3e146105df578063e63ab1e91461061857600080fd5b8063d505accf14610592578063d5391393146105a557600080fd5b8063a217fddf116100bd578063a217fddf14610564578063a457c2d71461056c578063a9059cbb1461057f57600080fd5b80639711715a14610549578063981b24d01461055157600080fd5b8063836115fe1161012f5780638da5cb5b116101145780638da5cb5b146104f557806391d148541461050857806395d89b411461054157600080fd5b8063836115fe146104cd5780638456cb59146104ed57600080fd5b806370a082311161016057806370a082311461047e57806379cc6790146104a75780637ecebe00146104ba57600080fd5b80635c975abb1461044c5780637028e2cd1461045757600080fd5b8063313ce567116102295780633f4ba83a116101dd57806342966c68116101c257806342966c68146104065780634ee2cd7e14610419578063538ba4f91461042c57600080fd5b80633f4ba83a146103eb57806340c10f19146103f357600080fd5b806336568abe1161020e57806336568abe146103b257806339509351146103c55780633db1c3c9146103d857600080fd5b8063313ce5671461039b5780633644e515146103aa57600080fd5b80631f803ac31161028057806323b872dd1161026557806323b872dd14610352578063248a9ca3146103655780632f2ff15d1461038857600080fd5b80631f803ac3146103145780631fa3f8a01461033d57600080fd5b806301ffc9a7146102b257806306fdde03146102da578063095ea7b3146102ef57806318160ddd14610302575b600080fd5b6102c56102c0366004612072565b61063f565b60405190151581526020015b60405180910390f35b6102e2610676565b6040516102d191906120c0565b6102c56102fd36600461210a565b610708565b6002545b6040519081526020016102d1565b610306610322366004612134565b6001600160a01b03166000908152600e602052604090205490565b61035061034b36600461210a565b610720565b005b6102c561036036600461214f565b610759565b61030661037336600461218b565b60009081526009602052604090206001015490565b6103506103963660046121a4565b61077d565b604051601281526020016102d1565b6103066107a2565b6103506103c03660046121a4565b6107b1565b6102c56103d336600461210a565b610842565b6103506103e636600461210a565b610881565b6103506108b5565b61035061040136600461210a565b6108ea565b61035061041436600461218b565b61091e565b61030661042736600461210a565b610928565b610434600081565b6040516001600160a01b0390911681526020016102d1565b600a5460ff166102c5565b6103067f5fdbd35e8da83ee755d5e62a539e5ed7f47126abede0b8b10f9ea43dc6eed07f81565b61030661048c366004612134565b6001600160a01b031660009081526020819052604090205490565b6103506104b536600461210a565b610981565b6103066104c8366004612134565b610996565b6103066104db366004612134565b600e6020526000908152604090205481565b6103506109b4565b600d54610434906001600160a01b031681565b6102c56105163660046121a4565b60009182526009602090815260408084206001600160a01b0393909316845291905290205460ff1690565b6102e26109e6565b6103506109f5565b61030661055f36600461218b565b610a27565b610306600081565b6102c561057a36600461210a565b610a52565b6102c561058d36600461210a565b610afc565b6103506105a03660046121d0565b610b0a565b6103067f9f2df0fed2c77648de5860a4cc508cd0818c85b8b8a1ab4ceeef8d981c8956a681565b6103506105da3660046121a4565b610c6e565b6103066105ed366004612243565b6001600160a01b03918216600090815260016020908152604080832093909416825291909152205490565b6103067f65d7a28e3265b37a6474929f336521b332c1681b933f6cb9f3376673440d862a81565b60006001600160e01b03198216637965db0b60e01b148061067057506301ffc9a760e01b6001600160e01b03198316145b92915050565b6060600380546106859061226d565b80601f01602080910402602001604051908101604052809291908181526020018280546106b19061226d565b80156106fe5780601f106106d3576101008083540402835291602001916106fe565b820191906000526020600020905b8154815290600101906020018083116106e157829003601f168201915b5050505050905090565b600033610716818585610c93565b5060019392505050565b7f9f2df0fed2c77648de5860a4cc508cd0818c85b8b8a1ab4ceeef8d981c8956a661074a81610db7565b6107548383610dc1565b505050565b600033610767858285610e48565b610772858585610eda565b506001949350505050565b60008281526009602052604090206001015461079881610db7565b61075483836110b8565b60006107ac61115a565b905090565b6001600160a01b03811633146108345760405162461bcd60e51b815260206004820152602f60248201527f416363657373436f6e74726f6c3a2063616e206f6e6c792072656e6f756e636560448201527f20726f6c657320666f722073656c66000000000000000000000000000000000060648201526084015b60405180910390fd5b61083e8282611281565b5050565b3360008181526001602090815260408083206001600160a01b0387168452909152812054909190610716908290869061087c9087906122b7565b610c93565b7f9f2df0fed2c77648de5860a4cc508cd0818c85b8b8a1ab4ceeef8d981c8956a66108ab81610db7565b6107548383611304565b7f65d7a28e3265b37a6474929f336521b332c1681b933f6cb9f3376673440d862a6108df81610db7565b6108e7611460565b50565b7f9f2df0fed2c77648de5860a4cc508cd0818c85b8b8a1ab4ceeef8d981c8956a661091481610db7565b61075483836114b2565b6108e7338261157d565b6001600160a01b03821660009081526005602052604081208190819061094f9085906116bb565b9150915081610976576001600160a01b038516600090815260208190526040902054610978565b805b95945050505050565b61098c823383610e48565b61083e828261157d565b6001600160a01b0381166000908152600b6020526040812054610670565b7f65d7a28e3265b37a6474929f336521b332c1681b933f6cb9f3376673440d862a6109de81610db7565b6108e76117b8565b6060600480546106859061226d565b7f5fdbd35e8da83ee755d5e62a539e5ed7f47126abede0b8b10f9ea43dc6eed07f610a1f81610db7565b61083e6117f5565b6000806000610a378460066116bb565b9150915081610a4857600254610a4a565b805b949350505050565b3360008181526001602090815260408083206001600160a01b038716845290915281205490919083811015610aef5760405162461bcd60e51b815260206004820152602560248201527f45524332303a2064656372656173656420616c6c6f77616e63652062656c6f7760448201527f207a65726f000000000000000000000000000000000000000000000000000000606482015260840161082b565b6107728286868403610c93565b600033610716818585610eda565b83421115610b5a5760405162461bcd60e51b815260206004820152601d60248201527f45524332305065726d69743a206578706972656420646561646c696e65000000604482015260640161082b565b60007f6e71edae12b1b97f4d1f60370fef10105fa2faae0126114a169c64845d6126c9888888610b898c61184f565b6040805160208101969096526001600160a01b0394851690860152929091166060840152608083015260a082015260c0810186905260e0016040516020818303038152906040528051906020012090506000610be482611877565b90506000610bf4828787876118c5565b9050896001600160a01b0316816001600160a01b031614610c575760405162461bcd60e51b815260206004820152601e60248201527f45524332305065726d69743a20696e76616c6964207369676e61747572650000604482015260640161082b565b610c628a8a8a610c93565b50505050505050505050565b600082815260096020526040902060010154610c8981610db7565b6107548383611281565b6001600160a01b038316610cf55760405162461bcd60e51b8152602060048201526024808201527f45524332303a20617070726f76652066726f6d20746865207a65726f206164646044820152637265737360e01b606482015260840161082b565b6001600160a01b038216610d565760405162461bcd60e51b815260206004820152602260248201527f45524332303a20617070726f766520746f20746865207a65726f206164647265604482015261737360f01b606482015260840161082b565b6001600160a01b0383811660008181526001602090815260408083209487168084529482529182902085905590518481527f8c5be1e5ebec7d5bd14f71427d1e84f3dd0314c0f7b2291e5b200ac8c7c3b925910160405180910390a3505050565b6108e781336118ed565b6001600160a01b038216610e175760405162461bcd60e51b815260206004820152601d60248201527f46726f6d206d75737420626520616e2076616c69642061646472657373000000604482015260640161082b565b6001600160a01b0382166000908152600e602052604081208054839290610e3f9084906122b7565b90915550505050565b6001600160a01b038381166000908152600160209081526040808320938616835292905220546000198114610ed45781811015610ec75760405162461bcd60e51b815260206004820152601d60248201527f45524332303a20696e73756666696369656e7420616c6c6f77616e6365000000604482015260640161082b565b610ed48484848403610c93565b50505050565b6001600160a01b038316610f565760405162461bcd60e51b815260206004820152602560248201527f45524332303a207472616e736665722066726f6d20746865207a65726f20616460448201527f6472657373000000000000000000000000000000000000000000000000000000606482015260840161082b565b6001600160a01b038216610fb85760405162461bcd60e51b815260206004820152602360248201527f45524332303a207472616e7366657220746f20746865207a65726f206164647260448201526265737360e81b606482015260840161082b565b610fc3838383611962565b6001600160a01b038316600090815260208190526040902054818110156110525760405162461bcd60e51b815260206004820152602660248201527f45524332303a207472616e7366657220616d6f756e742065786365656473206260448201527f616c616e63650000000000000000000000000000000000000000000000000000606482015260840161082b565b6001600160a01b03848116600081815260208181526040808320878703905593871680835291849020805487019055925185815290927fddf252ad1be2c89b69c2b068fc378daa952ba7f163c4a11628f55a4df523b3ef910160405180910390a3610ed4565b60008281526009602090815260408083206001600160a01b038516845290915290205460ff1661083e5760008281526009602090815260408083206001600160a01b03851684529091529020805460ff191660011790556111163390565b6001600160a01b0316816001600160a01b0316837f2f8788117e7eff1d82e926ec794901d17c78024a50270940304540a733656f0d60405160405180910390a45050565b6000306001600160a01b037f0000000000000000000000000000000000000000000000000000000000000000161480156111b357507f000000000000000000000000000000000000000000000000000000000000000046145b156111dd57507f000000000000000000000000000000000000000000000000000000000000000090565b50604080517f00000000000000000000000000000000000000000000000000000000000000006020808301919091527f0000000000000000000000000000000000000000000000000000000000000000828401527f000000000000000000000000000000000000000000000000000000000000000060608301524660808301523060a0808401919091528351808403909101815260c0909201909252805191012090565b60008281526009602090815260408083206001600160a01b038516845290915290205460ff161561083e5760008281526009602090815260408083206001600160a01b0385168085529252808320805460ff1916905551339285917ff6391f5c32d9c69d2a47ea670b442974b53935d1edc7fd64eb21e047a839171b9190a45050565b600081116113545760405162461bcd60e51b815260206004820181905260248201527f416d6f756e74206d7573742062652067726561746572207468616e207a65726f604482015260640161082b565b6001600160a01b0382166000908152600e60205260409020548111156113e25760405162461bcd60e51b815260206004820152603160248201527f416d6f756e74206d757374206265206c657373206f7220657175616c2074686160448201527f6e20756e6c6f636b656420746f6b656e73000000000000000000000000000000606482015260840161082b565b6001600160a01b0382166114385760405162461bcd60e51b815260206004820152601d60248201527f46726f6d206d75737420626520616e2076616c69642061646472657373000000604482015260640161082b565b6001600160a01b0382166000908152600e602052604081208054839290610e3f9084906122ca565b611468611a0c565b600a805460ff191690557f5db9ee0a495bf2e6ff9c91a7834c1ba4fdd244a5e8aa4e537bd38aeae4b073aa335b6040516001600160a01b03909116815260200160405180910390a1565b6001600160a01b0382166115085760405162461bcd60e51b815260206004820152601f60248201527f45524332303a206d696e7420746f20746865207a65726f206164647265737300604482015260640161082b565b61151460008383611962565b806002600082825461152691906122b7565b90915550506001600160a01b038216600081815260208181526040808320805486019055518481527fddf252ad1be2c89b69c2b068fc378daa952ba7f163c4a11628f55a4df523b3ef910160405180910390a35050565b6001600160a01b0382166115dd5760405162461bcd60e51b815260206004820152602160248201527f45524332303a206275726e2066726f6d20746865207a65726f206164647265736044820152607360f81b606482015260840161082b565b6115e982600083611962565b6001600160a01b0382166000908152602081905260409020548181101561165d5760405162461bcd60e51b815260206004820152602260248201527f45524332303a206275726e20616d6f756e7420657863656564732062616c616e604482015261636560f01b606482015260840161082b565b6001600160a01b0383166000818152602081815260408083208686039055600280548790039055518581529192917fddf252ad1be2c89b69c2b068fc378daa952ba7f163c4a11628f55a4df523b3ef910160405180910390a3505050565b6000806000841161170e5760405162461bcd60e51b815260206004820152601660248201527f4552433230536e617073686f743a206964206973203000000000000000000000604482015260640161082b565b611716611a60565b8411156117655760405162461bcd60e51b815260206004820152601d60248201527f4552433230536e617073686f743a206e6f6e6578697374656e74206964000000604482015260640161082b565b60006117718486611a6b565b845490915081036117895760008092509250506117b1565b60018460010182815481106117a0576117a06122dd565b906000526020600020015492509250505b9250929050565b6117c0611b18565b600a805460ff191660011790557f62e78cea01bee320cd4e420270b5ea74000d11b0c9f74754ebdbfc544b05a2586114953390565b6000611805600880546001019055565b600061180f611a60565b90507f8030e83b04d87bef53480e26263266d6ca66863aa8506aca6f2559d18aa1cb678160405161184291815260200190565b60405180910390a1919050565b6001600160a01b0381166000908152600b602052604090208054600181018255905b50919050565b600061067061188461115a565b8360405161190160f01b6020820152602281018390526042810182905260009060620160405160208183030381529060405280519060200120905092915050565b60008060006118d687878787611b6b565b915091506118e381611c2f565b5095945050505050565b60008281526009602090815260408083206001600160a01b038516845290915290205460ff1661083e5761192081611d79565b61192b836020611d8b565b60405160200161193c9291906122f3565b60408051601f198184030181529082905262461bcd60e51b825261082b916004016120c0565b61196a611b18565b6001600160a01b0383161580159061198a57506001600160a01b03821615155b15611a01576001600160a01b0383166000908152600e60205260409020548111156119f75760405162461bcd60e51b815260206004820152601a60248201527f4e6f7420656e6f75676820756e6c6f636b656420746f6b656e73000000000000604482015260640161082b565b611a018382611304565b610754838383611f3b565b600a5460ff16611a5e5760405162461bcd60e51b815260206004820152601460248201527f5061757361626c653a206e6f7420706175736564000000000000000000000000604482015260640161082b565b565b60006107ac60085490565b81546000908103611a7e57506000610670565b82546000905b80821015611acb576000611a988383611f83565b60008781526020902090915085908201541115611ab757809150611ac5565b611ac28160016122b7565b92505b50611a84565b600082118015611af7575083611af486611ae66001866122ca565b600091825260209091200190565b54145b15611b1057611b076001836122ca565b92505050610670565b509050610670565b600a5460ff1615611a5e5760405162461bcd60e51b815260206004820152601060248201527f5061757361626c653a2070617573656400000000000000000000000000000000604482015260640161082b565b6000807f7fffffffffffffffffffffffffffffff5d576e7357a4501ddfe92f46681b20a0831115611ba25750600090506003611c26565b6040805160008082526020820180845289905260ff881692820192909252606081018690526080810185905260019060a0016020604051602081039080840390855afa158015611bf6573d6000803e3d6000fd5b5050604051601f1901519150506001600160a01b038116611c1f57600060019250925050611c26565b9150600090505b94509492505050565b6000816004811115611c4357611c43612374565b03611c4b5750565b6001816004811115611c5f57611c5f612374565b03611cac5760405162461bcd60e51b815260206004820152601860248201527f45434453413a20696e76616c6964207369676e61747572650000000000000000604482015260640161082b565b6002816004811115611cc057611cc0612374565b03611d0d5760405162461bcd60e51b815260206004820152601f60248201527f45434453413a20696e76616c6964207369676e6174757265206c656e67746800604482015260640161082b565b6003816004811115611d2157611d21612374565b036108e75760405162461bcd60e51b815260206004820152602260248201527f45434453413a20696e76616c6964207369676e6174757265202773272076616c604482015261756560f01b606482015260840161082b565b60606106706001600160a01b03831660145b60606000611d9a83600261238a565b611da59060026122b7565b67ffffffffffffffff811115611dbd57611dbd6123a1565b6040519080825280601f01601f191660200182016040528015611de7576020820181803683370190505b509050600360fc1b81600081518110611e0257611e026122dd565b60200101906001600160f81b031916908160001a905350600f60fb1b81600181518110611e3157611e316122dd565b60200101906001600160f81b031916908160001a9053506000611e5584600261238a565b611e609060016122b7565b90505b6001811115611ee5577f303132333435363738396162636465660000000000000000000000000000000085600f1660108110611ea157611ea16122dd565b1a60f81b828281518110611eb757611eb76122dd565b60200101906001600160f81b031916908160001a90535060049490941c93611ede816123b7565b9050611e63565b508315611f345760405162461bcd60e51b815260206004820181905260248201527f537472696e67733a20686578206c656e67746820696e73756666696369656e74604482015260640161082b565b9392505050565b6001600160a01b038316611f5a57611f5282611f9e565b610754611fd0565b6001600160a01b038216611f7157611f5283611f9e565b611f7a83611f9e565b61075482611f9e565b6000611f9260028484186123ce565b611f34908484166122b7565b6001600160a01b038116600090815260056020908152604080832091839052909120546108e79190611fde565b611fde565b611a5e6006611fcb60025490565b6000611fe8611a60565b905080611ff484612028565b1015610754578254600180820185556000858152602080822090930193909355938401805494850181558252902090910155565b8054600090810361203b57506000919050565b8154829061204b906001906122ca565b8154811061205b5761205b6122dd565b90600052602060002001549050919050565b919050565b60006020828403121561208457600080fd5b81356001600160e01b031981168114611f3457600080fd5b60005b838110156120b757818101518382015260200161209f565b50506000910152565b60208152600082518060208401526120df81604085016020870161209c565b601f01601f19169190910160400192915050565b80356001600160a01b038116811461206d57600080fd5b6000806040838503121561211d57600080fd5b612126836120f3565b946020939093013593505050565b60006020828403121561214657600080fd5b611f34826120f3565b60008060006060848603121561216457600080fd5b61216d846120f3565b925061217b602085016120f3565b9150604084013590509250925092565b60006020828403121561219d57600080fd5b5035919050565b600080604083850312156121b757600080fd5b823591506121c7602084016120f3565b90509250929050565b600080600080600080600060e0888a0312156121eb57600080fd5b6121f4886120f3565b9650612202602089016120f3565b95506040880135945060608801359350608088013560ff8116811461222657600080fd5b9699959850939692959460a0840135945060c09093013592915050565b6000806040838503121561225657600080fd5b61225f836120f3565b91506121c7602084016120f3565b600181811c9082168061228157607f821691505b60208210810361187157634e487b7160e01b600052602260045260246000fd5b634e487b7160e01b600052601160045260246000fd5b80820180821115610670576106706122a1565b81810381811115610670576106706122a1565b634e487b7160e01b600052603260045260246000fd5b7f416363657373436f6e74726f6c3a206163636f756e742000000000000000000081526000835161232b81601785016020880161209c565b7f206973206d697373696e6720726f6c6520000000000000000000000000000000601791840191820152835161236881602884016020880161209c565b01602801949350505050565b634e487b7160e01b600052602160045260246000fd5b8082028115828204841417610670576106706122a1565b634e487b7160e01b600052604160045260246000fd5b6000816123c6576123c66122a1565b506000190190565b6000826123eb57634e487b7160e01b600052601260045260246000fd5b50049056fea164736f6c6343000813000a",
  "devdoc": {
    "details": "This is a custom token contract for the \"GigaToken\". It includes functionalities such as burnable tokens, token snapshots, access control, pausability and permit features. The token also adds the ability to increase and decrease unlocked tokens for a specific address. The increase and decrease of unlocked tokens is controlled by an account with the minter role. Transfers are only allowed when the contract is not paused and if the sender has enough unlocked tokens.",
    "events": {
      "Approval(address,address,uint256)": {
        "details": "Emitted when the allowance of a `spender` for an `owner` is set by a call to {approve}. `value` is the new allowance."
      },
      "Paused(address)": {
        "details": "Emitted when the pause is triggered by `account`."
      },
      "RoleAdminChanged(bytes32,bytes32,bytes32)": {
        "details": "Emitted when `newAdminRole` is set as ``role``'s admin role, replacing `previousAdminRole` `DEFAULT_ADMIN_ROLE` is the starting admin for all roles, despite {RoleAdminChanged} not being emitted signaling this. _Available since v3.1._"
      },
      "RoleGranted(bytes32,address,address)": {
        "details": "Emitted when `account` is granted `role`. `sender` is the account that originated the contract call, an admin role bearer except when using {AccessControl-_setupRole}."
      },
      "RoleRevoked(bytes32,address,address)": {
        "details": "Emitted when `account` is revoked `role`. `sender` is the account that originated the contract call:   - if using `revokeRole`, it is the admin role bearer   - if using `renounceRole`, it is the role bearer (i.e. `account`)"
      },
      "Snapshot(uint256)": {
        "details": "Emitted by {_snapshot} when a snapshot identified by `id` is created."
      },
      "Transfer(address,address,uint256)": {
        "details": "Emitted when `value` tokens are moved from one account (`from`) to another (`to`). Note that `value` may be zero."
      },
      "Unpaused(address)": {
        "details": "Emitted when the pause is lifted by `account`."
      }
    },
    "kind": "dev",
    "methods": {
      "DOMAIN_SEPARATOR()": {
        "details": "See {IERC20Permit-DOMAIN_SEPARATOR}."
      },
      "allowance(address,address)": {
        "details": "See {IERC20-allowance}."
      },
      "approve(address,uint256)": {
        "details": "See {IERC20-approve}. NOTE: If `amount` is the maximum `uint256`, the allowance is not updated on `transferFrom`. This is semantically equivalent to an infinite approval. Requirements: - `spender` cannot be the zero address."
      },
      "balanceOf(address)": {
        "details": "See {IERC20-balanceOf}."
      },
      "balanceOfAt(address,uint256)": {
        "details": "Retrieves the balance of `account` at the time `snapshotId` was created."
      },
      "burn(uint256)": {
        "details": "Destroys `amount` tokens from the caller. See {ERC20-_burn}."
      },
      "burnFrom(address,uint256)": {
        "details": "Destroys `amount` tokens from `account`, deducting from the caller's allowance. See {ERC20-_burn} and {ERC20-allowance}. Requirements: - the caller must have allowance for ``accounts``'s tokens of at least `amount`."
      },
      "constructor": {
        "details": "Sets the values for `name` and `symbol`, initializes the `decimals` with a default value of 18. Grants the minter, pauser and snapshot roles to the deployer and sets them as owner."
      },
      "decimals()": {
        "details": "Returns the number of decimals used to get its user representation. For example, if `decimals` equals `2`, a balance of `505` tokens should be displayed to a user as `5.05` (`505 / 10 ** 2`). Tokens usually opt for a value of 18, imitating the relationship between Ether and Wei. This is the value {ERC20} uses, unless this function is overridden; NOTE: This information is only used for _display_ purposes: it in no way affects any of the arithmetic of the contract, including {IERC20-balanceOf} and {IERC20-transfer}."
      },
      "decreaseAllowance(address,uint256)": {
        "details": "Atomically decreases the allowance granted to `spender` by the caller. This is an alternative to {approve} that can be used as a mitigation for problems described in {IERC20-approve}. Emits an {Approval} event indicating the updated allowance. Requirements: - `spender` cannot be the zero address. - `spender` must have allowance for the caller of at least `subtractedValue`."
      },
      "decreaseUnlockedTokens(address,uint256)": {
        "details": "Decrease the amount of unlocked tokens for a given address. Can only be called by an account with the minter role.",
        "params": {
          "_amount": "The amount of tokens to lock.",
          "_recipient": "The address to decrease the unlocked tokens for."
        }
      },
      "getRoleAdmin(bytes32)": {
        "details": "Returns the admin role that controls `role`. See {grantRole} and {revokeRole}. To change a role's admin, use {_setRoleAdmin}."
      },
      "getUnlockedTokens(address)": {
        "details": "Returns the amount of unlocked tokens for a specific address.",
        "params": {
          "_from": "The address to check the unlocked tokens for."
        },
        "returns": {
          "_0": "The amount of unlocked tokens."
        }
      },
      "grantRole(bytes32,address)": {
        "details": "Grants `role` to `account`. If `account` had not been already granted `role`, emits a {RoleGranted} event. Requirements: - the caller must have ``role``'s admin role. May emit a {RoleGranted} event."
      },
      "hasRole(bytes32,address)": {
        "details": "Returns `true` if `account` has been granted `role`."
      },
      "increaseAllowance(address,uint256)": {
        "details": "Atomically increases the allowance granted to `spender` by the caller. This is an alternative to {approve} that can be used as a mitigation for problems described in {IERC20-approve}. Emits an {Approval} event indicating the updated allowance. Requirements: - `spender` cannot be the zero address."
      },
      "increaseUnlockedTokens(address,uint256)": {
        "details": "Increase the amount of unlocked tokens for a given address. Can only be called by an account with the minter role.",
        "params": {
          "_amount": "The amount of tokens to unlock.",
          "_recipient": "The address to increase the unlocked tokens for."
        }
      },
      "mint(address,uint256)": {
        "details": "Creates `amount` new tokens and assigns them to `account`, increasing the total supply. Can only be called by an account with the minter role.",
        "params": {
          "_amount": "Amount of tokens to mint.",
          "_to": "Address to mint the tokens to."
        }
      },
      "name()": {
        "details": "Returns the name of the token."
      },
      "nonces(address)": {
        "details": "See {IERC20Permit-nonces}."
      },
      "pause()": {
        "details": "Pauses all token transfers. Can only be called by an account with the pauser role."
      },
      "paused()": {
        "details": "Returns true if the contract is paused, and false otherwise."
      },
      "permit(address,address,uint256,uint256,uint8,bytes32,bytes32)": {
        "details": "See {IERC20Permit-permit}."
      },
      "renounceRole(bytes32,address)": {
        "details": "Revokes `role` from the calling account. Roles are often managed via {grantRole} and {revokeRole}: this function's purpose is to provide a mechanism for accounts to lose their privileges if they are compromised (such as when a trusted device is misplaced). If the calling account had been revoked `role`, emits a {RoleRevoked} event. Requirements: - the caller must be `account`. May emit a {RoleRevoked} event."
      },
      "revokeRole(bytes32,address)": {
        "details": "Revokes `role` from `account`. If `account` had been granted `role`, emits a {RoleRevoked} event. Requirements: - the caller must have ``role``'s admin role. May emit a {RoleRevoked} event."
      },
      "snapshot()": {
        "details": "Creates a new snapshot ID. Can only be called by an account with the snapshot role."
      },
      "supportsInterface(bytes4)": {
        "details": "See {IERC165-supportsInterface}."
      },
      "symbol()": {
        "details": "Returns the symbol of the token, usually a shorter version of the name."
      },
      "totalSupply()": {
        "details": "See {IERC20-totalSupply}."
      },
      "totalSupplyAt(uint256)": {
        "details": "Retrieves the total supply at the time `snapshotId` was created."
      },
      "transfer(address,uint256)": {
        "details": "See {IERC20-transfer}. Requirements: - `to` cannot be the zero address. - the caller must have a balance of at least `amount`."
      },
      "transferFrom(address,address,uint256)": {
        "details": "See {IERC20-transferFrom}. Emits an {Approval} event indicating the updated allowance. This is not required by the EIP. See the note at the beginning of {ERC20}. NOTE: Does not update the allowance if the current allowance is the maximum `uint256`. Requirements: - `from` and `to` cannot be the zero address. - `from` must have a balance of at least `amount`. - the caller must have allowance for ``from``'s tokens of at least `amount`."
      },
      "unpause()": {
        "details": "Unpauses all token transfers. Can only be called by an account with the pauser role."
      }
    },
    "version": 1
  },
  "userdoc": {
    "kind": "user",
    "methods": {},
    "version": 1
  },
  "storageLayout": {
    "storage": [
      {
        "astId": 512,
        "contract": "contracts/GigaToken.sol:GigaToken",
        "label": "_balances",
        "offset": 0,
        "slot": "0",
        "type": "t_mapping(t_address,t_uint256)"
      },
      {
        "astId": 518,
        "contract": "contracts/GigaToken.sol:GigaToken",
        "label": "_allowances",
        "offset": 0,
        "slot": "1",
        "type": "t_mapping(t_address,t_mapping(t_address,t_uint256))"
      },
      {
        "astId": 520,
        "contract": "contracts/GigaToken.sol:GigaToken",
        "label": "_totalSupply",
        "offset": 0,
        "slot": "2",
        "type": "t_uint256"
      },
      {
        "astId": 522,
        "contract": "contracts/GigaToken.sol:GigaToken",
        "label": "_name",
        "offset": 0,
        "slot": "3",
        "type": "t_string_storage"
      },
      {
        "astId": 524,
        "contract": "contracts/GigaToken.sol:GigaToken",
        "label": "_symbol",
        "offset": 0,
        "slot": "4",
        "type": "t_string_storage"
      },
      {
        "astId": 1233,
        "contract": "contracts/GigaToken.sol:GigaToken",
        "label": "_accountBalanceSnapshots",
        "offset": 0,
        "slot": "5",
        "type": "t_mapping(t_address,t_struct(Snapshots)1228_storage)"
      },
      {
        "astId": 1236,
        "contract": "contracts/GigaToken.sol:GigaToken",
        "label": "_totalSupplySnapshots",
        "offset": 0,
        "slot": "6",
        "type": "t_struct(Snapshots)1228_storage"
      },
      {
        "astId": 1239,
        "contract": "contracts/GigaToken.sol:GigaToken",
        "label": "_currentSnapshotId",
        "offset": 0,
        "slot": "8",
        "type": "t_struct(Counter)1950_storage"
      },
      {
        "astId": 24,
        "contract": "contracts/GigaToken.sol:GigaToken",
        "label": "_roles",
        "offset": 0,
        "slot": "9",
        "type": "t_mapping(t_bytes32,t_struct(RoleData)19_storage)"
      },
      {
        "astId": 406,
        "contract": "contracts/GigaToken.sol:GigaToken",
        "label": "_paused",
        "offset": 0,
        "slot": "10",
        "type": "t_bool"
      },
      {
        "astId": 1581,
        "contract": "contracts/GigaToken.sol:GigaToken",
        "label": "_nonces",
        "offset": 0,
        "slot": "11",
        "type": "t_mapping(t_address,t_struct(Counter)1950_storage)"
      },
      {
        "astId": 1589,
        "contract": "contracts/GigaToken.sol:GigaToken",
        "label": "_PERMIT_TYPEHASH_DEPRECATED_SLOT",
        "offset": 0,
        "slot": "12",
        "type": "t_bytes32"
      },
      {
        "astId": 3713,
        "contract": "contracts/GigaToken.sol:GigaToken",
        "label": "owner",
        "offset": 0,
        "slot": "13",
        "type": "t_address"
      },
      {
        "astId": 3717,
        "contract": "contracts/GigaToken.sol:GigaToken",
        "label": "unlockedTokens",
        "offset": 0,
        "slot": "14",
        "type": "t_mapping(t_address,t_uint256)"
      }
    ],
    "types": {
      "t_address": {
        "encoding": "inplace",
        "label": "address",
        "numberOfBytes": "20"
      },
      "t_array(t_uint256)dyn_storage": {
        "base": "t_uint256",
        "encoding": "dynamic_array",
        "label": "uint256[]",
        "numberOfBytes": "32"
      },
      "t_bool": {
        "encoding": "inplace",
        "label": "bool",
        "numberOfBytes": "1"
      },
      "t_bytes32": {
        "encoding": "inplace",
        "label": "bytes32",
        "numberOfBytes": "32"
      },
      "t_mapping(t_address,t_bool)": {
        "encoding": "mapping",
        "key": "t_address",
        "label": "mapping(address => bool)",
        "numberOfBytes": "32",
        "value": "t_bool"
      },
      "t_mapping(t_address,t_mapping(t_address,t_uint256))": {
        "encoding": "mapping",
        "key": "t_address",
        "label": "mapping(address => mapping(address => uint256))",
        "numberOfBytes": "32",
        "value": "t_mapping(t_address,t_uint256)"
      },
      "t_mapping(t_address,t_struct(Counter)1950_storage)": {
        "encoding": "mapping",
        "key": "t_address",
        "label": "mapping(address => struct Counters.Counter)",
        "numberOfBytes": "32",
        "value": "t_struct(Counter)1950_storage"
      },
      "t_mapping(t_address,t_struct(Snapshots)1228_storage)": {
        "encoding": "mapping",
        "key": "t_address",
        "label": "mapping(address => struct ERC20Snapshot.Snapshots)",
        "numberOfBytes": "32",
        "value": "t_struct(Snapshots)1228_storage"
      },
      "t_mapping(t_address,t_uint256)": {
        "encoding": "mapping",
        "key": "t_address",
        "label": "mapping(address => uint256)",
        "numberOfBytes": "32",
        "value": "t_uint256"
      },
      "t_mapping(t_bytes32,t_struct(RoleData)19_storage)": {
        "encoding": "mapping",
        "key": "t_bytes32",
        "label": "mapping(bytes32 => struct AccessControl.RoleData)",
        "numberOfBytes": "32",
        "value": "t_struct(RoleData)19_storage"
      },
      "t_string_storage": {
        "encoding": "bytes",
        "label": "string",
        "numberOfBytes": "32"
      },
      "t_struct(Counter)1950_storage": {
        "encoding": "inplace",
        "label": "struct Counters.Counter",
        "members": [
          {
            "astId": 1949,
            "contract": "contracts/GigaToken.sol:GigaToken",
            "label": "_value",
            "offset": 0,
            "slot": "0",
            "type": "t_uint256"
          }
        ],
        "numberOfBytes": "32"
      },
      "t_struct(RoleData)19_storage": {
        "encoding": "inplace",
        "label": "struct AccessControl.RoleData",
        "members": [
          {
            "astId": 16,
            "contract": "contracts/GigaToken.sol:GigaToken",
            "label": "members",
            "offset": 0,
            "slot": "0",
            "type": "t_mapping(t_address,t_bool)"
          },
          {
            "astId": 18,
            "contract": "contracts/GigaToken.sol:GigaToken",
            "label": "adminRole",
            "offset": 0,
            "slot": "1",
            "type": "t_bytes32"
          }
        ],
        "numberOfBytes": "64"
      },
      "t_struct(Snapshots)1228_storage": {
        "encoding": "inplace",
        "label": "struct ERC20Snapshot.Snapshots",
        "members": [
          {
            "astId": 1224,
            "contract": "contracts/GigaToken.sol:GigaToken",
            "label": "ids",
            "offset": 0,
            "slot": "0",
            "type": "t_array(t_uint256)dyn_storage"
          },
          {
            "astId": 1227,
            "contract": "contracts/GigaToken.sol:GigaToken",
            "label": "values",
            "offset": 0,
            "slot": "1",
            "type": "t_array(t_uint256)dyn_storage"
          }
        ],
        "numberOfBytes": "64"
      },
      "t_uint256": {
        "encoding": "inplace",
        "label": "uint256",
        "numberOfBytes": "32"
      }
    }
  }
}