{
	"contracts/pair.sol": {
		"EZKaliburPair": {
			"abi": [
				{
					"inputs": [],
					"payable": false,
					"stateMutability": "nonpayable",
					"type": "constructor"
				},
				{
					"anonymous": false,
					"inputs": [
						{
							"indexed": true,
							"internalType": "address",
							"name": "owner",
							"type": "address"
						},
						{
							"indexed": true,
							"internalType": "address",
							"name": "spender",
							"type": "address"
						},
						{
							"indexed": false,
							"internalType": "uint256",
							"name": "value",
							"type": "uint256"
						}
					],
					"name": "Approval",
					"type": "event"
				},
				{
					"anonymous": false,
					"inputs": [
						{
							"indexed": true,
							"internalType": "address",
							"name": "sender",
							"type": "address"
						},
						{
							"indexed": false,
							"internalType": "uint256",
							"name": "amount0",
							"type": "uint256"
						},
						{
							"indexed": false,
							"internalType": "uint256",
							"name": "amount1",
							"type": "uint256"
						},
						{
							"indexed": true,
							"internalType": "address",
							"name": "to",
							"type": "address"
						}
					],
					"name": "Burn",
					"type": "event"
				},
				{
					"anonymous": false,
					"inputs": [
						{
							"indexed": true,
							"internalType": "address",
							"name": "token",
							"type": "address"
						},
						{
							"indexed": false,
							"internalType": "address",
							"name": "to",
							"type": "address"
						}
					],
					"name": "DrainWrongToken",
					"type": "event"
				},
				{
					"anonymous": false,
					"inputs": [
						{
							"indexed": false,
							"internalType": "uint16",
							"name": "token0FeePercent",
							"type": "uint16"
						},
						{
							"indexed": false,
							"internalType": "uint16",
							"name": "token1FeePercent",
							"type": "uint16"
						}
					],
					"name": "FeePercentUpdated",
					"type": "event"
				},
				{
					"anonymous": false,
					"inputs": [
						{
							"indexed": true,
							"internalType": "address",
							"name": "sender",
							"type": "address"
						},
						{
							"indexed": false,
							"internalType": "uint256",
							"name": "amount0",
							"type": "uint256"
						},
						{
							"indexed": false,
							"internalType": "uint256",
							"name": "amount1",
							"type": "uint256"
						}
					],
					"name": "Mint",
					"type": "event"
				},
				{
					"anonymous": false,
					"inputs": [],
					"name": "SetPairTypeImmutable",
					"type": "event"
				},
				{
					"anonymous": false,
					"inputs": [
						{
							"indexed": false,
							"internalType": "bool",
							"name": "prevStableSwap",
							"type": "bool"
						},
						{
							"indexed": false,
							"internalType": "bool",
							"name": "stableSwap",
							"type": "bool"
						}
					],
					"name": "SetStableSwap",
					"type": "event"
				},
				{
					"anonymous": false,
					"inputs": [],
					"name": "Skim",
					"type": "event"
				},
				{
					"anonymous": false,
					"inputs": [
						{
							"indexed": true,
							"internalType": "address",
							"name": "sender",
							"type": "address"
						},
						{
							"indexed": false,
							"internalType": "uint256",
							"name": "amount0In",
							"type": "uint256"
						},
						{
							"indexed": false,
							"internalType": "uint256",
							"name": "amount1In",
							"type": "uint256"
						},
						{
							"indexed": false,
							"internalType": "uint256",
							"name": "amount0Out",
							"type": "uint256"
						},
						{
							"indexed": false,
							"internalType": "uint256",
							"name": "amount1Out",
							"type": "uint256"
						},
						{
							"indexed": true,
							"internalType": "address",
							"name": "to",
							"type": "address"
						}
					],
					"name": "Swap",
					"type": "event"
				},
				{
					"anonymous": false,
					"inputs": [
						{
							"indexed": false,
							"internalType": "uint112",
							"name": "reserve0",
							"type": "uint112"
						},
						{
							"indexed": false,
							"internalType": "uint112",
							"name": "reserve1",
							"type": "uint112"
						}
					],
					"name": "Sync",
					"type": "event"
				},
				{
					"anonymous": false,
					"inputs": [
						{
							"indexed": true,
							"internalType": "address",
							"name": "from",
							"type": "address"
						},
						{
							"indexed": true,
							"internalType": "address",
							"name": "to",
							"type": "address"
						},
						{
							"indexed": false,
							"internalType": "uint256",
							"name": "value",
							"type": "uint256"
						}
					],
					"name": "Transfer",
					"type": "event"
				},
				{
					"constant": true,
					"inputs": [],
					"name": "DOMAIN_SEPARATOR",
					"outputs": [
						{
							"internalType": "bytes32",
							"name": "",
							"type": "bytes32"
						}
					],
					"payable": false,
					"stateMutability": "view",
					"type": "function"
				},
				{
					"constant": true,
					"inputs": [],
					"name": "FEE_DENOMINATOR",
					"outputs": [
						{
							"internalType": "uint256",
							"name": "",
							"type": "uint256"
						}
					],
					"payable": false,
					"stateMutability": "view",
					"type": "function"
				},
				{
					"constant": true,
					"inputs": [],
					"name": "MAX_FEE_PERCENT",
					"outputs": [
						{
							"internalType": "uint256",
							"name": "",
							"type": "uint256"
						}
					],
					"payable": false,
					"stateMutability": "view",
					"type": "function"
				},
				{
					"constant": true,
					"inputs": [],
					"name": "MINIMUM_LIQUIDITY",
					"outputs": [
						{
							"internalType": "uint256",
							"name": "",
							"type": "uint256"
						}
					],
					"payable": false,
					"stateMutability": "view",
					"type": "function"
				},
				{
					"constant": true,
					"inputs": [],
					"name": "PERMIT_TYPEHASH",
					"outputs": [
						{
							"internalType": "bytes32",
							"name": "",
							"type": "bytes32"
						}
					],
					"payable": false,
					"stateMutability": "view",
					"type": "function"
				},
				{
					"constant": true,
					"inputs": [
						{
							"internalType": "address",
							"name": "",
							"type": "address"
						},
						{
							"internalType": "address",
							"name": "",
							"type": "address"
						}
					],
					"name": "allowance",
					"outputs": [
						{
							"internalType": "uint256",
							"name": "",
							"type": "uint256"
						}
					],
					"payable": false,
					"stateMutability": "view",
					"type": "function"
				},
				{
					"constant": false,
					"inputs": [
						{
							"internalType": "address",
							"name": "spender",
							"type": "address"
						},
						{
							"internalType": "uint256",
							"name": "value",
							"type": "uint256"
						}
					],
					"name": "approve",
					"outputs": [
						{
							"internalType": "bool",
							"name": "",
							"type": "bool"
						}
					],
					"payable": false,
					"stateMutability": "nonpayable",
					"type": "function"
				},
				{
					"constant": true,
					"inputs": [
						{
							"internalType": "address",
							"name": "",
							"type": "address"
						}
					],
					"name": "balanceOf",
					"outputs": [
						{
							"internalType": "uint256",
							"name": "",
							"type": "uint256"
						}
					],
					"payable": false,
					"stateMutability": "view",
					"type": "function"
				},
				{
					"constant": false,
					"inputs": [
						{
							"internalType": "address",
							"name": "to",
							"type": "address"
						}
					],
					"name": "burn",
					"outputs": [
						{
							"internalType": "uint256",
							"name": "amount0",
							"type": "uint256"
						},
						{
							"internalType": "uint256",
							"name": "amount1",
							"type": "uint256"
						}
					],
					"payable": false,
					"stateMutability": "nonpayable",
					"type": "function"
				},
				{
					"constant": true,
					"inputs": [],
					"name": "decimals",
					"outputs": [
						{
							"internalType": "uint8",
							"name": "",
							"type": "uint8"
						}
					],
					"payable": false,
					"stateMutability": "view",
					"type": "function"
				},
				{
					"constant": false,
					"inputs": [
						{
							"internalType": "address",
							"name": "token",
							"type": "address"
						},
						{
							"internalType": "address",
							"name": "to",
							"type": "address"
						}
					],
					"name": "drainWrongToken",
					"outputs": [],
					"payable": false,
					"stateMutability": "nonpayable",
					"type": "function"
				},
				{
					"constant": true,
					"inputs": [],
					"name": "factory",
					"outputs": [
						{
							"internalType": "address",
							"name": "",
							"type": "address"
						}
					],
					"payable": false,
					"stateMutability": "view",
					"type": "function"
				},
				{
					"constant": true,
					"inputs": [
						{
							"internalType": "uint256",
							"name": "amountIn",
							"type": "uint256"
						},
						{
							"internalType": "address",
							"name": "tokenIn",
							"type": "address"
						}
					],
					"name": "getAmountOut",
					"outputs": [
						{
							"internalType": "uint256",
							"name": "",
							"type": "uint256"
						}
					],
					"payable": false,
					"stateMutability": "view",
					"type": "function"
				},
				{
					"constant": true,
					"inputs": [],
					"name": "getReserves",
					"outputs": [
						{
							"internalType": "uint112",
							"name": "_reserve0",
							"type": "uint112"
						},
						{
							"internalType": "uint112",
							"name": "_reserve1",
							"type": "uint112"
						},
						{
							"internalType": "uint16",
							"name": "_token0FeePercent",
							"type": "uint16"
						},
						{
							"internalType": "uint16",
							"name": "_token1FeePercent",
							"type": "uint16"
						}
					],
					"payable": false,
					"stateMutability": "view",
					"type": "function"
				},
				{
					"constant": false,
					"inputs": [
						{
							"internalType": "address",
							"name": "_token0",
							"type": "address"
						},
						{
							"internalType": "address",
							"name": "_token1",
							"type": "address"
						}
					],
					"name": "initialize",
					"outputs": [],
					"payable": false,
					"stateMutability": "nonpayable",
					"type": "function"
				},
				{
					"constant": true,
					"inputs": [],
					"name": "initialized",
					"outputs": [
						{
							"internalType": "bool",
							"name": "",
							"type": "bool"
						}
					],
					"payable": false,
					"stateMutability": "view",
					"type": "function"
				},
				{
					"constant": true,
					"inputs": [],
					"name": "kLast",
					"outputs": [
						{
							"internalType": "uint256",
							"name": "",
							"type": "uint256"
						}
					],
					"payable": false,
					"stateMutability": "view",
					"type": "function"
				},
				{
					"constant": false,
					"inputs": [
						{
							"internalType": "address",
							"name": "to",
							"type": "address"
						}
					],
					"name": "mint",
					"outputs": [
						{
							"internalType": "uint256",
							"name": "liquidity",
							"type": "uint256"
						}
					],
					"payable": false,
					"stateMutability": "nonpayable",
					"type": "function"
				},
				{
					"constant": true,
					"inputs": [],
					"name": "name",
					"outputs": [
						{
							"internalType": "string",
							"name": "",
							"type": "string"
						}
					],
					"payable": false,
					"stateMutability": "view",
					"type": "function"
				},
				{
					"constant": true,
					"inputs": [
						{
							"internalType": "address",
							"name": "",
							"type": "address"
						}
					],
					"name": "nonces",
					"outputs": [
						{
							"internalType": "uint256",
							"name": "",
							"type": "uint256"
						}
					],
					"payable": false,
					"stateMutability": "view",
					"type": "function"
				},
				{
					"constant": true,
					"inputs": [],
					"name": "pairTypeImmutable",
					"outputs": [
						{
							"internalType": "bool",
							"name": "",
							"type": "bool"
						}
					],
					"payable": false,
					"stateMutability": "view",
					"type": "function"
				},
				{
					"constant": false,
					"inputs": [
						{
							"internalType": "address",
							"name": "owner",
							"type": "address"
						},
						{
							"internalType": "address",
							"name": "spender",
							"type": "address"
						},
						{
							"internalType": "uint256",
							"name": "value",
							"type": "uint256"
						},
						{
							"internalType": "uint256",
							"name": "deadline",
							"type": "uint256"
						},
						{
							"internalType": "uint8",
							"name": "v",
							"type": "uint8"
						},
						{
							"internalType": "bytes32",
							"name": "r",
							"type": "bytes32"
						},
						{
							"internalType": "bytes32",
							"name": "s",
							"type": "bytes32"
						}
					],
					"name": "permit",
					"outputs": [],
					"payable": false,
					"stateMutability": "nonpayable",
					"type": "function"
				},
				{
					"constant": true,
					"inputs": [],
					"name": "precisionMultiplier0",
					"outputs": [
						{
							"internalType": "uint256",
							"name": "",
							"type": "uint256"
						}
					],
					"payable": false,
					"stateMutability": "view",
					"type": "function"
				},
				{
					"constant": true,
					"inputs": [],
					"name": "precisionMultiplier1",
					"outputs": [
						{
							"internalType": "uint256",
							"name": "",
							"type": "uint256"
						}
					],
					"payable": false,
					"stateMutability": "view",
					"type": "function"
				},
				{
					"constant": false,
					"inputs": [
						{
							"internalType": "uint16",
							"name": "newToken0FeePercent",
							"type": "uint16"
						},
						{
							"internalType": "uint16",
							"name": "newToken1FeePercent",
							"type": "uint16"
						}
					],
					"name": "setFeePercent",
					"outputs": [],
					"payable": false,
					"stateMutability": "nonpayable",
					"type": "function"
				},
				{
					"constant": false,
					"inputs": [],
					"name": "setPairTypeImmutable",
					"outputs": [],
					"payable": false,
					"stateMutability": "nonpayable",
					"type": "function"
				},
				{
					"constant": false,
					"inputs": [
						{
							"internalType": "bool",
							"name": "stable",
							"type": "bool"
						},
						{
							"internalType": "uint112",
							"name": "expectedReserve0",
							"type": "uint112"
						},
						{
							"internalType": "uint112",
							"name": "expectedReserve1",
							"type": "uint112"
						}
					],
					"name": "setStableSwap",
					"outputs": [],
					"payable": false,
					"stateMutability": "nonpayable",
					"type": "function"
				},
				{
					"constant": false,
					"inputs": [
						{
							"internalType": "address",
							"name": "to",
							"type": "address"
						}
					],
					"name": "skim",
					"outputs": [],
					"payable": false,
					"stateMutability": "nonpayable",
					"type": "function"
				},
				{
					"constant": true,
					"inputs": [],
					"name": "stableSwap",
					"outputs": [
						{
							"internalType": "bool",
							"name": "",
							"type": "bool"
						}
					],
					"payable": false,
					"stateMutability": "view",
					"type": "function"
				},
				{
					"constant": false,
					"inputs": [
						{
							"internalType": "uint256",
							"name": "amount0Out",
							"type": "uint256"
						},
						{
							"internalType": "uint256",
							"name": "amount1Out",
							"type": "uint256"
						},
						{
							"internalType": "address",
							"name": "to",
							"type": "address"
						},
						{
							"internalType": "bytes",
							"name": "data",
							"type": "bytes"
						}
					],
					"name": "swap",
					"outputs": [],
					"payable": false,
					"stateMutability": "nonpayable",
					"type": "function"
				},
				{
					"constant": false,
					"inputs": [
						{
							"internalType": "uint256",
							"name": "amount0Out",
							"type": "uint256"
						},
						{
							"internalType": "uint256",
							"name": "amount1Out",
							"type": "uint256"
						},
						{
							"internalType": "address",
							"name": "to",
							"type": "address"
						},
						{
							"internalType": "bytes",
							"name": "data",
							"type": "bytes"
						},
						{
							"internalType": "address",
							"name": "referrer",
							"type": "address"
						}
					],
					"name": "swap",
					"outputs": [],
					"payable": false,
					"stateMutability": "nonpayable",
					"type": "function"
				},
				{
					"constant": true,
					"inputs": [],
					"name": "symbol",
					"outputs": [
						{
							"internalType": "string",
							"name": "",
							"type": "string"
						}
					],
					"payable": false,
					"stateMutability": "view",
					"type": "function"
				},
				{
					"constant": false,
					"inputs": [],
					"name": "sync",
					"outputs": [],
					"payable": false,
					"stateMutability": "nonpayable",
					"type": "function"
				},
				{
					"constant": true,
					"inputs": [],
					"name": "token0",
					"outputs": [
						{
							"internalType": "address",
							"name": "",
							"type": "address"
						}
					],
					"payable": false,
					"stateMutability": "view",
					"type": "function"
				},
				{
					"constant": true,
					"inputs": [],
					"name": "token0FeePercent",
					"outputs": [
						{
							"internalType": "uint16",
							"name": "",
							"type": "uint16"
						}
					],
					"payable": false,
					"stateMutability": "view",
					"type": "function"
				},
				{
					"constant": true,
					"inputs": [],
					"name": "token1",
					"outputs": [
						{
							"internalType": "address",
							"name": "",
							"type": "address"
						}
					],
					"payable": false,
					"stateMutability": "view",
					"type": "function"
				},
				{
					"constant": true,
					"inputs": [],
					"name": "token1FeePercent",
					"outputs": [
						{
							"internalType": "uint16",
							"name": "",
							"type": "uint16"
						}
					],
					"payable": false,
					"stateMutability": "view",
					"type": "function"
				},
				{
					"constant": true,
					"inputs": [],
					"name": "totalSupply",
					"outputs": [
						{
							"internalType": "uint256",
							"name": "",
							"type": "uint256"
						}
					],
					"payable": false,
					"stateMutability": "view",
					"type": "function"
				},
				{
					"constant": false,
					"inputs": [
						{
							"internalType": "address",
							"name": "to",
							"type": "address"
						},
						{
							"internalType": "uint256",
							"name": "value",
							"type": "uint256"
						}
					],
					"name": "transfer",
					"outputs": [
						{
							"internalType": "bool",
							"name": "",
							"type": "bool"
						}
					],
					"payable": false,
					"stateMutability": "nonpayable",
					"type": "function"
				},
				{
					"constant": false,
					"inputs": [
						{
							"internalType": "address",
							"name": "from",
							"type": "address"
						},
						{
							"internalType": "address",
							"name": "to",
							"type": "address"
						},
						{
							"internalType": "uint256",
							"name": "value",
							"type": "uint256"
						}
					],
					"name": "transferFrom",
					"outputs": [
						{
							"internalType": "bool",
							"name": "",
							"type": "bool"
						}
					],
					"payable": false,
					"stateMutability": "nonpayable",
					"type": "function"
				}
			],
			"devdoc": {
				"methods": {
					"drainWrongToken(address,address)": {
						"details": "Allow to recover token sent here by mistake  * Can only be called by factory's owner"
					},
					"setFeePercent(uint16,uint16)": {
						"details": "Updates the swap fees percent  * Can only be called by the factory's feeAmountOwner"
					}
				}
			},
			"evm": {
				"assembly": "    /* \"contracts/pair.sol\":236:17820  contract EZKaliburPair is IPair, UniswapV2ERC20 {... */\n  mstore(0x40, 0x80)\n    /* \"contracts/pair.sol\":893:896  300 */\n  0x012c\n    /* \"contracts/pair.sol\":860:896  uint16 public token0FeePercent = 300 */\n  0x08\n  exp(0x0100, 0x1c)\n  dup2\n  sload\n  dup2\n  0xffff\n  mul\n  not\n  and\n  swap1\n  dup4\n  0xffff\n  and\n  mul\n  or\n  swap1\n  sstore\n  pop\n    /* \"contracts/pair.sol\":1008:1011  300 */\n  0x012c\n    /* \"contracts/pair.sol\":975:1011  uint16 public token1FeePercent = 300 */\n  0x08\n  exp(0x0100, 0x1e)\n  dup2\n  sload\n  dup2\n  0xffff\n  mul\n  not\n  and\n  swap1\n  dup4\n  0xffff\n  and\n  mul\n  or\n  swap1\n  sstore\n  pop\n    /* \"contracts/pair.sol\":1460:1461  1 */\n  0x01\n    /* \"contracts/pair.sol\":1436:1461  uint private unlocked = 1 */\n  0x0d\n  sstore\n    /* \"contracts/pair.sol\":2748:2800  constructor() public {... */\n  callvalue\n    /* \"--CODEGEN--\":8:17   */\n  dup1\n    /* \"--CODEGEN--\":5:7   */\n  iszero\n  tag_1\n  jumpi\n    /* \"--CODEGEN--\":30:31   */\n  0x00\n    /* \"--CODEGEN--\":27:28   */\n  dup1\n    /* \"--CODEGEN--\":20:32   */\n  revert\n    /* \"--CODEGEN--\":5:7   */\ntag_1:\n    /* \"contracts/pair.sol\":2748:2800  constructor() public {... */\n  pop\n    /* \"contracts/UniswapV2ERC20.sol\":952:964  uint chainId */\n  0x00\n    /* \"contracts/UniswapV2ERC20.sol\":1008:1015  chainid */\n  chainid\n    /* \"contracts/UniswapV2ERC20.sol\":997:1015  chainId := chainid */\n  swap1\n  pop\n    /* \"contracts/UniswapV2ERC20.sol\":1104:1199  keccak256('EIP712Domain(string name,string version,uint256 chainId,address verifyingContract)') */\n  mload(0x40)\n  dup1\n  dup1\n  data_8b73c3c69bb8fe3d512ecc4cf759cc79239f7b179b0ffacaa9a75d522b39400f\n  0x52\n  swap2\n  codecopy\n  0x52\n  add\n  swap1\n  pop\n  mload(0x40)\n  dup1\n  swap2\n  sub\n  swap1\n  keccak256\n    /* \"contracts/UniswapV2ERC20.sol\":1233:1237  name */\n  mload(0x40)\n  dup1\n  0x40\n  add\n  0x40\n  mstore\n  dup1\n  0x0c\n  dup2\n  mstore\n  0x20\n  add\n  0x655a4b616c69627572204c500000000000000000000000000000000000000000\n  dup2\n  mstore\n  pop\n    /* \"contracts/UniswapV2ERC20.sol\":1217:1239  keccak256(bytes(name)) */\n  dup1\n  mload\n  swap1\n  0x20\n  add\n  keccak256\n    /* \"contracts/UniswapV2ERC20.sol\":1267:1277  bytes('1') */\n  mload(0x40)\n  dup1\n  0x40\n  add\n  0x40\n  mstore\n  dup1\n  0x01\n  dup2\n  mstore\n  0x20\n  add\n  0x3100000000000000000000000000000000000000000000000000000000000000\n  dup2\n  mstore\n  pop\n    /* \"contracts/UniswapV2ERC20.sol\":1257:1278  keccak256(bytes('1')) */\n  dup1\n  mload\n  swap1\n  0x20\n  add\n  keccak256\n    /* \"contracts/UniswapV2ERC20.sol\":1296:1303  chainId */\n  dup4\n    /* \"contracts/UniswapV2ERC20.sol\":1329:1333  this */\n  address\n    /* \"contracts/UniswapV2ERC20.sol\":1076:1348  abi.encode(... */\n  add(0x20, mload(0x40))\n  dup1\n  dup7\n  dup2\n  mstore\n  0x20\n  add\n  dup6\n  dup2\n  mstore\n  0x20\n  add\n  dup5\n  dup2\n  mstore\n  0x20\n  add\n  dup4\n  dup2\n  mstore\n  0x20\n  add\n  dup3\n  0xffffffffffffffffffffffffffffffffffffffff\n  and\n  0xffffffffffffffffffffffffffffffffffffffff\n  and\n  dup2\n  mstore\n  0x20\n  add\n  swap6\n  pop\n  pop\n  pop\n  pop\n  pop\n  pop\n  mload(0x40)\n    /* \"--CODEGEN--\":49:53   */\n  0x20\n    /* \"--CODEGEN--\":39:46   */\n  dup2\n    /* \"--CODEGEN--\":30:37   */\n  dup4\n    /* \"--CODEGEN--\":26:47   */\n  sub\n    /* \"--CODEGEN--\":22:54   */\n  sub\n    /* \"--CODEGEN--\":13:20   */\n  dup2\n    /* \"--CODEGEN--\":6:55   */\n  mstore\n    /* \"contracts/UniswapV2ERC20.sol\":1076:1348  abi.encode(... */\n  swap1\n  0x40\n  mstore\n    /* \"contracts/UniswapV2ERC20.sol\":1053:1358  keccak256(... */\n  dup1\n  mload\n  swap1\n  0x20\n  add\n  keccak256\n    /* \"contracts/UniswapV2ERC20.sol\":1034:1050  DOMAIN_SEPARATOR */\n  0x03\n    /* \"contracts/UniswapV2ERC20.sol\":1034:1358  DOMAIN_SEPARATOR = keccak256(... */\n  dup2\n  swap1\n  sstore\n  pop\n    /* \"contracts/UniswapV2ERC20.sol\":921:1365  constructor() public {... */\n  pop\n    /* \"contracts/pair.sol\":2785:2795  msg.sender */\n  caller\n    /* \"contracts/pair.sol\":2775:2782  factory */\n  0x05\n  0x00\n    /* \"contracts/pair.sol\":2775:2795  factory = msg.sender */\n  0x0100\n  exp\n  dup2\n  sload\n  dup2\n  0xffffffffffffffffffffffffffffffffffffffff\n  mul\n  not\n  and\n  swap1\n  dup4\n  0xffffffffffffffffffffffffffffffffffffffff\n  and\n  mul\n  or\n  swap1\n  sstore\n  pop\n    /* \"contracts/pair.sol\":236:17820  contract EZKaliburPair is IPair, UniswapV2ERC20 {... */\n  dataSize(sub_0)\n  dup1\n  dataOffset(sub_0)\n  0x00\n  codecopy\n  0x00\n  return\nstop\ndata_8b73c3c69bb8fe3d512ecc4cf759cc79239f7b179b0ffacaa9a75d522b39400f 454950373132446f6d61696e28737472696e67206e616d652c737472696e672076657273696f6e2c75696e7432353620636861696e49642c6164647265737320766572696679696e67436f6e747261637429\n\nsub_0: assembly {\n        /* \"contracts/pair.sol\":236:17820  contract EZKaliburPair is IPair, UniswapV2ERC20 {... */\n      mstore(0x40, 0x80)\n      callvalue\n        /* \"--CODEGEN--\":8:17   */\n      dup1\n        /* \"--CODEGEN--\":5:7   */\n      iszero\n      tag_1\n      jumpi\n        /* \"--CODEGEN--\":30:31   */\n      0x00\n        /* \"--CODEGEN--\":27:28   */\n      dup1\n        /* \"--CODEGEN--\":20:32   */\n      revert\n        /* \"--CODEGEN--\":5:7   */\n    tag_1:\n        /* \"contracts/pair.sol\":236:17820  contract EZKaliburPair is IPair, UniswapV2ERC20 {... */\n      pop\n      jumpi(tag_2, lt(calldatasize, 0x04))\n      shr(0xe0, calldataload(0x00))\n      dup1\n      0x6a627842\n      gt\n      tag_43\n      jumpi\n      dup1\n      0xba9a7a56\n      gt\n      tag_44\n      jumpi\n      dup1\n      0xd73792a9\n      gt\n      tag_45\n      jumpi\n      dup1\n      0xd73792a9\n      eq\n      tag_38\n      jumpi\n      dup1\n      0xdd62ed3e\n      eq\n      tag_39\n      jumpi\n      dup1\n      0xf140a35a\n      eq\n      tag_40\n      jumpi\n      dup1\n      0xf39ac11f\n      eq\n      tag_41\n      jumpi\n      dup1\n      0xfff6cae9\n      eq\n      tag_42\n      jumpi\n      jump(tag_2)\n    tag_45:\n      dup1\n      0xba9a7a56\n      eq\n      tag_33\n      jumpi\n      dup1\n      0xbc25cf77\n      eq\n      tag_34\n      jumpi\n      dup1\n      0xc45a0155\n      eq\n      tag_35\n      jumpi\n      dup1\n      0xd21220a7\n      eq\n      tag_36\n      jumpi\n      dup1\n      0xd505accf\n      eq\n      tag_37\n      jumpi\n      jump(tag_2)\n    tag_44:\n      dup1\n      0x89afcb44\n      gt\n      tag_46\n      jumpi\n      dup1\n      0x89afcb44\n      eq\n      tag_28\n      jumpi\n      dup1\n      0x95d89b41\n      eq\n      tag_29\n      jumpi\n      dup1\n      0x9e548b7f\n      eq\n      tag_30\n      jumpi\n      dup1\n      0xa9059cbb\n      eq\n      tag_31\n      jumpi\n      dup1\n      0xb6200b07\n      eq\n      tag_32\n      jumpi\n      jump(tag_2)\n    tag_46:\n      dup1\n      0x6a627842\n      eq\n      tag_23\n      jumpi\n      dup1\n      0x6e1fdd7f\n      eq\n      tag_24\n      jumpi\n      dup1\n      0x70a08231\n      eq\n      tag_25\n      jumpi\n      dup1\n      0x7464fc3d\n      eq\n      tag_26\n      jumpi\n      dup1\n      0x7ecebe00\n      eq\n      tag_27\n      jumpi\n      jump(tag_2)\n    tag_43:\n      dup1\n      0x3029e5d4\n      gt\n      tag_47\n      jumpi\n      dup1\n      0x3ba17077\n      gt\n      tag_48\n      jumpi\n      dup1\n      0x3ba17077\n      eq\n      tag_18\n      jumpi\n      dup1\n      0x485cc955\n      eq\n      tag_19\n      jumpi\n      dup1\n      0x48e5d260\n      eq\n      tag_20\n      jumpi\n      dup1\n      0x62ecec03\n      eq\n      tag_21\n      jumpi\n      dup1\n      0x67d81740\n      eq\n      tag_22\n      jumpi\n      jump(tag_2)\n    tag_48:\n      dup1\n      0x3029e5d4\n      eq\n      tag_13\n      jumpi\n      dup1\n      0x30adf81f\n      eq\n      tag_14\n      jumpi\n      dup1\n      0x313ce567\n      eq\n      tag_15\n      jumpi\n      dup1\n      0x3644e515\n      eq\n      tag_16\n      jumpi\n      dup1\n      0x3b9f1dc0\n      eq\n      tag_17\n      jumpi\n      jump(tag_2)\n    tag_47:\n      dup1\n      0x158ef93e\n      gt\n      tag_49\n      jumpi\n      dup1\n      0x158ef93e\n      eq\n      tag_8\n      jumpi\n      dup1\n      0x18160ddd\n      eq\n      tag_9\n      jumpi\n      dup1\n      0x23b872dd\n      eq\n      tag_10\n      jumpi\n      dup1\n      0x288e5d02\n      eq\n      tag_11\n      jumpi\n      dup1\n      0x2fcd1692\n      eq\n      tag_12\n      jumpi\n      jump(tag_2)\n    tag_49:\n      dup1\n      0x022c0d9f\n      eq\n      tag_3\n      jumpi\n      dup1\n      0x06fdde03\n      eq\n      tag_4\n      jumpi\n      dup1\n      0x0902f1ac\n      eq\n      tag_5\n      jumpi\n      dup1\n      0x095ea7b3\n      eq\n      tag_6\n      jumpi\n      dup1\n      0x0dfe1681\n      eq\n      tag_7\n      jumpi\n    tag_2:\n      0x00\n      dup1\n      revert\n        /* \"contracts/pair.sol\":9143:9528  function swap(uint amount0Out, uint amount1Out, address to, bytes calldata data) external {... */\n    tag_3:\n      tag_50\n      0x04\n      dup1\n      calldatasize\n      sub\n        /* \"--CODEGEN--\":13:16   */\n      0x80\n        /* \"--CODEGEN--\":8:11   */\n      dup2\n        /* \"--CODEGEN--\":5:17   */\n      lt\n        /* \"--CODEGEN--\":2:4   */\n      iszero\n      tag_51\n      jumpi\n        /* \"--CODEGEN--\":30:31   */\n      0x00\n        /* \"--CODEGEN--\":27:28   */\n      dup1\n        /* \"--CODEGEN--\":20:32   */\n      revert\n        /* \"--CODEGEN--\":2:4   */\n    tag_51:\n        /* \"contracts/pair.sol\":9143:9528  function swap(uint amount0Out, uint amount1Out, address to, bytes calldata data) external {... */\n      dup2\n      add\n      swap1\n      dup1\n      dup1\n      calldataload\n      swap1\n      0x20\n      add\n      swap1\n      swap3\n      swap2\n      swap1\n      dup1\n      calldataload\n      swap1\n      0x20\n      add\n      swap1\n      swap3\n      swap2\n      swap1\n      dup1\n      calldataload\n      0xffffffffffffffffffffffffffffffffffffffff\n      and\n      swap1\n      0x20\n      add\n      swap1\n      swap3\n      swap2\n      swap1\n      dup1\n      calldataload\n      swap1\n      0x20\n      add\n      swap1\n        /* \"--CODEGEN--\":21:32   */\n      0x0100000000\n        /* \"--CODEGEN--\":8:19   */\n      dup2\n        /* \"--CODEGEN--\":5:33   */\n      gt\n        /* \"--CODEGEN--\":2:4   */\n      iszero\n      tag_52\n      jumpi\n        /* \"--CODEGEN--\":46:47   */\n      0x00\n        /* \"--CODEGEN--\":43:44   */\n      dup1\n        /* \"--CODEGEN--\":36:48   */\n      revert\n        /* \"--CODEGEN--\":2:4   */\n    tag_52:\n        /* \"contracts/pair.sol\":9143:9528  function swap(uint amount0Out, uint amount1Out, address to, bytes calldata data) external {... */\n      dup3\n      add\n        /* \"--CODEGEN--\":35:44   */\n      dup4\n        /* \"--CODEGEN--\":28:32   */\n      0x20\n        /* \"--CODEGEN--\":12:26   */\n      dup3\n        /* \"--CODEGEN--\":8:33   */\n      add\n        /* \"--CODEGEN--\":5:45   */\n      gt\n        /* \"--CODEGEN--\":2:4   */\n      iszero\n      tag_53\n      jumpi\n        /* \"--CODEGEN--\":58:59   */\n      0x00\n        /* \"--CODEGEN--\":55:56   */\n      dup1\n        /* \"--CODEGEN--\":48:60   */\n      revert\n        /* \"--CODEGEN--\":2:4   */\n    tag_53:\n        /* \"contracts/pair.sol\":9143:9528  function swap(uint amount0Out, uint amount1Out, address to, bytes calldata data) external {... */\n      dup1\n      calldataload\n      swap1\n      0x20\n      add\n      swap2\n        /* \"--CODEGEN--\":100:109   */\n      dup5\n        /* \"--CODEGEN--\":95:96   */\n      0x01\n        /* \"--CODEGEN--\":81:93   */\n      dup4\n        /* \"--CODEGEN--\":77:97   */\n      mul\n        /* \"--CODEGEN--\":67:75   */\n      dup5\n        /* \"--CODEGEN--\":63:98   */\n      add\n        /* \"--CODEGEN--\":60:110   */\n      gt\n        /* \"--CODEGEN--\":39:50   */\n      0x0100000000\n        /* \"--CODEGEN--\":25:37   */\n      dup4\n        /* \"--CODEGEN--\":22:51   */\n      gt\n        /* \"--CODEGEN--\":11:118   */\n      or\n        /* \"--CODEGEN--\":8:10   */\n      iszero\n      tag_54\n      jumpi\n        /* \"--CODEGEN--\":131:132   */\n      0x00\n        /* \"--CODEGEN--\":128:129   */\n      dup1\n        /* \"--CODEGEN--\":121:133   */\n      revert\n        /* \"--CODEGEN--\":8:10   */\n    tag_54:\n        /* \"contracts/pair.sol\":9143:9528  function swap(uint amount0Out, uint amount1Out, address to, bytes calldata data) external {... */\n      swap1\n      swap2\n      swap3\n      swap4\n      swap2\n      swap3\n      swap4\n      swap1\n      pop\n      pop\n      pop\n      tag_55\n      jump\t// in\n    tag_50:\n      stop\n        /* \"contracts/UniswapV2ERC20.sol\":184:228  string public constant name = 'eZKalibur LP' */\n    tag_4:\n      tag_56\n      tag_57\n      jump\t// in\n    tag_56:\n      mload(0x40)\n      dup1\n      dup1\n      0x20\n      add\n      dup3\n      dup2\n      sub\n      dup3\n      mstore\n      dup4\n      dup2\n      dup2\n      mload\n      dup2\n      mstore\n      0x20\n      add\n      swap2\n      pop\n      dup1\n      mload\n      swap1\n      0x20\n      add\n      swap1\n      dup1\n      dup4\n      dup4\n        /* \"--CODEGEN--\":23:24   */\n      0x00\n        /* \"--CODEGEN--\":8:108   */\n    tag_58:\n        /* \"--CODEGEN--\":33:36   */\n      dup4\n        /* \"--CODEGEN--\":30:31   */\n      dup2\n        /* \"--CODEGEN--\":27:37   */\n      lt\n        /* \"--CODEGEN--\":8:108   */\n      iszero\n      tag_60\n      jumpi\n        /* \"--CODEGEN--\":99:100   */\n      dup1\n        /* \"--CODEGEN--\":94:97   */\n      dup3\n        /* \"--CODEGEN--\":90:101   */\n      add\n        /* \"--CODEGEN--\":84:102   */\n      mload\n        /* \"--CODEGEN--\":80:81   */\n      dup2\n        /* \"--CODEGEN--\":75:78   */\n      dup5\n        /* \"--CODEGEN--\":71:82   */\n      add\n        /* \"--CODEGEN--\":64:103   */\n      mstore\n        /* \"--CODEGEN--\":52:54   */\n      0x20\n        /* \"--CODEGEN--\":49:50   */\n      dup2\n        /* \"--CODEGEN--\":45:55   */\n      add\n        /* \"--CODEGEN--\":40:55   */\n      swap1\n      pop\n        /* \"--CODEGEN--\":8:108   */\n      jump(tag_58)\n    tag_60:\n        /* \"--CODEGEN--\":12:26   */\n      pop\n        /* \"contracts/UniswapV2ERC20.sol\":184:228  string public constant name = 'eZKalibur LP' */\n      pop\n      pop\n      pop\n      swap1\n      pop\n      swap1\n      dup2\n      add\n      swap1\n      0x1f\n      and\n      dup1\n      iszero\n      tag_61\n      jumpi\n      dup1\n      dup3\n      sub\n      dup1\n      mload\n      0x01\n      dup4\n      0x20\n      sub\n      0x0100\n      exp\n      sub\n      not\n      and\n      dup2\n      mstore\n      0x20\n      add\n      swap2\n      pop\n    tag_61:\n      pop\n      swap3\n      pop\n      pop\n      pop\n      mload(0x40)\n      dup1\n      swap2\n      sub\n      swap1\n      return\n        /* \"contracts/pair.sol\":1586:1861  function getReserves() public view returns (uint112 _reserve0, uint112 _reserve1, uint16 _token0FeePercent, uint16 _token1FeePercent) {... */\n    tag_5:\n      tag_62\n      tag_63\n      jump\t// in\n    tag_62:\n      mload(0x40)\n      dup1\n      dup6\n      0xffffffffffffffffffffffffffff\n      and\n      0xffffffffffffffffffffffffffff\n      and\n      dup2\n      mstore\n      0x20\n      add\n      dup5\n      0xffffffffffffffffffffffffffff\n      and\n      0xffffffffffffffffffffffffffff\n      and\n      dup2\n      mstore\n      0x20\n      add\n      dup4\n      0xffff\n      and\n      0xffff\n      and\n      dup2\n      mstore\n      0x20\n      add\n      dup3\n      0xffff\n      and\n      0xffff\n      and\n      dup2\n      mstore\n      0x20\n      add\n      swap5\n      pop\n      pop\n      pop\n      pop\n      pop\n      mload(0x40)\n      dup1\n      swap2\n      sub\n      swap1\n      return\n        /* \"contracts/UniswapV2ERC20.sol\":2179:2323  function approve(address spender, uint value) external returns (bool) {... */\n    tag_6:\n      tag_64\n      0x04\n      dup1\n      calldatasize\n      sub\n        /* \"--CODEGEN--\":13:15   */\n      0x40\n        /* \"--CODEGEN--\":8:11   */\n      dup2\n        /* \"--CODEGEN--\":5:16   */\n      lt\n        /* \"--CODEGEN--\":2:4   */\n      iszero\n      tag_65\n      jumpi\n        /* \"--CODEGEN--\":29:30   */\n      0x00\n        /* \"--CODEGEN--\":26:27   */\n      dup1\n        /* \"--CODEGEN--\":19:31   */\n      revert\n        /* \"--CODEGEN--\":2:4   */\n    tag_65:\n        /* \"contracts/UniswapV2ERC20.sol\":2179:2323  function approve(address spender, uint value) external returns (bool) {... */\n      dup2\n      add\n      swap1\n      dup1\n      dup1\n      calldataload\n      0xffffffffffffffffffffffffffffffffffffffff\n      and\n      swap1\n      0x20\n      add\n      swap1\n      swap3\n      swap2\n      swap1\n      dup1\n      calldataload\n      swap1\n      0x20\n      add\n      swap1\n      swap3\n      swap2\n      swap1\n      pop\n      pop\n      pop\n      tag_66\n      jump\t// in\n    tag_64:\n      mload(0x40)\n      dup1\n      dup3\n      iszero\n      iszero\n      iszero\n      iszero\n      dup2\n      mstore\n      0x20\n      add\n      swap2\n      pop\n      pop\n      mload(0x40)\n      dup1\n      swap2\n      sub\n      swap1\n      return\n        /* \"contracts/pair.sol\":488:509  address public token0 */\n    tag_7:\n      tag_67\n      tag_68\n      jump\t// in\n    tag_67:\n      mload(0x40)\n      dup1\n      dup3\n      0xffffffffffffffffffffffffffffffffffffffff\n      and\n      0xffffffffffffffffffffffffffffffffffffffff\n      and\n      dup2\n      mstore\n      0x20\n      add\n      swap2\n      pop\n      pop\n      mload(0x40)\n      dup1\n      swap2\n      sub\n      swap1\n      return\n        /* \"contracts/pair.sol\":539:562  bool public initialized */\n    tag_8:\n      tag_69\n      tag_70\n      jump\t// in\n    tag_69:\n      mload(0x40)\n      dup1\n      dup3\n      iszero\n      iszero\n      iszero\n      iszero\n      dup2\n      mstore\n      0x20\n      add\n      swap2\n      pop\n      pop\n      mload(0x40)\n      dup1\n      swap2\n      sub\n      swap1\n      return\n        /* \"contracts/UniswapV2ERC20.sol\":321:345  uint  public totalSupply */\n    tag_9:\n      tag_71\n      tag_72\n      jump\t// in\n    tag_71:\n      mload(0x40)\n      dup1\n      dup3\n      dup2\n      mstore\n      0x20\n      add\n      swap2\n      pop\n      pop\n      mload(0x40)\n      dup1\n      swap2\n      sub\n      swap1\n      return\n        /* \"contracts/UniswapV2ERC20.sol\":2471:2862  function transferFrom(address from, address to, uint value) external returns (bool) {... */\n    tag_10:\n      tag_73\n      0x04\n      dup1\n      calldatasize\n      sub\n        /* \"--CODEGEN--\":13:15   */\n      0x60\n        /* \"--CODEGEN--\":8:11   */\n      dup2\n        /* \"--CODEGEN--\":5:16   */\n      lt\n        /* \"--CODEGEN--\":2:4   */\n      iszero\n      tag_74\n      jumpi\n        /* \"--CODEGEN--\":29:30   */\n      0x00\n        /* \"--CODEGEN--\":26:27   */\n      dup1\n        /* \"--CODEGEN--\":19:31   */\n      revert\n        /* \"--CODEGEN--\":2:4   */\n    tag_74:\n        /* \"contracts/UniswapV2ERC20.sol\":2471:2862  function transferFrom(address from, address to, uint value) external returns (bool) {... */\n      dup2\n      add\n      swap1\n      dup1\n      dup1\n      calldataload\n      0xffffffffffffffffffffffffffffffffffffffff\n      and\n      swap1\n      0x20\n      add\n      swap1\n      swap3\n      swap2\n      swap1\n      dup1\n      calldataload\n      0xffffffffffffffffffffffffffffffffffffffff\n      and\n      swap1\n      0x20\n      add\n      swap1\n      swap3\n      swap2\n      swap1\n      dup1\n      calldataload\n      swap1\n      0x20\n      add\n      swap1\n      swap3\n      swap2\n      swap1\n      pop\n      pop\n      pop\n      tag_75\n      jump\t// in\n    tag_73:\n      mload(0x40)\n      dup1\n      dup3\n      iszero\n      iszero\n      iszero\n      iszero\n      dup2\n      mstore\n      0x20\n      add\n      swap2\n      pop\n      pop\n      mload(0x40)\n      dup1\n      swap2\n      sub\n      swap1\n      return\n        /* \"contracts/pair.sol\":1127:1159  uint public precisionMultiplier1 */\n    tag_11:\n      tag_76\n      tag_77\n      jump\t// in\n    tag_76:\n      mload(0x40)\n      dup1\n      dup3\n      dup2\n      mstore\n      0x20\n      add\n      swap2\n      pop\n      pop\n      mload(0x40)\n      dup1\n      swap2\n      sub\n      swap1\n      return\n        /* \"contracts/pair.sol\":975:1011  uint16 public token1FeePercent = 300 */\n    tag_12:\n      tag_78\n      tag_79\n      jump\t// in\n    tag_78:\n      mload(0x40)\n      dup1\n      dup3\n      0xffff\n      and\n      0xffff\n      and\n      dup2\n      mstore\n      0x20\n      add\n      swap2\n      pop\n      pop\n      mload(0x40)\n      dup1\n      swap2\n      sub\n      swap1\n      return\n        /* \"contracts/pair.sol\":3991:4624  function setStableSwap(bool stable, uint112 expectedReserve0, uint112 expectedReserve1) external lock {... */\n    tag_13:\n      tag_80\n      0x04\n      dup1\n      calldatasize\n      sub\n        /* \"--CODEGEN--\":13:15   */\n      0x60\n        /* \"--CODEGEN--\":8:11   */\n      dup2\n        /* \"--CODEGEN--\":5:16   */\n      lt\n        /* \"--CODEGEN--\":2:4   */\n      iszero\n      tag_81\n      jumpi\n        /* \"--CODEGEN--\":29:30   */\n      0x00\n        /* \"--CODEGEN--\":26:27   */\n      dup1\n        /* \"--CODEGEN--\":19:31   */\n      revert\n        /* \"--CODEGEN--\":2:4   */\n    tag_81:\n        /* \"contracts/pair.sol\":3991:4624  function setStableSwap(bool stable, uint112 expectedReserve0, uint112 expectedReserve1) external lock {... */\n      dup2\n      add\n      swap1\n      dup1\n      dup1\n      calldataload\n      iszero\n      iszero\n      swap1\n      0x20\n      add\n      swap1\n      swap3\n      swap2\n      swap1\n      dup1\n      calldataload\n      0xffffffffffffffffffffffffffff\n      and\n      swap1\n      0x20\n      add\n      swap1\n      swap3\n      swap2\n      swap1\n      dup1\n      calldataload\n      0xffffffffffffffffffffffffffff\n      and\n      swap1\n      0x20\n      add\n      swap1\n      swap3\n      swap2\n      swap1\n      pop\n      pop\n      pop\n      tag_82\n      jump\t// in\n    tag_80:\n      stop\n        /* \"contracts/UniswapV2ERC20.sol\":607:715  bytes32 public constant PERMIT_TYPEHASH = 0x6e71edae12b1b97f4d1f60370fef10105fa2faae0126114a169c64845d6126c9 */\n    tag_14:\n      tag_83\n      tag_84\n      jump\t// in\n    tag_83:\n      mload(0x40)\n      dup1\n      dup3\n      dup2\n      mstore\n      0x20\n      add\n      swap2\n      pop\n      pop\n      mload(0x40)\n      dup1\n      swap2\n      sub\n      swap1\n      return\n        /* \"contracts/UniswapV2ERC20.sol\":280:315  uint8 public constant decimals = 18 */\n    tag_15:\n      tag_85\n      tag_86\n      jump\t// in\n    tag_85:\n      mload(0x40)\n      dup1\n      dup3\n      0xff\n      and\n      0xff\n      and\n      dup2\n      mstore\n      0x20\n      add\n      swap2\n      pop\n      pop\n      mload(0x40)\n      dup1\n      swap2\n      sub\n      swap1\n      return\n        /* \"contracts/UniswapV2ERC20.sol\":466:497  bytes32 public DOMAIN_SEPARATOR */\n    tag_16:\n      tag_87\n      tag_88\n      jump\t// in\n    tag_87:\n      mload(0x40)\n      dup1\n      dup3\n      dup2\n      mstore\n      0x20\n      add\n      swap2\n      pop\n      pop\n      mload(0x40)\n      dup1\n      swap2\n      sub\n      swap1\n      return\n        /* \"contracts/pair.sol\":1091:1123  uint public precisionMultiplier0 */\n    tag_17:\n      tag_89\n      tag_90\n      jump\t// in\n    tag_89:\n      mload(0x40)\n      dup1\n      dup3\n      dup2\n      mstore\n      0x20\n      add\n      swap2\n      pop\n      pop\n      mload(0x40)\n      dup1\n      swap2\n      sub\n      swap1\n      return\n        /* \"contracts/pair.sol\":4628:4905  function setPairTypeImmutable() external lock {... */\n    tag_18:\n      tag_91\n      tag_92\n      jump\t// in\n    tag_91:\n      stop\n        /* \"contracts/pair.sol\":2858:3234  function initialize(address _token0, address _token1) external {... */\n    tag_19:\n      tag_93\n      0x04\n      dup1\n      calldatasize\n      sub\n        /* \"--CODEGEN--\":13:15   */\n      0x40\n        /* \"--CODEGEN--\":8:11   */\n      dup2\n        /* \"--CODEGEN--\":5:16   */\n      lt\n        /* \"--CODEGEN--\":2:4   */\n      iszero\n      tag_94\n      jumpi\n        /* \"--CODEGEN--\":29:30   */\n      0x00\n        /* \"--CODEGEN--\":26:27   */\n      dup1\n        /* \"--CODEGEN--\":19:31   */\n      revert\n        /* \"--CODEGEN--\":2:4   */\n    tag_94:\n        /* \"contracts/pair.sol\":2858:3234  function initialize(address _token0, address _token1) external {... */\n      dup2\n      add\n      swap1\n      dup1\n      dup1\n      calldataload\n      0xffffffffffffffffffffffffffffffffffffffff\n      and\n      swap1\n      0x20\n      add\n      swap1\n      swap3\n      swap2\n      swap1\n      dup1\n      calldataload\n      0xffffffffffffffffffffffffffffffffffffffff\n      and\n      swap1\n      0x20\n      add\n      swap1\n      swap3\n      swap2\n      swap1\n      pop\n      pop\n      pop\n      tag_95\n      jump\t// in\n    tag_93:\n      stop\n        /* \"contracts/pair.sol\":3347:3987  function setFeePercent(uint16 newToken0FeePercent, uint16 newToken1FeePercent) external lock {... */\n    tag_20:\n      tag_96\n      0x04\n      dup1\n      calldatasize\n      sub\n        /* \"--CODEGEN--\":13:15   */\n      0x40\n        /* \"--CODEGEN--\":8:11   */\n      dup2\n        /* \"--CODEGEN--\":5:16   */\n      lt\n        /* \"--CODEGEN--\":2:4   */\n      iszero\n      tag_97\n      jumpi\n        /* \"--CODEGEN--\":29:30   */\n      0x00\n        /* \"--CODEGEN--\":26:27   */\n      dup1\n        /* \"--CODEGEN--\":19:31   */\n      revert\n        /* \"--CODEGEN--\":2:4   */\n    tag_97:\n        /* \"contracts/pair.sol\":3347:3987  function setFeePercent(uint16 newToken0FeePercent, uint16 newToken1FeePercent) external lock {... */\n      dup2\n      add\n      swap1\n      dup1\n      dup1\n      calldataload\n      0xffff\n      and\n      swap1\n      0x20\n      add\n      swap1\n      swap3\n      swap2\n      swap1\n      dup1\n      calldataload\n      0xffff\n      and\n      swap1\n      0x20\n      add\n      swap1\n      swap3\n      swap2\n      swap1\n      pop\n      pop\n      pop\n      tag_98\n      jump\t// in\n    tag_96:\n      stop\n        /* \"contracts/pair.sol\":860:896  uint16 public token0FeePercent = 300 */\n    tag_21:\n      tag_99\n      tag_100\n      jump\t// in\n    tag_99:\n      mload(0x40)\n      dup1\n      dup3\n      0xffff\n      and\n      0xffff\n      and\n      dup2\n      mstore\n      0x20\n      add\n      swap2\n      pop\n      pop\n      mload(0x40)\n      dup1\n      swap2\n      sub\n      swap1\n      return\n        /* \"contracts/pair.sol\":616:659  uint public constant MAX_FEE_PERCENT = 2000 */\n    tag_22:\n      tag_101\n      tag_102\n      jump\t// in\n    tag_101:\n      mload(0x40)\n      dup1\n      dup3\n      dup2\n      mstore\n      0x20\n      add\n      swap2\n      pop\n      pop\n      mload(0x40)\n      dup1\n      swap2\n      sub\n      swap1\n      return\n        /* \"contracts/pair.sol\":6298:7445  function mint(address to) external lock returns (uint liquidity) {... */\n    tag_23:\n      tag_103\n      0x04\n      dup1\n      calldatasize\n      sub\n        /* \"--CODEGEN--\":13:15   */\n      0x20\n        /* \"--CODEGEN--\":8:11   */\n      dup2\n        /* \"--CODEGEN--\":5:16   */\n      lt\n        /* \"--CODEGEN--\":2:4   */\n      iszero\n      tag_104\n      jumpi\n        /* \"--CODEGEN--\":29:30   */\n      0x00\n        /* \"--CODEGEN--\":26:27   */\n      dup1\n        /* \"--CODEGEN--\":19:31   */\n      revert\n        /* \"--CODEGEN--\":2:4   */\n    tag_104:\n        /* \"contracts/pair.sol\":6298:7445  function mint(address to) external lock returns (uint liquidity) {... */\n      dup2\n      add\n      swap1\n      dup1\n      dup1\n      calldataload\n      0xffffffffffffffffffffffffffffffffffffffff\n      and\n      swap1\n      0x20\n      add\n      swap1\n      swap3\n      swap2\n      swap1\n      pop\n      pop\n      pop\n      tag_105\n      jump\t// in\n    tag_103:\n      mload(0x40)\n      dup1\n      dup3\n      dup2\n      mstore\n      0x20\n      add\n      swap2\n      pop\n      pop\n      mload(0x40)\n      dup1\n      swap2\n      sub\n      swap1\n      return\n        /* \"contracts/pair.sol\":9633:10034  function swap(uint amount0Out, uint amount1Out, address to, bytes calldata data, address referrer) external {... */\n    tag_24:\n      tag_106\n      0x04\n      dup1\n      calldatasize\n      sub\n        /* \"--CODEGEN--\":13:16   */\n      0xa0\n        /* \"--CODEGEN--\":8:11   */\n      dup2\n        /* \"--CODEGEN--\":5:17   */\n      lt\n        /* \"--CODEGEN--\":2:4   */\n      iszero\n      tag_107\n      jumpi\n        /* \"--CODEGEN--\":30:31   */\n      0x00\n        /* \"--CODEGEN--\":27:28   */\n      dup1\n        /* \"--CODEGEN--\":20:32   */\n      revert\n        /* \"--CODEGEN--\":2:4   */\n    tag_107:\n        /* \"contracts/pair.sol\":9633:10034  function swap(uint amount0Out, uint amount1Out, address to, bytes calldata data, address referrer) external {... */\n      dup2\n      add\n      swap1\n      dup1\n      dup1\n      calldataload\n      swap1\n      0x20\n      add\n      swap1\n      swap3\n      swap2\n      swap1\n      dup1\n      calldataload\n      swap1\n      0x20\n      add\n      swap1\n      swap3\n      swap2\n      swap1\n      dup1\n      calldataload\n      0xffffffffffffffffffffffffffffffffffffffff\n      and\n      swap1\n      0x20\n      add\n      swap1\n      swap3\n      swap2\n      swap1\n      dup1\n      calldataload\n      swap1\n      0x20\n      add\n      swap1\n        /* \"--CODEGEN--\":21:32   */\n      0x0100000000\n        /* \"--CODEGEN--\":8:19   */\n      dup2\n        /* \"--CODEGEN--\":5:33   */\n      gt\n        /* \"--CODEGEN--\":2:4   */\n      iszero\n      tag_108\n      jumpi\n        /* \"--CODEGEN--\":46:47   */\n      0x00\n        /* \"--CODEGEN--\":43:44   */\n      dup1\n        /* \"--CODEGEN--\":36:48   */\n      revert\n        /* \"--CODEGEN--\":2:4   */\n    tag_108:\n        /* \"contracts/pair.sol\":9633:10034  function swap(uint amount0Out, uint amount1Out, address to, bytes calldata data, address referrer) external {... */\n      dup3\n      add\n        /* \"--CODEGEN--\":35:44   */\n      dup4\n        /* \"--CODEGEN--\":28:32   */\n      0x20\n        /* \"--CODEGEN--\":12:26   */\n      dup3\n        /* \"--CODEGEN--\":8:33   */\n      add\n        /* \"--CODEGEN--\":5:45   */\n      gt\n        /* \"--CODEGEN--\":2:4   */\n      iszero\n      tag_109\n      jumpi\n        /* \"--CODEGEN--\":58:59   */\n      0x00\n        /* \"--CODEGEN--\":55:56   */\n      dup1\n        /* \"--CODEGEN--\":48:60   */\n      revert\n        /* \"--CODEGEN--\":2:4   */\n    tag_109:\n        /* \"contracts/pair.sol\":9633:10034  function swap(uint amount0Out, uint amount1Out, address to, bytes calldata data, address referrer) external {... */\n      dup1\n      calldataload\n      swap1\n      0x20\n      add\n      swap2\n        /* \"--CODEGEN--\":100:109   */\n      dup5\n        /* \"--CODEGEN--\":95:96   */\n      0x01\n        /* \"--CODEGEN--\":81:93   */\n      dup4\n        /* \"--CODEGEN--\":77:97   */\n      mul\n        /* \"--CODEGEN--\":67:75   */\n      dup5\n        /* \"--CODEGEN--\":63:98   */\n      add\n        /* \"--CODEGEN--\":60:110   */\n      gt\n        /* \"--CODEGEN--\":39:50   */\n      0x0100000000\n        /* \"--CODEGEN--\":25:37   */\n      dup4\n        /* \"--CODEGEN--\":22:51   */\n      gt\n        /* \"--CODEGEN--\":11:118   */\n      or\n        /* \"--CODEGEN--\":8:10   */\n      iszero\n      tag_110\n      jumpi\n        /* \"--CODEGEN--\":131:132   */\n      0x00\n        /* \"--CODEGEN--\":128:129   */\n      dup1\n        /* \"--CODEGEN--\":121:133   */\n      revert\n        /* \"--CODEGEN--\":8:10   */\n    tag_110:\n        /* \"contracts/pair.sol\":9633:10034  function swap(uint amount0Out, uint amount1Out, address to, bytes calldata data, address referrer) external {... */\n      swap1\n      swap2\n      swap3\n      swap4\n      swap2\n      swap3\n      swap4\n      swap1\n      dup1\n      calldataload\n      0xffffffffffffffffffffffffffffffffffffffff\n      and\n      swap1\n      0x20\n      add\n      swap1\n      swap3\n      swap2\n      swap1\n      pop\n      pop\n      pop\n      tag_111\n      jump\t// in\n    tag_106:\n      stop\n        /* \"contracts/UniswapV2ERC20.sol\":351:392  mapping(address => uint) public balanceOf */\n    tag_25:\n      tag_112\n      0x04\n      dup1\n      calldatasize\n      sub\n        /* \"--CODEGEN--\":13:15   */\n      0x20\n        /* \"--CODEGEN--\":8:11   */\n      dup2\n        /* \"--CODEGEN--\":5:16   */\n      lt\n        /* \"--CODEGEN--\":2:4   */\n      iszero\n      tag_113\n      jumpi\n        /* \"--CODEGEN--\":29:30   */\n      0x00\n        /* \"--CODEGEN--\":26:27   */\n      dup1\n        /* \"--CODEGEN--\":19:31   */\n      revert\n        /* \"--CODEGEN--\":2:4   */\n    tag_113:\n        /* \"contracts/UniswapV2ERC20.sol\":351:392  mapping(address => uint) public balanceOf */\n      dup2\n      add\n      swap1\n      dup1\n      dup1\n      calldataload\n      0xffffffffffffffffffffffffffffffffffffffff\n      and\n      swap1\n      0x20\n      add\n      swap1\n      swap3\n      swap2\n      swap1\n      pop\n      pop\n      pop\n      tag_114\n      jump\t// in\n    tag_112:\n      mload(0x40)\n      dup1\n      dup3\n      dup2\n      mstore\n      0x20\n      add\n      swap2\n      pop\n      pop\n      mload(0x40)\n      dup1\n      swap2\n      sub\n      swap1\n      return\n        /* \"contracts/pair.sol\":1164:1181  uint public kLast */\n    tag_26:\n      tag_115\n      tag_116\n      jump\t// in\n    tag_115:\n      mload(0x40)\n      dup1\n      dup3\n      dup2\n      mstore\n      0x20\n      add\n      swap2\n      pop\n      pop\n      mload(0x40)\n      dup1\n      swap2\n      sub\n      swap1\n      return\n        /* \"contracts/UniswapV2ERC20.sol\":721:759  mapping(address => uint) public nonces */\n    tag_27:\n      tag_117\n      0x04\n      dup1\n      calldatasize\n      sub\n        /* \"--CODEGEN--\":13:15   */\n      0x20\n        /* \"--CODEGEN--\":8:11   */\n      dup2\n        /* \"--CODEGEN--\":5:16   */\n      lt\n        /* \"--CODEGEN--\":2:4   */\n      iszero\n      tag_118\n      jumpi\n        /* \"--CODEGEN--\":29:30   */\n      0x00\n        /* \"--CODEGEN--\":26:27   */\n      dup1\n        /* \"--CODEGEN--\":19:31   */\n      revert\n        /* \"--CODEGEN--\":2:4   */\n    tag_118:\n        /* \"contracts/UniswapV2ERC20.sol\":721:759  mapping(address => uint) public nonces */\n      dup2\n      add\n      swap1\n      dup1\n      dup1\n      calldataload\n      0xffffffffffffffffffffffffffffffffffffffff\n      and\n      swap1\n      0x20\n      add\n      swap1\n      swap3\n      swap2\n      swap1\n      pop\n      pop\n      pop\n      tag_119\n      jump\t// in\n    tag_117:\n      mload(0x40)\n      dup1\n      dup3\n      dup2\n      mstore\n      0x20\n      add\n      swap2\n      pop\n      pop\n      mload(0x40)\n      dup1\n      swap2\n      sub\n      swap1\n      return\n        /* \"contracts/pair.sol\":7550:8843  function burn(address to) external lock returns (uint amount0, uint amount1) {... */\n    tag_28:\n      tag_120\n      0x04\n      dup1\n      calldatasize\n      sub\n        /* \"--CODEGEN--\":13:15   */\n      0x20\n        /* \"--CODEGEN--\":8:11   */\n      dup2\n        /* \"--CODEGEN--\":5:16   */\n      lt\n        /* \"--CODEGEN--\":2:4   */\n      iszero\n      tag_121\n      jumpi\n        /* \"--CODEGEN--\":29:30   */\n      0x00\n        /* \"--CODEGEN--\":26:27   */\n      dup1\n        /* \"--CODEGEN--\":19:31   */\n      revert\n        /* \"--CODEGEN--\":2:4   */\n    tag_121:\n        /* \"contracts/pair.sol\":7550:8843  function burn(address to) external lock returns (uint amount0, uint amount1) {... */\n      dup2\n      add\n      swap1\n      dup1\n      dup1\n      calldataload\n      0xffffffffffffffffffffffffffffffffffffffff\n      and\n      swap1\n      0x20\n      add\n      swap1\n      swap3\n      swap2\n      swap1\n      pop\n      pop\n      pop\n      tag_122\n      jump\t// in\n    tag_120:\n      mload(0x40)\n      dup1\n      dup4\n      dup2\n      mstore\n      0x20\n      add\n      dup3\n      dup2\n      mstore\n      0x20\n      add\n      swap3\n      pop\n      pop\n      pop\n      mload(0x40)\n      dup1\n      swap2\n      sub\n      swap1\n      return\n        /* \"contracts/UniswapV2ERC20.sol\":234:274  string public constant symbol = 'eZK-LP' */\n    tag_29:\n      tag_123\n      tag_124\n      jump\t// in\n    tag_123:\n      mload(0x40)\n      dup1\n      dup1\n      0x20\n      add\n      dup3\n      dup2\n      sub\n      dup3\n      mstore\n      dup4\n      dup2\n      dup2\n      mload\n      dup2\n      mstore\n      0x20\n      add\n      swap2\n      pop\n      dup1\n      mload\n      swap1\n      0x20\n      add\n      swap1\n      dup1\n      dup4\n      dup4\n        /* \"--CODEGEN--\":23:24   */\n      0x00\n        /* \"--CODEGEN--\":8:108   */\n    tag_125:\n        /* \"--CODEGEN--\":33:36   */\n      dup4\n        /* \"--CODEGEN--\":30:31   */\n      dup2\n        /* \"--CODEGEN--\":27:37   */\n      lt\n        /* \"--CODEGEN--\":8:108   */\n      iszero\n      tag_127\n      jumpi\n        /* \"--CODEGEN--\":99:100   */\n      dup1\n        /* \"--CODEGEN--\":94:97   */\n      dup3\n        /* \"--CODEGEN--\":90:101   */\n      add\n        /* \"--CODEGEN--\":84:102   */\n      mload\n        /* \"--CODEGEN--\":80:81   */\n      dup2\n        /* \"--CODEGEN--\":75:78   */\n      dup5\n        /* \"--CODEGEN--\":71:82   */\n      add\n        /* \"--CODEGEN--\":64:103   */\n      mstore\n        /* \"--CODEGEN--\":52:54   */\n      0x20\n        /* \"--CODEGEN--\":49:50   */\n      dup2\n        /* \"--CODEGEN--\":45:55   */\n      add\n        /* \"--CODEGEN--\":40:55   */\n      swap1\n      pop\n        /* \"--CODEGEN--\":8:108   */\n      jump(tag_125)\n    tag_127:\n        /* \"--CODEGEN--\":12:26   */\n      pop\n        /* \"contracts/UniswapV2ERC20.sol\":234:274  string public constant symbol = 'eZK-LP' */\n      pop\n      pop\n      pop\n      swap1\n      pop\n      swap1\n      dup2\n      add\n      swap1\n      0x1f\n      and\n      dup1\n      iszero\n      tag_128\n      jumpi\n      dup1\n      dup3\n      sub\n      dup1\n      mload\n      0x01\n      dup4\n      0x20\n      sub\n      0x0100\n      exp\n      sub\n      not\n      and\n      dup2\n      mstore\n      0x20\n      add\n      swap2\n      pop\n    tag_128:\n      pop\n      swap3\n      pop\n      pop\n      pop\n      mload(0x40)\n      dup1\n      swap2\n      sub\n      swap1\n      return\n        /* \"contracts/pair.sol\":1266:1288  bool public stableSwap */\n    tag_30:\n      tag_129\n      tag_130\n      jump\t// in\n    tag_129:\n      mload(0x40)\n      dup1\n      dup3\n      iszero\n      iszero\n      iszero\n      iszero\n      dup2\n      mstore\n      0x20\n      add\n      swap2\n      pop\n      pop\n      mload(0x40)\n      dup1\n      swap2\n      sub\n      swap1\n      return\n        /* \"contracts/UniswapV2ERC20.sol\":2329:2465  function transfer(address to, uint value) external returns (bool) {... */\n    tag_31:\n      tag_131\n      0x04\n      dup1\n      calldatasize\n      sub\n        /* \"--CODEGEN--\":13:15   */\n      0x40\n        /* \"--CODEGEN--\":8:11   */\n      dup2\n        /* \"--CODEGEN--\":5:16   */\n      lt\n        /* \"--CODEGEN--\":2:4   */\n      iszero\n      tag_132\n      jumpi\n        /* \"--CODEGEN--\":29:30   */\n      0x00\n        /* \"--CODEGEN--\":26:27   */\n      dup1\n        /* \"--CODEGEN--\":19:31   */\n      revert\n        /* \"--CODEGEN--\":2:4   */\n    tag_132:\n        /* \"contracts/UniswapV2ERC20.sol\":2329:2465  function transfer(address to, uint value) external returns (bool) {... */\n      dup2\n      add\n      swap1\n      dup1\n      dup1\n      calldataload\n      0xffffffffffffffffffffffffffffffffffffffff\n      and\n      swap1\n      0x20\n      add\n      swap1\n      swap3\n      swap2\n      swap1\n      dup1\n      calldataload\n      swap1\n      0x20\n      add\n      swap1\n      swap3\n      swap2\n      swap1\n      pop\n      pop\n      pop\n      tag_133\n      jump\t// in\n    tag_131:\n      mload(0x40)\n      dup1\n      dup3\n      iszero\n      iszero\n      iszero\n      iszero\n      dup2\n      mstore\n      0x20\n      add\n      swap2\n      pop\n      pop\n      mload(0x40)\n      dup1\n      swap2\n      sub\n      swap1\n      return\n        /* \"contracts/pair.sol\":1339:1368  bool public pairTypeImmutable */\n    tag_32:\n      tag_134\n      tag_135\n      jump\t// in\n    tag_134:\n      mload(0x40)\n      dup1\n      dup3\n      iszero\n      iszero\n      iszero\n      iszero\n      dup2\n      mstore\n      0x20\n      add\n      swap2\n      pop\n      pop\n      mload(0x40)\n      dup1\n      swap2\n      sub\n      swap1\n      return\n        /* \"contracts/pair.sol\":317:365  uint public constant MINIMUM_LIQUIDITY = 10 ** 3 */\n    tag_33:\n      tag_136\n      tag_137\n      jump\t// in\n    tag_136:\n      mload(0x40)\n      dup1\n      dup3\n      dup2\n      mstore\n      0x20\n      add\n      swap2\n      pop\n      pop\n      mload(0x40)\n      dup1\n      swap2\n      sub\n      swap1\n      return\n        /* \"contracts/pair.sol\":16659:16995  function skim(address to) external lock {... */\n    tag_34:\n      tag_138\n      0x04\n      dup1\n      calldatasize\n      sub\n        /* \"--CODEGEN--\":13:15   */\n      0x20\n        /* \"--CODEGEN--\":8:11   */\n      dup2\n        /* \"--CODEGEN--\":5:16   */\n      lt\n        /* \"--CODEGEN--\":2:4   */\n      iszero\n      tag_139\n      jumpi\n        /* \"--CODEGEN--\":29:30   */\n      0x00\n        /* \"--CODEGEN--\":26:27   */\n      dup1\n        /* \"--CODEGEN--\":19:31   */\n      revert\n        /* \"--CODEGEN--\":2:4   */\n    tag_139:\n        /* \"contracts/pair.sol\":16659:16995  function skim(address to) external lock {... */\n      dup2\n      add\n      swap1\n      dup1\n      dup1\n      calldataload\n      0xffffffffffffffffffffffffffffffffffffffff\n      and\n      swap1\n      0x20\n      add\n      swap1\n      swap3\n      swap2\n      swap1\n      pop\n      pop\n      pop\n      tag_140\n      jump\t// in\n    tag_138:\n      stop\n        /* \"contracts/pair.sol\":462:484  address public factory */\n    tag_35:\n      tag_141\n      tag_142\n      jump\t// in\n    tag_141:\n      mload(0x40)\n      dup1\n      dup3\n      0xffffffffffffffffffffffffffffffffffffffff\n      and\n      0xffffffffffffffffffffffffffffffffffffffff\n      and\n      dup2\n      mstore\n      0x20\n      add\n      swap2\n      pop\n      pop\n      mload(0x40)\n      dup1\n      swap2\n      sub\n      swap1\n      return\n        /* \"contracts/pair.sol\":513:534  address public token1 */\n    tag_36:\n      tag_143\n      tag_144\n      jump\t// in\n    tag_143:\n      mload(0x40)\n      dup1\n      dup3\n      0xffffffffffffffffffffffffffffffffffffffff\n      and\n      0xffffffffffffffffffffffffffffffffffffffff\n      and\n      dup2\n      mstore\n      0x20\n      add\n      swap2\n      pop\n      pop\n      mload(0x40)\n      dup1\n      swap2\n      sub\n      swap1\n      return\n        /* \"contracts/UniswapV2ERC20.sol\":2868:3530  function permit(address owner, address spender, uint value, uint deadline, uint8 v, bytes32 r, bytes32 s) external {... */\n    tag_37:\n      tag_145\n      0x04\n      dup1\n      calldatasize\n      sub\n        /* \"--CODEGEN--\":13:16   */\n      0xe0\n        /* \"--CODEGEN--\":8:11   */\n      dup2\n        /* \"--CODEGEN--\":5:17   */\n      lt\n        /* \"--CODEGEN--\":2:4   */\n      iszero\n      tag_146\n      jumpi\n        /* \"--CODEGEN--\":30:31   */\n      0x00\n        /* \"--CODEGEN--\":27:28   */\n      dup1\n        /* \"--CODEGEN--\":20:32   */\n      revert\n        /* \"--CODEGEN--\":2:4   */\n    tag_146:\n        /* \"contracts/UniswapV2ERC20.sol\":2868:3530  function permit(address owner, address spender, uint value, uint deadline, uint8 v, bytes32 r, bytes32 s) external {... */\n      dup2\n      add\n      swap1\n      dup1\n      dup1\n      calldataload\n      0xffffffffffffffffffffffffffffffffffffffff\n      and\n      swap1\n      0x20\n      add\n      swap1\n      swap3\n      swap2\n      swap1\n      dup1\n      calldataload\n      0xffffffffffffffffffffffffffffffffffffffff\n      and\n      swap1\n      0x20\n      add\n      swap1\n      swap3\n      swap2\n      swap1\n      dup1\n      calldataload\n      swap1\n      0x20\n      add\n      swap1\n      swap3\n      swap2\n      swap1\n      dup1\n      calldataload\n      swap1\n      0x20\n      add\n      swap1\n      swap3\n      swap2\n      swap1\n      dup1\n      calldataload\n      0xff\n      and\n      swap1\n      0x20\n      add\n      swap1\n      swap3\n      swap2\n      swap1\n      dup1\n      calldataload\n      swap1\n      0x20\n      add\n      swap1\n      swap3\n      swap2\n      swap1\n      dup1\n      calldataload\n      swap1\n      0x20\n      add\n      swap1\n      swap3\n      swap2\n      swap1\n      pop\n      pop\n      pop\n      tag_147\n      jump\t// in\n    tag_145:\n      stop\n        /* \"contracts/pair.sol\":567:612  uint public constant FEE_DENOMINATOR = 100000 */\n    tag_38:\n      tag_148\n      tag_149\n      jump\t// in\n    tag_148:\n      mload(0x40)\n      dup1\n      dup3\n      dup2\n      mstore\n      0x20\n      add\n      swap2\n      pop\n      pop\n      mload(0x40)\n      dup1\n      swap2\n      sub\n      swap1\n      return\n        /* \"contracts/UniswapV2ERC20.sol\":398:459  mapping(address => mapping(address => uint)) public allowance */\n    tag_39:\n      tag_150\n      0x04\n      dup1\n      calldatasize\n      sub\n        /* \"--CODEGEN--\":13:15   */\n      0x40\n        /* \"--CODEGEN--\":8:11   */\n      dup2\n        /* \"--CODEGEN--\":5:16   */\n      lt\n        /* \"--CODEGEN--\":2:4   */\n      iszero\n      tag_151\n      jumpi\n        /* \"--CODEGEN--\":29:30   */\n      0x00\n        /* \"--CODEGEN--\":26:27   */\n      dup1\n        /* \"--CODEGEN--\":19:31   */\n      revert\n        /* \"--CODEGEN--\":2:4   */\n    tag_151:\n        /* \"contracts/UniswapV2ERC20.sol\":398:459  mapping(address => mapping(address => uint)) public allowance */\n      dup2\n      add\n      swap1\n      dup1\n      dup1\n      calldataload\n      0xffffffffffffffffffffffffffffffffffffffff\n      and\n      swap1\n      0x20\n      add\n      swap1\n      swap3\n      swap2\n      swap1\n      dup1\n      calldataload\n      0xffffffffffffffffffffffffffffffffffffffff\n      and\n      swap1\n      0x20\n      add\n      swap1\n      swap3\n      swap2\n      swap1\n      pop\n      pop\n      pop\n      tag_152\n      jump\t// in\n    tag_150:\n      mload(0x40)\n      dup1\n      dup3\n      dup2\n      mstore\n      0x20\n      add\n      swap2\n      pop\n      pop\n      mload(0x40)\n      dup1\n      swap2\n      sub\n      swap1\n      return\n        /* \"contracts/pair.sol\":15259:15517  function getAmountOut(uint amountIn, address tokenIn) external view returns (uint) {... */\n    tag_40:\n      tag_153\n      0x04\n      dup1\n      calldatasize\n      sub\n        /* \"--CODEGEN--\":13:15   */\n      0x40\n        /* \"--CODEGEN--\":8:11   */\n      dup2\n        /* \"--CODEGEN--\":5:16   */\n      lt\n        /* \"--CODEGEN--\":2:4   */\n      iszero\n      tag_154\n      jumpi\n        /* \"--CODEGEN--\":29:30   */\n      0x00\n        /* \"--CODEGEN--\":26:27   */\n      dup1\n        /* \"--CODEGEN--\":19:31   */\n      revert\n        /* \"--CODEGEN--\":2:4   */\n    tag_154:\n        /* \"contracts/pair.sol\":15259:15517  function getAmountOut(uint amountIn, address tokenIn) external view returns (uint) {... */\n      dup2\n      add\n      swap1\n      dup1\n      dup1\n      calldataload\n      swap1\n      0x20\n      add\n      swap1\n      swap3\n      swap2\n      swap1\n      dup1\n      calldataload\n      0xffffffffffffffffffffffffffffffffffffffff\n      and\n      swap1\n      0x20\n      add\n      swap1\n      swap3\n      swap2\n      swap1\n      pop\n      pop\n      pop\n      tag_155\n      jump\t// in\n    tag_153:\n      mload(0x40)\n      dup1\n      dup3\n      dup2\n      mstore\n      0x20\n      add\n      swap2\n      pop\n      pop\n      mload(0x40)\n      dup1\n      swap2\n      sub\n      swap1\n      return\n        /* \"contracts/pair.sol\":17466:17818  function drainWrongToken(address token, address to) external lock {... */\n    tag_41:\n      tag_156\n      0x04\n      dup1\n      calldatasize\n      sub\n        /* \"--CODEGEN--\":13:15   */\n      0x40\n        /* \"--CODEGEN--\":8:11   */\n      dup2\n        /* \"--CODEGEN--\":5:16   */\n      lt\n        /* \"--CODEGEN--\":2:4   */\n      iszero\n      tag_157\n      jumpi\n        /* \"--CODEGEN--\":29:30   */\n      0x00\n        /* \"--CODEGEN--\":26:27   */\n      dup1\n        /* \"--CODEGEN--\":19:31   */\n      revert\n        /* \"--CODEGEN--\":2:4   */\n    tag_157:\n        /* \"contracts/pair.sol\":17466:17818  function drainWrongToken(address token, address to) external lock {... */\n      dup2\n      add\n      swap1\n      dup1\n      dup1\n      calldataload\n      0xffffffffffffffffffffffffffffffffffffffff\n      and\n      swap1\n      0x20\n      add\n      swap1\n      swap3\n      swap2\n      swap1\n      dup1\n      calldataload\n      0xffffffffffffffffffffffffffffffffffffffff\n      and\n      swap1\n      0x20\n      add\n      swap1\n      swap3\n      swap2\n      swap1\n      pop\n      pop\n      pop\n      tag_158\n      jump\t// in\n    tag_156:\n      stop\n        /* \"contracts/pair.sol\":17037:17352  function sync() external lock {... */\n    tag_42:\n      tag_159\n      tag_160\n      jump\t// in\n    tag_159:\n      stop\n        /* \"contracts/pair.sol\":9143:9528  function swap(uint amount0Out, uint amount1Out, address to, bytes calldata data) external {... */\n    tag_55:\n        /* \"contracts/pair.sol\":9239:9267  TokensData memory tokensData */\n      tag_162\n      tag_163\n      jump\t// in\n    tag_162:\n        /* \"contracts/pair.sol\":9270:9478  TokensData({... */\n      mload(0x40)\n      dup1\n      0x0100\n      add\n      0x40\n      mstore\n      dup1\n        /* \"contracts/pair.sol\":9297:9303  token0 */\n      0x06\n      0x00\n      swap1\n      sload\n      swap1\n      0x0100\n      exp\n      swap1\n      div\n      0xffffffffffffffffffffffffffffffffffffffff\n      and\n        /* \"contracts/pair.sol\":9270:9478  TokensData({... */\n      0xffffffffffffffffffffffffffffffffffffffff\n      and\n      dup2\n      mstore\n      0x20\n      add\n        /* \"contracts/pair.sol\":9319:9325  token1 */\n      0x07\n      0x00\n      swap1\n      sload\n      swap1\n      0x0100\n      exp\n      swap1\n      div\n      0xffffffffffffffffffffffffffffffffffffffff\n      and\n        /* \"contracts/pair.sol\":9270:9478  TokensData({... */\n      0xffffffffffffffffffffffffffffffffffffffff\n      and\n      dup2\n      mstore\n      0x20\n      add\n        /* \"contracts/pair.sol\":9345:9355  amount0Out */\n      dup8\n        /* \"contracts/pair.sol\":9270:9478  TokensData({... */\n      dup2\n      mstore\n      0x20\n      add\n        /* \"contracts/pair.sol\":9375:9385  amount1Out */\n      dup7\n        /* \"contracts/pair.sol\":9270:9478  TokensData({... */\n      dup2\n      mstore\n      0x20\n      add\n        /* \"contracts/pair.sol\":9403:9404  0 */\n      0x00\n        /* \"contracts/pair.sol\":9270:9478  TokensData({... */\n      dup2\n      mstore\n      0x20\n      add\n        /* \"contracts/pair.sol\":9422:9423  0 */\n      0x00\n        /* \"contracts/pair.sol\":9270:9478  TokensData({... */\n      dup2\n      mstore\n      0x20\n      add\n        /* \"contracts/pair.sol\":9446:9447  0 */\n      0x00\n        /* \"contracts/pair.sol\":9270:9478  TokensData({... */\n      dup2\n      mstore\n      0x20\n      add\n        /* \"contracts/pair.sol\":9470:9471  0 */\n      0x00\n        /* \"contracts/pair.sol\":9270:9478  TokensData({... */\n      dup2\n      mstore\n      pop\n        /* \"contracts/pair.sol\":9239:9478  TokensData memory tokensData = TokensData({... */\n      swap1\n      pop\n        /* \"contracts/pair.sol\":9484:9523  _swap(tokensData, to, data, address(0)) */\n      tag_164\n        /* \"contracts/pair.sol\":9490:9500  tokensData */\n      dup2\n        /* \"contracts/pair.sol\":9502:9504  to */\n      dup6\n        /* \"contracts/pair.sol\":9506:9510  data */\n      dup6\n      dup6\n        /* \"contracts/pair.sol\":9484:9523  _swap(tokensData, to, data, address(0)) */\n      dup1\n      dup1\n      0x1f\n      add\n      0x20\n      dup1\n      swap2\n      div\n      mul\n      0x20\n      add\n      mload(0x40)\n      swap1\n      dup2\n      add\n      0x40\n      mstore\n      dup1\n      swap4\n      swap3\n      swap2\n      swap1\n      dup2\n      dup2\n      mstore\n      0x20\n      add\n      dup4\n      dup4\n        /* \"--CODEGEN--\":30:33   */\n      dup1\n        /* \"--CODEGEN--\":22:28   */\n      dup3\n        /* \"--CODEGEN--\":14:20   */\n      dup5\n        /* \"--CODEGEN--\":1:34   */\n      calldatacopy\n        /* \"--CODEGEN--\":99:100   */\n      0x00\n        /* \"--CODEGEN--\":93:96   */\n      dup2\n        /* \"--CODEGEN--\":85:91   */\n      dup5\n        /* \"--CODEGEN--\":81:97   */\n      add\n        /* \"--CODEGEN--\":74:101   */\n      mstore\n        /* \"--CODEGEN--\":137:141   */\n      0x1f\n        /* \"--CODEGEN--\":133:142   */\n      not\n        /* \"--CODEGEN--\":126:130   */\n      0x1f\n        /* \"--CODEGEN--\":121:124   */\n      dup3\n        /* \"--CODEGEN--\":117:131   */\n      add\n        /* \"--CODEGEN--\":113:143   */\n      and\n        /* \"--CODEGEN--\":106:143   */\n      swap1\n      pop\n        /* \"--CODEGEN--\":169:172   */\n      dup1\n        /* \"--CODEGEN--\":161:167   */\n      dup4\n        /* \"--CODEGEN--\":157:173   */\n      add\n        /* \"--CODEGEN--\":147:173   */\n      swap3\n      pop\n        /* \"contracts/pair.sol\":9484:9523  _swap(tokensData, to, data, address(0)) */\n      pop\n      pop\n      pop\n      pop\n      pop\n      pop\n        /* \"contracts/pair.sol\":9520:9521  0 */\n      0x00\n        /* \"contracts/pair.sol\":9484:9489  _swap */\n      tag_165\n        /* \"contracts/pair.sol\":9484:9523  _swap(tokensData, to, data, address(0)) */\n      jump\t// in\n    tag_164:\n        /* \"contracts/pair.sol\":9143:9528  function swap(uint amount0Out, uint amount1Out, address to, bytes calldata data) external {... */\n      pop\n      pop\n      pop\n      pop\n      pop\n      pop\n      jump\t// out\n        /* \"contracts/UniswapV2ERC20.sol\":184:228  string public constant name = 'eZKalibur LP' */\n    tag_57:\n      mload(0x40)\n      dup1\n      0x40\n      add\n      0x40\n      mstore\n      dup1\n      0x0c\n      dup2\n      mstore\n      0x20\n      add\n      0x655a4b616c69627572204c500000000000000000000000000000000000000000\n      dup2\n      mstore\n      pop\n      dup2\n      jump\t// out\n        /* \"contracts/pair.sol\":1586:1861  function getReserves() public view returns (uint112 _reserve0, uint112 _reserve1, uint16 _token0FeePercent, uint16 _token1FeePercent) {... */\n    tag_63:\n        /* \"contracts/pair.sol\":1630:1647  uint112 _reserve0 */\n      0x00\n        /* \"contracts/pair.sol\":1649:1666  uint112 _reserve1 */\n      dup1\n        /* \"contracts/pair.sol\":1668:1692  uint16 _token0FeePercent */\n      0x00\n        /* \"contracts/pair.sol\":1694:1718  uint16 _token1FeePercent */\n      dup1\n        /* \"contracts/pair.sol\":1738:1746  reserve0 */\n      0x08\n      0x00\n      swap1\n      sload\n      swap1\n      0x0100\n      exp\n      swap1\n      div\n      0xffffffffffffffffffffffffffff\n      and\n        /* \"contracts/pair.sol\":1726:1746  _reserve0 = reserve0 */\n      swap4\n      pop\n        /* \"contracts/pair.sol\":1764:1772  reserve1 */\n      0x08\n      0x0e\n      swap1\n      sload\n      swap1\n      0x0100\n      exp\n      swap1\n      div\n      0xffffffffffffffffffffffffffff\n      and\n        /* \"contracts/pair.sol\":1752:1772  _reserve1 = reserve1 */\n      swap3\n      pop\n        /* \"contracts/pair.sol\":1798:1814  token0FeePercent */\n      0x08\n      0x1c\n      swap1\n      sload\n      swap1\n      0x0100\n      exp\n      swap1\n      div\n      0xffff\n      and\n        /* \"contracts/pair.sol\":1778:1814  _token0FeePercent = token0FeePercent */\n      swap2\n      pop\n        /* \"contracts/pair.sol\":1840:1856  token1FeePercent */\n      0x08\n      0x1e\n      swap1\n      sload\n      swap1\n      0x0100\n      exp\n      swap1\n      div\n      0xffff\n      and\n        /* \"contracts/pair.sol\":1820:1856  _token1FeePercent = token1FeePercent */\n      swap1\n      pop\n        /* \"contracts/pair.sol\":1586:1861  function getReserves() public view returns (uint112 _reserve0, uint112 _reserve1, uint16 _token0FeePercent, uint16 _token1FeePercent) {... */\n      swap1\n      swap2\n      swap3\n      swap4\n      jump\t// out\n        /* \"contracts/UniswapV2ERC20.sol\":2179:2323  function approve(address spender, uint value) external returns (bool) {... */\n    tag_66:\n        /* \"contracts/UniswapV2ERC20.sol\":2243:2247  bool */\n      0x00\n        /* \"contracts/UniswapV2ERC20.sol\":2259:2295  _approve(msg.sender, spender, value) */\n      tag_168\n        /* \"contracts/UniswapV2ERC20.sol\":2268:2278  msg.sender */\n      caller\n        /* \"contracts/UniswapV2ERC20.sol\":2280:2287  spender */\n      dup5\n        /* \"contracts/UniswapV2ERC20.sol\":2289:2294  value */\n      dup5\n        /* \"contracts/UniswapV2ERC20.sol\":2259:2267  _approve */\n      tag_169\n        /* \"contracts/UniswapV2ERC20.sol\":2259:2295  _approve(msg.sender, spender, value) */\n      jump\t// in\n    tag_168:\n        /* \"contracts/UniswapV2ERC20.sol\":2312:2316  true */\n      0x01\n        /* \"contracts/UniswapV2ERC20.sol\":2305:2316  return true */\n      swap1\n      pop\n        /* \"contracts/UniswapV2ERC20.sol\":2179:2323  function approve(address spender, uint value) external returns (bool) {... */\n      swap3\n      swap2\n      pop\n      pop\n      jump\t// out\n        /* \"contracts/pair.sol\":488:509  address public token0 */\n    tag_68:\n      0x06\n      0x00\n      swap1\n      sload\n      swap1\n      0x0100\n      exp\n      swap1\n      div\n      0xffffffffffffffffffffffffffffffffffffffff\n      and\n      dup2\n      jump\t// out\n        /* \"contracts/pair.sol\":539:562  bool public initialized */\n    tag_70:\n      0x07\n      0x14\n      swap1\n      sload\n      swap1\n      0x0100\n      exp\n      swap1\n      div\n      0xff\n      and\n      dup2\n      jump\t// out\n        /* \"contracts/UniswapV2ERC20.sol\":321:345  uint  public totalSupply */\n    tag_72:\n      sload(0x00)\n      dup2\n      jump\t// out\n        /* \"contracts/UniswapV2ERC20.sol\":2471:2862  function transferFrom(address from, address to, uint value) external returns (bool) {... */\n    tag_75:\n        /* \"contracts/UniswapV2ERC20.sol\":2549:2553  bool */\n      0x00\n        /* \"contracts/UniswapV2ERC20.sol\":2605:2607  -1 */\n      0xffffffffffffffffffffffffffffffffffffffffffffffffffffffffffffffff\n        /* \"contracts/UniswapV2ERC20.sol\":2569:2578  allowance */\n      0x02\n        /* \"contracts/UniswapV2ERC20.sol\":2569:2584  allowance[from] */\n      0x00\n        /* \"contracts/UniswapV2ERC20.sol\":2579:2583  from */\n      dup7\n        /* \"contracts/UniswapV2ERC20.sol\":2569:2584  allowance[from] */\n      0xffffffffffffffffffffffffffffffffffffffff\n      and\n      0xffffffffffffffffffffffffffffffffffffffff\n      and\n      dup2\n      mstore\n      0x20\n      add\n      swap1\n      dup2\n      mstore\n      0x20\n      add\n      0x00\n      keccak256\n        /* \"contracts/UniswapV2ERC20.sol\":2569:2596  allowance[from][msg.sender] */\n      0x00\n        /* \"contracts/UniswapV2ERC20.sol\":2585:2595  msg.sender */\n      caller\n        /* \"contracts/UniswapV2ERC20.sol\":2569:2596  allowance[from][msg.sender] */\n      0xffffffffffffffffffffffffffffffffffffffff\n      and\n      0xffffffffffffffffffffffffffffffffffffffff\n      and\n      dup2\n      mstore\n      0x20\n      add\n      swap1\n      dup2\n      mstore\n      0x20\n      add\n      0x00\n      keccak256\n      sload\n        /* \"contracts/UniswapV2ERC20.sol\":2569:2608  allowance[from][msg.sender] != uint(-1) */\n      eq\n        /* \"contracts/UniswapV2ERC20.sol\":2565:2799  if (allowance[from][msg.sender] != uint(-1)) {... */\n      tag_171\n      jumpi\n        /* \"contracts/UniswapV2ERC20.sol\":2624:2638  uint remaining */\n      0x00\n        /* \"contracts/UniswapV2ERC20.sol\":2641:2679  allowance[from][msg.sender].sub(value) */\n      tag_172\n        /* \"contracts/UniswapV2ERC20.sol\":2673:2678  value */\n      dup4\n        /* \"contracts/UniswapV2ERC20.sol\":2641:2650  allowance */\n      0x02\n        /* \"contracts/UniswapV2ERC20.sol\":2641:2656  allowance[from] */\n      0x00\n        /* \"contracts/UniswapV2ERC20.sol\":2651:2655  from */\n      dup9\n        /* \"contracts/UniswapV2ERC20.sol\":2641:2656  allowance[from] */\n      0xffffffffffffffffffffffffffffffffffffffff\n      and\n      0xffffffffffffffffffffffffffffffffffffffff\n      and\n      dup2\n      mstore\n      0x20\n      add\n      swap1\n      dup2\n      mstore\n      0x20\n      add\n      0x00\n      keccak256\n        /* \"contracts/UniswapV2ERC20.sol\":2641:2668  allowance[from][msg.sender] */\n      0x00\n        /* \"contracts/UniswapV2ERC20.sol\":2657:2667  msg.sender */\n      caller\n        /* \"contracts/UniswapV2ERC20.sol\":2641:2668  allowance[from][msg.sender] */\n      0xffffffffffffffffffffffffffffffffffffffff\n      and\n      0xffffffffffffffffffffffffffffffffffffffff\n      and\n      dup2\n      mstore\n      0x20\n      add\n      swap1\n      dup2\n      mstore\n      0x20\n      add\n      0x00\n      keccak256\n      sload\n        /* \"contracts/UniswapV2ERC20.sol\":2641:2672  allowance[from][msg.sender].sub */\n      tag_173\n      swap1\n        /* \"contracts/UniswapV2ERC20.sol\":2641:2679  allowance[from][msg.sender].sub(value) */\n      swap2\n      swap1\n      0xffffffff\n      and\n      jump\t// in\n    tag_172:\n        /* \"contracts/UniswapV2ERC20.sol\":2624:2679  uint remaining = allowance[from][msg.sender].sub(value) */\n      swap1\n      pop\n        /* \"contracts/UniswapV2ERC20.sol\":2723:2732  remaining */\n      dup1\n        /* \"contracts/UniswapV2ERC20.sol\":2693:2702  allowance */\n      0x02\n        /* \"contracts/UniswapV2ERC20.sol\":2693:2708  allowance[from] */\n      0x00\n        /* \"contracts/UniswapV2ERC20.sol\":2703:2707  from */\n      dup8\n        /* \"contracts/UniswapV2ERC20.sol\":2693:2708  allowance[from] */\n      0xffffffffffffffffffffffffffffffffffffffff\n      and\n      0xffffffffffffffffffffffffffffffffffffffff\n      and\n      dup2\n      mstore\n      0x20\n      add\n      swap1\n      dup2\n      mstore\n      0x20\n      add\n      0x00\n      keccak256\n        /* \"contracts/UniswapV2ERC20.sol\":2693:2720  allowance[from][msg.sender] */\n      0x00\n        /* \"contracts/UniswapV2ERC20.sol\":2709:2719  msg.sender */\n      caller\n        /* \"contracts/UniswapV2ERC20.sol\":2693:2720  allowance[from][msg.sender] */\n      0xffffffffffffffffffffffffffffffffffffffff\n      and\n      0xffffffffffffffffffffffffffffffffffffffff\n      and\n      dup2\n      mstore\n      0x20\n      add\n      swap1\n      dup2\n      mstore\n      0x20\n      add\n      0x00\n      keccak256\n        /* \"contracts/UniswapV2ERC20.sol\":2693:2732  allowance[from][msg.sender] = remaining */\n      dup2\n      swap1\n      sstore\n      pop\n        /* \"contracts/UniswapV2ERC20.sol\":2766:2776  msg.sender */\n      caller\n        /* \"contracts/UniswapV2ERC20.sol\":2751:2788  Approval(from, msg.sender, remaining) */\n      0xffffffffffffffffffffffffffffffffffffffff\n      and\n        /* \"contracts/UniswapV2ERC20.sol\":2760:2764  from */\n      dup6\n        /* \"contracts/UniswapV2ERC20.sol\":2751:2788  Approval(from, msg.sender, remaining) */\n      0xffffffffffffffffffffffffffffffffffffffff\n      and\n      0x8c5be1e5ebec7d5bd14f71427d1e84f3dd0314c0f7b2291e5b200ac8c7c3b925\n        /* \"contracts/UniswapV2ERC20.sol\":2778:2787  remaining */\n      dup4\n        /* \"contracts/UniswapV2ERC20.sol\":2751:2788  Approval(from, msg.sender, remaining) */\n      mload(0x40)\n      dup1\n      dup3\n      dup2\n      mstore\n      0x20\n      add\n      swap2\n      pop\n      pop\n      mload(0x40)\n      dup1\n      swap2\n      sub\n      swap1\n      log3\n        /* \"contracts/UniswapV2ERC20.sol\":2565:2799  if (allowance[from][msg.sender] != uint(-1)) {... */\n      pop\n    tag_171:\n        /* \"contracts/UniswapV2ERC20.sol\":2808:2834  _transfer(from, to, value) */\n      tag_174\n        /* \"contracts/UniswapV2ERC20.sol\":2818:2822  from */\n      dup5\n        /* \"contracts/UniswapV2ERC20.sol\":2824:2826  to */\n      dup5\n        /* \"contracts/UniswapV2ERC20.sol\":2828:2833  value */\n      dup5\n        /* \"contracts/UniswapV2ERC20.sol\":2808:2817  _transfer */\n      tag_175\n        /* \"contracts/UniswapV2ERC20.sol\":2808:2834  _transfer(from, to, value) */\n      jump\t// in\n    tag_174:\n        /* \"contracts/UniswapV2ERC20.sol\":2851:2855  true */\n      0x01\n        /* \"contracts/UniswapV2ERC20.sol\":2844:2855  return true */\n      swap1\n      pop\n        /* \"contracts/UniswapV2ERC20.sol\":2471:2862  function transferFrom(address from, address to, uint value) external returns (bool) {... */\n      swap4\n      swap3\n      pop\n      pop\n      pop\n      jump\t// out\n        /* \"contracts/pair.sol\":1127:1159  uint public precisionMultiplier1 */\n    tag_77:\n      sload(0x0a)\n      dup2\n      jump\t// out\n        /* \"contracts/pair.sol\":975:1011  uint16 public token1FeePercent = 300 */\n    tag_79:\n      0x08\n      0x1e\n      swap1\n      sload\n      swap1\n      0x0100\n      exp\n      swap1\n      div\n      0xffff\n      and\n      dup2\n      jump\t// out\n        /* \"contracts/pair.sol\":3991:4624  function setStableSwap(bool stable, uint112 expectedReserve0, uint112 expectedReserve1) external lock {... */\n    tag_82:\n        /* \"contracts/pair.sol\":1507:1508  1 */\n      0x01\n        /* \"contracts/pair.sol\":1495:1503  unlocked */\n      sload(0x0d)\n        /* \"contracts/pair.sol\":1495:1508  unlocked == 1 */\n      eq\n        /* \"contracts/pair.sol\":1487:1534  require(unlocked == 1, 'eZKaliburPair: LOCKED') */\n      tag_177\n      jumpi\n      mload(0x40)\n      0x08c379a000000000000000000000000000000000000000000000000000000000\n      dup2\n      mstore\n      0x04\n      add\n      dup1\n      dup1\n      0x20\n      add\n      dup3\n      dup2\n      sub\n      dup3\n      mstore\n      0x15\n      dup2\n      mstore\n      0x20\n      add\n      dup1\n      0x655a4b616c69627572506169723a204c4f434b45440000000000000000000000\n      dup2\n      mstore\n      pop\n      0x20\n      add\n      swap2\n      pop\n      pop\n      mload(0x40)\n      dup1\n      swap2\n      sub\n      swap1\n      revert\n    tag_177:\n        /* \"contracts/pair.sol\":1551:1552  0 */\n      0x00\n        /* \"contracts/pair.sol\":1540:1548  unlocked */\n      0x0d\n        /* \"contracts/pair.sol\":1540:1552  unlocked = 0 */\n      dup2\n      swap1\n      sstore\n      pop\n        /* \"contracts/pair.sol\":4130:4137  factory */\n      0x05\n      0x00\n      swap1\n      sload\n      swap1\n      0x0100\n      exp\n      swap1\n      div\n      0xffffffffffffffffffffffffffffffffffffffff\n      and\n        /* \"contracts/pair.sol\":4121:4153  IFactory(factory).setStableOwner */\n      0xffffffffffffffffffffffffffffffffffffffff\n      and\n      0xfc39026a\n        /* \"contracts/pair.sol\":4121:4155  IFactory(factory).setStableOwner() */\n      mload(0x40)\n      dup2\n      0xffffffff\n      and\n      0xe0\n      shl\n      dup2\n      mstore\n      0x04\n      add\n      0x20\n      mload(0x40)\n      dup1\n      dup4\n      sub\n      dup2\n      dup7\n      dup1\n      extcodesize\n      iszero\n        /* \"--CODEGEN--\":8:17   */\n      dup1\n        /* \"--CODEGEN--\":5:7   */\n      iszero\n      tag_179\n      jumpi\n        /* \"--CODEGEN--\":30:31   */\n      0x00\n        /* \"--CODEGEN--\":27:28   */\n      dup1\n        /* \"--CODEGEN--\":20:32   */\n      revert\n        /* \"--CODEGEN--\":5:7   */\n    tag_179:\n        /* \"contracts/pair.sol\":4121:4155  IFactory(factory).setStableOwner() */\n      pop\n      gas\n      staticcall\n      iszero\n        /* \"--CODEGEN--\":8:17   */\n      dup1\n        /* \"--CODEGEN--\":5:7   */\n      iszero\n      tag_180\n      jumpi\n        /* \"--CODEGEN--\":45:61   */\n      returndatasize\n        /* \"--CODEGEN--\":42:43   */\n      0x00\n        /* \"--CODEGEN--\":39:40   */\n      dup1\n        /* \"--CODEGEN--\":24:62   */\n      returndatacopy\n        /* \"--CODEGEN--\":77:93   */\n      returndatasize\n        /* \"--CODEGEN--\":74:75   */\n      0x00\n        /* \"--CODEGEN--\":67:94   */\n      revert\n        /* \"--CODEGEN--\":5:7   */\n    tag_180:\n        /* \"contracts/pair.sol\":4121:4155  IFactory(factory).setStableOwner() */\n      pop\n      pop\n      pop\n      pop\n      mload(0x40)\n      returndatasize\n        /* \"--CODEGEN--\":13:15   */\n      0x20\n        /* \"--CODEGEN--\":8:11   */\n      dup2\n        /* \"--CODEGEN--\":5:16   */\n      lt\n        /* \"--CODEGEN--\":2:4   */\n      iszero\n      tag_181\n      jumpi\n        /* \"--CODEGEN--\":29:30   */\n      0x00\n        /* \"--CODEGEN--\":26:27   */\n      dup1\n        /* \"--CODEGEN--\":19:31   */\n      revert\n        /* \"--CODEGEN--\":2:4   */\n    tag_181:\n        /* \"contracts/pair.sol\":4121:4155  IFactory(factory).setStableOwner() */\n      dup2\n      add\n      swap1\n      dup1\n      dup1\n      mload\n      swap1\n      0x20\n      add\n      swap1\n      swap3\n      swap2\n      swap1\n      pop\n      pop\n      pop\n        /* \"contracts/pair.sol\":4107:4155  msg.sender == IFactory(factory).setStableOwner() */\n      0xffffffffffffffffffffffffffffffffffffffff\n      and\n        /* \"contracts/pair.sol\":4107:4117  msg.sender */\n      caller\n        /* \"contracts/pair.sol\":4107:4155  msg.sender == IFactory(factory).setStableOwner() */\n      0xffffffffffffffffffffffffffffffffffffffff\n      and\n      eq\n        /* \"contracts/pair.sol\":4099:4204  require(msg.sender == IFactory(factory).setStableOwner(), \"eZKaliburPair: only factory's setStableOwner\") */\n      tag_182\n      jumpi\n      mload(0x40)\n      0x08c379a000000000000000000000000000000000000000000000000000000000\n      dup2\n      mstore\n      0x04\n      add\n      dup1\n      dup1\n      0x20\n      add\n      dup3\n      dup2\n      sub\n      dup3\n      mstore\n      0x2c\n      dup2\n      mstore\n      0x20\n      add\n      dup1\n      data_9ff115c8f228bb5656172ece44e1abafba1eb82b0ff5c74955e92e978f9be43b\n      0x2c\n      swap2\n      codecopy\n      0x40\n      add\n      swap2\n      pop\n      pop\n      mload(0x40)\n      dup1\n      swap2\n      sub\n      swap1\n      revert\n    tag_182:\n        /* \"contracts/pair.sol\":4219:4236  pairTypeImmutable */\n      0x0c\n      0x01\n      swap1\n      sload\n      swap1\n      0x0100\n      exp\n      swap1\n      div\n      0xff\n      and\n        /* \"contracts/pair.sol\":4218:4236  !pairTypeImmutable */\n      iszero\n        /* \"contracts/pair.sol\":4210:4265  require(!pairTypeImmutable, \"eZKaliburPair: immutable\") */\n      tag_183\n      jumpi\n      mload(0x40)\n      0x08c379a000000000000000000000000000000000000000000000000000000000\n      dup2\n      mstore\n      0x04\n      add\n      dup1\n      dup1\n      0x20\n      add\n      dup3\n      dup2\n      sub\n      dup3\n      mstore\n      0x18\n      dup2\n      mstore\n      0x20\n      add\n      dup1\n      0x655a4b616c69627572506169723a20696d6d757461626c650000000000000000\n      dup2\n      mstore\n      pop\n      0x20\n      add\n      swap2\n      pop\n      pop\n      mload(0x40)\n      dup1\n      swap2\n      sub\n      swap1\n      revert\n    tag_183:\n        /* \"contracts/pair.sol\":4290:4300  stableSwap */\n      0x0c\n      0x00\n      swap1\n      sload\n      swap1\n      0x0100\n      exp\n      swap1\n      div\n      0xff\n      and\n        /* \"contracts/pair.sol\":4280:4300  stable != stableSwap */\n      iszero\n      iszero\n        /* \"contracts/pair.sol\":4280:4286  stable */\n      dup4\n        /* \"contracts/pair.sol\":4280:4300  stable != stableSwap */\n      iszero\n      iszero\n      eq\n      iszero\n        /* \"contracts/pair.sol\":4272:4329  require(stable != stableSwap, \"eZKaliburPair: no update\") */\n      tag_184\n      jumpi\n      mload(0x40)\n      0x08c379a000000000000000000000000000000000000000000000000000000000\n      dup2\n      mstore\n      0x04\n      add\n      dup1\n      dup1\n      0x20\n      add\n      dup3\n      dup2\n      sub\n      dup3\n      mstore\n      0x18\n      dup2\n      mstore\n      0x20\n      add\n      dup1\n      0x655a4b616c69627572506169723a206e6f207570646174650000000000000000\n      dup2\n      mstore\n      pop\n      0x20\n      add\n      swap2\n      pop\n      pop\n      mload(0x40)\n      dup1\n      swap2\n      sub\n      swap1\n      revert\n    tag_184:\n        /* \"contracts/pair.sol\":4363:4371  reserve0 */\n      0x08\n      0x00\n      swap1\n      sload\n      swap1\n      0x0100\n      exp\n      swap1\n      div\n      0xffffffffffffffffffffffffffff\n      and\n        /* \"contracts/pair.sol\":4343:4371  expectedReserve0 == reserve0 */\n      0xffffffffffffffffffffffffffff\n      and\n        /* \"contracts/pair.sol\":4343:4359  expectedReserve0 */\n      dup3\n        /* \"contracts/pair.sol\":4343:4371  expectedReserve0 == reserve0 */\n      0xffffffffffffffffffffffffffff\n      and\n      eq\n        /* \"contracts/pair.sol\":4343:4403  expectedReserve0 == reserve0 && expectedReserve1 == reserve1 */\n      dup1\n      iszero\n      tag_185\n      jumpi\n      pop\n        /* \"contracts/pair.sol\":4395:4403  reserve1 */\n      0x08\n      0x0e\n      swap1\n      sload\n      swap1\n      0x0100\n      exp\n      swap1\n      div\n      0xffffffffffffffffffffffffffff\n      and\n        /* \"contracts/pair.sol\":4375:4403  expectedReserve1 == reserve1 */\n      0xffffffffffffffffffffffffffff\n      and\n        /* \"contracts/pair.sol\":4375:4391  expectedReserve1 */\n      dup2\n        /* \"contracts/pair.sol\":4375:4403  expectedReserve1 == reserve1 */\n      0xffffffffffffffffffffffffffff\n      and\n      eq\n        /* \"contracts/pair.sol\":4343:4403  expectedReserve0 == reserve0 && expectedReserve1 == reserve1 */\n    tag_185:\n        /* \"contracts/pair.sol\":4335:4429  require(expectedReserve0 == reserve0 && expectedReserve1 == reserve1, \"eZKaliburPair: failed\") */\n      tag_186\n      jumpi\n      mload(0x40)\n      0x08c379a000000000000000000000000000000000000000000000000000000000\n      dup2\n      mstore\n      0x04\n      add\n      dup1\n      dup1\n      0x20\n      add\n      dup3\n      dup2\n      sub\n      dup3\n      mstore\n      0x15\n      dup2\n      mstore\n      0x20\n      add\n      dup1\n      0x655a4b616c69627572506169723a206661696c65640000000000000000000000\n      dup2\n      mstore\n      pop\n      0x20\n      add\n      swap2\n      pop\n      pop\n      mload(0x40)\n      dup1\n      swap2\n      sub\n      swap1\n      revert\n    tag_186:\n        /* \"contracts/pair.sol\":4436:4446  bool feeOn */\n      0x00\n        /* \"contracts/pair.sol\":4449:4477  _mintFee(reserve0, reserve1) */\n      tag_187\n        /* \"contracts/pair.sol\":4458:4466  reserve0 */\n      0x08\n      0x00\n      swap1\n      sload\n      swap1\n      0x0100\n      exp\n      swap1\n      div\n      0xffffffffffffffffffffffffffff\n      and\n        /* \"contracts/pair.sol\":4468:4476  reserve1 */\n      0x08\n      0x0e\n      swap1\n      sload\n      swap1\n      0x0100\n      exp\n      swap1\n      div\n      0xffffffffffffffffffffffffffff\n      and\n        /* \"contracts/pair.sol\":4449:4457  _mintFee */\n      tag_188\n        /* \"contracts/pair.sol\":4449:4477  _mintFee(reserve0, reserve1) */\n      jump\t// in\n    tag_187:\n        /* \"contracts/pair.sol\":4436:4477  bool feeOn = _mintFee(reserve0, reserve1) */\n      swap1\n      pop\n        /* \"contracts/pair.sol\":4489:4522  SetStableSwap(stableSwap, stable) */\n      0xb6a86710bde53aa7fb1b3856279e2af5b476d53e2dd0902cf17a0911b5a43a8b\n        /* \"contracts/pair.sol\":4503:4513  stableSwap */\n      0x0c\n      0x00\n      swap1\n      sload\n      swap1\n      0x0100\n      exp\n      swap1\n      div\n      0xff\n      and\n        /* \"contracts/pair.sol\":4515:4521  stable */\n      dup6\n        /* \"contracts/pair.sol\":4489:4522  SetStableSwap(stableSwap, stable) */\n      mload(0x40)\n      dup1\n      dup4\n      iszero\n      iszero\n      iszero\n      iszero\n      dup2\n      mstore\n      0x20\n      add\n      dup3\n      iszero\n      iszero\n      iszero\n      iszero\n      dup2\n      mstore\n      0x20\n      add\n      swap3\n      pop\n      pop\n      pop\n      mload(0x40)\n      dup1\n      swap2\n      sub\n      swap1\n      log1\n        /* \"contracts/pair.sol\":4541:4547  stable */\n      dup4\n        /* \"contracts/pair.sol\":4528:4538  stableSwap */\n      0x0c\n      0x00\n        /* \"contracts/pair.sol\":4528:4547  stableSwap = stable */\n      0x0100\n      exp\n      dup2\n      sload\n      dup2\n      0xff\n      mul\n      not\n      and\n      swap1\n      dup4\n      iszero\n      iszero\n      mul\n      or\n      swap1\n      sstore\n      pop\n        /* \"contracts/pair.sol\":4562:4568  stable */\n      dup4\n        /* \"contracts/pair.sol\":4562:4577  stable && feeOn */\n      dup1\n      iszero\n      tag_189\n      jumpi\n      pop\n        /* \"contracts/pair.sol\":4572:4577  feeOn */\n      dup1\n        /* \"contracts/pair.sol\":4562:4577  stable && feeOn */\n    tag_189:\n        /* \"contracts/pair.sol\":4561:4619  (stable && feeOn) ? _k(uint(reserve0), uint(reserve1)) : 0 */\n      tag_190\n      jumpi\n        /* \"contracts/pair.sol\":4618:4619  0 */\n      0x00\n        /* \"contracts/pair.sol\":4561:4619  (stable && feeOn) ? _k(uint(reserve0), uint(reserve1)) : 0 */\n      jump(tag_191)\n    tag_190:\n        /* \"contracts/pair.sol\":4581:4615  _k(uint(reserve0), uint(reserve1)) */\n      tag_192\n        /* \"contracts/pair.sol\":4589:4597  reserve0 */\n      0x08\n      0x00\n      swap1\n      sload\n      swap1\n      0x0100\n      exp\n      swap1\n      div\n      0xffffffffffffffffffffffffffff\n      and\n        /* \"contracts/pair.sol\":4584:4598  uint(reserve0) */\n      0xffffffffffffffffffffffffffff\n      and\n        /* \"contracts/pair.sol\":4605:4613  reserve1 */\n      0x08\n      0x0e\n      swap1\n      sload\n      swap1\n      0x0100\n      exp\n      swap1\n      div\n      0xffffffffffffffffffffffffffff\n      and\n        /* \"contracts/pair.sol\":4600:4614  uint(reserve1) */\n      0xffffffffffffffffffffffffffff\n      and\n        /* \"contracts/pair.sol\":4581:4583  _k */\n      tag_193\n        /* \"contracts/pair.sol\":4581:4615  _k(uint(reserve0), uint(reserve1)) */\n      jump\t// in\n    tag_192:\n        /* \"contracts/pair.sol\":4561:4619  (stable && feeOn) ? _k(uint(reserve0), uint(reserve1)) : 0 */\n    tag_191:\n        /* \"contracts/pair.sol\":4553:4558  kLast */\n      0x0b\n        /* \"contracts/pair.sol\":4553:4619  kLast = (stable && feeOn) ? _k(uint(reserve0), uint(reserve1)) : 0 */\n      dup2\n      swap1\n      sstore\n      pop\n        /* \"contracts/pair.sol\":1558:1559  _ */\n      pop\n        /* \"contracts/pair.sol\":1576:1577  1 */\n      0x01\n        /* \"contracts/pair.sol\":1565:1573  unlocked */\n      0x0d\n        /* \"contracts/pair.sol\":1565:1577  unlocked = 1 */\n      dup2\n      swap1\n      sstore\n      pop\n        /* \"contracts/pair.sol\":3991:4624  function setStableSwap(bool stable, uint112 expectedReserve0, uint112 expectedReserve1) external lock {... */\n      pop\n      pop\n      pop\n      jump\t// out\n        /* \"contracts/UniswapV2ERC20.sol\":607:715  bytes32 public constant PERMIT_TYPEHASH = 0x6e71edae12b1b97f4d1f60370fef10105fa2faae0126114a169c64845d6126c9 */\n    tag_84:\n        /* \"contracts/UniswapV2ERC20.sol\":649:715  0x6e71edae12b1b97f4d1f60370fef10105fa2faae0126114a169c64845d6126c9 */\n      0x6e71edae12b1b97f4d1f60370fef10105fa2faae0126114a169c64845d6126c9\n        /* \"contracts/UniswapV2ERC20.sol\":607:715  bytes32 public constant PERMIT_TYPEHASH = 0x6e71edae12b1b97f4d1f60370fef10105fa2faae0126114a169c64845d6126c9 */\n      0x00\n      shl\n      dup2\n      jump\t// out\n        /* \"contracts/UniswapV2ERC20.sol\":280:315  uint8 public constant decimals = 18 */\n    tag_86:\n        /* \"contracts/UniswapV2ERC20.sol\":313:315  18 */\n      0x12\n        /* \"contracts/UniswapV2ERC20.sol\":280:315  uint8 public constant decimals = 18 */\n      dup2\n      jump\t// out\n        /* \"contracts/UniswapV2ERC20.sol\":466:497  bytes32 public DOMAIN_SEPARATOR */\n    tag_88:\n      sload(0x03)\n      dup2\n      jump\t// out\n        /* \"contracts/pair.sol\":1091:1123  uint public precisionMultiplier0 */\n    tag_90:\n      sload(0x09)\n      dup2\n      jump\t// out\n        /* \"contracts/pair.sol\":4628:4905  function setPairTypeImmutable() external lock {... */\n    tag_92:\n        /* \"contracts/pair.sol\":1507:1508  1 */\n      0x01\n        /* \"contracts/pair.sol\":1495:1503  unlocked */\n      sload(0x0d)\n        /* \"contracts/pair.sol\":1495:1508  unlocked == 1 */\n      eq\n        /* \"contracts/pair.sol\":1487:1534  require(unlocked == 1, 'eZKaliburPair: LOCKED') */\n      tag_195\n      jumpi\n      mload(0x40)\n      0x08c379a000000000000000000000000000000000000000000000000000000000\n      dup2\n      mstore\n      0x04\n      add\n      dup1\n      dup1\n      0x20\n      add\n      dup3\n      dup2\n      sub\n      dup3\n      mstore\n      0x15\n      dup2\n      mstore\n      0x20\n      add\n      dup1\n      0x655a4b616c69627572506169723a204c4f434b45440000000000000000000000\n      dup2\n      mstore\n      pop\n      0x20\n      add\n      swap2\n      pop\n      pop\n      mload(0x40)\n      dup1\n      swap2\n      sub\n      swap1\n      revert\n    tag_195:\n        /* \"contracts/pair.sol\":1551:1552  0 */\n      0x00\n        /* \"contracts/pair.sol\":1540:1548  unlocked */\n      0x0d\n        /* \"contracts/pair.sol\":1540:1552  unlocked = 0 */\n      dup2\n      swap1\n      sstore\n      pop\n        /* \"contracts/pair.sol\":4711:4718  factory */\n      0x05\n      0x00\n      swap1\n      sload\n      swap1\n      0x0100\n      exp\n      swap1\n      div\n      0xffffffffffffffffffffffffffffffffffffffff\n      and\n        /* \"contracts/pair.sol\":4702:4725  IFactory(factory).owner */\n      0xffffffffffffffffffffffffffffffffffffffff\n      and\n      0x8da5cb5b\n        /* \"contracts/pair.sol\":4702:4727  IFactory(factory).owner() */\n      mload(0x40)\n      dup2\n      0xffffffff\n      and\n      0xe0\n      shl\n      dup2\n      mstore\n      0x04\n      add\n      0x20\n      mload(0x40)\n      dup1\n      dup4\n      sub\n      dup2\n      dup7\n      dup1\n      extcodesize\n      iszero\n        /* \"--CODEGEN--\":8:17   */\n      dup1\n        /* \"--CODEGEN--\":5:7   */\n      iszero\n      tag_197\n      jumpi\n        /* \"--CODEGEN--\":30:31   */\n      0x00\n        /* \"--CODEGEN--\":27:28   */\n      dup1\n        /* \"--CODEGEN--\":20:32   */\n      revert\n        /* \"--CODEGEN--\":5:7   */\n    tag_197:\n        /* \"contracts/pair.sol\":4702:4727  IFactory(factory).owner() */\n      pop\n      gas\n      staticcall\n      iszero\n        /* \"--CODEGEN--\":8:17   */\n      dup1\n        /* \"--CODEGEN--\":5:7   */\n      iszero\n      tag_198\n      jumpi\n        /* \"--CODEGEN--\":45:61   */\n      returndatasize\n        /* \"--CODEGEN--\":42:43   */\n      0x00\n        /* \"--CODEGEN--\":39:40   */\n      dup1\n        /* \"--CODEGEN--\":24:62   */\n      returndatacopy\n        /* \"--CODEGEN--\":77:93   */\n      returndatasize\n        /* \"--CODEGEN--\":74:75   */\n      0x00\n        /* \"--CODEGEN--\":67:94   */\n      revert\n        /* \"--CODEGEN--\":5:7   */\n    tag_198:\n        /* \"contracts/pair.sol\":4702:4727  IFactory(factory).owner() */\n      pop\n      pop\n      pop\n      pop\n      mload(0x40)\n      returndatasize\n        /* \"--CODEGEN--\":13:15   */\n      0x20\n        /* \"--CODEGEN--\":8:11   */\n      dup2\n        /* \"--CODEGEN--\":5:16   */\n      lt\n        /* \"--CODEGEN--\":2:4   */\n      iszero\n      tag_199\n      jumpi\n        /* \"--CODEGEN--\":29:30   */\n      0x00\n        /* \"--CODEGEN--\":26:27   */\n      dup1\n        /* \"--CODEGEN--\":19:31   */\n      revert\n        /* \"--CODEGEN--\":2:4   */\n    tag_199:\n        /* \"contracts/pair.sol\":4702:4727  IFactory(factory).owner() */\n      dup2\n      add\n      swap1\n      dup1\n      dup1\n      mload\n      swap1\n      0x20\n      add\n      swap1\n      swap3\n      swap2\n      swap1\n      pop\n      pop\n      pop\n        /* \"contracts/pair.sol\":4688:4727  msg.sender == IFactory(factory).owner() */\n      0xffffffffffffffffffffffffffffffffffffffff\n      and\n        /* \"contracts/pair.sol\":4688:4698  msg.sender */\n      caller\n        /* \"contracts/pair.sol\":4688:4727  msg.sender == IFactory(factory).owner() */\n      0xffffffffffffffffffffffffffffffffffffffff\n      and\n      eq\n        /* \"contracts/pair.sol\":4680:4767  require(msg.sender == IFactory(factory).owner(), \"eZKaliburPair: only factory's owner\") */\n      tag_200\n      jumpi\n      mload(0x40)\n      0x08c379a000000000000000000000000000000000000000000000000000000000\n      dup2\n      mstore\n      0x04\n      add\n      dup1\n      dup1\n      0x20\n      add\n      dup3\n      dup2\n      sub\n      dup3\n      mstore\n      0x23\n      dup2\n      mstore\n      0x20\n      add\n      dup1\n      data_fd83120603ed4d82de96120f878f97f3eab3d3e5b9b17eb433b2f605b574072d\n      0x23\n      swap2\n      codecopy\n      0x40\n      add\n      swap2\n      pop\n      pop\n      mload(0x40)\n      dup1\n      swap2\n      sub\n      swap1\n      revert\n    tag_200:\n        /* \"contracts/pair.sol\":4782:4799  pairTypeImmutable */\n      0x0c\n      0x01\n      swap1\n      sload\n      swap1\n      0x0100\n      exp\n      swap1\n      div\n      0xff\n      and\n        /* \"contracts/pair.sol\":4781:4799  !pairTypeImmutable */\n      iszero\n        /* \"contracts/pair.sol\":4773:4836  require(!pairTypeImmutable, \"eZKaliburPair: already immutable\") */\n      tag_201\n      jumpi\n      mload(0x40)\n      0x08c379a000000000000000000000000000000000000000000000000000000000\n      dup2\n      mstore\n      0x04\n      add\n      dup1\n      dup1\n      0x20\n      add\n      dup3\n      dup2\n      sub\n      dup3\n      mstore\n      0x20\n      dup2\n      mstore\n      0x20\n      add\n      dup1\n      0x655a4b616c69627572506169723a20616c726561647920696d6d757461626c65\n      dup2\n      mstore\n      pop\n      0x20\n      add\n      swap2\n      pop\n      pop\n      mload(0x40)\n      dup1\n      swap2\n      sub\n      swap1\n      revert\n    tag_201:\n        /* \"contracts/pair.sol\":4863:4867  true */\n      0x01\n        /* \"contracts/pair.sol\":4843:4860  pairTypeImmutable */\n      0x0c\n      0x01\n        /* \"contracts/pair.sol\":4843:4867  pairTypeImmutable = true */\n      0x0100\n      exp\n      dup2\n      sload\n      dup2\n      0xff\n      mul\n      not\n      and\n      swap1\n      dup4\n      iszero\n      iszero\n      mul\n      or\n      swap1\n      sstore\n      pop\n        /* \"contracts/pair.sol\":4878:4900  SetPairTypeImmutable() */\n      0x09122c41ae733a4d7740324d50e35fbd6ee85be3c1312a45596d8045150ab2f2\n      mload(0x40)\n      mload(0x40)\n      dup1\n      swap2\n      sub\n      swap1\n      log1\n        /* \"contracts/pair.sol\":1576:1577  1 */\n      0x01\n        /* \"contracts/pair.sol\":1565:1573  unlocked */\n      0x0d\n        /* \"contracts/pair.sol\":1565:1577  unlocked = 1 */\n      dup2\n      swap1\n      sstore\n      pop\n        /* \"contracts/pair.sol\":4628:4905  function setPairTypeImmutable() external lock {... */\n      jump\t// out\n        /* \"contracts/pair.sol\":2858:3234  function initialize(address _token0, address _token1) external {... */\n    tag_95:\n        /* \"contracts/pair.sol\":2949:2956  factory */\n      0x05\n      0x00\n      swap1\n      sload\n      swap1\n      0x0100\n      exp\n      swap1\n      div\n      0xffffffffffffffffffffffffffffffffffffffff\n      and\n        /* \"contracts/pair.sol\":2935:2956  msg.sender == factory */\n      0xffffffffffffffffffffffffffffffffffffffff\n      and\n        /* \"contracts/pair.sol\":2935:2945  msg.sender */\n      caller\n        /* \"contracts/pair.sol\":2935:2956  msg.sender == factory */\n      0xffffffffffffffffffffffffffffffffffffffff\n      and\n      eq\n        /* \"contracts/pair.sol\":2935:2972  msg.sender == factory && !initialized */\n      dup1\n      iszero\n      tag_203\n      jumpi\n      pop\n        /* \"contracts/pair.sol\":2961:2972  initialized */\n      0x07\n      0x14\n      swap1\n      sload\n      swap1\n      0x0100\n      exp\n      swap1\n      div\n      0xff\n      and\n        /* \"contracts/pair.sol\":2960:2972  !initialized */\n      iszero\n        /* \"contracts/pair.sol\":2935:2972  msg.sender == factory && !initialized */\n    tag_203:\n        /* \"contracts/pair.sol\":2927:3001  require(msg.sender == factory && !initialized, 'eZKaliburPair: FORBIDDEN') */\n      tag_204\n      jumpi\n      mload(0x40)\n      0x08c379a000000000000000000000000000000000000000000000000000000000\n      dup2\n      mstore\n      0x04\n      add\n      dup1\n      dup1\n      0x20\n      add\n      dup3\n      dup2\n      sub\n      dup3\n      mstore\n      0x18\n      dup2\n      mstore\n      0x20\n      add\n      dup1\n      0x655a4b616c69627572506169723a20464f5242494444454e0000000000000000\n      dup2\n      mstore\n      pop\n      0x20\n      add\n      swap2\n      pop\n      pop\n      mload(0x40)\n      dup1\n      swap2\n      sub\n      swap1\n      revert\n    tag_204:\n        /* \"contracts/pair.sol\":3040:3047  _token0 */\n      dup2\n        /* \"contracts/pair.sol\":3031:3037  token0 */\n      0x06\n      0x00\n        /* \"contracts/pair.sol\":3031:3047  token0 = _token0 */\n      0x0100\n      exp\n      dup2\n      sload\n      dup2\n      0xffffffffffffffffffffffffffffffffffffffff\n      mul\n      not\n      and\n      swap1\n      dup4\n      0xffffffffffffffffffffffffffffffffffffffff\n      and\n      mul\n      or\n      swap1\n      sstore\n      pop\n        /* \"contracts/pair.sol\":3062:3069  _token1 */\n      dup1\n        /* \"contracts/pair.sol\":3053:3059  token1 */\n      0x07\n      0x00\n        /* \"contracts/pair.sol\":3053:3069  token1 = _token1 */\n      0x0100\n      exp\n      dup2\n      sload\n      dup2\n      0xffffffffffffffffffffffffffffffffffffffff\n      mul\n      not\n      and\n      swap1\n      dup4\n      0xffffffffffffffffffffffffffffffffffffffff\n      and\n      mul\n      or\n      swap1\n      sstore\n      pop\n        /* \"contracts/pair.sol\":3117:3124  _token0 */\n      dup2\n        /* \"contracts/pair.sol\":3110:3134  IERC20(_token0).decimals */\n      0xffffffffffffffffffffffffffffffffffffffff\n      and\n      0x313ce567\n        /* \"contracts/pair.sol\":3110:3136  IERC20(_token0).decimals() */\n      mload(0x40)\n      dup2\n      0xffffffff\n      and\n      0xe0\n      shl\n      dup2\n      mstore\n      0x04\n      add\n      0x20\n      mload(0x40)\n      dup1\n      dup4\n      sub\n      dup2\n      dup7\n      dup1\n      extcodesize\n      iszero\n        /* \"--CODEGEN--\":8:17   */\n      dup1\n        /* \"--CODEGEN--\":5:7   */\n      iszero\n      tag_205\n      jumpi\n        /* \"--CODEGEN--\":30:31   */\n      0x00\n        /* \"--CODEGEN--\":27:28   */\n      dup1\n        /* \"--CODEGEN--\":20:32   */\n      revert\n        /* \"--CODEGEN--\":5:7   */\n    tag_205:\n        /* \"contracts/pair.sol\":3110:3136  IERC20(_token0).decimals() */\n      pop\n      gas\n      staticcall\n      iszero\n        /* \"--CODEGEN--\":8:17   */\n      dup1\n        /* \"--CODEGEN--\":5:7   */\n      iszero\n      tag_206\n      jumpi\n        /* \"--CODEGEN--\":45:61   */\n      returndatasize\n        /* \"--CODEGEN--\":42:43   */\n      0x00\n        /* \"--CODEGEN--\":39:40   */\n      dup1\n        /* \"--CODEGEN--\":24:62   */\n      returndatacopy\n        /* \"--CODEGEN--\":77:93   */\n      returndatasize\n        /* \"--CODEGEN--\":74:75   */\n      0x00\n        /* \"--CODEGEN--\":67:94   */\n      revert\n        /* \"--CODEGEN--\":5:7   */\n    tag_206:\n        /* \"contracts/pair.sol\":3110:3136  IERC20(_token0).decimals() */\n      pop\n      pop\n      pop\n      pop\n      mload(0x40)\n      returndatasize\n        /* \"--CODEGEN--\":13:15   */\n      0x20\n        /* \"--CODEGEN--\":8:11   */\n      dup2\n        /* \"--CODEGEN--\":5:16   */\n      lt\n        /* \"--CODEGEN--\":2:4   */\n      iszero\n      tag_207\n      jumpi\n        /* \"--CODEGEN--\":29:30   */\n      0x00\n        /* \"--CODEGEN--\":26:27   */\n      dup1\n        /* \"--CODEGEN--\":19:31   */\n      revert\n        /* \"--CODEGEN--\":2:4   */\n    tag_207:\n        /* \"contracts/pair.sol\":3110:3136  IERC20(_token0).decimals() */\n      dup2\n      add\n      swap1\n      dup1\n      dup1\n      mload\n      swap1\n      0x20\n      add\n      swap1\n      swap3\n      swap2\n      swap1\n      pop\n      pop\n      pop\n        /* \"contracts/pair.sol\":3105:3137  uint(IERC20(_token0).decimals()) */\n      0xff\n      and\n        /* \"contracts/pair.sol\":3099:3101  10 */\n      0x0a\n        /* \"contracts/pair.sol\":3099:3137  10 ** uint(IERC20(_token0).decimals()) */\n      exp\n        /* \"contracts/pair.sol\":3076:3096  precisionMultiplier0 */\n      0x09\n        /* \"contracts/pair.sol\":3076:3137  precisionMultiplier0 = 10 ** uint(IERC20(_token0).decimals()) */\n      dup2\n      swap1\n      sstore\n      pop\n        /* \"contracts/pair.sol\":3184:3191  _token1 */\n      dup1\n        /* \"contracts/pair.sol\":3177:3201  IERC20(_token1).decimals */\n      0xffffffffffffffffffffffffffffffffffffffff\n      and\n      0x313ce567\n        /* \"contracts/pair.sol\":3177:3203  IERC20(_token1).decimals() */\n      mload(0x40)\n      dup2\n      0xffffffff\n      and\n      0xe0\n      shl\n      dup2\n      mstore\n      0x04\n      add\n      0x20\n      mload(0x40)\n      dup1\n      dup4\n      sub\n      dup2\n      dup7\n      dup1\n      extcodesize\n      iszero\n        /* \"--CODEGEN--\":8:17   */\n      dup1\n        /* \"--CODEGEN--\":5:7   */\n      iszero\n      tag_208\n      jumpi\n        /* \"--CODEGEN--\":30:31   */\n      0x00\n        /* \"--CODEGEN--\":27:28   */\n      dup1\n        /* \"--CODEGEN--\":20:32   */\n      revert\n        /* \"--CODEGEN--\":5:7   */\n    tag_208:\n        /* \"contracts/pair.sol\":3177:3203  IERC20(_token1).decimals() */\n      pop\n      gas\n      staticcall\n      iszero\n        /* \"--CODEGEN--\":8:17   */\n      dup1\n        /* \"--CODEGEN--\":5:7   */\n      iszero\n      tag_209\n      jumpi\n        /* \"--CODEGEN--\":45:61   */\n      returndatasize\n        /* \"--CODEGEN--\":42:43   */\n      0x00\n        /* \"--CODEGEN--\":39:40   */\n      dup1\n        /* \"--CODEGEN--\":24:62   */\n      returndatacopy\n        /* \"--CODEGEN--\":77:93   */\n      returndatasize\n        /* \"--CODEGEN--\":74:75   */\n      0x00\n        /* \"--CODEGEN--\":67:94   */\n      revert\n        /* \"--CODEGEN--\":5:7   */\n    tag_209:\n        /* \"contracts/pair.sol\":3177:3203  IERC20(_token1).decimals() */\n      pop\n      pop\n      pop\n      pop\n      mload(0x40)\n      returndatasize\n        /* \"--CODEGEN--\":13:15   */\n      0x20\n        /* \"--CODEGEN--\":8:11   */\n      dup2\n        /* \"--CODEGEN--\":5:16   */\n      lt\n        /* \"--CODEGEN--\":2:4   */\n      iszero\n      tag_210\n      jumpi\n        /* \"--CODEGEN--\":29:30   */\n      0x00\n        /* \"--CODEGEN--\":26:27   */\n      dup1\n        /* \"--CODEGEN--\":19:31   */\n      revert\n        /* \"--CODEGEN--\":2:4   */\n    tag_210:\n        /* \"contracts/pair.sol\":3177:3203  IERC20(_token1).decimals() */\n      dup2\n      add\n      swap1\n      dup1\n      dup1\n      mload\n      swap1\n      0x20\n      add\n      swap1\n      swap3\n      swap2\n      swap1\n      pop\n      pop\n      pop\n        /* \"contracts/pair.sol\":3172:3204  uint(IERC20(_token1).decimals()) */\n      0xff\n      and\n        /* \"contracts/pair.sol\":3166:3168  10 */\n      0x0a\n        /* \"contracts/pair.sol\":3166:3204  10 ** uint(IERC20(_token1).decimals()) */\n      exp\n        /* \"contracts/pair.sol\":3143:3163  precisionMultiplier1 */\n      0x0a\n        /* \"contracts/pair.sol\":3143:3204  precisionMultiplier1 = 10 ** uint(IERC20(_token1).decimals()) */\n      dup2\n      swap1\n      sstore\n      pop\n        /* \"contracts/pair.sol\":3225:3229  true */\n      0x01\n        /* \"contracts/pair.sol\":3211:3222  initialized */\n      0x07\n      0x14\n        /* \"contracts/pair.sol\":3211:3229  initialized = true */\n      0x0100\n      exp\n      dup2\n      sload\n      dup2\n      0xff\n      mul\n      not\n      and\n      swap1\n      dup4\n      iszero\n      iszero\n      mul\n      or\n      swap1\n      sstore\n      pop\n        /* \"contracts/pair.sol\":2858:3234  function initialize(address _token0, address _token1) external {... */\n      pop\n      pop\n      jump\t// out\n        /* \"contracts/pair.sol\":3347:3987  function setFeePercent(uint16 newToken0FeePercent, uint16 newToken1FeePercent) external lock {... */\n    tag_98:\n        /* \"contracts/pair.sol\":1507:1508  1 */\n      0x01\n        /* \"contracts/pair.sol\":1495:1503  unlocked */\n      sload(0x0d)\n        /* \"contracts/pair.sol\":1495:1508  unlocked == 1 */\n      eq\n        /* \"contracts/pair.sol\":1487:1534  require(unlocked == 1, 'eZKaliburPair: LOCKED') */\n      tag_212\n      jumpi\n      mload(0x40)\n      0x08c379a000000000000000000000000000000000000000000000000000000000\n      dup2\n      mstore\n      0x04\n      add\n      dup1\n      dup1\n      0x20\n      add\n      dup3\n      dup2\n      sub\n      dup3\n      mstore\n      0x15\n      dup2\n      mstore\n      0x20\n      add\n      dup1\n      0x655a4b616c69627572506169723a204c4f434b45440000000000000000000000\n      dup2\n      mstore\n      pop\n      0x20\n      add\n      swap2\n      pop\n      pop\n      mload(0x40)\n      dup1\n      swap2\n      sub\n      swap1\n      revert\n    tag_212:\n        /* \"contracts/pair.sol\":1551:1552  0 */\n      0x00\n        /* \"contracts/pair.sol\":1540:1548  unlocked */\n      0x0d\n        /* \"contracts/pair.sol\":1540:1552  unlocked = 0 */\n      dup2\n      swap1\n      sstore\n      pop\n        /* \"contracts/pair.sol\":3477:3484  factory */\n      0x05\n      0x00\n      swap1\n      sload\n      swap1\n      0x0100\n      exp\n      swap1\n      div\n      0xffffffffffffffffffffffffffffffffffffffff\n      and\n        /* \"contracts/pair.sol\":3468:3501  IFactory(factory).feePercentOwner */\n      0xffffffffffffffffffffffffffffffffffffffff\n      and\n      0x4c217715\n        /* \"contracts/pair.sol\":3468:3503  IFactory(factory).feePercentOwner() */\n      mload(0x40)\n      dup2\n      0xffffffff\n      and\n      0xe0\n      shl\n      dup2\n      mstore\n      0x04\n      add\n      0x20\n      mload(0x40)\n      dup1\n      dup4\n      sub\n      dup2\n      dup7\n      dup1\n      extcodesize\n      iszero\n        /* \"--CODEGEN--\":8:17   */\n      dup1\n        /* \"--CODEGEN--\":5:7   */\n      iszero\n      tag_214\n      jumpi\n        /* \"--CODEGEN--\":30:31   */\n      0x00\n        /* \"--CODEGEN--\":27:28   */\n      dup1\n        /* \"--CODEGEN--\":20:32   */\n      revert\n        /* \"--CODEGEN--\":5:7   */\n    tag_214:\n        /* \"contracts/pair.sol\":3468:3503  IFactory(factory).feePercentOwner() */\n      pop\n      gas\n      staticcall\n      iszero\n        /* \"--CODEGEN--\":8:17   */\n      dup1\n        /* \"--CODEGEN--\":5:7   */\n      iszero\n      tag_215\n      jumpi\n        /* \"--CODEGEN--\":45:61   */\n      returndatasize\n        /* \"--CODEGEN--\":42:43   */\n      0x00\n        /* \"--CODEGEN--\":39:40   */\n      dup1\n        /* \"--CODEGEN--\":24:62   */\n      returndatacopy\n        /* \"--CODEGEN--\":77:93   */\n      returndatasize\n        /* \"--CODEGEN--\":74:75   */\n      0x00\n        /* \"--CODEGEN--\":67:94   */\n      revert\n        /* \"--CODEGEN--\":5:7   */\n    tag_215:\n        /* \"contracts/pair.sol\":3468:3503  IFactory(factory).feePercentOwner() */\n      pop\n      pop\n      pop\n      pop\n      mload(0x40)\n      returndatasize\n        /* \"--CODEGEN--\":13:15   */\n      0x20\n        /* \"--CODEGEN--\":8:11   */\n      dup2\n        /* \"--CODEGEN--\":5:16   */\n      lt\n        /* \"--CODEGEN--\":2:4   */\n      iszero\n      tag_216\n      jumpi\n        /* \"--CODEGEN--\":29:30   */\n      0x00\n        /* \"--CODEGEN--\":26:27   */\n      dup1\n        /* \"--CODEGEN--\":19:31   */\n      revert\n        /* \"--CODEGEN--\":2:4   */\n    tag_216:\n        /* \"contracts/pair.sol\":3468:3503  IFactory(factory).feePercentOwner() */\n      dup2\n      add\n      swap1\n      dup1\n      dup1\n      mload\n      swap1\n      0x20\n      add\n      swap1\n      swap3\n      swap2\n      swap1\n      pop\n      pop\n      pop\n        /* \"contracts/pair.sol\":3454:3503  msg.sender == IFactory(factory).feePercentOwner() */\n      0xffffffffffffffffffffffffffffffffffffffff\n      and\n        /* \"contracts/pair.sol\":3454:3464  msg.sender */\n      caller\n        /* \"contracts/pair.sol\":3454:3503  msg.sender == IFactory(factory).feePercentOwner() */\n      0xffffffffffffffffffffffffffffffffffffffff\n      and\n      eq\n        /* \"contracts/pair.sol\":3446:3552  require(msg.sender == IFactory(factory).feePercentOwner(), \"eZKaliburPair: only factory's feeAmountOwner\") */\n      tag_217\n      jumpi\n      mload(0x40)\n      0x08c379a000000000000000000000000000000000000000000000000000000000\n      dup2\n      mstore\n      0x04\n      add\n      dup1\n      dup1\n      0x20\n      add\n      dup3\n      dup2\n      sub\n      dup3\n      mstore\n      0x2c\n      dup2\n      mstore\n      0x20\n      add\n      dup1\n      data_f80fc17e443115161d9ed24aaf21c6e6102496443806d2822fe65bc11fc7a8d3\n      0x2c\n      swap2\n      codecopy\n      0x40\n      add\n      swap2\n      pop\n      pop\n      mload(0x40)\n      dup1\n      swap2\n      sub\n      swap1\n      revert\n    tag_217:\n        /* \"contracts/pair.sol\":655:659  2000 */\n      0x07d0\n        /* \"contracts/pair.sol\":3566:3585  newToken0FeePercent */\n      dup3\n        /* \"contracts/pair.sol\":3566:3604  newToken0FeePercent <= MAX_FEE_PERCENT */\n      0xffff\n      and\n      gt\n      iszero\n        /* \"contracts/pair.sol\":3566:3646  newToken0FeePercent <= MAX_FEE_PERCENT && newToken1FeePercent <= MAX_FEE_PERCENT */\n      dup1\n      iszero\n      tag_218\n      jumpi\n      pop\n        /* \"contracts/pair.sol\":655:659  2000 */\n      0x07d0\n        /* \"contracts/pair.sol\":3608:3627  newToken1FeePercent */\n      dup2\n        /* \"contracts/pair.sol\":3608:3646  newToken1FeePercent <= MAX_FEE_PERCENT */\n      0xffff\n      and\n      gt\n      iszero\n        /* \"contracts/pair.sol\":3566:3646  newToken0FeePercent <= MAX_FEE_PERCENT && newToken1FeePercent <= MAX_FEE_PERCENT */\n    tag_218:\n        /* \"contracts/pair.sol\":3558:3703  require(newToken0FeePercent <= MAX_FEE_PERCENT && newToken1FeePercent <= MAX_FEE_PERCENT, \"eZKaliburPair: feePercent mustn't exceed the maximum\") */\n      tag_219\n      jumpi\n      mload(0x40)\n      0x08c379a000000000000000000000000000000000000000000000000000000000\n      dup2\n      mstore\n      0x04\n      add\n      dup1\n      dup1\n      0x20\n      add\n      dup3\n      dup2\n      sub\n      dup3\n      mstore\n      0x34\n      dup2\n      mstore\n      0x20\n      add\n      dup1\n      data_2be17c6303e0c10da5ff1eb4b266c473ae5fd600c60b6f9faccee86002ad7d5e\n      0x34\n      swap2\n      codecopy\n      0x40\n      add\n      swap2\n      pop\n      pop\n      mload(0x40)\n      dup1\n      swap2\n      sub\n      swap1\n      revert\n    tag_219:\n        /* \"contracts/pair.sol\":3739:3740  0 */\n      0x00\n        /* \"contracts/pair.sol\":3717:3736  newToken0FeePercent */\n      dup3\n        /* \"contracts/pair.sol\":3717:3740  newToken0FeePercent > 0 */\n      0xffff\n      and\n      gt\n        /* \"contracts/pair.sol\":3717:3767  newToken0FeePercent > 0 && newToken1FeePercent > 0 */\n      dup1\n      iszero\n      tag_220\n      jumpi\n      pop\n        /* \"contracts/pair.sol\":3766:3767  0 */\n      0x00\n        /* \"contracts/pair.sol\":3744:3763  newToken1FeePercent */\n      dup2\n        /* \"contracts/pair.sol\":3744:3767  newToken1FeePercent > 0 */\n      0xffff\n      and\n      gt\n        /* \"contracts/pair.sol\":3717:3767  newToken0FeePercent > 0 && newToken1FeePercent > 0 */\n    tag_220:\n        /* \"contracts/pair.sol\":3709:3824  require(newToken0FeePercent > 0 && newToken1FeePercent > 0, \"eZKaliburPair: feePercent mustn't exceed the minimum\") */\n      tag_221\n      jumpi\n      mload(0x40)\n      0x08c379a000000000000000000000000000000000000000000000000000000000\n      dup2\n      mstore\n      0x04\n      add\n      dup1\n      dup1\n      0x20\n      add\n      dup3\n      dup2\n      sub\n      dup3\n      mstore\n      0x34\n      dup2\n      mstore\n      0x20\n      add\n      dup1\n      data_d1bf768db97cbb37158f2706c5b1b11ef80704d9d42c88986d88c55d10379282\n      0x34\n      swap2\n      codecopy\n      0x40\n      add\n      swap2\n      pop\n      pop\n      mload(0x40)\n      dup1\n      swap2\n      sub\n      swap1\n      revert\n    tag_221:\n        /* \"contracts/pair.sol\":3849:3868  newToken0FeePercent */\n      dup2\n        /* \"contracts/pair.sol\":3830:3846  token0FeePercent */\n      0x08\n      0x1c\n        /* \"contracts/pair.sol\":3830:3868  token0FeePercent = newToken0FeePercent */\n      0x0100\n      exp\n      dup2\n      sload\n      dup2\n      0xffff\n      mul\n      not\n      and\n      swap1\n      dup4\n      0xffff\n      and\n      mul\n      or\n      swap1\n      sstore\n      pop\n        /* \"contracts/pair.sol\":3893:3912  newToken1FeePercent */\n      dup1\n        /* \"contracts/pair.sol\":3874:3890  token1FeePercent */\n      0x08\n      0x1e\n        /* \"contracts/pair.sol\":3874:3912  token1FeePercent = newToken1FeePercent */\n      0x0100\n      exp\n      dup2\n      sload\n      dup2\n      0xffff\n      mul\n      not\n      and\n      swap1\n      dup4\n      0xffff\n      and\n      mul\n      or\n      swap1\n      sstore\n      pop\n        /* \"contracts/pair.sol\":3923:3982  FeePercentUpdated(newToken0FeePercent, newToken1FeePercent) */\n      0xa4877b8ecb5a00ba277e4bceeeb187a669e7113649774dfbea05c259ce27f17b\n        /* \"contracts/pair.sol\":3941:3960  newToken0FeePercent */\n      dup3\n        /* \"contracts/pair.sol\":3962:3981  newToken1FeePercent */\n      dup3\n        /* \"contracts/pair.sol\":3923:3982  FeePercentUpdated(newToken0FeePercent, newToken1FeePercent) */\n      mload(0x40)\n      dup1\n      dup4\n      0xffff\n      and\n      0xffff\n      and\n      dup2\n      mstore\n      0x20\n      add\n      dup3\n      0xffff\n      and\n      0xffff\n      and\n      dup2\n      mstore\n      0x20\n      add\n      swap3\n      pop\n      pop\n      pop\n      mload(0x40)\n      dup1\n      swap2\n      sub\n      swap1\n      log1\n        /* \"contracts/pair.sol\":1576:1577  1 */\n      0x01\n        /* \"contracts/pair.sol\":1565:1573  unlocked */\n      0x0d\n        /* \"contracts/pair.sol\":1565:1577  unlocked = 1 */\n      dup2\n      swap1\n      sstore\n      pop\n        /* \"contracts/pair.sol\":3347:3987  function setFeePercent(uint16 newToken0FeePercent, uint16 newToken1FeePercent) external lock {... */\n      pop\n      pop\n      jump\t// out\n        /* \"contracts/pair.sol\":860:896  uint16 public token0FeePercent = 300 */\n    tag_100:\n      0x08\n      0x1c\n      swap1\n      sload\n      swap1\n      0x0100\n      exp\n      swap1\n      div\n      0xffff\n      and\n      dup2\n      jump\t// out\n        /* \"contracts/pair.sol\":616:659  uint public constant MAX_FEE_PERCENT = 2000 */\n    tag_102:\n        /* \"contracts/pair.sol\":655:659  2000 */\n      0x07d0\n        /* \"contracts/pair.sol\":616:659  uint public constant MAX_FEE_PERCENT = 2000 */\n      dup2\n      jump\t// out\n        /* \"contracts/pair.sol\":6298:7445  function mint(address to) external lock returns (uint liquidity) {... */\n    tag_105:\n        /* \"contracts/pair.sol\":6347:6361  uint liquidity */\n      0x00\n        /* \"contracts/pair.sol\":1507:1508  1 */\n      0x01\n        /* \"contracts/pair.sol\":1495:1503  unlocked */\n      sload(0x0d)\n        /* \"contracts/pair.sol\":1495:1508  unlocked == 1 */\n      eq\n        /* \"contracts/pair.sol\":1487:1534  require(unlocked == 1, 'eZKaliburPair: LOCKED') */\n      tag_223\n      jumpi\n      mload(0x40)\n      0x08c379a000000000000000000000000000000000000000000000000000000000\n      dup2\n      mstore\n      0x04\n      add\n      dup1\n      dup1\n      0x20\n      add\n      dup3\n      dup2\n      sub\n      dup3\n      mstore\n      0x15\n      dup2\n      mstore\n      0x20\n      add\n      dup1\n      0x655a4b616c69627572506169723a204c4f434b45440000000000000000000000\n      dup2\n      mstore\n      pop\n      0x20\n      add\n      swap2\n      pop\n      pop\n      mload(0x40)\n      dup1\n      swap2\n      sub\n      swap1\n      revert\n    tag_223:\n        /* \"contracts/pair.sol\":1551:1552  0 */\n      0x00\n        /* \"contracts/pair.sol\":1540:1548  unlocked */\n      0x0d\n        /* \"contracts/pair.sol\":1540:1552  unlocked = 0 */\n      dup2\n      swap1\n      sstore\n      pop\n        /* \"contracts/pair.sol\":6370:6387  uint112 _reserve0 */\n      0x00\n        /* \"contracts/pair.sol\":6389:6406  uint112 _reserve1 */\n      dup1\n        /* \"contracts/pair.sol\":6412:6425  getReserves() */\n      tag_225\n        /* \"contracts/pair.sol\":6412:6423  getReserves */\n      tag_63\n        /* \"contracts/pair.sol\":6412:6425  getReserves() */\n      jump\t// in\n    tag_225:\n        /* \"contracts/pair.sol\":6369:6425  (uint112 _reserve0, uint112 _reserve1,,) = getReserves() */\n      pop\n      pop\n      swap2\n      pop\n      swap2\n      pop\n        /* \"contracts/pair.sol\":6450:6463  uint balance0 */\n      0x00\n        /* \"contracts/pair.sol\":6473:6479  token0 */\n      0x06\n      0x00\n      swap1\n      sload\n      swap1\n      0x0100\n      exp\n      swap1\n      div\n      0xffffffffffffffffffffffffffffffffffffffff\n      and\n        /* \"contracts/pair.sol\":6466:6490  IERC20(token0).balanceOf */\n      0xffffffffffffffffffffffffffffffffffffffff\n      and\n      0x70a08231\n        /* \"contracts/pair.sol\":6499:6503  this */\n      address\n        /* \"contracts/pair.sol\":6466:6505  IERC20(token0).balanceOf(address(this)) */\n      mload(0x40)\n      dup3\n      0xffffffff\n      and\n      0xe0\n      shl\n      dup2\n      mstore\n      0x04\n      add\n      dup1\n      dup3\n      0xffffffffffffffffffffffffffffffffffffffff\n      and\n      0xffffffffffffffffffffffffffffffffffffffff\n      and\n      dup2\n      mstore\n      0x20\n      add\n      swap2\n      pop\n      pop\n      0x20\n      mload(0x40)\n      dup1\n      dup4\n      sub\n      dup2\n      dup7\n      dup1\n      extcodesize\n      iszero\n        /* \"--CODEGEN--\":8:17   */\n      dup1\n        /* \"--CODEGEN--\":5:7   */\n      iszero\n      tag_226\n      jumpi\n        /* \"--CODEGEN--\":30:31   */\n      0x00\n        /* \"--CODEGEN--\":27:28   */\n      dup1\n        /* \"--CODEGEN--\":20:32   */\n      revert\n        /* \"--CODEGEN--\":5:7   */\n    tag_226:\n        /* \"contracts/pair.sol\":6466:6505  IERC20(token0).balanceOf(address(this)) */\n      pop\n      gas\n      staticcall\n      iszero\n        /* \"--CODEGEN--\":8:17   */\n      dup1\n        /* \"--CODEGEN--\":5:7   */\n      iszero\n      tag_227\n      jumpi\n        /* \"--CODEGEN--\":45:61   */\n      returndatasize\n        /* \"--CODEGEN--\":42:43   */\n      0x00\n        /* \"--CODEGEN--\":39:40   */\n      dup1\n        /* \"--CODEGEN--\":24:62   */\n      returndatacopy\n        /* \"--CODEGEN--\":77:93   */\n      returndatasize\n        /* \"--CODEGEN--\":74:75   */\n      0x00\n        /* \"--CODEGEN--\":67:94   */\n      revert\n        /* \"--CODEGEN--\":5:7   */\n    tag_227:\n        /* \"contracts/pair.sol\":6466:6505  IERC20(token0).balanceOf(address(this)) */\n      pop\n      pop\n      pop\n      pop\n      mload(0x40)\n      returndatasize\n        /* \"--CODEGEN--\":13:15   */\n      0x20\n        /* \"--CODEGEN--\":8:11   */\n      dup2\n        /* \"--CODEGEN--\":5:16   */\n      lt\n        /* \"--CODEGEN--\":2:4   */\n      iszero\n      tag_228\n      jumpi\n        /* \"--CODEGEN--\":29:30   */\n      0x00\n        /* \"--CODEGEN--\":26:27   */\n      dup1\n        /* \"--CODEGEN--\":19:31   */\n      revert\n        /* \"--CODEGEN--\":2:4   */\n    tag_228:\n        /* \"contracts/pair.sol\":6466:6505  IERC20(token0).balanceOf(address(this)) */\n      dup2\n      add\n      swap1\n      dup1\n      dup1\n      mload\n      swap1\n      0x20\n      add\n      swap1\n      swap3\n      swap2\n      swap1\n      pop\n      pop\n      pop\n        /* \"contracts/pair.sol\":6450:6505  uint balance0 = IERC20(token0).balanceOf(address(this)) */\n      swap1\n      pop\n        /* \"contracts/pair.sol\":6511:6524  uint balance1 */\n      0x00\n        /* \"contracts/pair.sol\":6534:6540  token1 */\n      0x07\n      0x00\n      swap1\n      sload\n      swap1\n      0x0100\n      exp\n      swap1\n      div\n      0xffffffffffffffffffffffffffffffffffffffff\n      and\n        /* \"contracts/pair.sol\":6527:6551  IERC20(token1).balanceOf */\n      0xffffffffffffffffffffffffffffffffffffffff\n      and\n      0x70a08231\n        /* \"contracts/pair.sol\":6560:6564  this */\n      address\n        /* \"contracts/pair.sol\":6527:6566  IERC20(token1).balanceOf(address(this)) */\n      mload(0x40)\n      dup3\n      0xffffffff\n      and\n      0xe0\n      shl\n      dup2\n      mstore\n      0x04\n      add\n      dup1\n      dup3\n      0xffffffffffffffffffffffffffffffffffffffff\n      and\n      0xffffffffffffffffffffffffffffffffffffffff\n      and\n      dup2\n      mstore\n      0x20\n      add\n      swap2\n      pop\n      pop\n      0x20\n      mload(0x40)\n      dup1\n      dup4\n      sub\n      dup2\n      dup7\n      dup1\n      extcodesize\n      iszero\n        /* \"--CODEGEN--\":8:17   */\n      dup1\n        /* \"--CODEGEN--\":5:7   */\n      iszero\n      tag_229\n      jumpi\n        /* \"--CODEGEN--\":30:31   */\n      0x00\n        /* \"--CODEGEN--\":27:28   */\n      dup1\n        /* \"--CODEGEN--\":20:32   */\n      revert\n        /* \"--CODEGEN--\":5:7   */\n    tag_229:\n        /* \"contracts/pair.sol\":6527:6566  IERC20(token1).balanceOf(address(this)) */\n      pop\n      gas\n      staticcall\n      iszero\n        /* \"--CODEGEN--\":8:17   */\n      dup1\n        /* \"--CODEGEN--\":5:7   */\n      iszero\n      tag_230\n      jumpi\n        /* \"--CODEGEN--\":45:61   */\n      returndatasize\n        /* \"--CODEGEN--\":42:43   */\n      0x00\n        /* \"--CODEGEN--\":39:40   */\n      dup1\n        /* \"--CODEGEN--\":24:62   */\n      returndatacopy\n        /* \"--CODEGEN--\":77:93   */\n      returndatasize\n        /* \"--CODEGEN--\":74:75   */\n      0x00\n        /* \"--CODEGEN--\":67:94   */\n      revert\n        /* \"--CODEGEN--\":5:7   */\n    tag_230:\n        /* \"contracts/pair.sol\":6527:6566  IERC20(token1).balanceOf(address(this)) */\n      pop\n      pop\n      pop\n      pop\n      mload(0x40)\n      returndatasize\n        /* \"--CODEGEN--\":13:15   */\n      0x20\n        /* \"--CODEGEN--\":8:11   */\n      dup2\n        /* \"--CODEGEN--\":5:16   */\n      lt\n        /* \"--CODEGEN--\":2:4   */\n      iszero\n      tag_231\n      jumpi\n        /* \"--CODEGEN--\":29:30   */\n      0x00\n        /* \"--CODEGEN--\":26:27   */\n      dup1\n        /* \"--CODEGEN--\":19:31   */\n      revert\n        /* \"--CODEGEN--\":2:4   */\n    tag_231:\n        /* \"contracts/pair.sol\":6527:6566  IERC20(token1).balanceOf(address(this)) */\n      dup2\n      add\n      swap1\n      dup1\n      dup1\n      mload\n      swap1\n      0x20\n      add\n      swap1\n      swap3\n      swap2\n      swap1\n      pop\n      pop\n      pop\n        /* \"contracts/pair.sol\":6511:6566  uint balance1 = IERC20(token1).balanceOf(address(this)) */\n      swap1\n      pop\n        /* \"contracts/pair.sol\":6572:6584  uint amount0 */\n      0x00\n        /* \"contracts/pair.sol\":6587:6610  balance0.sub(_reserve0) */\n      tag_232\n        /* \"contracts/pair.sol\":6600:6609  _reserve0 */\n      dup6\n        /* \"contracts/pair.sol\":6587:6610  balance0.sub(_reserve0) */\n      0xffffffffffffffffffffffffffff\n      and\n        /* \"contracts/pair.sol\":6587:6595  balance0 */\n      dup5\n        /* \"contracts/pair.sol\":6587:6599  balance0.sub */\n      tag_173\n      swap1\n        /* \"contracts/pair.sol\":6587:6610  balance0.sub(_reserve0) */\n      swap2\n      swap1\n      0xffffffff\n      and\n      jump\t// in\n    tag_232:\n        /* \"contracts/pair.sol\":6572:6610  uint amount0 = balance0.sub(_reserve0) */\n      swap1\n      pop\n        /* \"contracts/pair.sol\":6616:6628  uint amount1 */\n      0x00\n        /* \"contracts/pair.sol\":6631:6654  balance1.sub(_reserve1) */\n      tag_233\n        /* \"contracts/pair.sol\":6644:6653  _reserve1 */\n      dup6\n        /* \"contracts/pair.sol\":6631:6654  balance1.sub(_reserve1) */\n      0xffffffffffffffffffffffffffff\n      and\n        /* \"contracts/pair.sol\":6631:6639  balance1 */\n      dup5\n        /* \"contracts/pair.sol\":6631:6643  balance1.sub */\n      tag_173\n      swap1\n        /* \"contracts/pair.sol\":6631:6654  balance1.sub(_reserve1) */\n      swap2\n      swap1\n      0xffffffff\n      and\n      jump\t// in\n    tag_233:\n        /* \"contracts/pair.sol\":6616:6654  uint amount1 = balance1.sub(_reserve1) */\n      swap1\n      pop\n        /* \"contracts/pair.sol\":6661:6671  bool feeOn */\n      0x00\n        /* \"contracts/pair.sol\":6674:6704  _mintFee(_reserve0, _reserve1) */\n      tag_234\n        /* \"contracts/pair.sol\":6683:6692  _reserve0 */\n      dup8\n        /* \"contracts/pair.sol\":6694:6703  _reserve1 */\n      dup8\n        /* \"contracts/pair.sol\":6674:6682  _mintFee */\n      tag_188\n        /* \"contracts/pair.sol\":6674:6704  _mintFee(_reserve0, _reserve1) */\n      jump\t// in\n    tag_234:\n        /* \"contracts/pair.sol\":6661:6704  bool feeOn = _mintFee(_reserve0, _reserve1) */\n      swap1\n      pop\n        /* \"contracts/pair.sol\":6710:6727  uint _totalSupply */\n      0x00\n        /* \"contracts/pair.sol\":6730:6741  totalSupply */\n      dup1\n      sload\n        /* \"contracts/pair.sol\":6710:6741  uint _totalSupply = totalSupply */\n      swap1\n      pop\n        /* \"contracts/pair.sol\":6849:6850  0 */\n      0x00\n        /* \"contracts/pair.sol\":6833:6845  _totalSupply */\n      dup2\n        /* \"contracts/pair.sol\":6833:6850  _totalSupply == 0 */\n      eq\n        /* \"contracts/pair.sol\":6829:7157  if (_totalSupply == 0) {... */\n      iszero\n      tag_235\n      jumpi\n        /* \"contracts/pair.sol\":6872:6926  Math.sqrt(amount0.mul(amount1)).sub(MINIMUM_LIQUIDITY) */\n      tag_236\n        /* \"contracts/pair.sol\":358:365  10 ** 3 */\n      0x03e8\n        /* \"contracts/pair.sol\":6872:6903  Math.sqrt(amount0.mul(amount1)) */\n      tag_237\n        /* \"contracts/pair.sol\":6882:6902  amount0.mul(amount1) */\n      tag_238\n        /* \"contracts/pair.sol\":6894:6901  amount1 */\n      dup7\n        /* \"contracts/pair.sol\":6882:6889  amount0 */\n      dup9\n        /* \"contracts/pair.sol\":6882:6893  amount0.mul */\n      tag_239\n      swap1\n        /* \"contracts/pair.sol\":6882:6902  amount0.mul(amount1) */\n      swap2\n      swap1\n      0xffffffff\n      and\n      jump\t// in\n    tag_238:\n        /* \"contracts/pair.sol\":6872:6881  Math.sqrt */\n      tag_240\n        /* \"contracts/pair.sol\":6872:6903  Math.sqrt(amount0.mul(amount1)) */\n      jump\t// in\n    tag_237:\n        /* \"contracts/pair.sol\":6872:6907  Math.sqrt(amount0.mul(amount1)).sub */\n      tag_173\n      swap1\n        /* \"contracts/pair.sol\":6872:6926  Math.sqrt(amount0.mul(amount1)).sub(MINIMUM_LIQUIDITY) */\n      swap2\n      swap1\n      0xffffffff\n      and\n      jump\t// in\n    tag_236:\n        /* \"contracts/pair.sol\":6860:6926  liquidity = Math.sqrt(amount0.mul(amount1)).sub(MINIMUM_LIQUIDITY) */\n      swap9\n      pop\n        /* \"contracts/pair.sol\":6934:6970  _mint(address(0), MINIMUM_LIQUIDITY) */\n      tag_241\n        /* \"contracts/pair.sol\":6948:6949  0 */\n      0x00\n        /* \"contracts/pair.sol\":358:365  10 ** 3 */\n      0x03e8\n        /* \"contracts/pair.sol\":6934:6939  _mint */\n      tag_242\n        /* \"contracts/pair.sol\":6934:6970  _mint(address(0), MINIMUM_LIQUIDITY) */\n      jump\t// in\n    tag_241:\n        /* \"contracts/pair.sol\":6829:7157  if (_totalSupply == 0) {... */\n      jump(tag_243)\n    tag_235:\n        /* \"contracts/pair.sol\":7064:7150  Math.min(amount0.mul(_totalSupply) / _reserve0, amount1.mul(_totalSupply) / _reserve1) */\n      tag_244\n        /* \"contracts/pair.sol\":7101:7110  _reserve0 */\n      dup9\n        /* \"contracts/pair.sol\":7073:7110  amount0.mul(_totalSupply) / _reserve0 */\n      0xffffffffffffffffffffffffffff\n      and\n        /* \"contracts/pair.sol\":7073:7098  amount0.mul(_totalSupply) */\n      tag_245\n        /* \"contracts/pair.sol\":7085:7097  _totalSupply */\n      dup4\n        /* \"contracts/pair.sol\":7073:7080  amount0 */\n      dup8\n        /* \"contracts/pair.sol\":7073:7084  amount0.mul */\n      tag_239\n      swap1\n        /* \"contracts/pair.sol\":7073:7098  amount0.mul(_totalSupply) */\n      swap2\n      swap1\n      0xffffffff\n      and\n      jump\t// in\n    tag_245:\n        /* \"contracts/pair.sol\":7073:7110  amount0.mul(_totalSupply) / _reserve0 */\n      dup2\n      tag_246\n      jumpi\n      invalid\n    tag_246:\n      div\n        /* \"contracts/pair.sol\":7140:7149  _reserve1 */\n      dup9\n        /* \"contracts/pair.sol\":7112:7149  amount1.mul(_totalSupply) / _reserve1 */\n      0xffffffffffffffffffffffffffff\n      and\n        /* \"contracts/pair.sol\":7112:7137  amount1.mul(_totalSupply) */\n      tag_247\n        /* \"contracts/pair.sol\":7124:7136  _totalSupply */\n      dup5\n        /* \"contracts/pair.sol\":7112:7119  amount1 */\n      dup8\n        /* \"contracts/pair.sol\":7112:7123  amount1.mul */\n      tag_239\n      swap1\n        /* \"contracts/pair.sol\":7112:7137  amount1.mul(_totalSupply) */\n      swap2\n      swap1\n      0xffffffff\n      and\n      jump\t// in\n    tag_247:\n        /* \"contracts/pair.sol\":7112:7149  amount1.mul(_totalSupply) / _reserve1 */\n      dup2\n      tag_248\n      jumpi\n      invalid\n    tag_248:\n      div\n        /* \"contracts/pair.sol\":7064:7072  Math.min */\n      tag_249\n        /* \"contracts/pair.sol\":7064:7150  Math.min(amount0.mul(_totalSupply) / _reserve0, amount1.mul(_totalSupply) / _reserve1) */\n      jump\t// in\n    tag_244:\n        /* \"contracts/pair.sol\":7052:7150  liquidity = Math.min(amount0.mul(_totalSupply) / _reserve0, amount1.mul(_totalSupply) / _reserve1) */\n      swap9\n      pop\n        /* \"contracts/pair.sol\":6829:7157  if (_totalSupply == 0) {... */\n    tag_243:\n        /* \"contracts/pair.sol\":7182:7183  0 */\n      0x00\n        /* \"contracts/pair.sol\":7170:7179  liquidity */\n      dup10\n        /* \"contracts/pair.sol\":7170:7183  liquidity > 0 */\n      gt\n        /* \"contracts/pair.sol\":7162:7232  require(liquidity > 0, 'eZKaliburPair: INSUFFICIENT_LIQUIDITY_MINTED') */\n      tag_250\n      jumpi\n      mload(0x40)\n      0x08c379a000000000000000000000000000000000000000000000000000000000\n      dup2\n      mstore\n      0x04\n      add\n      dup1\n      dup1\n      0x20\n      add\n      dup3\n      dup2\n      sub\n      dup3\n      mstore\n      0x2c\n      dup2\n      mstore\n      0x20\n      add\n      dup1\n      data_8ab36b58f19f5658e716652a965572c61ec94ca2b0078cc5663963339a0ef78f\n      0x2c\n      swap2\n      codecopy\n      0x40\n      add\n      swap2\n      pop\n      pop\n      mload(0x40)\n      dup1\n      swap2\n      sub\n      swap1\n      revert\n    tag_250:\n        /* \"contracts/pair.sol\":7238:7258  _mint(to, liquidity) */\n      tag_251\n        /* \"contracts/pair.sol\":7244:7246  to */\n      dup11\n        /* \"contracts/pair.sol\":7248:7257  liquidity */\n      dup11\n        /* \"contracts/pair.sol\":7238:7243  _mint */\n      tag_242\n        /* \"contracts/pair.sol\":7238:7258  _mint(to, liquidity) */\n      jump\t// in\n    tag_251:\n        /* \"contracts/pair.sol\":7265:7292  _update(balance0, balance1) */\n      tag_252\n        /* \"contracts/pair.sol\":7273:7281  balance0 */\n      dup7\n        /* \"contracts/pair.sol\":7283:7291  balance1 */\n      dup7\n        /* \"contracts/pair.sol\":7265:7272  _update */\n      tag_253\n        /* \"contracts/pair.sol\":7265:7292  _update(balance0, balance1) */\n      jump\t// in\n    tag_252:\n        /* \"contracts/pair.sol\":7302:7307  feeOn */\n      dup2\n        /* \"contracts/pair.sol\":7298:7351  if (feeOn) kLast = _k(uint(reserve0), uint(reserve1)) */\n      iszero\n      tag_254\n      jumpi\n        /* \"contracts/pair.sol\":7317:7351  _k(uint(reserve0), uint(reserve1)) */\n      tag_255\n        /* \"contracts/pair.sol\":7325:7333  reserve0 */\n      0x08\n      0x00\n      swap1\n      sload\n      swap1\n      0x0100\n      exp\n      swap1\n      div\n      0xffffffffffffffffffffffffffff\n      and\n        /* \"contracts/pair.sol\":7320:7334  uint(reserve0) */\n      0xffffffffffffffffffffffffffff\n      and\n        /* \"contracts/pair.sol\":7341:7349  reserve1 */\n      0x08\n      0x0e\n      swap1\n      sload\n      swap1\n      0x0100\n      exp\n      swap1\n      div\n      0xffffffffffffffffffffffffffff\n      and\n        /* \"contracts/pair.sol\":7336:7350  uint(reserve1) */\n      0xffffffffffffffffffffffffffff\n      and\n        /* \"contracts/pair.sol\":7317:7319  _k */\n      tag_193\n        /* \"contracts/pair.sol\":7317:7351  _k(uint(reserve0), uint(reserve1)) */\n      jump\t// in\n    tag_255:\n        /* \"contracts/pair.sol\":7309:7314  kLast */\n      0x0b\n        /* \"contracts/pair.sol\":7309:7351  kLast = _k(uint(reserve0), uint(reserve1)) */\n      dup2\n      swap1\n      sstore\n      pop\n        /* \"contracts/pair.sol\":7298:7351  if (feeOn) kLast = _k(uint(reserve0), uint(reserve1)) */\n    tag_254:\n        /* \"contracts/pair.sol\":7411:7421  msg.sender */\n      caller\n        /* \"contracts/pair.sol\":7406:7440  Mint(msg.sender, amount0, amount1) */\n      0xffffffffffffffffffffffffffffffffffffffff\n      and\n      0x4c209b5fc8ad50758f13e2e1088ba56a560dff690a1c6fef26394f4c03821c4f\n        /* \"contracts/pair.sol\":7423:7430  amount0 */\n      dup6\n        /* \"contracts/pair.sol\":7432:7439  amount1 */\n      dup6\n        /* \"contracts/pair.sol\":7406:7440  Mint(msg.sender, amount0, amount1) */\n      mload(0x40)\n      dup1\n      dup4\n      dup2\n      mstore\n      0x20\n      add\n      dup3\n      dup2\n      mstore\n      0x20\n      add\n      swap3\n      pop\n      pop\n      pop\n      mload(0x40)\n      dup1\n      swap2\n      sub\n      swap1\n      log2\n        /* \"contracts/pair.sol\":1558:1559  _ */\n      pop\n      pop\n      pop\n      pop\n      pop\n      pop\n      pop\n      pop\n        /* \"contracts/pair.sol\":1576:1577  1 */\n      0x01\n        /* \"contracts/pair.sol\":1565:1573  unlocked */\n      0x0d\n        /* \"contracts/pair.sol\":1565:1577  unlocked = 1 */\n      dup2\n      swap1\n      sstore\n      pop\n        /* \"contracts/pair.sol\":6298:7445  function mint(address to) external lock returns (uint liquidity) {... */\n      swap2\n      swap1\n      pop\n      jump\t// out\n        /* \"contracts/pair.sol\":9633:10034  function swap(uint amount0Out, uint amount1Out, address to, bytes calldata data, address referrer) external {... */\n    tag_111:\n        /* \"contracts/pair.sol\":9747:9775  TokensData memory tokensData */\n      tag_257\n      tag_163\n      jump\t// in\n    tag_257:\n        /* \"contracts/pair.sol\":9778:9986  TokensData({... */\n      mload(0x40)\n      dup1\n      0x0100\n      add\n      0x40\n      mstore\n      dup1\n        /* \"contracts/pair.sol\":9805:9811  token0 */\n      0x06\n      0x00\n      swap1\n      sload\n      swap1\n      0x0100\n      exp\n      swap1\n      div\n      0xffffffffffffffffffffffffffffffffffffffff\n      and\n        /* \"contracts/pair.sol\":9778:9986  TokensData({... */\n      0xffffffffffffffffffffffffffffffffffffffff\n      and\n      dup2\n      mstore\n      0x20\n      add\n        /* \"contracts/pair.sol\":9827:9833  token1 */\n      0x07\n      0x00\n      swap1\n      sload\n      swap1\n      0x0100\n      exp\n      swap1\n      div\n      0xffffffffffffffffffffffffffffffffffffffff\n      and\n        /* \"contracts/pair.sol\":9778:9986  TokensData({... */\n      0xffffffffffffffffffffffffffffffffffffffff\n      and\n      dup2\n      mstore\n      0x20\n      add\n        /* \"contracts/pair.sol\":9853:9863  amount0Out */\n      dup9\n        /* \"contracts/pair.sol\":9778:9986  TokensData({... */\n      dup2\n      mstore\n      0x20\n      add\n        /* \"contracts/pair.sol\":9883:9893  amount1Out */\n      dup8\n        /* \"contracts/pair.sol\":9778:9986  TokensData({... */\n      dup2\n      mstore\n      0x20\n      add\n        /* \"contracts/pair.sol\":9911:9912  0 */\n      0x00\n        /* \"contracts/pair.sol\":9778:9986  TokensData({... */\n      dup2\n      mstore\n      0x20\n      add\n        /* \"contracts/pair.sol\":9930:9931  0 */\n      0x00\n        /* \"contracts/pair.sol\":9778:9986  TokensData({... */\n      dup2\n      mstore\n      0x20\n      add\n        /* \"contracts/pair.sol\":9954:9955  0 */\n      0x00\n        /* \"contracts/pair.sol\":9778:9986  TokensData({... */\n      dup2\n      mstore\n      0x20\n      add\n        /* \"contracts/pair.sol\":9978:9979  0 */\n      0x00\n        /* \"contracts/pair.sol\":9778:9986  TokensData({... */\n      dup2\n      mstore\n      pop\n        /* \"contracts/pair.sol\":9747:9986  TokensData memory tokensData = TokensData({... */\n      swap1\n      pop\n        /* \"contracts/pair.sol\":9992:10029  _swap(tokensData, to, data, referrer) */\n      tag_258\n        /* \"contracts/pair.sol\":9998:10008  tokensData */\n      dup2\n        /* \"contracts/pair.sol\":10010:10012  to */\n      dup7\n        /* \"contracts/pair.sol\":10014:10018  data */\n      dup7\n      dup7\n        /* \"contracts/pair.sol\":9992:10029  _swap(tokensData, to, data, referrer) */\n      dup1\n      dup1\n      0x1f\n      add\n      0x20\n      dup1\n      swap2\n      div\n      mul\n      0x20\n      add\n      mload(0x40)\n      swap1\n      dup2\n      add\n      0x40\n      mstore\n      dup1\n      swap4\n      swap3\n      swap2\n      swap1\n      dup2\n      dup2\n      mstore\n      0x20\n      add\n      dup4\n      dup4\n        /* \"--CODEGEN--\":30:33   */\n      dup1\n        /* \"--CODEGEN--\":22:28   */\n      dup3\n        /* \"--CODEGEN--\":14:20   */\n      dup5\n        /* \"--CODEGEN--\":1:34   */\n      calldatacopy\n        /* \"--CODEGEN--\":99:100   */\n      0x00\n        /* \"--CODEGEN--\":93:96   */\n      dup2\n        /* \"--CODEGEN--\":85:91   */\n      dup5\n        /* \"--CODEGEN--\":81:97   */\n      add\n        /* \"--CODEGEN--\":74:101   */\n      mstore\n        /* \"--CODEGEN--\":137:141   */\n      0x1f\n        /* \"--CODEGEN--\":133:142   */\n      not\n        /* \"--CODEGEN--\":126:130   */\n      0x1f\n        /* \"--CODEGEN--\":121:124   */\n      dup3\n        /* \"--CODEGEN--\":117:131   */\n      add\n        /* \"--CODEGEN--\":113:143   */\n      and\n        /* \"--CODEGEN--\":106:143   */\n      swap1\n      pop\n        /* \"--CODEGEN--\":169:172   */\n      dup1\n        /* \"--CODEGEN--\":161:167   */\n      dup4\n        /* \"--CODEGEN--\":157:173   */\n      add\n        /* \"--CODEGEN--\":147:173   */\n      swap3\n      pop\n        /* \"contracts/pair.sol\":9992:10029  _swap(tokensData, to, data, referrer) */\n      pop\n      pop\n      pop\n      pop\n      pop\n      pop\n        /* \"contracts/pair.sol\":10020:10028  referrer */\n      dup6\n        /* \"contracts/pair.sol\":9992:9997  _swap */\n      tag_165\n        /* \"contracts/pair.sol\":9992:10029  _swap(tokensData, to, data, referrer) */\n      jump\t// in\n    tag_258:\n        /* \"contracts/pair.sol\":9633:10034  function swap(uint amount0Out, uint amount1Out, address to, bytes calldata data, address referrer) external {... */\n      pop\n      pop\n      pop\n      pop\n      pop\n      pop\n      pop\n      jump\t// out\n        /* \"contracts/UniswapV2ERC20.sol\":351:392  mapping(address => uint) public balanceOf */\n    tag_114:\n      mstore(0x20, 0x01)\n      dup1\n      0x00\n      mstore\n      keccak256(0x00, 0x40)\n      0x00\n      swap2\n      pop\n      swap1\n      pop\n      sload\n      dup2\n      jump\t// out\n        /* \"contracts/pair.sol\":1164:1181  uint public kLast */\n    tag_116:\n      sload(0x0b)\n      dup2\n      jump\t// out\n        /* \"contracts/UniswapV2ERC20.sol\":721:759  mapping(address => uint) public nonces */\n    tag_119:\n      mstore(0x20, 0x04)\n      dup1\n      0x00\n      mstore\n      keccak256(0x00, 0x40)\n      0x00\n      swap2\n      pop\n      swap1\n      pop\n      sload\n      dup2\n      jump\t// out\n        /* \"contracts/pair.sol\":7550:8843  function burn(address to) external lock returns (uint amount0, uint amount1) {... */\n    tag_122:\n        /* \"contracts/pair.sol\":7599:7611  uint amount0 */\n      0x00\n        /* \"contracts/pair.sol\":7613:7625  uint amount1 */\n      dup1\n        /* \"contracts/pair.sol\":1507:1508  1 */\n      0x01\n        /* \"contracts/pair.sol\":1495:1503  unlocked */\n      sload(0x0d)\n        /* \"contracts/pair.sol\":1495:1508  unlocked == 1 */\n      eq\n        /* \"contracts/pair.sol\":1487:1534  require(unlocked == 1, 'eZKaliburPair: LOCKED') */\n      tag_260\n      jumpi\n      mload(0x40)\n      0x08c379a000000000000000000000000000000000000000000000000000000000\n      dup2\n      mstore\n      0x04\n      add\n      dup1\n      dup1\n      0x20\n      add\n      dup3\n      dup2\n      sub\n      dup3\n      mstore\n      0x15\n      dup2\n      mstore\n      0x20\n      add\n      dup1\n      0x655a4b616c69627572506169723a204c4f434b45440000000000000000000000\n      dup2\n      mstore\n      pop\n      0x20\n      add\n      swap2\n      pop\n      pop\n      mload(0x40)\n      dup1\n      swap2\n      sub\n      swap1\n      revert\n    tag_260:\n        /* \"contracts/pair.sol\":1551:1552  0 */\n      0x00\n        /* \"contracts/pair.sol\":1540:1548  unlocked */\n      0x0d\n        /* \"contracts/pair.sol\":1540:1552  unlocked = 0 */\n      dup2\n      swap1\n      sstore\n      pop\n        /* \"contracts/pair.sol\":7634:7651  uint112 _reserve0 */\n      0x00\n        /* \"contracts/pair.sol\":7653:7670  uint112 _reserve1 */\n      dup1\n        /* \"contracts/pair.sol\":7676:7689  getReserves() */\n      tag_262\n        /* \"contracts/pair.sol\":7676:7687  getReserves */\n      tag_63\n        /* \"contracts/pair.sol\":7676:7689  getReserves() */\n      jump\t// in\n    tag_262:\n        /* \"contracts/pair.sol\":7633:7689  (uint112 _reserve0, uint112 _reserve1,,) = getReserves() */\n      pop\n      pop\n      swap2\n      pop\n      swap2\n      pop\n        /* \"contracts/pair.sol\":7710:7725  address _token0 */\n      0x00\n        /* \"contracts/pair.sol\":7728:7734  token0 */\n      0x06\n      0x00\n      swap1\n      sload\n      swap1\n      0x0100\n      exp\n      swap1\n      div\n      0xffffffffffffffffffffffffffffffffffffffff\n      and\n        /* \"contracts/pair.sol\":7710:7734  address _token0 = token0 */\n      swap1\n      pop\n        /* \"contracts/pair.sol\":7755:7770  address _token1 */\n      0x00\n        /* \"contracts/pair.sol\":7773:7779  token1 */\n      0x07\n      0x00\n      swap1\n      sload\n      swap1\n      0x0100\n      exp\n      swap1\n      div\n      0xffffffffffffffffffffffffffffffffffffffff\n      and\n        /* \"contracts/pair.sol\":7755:7779  address _token1 = token1 */\n      swap1\n      pop\n        /* \"contracts/pair.sol\":7800:7813  uint balance0 */\n      0x00\n        /* \"contracts/pair.sol\":7823:7830  _token0 */\n      dup3\n        /* \"contracts/pair.sol\":7816:7841  IERC20(_token0).balanceOf */\n      0xffffffffffffffffffffffffffffffffffffffff\n      and\n      0x70a08231\n        /* \"contracts/pair.sol\":7850:7854  this */\n      address\n        /* \"contracts/pair.sol\":7816:7856  IERC20(_token0).balanceOf(address(this)) */\n      mload(0x40)\n      dup3\n      0xffffffff\n      and\n      0xe0\n      shl\n      dup2\n      mstore\n      0x04\n      add\n      dup1\n      dup3\n      0xffffffffffffffffffffffffffffffffffffffff\n      and\n      0xffffffffffffffffffffffffffffffffffffffff\n      and\n      dup2\n      mstore\n      0x20\n      add\n      swap2\n      pop\n      pop\n      0x20\n      mload(0x40)\n      dup1\n      dup4\n      sub\n      dup2\n      dup7\n      dup1\n      extcodesize\n      iszero\n        /* \"--CODEGEN--\":8:17   */\n      dup1\n        /* \"--CODEGEN--\":5:7   */\n      iszero\n      tag_263\n      jumpi\n        /* \"--CODEGEN--\":30:31   */\n      0x00\n        /* \"--CODEGEN--\":27:28   */\n      dup1\n        /* \"--CODEGEN--\":20:32   */\n      revert\n        /* \"--CODEGEN--\":5:7   */\n    tag_263:\n        /* \"contracts/pair.sol\":7816:7856  IERC20(_token0).balanceOf(address(this)) */\n      pop\n      gas\n      staticcall\n      iszero\n        /* \"--CODEGEN--\":8:17   */\n      dup1\n        /* \"--CODEGEN--\":5:7   */\n      iszero\n      tag_264\n      jumpi\n        /* \"--CODEGEN--\":45:61   */\n      returndatasize\n        /* \"--CODEGEN--\":42:43   */\n      0x00\n        /* \"--CODEGEN--\":39:40   */\n      dup1\n        /* \"--CODEGEN--\":24:62   */\n      returndatacopy\n        /* \"--CODEGEN--\":77:93   */\n      returndatasize\n        /* \"--CODEGEN--\":74:75   */\n      0x00\n        /* \"--CODEGEN--\":67:94   */\n      revert\n        /* \"--CODEGEN--\":5:7   */\n    tag_264:\n        /* \"contracts/pair.sol\":7816:7856  IERC20(_token0).balanceOf(address(this)) */\n      pop\n      pop\n      pop\n      pop\n      mload(0x40)\n      returndatasize\n        /* \"--CODEGEN--\":13:15   */\n      0x20\n        /* \"--CODEGEN--\":8:11   */\n      dup2\n        /* \"--CODEGEN--\":5:16   */\n      lt\n        /* \"--CODEGEN--\":2:4   */\n      iszero\n      tag_265\n      jumpi\n        /* \"--CODEGEN--\":29:30   */\n      0x00\n        /* \"--CODEGEN--\":26:27   */\n      dup1\n        /* \"--CODEGEN--\":19:31   */\n      revert\n        /* \"--CODEGEN--\":2:4   */\n    tag_265:\n        /* \"contracts/pair.sol\":7816:7856  IERC20(_token0).balanceOf(address(this)) */\n      dup2\n      add\n      swap1\n      dup1\n      dup1\n      mload\n      swap1\n      0x20\n      add\n      swap1\n      swap3\n      swap2\n      swap1\n      pop\n      pop\n      pop\n        /* \"contracts/pair.sol\":7800:7856  uint balance0 = IERC20(_token0).balanceOf(address(this)) */\n      swap1\n      pop\n        /* \"contracts/pair.sol\":7862:7875  uint balance1 */\n      0x00\n        /* \"contracts/pair.sol\":7885:7892  _token1 */\n      dup3\n        /* \"contracts/pair.sol\":7878:7903  IERC20(_token1).balanceOf */\n      0xffffffffffffffffffffffffffffffffffffffff\n      and\n      0x70a08231\n        /* \"contracts/pair.sol\":7912:7916  this */\n      address\n        /* \"contracts/pair.sol\":7878:7918  IERC20(_token1).balanceOf(address(this)) */\n      mload(0x40)\n      dup3\n      0xffffffff\n      and\n      0xe0\n      shl\n      dup2\n      mstore\n      0x04\n      add\n      dup1\n      dup3\n      0xffffffffffffffffffffffffffffffffffffffff\n      and\n      0xffffffffffffffffffffffffffffffffffffffff\n      and\n      dup2\n      mstore\n      0x20\n      add\n      swap2\n      pop\n      pop\n      0x20\n      mload(0x40)\n      dup1\n      dup4\n      sub\n      dup2\n      dup7\n      dup1\n      extcodesize\n      iszero\n        /* \"--CODEGEN--\":8:17   */\n      dup1\n        /* \"--CODEGEN--\":5:7   */\n      iszero\n      tag_266\n      jumpi\n        /* \"--CODEGEN--\":30:31   */\n      0x00\n        /* \"--CODEGEN--\":27:28   */\n      dup1\n        /* \"--CODEGEN--\":20:32   */\n      revert\n        /* \"--CODEGEN--\":5:7   */\n    tag_266:\n        /* \"contracts/pair.sol\":7878:7918  IERC20(_token1).balanceOf(address(this)) */\n      pop\n      gas\n      staticcall\n      iszero\n        /* \"--CODEGEN--\":8:17   */\n      dup1\n        /* \"--CODEGEN--\":5:7   */\n      iszero\n      tag_267\n      jumpi\n        /* \"--CODEGEN--\":45:61   */\n      returndatasize\n        /* \"--CODEGEN--\":42:43   */\n      0x00\n        /* \"--CODEGEN--\":39:40   */\n      dup1\n        /* \"--CODEGEN--\":24:62   */\n      returndatacopy\n        /* \"--CODEGEN--\":77:93   */\n      returndatasize\n        /* \"--CODEGEN--\":74:75   */\n      0x00\n        /* \"--CODEGEN--\":67:94   */\n      revert\n        /* \"--CODEGEN--\":5:7   */\n    tag_267:\n        /* \"contracts/pair.sol\":7878:7918  IERC20(_token1).balanceOf(address(this)) */\n      pop\n      pop\n      pop\n      pop\n      mload(0x40)\n      returndatasize\n        /* \"--CODEGEN--\":13:15   */\n      0x20\n        /* \"--CODEGEN--\":8:11   */\n      dup2\n        /* \"--CODEGEN--\":5:16   */\n      lt\n        /* \"--CODEGEN--\":2:4   */\n      iszero\n      tag_268\n      jumpi\n        /* \"--CODEGEN--\":29:30   */\n      0x00\n        /* \"--CODEGEN--\":26:27   */\n      dup1\n        /* \"--CODEGEN--\":19:31   */\n      revert\n        /* \"--CODEGEN--\":2:4   */\n    tag_268:\n        /* \"contracts/pair.sol\":7878:7918  IERC20(_token1).balanceOf(address(this)) */\n      dup2\n      add\n      swap1\n      dup1\n      dup1\n      mload\n      swap1\n      0x20\n      add\n      swap1\n      swap3\n      swap2\n      swap1\n      pop\n      pop\n      pop\n        /* \"contracts/pair.sol\":7862:7918  uint balance1 = IERC20(_token1).balanceOf(address(this)) */\n      swap1\n      pop\n        /* \"contracts/pair.sol\":7924:7938  uint liquidity */\n      0x00\n        /* \"contracts/pair.sol\":7941:7950  balanceOf */\n      0x01\n        /* \"contracts/pair.sol\":7941:7965  balanceOf[address(this)] */\n      0x00\n        /* \"contracts/pair.sol\":7959:7963  this */\n      address\n        /* \"contracts/pair.sol\":7941:7965  balanceOf[address(this)] */\n      0xffffffffffffffffffffffffffffffffffffffff\n      and\n      0xffffffffffffffffffffffffffffffffffffffff\n      and\n      dup2\n      mstore\n      0x20\n      add\n      swap1\n      dup2\n      mstore\n      0x20\n      add\n      0x00\n      keccak256\n      sload\n        /* \"contracts/pair.sol\":7924:7965  uint liquidity = balanceOf[address(this)] */\n      swap1\n      pop\n        /* \"contracts/pair.sol\":7972:7982  bool feeOn */\n      0x00\n        /* \"contracts/pair.sol\":7985:8015  _mintFee(_reserve0, _reserve1) */\n      tag_269\n        /* \"contracts/pair.sol\":7994:8003  _reserve0 */\n      dup9\n        /* \"contracts/pair.sol\":8005:8014  _reserve1 */\n      dup9\n        /* \"contracts/pair.sol\":7985:7993  _mintFee */\n      tag_188\n        /* \"contracts/pair.sol\":7985:8015  _mintFee(_reserve0, _reserve1) */\n      jump\t// in\n    tag_269:\n        /* \"contracts/pair.sol\":7972:8015  bool feeOn = _mintFee(_reserve0, _reserve1) */\n      swap1\n      pop\n        /* \"contracts/pair.sol\":8021:8038  uint _totalSupply */\n      0x00\n        /* \"contracts/pair.sol\":8041:8052  totalSupply */\n      dup1\n      sload\n        /* \"contracts/pair.sol\":8021:8052  uint _totalSupply = totalSupply */\n      swap1\n      pop\n        /* \"contracts/pair.sol\":8172:8184  _totalSupply */\n      dup1\n        /* \"contracts/pair.sol\":8146:8169  liquidity.mul(balance0) */\n      tag_270\n        /* \"contracts/pair.sol\":8160:8168  balance0 */\n      dup7\n        /* \"contracts/pair.sol\":8146:8155  liquidity */\n      dup6\n        /* \"contracts/pair.sol\":8146:8159  liquidity.mul */\n      tag_239\n      swap1\n        /* \"contracts/pair.sol\":8146:8169  liquidity.mul(balance0) */\n      swap2\n      swap1\n      0xffffffff\n      and\n      jump\t// in\n    tag_270:\n        /* \"contracts/pair.sol\":8146:8184  liquidity.mul(balance0) / _totalSupply */\n      dup2\n      tag_271\n      jumpi\n      invalid\n    tag_271:\n      div\n        /* \"contracts/pair.sol\":8136:8184  amount0 = liquidity.mul(balance0) / _totalSupply */\n      swap11\n      pop\n        /* \"contracts/pair.sol\":8274:8286  _totalSupply */\n      dup1\n        /* \"contracts/pair.sol\":8248:8271  liquidity.mul(balance1) */\n      tag_272\n        /* \"contracts/pair.sol\":8262:8270  balance1 */\n      dup6\n        /* \"contracts/pair.sol\":8248:8257  liquidity */\n      dup6\n        /* \"contracts/pair.sol\":8248:8261  liquidity.mul */\n      tag_239\n      swap1\n        /* \"contracts/pair.sol\":8248:8271  liquidity.mul(balance1) */\n      swap2\n      swap1\n      0xffffffff\n      and\n      jump\t// in\n    tag_272:\n        /* \"contracts/pair.sol\":8248:8286  liquidity.mul(balance1) / _totalSupply */\n      dup2\n      tag_273\n      jumpi\n      invalid\n    tag_273:\n      div\n        /* \"contracts/pair.sol\":8238:8286  amount1 = liquidity.mul(balance1) / _totalSupply */\n      swap10\n      pop\n        /* \"contracts/pair.sol\":8358:8359  0 */\n      0x00\n        /* \"contracts/pair.sol\":8348:8355  amount0 */\n      dup12\n        /* \"contracts/pair.sol\":8348:8359  amount0 > 0 */\n      gt\n        /* \"contracts/pair.sol\":8348:8374  amount0 > 0 && amount1 > 0 */\n      dup1\n      iszero\n      tag_274\n      jumpi\n      pop\n        /* \"contracts/pair.sol\":8373:8374  0 */\n      0x00\n        /* \"contracts/pair.sol\":8363:8370  amount1 */\n      dup11\n        /* \"contracts/pair.sol\":8363:8374  amount1 > 0 */\n      gt\n        /* \"contracts/pair.sol\":8348:8374  amount0 > 0 && amount1 > 0 */\n    tag_274:\n        /* \"contracts/pair.sol\":8340:8423  require(amount0 > 0 && amount1 > 0, 'eZKaliburPair: INSUFFICIENT_LIQUIDITY_BURNED') */\n      tag_275\n      jumpi\n      mload(0x40)\n      0x08c379a000000000000000000000000000000000000000000000000000000000\n      dup2\n      mstore\n      0x04\n      add\n      dup1\n      dup1\n      0x20\n      add\n      dup3\n      dup2\n      sub\n      dup3\n      mstore\n      0x2c\n      dup2\n      mstore\n      0x20\n      add\n      dup1\n      data_5c26fe7bac5bd215670303820601ac49f0d4baeb8f47fd314bbc05e382ca9e12\n      0x2c\n      swap2\n      codecopy\n      0x40\n      add\n      swap2\n      pop\n      pop\n      mload(0x40)\n      dup1\n      swap2\n      sub\n      swap1\n      revert\n    tag_275:\n        /* \"contracts/pair.sol\":8429:8460  _burn(address(this), liquidity) */\n      tag_276\n        /* \"contracts/pair.sol\":8443:8447  this */\n      address\n        /* \"contracts/pair.sol\":8450:8459  liquidity */\n      dup5\n        /* \"contracts/pair.sol\":8429:8434  _burn */\n      tag_277\n        /* \"contracts/pair.sol\":8429:8460  _burn(address(this), liquidity) */\n      jump\t// in\n    tag_276:\n        /* \"contracts/pair.sol\":8466:8501  _safeTransfer(_token0, to, amount0) */\n      tag_278\n        /* \"contracts/pair.sol\":8480:8487  _token0 */\n      dup8\n        /* \"contracts/pair.sol\":8489:8491  to */\n      dup14\n        /* \"contracts/pair.sol\":8493:8500  amount0 */\n      dup14\n        /* \"contracts/pair.sol\":8466:8479  _safeTransfer */\n      tag_279\n        /* \"contracts/pair.sol\":8466:8501  _safeTransfer(_token0, to, amount0) */\n      jump\t// in\n    tag_278:\n        /* \"contracts/pair.sol\":8507:8542  _safeTransfer(_token1, to, amount1) */\n      tag_280\n        /* \"contracts/pair.sol\":8521:8528  _token1 */\n      dup7\n        /* \"contracts/pair.sol\":8530:8532  to */\n      dup14\n        /* \"contracts/pair.sol\":8534:8541  amount1 */\n      dup13\n        /* \"contracts/pair.sol\":8507:8520  _safeTransfer */\n      tag_279\n        /* \"contracts/pair.sol\":8507:8542  _safeTransfer(_token1, to, amount1) */\n      jump\t// in\n    tag_280:\n        /* \"contracts/pair.sol\":8566:8573  _token0 */\n      dup7\n        /* \"contracts/pair.sol\":8559:8584  IERC20(_token0).balanceOf */\n      0xffffffffffffffffffffffffffffffffffffffff\n      and\n      0x70a08231\n        /* \"contracts/pair.sol\":8593:8597  this */\n      address\n        /* \"contracts/pair.sol\":8559:8599  IERC20(_token0).balanceOf(address(this)) */\n      mload(0x40)\n      dup3\n      0xffffffff\n      and\n      0xe0\n      shl\n      dup2\n      mstore\n      0x04\n      add\n      dup1\n      dup3\n      0xffffffffffffffffffffffffffffffffffffffff\n      and\n      0xffffffffffffffffffffffffffffffffffffffff\n      and\n      dup2\n      mstore\n      0x20\n      add\n      swap2\n      pop\n      pop\n      0x20\n      mload(0x40)\n      dup1\n      dup4\n      sub\n      dup2\n      dup7\n      dup1\n      extcodesize\n      iszero\n        /* \"--CODEGEN--\":8:17   */\n      dup1\n        /* \"--CODEGEN--\":5:7   */\n      iszero\n      tag_281\n      jumpi\n        /* \"--CODEGEN--\":30:31   */\n      0x00\n        /* \"--CODEGEN--\":27:28   */\n      dup1\n        /* \"--CODEGEN--\":20:32   */\n      revert\n        /* \"--CODEGEN--\":5:7   */\n    tag_281:\n        /* \"contracts/pair.sol\":8559:8599  IERC20(_token0).balanceOf(address(this)) */\n      pop\n      gas\n      staticcall\n      iszero\n        /* \"--CODEGEN--\":8:17   */\n      dup1\n        /* \"--CODEGEN--\":5:7   */\n      iszero\n      tag_282\n      jumpi\n        /* \"--CODEGEN--\":45:61   */\n      returndatasize\n        /* \"--CODEGEN--\":42:43   */\n      0x00\n        /* \"--CODEGEN--\":39:40   */\n      dup1\n        /* \"--CODEGEN--\":24:62   */\n      returndatacopy\n        /* \"--CODEGEN--\":77:93   */\n      returndatasize\n        /* \"--CODEGEN--\":74:75   */\n      0x00\n        /* \"--CODEGEN--\":67:94   */\n      revert\n        /* \"--CODEGEN--\":5:7   */\n    tag_282:\n        /* \"contracts/pair.sol\":8559:8599  IERC20(_token0).balanceOf(address(this)) */\n      pop\n      pop\n      pop\n      pop\n      mload(0x40)\n      returndatasize\n        /* \"--CODEGEN--\":13:15   */\n      0x20\n        /* \"--CODEGEN--\":8:11   */\n      dup2\n        /* \"--CODEGEN--\":5:16   */\n      lt\n        /* \"--CODEGEN--\":2:4   */\n      iszero\n      tag_283\n      jumpi\n        /* \"--CODEGEN--\":29:30   */\n      0x00\n        /* \"--CODEGEN--\":26:27   */\n      dup1\n        /* \"--CODEGEN--\":19:31   */\n      revert\n        /* \"--CODEGEN--\":2:4   */\n    tag_283:\n        /* \"contracts/pair.sol\":8559:8599  IERC20(_token0).balanceOf(address(this)) */\n      dup2\n      add\n      swap1\n      dup1\n      dup1\n      mload\n      swap1\n      0x20\n      add\n      swap1\n      swap3\n      swap2\n      swap1\n      pop\n      pop\n      pop\n        /* \"contracts/pair.sol\":8548:8599  balance0 = IERC20(_token0).balanceOf(address(this)) */\n      swap5\n      pop\n        /* \"contracts/pair.sol\":8623:8630  _token1 */\n      dup6\n        /* \"contracts/pair.sol\":8616:8641  IERC20(_token1).balanceOf */\n      0xffffffffffffffffffffffffffffffffffffffff\n      and\n      0x70a08231\n        /* \"contracts/pair.sol\":8650:8654  this */\n      address\n        /* \"contracts/pair.sol\":8616:8656  IERC20(_token1).balanceOf(address(this)) */\n      mload(0x40)\n      dup3\n      0xffffffff\n      and\n      0xe0\n      shl\n      dup2\n      mstore\n      0x04\n      add\n      dup1\n      dup3\n      0xffffffffffffffffffffffffffffffffffffffff\n      and\n      0xffffffffffffffffffffffffffffffffffffffff\n      and\n      dup2\n      mstore\n      0x20\n      add\n      swap2\n      pop\n      pop\n      0x20\n      mload(0x40)\n      dup1\n      dup4\n      sub\n      dup2\n      dup7\n      dup1\n      extcodesize\n      iszero\n        /* \"--CODEGEN--\":8:17   */\n      dup1\n        /* \"--CODEGEN--\":5:7   */\n      iszero\n      tag_284\n      jumpi\n        /* \"--CODEGEN--\":30:31   */\n      0x00\n        /* \"--CODEGEN--\":27:28   */\n      dup1\n        /* \"--CODEGEN--\":20:32   */\n      revert\n        /* \"--CODEGEN--\":5:7   */\n    tag_284:\n        /* \"contracts/pair.sol\":8616:8656  IERC20(_token1).balanceOf(address(this)) */\n      pop\n      gas\n      staticcall\n      iszero\n        /* \"--CODEGEN--\":8:17   */\n      dup1\n        /* \"--CODEGEN--\":5:7   */\n      iszero\n      tag_285\n      jumpi\n        /* \"--CODEGEN--\":45:61   */\n      returndatasize\n        /* \"--CODEGEN--\":42:43   */\n      0x00\n        /* \"--CODEGEN--\":39:40   */\n      dup1\n        /* \"--CODEGEN--\":24:62   */\n      returndatacopy\n        /* \"--CODEGEN--\":77:93   */\n      returndatasize\n        /* \"--CODEGEN--\":74:75   */\n      0x00\n        /* \"--CODEGEN--\":67:94   */\n      revert\n        /* \"--CODEGEN--\":5:7   */\n    tag_285:\n        /* \"contracts/pair.sol\":8616:8656  IERC20(_token1).balanceOf(address(this)) */\n      pop\n      pop\n      pop\n      pop\n      mload(0x40)\n      returndatasize\n        /* \"--CODEGEN--\":13:15   */\n      0x20\n        /* \"--CODEGEN--\":8:11   */\n      dup2\n        /* \"--CODEGEN--\":5:16   */\n      lt\n        /* \"--CODEGEN--\":2:4   */\n      iszero\n      tag_286\n      jumpi\n        /* \"--CODEGEN--\":29:30   */\n      0x00\n        /* \"--CODEGEN--\":26:27   */\n      dup1\n        /* \"--CODEGEN--\":19:31   */\n      revert\n        /* \"--CODEGEN--\":2:4   */\n    tag_286:\n        /* \"contracts/pair.sol\":8616:8656  IERC20(_token1).balanceOf(address(this)) */\n      dup2\n      add\n      swap1\n      dup1\n      dup1\n      mload\n      swap1\n      0x20\n      add\n      swap1\n      swap3\n      swap2\n      swap1\n      pop\n      pop\n      pop\n        /* \"contracts/pair.sol\":8605:8656  balance1 = IERC20(_token1).balanceOf(address(this)) */\n      swap4\n      pop\n        /* \"contracts/pair.sol\":8663:8690  _update(balance0, balance1) */\n      tag_287\n        /* \"contracts/pair.sol\":8671:8679  balance0 */\n      dup6\n        /* \"contracts/pair.sol\":8681:8689  balance1 */\n      dup6\n        /* \"contracts/pair.sol\":8663:8670  _update */\n      tag_253\n        /* \"contracts/pair.sol\":8663:8690  _update(balance0, balance1) */\n      jump\t// in\n    tag_287:\n        /* \"contracts/pair.sol\":8700:8705  feeOn */\n      dup2\n        /* \"contracts/pair.sol\":8696:8749  if (feeOn) kLast = _k(uint(reserve0), uint(reserve1)) */\n      iszero\n      tag_288\n      jumpi\n        /* \"contracts/pair.sol\":8715:8749  _k(uint(reserve0), uint(reserve1)) */\n      tag_289\n        /* \"contracts/pair.sol\":8723:8731  reserve0 */\n      0x08\n      0x00\n      swap1\n      sload\n      swap1\n      0x0100\n      exp\n      swap1\n      div\n      0xffffffffffffffffffffffffffff\n      and\n        /* \"contracts/pair.sol\":8718:8732  uint(reserve0) */\n      0xffffffffffffffffffffffffffff\n      and\n        /* \"contracts/pair.sol\":8739:8747  reserve1 */\n      0x08\n      0x0e\n      swap1\n      sload\n      swap1\n      0x0100\n      exp\n      swap1\n      div\n      0xffffffffffffffffffffffffffff\n      and\n        /* \"contracts/pair.sol\":8734:8748  uint(reserve1) */\n      0xffffffffffffffffffffffffffff\n      and\n        /* \"contracts/pair.sol\":8715:8717  _k */\n      tag_193\n        /* \"contracts/pair.sol\":8715:8749  _k(uint(reserve0), uint(reserve1)) */\n      jump\t// in\n    tag_289:\n        /* \"contracts/pair.sol\":8707:8712  kLast */\n      0x0b\n        /* \"contracts/pair.sol\":8707:8749  kLast = _k(uint(reserve0), uint(reserve1)) */\n      dup2\n      swap1\n      sstore\n      pop\n        /* \"contracts/pair.sol\":8696:8749  if (feeOn) kLast = _k(uint(reserve0), uint(reserve1)) */\n    tag_288:\n        /* \"contracts/pair.sol\":8835:8837  to */\n      dup12\n        /* \"contracts/pair.sol\":8800:8838  Burn(msg.sender, amount0, amount1, to) */\n      0xffffffffffffffffffffffffffffffffffffffff\n      and\n        /* \"contracts/pair.sol\":8805:8815  msg.sender */\n      caller\n        /* \"contracts/pair.sol\":8800:8838  Burn(msg.sender, amount0, amount1, to) */\n      0xffffffffffffffffffffffffffffffffffffffff\n      and\n      0xdccd412f0b1252819cb1fd330b93224ca42612892bb3f4f789976e6d81936496\n        /* \"contracts/pair.sol\":8817:8824  amount0 */\n      dup14\n        /* \"contracts/pair.sol\":8826:8833  amount1 */\n      dup14\n        /* \"contracts/pair.sol\":8800:8838  Burn(msg.sender, amount0, amount1, to) */\n      mload(0x40)\n      dup1\n      dup4\n      dup2\n      mstore\n      0x20\n      add\n      dup3\n      dup2\n      mstore\n      0x20\n      add\n      swap3\n      pop\n      pop\n      pop\n      mload(0x40)\n      dup1\n      swap2\n      sub\n      swap1\n      log3\n        /* \"contracts/pair.sol\":1558:1559  _ */\n      pop\n      pop\n      pop\n      pop\n      pop\n      pop\n      pop\n      pop\n      pop\n        /* \"contracts/pair.sol\":1576:1577  1 */\n      0x01\n        /* \"contracts/pair.sol\":1565:1573  unlocked */\n      0x0d\n        /* \"contracts/pair.sol\":1565:1577  unlocked = 1 */\n      dup2\n      swap1\n      sstore\n      pop\n        /* \"contracts/pair.sol\":7550:8843  function burn(address to) external lock returns (uint amount0, uint amount1) {... */\n      swap2\n      pop\n      swap2\n      jump\t// out\n        /* \"contracts/UniswapV2ERC20.sol\":234:274  string public constant symbol = 'eZK-LP' */\n    tag_124:\n      mload(0x40)\n      dup1\n      0x40\n      add\n      0x40\n      mstore\n      dup1\n      0x06\n      dup2\n      mstore\n      0x20\n      add\n      0x655a4b2d4c500000000000000000000000000000000000000000000000000000\n      dup2\n      mstore\n      pop\n      dup2\n      jump\t// out\n        /* \"contracts/pair.sol\":1266:1288  bool public stableSwap */\n    tag_130:\n      0x0c\n      0x00\n      swap1\n      sload\n      swap1\n      0x0100\n      exp\n      swap1\n      div\n      0xff\n      and\n      dup2\n      jump\t// out\n        /* \"contracts/UniswapV2ERC20.sol\":2329:2465  function transfer(address to, uint value) external returns (bool) {... */\n    tag_133:\n        /* \"contracts/UniswapV2ERC20.sol\":2389:2393  bool */\n      0x00\n        /* \"contracts/UniswapV2ERC20.sol\":2405:2437  _transfer(msg.sender, to, value) */\n      tag_291\n        /* \"contracts/UniswapV2ERC20.sol\":2415:2425  msg.sender */\n      caller\n        /* \"contracts/UniswapV2ERC20.sol\":2427:2429  to */\n      dup5\n        /* \"contracts/UniswapV2ERC20.sol\":2431:2436  value */\n      dup5\n        /* \"contracts/UniswapV2ERC20.sol\":2405:2414  _transfer */\n      tag_175\n        /* \"contracts/UniswapV2ERC20.sol\":2405:2437  _transfer(msg.sender, to, value) */\n      jump\t// in\n    tag_291:\n        /* \"contracts/UniswapV2ERC20.sol\":2454:2458  true */\n      0x01\n        /* \"contracts/UniswapV2ERC20.sol\":2447:2458  return true */\n      swap1\n      pop\n        /* \"contracts/UniswapV2ERC20.sol\":2329:2465  function transfer(address to, uint value) external returns (bool) {... */\n      swap3\n      swap2\n      pop\n      pop\n      jump\t// out\n        /* \"contracts/pair.sol\":1339:1368  bool public pairTypeImmutable */\n    tag_135:\n      0x0c\n      0x01\n      swap1\n      sload\n      swap1\n      0x0100\n      exp\n      swap1\n      div\n      0xff\n      and\n      dup2\n      jump\t// out\n        /* \"contracts/pair.sol\":317:365  uint public constant MINIMUM_LIQUIDITY = 10 ** 3 */\n    tag_137:\n        /* \"contracts/pair.sol\":358:365  10 ** 3 */\n      0x03e8\n        /* \"contracts/pair.sol\":317:365  uint public constant MINIMUM_LIQUIDITY = 10 ** 3 */\n      dup2\n      jump\t// out\n        /* \"contracts/pair.sol\":16659:16995  function skim(address to) external lock {... */\n    tag_140:\n        /* \"contracts/pair.sol\":1507:1508  1 */\n      0x01\n        /* \"contracts/pair.sol\":1495:1503  unlocked */\n      sload(0x0d)\n        /* \"contracts/pair.sol\":1495:1508  unlocked == 1 */\n      eq\n        /* \"contracts/pair.sol\":1487:1534  require(unlocked == 1, 'eZKaliburPair: LOCKED') */\n      tag_293\n      jumpi\n      mload(0x40)\n      0x08c379a000000000000000000000000000000000000000000000000000000000\n      dup2\n      mstore\n      0x04\n      add\n      dup1\n      dup1\n      0x20\n      add\n      dup3\n      dup2\n      sub\n      dup3\n      mstore\n      0x15\n      dup2\n      mstore\n      0x20\n      add\n      dup1\n      0x655a4b616c69627572506169723a204c4f434b45440000000000000000000000\n      dup2\n      mstore\n      pop\n      0x20\n      add\n      swap2\n      pop\n      pop\n      mload(0x40)\n      dup1\n      swap2\n      sub\n      swap1\n      revert\n    tag_293:\n        /* \"contracts/pair.sol\":1551:1552  0 */\n      0x00\n        /* \"contracts/pair.sol\":1540:1548  unlocked */\n      0x0d\n        /* \"contracts/pair.sol\":1540:1552  unlocked = 0 */\n      dup2\n      swap1\n      sstore\n      pop\n        /* \"contracts/pair.sol\":16705:16720  address _token0 */\n      0x00\n        /* \"contracts/pair.sol\":16723:16729  token0 */\n      0x06\n      0x00\n      swap1\n      sload\n      swap1\n      0x0100\n      exp\n      swap1\n      div\n      0xffffffffffffffffffffffffffffffffffffffff\n      and\n        /* \"contracts/pair.sol\":16705:16729  address _token0 = token0 */\n      swap1\n      pop\n        /* \"contracts/pair.sol\":16754:16769  address _token1 */\n      0x00\n        /* \"contracts/pair.sol\":16772:16778  token1 */\n      0x07\n      0x00\n      swap1\n      sload\n      swap1\n      0x0100\n      exp\n      swap1\n      div\n      0xffffffffffffffffffffffffffffffffffffffff\n      and\n        /* \"contracts/pair.sol\":16754:16778  address _token1 = token1 */\n      swap1\n      pop\n        /* \"contracts/pair.sol\":16803:16885  _safeTransfer(_token0, to, IERC20(_token0).balanceOf(address(this)).sub(reserve0)) */\n      tag_295\n        /* \"contracts/pair.sol\":16817:16824  _token0 */\n      dup3\n        /* \"contracts/pair.sol\":16826:16828  to */\n      dup5\n        /* \"contracts/pair.sol\":16830:16884  IERC20(_token0).balanceOf(address(this)).sub(reserve0) */\n      tag_296\n        /* \"contracts/pair.sol\":16875:16883  reserve0 */\n      0x08\n      0x00\n      swap1\n      sload\n      swap1\n      0x0100\n      exp\n      swap1\n      div\n      0xffffffffffffffffffffffffffff\n      and\n        /* \"contracts/pair.sol\":16830:16884  IERC20(_token0).balanceOf(address(this)).sub(reserve0) */\n      0xffffffffffffffffffffffffffff\n      and\n        /* \"contracts/pair.sol\":16837:16844  _token0 */\n      dup7\n        /* \"contracts/pair.sol\":16830:16855  IERC20(_token0).balanceOf */\n      0xffffffffffffffffffffffffffffffffffffffff\n      and\n      0x70a08231\n        /* \"contracts/pair.sol\":16864:16868  this */\n      address\n        /* \"contracts/pair.sol\":16830:16870  IERC20(_token0).balanceOf(address(this)) */\n      mload(0x40)\n      dup3\n      0xffffffff\n      and\n      0xe0\n      shl\n      dup2\n      mstore\n      0x04\n      add\n      dup1\n      dup3\n      0xffffffffffffffffffffffffffffffffffffffff\n      and\n      0xffffffffffffffffffffffffffffffffffffffff\n      and\n      dup2\n      mstore\n      0x20\n      add\n      swap2\n      pop\n      pop\n      0x20\n      mload(0x40)\n      dup1\n      dup4\n      sub\n      dup2\n      dup7\n      dup1\n      extcodesize\n      iszero\n        /* \"--CODEGEN--\":8:17   */\n      dup1\n        /* \"--CODEGEN--\":5:7   */\n      iszero\n      tag_297\n      jumpi\n        /* \"--CODEGEN--\":30:31   */\n      0x00\n        /* \"--CODEGEN--\":27:28   */\n      dup1\n        /* \"--CODEGEN--\":20:32   */\n      revert\n        /* \"--CODEGEN--\":5:7   */\n    tag_297:\n        /* \"contracts/pair.sol\":16830:16870  IERC20(_token0).balanceOf(address(this)) */\n      pop\n      gas\n      staticcall\n      iszero\n        /* \"--CODEGEN--\":8:17   */\n      dup1\n        /* \"--CODEGEN--\":5:7   */\n      iszero\n      tag_298\n      jumpi\n        /* \"--CODEGEN--\":45:61   */\n      returndatasize\n        /* \"--CODEGEN--\":42:43   */\n      0x00\n        /* \"--CODEGEN--\":39:40   */\n      dup1\n        /* \"--CODEGEN--\":24:62   */\n      returndatacopy\n        /* \"--CODEGEN--\":77:93   */\n      returndatasize\n        /* \"--CODEGEN--\":74:75   */\n      0x00\n        /* \"--CODEGEN--\":67:94   */\n      revert\n        /* \"--CODEGEN--\":5:7   */\n    tag_298:\n        /* \"contracts/pair.sol\":16830:16870  IERC20(_token0).balanceOf(address(this)) */\n      pop\n      pop\n      pop\n      pop\n      mload(0x40)\n      returndatasize\n        /* \"--CODEGEN--\":13:15   */\n      0x20\n        /* \"--CODEGEN--\":8:11   */\n      dup2\n        /* \"--CODEGEN--\":5:16   */\n      lt\n        /* \"--CODEGEN--\":2:4   */\n      iszero\n      tag_299\n      jumpi\n        /* \"--CODEGEN--\":29:30   */\n      0x00\n        /* \"--CODEGEN--\":26:27   */\n      dup1\n        /* \"--CODEGEN--\":19:31   */\n      revert\n        /* \"--CODEGEN--\":2:4   */\n    tag_299:\n        /* \"contracts/pair.sol\":16830:16870  IERC20(_token0).balanceOf(address(this)) */\n      dup2\n      add\n      swap1\n      dup1\n      dup1\n      mload\n      swap1\n      0x20\n      add\n      swap1\n      swap3\n      swap2\n      swap1\n      pop\n      pop\n      pop\n        /* \"contracts/pair.sol\":16830:16874  IERC20(_token0).balanceOf(address(this)).sub */\n      tag_173\n      swap1\n        /* \"contracts/pair.sol\":16830:16884  IERC20(_token0).balanceOf(address(this)).sub(reserve0) */\n      swap2\n      swap1\n      0xffffffff\n      and\n      jump\t// in\n    tag_296:\n        /* \"contracts/pair.sol\":16803:16816  _safeTransfer */\n      tag_279\n        /* \"contracts/pair.sol\":16803:16885  _safeTransfer(_token0, to, IERC20(_token0).balanceOf(address(this)).sub(reserve0)) */\n      jump\t// in\n    tag_295:\n        /* \"contracts/pair.sol\":16891:16973  _safeTransfer(_token1, to, IERC20(_token1).balanceOf(address(this)).sub(reserve1)) */\n      tag_300\n        /* \"contracts/pair.sol\":16905:16912  _token1 */\n      dup2\n        /* \"contracts/pair.sol\":16914:16916  to */\n      dup5\n        /* \"contracts/pair.sol\":16918:16972  IERC20(_token1).balanceOf(address(this)).sub(reserve1) */\n      tag_301\n        /* \"contracts/pair.sol\":16963:16971  reserve1 */\n      0x08\n      0x0e\n      swap1\n      sload\n      swap1\n      0x0100\n      exp\n      swap1\n      div\n      0xffffffffffffffffffffffffffff\n      and\n        /* \"contracts/pair.sol\":16918:16972  IERC20(_token1).balanceOf(address(this)).sub(reserve1) */\n      0xffffffffffffffffffffffffffff\n      and\n        /* \"contracts/pair.sol\":16925:16932  _token1 */\n      dup6\n        /* \"contracts/pair.sol\":16918:16943  IERC20(_token1).balanceOf */\n      0xffffffffffffffffffffffffffffffffffffffff\n      and\n      0x70a08231\n        /* \"contracts/pair.sol\":16952:16956  this */\n      address\n        /* \"contracts/pair.sol\":16918:16958  IERC20(_token1).balanceOf(address(this)) */\n      mload(0x40)\n      dup3\n      0xffffffff\n      and\n      0xe0\n      shl\n      dup2\n      mstore\n      0x04\n      add\n      dup1\n      dup3\n      0xffffffffffffffffffffffffffffffffffffffff\n      and\n      0xffffffffffffffffffffffffffffffffffffffff\n      and\n      dup2\n      mstore\n      0x20\n      add\n      swap2\n      pop\n      pop\n      0x20\n      mload(0x40)\n      dup1\n      dup4\n      sub\n      dup2\n      dup7\n      dup1\n      extcodesize\n      iszero\n        /* \"--CODEGEN--\":8:17   */\n      dup1\n        /* \"--CODEGEN--\":5:7   */\n      iszero\n      tag_302\n      jumpi\n        /* \"--CODEGEN--\":30:31   */\n      0x00\n        /* \"--CODEGEN--\":27:28   */\n      dup1\n        /* \"--CODEGEN--\":20:32   */\n      revert\n        /* \"--CODEGEN--\":5:7   */\n    tag_302:\n        /* \"contracts/pair.sol\":16918:16958  IERC20(_token1).balanceOf(address(this)) */\n      pop\n      gas\n      staticcall\n      iszero\n        /* \"--CODEGEN--\":8:17   */\n      dup1\n        /* \"--CODEGEN--\":5:7   */\n      iszero\n      tag_303\n      jumpi\n        /* \"--CODEGEN--\":45:61   */\n      returndatasize\n        /* \"--CODEGEN--\":42:43   */\n      0x00\n        /* \"--CODEGEN--\":39:40   */\n      dup1\n        /* \"--CODEGEN--\":24:62   */\n      returndatacopy\n        /* \"--CODEGEN--\":77:93   */\n      returndatasize\n        /* \"--CODEGEN--\":74:75   */\n      0x00\n        /* \"--CODEGEN--\":67:94   */\n      revert\n        /* \"--CODEGEN--\":5:7   */\n    tag_303:\n        /* \"contracts/pair.sol\":16918:16958  IERC20(_token1).balanceOf(address(this)) */\n      pop\n      pop\n      pop\n      pop\n      mload(0x40)\n      returndatasize\n        /* \"--CODEGEN--\":13:15   */\n      0x20\n        /* \"--CODEGEN--\":8:11   */\n      dup2\n        /* \"--CODEGEN--\":5:16   */\n      lt\n        /* \"--CODEGEN--\":2:4   */\n      iszero\n      tag_304\n      jumpi\n        /* \"--CODEGEN--\":29:30   */\n      0x00\n        /* \"--CODEGEN--\":26:27   */\n      dup1\n        /* \"--CODEGEN--\":19:31   */\n      revert\n        /* \"--CODEGEN--\":2:4   */\n    tag_304:\n        /* \"contracts/pair.sol\":16918:16958  IERC20(_token1).balanceOf(address(this)) */\n      dup2\n      add\n      swap1\n      dup1\n      dup1\n      mload\n      swap1\n      0x20\n      add\n      swap1\n      swap3\n      swap2\n      swap1\n      pop\n      pop\n      pop\n        /* \"contracts/pair.sol\":16918:16962  IERC20(_token1).balanceOf(address(this)).sub */\n      tag_173\n      swap1\n        /* \"contracts/pair.sol\":16918:16972  IERC20(_token1).balanceOf(address(this)).sub(reserve1) */\n      swap2\n      swap1\n      0xffffffff\n      and\n      jump\t// in\n    tag_301:\n        /* \"contracts/pair.sol\":16891:16904  _safeTransfer */\n      tag_279\n        /* \"contracts/pair.sol\":16891:16973  _safeTransfer(_token1, to, IERC20(_token1).balanceOf(address(this)).sub(reserve1)) */\n      jump\t// in\n    tag_300:\n        /* \"contracts/pair.sol\":16984:16990  Skim() */\n      0x21ad22495c9c75cd1c94756f91824e779c0c8a8e168b267c790df464fe056b79\n      mload(0x40)\n      mload(0x40)\n      dup1\n      swap2\n      sub\n      swap1\n      log1\n        /* \"contracts/pair.sol\":1558:1559  _ */\n      pop\n      pop\n        /* \"contracts/pair.sol\":1576:1577  1 */\n      0x01\n        /* \"contracts/pair.sol\":1565:1573  unlocked */\n      0x0d\n        /* \"contracts/pair.sol\":1565:1577  unlocked = 1 */\n      dup2\n      swap1\n      sstore\n      pop\n        /* \"contracts/pair.sol\":16659:16995  function skim(address to) external lock {... */\n      pop\n      jump\t// out\n        /* \"contracts/pair.sol\":462:484  address public factory */\n    tag_142:\n      0x05\n      0x00\n      swap1\n      sload\n      swap1\n      0x0100\n      exp\n      swap1\n      div\n      0xffffffffffffffffffffffffffffffffffffffff\n      and\n      dup2\n      jump\t// out\n        /* \"contracts/pair.sol\":513:534  address public token1 */\n    tag_144:\n      0x07\n      0x00\n      swap1\n      sload\n      swap1\n      0x0100\n      exp\n      swap1\n      div\n      0xffffffffffffffffffffffffffffffffffffffff\n      and\n      dup2\n      jump\t// out\n        /* \"contracts/UniswapV2ERC20.sol\":2868:3530  function permit(address owner, address spender, uint value, uint deadline, uint8 v, bytes32 r, bytes32 s) external {... */\n    tag_147:\n        /* \"contracts/UniswapV2ERC20.sol\":3013:3028  block.timestamp */\n      timestamp\n        /* \"contracts/UniswapV2ERC20.sol\":3001:3009  deadline */\n      dup5\n        /* \"contracts/UniswapV2ERC20.sol\":3001:3028  deadline >= block.timestamp */\n      lt\n      iszero\n        /* \"contracts/UniswapV2ERC20.sol\":2993:3051  require(deadline >= block.timestamp, 'UniswapV2: EXPIRED') */\n      tag_306\n      jumpi\n      mload(0x40)\n      0x08c379a000000000000000000000000000000000000000000000000000000000\n      dup2\n      mstore\n      0x04\n      add\n      dup1\n      dup1\n      0x20\n      add\n      dup3\n      dup2\n      sub\n      dup3\n      mstore\n      0x12\n      dup2\n      mstore\n      0x20\n      add\n      dup1\n      0x556e697377617056323a20455850495245440000000000000000000000000000\n      dup2\n      mstore\n      pop\n      0x20\n      add\n      swap2\n      pop\n      pop\n      mload(0x40)\n      dup1\n      swap2\n      sub\n      swap1\n      revert\n    tag_306:\n        /* \"contracts/UniswapV2ERC20.sol\":3061:3075  bytes32 digest */\n      0x00\n        /* \"contracts/UniswapV2ERC20.sol\":3163:3179  DOMAIN_SEPARATOR */\n      sload(0x03)\n        /* \"contracts/UniswapV2ERC20.sol\":649:715  0x6e71edae12b1b97f4d1f60370fef10105fa2faae0126114a169c64845d6126c9 */\n      0x6e71edae12b1b97f4d1f60370fef10105fa2faae0126114a169c64845d6126c9\n        /* \"contracts/UniswapV2ERC20.sol\":3218:3233  PERMIT_TYPEHASH */\n      0x00\n      shl\n        /* \"contracts/UniswapV2ERC20.sol\":3235:3240  owner */\n      dup10\n        /* \"contracts/UniswapV2ERC20.sol\":3242:3249  spender */\n      dup10\n        /* \"contracts/UniswapV2ERC20.sol\":3251:3256  value */\n      dup10\n        /* \"contracts/UniswapV2ERC20.sol\":3258:3264  nonces */\n      0x04\n        /* \"contracts/UniswapV2ERC20.sol\":3258:3271  nonces[owner] */\n      0x00\n        /* \"contracts/UniswapV2ERC20.sol\":3265:3270  owner */\n      dup15\n        /* \"contracts/UniswapV2ERC20.sol\":3258:3271  nonces[owner] */\n      0xffffffffffffffffffffffffffffffffffffffff\n      and\n      0xffffffffffffffffffffffffffffffffffffffff\n      and\n      dup2\n      mstore\n      0x20\n      add\n      swap1\n      dup2\n      mstore\n      0x20\n      add\n      0x00\n      keccak256\n      0x00\n        /* \"contracts/UniswapV2ERC20.sol\":3258:3273  nonces[owner]++ */\n      dup2\n      sload\n      dup1\n      swap3\n      swap2\n      swap1\n      0x01\n      add\n      swap2\n      swap1\n      pop\n      sstore\n        /* \"contracts/UniswapV2ERC20.sol\":3275:3283  deadline */\n      dup11\n        /* \"contracts/UniswapV2ERC20.sol\":3207:3284  abi.encode(PERMIT_TYPEHASH, owner, spender, value, nonces[owner]++, deadline) */\n      add(0x20, mload(0x40))\n      dup1\n      dup8\n      dup2\n      mstore\n      0x20\n      add\n      dup7\n      0xffffffffffffffffffffffffffffffffffffffff\n      and\n      0xffffffffffffffffffffffffffffffffffffffff\n      and\n      dup2\n      mstore\n      0x20\n      add\n      dup6\n      0xffffffffffffffffffffffffffffffffffffffff\n      and\n      0xffffffffffffffffffffffffffffffffffffffff\n      and\n      dup2\n      mstore\n      0x20\n      add\n      dup5\n      dup2\n      mstore\n      0x20\n      add\n      dup4\n      dup2\n      mstore\n      0x20\n      add\n      dup3\n      dup2\n      mstore\n      0x20\n      add\n      swap7\n      pop\n      pop\n      pop\n      pop\n      pop\n      pop\n      pop\n      mload(0x40)\n        /* \"--CODEGEN--\":49:53   */\n      0x20\n        /* \"--CODEGEN--\":39:46   */\n      dup2\n        /* \"--CODEGEN--\":30:37   */\n      dup4\n        /* \"--CODEGEN--\":26:47   */\n      sub\n        /* \"--CODEGEN--\":22:54   */\n      sub\n        /* \"--CODEGEN--\":13:20   */\n      dup2\n        /* \"--CODEGEN--\":6:55   */\n      mstore\n        /* \"contracts/UniswapV2ERC20.sol\":3207:3284  abi.encode(PERMIT_TYPEHASH, owner, spender, value, nonces[owner]++, deadline) */\n      swap1\n      0x40\n      mstore\n        /* \"contracts/UniswapV2ERC20.sol\":3197:3285  keccak256(abi.encode(PERMIT_TYPEHASH, owner, spender, value, nonces[owner]++, deadline)) */\n      dup1\n      mload\n      swap1\n      0x20\n      add\n      keccak256\n        /* \"contracts/UniswapV2ERC20.sol\":3101:3299  abi.encodePacked(... */\n      add(0x20, mload(0x40))\n      dup1\n      dup1\n      0x1901000000000000000000000000000000000000000000000000000000000000\n      dup2\n      mstore\n      pop\n      0x02\n      add\n      dup4\n      dup2\n      mstore\n      0x20\n      add\n      dup3\n      dup2\n      mstore\n      0x20\n      add\n      swap3\n      pop\n      pop\n      pop\n      mload(0x40)\n        /* \"--CODEGEN--\":49:53   */\n      0x20\n        /* \"--CODEGEN--\":39:46   */\n      dup2\n        /* \"--CODEGEN--\":30:37   */\n      dup4\n        /* \"--CODEGEN--\":26:47   */\n      sub\n        /* \"--CODEGEN--\":22:54   */\n      sub\n        /* \"--CODEGEN--\":13:20   */\n      dup2\n        /* \"--CODEGEN--\":6:55   */\n      mstore\n        /* \"contracts/UniswapV2ERC20.sol\":3101:3299  abi.encodePacked(... */\n      swap1\n      0x40\n      mstore\n        /* \"contracts/UniswapV2ERC20.sol\":3078:3309  keccak256(... */\n      dup1\n      mload\n      swap1\n      0x20\n      add\n      keccak256\n        /* \"contracts/UniswapV2ERC20.sol\":3061:3309  bytes32 digest = keccak256(... */\n      swap1\n      pop\n        /* \"contracts/UniswapV2ERC20.sol\":3319:3343  address recoveredAddress */\n      0x00\n        /* \"contracts/UniswapV2ERC20.sol\":3346:3372  ecrecover(digest, v, r, s) */\n      0x01\n        /* \"contracts/UniswapV2ERC20.sol\":3356:3362  digest */\n      dup3\n        /* \"contracts/UniswapV2ERC20.sol\":3364:3365  v */\n      dup7\n        /* \"contracts/UniswapV2ERC20.sol\":3367:3368  r */\n      dup7\n        /* \"contracts/UniswapV2ERC20.sol\":3370:3371  s */\n      dup7\n        /* \"contracts/UniswapV2ERC20.sol\":3346:3372  ecrecover(digest, v, r, s) */\n      mload(0x40)\n      0x00\n      dup2\n      mstore\n      0x20\n      add\n      0x40\n      mstore\n      mload(0x40)\n      dup1\n      dup6\n      dup2\n      mstore\n      0x20\n      add\n      dup5\n      0xff\n      and\n      0xff\n      and\n      dup2\n      mstore\n      0x20\n      add\n      dup4\n      dup2\n      mstore\n      0x20\n      add\n      dup3\n      dup2\n      mstore\n      0x20\n      add\n      swap5\n      pop\n      pop\n      pop\n      pop\n      pop\n      0x20\n      mload(0x40)\n      0x20\n      dup2\n      sub\n      swap1\n      dup1\n      dup5\n      sub\n      swap1\n      dup6\n      gas\n      staticcall\n      iszero\n        /* \"--CODEGEN--\":8:17   */\n      dup1\n        /* \"--CODEGEN--\":5:7   */\n      iszero\n      tag_307\n      jumpi\n        /* \"--CODEGEN--\":45:61   */\n      returndatasize\n        /* \"--CODEGEN--\":42:43   */\n      0x00\n        /* \"--CODEGEN--\":39:40   */\n      dup1\n        /* \"--CODEGEN--\":24:62   */\n      returndatacopy\n        /* \"--CODEGEN--\":77:93   */\n      returndatasize\n        /* \"--CODEGEN--\":74:75   */\n      0x00\n        /* \"--CODEGEN--\":67:94   */\n      revert\n        /* \"--CODEGEN--\":5:7   */\n    tag_307:\n        /* \"contracts/UniswapV2ERC20.sol\":3346:3372  ecrecover(digest, v, r, s) */\n      pop\n      pop\n      pop\n      mload(sub(mload(0x40), 0x20))\n        /* \"contracts/UniswapV2ERC20.sol\":3319:3372  address recoveredAddress = ecrecover(digest, v, r, s) */\n      swap1\n      pop\n        /* \"contracts/UniswapV2ERC20.sol\":3418:3419  0 */\n      0x00\n        /* \"contracts/UniswapV2ERC20.sol\":3390:3420  recoveredAddress != address(0) */\n      0xffffffffffffffffffffffffffffffffffffffff\n      and\n        /* \"contracts/UniswapV2ERC20.sol\":3390:3406  recoveredAddress */\n      dup2\n        /* \"contracts/UniswapV2ERC20.sol\":3390:3420  recoveredAddress != address(0) */\n      0xffffffffffffffffffffffffffffffffffffffff\n      and\n      eq\n      iszero\n        /* \"contracts/UniswapV2ERC20.sol\":3390:3449  recoveredAddress != address(0) && recoveredAddress == owner */\n      dup1\n      iszero\n      tag_308\n      jumpi\n      pop\n        /* \"contracts/UniswapV2ERC20.sol\":3444:3449  owner */\n      dup9\n        /* \"contracts/UniswapV2ERC20.sol\":3424:3449  recoveredAddress == owner */\n      0xffffffffffffffffffffffffffffffffffffffff\n      and\n        /* \"contracts/UniswapV2ERC20.sol\":3424:3440  recoveredAddress */\n      dup2\n        /* \"contracts/UniswapV2ERC20.sol\":3424:3449  recoveredAddress == owner */\n      0xffffffffffffffffffffffffffffffffffffffff\n      and\n      eq\n        /* \"contracts/UniswapV2ERC20.sol\":3390:3449  recoveredAddress != address(0) && recoveredAddress == owner */\n    tag_308:\n        /* \"contracts/UniswapV2ERC20.sol\":3382:3482  require(recoveredAddress != address(0) && recoveredAddress == owner, 'UniswapV2: INVALID_SIGNATURE') */\n      tag_309\n      jumpi\n      mload(0x40)\n      0x08c379a000000000000000000000000000000000000000000000000000000000\n      dup2\n      mstore\n      0x04\n      add\n      dup1\n      dup1\n      0x20\n      add\n      dup3\n      dup2\n      sub\n      dup3\n      mstore\n      0x1c\n      dup2\n      mstore\n      0x20\n      add\n      dup1\n      0x556e697377617056323a20494e56414c49445f5349474e415455524500000000\n      dup2\n      mstore\n      pop\n      0x20\n      add\n      swap2\n      pop\n      pop\n      mload(0x40)\n      dup1\n      swap2\n      sub\n      swap1\n      revert\n    tag_309:\n        /* \"contracts/UniswapV2ERC20.sol\":3492:3523  _approve(owner, spender, value) */\n      tag_310\n        /* \"contracts/UniswapV2ERC20.sol\":3501:3506  owner */\n      dup10\n        /* \"contracts/UniswapV2ERC20.sol\":3508:3515  spender */\n      dup10\n        /* \"contracts/UniswapV2ERC20.sol\":3517:3522  value */\n      dup10\n        /* \"contracts/UniswapV2ERC20.sol\":3492:3500  _approve */\n      tag_169\n        /* \"contracts/UniswapV2ERC20.sol\":3492:3523  _approve(owner, spender, value) */\n      jump\t// in\n    tag_310:\n        /* \"contracts/UniswapV2ERC20.sol\":2868:3530  function permit(address owner, address spender, uint value, uint deadline, uint8 v, bytes32 r, bytes32 s) external {... */\n      pop\n      pop\n      pop\n      pop\n      pop\n      pop\n      pop\n      pop\n      pop\n      jump\t// out\n        /* \"contracts/pair.sol\":567:612  uint public constant FEE_DENOMINATOR = 100000 */\n    tag_149:\n        /* \"contracts/pair.sol\":606:612  100000 */\n      0x0186a0\n        /* \"contracts/pair.sol\":567:612  uint public constant FEE_DENOMINATOR = 100000 */\n      dup2\n      jump\t// out\n        /* \"contracts/UniswapV2ERC20.sol\":398:459  mapping(address => mapping(address => uint)) public allowance */\n    tag_152:\n      mstore(0x20, 0x02)\n      dup2\n      0x00\n      mstore\n      mstore(0x20, keccak256(0x00, 0x40))\n      dup1\n      0x00\n      mstore\n      keccak256(0x00, 0x40)\n      0x00\n      swap2\n      pop\n      swap2\n      pop\n      pop\n      sload\n      dup2\n      jump\t// out\n        /* \"contracts/pair.sol\":15259:15517  function getAmountOut(uint amountIn, address tokenIn) external view returns (uint) {... */\n    tag_155:\n        /* \"contracts/pair.sol\":15336:15340  uint */\n      0x00\n        /* \"contracts/pair.sol\":15348:15365  uint16 feePercent */\n      dup1\n        /* \"contracts/pair.sol\":15379:15385  token0 */\n      0x06\n      0x00\n      swap1\n      sload\n      swap1\n      0x0100\n      exp\n      swap1\n      div\n      0xffffffffffffffffffffffffffffffffffffffff\n      and\n        /* \"contracts/pair.sol\":15368:15385  tokenIn == token0 */\n      0xffffffffffffffffffffffffffffffffffffffff\n      and\n        /* \"contracts/pair.sol\":15368:15375  tokenIn */\n      dup4\n        /* \"contracts/pair.sol\":15368:15385  tokenIn == token0 */\n      0xffffffffffffffffffffffffffffffffffffffff\n      and\n      eq\n        /* \"contracts/pair.sol\":15368:15423  tokenIn == token0 ? token0FeePercent : token1FeePercent */\n      tag_312\n      jumpi\n        /* \"contracts/pair.sol\":15407:15423  token1FeePercent */\n      0x08\n      0x1e\n      swap1\n      sload\n      swap1\n      0x0100\n      exp\n      swap1\n      div\n      0xffff\n      and\n        /* \"contracts/pair.sol\":15368:15423  tokenIn == token0 ? token0FeePercent : token1FeePercent */\n      jump(tag_313)\n    tag_312:\n        /* \"contracts/pair.sol\":15388:15404  token0FeePercent */\n      0x08\n      0x1c\n      swap1\n      sload\n      swap1\n      0x0100\n      exp\n      swap1\n      div\n      0xffff\n      and\n        /* \"contracts/pair.sol\":15368:15423  tokenIn == token0 ? token0FeePercent : token1FeePercent */\n    tag_313:\n        /* \"contracts/pair.sol\":15348:15423  uint16 feePercent = tokenIn == token0 ? token0FeePercent : token1FeePercent */\n      swap1\n      pop\n        /* \"contracts/pair.sol\":15436:15512  _getAmountOut(amountIn, tokenIn, uint(reserve0), uint(reserve1), feePercent) */\n      tag_314\n        /* \"contracts/pair.sol\":15450:15458  amountIn */\n      dup5\n        /* \"contracts/pair.sol\":15460:15467  tokenIn */\n      dup5\n        /* \"contracts/pair.sol\":15474:15482  reserve0 */\n      0x08\n      0x00\n      swap1\n      sload\n      swap1\n      0x0100\n      exp\n      swap1\n      div\n      0xffffffffffffffffffffffffffff\n      and\n        /* \"contracts/pair.sol\":15469:15483  uint(reserve0) */\n      0xffffffffffffffffffffffffffff\n      and\n        /* \"contracts/pair.sol\":15490:15498  reserve1 */\n      0x08\n      0x0e\n      swap1\n      sload\n      swap1\n      0x0100\n      exp\n      swap1\n      div\n      0xffffffffffffffffffffffffffff\n      and\n        /* \"contracts/pair.sol\":15485:15499  uint(reserve1) */\n      0xffffffffffffffffffffffffffff\n      and\n        /* \"contracts/pair.sol\":15501:15511  feePercent */\n      dup6\n        /* \"contracts/pair.sol\":15436:15512  _getAmountOut(amountIn, tokenIn, uint(reserve0), uint(reserve1), feePercent) */\n      0xffff\n      and\n        /* \"contracts/pair.sol\":15436:15449  _getAmountOut */\n      tag_315\n        /* \"contracts/pair.sol\":15436:15512  _getAmountOut(amountIn, tokenIn, uint(reserve0), uint(reserve1), feePercent) */\n      jump\t// in\n    tag_314:\n        /* \"contracts/pair.sol\":15429:15512  return _getAmountOut(amountIn, tokenIn, uint(reserve0), uint(reserve1), feePercent) */\n      swap2\n      pop\n      pop\n        /* \"contracts/pair.sol\":15259:15517  function getAmountOut(uint amountIn, address tokenIn) external view returns (uint) {... */\n      swap3\n      swap2\n      pop\n      pop\n      jump\t// out\n        /* \"contracts/pair.sol\":17466:17818  function drainWrongToken(address token, address to) external lock {... */\n    tag_158:\n        /* \"contracts/pair.sol\":1507:1508  1 */\n      0x01\n        /* \"contracts/pair.sol\":1495:1503  unlocked */\n      sload(0x0d)\n        /* \"contracts/pair.sol\":1495:1508  unlocked == 1 */\n      eq\n        /* \"contracts/pair.sol\":1487:1534  require(unlocked == 1, 'eZKaliburPair: LOCKED') */\n      tag_317\n      jumpi\n      mload(0x40)\n      0x08c379a000000000000000000000000000000000000000000000000000000000\n      dup2\n      mstore\n      0x04\n      add\n      dup1\n      dup1\n      0x20\n      add\n      dup3\n      dup2\n      sub\n      dup3\n      mstore\n      0x15\n      dup2\n      mstore\n      0x20\n      add\n      dup1\n      0x655a4b616c69627572506169723a204c4f434b45440000000000000000000000\n      dup2\n      mstore\n      pop\n      0x20\n      add\n      swap2\n      pop\n      pop\n      mload(0x40)\n      dup1\n      swap2\n      sub\n      swap1\n      revert\n    tag_317:\n        /* \"contracts/pair.sol\":1551:1552  0 */\n      0x00\n        /* \"contracts/pair.sol\":1540:1548  unlocked */\n      0x0d\n        /* \"contracts/pair.sol\":1540:1552  unlocked = 0 */\n      dup2\n      swap1\n      sstore\n      pop\n        /* \"contracts/pair.sol\":17569:17576  factory */\n      0x05\n      0x00\n      swap1\n      sload\n      swap1\n      0x0100\n      exp\n      swap1\n      div\n      0xffffffffffffffffffffffffffffffffffffffff\n      and\n        /* \"contracts/pair.sol\":17560:17583  IFactory(factory).owner */\n      0xffffffffffffffffffffffffffffffffffffffff\n      and\n      0x8da5cb5b\n        /* \"contracts/pair.sol\":17560:17585  IFactory(factory).owner() */\n      mload(0x40)\n      dup2\n      0xffffffff\n      and\n      0xe0\n      shl\n      dup2\n      mstore\n      0x04\n      add\n      0x20\n      mload(0x40)\n      dup1\n      dup4\n      sub\n      dup2\n      dup7\n      dup1\n      extcodesize\n      iszero\n        /* \"--CODEGEN--\":8:17   */\n      dup1\n        /* \"--CODEGEN--\":5:7   */\n      iszero\n      tag_319\n      jumpi\n        /* \"--CODEGEN--\":30:31   */\n      0x00\n        /* \"--CODEGEN--\":27:28   */\n      dup1\n        /* \"--CODEGEN--\":20:32   */\n      revert\n        /* \"--CODEGEN--\":5:7   */\n    tag_319:\n        /* \"contracts/pair.sol\":17560:17585  IFactory(factory).owner() */\n      pop\n      gas\n      staticcall\n      iszero\n        /* \"--CODEGEN--\":8:17   */\n      dup1\n        /* \"--CODEGEN--\":5:7   */\n      iszero\n      tag_320\n      jumpi\n        /* \"--CODEGEN--\":45:61   */\n      returndatasize\n        /* \"--CODEGEN--\":42:43   */\n      0x00\n        /* \"--CODEGEN--\":39:40   */\n      dup1\n        /* \"--CODEGEN--\":24:62   */\n      returndatacopy\n        /* \"--CODEGEN--\":77:93   */\n      returndatasize\n        /* \"--CODEGEN--\":74:75   */\n      0x00\n        /* \"--CODEGEN--\":67:94   */\n      revert\n        /* \"--CODEGEN--\":5:7   */\n    tag_320:\n        /* \"contracts/pair.sol\":17560:17585  IFactory(factory).owner() */\n      pop\n      pop\n      pop\n      pop\n      mload(0x40)\n      returndatasize\n        /* \"--CODEGEN--\":13:15   */\n      0x20\n        /* \"--CODEGEN--\":8:11   */\n      dup2\n        /* \"--CODEGEN--\":5:16   */\n      lt\n        /* \"--CODEGEN--\":2:4   */\n      iszero\n      tag_321\n      jumpi\n        /* \"--CODEGEN--\":29:30   */\n      0x00\n        /* \"--CODEGEN--\":26:27   */\n      dup1\n        /* \"--CODEGEN--\":19:31   */\n      revert\n        /* \"--CODEGEN--\":2:4   */\n    tag_321:\n        /* \"contracts/pair.sol\":17560:17585  IFactory(factory).owner() */\n      dup2\n      add\n      swap1\n      dup1\n      dup1\n      mload\n      swap1\n      0x20\n      add\n      swap1\n      swap3\n      swap2\n      swap1\n      pop\n      pop\n      pop\n        /* \"contracts/pair.sol\":17546:17585  msg.sender == IFactory(factory).owner() */\n      0xffffffffffffffffffffffffffffffffffffffff\n      and\n        /* \"contracts/pair.sol\":17546:17556  msg.sender */\n      caller\n        /* \"contracts/pair.sol\":17546:17585  msg.sender == IFactory(factory).owner() */\n      0xffffffffffffffffffffffffffffffffffffffff\n      and\n      eq\n        /* \"contracts/pair.sol\":17538:17625  require(msg.sender == IFactory(factory).owner(), \"eZKaliburPair: only factory's owner\") */\n      tag_322\n      jumpi\n      mload(0x40)\n      0x08c379a000000000000000000000000000000000000000000000000000000000\n      dup2\n      mstore\n      0x04\n      add\n      dup1\n      dup1\n      0x20\n      add\n      dup3\n      dup2\n      sub\n      dup3\n      mstore\n      0x23\n      dup2\n      mstore\n      0x20\n      add\n      dup1\n      data_fd83120603ed4d82de96120f878f97f3eab3d3e5b9b17eb433b2f605b574072d\n      0x23\n      swap2\n      codecopy\n      0x40\n      add\n      swap2\n      pop\n      pop\n      mload(0x40)\n      dup1\n      swap2\n      sub\n      swap1\n      revert\n    tag_322:\n        /* \"contracts/pair.sol\":17648:17654  token0 */\n      0x06\n      0x00\n      swap1\n      sload\n      swap1\n      0x0100\n      exp\n      swap1\n      div\n      0xffffffffffffffffffffffffffffffffffffffff\n      and\n        /* \"contracts/pair.sol\":17639:17654  token != token0 */\n      0xffffffffffffffffffffffffffffffffffffffff\n      and\n        /* \"contracts/pair.sol\":17639:17644  token */\n      dup3\n        /* \"contracts/pair.sol\":17639:17654  token != token0 */\n      0xffffffffffffffffffffffffffffffffffffffff\n      and\n      eq\n      iszero\n        /* \"contracts/pair.sol\":17639:17673  token != token0 && token != token1 */\n      dup1\n      iszero\n      tag_323\n      jumpi\n      pop\n        /* \"contracts/pair.sol\":17667:17673  token1 */\n      0x07\n      0x00\n      swap1\n      sload\n      swap1\n      0x0100\n      exp\n      swap1\n      div\n      0xffffffffffffffffffffffffffffffffffffffff\n      and\n        /* \"contracts/pair.sol\":17658:17673  token != token1 */\n      0xffffffffffffffffffffffffffffffffffffffff\n      and\n        /* \"contracts/pair.sol\":17658:17663  token */\n      dup3\n        /* \"contracts/pair.sol\":17658:17673  token != token1 */\n      0xffffffffffffffffffffffffffffffffffffffff\n      and\n      eq\n      iszero\n        /* \"contracts/pair.sol\":17639:17673  token != token0 && token != token1 */\n    tag_323:\n        /* \"contracts/pair.sol\":17631:17706  require(token != token0 && token != token1, \"eZKaliburPair: invalid token\") */\n      tag_324\n      jumpi\n      mload(0x40)\n      0x08c379a000000000000000000000000000000000000000000000000000000000\n      dup2\n      mstore\n      0x04\n      add\n      dup1\n      dup1\n      0x20\n      add\n      dup3\n      dup2\n      sub\n      dup3\n      mstore\n      0x1c\n      dup2\n      mstore\n      0x20\n      add\n      dup1\n      0x655a4b616c69627572506169723a20696e76616c696420746f6b656e00000000\n      dup2\n      mstore\n      pop\n      0x20\n      add\n      swap2\n      pop\n      pop\n      mload(0x40)\n      dup1\n      swap2\n      sub\n      swap1\n      revert\n    tag_324:\n        /* \"contracts/pair.sol\":17712:17776  _safeTransfer(token, to, IERC20(token).balanceOf(address(this))) */\n      tag_325\n        /* \"contracts/pair.sol\":17726:17731  token */\n      dup3\n        /* \"contracts/pair.sol\":17733:17735  to */\n      dup3\n        /* \"contracts/pair.sol\":17744:17749  token */\n      dup5\n        /* \"contracts/pair.sol\":17737:17760  IERC20(token).balanceOf */\n      0xffffffffffffffffffffffffffffffffffffffff\n      and\n      0x70a08231\n        /* \"contracts/pair.sol\":17769:17773  this */\n      address\n        /* \"contracts/pair.sol\":17737:17775  IERC20(token).balanceOf(address(this)) */\n      mload(0x40)\n      dup3\n      0xffffffff\n      and\n      0xe0\n      shl\n      dup2\n      mstore\n      0x04\n      add\n      dup1\n      dup3\n      0xffffffffffffffffffffffffffffffffffffffff\n      and\n      0xffffffffffffffffffffffffffffffffffffffff\n      and\n      dup2\n      mstore\n      0x20\n      add\n      swap2\n      pop\n      pop\n      0x20\n      mload(0x40)\n      dup1\n      dup4\n      sub\n      dup2\n      dup7\n      dup1\n      extcodesize\n      iszero\n        /* \"--CODEGEN--\":8:17   */\n      dup1\n        /* \"--CODEGEN--\":5:7   */\n      iszero\n      tag_326\n      jumpi\n        /* \"--CODEGEN--\":30:31   */\n      0x00\n        /* \"--CODEGEN--\":27:28   */\n      dup1\n        /* \"--CODEGEN--\":20:32   */\n      revert\n        /* \"--CODEGEN--\":5:7   */\n    tag_326:\n        /* \"contracts/pair.sol\":17737:17775  IERC20(token).balanceOf(address(this)) */\n      pop\n      gas\n      staticcall\n      iszero\n        /* \"--CODEGEN--\":8:17   */\n      dup1\n        /* \"--CODEGEN--\":5:7   */\n      iszero\n      tag_327\n      jumpi\n        /* \"--CODEGEN--\":45:61   */\n      returndatasize\n        /* \"--CODEGEN--\":42:43   */\n      0x00\n        /* \"--CODEGEN--\":39:40   */\n      dup1\n        /* \"--CODEGEN--\":24:62   */\n      returndatacopy\n        /* \"--CODEGEN--\":77:93   */\n      returndatasize\n        /* \"--CODEGEN--\":74:75   */\n      0x00\n        /* \"--CODEGEN--\":67:94   */\n      revert\n        /* \"--CODEGEN--\":5:7   */\n    tag_327:\n        /* \"contracts/pair.sol\":17737:17775  IERC20(token).balanceOf(address(this)) */\n      pop\n      pop\n      pop\n      pop\n      mload(0x40)\n      returndatasize\n        /* \"--CODEGEN--\":13:15   */\n      0x20\n        /* \"--CODEGEN--\":8:11   */\n      dup2\n        /* \"--CODEGEN--\":5:16   */\n      lt\n        /* \"--CODEGEN--\":2:4   */\n      iszero\n      tag_328\n      jumpi\n        /* \"--CODEGEN--\":29:30   */\n      0x00\n        /* \"--CODEGEN--\":26:27   */\n      dup1\n        /* \"--CODEGEN--\":19:31   */\n      revert\n        /* \"--CODEGEN--\":2:4   */\n    tag_328:\n        /* \"contracts/pair.sol\":17737:17775  IERC20(token).balanceOf(address(this)) */\n      dup2\n      add\n      swap1\n      dup1\n      dup1\n      mload\n      swap1\n      0x20\n      add\n      swap1\n      swap3\n      swap2\n      swap1\n      pop\n      pop\n      pop\n        /* \"contracts/pair.sol\":17712:17725  _safeTransfer */\n      tag_279\n        /* \"contracts/pair.sol\":17712:17776  _safeTransfer(token, to, IERC20(token).balanceOf(address(this))) */\n      jump\t// in\n    tag_325:\n        /* \"contracts/pair.sol\":17803:17808  token */\n      dup2\n        /* \"contracts/pair.sol\":17787:17813  DrainWrongToken(token, to) */\n      0xffffffffffffffffffffffffffffffffffffffff\n      and\n      0x368a9dc863ecb94b5ba32a682e26295b10d9c2666fad7d785ebdf262c3c52413\n        /* \"contracts/pair.sol\":17810:17812  to */\n      dup3\n        /* \"contracts/pair.sol\":17787:17813  DrainWrongToken(token, to) */\n      mload(0x40)\n      dup1\n      dup3\n      0xffffffffffffffffffffffffffffffffffffffff\n      and\n      0xffffffffffffffffffffffffffffffffffffffff\n      and\n      dup2\n      mstore\n      0x20\n      add\n      swap2\n      pop\n      pop\n      mload(0x40)\n      dup1\n      swap2\n      sub\n      swap1\n      log2\n        /* \"contracts/pair.sol\":1576:1577  1 */\n      0x01\n        /* \"contracts/pair.sol\":1565:1573  unlocked */\n      0x0d\n        /* \"contracts/pair.sol\":1565:1577  unlocked = 1 */\n      dup2\n      swap1\n      sstore\n      pop\n        /* \"contracts/pair.sol\":17466:17818  function drainWrongToken(address token, address to) external lock {... */\n      pop\n      pop\n      jump\t// out\n        /* \"contracts/pair.sol\":17037:17352  function sync() external lock {... */\n    tag_160:\n        /* \"contracts/pair.sol\":1507:1508  1 */\n      0x01\n        /* \"contracts/pair.sol\":1495:1503  unlocked */\n      sload(0x0d)\n        /* \"contracts/pair.sol\":1495:1508  unlocked == 1 */\n      eq\n        /* \"contracts/pair.sol\":1487:1534  require(unlocked == 1, 'eZKaliburPair: LOCKED') */\n      tag_330\n      jumpi\n      mload(0x40)\n      0x08c379a000000000000000000000000000000000000000000000000000000000\n      dup2\n      mstore\n      0x04\n      add\n      dup1\n      dup1\n      0x20\n      add\n      dup3\n      dup2\n      sub\n      dup3\n      mstore\n      0x15\n      dup2\n      mstore\n      0x20\n      add\n      dup1\n      0x655a4b616c69627572506169723a204c4f434b45440000000000000000000000\n      dup2\n      mstore\n      pop\n      0x20\n      add\n      swap2\n      pop\n      pop\n      mload(0x40)\n      dup1\n      swap2\n      sub\n      swap1\n      revert\n    tag_330:\n        /* \"contracts/pair.sol\":1551:1552  0 */\n      0x00\n        /* \"contracts/pair.sol\":1540:1548  unlocked */\n      0x0d\n        /* \"contracts/pair.sol\":1540:1552  unlocked = 0 */\n      dup2\n      swap1\n      sstore\n      pop\n        /* \"contracts/pair.sol\":17073:17091  uint token0Balance */\n      0x00\n        /* \"contracts/pair.sol\":17101:17107  token0 */\n      0x06\n      0x00\n      swap1\n      sload\n      swap1\n      0x0100\n      exp\n      swap1\n      div\n      0xffffffffffffffffffffffffffffffffffffffff\n      and\n        /* \"contracts/pair.sol\":17094:17118  IERC20(token0).balanceOf */\n      0xffffffffffffffffffffffffffffffffffffffff\n      and\n      0x70a08231\n        /* \"contracts/pair.sol\":17127:17131  this */\n      address\n        /* \"contracts/pair.sol\":17094:17133  IERC20(token0).balanceOf(address(this)) */\n      mload(0x40)\n      dup3\n      0xffffffff\n      and\n      0xe0\n      shl\n      dup2\n      mstore\n      0x04\n      add\n      dup1\n      dup3\n      0xffffffffffffffffffffffffffffffffffffffff\n      and\n      0xffffffffffffffffffffffffffffffffffffffff\n      and\n      dup2\n      mstore\n      0x20\n      add\n      swap2\n      pop\n      pop\n      0x20\n      mload(0x40)\n      dup1\n      dup4\n      sub\n      dup2\n      dup7\n      dup1\n      extcodesize\n      iszero\n        /* \"--CODEGEN--\":8:17   */\n      dup1\n        /* \"--CODEGEN--\":5:7   */\n      iszero\n      tag_332\n      jumpi\n        /* \"--CODEGEN--\":30:31   */\n      0x00\n        /* \"--CODEGEN--\":27:28   */\n      dup1\n        /* \"--CODEGEN--\":20:32   */\n      revert\n        /* \"--CODEGEN--\":5:7   */\n    tag_332:\n        /* \"contracts/pair.sol\":17094:17133  IERC20(token0).balanceOf(address(this)) */\n      pop\n      gas\n      staticcall\n      iszero\n        /* \"--CODEGEN--\":8:17   */\n      dup1\n        /* \"--CODEGEN--\":5:7   */\n      iszero\n      tag_333\n      jumpi\n        /* \"--CODEGEN--\":45:61   */\n      returndatasize\n        /* \"--CODEGEN--\":42:43   */\n      0x00\n        /* \"--CODEGEN--\":39:40   */\n      dup1\n        /* \"--CODEGEN--\":24:62   */\n      returndatacopy\n        /* \"--CODEGEN--\":77:93   */\n      returndatasize\n        /* \"--CODEGEN--\":74:75   */\n      0x00\n        /* \"--CODEGEN--\":67:94   */\n      revert\n        /* \"--CODEGEN--\":5:7   */\n    tag_333:\n        /* \"contracts/pair.sol\":17094:17133  IERC20(token0).balanceOf(address(this)) */\n      pop\n      pop\n      pop\n      pop\n      mload(0x40)\n      returndatasize\n        /* \"--CODEGEN--\":13:15   */\n      0x20\n        /* \"--CODEGEN--\":8:11   */\n      dup2\n        /* \"--CODEGEN--\":5:16   */\n      lt\n        /* \"--CODEGEN--\":2:4   */\n      iszero\n      tag_334\n      jumpi\n        /* \"--CODEGEN--\":29:30   */\n      0x00\n        /* \"--CODEGEN--\":26:27   */\n      dup1\n        /* \"--CODEGEN--\":19:31   */\n      revert\n        /* \"--CODEGEN--\":2:4   */\n    tag_334:\n        /* \"contracts/pair.sol\":17094:17133  IERC20(token0).balanceOf(address(this)) */\n      dup2\n      add\n      swap1\n      dup1\n      dup1\n      mload\n      swap1\n      0x20\n      add\n      swap1\n      swap3\n      swap2\n      swap1\n      pop\n      pop\n      pop\n        /* \"contracts/pair.sol\":17073:17133  uint token0Balance = IERC20(token0).balanceOf(address(this)) */\n      swap1\n      pop\n        /* \"contracts/pair.sol\":17139:17157  uint token1Balance */\n      0x00\n        /* \"contracts/pair.sol\":17167:17173  token1 */\n      0x07\n      0x00\n      swap1\n      sload\n      swap1\n      0x0100\n      exp\n      swap1\n      div\n      0xffffffffffffffffffffffffffffffffffffffff\n      and\n        /* \"contracts/pair.sol\":17160:17184  IERC20(token1).balanceOf */\n      0xffffffffffffffffffffffffffffffffffffffff\n      and\n      0x70a08231\n        /* \"contracts/pair.sol\":17193:17197  this */\n      address\n        /* \"contracts/pair.sol\":17160:17199  IERC20(token1).balanceOf(address(this)) */\n      mload(0x40)\n      dup3\n      0xffffffff\n      and\n      0xe0\n      shl\n      dup2\n      mstore\n      0x04\n      add\n      dup1\n      dup3\n      0xffffffffffffffffffffffffffffffffffffffff\n      and\n      0xffffffffffffffffffffffffffffffffffffffff\n      and\n      dup2\n      mstore\n      0x20\n      add\n      swap2\n      pop\n      pop\n      0x20\n      mload(0x40)\n      dup1\n      dup4\n      sub\n      dup2\n      dup7\n      dup1\n      extcodesize\n      iszero\n        /* \"--CODEGEN--\":8:17   */\n      dup1\n        /* \"--CODEGEN--\":5:7   */\n      iszero\n      tag_335\n      jumpi\n        /* \"--CODEGEN--\":30:31   */\n      0x00\n        /* \"--CODEGEN--\":27:28   */\n      dup1\n        /* \"--CODEGEN--\":20:32   */\n      revert\n        /* \"--CODEGEN--\":5:7   */\n    tag_335:\n        /* \"contracts/pair.sol\":17160:17199  IERC20(token1).balanceOf(address(this)) */\n      pop\n      gas\n      staticcall\n      iszero\n        /* \"--CODEGEN--\":8:17   */\n      dup1\n        /* \"--CODEGEN--\":5:7   */\n      iszero\n      tag_336\n      jumpi\n        /* \"--CODEGEN--\":45:61   */\n      returndatasize\n        /* \"--CODEGEN--\":42:43   */\n      0x00\n        /* \"--CODEGEN--\":39:40   */\n      dup1\n        /* \"--CODEGEN--\":24:62   */\n      returndatacopy\n        /* \"--CODEGEN--\":77:93   */\n      returndatasize\n        /* \"--CODEGEN--\":74:75   */\n      0x00\n        /* \"--CODEGEN--\":67:94   */\n      revert\n        /* \"--CODEGEN--\":5:7   */\n    tag_336:\n        /* \"contracts/pair.sol\":17160:17199  IERC20(token1).balanceOf(address(this)) */\n      pop\n      pop\n      pop\n      pop\n      mload(0x40)\n      returndatasize\n        /* \"--CODEGEN--\":13:15   */\n      0x20\n        /* \"--CODEGEN--\":8:11   */\n      dup2\n        /* \"--CODEGEN--\":5:16   */\n      lt\n        /* \"--CODEGEN--\":2:4   */\n      iszero\n      tag_337\n      jumpi\n        /* \"--CODEGEN--\":29:30   */\n      0x00\n        /* \"--CODEGEN--\":26:27   */\n      dup1\n        /* \"--CODEGEN--\":19:31   */\n      revert\n        /* \"--CODEGEN--\":2:4   */\n    tag_337:\n        /* \"contracts/pair.sol\":17160:17199  IERC20(token1).balanceOf(address(this)) */\n      dup2\n      add\n      swap1\n      dup1\n      dup1\n      mload\n      swap1\n      0x20\n      add\n      swap1\n      swap3\n      swap2\n      swap1\n      pop\n      pop\n      pop\n        /* \"contracts/pair.sol\":17139:17199  uint token1Balance = IERC20(token1).balanceOf(address(this)) */\n      swap1\n      pop\n        /* \"contracts/pair.sol\":17230:17231  0 */\n      0x00\n        /* \"contracts/pair.sol\":17213:17226  token0Balance */\n      dup3\n        /* \"contracts/pair.sol\":17213:17231  token0Balance != 0 */\n      eq\n      iszero\n        /* \"contracts/pair.sol\":17213:17253  token0Balance != 0 && token1Balance != 0 */\n      dup1\n      iszero\n      tag_338\n      jumpi\n      pop\n        /* \"contracts/pair.sol\":17252:17253  0 */\n      0x00\n        /* \"contracts/pair.sol\":17235:17248  token1Balance */\n      dup2\n        /* \"contracts/pair.sol\":17235:17253  token1Balance != 0 */\n      eq\n      iszero\n        /* \"contracts/pair.sol\":17213:17253  token0Balance != 0 && token1Balance != 0 */\n    tag_338:\n        /* \"contracts/pair.sol\":17205:17304  require(token0Balance != 0 && token1Balance != 0, \"eZKaliburPair: liquidity ratio not initialized\") */\n      tag_339\n      jumpi\n      mload(0x40)\n      0x08c379a000000000000000000000000000000000000000000000000000000000\n      dup2\n      mstore\n      0x04\n      add\n      dup1\n      dup1\n      0x20\n      add\n      dup3\n      dup2\n      sub\n      dup3\n      mstore\n      0x2e\n      dup2\n      mstore\n      0x20\n      add\n      dup1\n      data_b812a7bb29dec6f526121e1bfdf77da0d9fd5f3d8c74be699d0a2f01be67e231\n      0x2e\n      swap2\n      codecopy\n      0x40\n      add\n      swap2\n      pop\n      pop\n      mload(0x40)\n      dup1\n      swap2\n      sub\n      swap1\n      revert\n    tag_339:\n        /* \"contracts/pair.sol\":17310:17347  _update(token0Balance, token1Balance) */\n      tag_340\n        /* \"contracts/pair.sol\":17318:17331  token0Balance */\n      dup3\n        /* \"contracts/pair.sol\":17333:17346  token1Balance */\n      dup3\n        /* \"contracts/pair.sol\":17310:17317  _update */\n      tag_253\n        /* \"contracts/pair.sol\":17310:17347  _update(token0Balance, token1Balance) */\n      jump\t// in\n    tag_340:\n        /* \"contracts/pair.sol\":1558:1559  _ */\n      pop\n      pop\n        /* \"contracts/pair.sol\":1576:1577  1 */\n      0x01\n        /* \"contracts/pair.sol\":1565:1573  unlocked */\n      0x0d\n        /* \"contracts/pair.sol\":1565:1577  unlocked = 1 */\n      dup2\n      swap1\n      sstore\n      pop\n        /* \"contracts/pair.sol\":17037:17352  function sync() external lock {... */\n      jump\t// out\n        /* \"contracts/pair.sol\":10039:14016  function _swap(TokensData memory tokensData, address to, bytes memory data, address referrer) internal lock {... */\n    tag_165:\n        /* \"contracts/pair.sol\":1507:1508  1 */\n      0x01\n        /* \"contracts/pair.sol\":1495:1503  unlocked */\n      sload(0x0d)\n        /* \"contracts/pair.sol\":1495:1508  unlocked == 1 */\n      eq\n        /* \"contracts/pair.sol\":1487:1534  require(unlocked == 1, 'eZKaliburPair: LOCKED') */\n      tag_342\n      jumpi\n      mload(0x40)\n      0x08c379a000000000000000000000000000000000000000000000000000000000\n      dup2\n      mstore\n      0x04\n      add\n      dup1\n      dup1\n      0x20\n      add\n      dup3\n      dup2\n      sub\n      dup3\n      mstore\n      0x15\n      dup2\n      mstore\n      0x20\n      add\n      dup1\n      0x655a4b616c69627572506169723a204c4f434b45440000000000000000000000\n      dup2\n      mstore\n      pop\n      0x20\n      add\n      swap2\n      pop\n      pop\n      mload(0x40)\n      dup1\n      swap2\n      sub\n      swap1\n      revert\n    tag_342:\n        /* \"contracts/pair.sol\":1551:1552  0 */\n      0x00\n        /* \"contracts/pair.sol\":1540:1548  unlocked */\n      0x0d\n        /* \"contracts/pair.sol\":1540:1552  unlocked = 0 */\n      dup2\n      swap1\n      sstore\n      pop\n        /* \"contracts/pair.sol\":10185:10186  0 */\n      0x00\n        /* \"contracts/pair.sol\":10161:10171  tokensData */\n      dup5\n        /* \"contracts/pair.sol\":10161:10182  tokensData.amount0Out */\n      0x40\n      add\n      mload\n        /* \"contracts/pair.sol\":10161:10186  tokensData.amount0Out > 0 */\n      gt\n        /* \"contracts/pair.sol\":10161:10215  tokensData.amount0Out > 0 || tokensData.amount1Out > 0 */\n      dup1\n      tag_344\n      jumpi\n      pop\n        /* \"contracts/pair.sol\":10214:10215  0 */\n      0x00\n        /* \"contracts/pair.sol\":10190:10200  tokensData */\n      dup5\n        /* \"contracts/pair.sol\":10190:10211  tokensData.amount1Out */\n      0x60\n      add\n      mload\n        /* \"contracts/pair.sol\":10190:10215  tokensData.amount1Out > 0 */\n      gt\n        /* \"contracts/pair.sol\":10161:10215  tokensData.amount0Out > 0 || tokensData.amount1Out > 0 */\n    tag_344:\n        /* \"contracts/pair.sol\":10153:10261  require(tokensData.amount0Out > 0 || tokensData.amount1Out > 0, 'eZKaliburPair: INSUFFICIENT_OUTPUT_AMOUNT') */\n      tag_345\n      jumpi\n      mload(0x40)\n      0x08c379a000000000000000000000000000000000000000000000000000000000\n      dup2\n      mstore\n      0x04\n      add\n      dup1\n      dup1\n      0x20\n      add\n      dup3\n      dup2\n      sub\n      dup3\n      mstore\n      0x29\n      dup2\n      mstore\n      0x20\n      add\n      dup1\n      data_985af2d628585b86a62c2a3e0e095aa532421cf73afcd9f40539c0e984229c9a\n      0x29\n      swap2\n      codecopy\n      0x40\n      add\n      swap2\n      pop\n      pop\n      mload(0x40)\n      dup1\n      swap2\n      sub\n      swap1\n      revert\n    tag_345:\n        /* \"contracts/pair.sol\":10269:10286  uint112 _reserve0 */\n      0x00\n        /* \"contracts/pair.sol\":10288:10305  uint112 _reserve1 */\n      dup1\n        /* \"contracts/pair.sol\":10307:10331  uint16 _token0FeePercent */\n      0x00\n        /* \"contracts/pair.sol\":10333:10357  uint16 _token1FeePercent */\n      dup1\n        /* \"contracts/pair.sol\":10361:10374  getReserves() */\n      tag_346\n        /* \"contracts/pair.sol\":10361:10372  getReserves */\n      tag_63\n        /* \"contracts/pair.sol\":10361:10374  getReserves() */\n      jump\t// in\n    tag_346:\n        /* \"contracts/pair.sol\":10268:10374  (uint112 _reserve0, uint112 _reserve1, uint16 _token0FeePercent, uint16 _token1FeePercent) = getReserves() */\n      swap4\n      pop\n      swap4\n      pop\n      swap4\n      pop\n      swap4\n      pop\n        /* \"contracts/pair.sol\":10412:10421  _reserve0 */\n      dup4\n        /* \"contracts/pair.sol\":10388:10421  tokensData.amount0Out < _reserve0 */\n      0xffffffffffffffffffffffffffff\n      and\n        /* \"contracts/pair.sol\":10388:10398  tokensData */\n      dup9\n        /* \"contracts/pair.sol\":10388:10409  tokensData.amount0Out */\n      0x40\n      add\n      mload\n        /* \"contracts/pair.sol\":10388:10421  tokensData.amount0Out < _reserve0 */\n      lt\n        /* \"contracts/pair.sol\":10388:10458  tokensData.amount0Out < _reserve0 && tokensData.amount1Out < _reserve1 */\n      dup1\n      iszero\n      tag_347\n      jumpi\n      pop\n        /* \"contracts/pair.sol\":10449:10458  _reserve1 */\n      dup3\n        /* \"contracts/pair.sol\":10425:10458  tokensData.amount1Out < _reserve1 */\n      0xffffffffffffffffffffffffffff\n      and\n        /* \"contracts/pair.sol\":10425:10435  tokensData */\n      dup9\n        /* \"contracts/pair.sol\":10425:10446  tokensData.amount1Out */\n      0x60\n      add\n      mload\n        /* \"contracts/pair.sol\":10425:10458  tokensData.amount1Out < _reserve1 */\n      lt\n        /* \"contracts/pair.sol\":10388:10458  tokensData.amount0Out < _reserve0 && tokensData.amount1Out < _reserve1 */\n    tag_347:\n        /* \"contracts/pair.sol\":10380:10500  require(tokensData.amount0Out < _reserve0 && tokensData.amount1Out < _reserve1, 'eZKaliburPair: INSUFFICIENT_LIQUIDITY') */\n      tag_348\n      jumpi\n      mload(0x40)\n      0x08c379a000000000000000000000000000000000000000000000000000000000\n      dup2\n      mstore\n      0x04\n      add\n      dup1\n      dup1\n      0x20\n      add\n      dup3\n      dup2\n      sub\n      dup3\n      mstore\n      0x25\n      dup2\n      mstore\n      0x20\n      add\n      dup1\n      data_6c8afa2437545964ffee4c84b28541af800177f71a1bad08a0655cae5b8d43e9\n      0x25\n      swap2\n      codecopy\n      0x40\n      add\n      swap2\n      pop\n      pop\n      mload(0x40)\n      dup1\n      swap2\n      sub\n      swap1\n      revert\n    tag_348:\n        /* \"contracts/pair.sol\":10530:10540  tokensData */\n      dup8\n        /* \"contracts/pair.sol\":10530:10547  tokensData.token0 */\n      0x00\n      add\n      mload\n        /* \"contracts/pair.sol\":10524:10547  to != tokensData.token0 */\n      0xffffffffffffffffffffffffffffffffffffffff\n      and\n        /* \"contracts/pair.sol\":10524:10526  to */\n      dup8\n        /* \"contracts/pair.sol\":10524:10547  to != tokensData.token0 */\n      0xffffffffffffffffffffffffffffffffffffffff\n      and\n      eq\n      iszero\n        /* \"contracts/pair.sol\":10524:10574  to != tokensData.token0 && to != tokensData.token1 */\n      dup1\n      iszero\n      tag_349\n      jumpi\n      pop\n        /* \"contracts/pair.sol\":10557:10567  tokensData */\n      dup8\n        /* \"contracts/pair.sol\":10557:10574  tokensData.token1 */\n      0x20\n      add\n      mload\n        /* \"contracts/pair.sol\":10551:10574  to != tokensData.token1 */\n      0xffffffffffffffffffffffffffffffffffffffff\n      and\n        /* \"contracts/pair.sol\":10551:10553  to */\n      dup8\n        /* \"contracts/pair.sol\":10551:10574  to != tokensData.token1 */\n      0xffffffffffffffffffffffffffffffffffffffff\n      and\n      eq\n      iszero\n        /* \"contracts/pair.sol\":10524:10574  to != tokensData.token0 && to != tokensData.token1 */\n    tag_349:\n        /* \"contracts/pair.sol\":10516:10604  require(to != tokensData.token0 && to != tokensData.token1, 'eZKaliburPair: INVALID_TO') */\n      tag_350\n      jumpi\n      mload(0x40)\n      0x08c379a000000000000000000000000000000000000000000000000000000000\n      dup2\n      mstore\n      0x04\n      add\n      dup1\n      dup1\n      0x20\n      add\n      dup3\n      dup2\n      sub\n      dup3\n      mstore\n      0x19\n      dup2\n      mstore\n      0x20\n      add\n      dup1\n      0x655a4b616c69627572506169723a20494e56414c49445f544f00000000000000\n      dup2\n      mstore\n      pop\n      0x20\n      add\n      swap2\n      pop\n      pop\n      mload(0x40)\n      dup1\n      swap2\n      sub\n      swap1\n      revert\n    tag_350:\n        /* \"contracts/pair.sol\":10680:10681  0 */\n      0x00\n        /* \"contracts/pair.sol\":10656:10666  tokensData */\n      dup9\n        /* \"contracts/pair.sol\":10656:10677  tokensData.amount0Out */\n      0x40\n      add\n      mload\n        /* \"contracts/pair.sol\":10656:10681  tokensData.amount0Out > 0 */\n      gt\n        /* \"contracts/pair.sol\":10652:10742  if (tokensData.amount0Out > 0) _safeTransfer(tokensData.token0, to, tokensData.amount0Out) */\n      iszero\n      tag_351\n      jumpi\n        /* \"contracts/pair.sol\":10683:10742  _safeTransfer(tokensData.token0, to, tokensData.amount0Out) */\n      tag_352\n        /* \"contracts/pair.sol\":10697:10707  tokensData */\n      dup9\n        /* \"contracts/pair.sol\":10697:10714  tokensData.token0 */\n      0x00\n      add\n      mload\n        /* \"contracts/pair.sol\":10716:10718  to */\n      dup9\n        /* \"contracts/pair.sol\":10720:10730  tokensData */\n      dup11\n        /* \"contracts/pair.sol\":10720:10741  tokensData.amount0Out */\n      0x40\n      add\n      mload\n        /* \"contracts/pair.sol\":10683:10696  _safeTransfer */\n      tag_279\n        /* \"contracts/pair.sol\":10683:10742  _safeTransfer(tokensData.token0, to, tokensData.amount0Out) */\n      jump\t// in\n    tag_352:\n        /* \"contracts/pair.sol\":10652:10742  if (tokensData.amount0Out > 0) _safeTransfer(tokensData.token0, to, tokensData.amount0Out) */\n    tag_351:\n        /* \"contracts/pair.sol\":10818:10819  0 */\n      0x00\n        /* \"contracts/pair.sol\":10794:10804  tokensData */\n      dup9\n        /* \"contracts/pair.sol\":10794:10815  tokensData.amount1Out */\n      0x60\n      add\n      mload\n        /* \"contracts/pair.sol\":10794:10819  tokensData.amount1Out > 0 */\n      gt\n        /* \"contracts/pair.sol\":10790:10880  if (tokensData.amount1Out > 0) _safeTransfer(tokensData.token1, to, tokensData.amount1Out) */\n      iszero\n      tag_353\n      jumpi\n        /* \"contracts/pair.sol\":10821:10880  _safeTransfer(tokensData.token1, to, tokensData.amount1Out) */\n      tag_354\n        /* \"contracts/pair.sol\":10835:10845  tokensData */\n      dup9\n        /* \"contracts/pair.sol\":10835:10852  tokensData.token1 */\n      0x20\n      add\n      mload\n        /* \"contracts/pair.sol\":10854:10856  to */\n      dup9\n        /* \"contracts/pair.sol\":10858:10868  tokensData */\n      dup11\n        /* \"contracts/pair.sol\":10858:10879  tokensData.amount1Out */\n      0x60\n      add\n      mload\n        /* \"contracts/pair.sol\":10821:10834  _safeTransfer */\n      tag_279\n        /* \"contracts/pair.sol\":10821:10880  _safeTransfer(tokensData.token1, to, tokensData.amount1Out) */\n      jump\t// in\n    tag_354:\n        /* \"contracts/pair.sol\":10790:10880  if (tokensData.amount1Out > 0) _safeTransfer(tokensData.token1, to, tokensData.amount1Out) */\n    tag_353:\n        /* \"contracts/pair.sol\":10906:10907  0 */\n      0x00\n        /* \"contracts/pair.sol\":10892:10896  data */\n      dup7\n        /* \"contracts/pair.sol\":10892:10903  data.length */\n      mload\n        /* \"contracts/pair.sol\":10892:10907  data.length > 0 */\n      gt\n        /* \"contracts/pair.sol\":10888:11007  if (data.length > 0) IUniswapV2Callee(to).uniswapV2Call(msg.sender, tokensData.amount0Out, tokensData.amount1Out, data) */\n      iszero\n      tag_355\n      jumpi\n        /* \"contracts/pair.sol\":10926:10928  to */\n      dup7\n        /* \"contracts/pair.sol\":10909:10943  IUniswapV2Callee(to).uniswapV2Call */\n      0xffffffffffffffffffffffffffffffffffffffff\n      and\n      0x10d1e85c\n        /* \"contracts/pair.sol\":10944:10954  msg.sender */\n      caller\n        /* \"contracts/pair.sol\":10956:10966  tokensData */\n      dup11\n        /* \"contracts/pair.sol\":10956:10977  tokensData.amount0Out */\n      0x40\n      add\n      mload\n        /* \"contracts/pair.sol\":10979:10989  tokensData */\n      dup12\n        /* \"contracts/pair.sol\":10979:11000  tokensData.amount1Out */\n      0x60\n      add\n      mload\n        /* \"contracts/pair.sol\":11002:11006  data */\n      dup11\n        /* \"contracts/pair.sol\":10909:11007  IUniswapV2Callee(to).uniswapV2Call(msg.sender, tokensData.amount0Out, tokensData.amount1Out, data) */\n      mload(0x40)\n      dup6\n      0xffffffff\n      and\n      0xe0\n      shl\n      dup2\n      mstore\n      0x04\n      add\n      dup1\n      dup6\n      0xffffffffffffffffffffffffffffffffffffffff\n      and\n      0xffffffffffffffffffffffffffffffffffffffff\n      and\n      dup2\n      mstore\n      0x20\n      add\n      dup5\n      dup2\n      mstore\n      0x20\n      add\n      dup4\n      dup2\n      mstore\n      0x20\n      add\n      dup1\n      0x20\n      add\n      dup3\n      dup2\n      sub\n      dup3\n      mstore\n      dup4\n      dup2\n      dup2\n      mload\n      dup2\n      mstore\n      0x20\n      add\n      swap2\n      pop\n      dup1\n      mload\n      swap1\n      0x20\n      add\n      swap1\n      dup1\n      dup4\n      dup4\n        /* \"--CODEGEN--\":23:24   */\n      0x00\n        /* \"--CODEGEN--\":8:108   */\n    tag_356:\n        /* \"--CODEGEN--\":33:36   */\n      dup4\n        /* \"--CODEGEN--\":30:31   */\n      dup2\n        /* \"--CODEGEN--\":27:37   */\n      lt\n        /* \"--CODEGEN--\":8:108   */\n      iszero\n      tag_358\n      jumpi\n        /* \"--CODEGEN--\":99:100   */\n      dup1\n        /* \"--CODEGEN--\":94:97   */\n      dup3\n        /* \"--CODEGEN--\":90:101   */\n      add\n        /* \"--CODEGEN--\":84:102   */\n      mload\n        /* \"--CODEGEN--\":80:81   */\n      dup2\n        /* \"--CODEGEN--\":75:78   */\n      dup5\n        /* \"--CODEGEN--\":71:82   */\n      add\n        /* \"--CODEGEN--\":64:103   */\n      mstore\n        /* \"--CODEGEN--\":52:54   */\n      0x20\n        /* \"--CODEGEN--\":49:50   */\n      dup2\n        /* \"--CODEGEN--\":45:55   */\n      add\n        /* \"--CODEGEN--\":40:55   */\n      swap1\n      pop\n        /* \"--CODEGEN--\":8:108   */\n      jump(tag_356)\n    tag_358:\n        /* \"--CODEGEN--\":12:26   */\n      pop\n        /* \"contracts/pair.sol\":10909:11007  IUniswapV2Callee(to).uniswapV2Call(msg.sender, tokensData.amount0Out, tokensData.amount1Out, data) */\n      pop\n      pop\n      pop\n      swap1\n      pop\n      swap1\n      dup2\n      add\n      swap1\n      0x1f\n      and\n      dup1\n      iszero\n      tag_359\n      jumpi\n      dup1\n      dup3\n      sub\n      dup1\n      mload\n      0x01\n      dup4\n      0x20\n      sub\n      0x0100\n      exp\n      sub\n      not\n      and\n      dup2\n      mstore\n      0x20\n      add\n      swap2\n      pop\n    tag_359:\n      pop\n      swap6\n      pop\n      pop\n      pop\n      pop\n      pop\n      pop\n      0x00\n      mload(0x40)\n      dup1\n      dup4\n      sub\n      dup2\n      0x00\n      dup8\n      dup1\n      extcodesize\n      iszero\n        /* \"--CODEGEN--\":8:17   */\n      dup1\n        /* \"--CODEGEN--\":5:7   */\n      iszero\n      tag_360\n      jumpi\n        /* \"--CODEGEN--\":30:31   */\n      0x00\n        /* \"--CODEGEN--\":27:28   */\n      dup1\n        /* \"--CODEGEN--\":20:32   */\n      revert\n        /* \"--CODEGEN--\":5:7   */\n    tag_360:\n        /* \"contracts/pair.sol\":10909:11007  IUniswapV2Callee(to).uniswapV2Call(msg.sender, tokensData.amount0Out, tokensData.amount1Out, data) */\n      pop\n      gas\n      call\n      iszero\n        /* \"--CODEGEN--\":8:17   */\n      dup1\n        /* \"--CODEGEN--\":5:7   */\n      iszero\n      tag_361\n      jumpi\n        /* \"--CODEGEN--\":45:61   */\n      returndatasize\n        /* \"--CODEGEN--\":42:43   */\n      0x00\n        /* \"--CODEGEN--\":39:40   */\n      dup1\n        /* \"--CODEGEN--\":24:62   */\n      returndatacopy\n        /* \"--CODEGEN--\":77:93   */\n      returndatasize\n        /* \"--CODEGEN--\":74:75   */\n      0x00\n        /* \"--CODEGEN--\":67:94   */\n      revert\n        /* \"--CODEGEN--\":5:7   */\n    tag_361:\n        /* \"contracts/pair.sol\":10909:11007  IUniswapV2Callee(to).uniswapV2Call(msg.sender, tokensData.amount0Out, tokensData.amount1Out, data) */\n      pop\n      pop\n      pop\n      pop\n        /* \"contracts/pair.sol\":10888:11007  if (data.length > 0) IUniswapV2Callee(to).uniswapV2Call(msg.sender, tokensData.amount0Out, tokensData.amount1Out, data) */\n    tag_355:\n        /* \"contracts/pair.sol\":11044:11054  tokensData */\n      dup8\n        /* \"contracts/pair.sol\":11044:11061  tokensData.token0 */\n      0x00\n      add\n      mload\n        /* \"contracts/pair.sol\":11037:11072  IERC20(tokensData.token0).balanceOf */\n      0xffffffffffffffffffffffffffffffffffffffff\n      and\n      0x70a08231\n        /* \"contracts/pair.sol\":11081:11085  this */\n      address\n        /* \"contracts/pair.sol\":11037:11087  IERC20(tokensData.token0).balanceOf(address(this)) */\n      mload(0x40)\n      dup3\n      0xffffffff\n      and\n      0xe0\n      shl\n      dup2\n      mstore\n      0x04\n      add\n      dup1\n      dup3\n      0xffffffffffffffffffffffffffffffffffffffff\n      and\n      0xffffffffffffffffffffffffffffffffffffffff\n      and\n      dup2\n      mstore\n      0x20\n      add\n      swap2\n      pop\n      pop\n      0x20\n      mload(0x40)\n      dup1\n      dup4\n      sub\n      dup2\n      dup7\n      dup1\n      extcodesize\n      iszero\n        /* \"--CODEGEN--\":8:17   */\n      dup1\n        /* \"--CODEGEN--\":5:7   */\n      iszero\n      tag_362\n      jumpi\n        /* \"--CODEGEN--\":30:31   */\n      0x00\n        /* \"--CODEGEN--\":27:28   */\n      dup1\n        /* \"--CODEGEN--\":20:32   */\n      revert\n        /* \"--CODEGEN--\":5:7   */\n    tag_362:\n        /* \"contracts/pair.sol\":11037:11087  IERC20(tokensData.token0).balanceOf(address(this)) */\n      pop\n      gas\n      staticcall\n      iszero\n        /* \"--CODEGEN--\":8:17   */\n      dup1\n        /* \"--CODEGEN--\":5:7   */\n      iszero\n      tag_363\n      jumpi\n        /* \"--CODEGEN--\":45:61   */\n      returndatasize\n        /* \"--CODEGEN--\":42:43   */\n      0x00\n        /* \"--CODEGEN--\":39:40   */\n      dup1\n        /* \"--CODEGEN--\":24:62   */\n      returndatacopy\n        /* \"--CODEGEN--\":77:93   */\n      returndatasize\n        /* \"--CODEGEN--\":74:75   */\n      0x00\n        /* \"--CODEGEN--\":67:94   */\n      revert\n        /* \"--CODEGEN--\":5:7   */\n    tag_363:\n        /* \"contracts/pair.sol\":11037:11087  IERC20(tokensData.token0).balanceOf(address(this)) */\n      pop\n      pop\n      pop\n      pop\n      mload(0x40)\n      returndatasize\n        /* \"--CODEGEN--\":13:15   */\n      0x20\n        /* \"--CODEGEN--\":8:11   */\n      dup2\n        /* \"--CODEGEN--\":5:16   */\n      lt\n        /* \"--CODEGEN--\":2:4   */\n      iszero\n      tag_364\n      jumpi\n        /* \"--CODEGEN--\":29:30   */\n      0x00\n        /* \"--CODEGEN--\":26:27   */\n      dup1\n        /* \"--CODEGEN--\":19:31   */\n      revert\n        /* \"--CODEGEN--\":2:4   */\n    tag_364:\n        /* \"contracts/pair.sol\":11037:11087  IERC20(tokensData.token0).balanceOf(address(this)) */\n      dup2\n      add\n      swap1\n      dup1\n      dup1\n      mload\n      swap1\n      0x20\n      add\n      swap1\n      swap3\n      swap2\n      swap1\n      pop\n      pop\n      pop\n        /* \"contracts/pair.sol\":11015:11025  tokensData */\n      dup9\n        /* \"contracts/pair.sol\":11015:11034  tokensData.balance0 */\n      0x80\n      add\n        /* \"contracts/pair.sol\":11015:11087  tokensData.balance0 = IERC20(tokensData.token0).balanceOf(address(this)) */\n      dup2\n      dup2\n      mstore\n      pop\n      pop\n        /* \"contracts/pair.sol\":11124:11134  tokensData */\n      dup8\n        /* \"contracts/pair.sol\":11124:11141  tokensData.token1 */\n      0x20\n      add\n      mload\n        /* \"contracts/pair.sol\":11117:11152  IERC20(tokensData.token1).balanceOf */\n      0xffffffffffffffffffffffffffffffffffffffff\n      and\n      0x70a08231\n        /* \"contracts/pair.sol\":11161:11165  this */\n      address\n        /* \"contracts/pair.sol\":11117:11167  IERC20(tokensData.token1).balanceOf(address(this)) */\n      mload(0x40)\n      dup3\n      0xffffffff\n      and\n      0xe0\n      shl\n      dup2\n      mstore\n      0x04\n      add\n      dup1\n      dup3\n      0xffffffffffffffffffffffffffffffffffffffff\n      and\n      0xffffffffffffffffffffffffffffffffffffffff\n      and\n      dup2\n      mstore\n      0x20\n      add\n      swap2\n      pop\n      pop\n      0x20\n      mload(0x40)\n      dup1\n      dup4\n      sub\n      dup2\n      dup7\n      dup1\n      extcodesize\n      iszero\n        /* \"--CODEGEN--\":8:17   */\n      dup1\n        /* \"--CODEGEN--\":5:7   */\n      iszero\n      tag_365\n      jumpi\n        /* \"--CODEGEN--\":30:31   */\n      0x00\n        /* \"--CODEGEN--\":27:28   */\n      dup1\n        /* \"--CODEGEN--\":20:32   */\n      revert\n        /* \"--CODEGEN--\":5:7   */\n    tag_365:\n        /* \"contracts/pair.sol\":11117:11167  IERC20(tokensData.token1).balanceOf(address(this)) */\n      pop\n      gas\n      staticcall\n      iszero\n        /* \"--CODEGEN--\":8:17   */\n      dup1\n        /* \"--CODEGEN--\":5:7   */\n      iszero\n      tag_366\n      jumpi\n        /* \"--CODEGEN--\":45:61   */\n      returndatasize\n        /* \"--CODEGEN--\":42:43   */\n      0x00\n        /* \"--CODEGEN--\":39:40   */\n      dup1\n        /* \"--CODEGEN--\":24:62   */\n      returndatacopy\n        /* \"--CODEGEN--\":77:93   */\n      returndatasize\n        /* \"--CODEGEN--\":74:75   */\n      0x00\n        /* \"--CODEGEN--\":67:94   */\n      revert\n        /* \"--CODEGEN--\":5:7   */\n    tag_366:\n        /* \"contracts/pair.sol\":11117:11167  IERC20(tokensData.token1).balanceOf(address(this)) */\n      pop\n      pop\n      pop\n      pop\n      mload(0x40)\n      returndatasize\n        /* \"--CODEGEN--\":13:15   */\n      0x20\n        /* \"--CODEGEN--\":8:11   */\n      dup2\n        /* \"--CODEGEN--\":5:16   */\n      lt\n        /* \"--CODEGEN--\":2:4   */\n      iszero\n      tag_367\n      jumpi\n        /* \"--CODEGEN--\":29:30   */\n      0x00\n        /* \"--CODEGEN--\":26:27   */\n      dup1\n        /* \"--CODEGEN--\":19:31   */\n      revert\n        /* \"--CODEGEN--\":2:4   */\n    tag_367:\n        /* \"contracts/pair.sol\":11117:11167  IERC20(tokensData.token1).balanceOf(address(this)) */\n      dup2\n      add\n      swap1\n      dup1\n      dup1\n      mload\n      swap1\n      0x20\n      add\n      swap1\n      swap3\n      swap2\n      swap1\n      pop\n      pop\n      pop\n        /* \"contracts/pair.sol\":11095:11105  tokensData */\n      dup9\n        /* \"contracts/pair.sol\":11095:11114  tokensData.balance1 */\n      0xa0\n      add\n        /* \"contracts/pair.sol\":11095:11167  tokensData.balance1 = IERC20(tokensData.token1).balanceOf(address(this)) */\n      dup2\n      dup2\n      mstore\n      pop\n      pop\n        /* \"contracts/pair.sol\":11180:11194  uint amount0In */\n      0x00\n        /* \"contracts/pair.sol\":11231:11241  tokensData */\n      dup9\n        /* \"contracts/pair.sol\":11231:11252  tokensData.amount0Out */\n      0x40\n      add\n      mload\n        /* \"contracts/pair.sol\":11219:11228  _reserve0 */\n      dup6\n        /* \"contracts/pair.sol\":11219:11252  _reserve0 - tokensData.amount0Out */\n      0xffffffffffffffffffffffffffff\n      and\n      sub\n        /* \"contracts/pair.sol\":11197:11207  tokensData */\n      dup10\n        /* \"contracts/pair.sol\":11197:11216  tokensData.balance0 */\n      0x80\n      add\n      mload\n        /* \"contracts/pair.sol\":11197:11252  tokensData.balance0 > _reserve0 - tokensData.amount0Out */\n      gt\n        /* \"contracts/pair.sol\":11197:11316  tokensData.balance0 > _reserve0 - tokensData.amount0Out ? tokensData.balance0 - (_reserve0 - tokensData.amount0Out) : 0 */\n      tag_368\n      jumpi\n        /* \"contracts/pair.sol\":11315:11316  0 */\n      0x00\n        /* \"contracts/pair.sol\":11197:11316  tokensData.balance0 > _reserve0 - tokensData.amount0Out ? tokensData.balance0 - (_reserve0 - tokensData.amount0Out) : 0 */\n      jump(tag_369)\n    tag_368:\n        /* \"contracts/pair.sol\":11290:11300  tokensData */\n      dup9\n        /* \"contracts/pair.sol\":11290:11311  tokensData.amount0Out */\n      0x40\n      add\n      mload\n        /* \"contracts/pair.sol\":11278:11287  _reserve0 */\n      dup6\n        /* \"contracts/pair.sol\":11278:11311  _reserve0 - tokensData.amount0Out */\n      0xffffffffffffffffffffffffffff\n      and\n      sub\n        /* \"contracts/pair.sol\":11255:11265  tokensData */\n      dup10\n        /* \"contracts/pair.sol\":11255:11274  tokensData.balance0 */\n      0x80\n      add\n      mload\n        /* \"contracts/pair.sol\":11255:11312  tokensData.balance0 - (_reserve0 - tokensData.amount0Out) */\n      sub\n        /* \"contracts/pair.sol\":11197:11316  tokensData.balance0 > _reserve0 - tokensData.amount0Out ? tokensData.balance0 - (_reserve0 - tokensData.amount0Out) : 0 */\n    tag_369:\n        /* \"contracts/pair.sol\":11180:11316  uint amount0In = tokensData.balance0 > _reserve0 - tokensData.amount0Out ? tokensData.balance0 - (_reserve0 - tokensData.amount0Out) : 0 */\n      swap1\n      pop\n        /* \"contracts/pair.sol\":11322:11336  uint amount1In */\n      0x00\n        /* \"contracts/pair.sol\":11373:11383  tokensData */\n      dup10\n        /* \"contracts/pair.sol\":11373:11394  tokensData.amount1Out */\n      0x60\n      add\n      mload\n        /* \"contracts/pair.sol\":11361:11370  _reserve1 */\n      dup6\n        /* \"contracts/pair.sol\":11361:11394  _reserve1 - tokensData.amount1Out */\n      0xffffffffffffffffffffffffffff\n      and\n      sub\n        /* \"contracts/pair.sol\":11339:11349  tokensData */\n      dup11\n        /* \"contracts/pair.sol\":11339:11358  tokensData.balance1 */\n      0xa0\n      add\n      mload\n        /* \"contracts/pair.sol\":11339:11394  tokensData.balance1 > _reserve1 - tokensData.amount1Out */\n      gt\n        /* \"contracts/pair.sol\":11339:11458  tokensData.balance1 > _reserve1 - tokensData.amount1Out ? tokensData.balance1 - (_reserve1 - tokensData.amount1Out) : 0 */\n      tag_370\n      jumpi\n        /* \"contracts/pair.sol\":11457:11458  0 */\n      0x00\n        /* \"contracts/pair.sol\":11339:11458  tokensData.balance1 > _reserve1 - tokensData.amount1Out ? tokensData.balance1 - (_reserve1 - tokensData.amount1Out) : 0 */\n      jump(tag_371)\n    tag_370:\n        /* \"contracts/pair.sol\":11432:11442  tokensData */\n      dup10\n        /* \"contracts/pair.sol\":11432:11453  tokensData.amount1Out */\n      0x60\n      add\n      mload\n        /* \"contracts/pair.sol\":11420:11429  _reserve1 */\n      dup6\n        /* \"contracts/pair.sol\":11420:11453  _reserve1 - tokensData.amount1Out */\n      0xffffffffffffffffffffffffffff\n      and\n      sub\n        /* \"contracts/pair.sol\":11397:11407  tokensData */\n      dup11\n        /* \"contracts/pair.sol\":11397:11416  tokensData.balance1 */\n      0xa0\n      add\n      mload\n        /* \"contracts/pair.sol\":11397:11454  tokensData.balance1 - (_reserve1 - tokensData.amount1Out) */\n      sub\n        /* \"contracts/pair.sol\":11339:11458  tokensData.balance1 > _reserve1 - tokensData.amount1Out ? tokensData.balance1 - (_reserve1 - tokensData.amount1Out) : 0 */\n    tag_371:\n        /* \"contracts/pair.sol\":11322:11458  uint amount1In = tokensData.balance1 > _reserve1 - tokensData.amount1Out ? tokensData.balance1 - (_reserve1 - tokensData.amount1Out) : 0 */\n      swap1\n      pop\n        /* \"contracts/pair.sol\":11484:11485  0 */\n      0x00\n        /* \"contracts/pair.sol\":11472:11481  amount0In */\n      dup3\n        /* \"contracts/pair.sol\":11472:11485  amount0In > 0 */\n      gt\n        /* \"contracts/pair.sol\":11472:11502  amount0In > 0 || amount1In > 0 */\n      dup1\n      tag_372\n      jumpi\n      pop\n        /* \"contracts/pair.sol\":11501:11502  0 */\n      0x00\n        /* \"contracts/pair.sol\":11489:11498  amount1In */\n      dup2\n        /* \"contracts/pair.sol\":11489:11502  amount1In > 0 */\n      gt\n        /* \"contracts/pair.sol\":11472:11502  amount0In > 0 || amount1In > 0 */\n    tag_372:\n        /* \"contracts/pair.sol\":11464:11547  require(amount0In > 0 || amount1In > 0, 'eZKaliburPair: INSUFFICIENT_INPUT_AMOUNT') */\n      tag_373\n      jumpi\n      mload(0x40)\n      0x08c379a000000000000000000000000000000000000000000000000000000000\n      dup2\n      mstore\n      0x04\n      add\n      dup1\n      dup1\n      0x20\n      add\n      dup3\n      dup2\n      sub\n      dup3\n      mstore\n      0x28\n      dup2\n      mstore\n      0x20\n      add\n      dup1\n      data_b31389cdce9c235fb73cf94e115b26cc6b115463d873636778ed56513abefea0\n      0x28\n      swap2\n      codecopy\n      0x40\n      add\n      swap2\n      pop\n      pop\n      mload(0x40)\n      dup1\n      swap2\n      sub\n      swap1\n      revert\n    tag_373:\n        /* \"contracts/pair.sol\":606:612  100000 */\n      0x0186a0\n        /* \"contracts/pair.sol\":11581:11613  amount0In.mul(_token0FeePercent) */\n      tag_374\n        /* \"contracts/pair.sol\":11595:11612  _token0FeePercent */\n      dup6\n        /* \"contracts/pair.sol\":11581:11613  amount0In.mul(_token0FeePercent) */\n      0xffff\n      and\n        /* \"contracts/pair.sol\":11581:11590  amount0In */\n      dup5\n        /* \"contracts/pair.sol\":11581:11594  amount0In.mul */\n      tag_239\n      swap1\n        /* \"contracts/pair.sol\":11581:11613  amount0In.mul(_token0FeePercent) */\n      swap2\n      swap1\n      0xffffffff\n      and\n      jump\t// in\n    tag_374:\n        /* \"contracts/pair.sol\":11581:11631  amount0In.mul(_token0FeePercent) / FEE_DENOMINATOR */\n      dup2\n      tag_375\n      jumpi\n      invalid\n    tag_375:\n      div\n        /* \"contracts/pair.sol\":11554:11564  tokensData */\n      dup11\n        /* \"contracts/pair.sol\":11554:11578  tokensData.remainingFee0 */\n      0xc0\n      add\n        /* \"contracts/pair.sol\":11554:11631  tokensData.remainingFee0 = amount0In.mul(_token0FeePercent) / FEE_DENOMINATOR */\n      dup2\n      dup2\n      mstore\n      pop\n      pop\n        /* \"contracts/pair.sol\":606:612  100000 */\n      0x0186a0\n        /* \"contracts/pair.sol\":11664:11696  amount1In.mul(_token1FeePercent) */\n      tag_376\n        /* \"contracts/pair.sol\":11678:11695  _token1FeePercent */\n      dup5\n        /* \"contracts/pair.sol\":11664:11696  amount1In.mul(_token1FeePercent) */\n      0xffff\n      and\n        /* \"contracts/pair.sol\":11664:11673  amount1In */\n      dup4\n        /* \"contracts/pair.sol\":11664:11677  amount1In.mul */\n      tag_239\n      swap1\n        /* \"contracts/pair.sol\":11664:11696  amount1In.mul(_token1FeePercent) */\n      swap2\n      swap1\n      0xffffffff\n      and\n      jump\t// in\n    tag_376:\n        /* \"contracts/pair.sol\":11664:11714  amount1In.mul(_token1FeePercent) / FEE_DENOMINATOR */\n      dup2\n      tag_377\n      jumpi\n      invalid\n    tag_377:\n      div\n        /* \"contracts/pair.sol\":11637:11647  tokensData */\n      dup11\n        /* \"contracts/pair.sol\":11637:11661  tokensData.remainingFee1 */\n      0xe0\n      add\n        /* \"contracts/pair.sol\":11637:11714  tokensData.remainingFee1 = amount1In.mul(_token1FeePercent) / FEE_DENOMINATOR */\n      dup2\n      dup2\n      mstore\n      pop\n      pop\n        /* \"contracts/pair.sol\":11772:11780  uint fee */\n      0x00\n        /* \"contracts/pair.sol\":11783:11784  0 */\n      dup1\n        /* \"contracts/pair.sol\":11772:11784  uint fee = 0 */\n      swap1\n      pop\n        /* \"contracts/pair.sol\":11793:11819  uint referrerInputFeeShare */\n      0x00\n        /* \"contracts/pair.sol\":11842:11843  0 */\n      dup1\n        /* \"contracts/pair.sol\":11822:11844  referrer != address(0) */\n      0xffffffffffffffffffffffffffffffffffffffff\n      and\n        /* \"contracts/pair.sol\":11822:11830  referrer */\n      dup10\n        /* \"contracts/pair.sol\":11822:11844  referrer != address(0) */\n      0xffffffffffffffffffffffffffffffffffffffff\n      and\n      eq\n      iszero\n        /* \"contracts/pair.sol\":11822:11896  referrer != address(0) ? IFactory(factory).referrersFeeShare(referrer) : 0 */\n      tag_378\n      jumpi\n        /* \"contracts/pair.sol\":11895:11896  0 */\n      0x00\n        /* \"contracts/pair.sol\":11822:11896  referrer != address(0) ? IFactory(factory).referrersFeeShare(referrer) : 0 */\n      jump(tag_379)\n    tag_378:\n        /* \"contracts/pair.sol\":11856:11863  factory */\n      0x05\n      0x00\n      swap1\n      sload\n      swap1\n      0x0100\n      exp\n      swap1\n      div\n      0xffffffffffffffffffffffffffffffffffffffff\n      and\n        /* \"contracts/pair.sol\":11847:11882  IFactory(factory).referrersFeeShare */\n      0xffffffffffffffffffffffffffffffffffffffff\n      and\n      0x7183d47c\n        /* \"contracts/pair.sol\":11883:11891  referrer */\n      dup11\n        /* \"contracts/pair.sol\":11847:11892  IFactory(factory).referrersFeeShare(referrer) */\n      mload(0x40)\n      dup3\n      0xffffffff\n      and\n      0xe0\n      shl\n      dup2\n      mstore\n      0x04\n      add\n      dup1\n      dup3\n      0xffffffffffffffffffffffffffffffffffffffff\n      and\n      0xffffffffffffffffffffffffffffffffffffffff\n      and\n      dup2\n      mstore\n      0x20\n      add\n      swap2\n      pop\n      pop\n      0x20\n      mload(0x40)\n      dup1\n      dup4\n      sub\n      dup2\n      dup7\n      dup1\n      extcodesize\n      iszero\n        /* \"--CODEGEN--\":8:17   */\n      dup1\n        /* \"--CODEGEN--\":5:7   */\n      iszero\n      tag_380\n      jumpi\n        /* \"--CODEGEN--\":30:31   */\n      0x00\n        /* \"--CODEGEN--\":27:28   */\n      dup1\n        /* \"--CODEGEN--\":20:32   */\n      revert\n        /* \"--CODEGEN--\":5:7   */\n    tag_380:\n        /* \"contracts/pair.sol\":11847:11892  IFactory(factory).referrersFeeShare(referrer) */\n      pop\n      gas\n      staticcall\n      iszero\n        /* \"--CODEGEN--\":8:17   */\n      dup1\n        /* \"--CODEGEN--\":5:7   */\n      iszero\n      tag_381\n      jumpi\n        /* \"--CODEGEN--\":45:61   */\n      returndatasize\n        /* \"--CODEGEN--\":42:43   */\n      0x00\n        /* \"--CODEGEN--\":39:40   */\n      dup1\n        /* \"--CODEGEN--\":24:62   */\n      returndatacopy\n        /* \"--CODEGEN--\":77:93   */\n      returndatasize\n        /* \"--CODEGEN--\":74:75   */\n      0x00\n        /* \"--CODEGEN--\":67:94   */\n      revert\n        /* \"--CODEGEN--\":5:7   */\n    tag_381:\n        /* \"contracts/pair.sol\":11847:11892  IFactory(factory).referrersFeeShare(referrer) */\n      pop\n      pop\n      pop\n      pop\n      mload(0x40)\n      returndatasize\n        /* \"--CODEGEN--\":13:15   */\n      0x20\n        /* \"--CODEGEN--\":8:11   */\n      dup2\n        /* \"--CODEGEN--\":5:16   */\n      lt\n        /* \"--CODEGEN--\":2:4   */\n      iszero\n      tag_382\n      jumpi\n        /* \"--CODEGEN--\":29:30   */\n      0x00\n        /* \"--CODEGEN--\":26:27   */\n      dup1\n        /* \"--CODEGEN--\":19:31   */\n      revert\n        /* \"--CODEGEN--\":2:4   */\n    tag_382:\n        /* \"contracts/pair.sol\":11847:11892  IFactory(factory).referrersFeeShare(referrer) */\n      dup2\n      add\n      swap1\n      dup1\n      dup1\n      mload\n      swap1\n      0x20\n      add\n      swap1\n      swap3\n      swap2\n      swap1\n      pop\n      pop\n      pop\n        /* \"contracts/pair.sol\":11822:11896  referrer != address(0) ? IFactory(factory).referrersFeeShare(referrer) : 0 */\n    tag_379:\n        /* \"contracts/pair.sol\":11793:11896  uint referrerInputFeeShare = referrer != address(0) ? IFactory(factory).referrersFeeShare(referrer) : 0 */\n      swap1\n      pop\n        /* \"contracts/pair.sol\":11932:11933  0 */\n      0x00\n        /* \"contracts/pair.sol\":11908:11929  referrerInputFeeShare */\n      dup2\n        /* \"contracts/pair.sol\":11908:11933  referrerInputFeeShare > 0 */\n      gt\n        /* \"contracts/pair.sol\":11904:12488  if (referrerInputFeeShare > 0) {... */\n      iszero\n      tag_383\n      jumpi\n        /* \"contracts/pair.sol\":11961:11962  0 */\n      0x00\n        /* \"contracts/pair.sol\":11949:11958  amount0In */\n      dup5\n        /* \"contracts/pair.sol\":11949:11962  amount0In > 0 */\n      gt\n        /* \"contracts/pair.sol\":11945:12208  if (amount0In > 0) {... */\n      iszero\n      tag_384\n      jumpi\n        /* \"contracts/pair.sol\":12064:12065  2 */\n      0x02\n        /* \"contracts/pair.sol\":606:612  100000 */\n      0x0186a0\n        /* \"contracts/pair.sol\":12045:12065  FEE_DENOMINATOR ** 2 */\n      exp\n        /* \"contracts/pair.sol\":11982:12041  amount0In.mul(referrerInputFeeShare).mul(_token0FeePercent) */\n      tag_385\n        /* \"contracts/pair.sol\":12023:12040  _token0FeePercent */\n      dup8\n        /* \"contracts/pair.sol\":11982:12041  amount0In.mul(referrerInputFeeShare).mul(_token0FeePercent) */\n      0xffff\n      and\n        /* \"contracts/pair.sol\":11982:12018  amount0In.mul(referrerInputFeeShare) */\n      tag_386\n        /* \"contracts/pair.sol\":11996:12017  referrerInputFeeShare */\n      dup5\n        /* \"contracts/pair.sol\":11982:11991  amount0In */\n      dup9\n        /* \"contracts/pair.sol\":11982:11995  amount0In.mul */\n      tag_239\n      swap1\n        /* \"contracts/pair.sol\":11982:12018  amount0In.mul(referrerInputFeeShare) */\n      swap2\n      swap1\n      0xffffffff\n      and\n      jump\t// in\n    tag_386:\n        /* \"contracts/pair.sol\":11982:12022  amount0In.mul(referrerInputFeeShare).mul */\n      tag_239\n      swap1\n        /* \"contracts/pair.sol\":11982:12041  amount0In.mul(referrerInputFeeShare).mul(_token0FeePercent) */\n      swap2\n      swap1\n      0xffffffff\n      and\n      jump\t// in\n    tag_385:\n        /* \"contracts/pair.sol\":11982:12066  amount0In.mul(referrerInputFeeShare).mul(_token0FeePercent) / (FEE_DENOMINATOR ** 2) */\n      dup2\n      tag_387\n      jumpi\n      invalid\n    tag_387:\n      div\n        /* \"contracts/pair.sol\":11976:12066  fee = amount0In.mul(referrerInputFeeShare).mul(_token0FeePercent) / (FEE_DENOMINATOR ** 2) */\n      swap2\n      pop\n        /* \"contracts/pair.sol\":12105:12138  tokensData.remainingFee0.sub(fee) */\n      tag_388\n        /* \"contracts/pair.sol\":12134:12137  fee */\n      dup3\n        /* \"contracts/pair.sol\":12105:12115  tokensData */\n      dup14\n        /* \"contracts/pair.sol\":12105:12129  tokensData.remainingFee0 */\n      0xc0\n      add\n      mload\n        /* \"contracts/pair.sol\":12105:12133  tokensData.remainingFee0.sub */\n      tag_173\n      swap1\n        /* \"contracts/pair.sol\":12105:12138  tokensData.remainingFee0.sub(fee) */\n      swap2\n      swap1\n      0xffffffff\n      and\n      jump\t// in\n    tag_388:\n        /* \"contracts/pair.sol\":12078:12088  tokensData */\n      dup13\n        /* \"contracts/pair.sol\":12078:12102  tokensData.remainingFee0 */\n      0xc0\n      add\n        /* \"contracts/pair.sol\":12078:12138  tokensData.remainingFee0 = tokensData.remainingFee0.sub(fee) */\n      dup2\n      dup2\n      mstore\n      pop\n      pop\n        /* \"contracts/pair.sol\":12150:12197  _safeTransfer(tokensData.token0, referrer, fee) */\n      tag_389\n        /* \"contracts/pair.sol\":12164:12174  tokensData */\n      dup13\n        /* \"contracts/pair.sol\":12164:12181  tokensData.token0 */\n      0x00\n      add\n      mload\n        /* \"contracts/pair.sol\":12183:12191  referrer */\n      dup11\n        /* \"contracts/pair.sol\":12193:12196  fee */\n      dup5\n        /* \"contracts/pair.sol\":12150:12163  _safeTransfer */\n      tag_279\n        /* \"contracts/pair.sol\":12150:12197  _safeTransfer(tokensData.token0, referrer, fee) */\n      jump\t// in\n    tag_389:\n        /* \"contracts/pair.sol\":11945:12208  if (amount0In > 0) {... */\n    tag_384:\n        /* \"contracts/pair.sol\":12233:12234  0 */\n      0x00\n        /* \"contracts/pair.sol\":12221:12230  amount1In */\n      dup4\n        /* \"contracts/pair.sol\":12221:12234  amount1In > 0 */\n      gt\n        /* \"contracts/pair.sol\":12217:12480  if (amount1In > 0) {... */\n      iszero\n      tag_390\n      jumpi\n        /* \"contracts/pair.sol\":12336:12337  2 */\n      0x02\n        /* \"contracts/pair.sol\":606:612  100000 */\n      0x0186a0\n        /* \"contracts/pair.sol\":12317:12337  FEE_DENOMINATOR ** 2 */\n      exp\n        /* \"contracts/pair.sol\":12254:12313  amount1In.mul(referrerInputFeeShare).mul(_token1FeePercent) */\n      tag_391\n        /* \"contracts/pair.sol\":12295:12312  _token1FeePercent */\n      dup7\n        /* \"contracts/pair.sol\":12254:12313  amount1In.mul(referrerInputFeeShare).mul(_token1FeePercent) */\n      0xffff\n      and\n        /* \"contracts/pair.sol\":12254:12290  amount1In.mul(referrerInputFeeShare) */\n      tag_392\n        /* \"contracts/pair.sol\":12268:12289  referrerInputFeeShare */\n      dup5\n        /* \"contracts/pair.sol\":12254:12263  amount1In */\n      dup8\n        /* \"contracts/pair.sol\":12254:12267  amount1In.mul */\n      tag_239\n      swap1\n        /* \"contracts/pair.sol\":12254:12290  amount1In.mul(referrerInputFeeShare) */\n      swap2\n      swap1\n      0xffffffff\n      and\n      jump\t// in\n    tag_392:\n        /* \"contracts/pair.sol\":12254:12294  amount1In.mul(referrerInputFeeShare).mul */\n      tag_239\n      swap1\n        /* \"contracts/pair.sol\":12254:12313  amount1In.mul(referrerInputFeeShare).mul(_token1FeePercent) */\n      swap2\n      swap1\n      0xffffffff\n      and\n      jump\t// in\n    tag_391:\n        /* \"contracts/pair.sol\":12254:12338  amount1In.mul(referrerInputFeeShare).mul(_token1FeePercent) / (FEE_DENOMINATOR ** 2) */\n      dup2\n      tag_393\n      jumpi\n      invalid\n    tag_393:\n      div\n        /* \"contracts/pair.sol\":12248:12338  fee = amount1In.mul(referrerInputFeeShare).mul(_token1FeePercent) / (FEE_DENOMINATOR ** 2) */\n      swap2\n      pop\n        /* \"contracts/pair.sol\":12377:12410  tokensData.remainingFee1.sub(fee) */\n      tag_394\n        /* \"contracts/pair.sol\":12406:12409  fee */\n      dup3\n        /* \"contracts/pair.sol\":12377:12387  tokensData */\n      dup14\n        /* \"contracts/pair.sol\":12377:12401  tokensData.remainingFee1 */\n      0xe0\n      add\n      mload\n        /* \"contracts/pair.sol\":12377:12405  tokensData.remainingFee1.sub */\n      tag_173\n      swap1\n        /* \"contracts/pair.sol\":12377:12410  tokensData.remainingFee1.sub(fee) */\n      swap2\n      swap1\n      0xffffffff\n      and\n      jump\t// in\n    tag_394:\n        /* \"contracts/pair.sol\":12350:12360  tokensData */\n      dup13\n        /* \"contracts/pair.sol\":12350:12374  tokensData.remainingFee1 */\n      0xe0\n      add\n        /* \"contracts/pair.sol\":12350:12410  tokensData.remainingFee1 = tokensData.remainingFee1.sub(fee) */\n      dup2\n      dup2\n      mstore\n      pop\n      pop\n        /* \"contracts/pair.sol\":12422:12469  _safeTransfer(tokensData.token1, referrer, fee) */\n      tag_395\n        /* \"contracts/pair.sol\":12436:12446  tokensData */\n      dup13\n        /* \"contracts/pair.sol\":12436:12453  tokensData.token1 */\n      0x20\n      add\n      mload\n        /* \"contracts/pair.sol\":12455:12463  referrer */\n      dup11\n        /* \"contracts/pair.sol\":12465:12468  fee */\n      dup5\n        /* \"contracts/pair.sol\":12422:12435  _safeTransfer */\n      tag_279\n        /* \"contracts/pair.sol\":12422:12469  _safeTransfer(tokensData.token1, referrer, fee) */\n      jump\t// in\n    tag_395:\n        /* \"contracts/pair.sol\":12217:12480  if (amount1In > 0) {... */\n    tag_390:\n        /* \"contracts/pair.sol\":11904:12488  if (referrerInputFeeShare > 0) {... */\n    tag_383:\n        /* \"contracts/pair.sol\":12499:12509  stableSwap */\n      0x0c\n      0x00\n      swap1\n      sload\n      swap1\n      0x0100\n      exp\n      swap1\n      div\n      0xff\n      and\n        /* \"contracts/pair.sol\":12496:13269  if(stableSwap){... */\n      iszero\n      tag_396\n      jumpi\n        /* \"contracts/pair.sol\":12521:12539  uint ownerFeeShare */\n      0x00\n        /* \"contracts/pair.sol\":12541:12554  address feeTo */\n      dup1\n        /* \"contracts/pair.sol\":12567:12574  factory */\n      0x05\n      0x00\n      swap1\n      sload\n      swap1\n      0x0100\n      exp\n      swap1\n      div\n      0xffffffffffffffffffffffffffffffffffffffff\n      and\n        /* \"contracts/pair.sol\":12558:12583  IFactory(factory).feeInfo */\n      0xffffffffffffffffffffffffffffffffffffffff\n      and\n      0x995b5aae\n        /* \"contracts/pair.sol\":12558:12585  IFactory(factory).feeInfo() */\n      mload(0x40)\n      dup2\n      0xffffffff\n      and\n      0xe0\n      shl\n      dup2\n      mstore\n      0x04\n      add\n      0x40\n      dup1\n      mload\n      dup1\n      dup4\n      sub\n      dup2\n      dup7\n      dup1\n      extcodesize\n      iszero\n        /* \"--CODEGEN--\":8:17   */\n      dup1\n        /* \"--CODEGEN--\":5:7   */\n      iszero\n      tag_397\n      jumpi\n        /* \"--CODEGEN--\":30:31   */\n      0x00\n        /* \"--CODEGEN--\":27:28   */\n      dup1\n        /* \"--CODEGEN--\":20:32   */\n      revert\n        /* \"--CODEGEN--\":5:7   */\n    tag_397:\n        /* \"contracts/pair.sol\":12558:12585  IFactory(factory).feeInfo() */\n      pop\n      gas\n      staticcall\n      iszero\n        /* \"--CODEGEN--\":8:17   */\n      dup1\n        /* \"--CODEGEN--\":5:7   */\n      iszero\n      tag_398\n      jumpi\n        /* \"--CODEGEN--\":45:61   */\n      returndatasize\n        /* \"--CODEGEN--\":42:43   */\n      0x00\n        /* \"--CODEGEN--\":39:40   */\n      dup1\n        /* \"--CODEGEN--\":24:62   */\n      returndatacopy\n        /* \"--CODEGEN--\":77:93   */\n      returndatasize\n        /* \"--CODEGEN--\":74:75   */\n      0x00\n        /* \"--CODEGEN--\":67:94   */\n      revert\n        /* \"--CODEGEN--\":5:7   */\n    tag_398:\n        /* \"contracts/pair.sol\":12558:12585  IFactory(factory).feeInfo() */\n      pop\n      pop\n      pop\n      pop\n      mload(0x40)\n      returndatasize\n        /* \"--CODEGEN--\":13:15   */\n      0x40\n        /* \"--CODEGEN--\":8:11   */\n      dup2\n        /* \"--CODEGEN--\":5:16   */\n      lt\n        /* \"--CODEGEN--\":2:4   */\n      iszero\n      tag_399\n      jumpi\n        /* \"--CODEGEN--\":29:30   */\n      0x00\n        /* \"--CODEGEN--\":26:27   */\n      dup1\n        /* \"--CODEGEN--\":19:31   */\n      revert\n        /* \"--CODEGEN--\":2:4   */\n    tag_399:\n        /* \"contracts/pair.sol\":12558:12585  IFactory(factory).feeInfo() */\n      dup2\n      add\n      swap1\n      dup1\n      dup1\n      mload\n      swap1\n      0x20\n      add\n      swap1\n      swap3\n      swap2\n      swap1\n      dup1\n      mload\n      swap1\n      0x20\n      add\n      swap1\n      swap3\n      swap2\n      swap1\n      pop\n      pop\n      pop\n        /* \"contracts/pair.sol\":12520:12585  (uint ownerFeeShare, address feeTo) = IFactory(factory).feeInfo() */\n      swap2\n      pop\n      swap2\n      pop\n        /* \"contracts/pair.sol\":12615:12616  0 */\n      0x00\n        /* \"contracts/pair.sol\":12598:12617  feeTo != address(0) */\n      0xffffffffffffffffffffffffffffffffffffffff\n      and\n        /* \"contracts/pair.sol\":12598:12603  feeTo */\n      dup2\n        /* \"contracts/pair.sol\":12598:12617  feeTo != address(0) */\n      0xffffffffffffffffffffffffffffffffffffffff\n      and\n      eq\n        /* \"contracts/pair.sol\":12595:13261  if(feeTo != address(0)) {... */\n      tag_400\n      jumpi\n        /* \"contracts/pair.sol\":12647:12708  FEE_DENOMINATOR.sub(referrerInputFeeShare).mul(ownerFeeShare) */\n      tag_401\n        /* \"contracts/pair.sol\":12694:12707  ownerFeeShare */\n      dup3\n        /* \"contracts/pair.sol\":12647:12689  FEE_DENOMINATOR.sub(referrerInputFeeShare) */\n      tag_402\n        /* \"contracts/pair.sol\":12667:12688  referrerInputFeeShare */\n      dup6\n        /* \"contracts/pair.sol\":606:612  100000 */\n      0x0186a0\n        /* \"contracts/pair.sol\":12647:12666  FEE_DENOMINATOR.sub */\n      tag_173\n      swap1\n        /* \"contracts/pair.sol\":12647:12689  FEE_DENOMINATOR.sub(referrerInputFeeShare) */\n      swap2\n      swap1\n      0xffffffff\n      and\n      jump\t// in\n    tag_402:\n        /* \"contracts/pair.sol\":12647:12693  FEE_DENOMINATOR.sub(referrerInputFeeShare).mul */\n      tag_239\n      swap1\n        /* \"contracts/pair.sol\":12647:12708  FEE_DENOMINATOR.sub(referrerInputFeeShare).mul(ownerFeeShare) */\n      swap2\n      swap1\n      0xffffffff\n      and\n      jump\t// in\n    tag_401:\n        /* \"contracts/pair.sol\":12631:12708  ownerFeeShare = FEE_DENOMINATOR.sub(referrerInputFeeShare).mul(ownerFeeShare) */\n      swap2\n      pop\n        /* \"contracts/pair.sol\":12736:12737  0 */\n      0x00\n        /* \"contracts/pair.sol\":12724:12733  amount0In */\n      dup7\n        /* \"contracts/pair.sol\":12724:12737  amount0In > 0 */\n      gt\n        /* \"contracts/pair.sol\":12720:12980  if (amount0In > 0) {... */\n      iszero\n      tag_403\n      jumpi\n        /* \"contracts/pair.sol\":12833:12834  3 */\n      0x03\n        /* \"contracts/pair.sol\":606:612  100000 */\n      0x0186a0\n        /* \"contracts/pair.sol\":12814:12834  FEE_DENOMINATOR ** 3 */\n      exp\n        /* \"contracts/pair.sol\":12759:12810  amount0In.mul(ownerFeeShare).mul(_token0FeePercent) */\n      tag_404\n        /* \"contracts/pair.sol\":12792:12809  _token0FeePercent */\n      dup10\n        /* \"contracts/pair.sol\":12759:12810  amount0In.mul(ownerFeeShare).mul(_token0FeePercent) */\n      0xffff\n      and\n        /* \"contracts/pair.sol\":12759:12787  amount0In.mul(ownerFeeShare) */\n      tag_405\n        /* \"contracts/pair.sol\":12773:12786  ownerFeeShare */\n      dup6\n        /* \"contracts/pair.sol\":12759:12768  amount0In */\n      dup11\n        /* \"contracts/pair.sol\":12759:12772  amount0In.mul */\n      tag_239\n      swap1\n        /* \"contracts/pair.sol\":12759:12787  amount0In.mul(ownerFeeShare) */\n      swap2\n      swap1\n      0xffffffff\n      and\n      jump\t// in\n    tag_405:\n        /* \"contracts/pair.sol\":12759:12791  amount0In.mul(ownerFeeShare).mul */\n      tag_239\n      swap1\n        /* \"contracts/pair.sol\":12759:12810  amount0In.mul(ownerFeeShare).mul(_token0FeePercent) */\n      swap2\n      swap1\n      0xffffffff\n      and\n      jump\t// in\n    tag_404:\n        /* \"contracts/pair.sol\":12759:12835  amount0In.mul(ownerFeeShare).mul(_token0FeePercent) / (FEE_DENOMINATOR ** 3) */\n      dup2\n      tag_406\n      jumpi\n      invalid\n    tag_406:\n      div\n        /* \"contracts/pair.sol\":12753:12835  fee = amount0In.mul(ownerFeeShare).mul(_token0FeePercent) / (FEE_DENOMINATOR ** 3) */\n      swap4\n      pop\n        /* \"contracts/pair.sol\":12876:12909  tokensData.remainingFee0.sub(fee) */\n      tag_407\n        /* \"contracts/pair.sol\":12905:12908  fee */\n      dup5\n        /* \"contracts/pair.sol\":12876:12886  tokensData */\n      dup16\n        /* \"contracts/pair.sol\":12876:12900  tokensData.remainingFee0 */\n      0xc0\n      add\n      mload\n        /* \"contracts/pair.sol\":12876:12904  tokensData.remainingFee0.sub */\n      tag_173\n      swap1\n        /* \"contracts/pair.sol\":12876:12909  tokensData.remainingFee0.sub(fee) */\n      swap2\n      swap1\n      0xffffffff\n      and\n      jump\t// in\n    tag_407:\n        /* \"contracts/pair.sol\":12849:12859  tokensData */\n      dup15\n        /* \"contracts/pair.sol\":12849:12873  tokensData.remainingFee0 */\n      0xc0\n      add\n        /* \"contracts/pair.sol\":12849:12909  tokensData.remainingFee0 = tokensData.remainingFee0.sub(fee) */\n      dup2\n      dup2\n      mstore\n      pop\n      pop\n        /* \"contracts/pair.sol\":12923:12967  _safeTransfer(tokensData.token0, feeTo, fee) */\n      tag_408\n        /* \"contracts/pair.sol\":12937:12947  tokensData */\n      dup15\n        /* \"contracts/pair.sol\":12937:12954  tokensData.token0 */\n      0x00\n      add\n      mload\n        /* \"contracts/pair.sol\":12956:12961  feeTo */\n      dup3\n        /* \"contracts/pair.sol\":12963:12966  fee */\n      dup7\n        /* \"contracts/pair.sol\":12923:12936  _safeTransfer */\n      tag_279\n        /* \"contracts/pair.sol\":12923:12967  _safeTransfer(tokensData.token0, feeTo, fee) */\n      jump\t// in\n    tag_408:\n        /* \"contracts/pair.sol\":12720:12980  if (amount0In > 0) {... */\n    tag_403:\n        /* \"contracts/pair.sol\":13007:13008  0 */\n      0x00\n        /* \"contracts/pair.sol\":12995:13004  amount1In */\n      dup6\n        /* \"contracts/pair.sol\":12995:13008  amount1In > 0 */\n      gt\n        /* \"contracts/pair.sol\":12991:13251  if (amount1In > 0) {... */\n      iszero\n      tag_409\n      jumpi\n        /* \"contracts/pair.sol\":13104:13105  3 */\n      0x03\n        /* \"contracts/pair.sol\":606:612  100000 */\n      0x0186a0\n        /* \"contracts/pair.sol\":13085:13105  FEE_DENOMINATOR ** 3 */\n      exp\n        /* \"contracts/pair.sol\":13030:13081  amount1In.mul(ownerFeeShare).mul(_token1FeePercent) */\n      tag_410\n        /* \"contracts/pair.sol\":13063:13080  _token1FeePercent */\n      dup9\n        /* \"contracts/pair.sol\":13030:13081  amount1In.mul(ownerFeeShare).mul(_token1FeePercent) */\n      0xffff\n      and\n        /* \"contracts/pair.sol\":13030:13058  amount1In.mul(ownerFeeShare) */\n      tag_411\n        /* \"contracts/pair.sol\":13044:13057  ownerFeeShare */\n      dup6\n        /* \"contracts/pair.sol\":13030:13039  amount1In */\n      dup10\n        /* \"contracts/pair.sol\":13030:13043  amount1In.mul */\n      tag_239\n      swap1\n        /* \"contracts/pair.sol\":13030:13058  amount1In.mul(ownerFeeShare) */\n      swap2\n      swap1\n      0xffffffff\n      and\n      jump\t// in\n    tag_411:\n        /* \"contracts/pair.sol\":13030:13062  amount1In.mul(ownerFeeShare).mul */\n      tag_239\n      swap1\n        /* \"contracts/pair.sol\":13030:13081  amount1In.mul(ownerFeeShare).mul(_token1FeePercent) */\n      swap2\n      swap1\n      0xffffffff\n      and\n      jump\t// in\n    tag_410:\n        /* \"contracts/pair.sol\":13030:13106  amount1In.mul(ownerFeeShare).mul(_token1FeePercent) / (FEE_DENOMINATOR ** 3) */\n      dup2\n      tag_412\n      jumpi\n      invalid\n    tag_412:\n      div\n        /* \"contracts/pair.sol\":13024:13106  fee = amount1In.mul(ownerFeeShare).mul(_token1FeePercent) / (FEE_DENOMINATOR ** 3) */\n      swap4\n      pop\n        /* \"contracts/pair.sol\":13147:13180  tokensData.remainingFee1.sub(fee) */\n      tag_413\n        /* \"contracts/pair.sol\":13176:13179  fee */\n      dup5\n        /* \"contracts/pair.sol\":13147:13157  tokensData */\n      dup16\n        /* \"contracts/pair.sol\":13147:13171  tokensData.remainingFee1 */\n      0xe0\n      add\n      mload\n        /* \"contracts/pair.sol\":13147:13175  tokensData.remainingFee1.sub */\n      tag_173\n      swap1\n        /* \"contracts/pair.sol\":13147:13180  tokensData.remainingFee1.sub(fee) */\n      swap2\n      swap1\n      0xffffffff\n      and\n      jump\t// in\n    tag_413:\n        /* \"contracts/pair.sol\":13120:13130  tokensData */\n      dup15\n        /* \"contracts/pair.sol\":13120:13144  tokensData.remainingFee1 */\n      0xe0\n      add\n        /* \"contracts/pair.sol\":13120:13180  tokensData.remainingFee1 = tokensData.remainingFee1.sub(fee) */\n      dup2\n      dup2\n      mstore\n      pop\n      pop\n        /* \"contracts/pair.sol\":13194:13238  _safeTransfer(tokensData.token1, feeTo, fee) */\n      tag_414\n        /* \"contracts/pair.sol\":13208:13218  tokensData */\n      dup15\n        /* \"contracts/pair.sol\":13208:13225  tokensData.token1 */\n      0x20\n      add\n      mload\n        /* \"contracts/pair.sol\":13227:13232  feeTo */\n      dup3\n        /* \"contracts/pair.sol\":13234:13237  fee */\n      dup7\n        /* \"contracts/pair.sol\":13194:13207  _safeTransfer */\n      tag_279\n        /* \"contracts/pair.sol\":13194:13238  _safeTransfer(tokensData.token1, feeTo, fee) */\n      jump\t// in\n    tag_414:\n        /* \"contracts/pair.sol\":12991:13251  if (amount1In > 0) {... */\n    tag_409:\n        /* \"contracts/pair.sol\":12595:13261  if(feeTo != address(0)) {... */\n    tag_400:\n        /* \"contracts/pair.sol\":12496:13269  if(stableSwap){... */\n      pop\n      pop\n    tag_396:\n        /* \"contracts/pair.sol\":13325:13326  0 */\n      0x00\n        /* \"contracts/pair.sol\":13313:13322  amount0In */\n      dup5\n        /* \"contracts/pair.sol\":13313:13326  amount0In > 0 */\n      gt\n        /* \"contracts/pair.sol\":13309:13400  if (amount0In > 0) tokensData.balance0 = IERC20(tokensData.token0).balanceOf(address(this)) */\n      iszero\n      tag_415\n      jumpi\n        /* \"contracts/pair.sol\":13357:13367  tokensData */\n      dup12\n        /* \"contracts/pair.sol\":13357:13374  tokensData.token0 */\n      0x00\n      add\n      mload\n        /* \"contracts/pair.sol\":13350:13385  IERC20(tokensData.token0).balanceOf */\n      0xffffffffffffffffffffffffffffffffffffffff\n      and\n      0x70a08231\n        /* \"contracts/pair.sol\":13394:13398  this */\n      address\n        /* \"contracts/pair.sol\":13350:13400  IERC20(tokensData.token0).balanceOf(address(this)) */\n      mload(0x40)\n      dup3\n      0xffffffff\n      and\n      0xe0\n      shl\n      dup2\n      mstore\n      0x04\n      add\n      dup1\n      dup3\n      0xffffffffffffffffffffffffffffffffffffffff\n      and\n      0xffffffffffffffffffffffffffffffffffffffff\n      and\n      dup2\n      mstore\n      0x20\n      add\n      swap2\n      pop\n      pop\n      0x20\n      mload(0x40)\n      dup1\n      dup4\n      sub\n      dup2\n      dup7\n      dup1\n      extcodesize\n      iszero\n        /* \"--CODEGEN--\":8:17   */\n      dup1\n        /* \"--CODEGEN--\":5:7   */\n      iszero\n      tag_416\n      jumpi\n        /* \"--CODEGEN--\":30:31   */\n      0x00\n        /* \"--CODEGEN--\":27:28   */\n      dup1\n        /* \"--CODEGEN--\":20:32   */\n      revert\n        /* \"--CODEGEN--\":5:7   */\n    tag_416:\n        /* \"contracts/pair.sol\":13350:13400  IERC20(tokensData.token0).balanceOf(address(this)) */\n      pop\n      gas\n      staticcall\n      iszero\n        /* \"--CODEGEN--\":8:17   */\n      dup1\n        /* \"--CODEGEN--\":5:7   */\n      iszero\n      tag_417\n      jumpi\n        /* \"--CODEGEN--\":45:61   */\n      returndatasize\n        /* \"--CODEGEN--\":42:43   */\n      0x00\n        /* \"--CODEGEN--\":39:40   */\n      dup1\n        /* \"--CODEGEN--\":24:62   */\n      returndatacopy\n        /* \"--CODEGEN--\":77:93   */\n      returndatasize\n        /* \"--CODEGEN--\":74:75   */\n      0x00\n        /* \"--CODEGEN--\":67:94   */\n      revert\n        /* \"--CODEGEN--\":5:7   */\n    tag_417:\n        /* \"contracts/pair.sol\":13350:13400  IERC20(tokensData.token0).balanceOf(address(this)) */\n      pop\n      pop\n      pop\n      pop\n      mload(0x40)\n      returndatasize\n        /* \"--CODEGEN--\":13:15   */\n      0x20\n        /* \"--CODEGEN--\":8:11   */\n      dup2\n        /* \"--CODEGEN--\":5:16   */\n      lt\n        /* \"--CODEGEN--\":2:4   */\n      iszero\n      tag_418\n      jumpi\n        /* \"--CODEGEN--\":29:30   */\n      0x00\n        /* \"--CODEGEN--\":26:27   */\n      dup1\n        /* \"--CODEGEN--\":19:31   */\n      revert\n        /* \"--CODEGEN--\":2:4   */\n    tag_418:\n        /* \"contracts/pair.sol\":13350:13400  IERC20(tokensData.token0).balanceOf(address(this)) */\n      dup2\n      add\n      swap1\n      dup1\n      dup1\n      mload\n      swap1\n      0x20\n      add\n      swap1\n      swap3\n      swap2\n      swap1\n      pop\n      pop\n      pop\n        /* \"contracts/pair.sol\":13328:13338  tokensData */\n      dup13\n        /* \"contracts/pair.sol\":13328:13347  tokensData.balance0 */\n      0x80\n      add\n        /* \"contracts/pair.sol\":13328:13400  tokensData.balance0 = IERC20(tokensData.token0).balanceOf(address(this)) */\n      dup2\n      dup2\n      mstore\n      pop\n      pop\n        /* \"contracts/pair.sol\":13309:13400  if (amount0In > 0) tokensData.balance0 = IERC20(tokensData.token0).balanceOf(address(this)) */\n    tag_415:\n        /* \"contracts/pair.sol\":13424:13425  0 */\n      0x00\n        /* \"contracts/pair.sol\":13412:13421  amount1In */\n      dup4\n        /* \"contracts/pair.sol\":13412:13425  amount1In > 0 */\n      gt\n        /* \"contracts/pair.sol\":13408:13499  if (amount1In > 0) tokensData.balance1 = IERC20(tokensData.token1).balanceOf(address(this)) */\n      iszero\n      tag_419\n      jumpi\n        /* \"contracts/pair.sol\":13456:13466  tokensData */\n      dup12\n        /* \"contracts/pair.sol\":13456:13473  tokensData.token1 */\n      0x20\n      add\n      mload\n        /* \"contracts/pair.sol\":13449:13484  IERC20(tokensData.token1).balanceOf */\n      0xffffffffffffffffffffffffffffffffffffffff\n      and\n      0x70a08231\n        /* \"contracts/pair.sol\":13493:13497  this */\n      address\n        /* \"contracts/pair.sol\":13449:13499  IERC20(tokensData.token1).balanceOf(address(this)) */\n      mload(0x40)\n      dup3\n      0xffffffff\n      and\n      0xe0\n      shl\n      dup2\n      mstore\n      0x04\n      add\n      dup1\n      dup3\n      0xffffffffffffffffffffffffffffffffffffffff\n      and\n      0xffffffffffffffffffffffffffffffffffffffff\n      and\n      dup2\n      mstore\n      0x20\n      add\n      swap2\n      pop\n      pop\n      0x20\n      mload(0x40)\n      dup1\n      dup4\n      sub\n      dup2\n      dup7\n      dup1\n      extcodesize\n      iszero\n        /* \"--CODEGEN--\":8:17   */\n      dup1\n        /* \"--CODEGEN--\":5:7   */\n      iszero\n      tag_420\n      jumpi\n        /* \"--CODEGEN--\":30:31   */\n      0x00\n        /* \"--CODEGEN--\":27:28   */\n      dup1\n        /* \"--CODEGEN--\":20:32   */\n      revert\n        /* \"--CODEGEN--\":5:7   */\n    tag_420:\n        /* \"contracts/pair.sol\":13449:13499  IERC20(tokensData.token1).balanceOf(address(this)) */\n      pop\n      gas\n      staticcall\n      iszero\n        /* \"--CODEGEN--\":8:17   */\n      dup1\n        /* \"--CODEGEN--\":5:7   */\n      iszero\n      tag_421\n      jumpi\n        /* \"--CODEGEN--\":45:61   */\n      returndatasize\n        /* \"--CODEGEN--\":42:43   */\n      0x00\n        /* \"--CODEGEN--\":39:40   */\n      dup1\n        /* \"--CODEGEN--\":24:62   */\n      returndatacopy\n        /* \"--CODEGEN--\":77:93   */\n      returndatasize\n        /* \"--CODEGEN--\":74:75   */\n      0x00\n        /* \"--CODEGEN--\":67:94   */\n      revert\n        /* \"--CODEGEN--\":5:7   */\n    tag_421:\n        /* \"contracts/pair.sol\":13449:13499  IERC20(tokensData.token1).balanceOf(address(this)) */\n      pop\n      pop\n      pop\n      pop\n      mload(0x40)\n      returndatasize\n        /* \"--CODEGEN--\":13:15   */\n      0x20\n        /* \"--CODEGEN--\":8:11   */\n      dup2\n        /* \"--CODEGEN--\":5:16   */\n      lt\n        /* \"--CODEGEN--\":2:4   */\n      iszero\n      tag_422\n      jumpi\n        /* \"--CODEGEN--\":29:30   */\n      0x00\n        /* \"--CODEGEN--\":26:27   */\n      dup1\n        /* \"--CODEGEN--\":19:31   */\n      revert\n        /* \"--CODEGEN--\":2:4   */\n    tag_422:\n        /* \"contracts/pair.sol\":13449:13499  IERC20(tokensData.token1).balanceOf(address(this)) */\n      dup2\n      add\n      swap1\n      dup1\n      dup1\n      mload\n      swap1\n      0x20\n      add\n      swap1\n      swap3\n      swap2\n      swap1\n      pop\n      pop\n      pop\n        /* \"contracts/pair.sol\":13427:13437  tokensData */\n      dup13\n        /* \"contracts/pair.sol\":13427:13446  tokensData.balance1 */\n      0xa0\n      add\n        /* \"contracts/pair.sol\":13427:13499  tokensData.balance1 = IERC20(tokensData.token1).balanceOf(address(this)) */\n      dup2\n      dup2\n      mstore\n      pop\n      pop\n        /* \"contracts/pair.sol\":13408:13499  if (amount1In > 0) tokensData.balance1 = IERC20(tokensData.token1).balanceOf(address(this)) */\n    tag_419:\n        /* \"contracts/pair.sol\":1558:1559  _ */\n      pop\n      pop\n        /* \"contracts/pair.sol\":13582:13603  uint balance0Adjusted */\n      0x00\n        /* \"contracts/pair.sol\":13606:13655  tokensData.balance0.sub(tokensData.remainingFee0) */\n      tag_423\n        /* \"contracts/pair.sol\":13630:13640  tokensData */\n      dup12\n        /* \"contracts/pair.sol\":13630:13654  tokensData.remainingFee0 */\n      0xc0\n      add\n      mload\n        /* \"contracts/pair.sol\":13606:13616  tokensData */\n      dup13\n        /* \"contracts/pair.sol\":13606:13625  tokensData.balance0 */\n      0x80\n      add\n      mload\n        /* \"contracts/pair.sol\":13606:13629  tokensData.balance0.sub */\n      tag_173\n      swap1\n        /* \"contracts/pair.sol\":13606:13655  tokensData.balance0.sub(tokensData.remainingFee0) */\n      swap2\n      swap1\n      0xffffffff\n      and\n      jump\t// in\n    tag_423:\n        /* \"contracts/pair.sol\":13582:13655  uint balance0Adjusted = tokensData.balance0.sub(tokensData.remainingFee0) */\n      swap1\n      pop\n        /* \"contracts/pair.sol\":13663:13684  uint balance1Adjusted */\n      0x00\n        /* \"contracts/pair.sol\":13687:13736  tokensData.balance1.sub(tokensData.remainingFee1) */\n      tag_424\n        /* \"contracts/pair.sol\":13711:13721  tokensData */\n      dup13\n        /* \"contracts/pair.sol\":13711:13735  tokensData.remainingFee1 */\n      0xe0\n      add\n      mload\n        /* \"contracts/pair.sol\":13687:13697  tokensData */\n      dup14\n        /* \"contracts/pair.sol\":13687:13706  tokensData.balance1 */\n      0xa0\n      add\n      mload\n        /* \"contracts/pair.sol\":13687:13710  tokensData.balance1.sub */\n      tag_173\n      swap1\n        /* \"contracts/pair.sol\":13687:13736  tokensData.balance1.sub(tokensData.remainingFee1) */\n      swap2\n      swap1\n      0xffffffff\n      and\n      jump\t// in\n    tag_424:\n        /* \"contracts/pair.sol\":13663:13736  uint balance1Adjusted = tokensData.balance1.sub(tokensData.remainingFee1) */\n      swap1\n      pop\n        /* \"contracts/pair.sol\":13794:13830  _k(uint(_reserve0), uint(_reserve1)) */\n      tag_425\n        /* \"contracts/pair.sol\":13802:13811  _reserve0 */\n      dup9\n        /* \"contracts/pair.sol\":13797:13812  uint(_reserve0) */\n      0xffffffffffffffffffffffffffff\n      and\n        /* \"contracts/pair.sol\":13819:13828  _reserve1 */\n      dup9\n        /* \"contracts/pair.sol\":13814:13829  uint(_reserve1) */\n      0xffffffffffffffffffffffffffff\n      and\n        /* \"contracts/pair.sol\":13794:13796  _k */\n      tag_193\n        /* \"contracts/pair.sol\":13794:13830  _k(uint(_reserve0), uint(_reserve1)) */\n      jump\t// in\n    tag_425:\n        /* \"contracts/pair.sol\":13752:13790  _k(balance0Adjusted, balance1Adjusted) */\n      tag_426\n        /* \"contracts/pair.sol\":13755:13771  balance0Adjusted */\n      dup4\n        /* \"contracts/pair.sol\":13773:13789  balance1Adjusted */\n      dup4\n        /* \"contracts/pair.sol\":13752:13754  _k */\n      tag_193\n        /* \"contracts/pair.sol\":13752:13790  _k(balance0Adjusted, balance1Adjusted) */\n      jump\t// in\n    tag_426:\n        /* \"contracts/pair.sol\":13752:13830  _k(balance0Adjusted, balance1Adjusted) >= _k(uint(_reserve0), uint(_reserve1)) */\n      lt\n      iszero\n        /* \"contracts/pair.sol\":13744:13851  require(_k(balance0Adjusted, balance1Adjusted) >= _k(uint(_reserve0), uint(_reserve1)), 'eZKaliburPair: K') */\n      tag_427\n      jumpi\n      mload(0x40)\n      0x08c379a000000000000000000000000000000000000000000000000000000000\n      dup2\n      mstore\n      0x04\n      add\n      dup1\n      dup1\n      0x20\n      add\n      dup3\n      dup2\n      sub\n      dup3\n      mstore\n      0x10\n      dup2\n      mstore\n      0x20\n      add\n      dup1\n      0x655a4b616c69627572506169723a204b00000000000000000000000000000000\n      dup2\n      mstore\n      pop\n      0x20\n      add\n      swap2\n      pop\n      pop\n      mload(0x40)\n      dup1\n      swap2\n      sub\n      swap1\n      revert\n    tag_427:\n        /* \"contracts/pair.sol\":1558:1559  _ */\n      pop\n      pop\n        /* \"contracts/pair.sol\":13863:13912  _update(tokensData.balance0, tokensData.balance1) */\n      tag_428\n        /* \"contracts/pair.sol\":13871:13881  tokensData */\n      dup11\n        /* \"contracts/pair.sol\":13871:13890  tokensData.balance0 */\n      0x80\n      add\n      mload\n        /* \"contracts/pair.sol\":13892:13902  tokensData */\n      dup12\n        /* \"contracts/pair.sol\":13892:13911  tokensData.balance1 */\n      0xa0\n      add\n      mload\n        /* \"contracts/pair.sol\":13863:13870  _update */\n      tag_253\n        /* \"contracts/pair.sol\":13863:13912  _update(tokensData.balance0, tokensData.balance1) */\n      jump\t// in\n    tag_428:\n        /* \"contracts/pair.sol\":14008:14010  to */\n      dup9\n        /* \"contracts/pair.sol\":13923:14011  Swap(msg.sender, amount0In, amount1In, tokensData.amount0Out, tokensData.amount1Out, to) */\n      0xffffffffffffffffffffffffffffffffffffffff\n      and\n        /* \"contracts/pair.sol\":13928:13938  msg.sender */\n      caller\n        /* \"contracts/pair.sol\":13923:14011  Swap(msg.sender, amount0In, amount1In, tokensData.amount0Out, tokensData.amount1Out, to) */\n      0xffffffffffffffffffffffffffffffffffffffff\n      and\n      0xd78ad95fa46c994b6551d0da85fc275fe613ce37657fb8d5e3d130840159d822\n        /* \"contracts/pair.sol\":13940:13949  amount0In */\n      dup5\n        /* \"contracts/pair.sol\":13951:13960  amount1In */\n      dup5\n        /* \"contracts/pair.sol\":13962:13972  tokensData */\n      dup15\n        /* \"contracts/pair.sol\":13962:13983  tokensData.amount0Out */\n      0x40\n      add\n      mload\n        /* \"contracts/pair.sol\":13985:13995  tokensData */\n      dup16\n        /* \"contracts/pair.sol\":13985:14006  tokensData.amount1Out */\n      0x60\n      add\n      mload\n        /* \"contracts/pair.sol\":13923:14011  Swap(msg.sender, amount0In, amount1In, tokensData.amount0Out, tokensData.amount1Out, to) */\n      mload(0x40)\n      dup1\n      dup6\n      dup2\n      mstore\n      0x20\n      add\n      dup5\n      dup2\n      mstore\n      0x20\n      add\n      dup4\n      dup2\n      mstore\n      0x20\n      add\n      dup3\n      dup2\n      mstore\n      0x20\n      add\n      swap5\n      pop\n      pop\n      pop\n      pop\n      pop\n      mload(0x40)\n      dup1\n      swap2\n      sub\n      swap1\n      log3\n        /* \"contracts/pair.sol\":1558:1559  _ */\n      pop\n      pop\n      pop\n      pop\n      pop\n      pop\n        /* \"contracts/pair.sol\":1576:1577  1 */\n      0x01\n        /* \"contracts/pair.sol\":1565:1573  unlocked */\n      0x0d\n        /* \"contracts/pair.sol\":1565:1577  unlocked = 1 */\n      dup2\n      swap1\n      sstore\n      pop\n        /* \"contracts/pair.sol\":10039:14016  function _swap(TokensData memory tokensData, address to, bytes memory data, address referrer) internal lock {... */\n      pop\n      pop\n      pop\n      pop\n      jump\t// out\n        /* \"contracts/UniswapV2ERC20.sol\":1785:1951  function _approve(address owner, address spender, uint value) private {... */\n    tag_169:\n        /* \"contracts/UniswapV2ERC20.sol\":1893:1898  value */\n      dup1\n        /* \"contracts/UniswapV2ERC20.sol\":1865:1874  allowance */\n      0x02\n        /* \"contracts/UniswapV2ERC20.sol\":1865:1881  allowance[owner] */\n      0x00\n        /* \"contracts/UniswapV2ERC20.sol\":1875:1880  owner */\n      dup6\n        /* \"contracts/UniswapV2ERC20.sol\":1865:1881  allowance[owner] */\n      0xffffffffffffffffffffffffffffffffffffffff\n      and\n      0xffffffffffffffffffffffffffffffffffffffff\n      and\n      dup2\n      mstore\n      0x20\n      add\n      swap1\n      dup2\n      mstore\n      0x20\n      add\n      0x00\n      keccak256\n        /* \"contracts/UniswapV2ERC20.sol\":1865:1890  allowance[owner][spender] */\n      0x00\n        /* \"contracts/UniswapV2ERC20.sol\":1882:1889  spender */\n      dup5\n        /* \"contracts/UniswapV2ERC20.sol\":1865:1890  allowance[owner][spender] */\n      0xffffffffffffffffffffffffffffffffffffffff\n      and\n      0xffffffffffffffffffffffffffffffffffffffff\n      and\n      dup2\n      mstore\n      0x20\n      add\n      swap1\n      dup2\n      mstore\n      0x20\n      add\n      0x00\n      keccak256\n        /* \"contracts/UniswapV2ERC20.sol\":1865:1898  allowance[owner][spender] = value */\n      dup2\n      swap1\n      sstore\n      pop\n        /* \"contracts/UniswapV2ERC20.sol\":1929:1936  spender */\n      dup2\n        /* \"contracts/UniswapV2ERC20.sol\":1913:1944  Approval(owner, spender, value) */\n      0xffffffffffffffffffffffffffffffffffffffff\n      and\n        /* \"contracts/UniswapV2ERC20.sol\":1922:1927  owner */\n      dup4\n        /* \"contracts/UniswapV2ERC20.sol\":1913:1944  Approval(owner, spender, value) */\n      0xffffffffffffffffffffffffffffffffffffffff\n      and\n      0x8c5be1e5ebec7d5bd14f71427d1e84f3dd0314c0f7b2291e5b200ac8c7c3b925\n        /* \"contracts/UniswapV2ERC20.sol\":1938:1943  value */\n      dup4\n        /* \"contracts/UniswapV2ERC20.sol\":1913:1944  Approval(owner, spender, value) */\n      mload(0x40)\n      dup1\n      dup3\n      dup2\n      mstore\n      0x20\n      add\n      swap2\n      pop\n      pop\n      mload(0x40)\n      dup1\n      swap2\n      sub\n      swap1\n      log3\n        /* \"contracts/UniswapV2ERC20.sol\":1785:1951  function _approve(address owner, address spender, uint value) private {... */\n      pop\n      pop\n      pop\n      jump\t// out\n        /* \"contracts/libraries/SafeMath.sol\":288:415  function sub(uint x, uint y) internal pure returns (uint z) {... */\n    tag_173:\n        /* \"contracts/libraries/SafeMath.sol\":340:346  uint z */\n      0x00\n        /* \"contracts/libraries/SafeMath.sol\":381:382  x */\n      dup3\n        /* \"contracts/libraries/SafeMath.sol\":375:376  y */\n      dup3\n        /* \"contracts/libraries/SafeMath.sol\":371:372  x */\n      dup5\n        /* \"contracts/libraries/SafeMath.sol\":371:376  x - y */\n      sub\n        /* \"contracts/libraries/SafeMath.sol\":367:376  z = x - y */\n      swap2\n      pop\n      dup2\n        /* \"contracts/libraries/SafeMath.sol\":366:382  (z = x - y) <= x */\n      gt\n      iszero\n        /* \"contracts/libraries/SafeMath.sol\":358:408  require((z = x - y) <= x, 'ds-math-sub-underflow') */\n      tag_431\n      jumpi\n      mload(0x40)\n      0x08c379a000000000000000000000000000000000000000000000000000000000\n      dup2\n      mstore\n      0x04\n      add\n      dup1\n      dup1\n      0x20\n      add\n      dup3\n      dup2\n      sub\n      dup3\n      mstore\n      0x15\n      dup2\n      mstore\n      0x20\n      add\n      dup1\n      0x64732d6d6174682d7375622d756e646572666c6f770000000000000000000000\n      dup2\n      mstore\n      pop\n      0x20\n      add\n      swap2\n      pop\n      pop\n      mload(0x40)\n      dup1\n      swap2\n      sub\n      swap1\n      revert\n    tag_431:\n        /* \"contracts/libraries/SafeMath.sol\":288:415  function sub(uint x, uint y) internal pure returns (uint z) {... */\n      swap3\n      swap2\n      pop\n      pop\n      jump\t// out\n        /* \"contracts/UniswapV2ERC20.sol\":1957:2173  function _transfer(address from, address to, uint value) private {... */\n    tag_175:\n        /* \"contracts/UniswapV2ERC20.sol\":2050:2076  balanceOf[from].sub(value) */\n      tag_433\n        /* \"contracts/UniswapV2ERC20.sol\":2070:2075  value */\n      dup2\n        /* \"contracts/UniswapV2ERC20.sol\":2050:2059  balanceOf */\n      0x01\n        /* \"contracts/UniswapV2ERC20.sol\":2050:2065  balanceOf[from] */\n      0x00\n        /* \"contracts/UniswapV2ERC20.sol\":2060:2064  from */\n      dup7\n        /* \"contracts/UniswapV2ERC20.sol\":2050:2065  balanceOf[from] */\n      0xffffffffffffffffffffffffffffffffffffffff\n      and\n      0xffffffffffffffffffffffffffffffffffffffff\n      and\n      dup2\n      mstore\n      0x20\n      add\n      swap1\n      dup2\n      mstore\n      0x20\n      add\n      0x00\n      keccak256\n      sload\n        /* \"contracts/UniswapV2ERC20.sol\":2050:2069  balanceOf[from].sub */\n      tag_173\n      swap1\n        /* \"contracts/UniswapV2ERC20.sol\":2050:2076  balanceOf[from].sub(value) */\n      swap2\n      swap1\n      0xffffffff\n      and\n      jump\t// in\n    tag_433:\n        /* \"contracts/UniswapV2ERC20.sol\":2032:2041  balanceOf */\n      0x01\n        /* \"contracts/UniswapV2ERC20.sol\":2032:2047  balanceOf[from] */\n      0x00\n        /* \"contracts/UniswapV2ERC20.sol\":2042:2046  from */\n      dup6\n        /* \"contracts/UniswapV2ERC20.sol\":2032:2047  balanceOf[from] */\n      0xffffffffffffffffffffffffffffffffffffffff\n      and\n      0xffffffffffffffffffffffffffffffffffffffff\n      and\n      dup2\n      mstore\n      0x20\n      add\n      swap1\n      dup2\n      mstore\n      0x20\n      add\n      0x00\n      keccak256\n        /* \"contracts/UniswapV2ERC20.sol\":2032:2076  balanceOf[from] = balanceOf[from].sub(value) */\n      dup2\n      swap1\n      sstore\n      pop\n        /* \"contracts/UniswapV2ERC20.sol\":2102:2126  balanceOf[to].add(value) */\n      tag_434\n        /* \"contracts/UniswapV2ERC20.sol\":2120:2125  value */\n      dup2\n        /* \"contracts/UniswapV2ERC20.sol\":2102:2111  balanceOf */\n      0x01\n        /* \"contracts/UniswapV2ERC20.sol\":2102:2115  balanceOf[to] */\n      0x00\n        /* \"contracts/UniswapV2ERC20.sol\":2112:2114  to */\n      dup6\n        /* \"contracts/UniswapV2ERC20.sol\":2102:2115  balanceOf[to] */\n      0xffffffffffffffffffffffffffffffffffffffff\n      and\n      0xffffffffffffffffffffffffffffffffffffffff\n      and\n      dup2\n      mstore\n      0x20\n      add\n      swap1\n      dup2\n      mstore\n      0x20\n      add\n      0x00\n      keccak256\n      sload\n        /* \"contracts/UniswapV2ERC20.sol\":2102:2119  balanceOf[to].add */\n      tag_435\n      swap1\n        /* \"contracts/UniswapV2ERC20.sol\":2102:2126  balanceOf[to].add(value) */\n      swap2\n      swap1\n      0xffffffff\n      and\n      jump\t// in\n    tag_434:\n        /* \"contracts/UniswapV2ERC20.sol\":2086:2095  balanceOf */\n      0x01\n        /* \"contracts/UniswapV2ERC20.sol\":2086:2099  balanceOf[to] */\n      0x00\n        /* \"contracts/UniswapV2ERC20.sol\":2096:2098  to */\n      dup5\n        /* \"contracts/UniswapV2ERC20.sol\":2086:2099  balanceOf[to] */\n      0xffffffffffffffffffffffffffffffffffffffff\n      and\n      0xffffffffffffffffffffffffffffffffffffffff\n      and\n      dup2\n      mstore\n      0x20\n      add\n      swap1\n      dup2\n      mstore\n      0x20\n      add\n      0x00\n      keccak256\n        /* \"contracts/UniswapV2ERC20.sol\":2086:2126  balanceOf[to] = balanceOf[to].add(value) */\n      dup2\n      swap1\n      sstore\n      pop\n        /* \"contracts/UniswapV2ERC20.sol\":2156:2158  to */\n      dup2\n        /* \"contracts/UniswapV2ERC20.sol\":2141:2166  Transfer(from, to, value) */\n      0xffffffffffffffffffffffffffffffffffffffff\n      and\n        /* \"contracts/UniswapV2ERC20.sol\":2150:2154  from */\n      dup4\n        /* \"contracts/UniswapV2ERC20.sol\":2141:2166  Transfer(from, to, value) */\n      0xffffffffffffffffffffffffffffffffffffffff\n      and\n      0xddf252ad1be2c89b69c2b068fc378daa952ba7f163c4a11628f55a4df523b3ef\n        /* \"contracts/UniswapV2ERC20.sol\":2160:2165  value */\n      dup4\n        /* \"contracts/UniswapV2ERC20.sol\":2141:2166  Transfer(from, to, value) */\n      mload(0x40)\n      dup1\n      dup3\n      dup2\n      mstore\n      0x20\n      add\n      swap2\n      pop\n      pop\n      mload(0x40)\n      dup1\n      swap2\n      sub\n      swap1\n      log3\n        /* \"contracts/UniswapV2ERC20.sol\":1957:2173  function _transfer(address from, address to, uint value) private {... */\n      pop\n      pop\n      pop\n      jump\t// out\n        /* \"contracts/pair.sol\":5341:6193  function _mintFee(uint112 _reserve0, uint112 _reserve1) private returns (bool feeOn) {... */\n    tag_188:\n        /* \"contracts/pair.sol\":5414:5424  bool feeOn */\n      0x00\n        /* \"contracts/pair.sol\":5435:5445  stableSwap */\n      0x0c\n      0x00\n      swap1\n      sload\n      swap1\n      0x0100\n      exp\n      swap1\n      div\n      0xff\n      and\n        /* \"contracts/pair.sol\":5432:5459  if(stableSwap) return false */\n      iszero\n      tag_437\n      jumpi\n        /* \"contracts/pair.sol\":5454:5459  false */\n      0x00\n        /* \"contracts/pair.sol\":5447:5459  return false */\n      swap1\n      pop\n      jump(tag_436)\n        /* \"contracts/pair.sol\":5432:5459  if(stableSwap) return false */\n    tag_437:\n        /* \"contracts/pair.sol\":5467:5485  uint ownerFeeShare */\n      0x00\n        /* \"contracts/pair.sol\":5487:5500  address feeTo */\n      dup1\n        /* \"contracts/pair.sol\":5513:5520  factory */\n      0x05\n      0x00\n      swap1\n      sload\n      swap1\n      0x0100\n      exp\n      swap1\n      div\n      0xffffffffffffffffffffffffffffffffffffffff\n      and\n        /* \"contracts/pair.sol\":5504:5529  IFactory(factory).feeInfo */\n      0xffffffffffffffffffffffffffffffffffffffff\n      and\n      0x995b5aae\n        /* \"contracts/pair.sol\":5504:5531  IFactory(factory).feeInfo() */\n      mload(0x40)\n      dup2\n      0xffffffff\n      and\n      0xe0\n      shl\n      dup2\n      mstore\n      0x04\n      add\n      0x40\n      dup1\n      mload\n      dup1\n      dup4\n      sub\n      dup2\n      dup7\n      dup1\n      extcodesize\n      iszero\n        /* \"--CODEGEN--\":8:17   */\n      dup1\n        /* \"--CODEGEN--\":5:7   */\n      iszero\n      tag_438\n      jumpi\n        /* \"--CODEGEN--\":30:31   */\n      0x00\n        /* \"--CODEGEN--\":27:28   */\n      dup1\n        /* \"--CODEGEN--\":20:32   */\n      revert\n        /* \"--CODEGEN--\":5:7   */\n    tag_438:\n        /* \"contracts/pair.sol\":5504:5531  IFactory(factory).feeInfo() */\n      pop\n      gas\n      staticcall\n      iszero\n        /* \"--CODEGEN--\":8:17   */\n      dup1\n        /* \"--CODEGEN--\":5:7   */\n      iszero\n      tag_439\n      jumpi\n        /* \"--CODEGEN--\":45:61   */\n      returndatasize\n        /* \"--CODEGEN--\":42:43   */\n      0x00\n        /* \"--CODEGEN--\":39:40   */\n      dup1\n        /* \"--CODEGEN--\":24:62   */\n      returndatacopy\n        /* \"--CODEGEN--\":77:93   */\n      returndatasize\n        /* \"--CODEGEN--\":74:75   */\n      0x00\n        /* \"--CODEGEN--\":67:94   */\n      revert\n        /* \"--CODEGEN--\":5:7   */\n    tag_439:\n        /* \"contracts/pair.sol\":5504:5531  IFactory(factory).feeInfo() */\n      pop\n      pop\n      pop\n      pop\n      mload(0x40)\n      returndatasize\n        /* \"--CODEGEN--\":13:15   */\n      0x40\n        /* \"--CODEGEN--\":8:11   */\n      dup2\n        /* \"--CODEGEN--\":5:16   */\n      lt\n        /* \"--CODEGEN--\":2:4   */\n      iszero\n      tag_440\n      jumpi\n        /* \"--CODEGEN--\":29:30   */\n      0x00\n        /* \"--CODEGEN--\":26:27   */\n      dup1\n        /* \"--CODEGEN--\":19:31   */\n      revert\n        /* \"--CODEGEN--\":2:4   */\n    tag_440:\n        /* \"contracts/pair.sol\":5504:5531  IFactory(factory).feeInfo() */\n      dup2\n      add\n      swap1\n      dup1\n      dup1\n      mload\n      swap1\n      0x20\n      add\n      swap1\n      swap3\n      swap2\n      swap1\n      dup1\n      mload\n      swap1\n      0x20\n      add\n      swap1\n      swap3\n      swap2\n      swap1\n      pop\n      pop\n      pop\n        /* \"contracts/pair.sol\":5466:5531  (uint ownerFeeShare, address feeTo) = IFactory(factory).feeInfo() */\n      swap2\n      pop\n      swap2\n      pop\n        /* \"contracts/pair.sol\":5562:5563  0 */\n      0x00\n        /* \"contracts/pair.sol\":5545:5564  feeTo != address(0) */\n      0xffffffffffffffffffffffffffffffffffffffff\n      and\n        /* \"contracts/pair.sol\":5545:5550  feeTo */\n      dup2\n        /* \"contracts/pair.sol\":5545:5564  feeTo != address(0) */\n      0xffffffffffffffffffffffffffffffffffffffff\n      and\n      eq\n      iszero\n        /* \"contracts/pair.sol\":5537:5564  feeOn = feeTo != address(0) */\n      swap3\n      pop\n        /* \"contracts/pair.sol\":5570:5581  uint _kLast */\n      0x00\n        /* \"contracts/pair.sol\":5584:5589  kLast */\n      sload(0x0b)\n        /* \"contracts/pair.sol\":5570:5589  uint _kLast = kLast */\n      swap1\n      pop\n        /* \"contracts/pair.sol\":5618:5623  feeOn */\n      dup4\n        /* \"contracts/pair.sol\":5614:6189  if (feeOn) {... */\n      iszero\n      tag_441\n      jumpi\n        /* \"contracts/pair.sol\":5647:5648  0 */\n      0x00\n        /* \"contracts/pair.sol\":5637:5643  _kLast */\n      dup2\n        /* \"contracts/pair.sol\":5637:5648  _kLast != 0 */\n      eq\n        /* \"contracts/pair.sol\":5633:6136  if (_kLast != 0) {... */\n      tag_442\n      jumpi\n        /* \"contracts/pair.sol\":5660:5670  uint rootK */\n      0x00\n        /* \"contracts/pair.sol\":5673:5720  Math.sqrt(_k(uint(_reserve0), uint(_reserve1))) */\n      tag_443\n        /* \"contracts/pair.sol\":5683:5719  _k(uint(_reserve0), uint(_reserve1)) */\n      tag_444\n        /* \"contracts/pair.sol\":5691:5700  _reserve0 */\n      dup9\n        /* \"contracts/pair.sol\":5686:5701  uint(_reserve0) */\n      0xffffffffffffffffffffffffffff\n      and\n        /* \"contracts/pair.sol\":5708:5717  _reserve1 */\n      dup9\n        /* \"contracts/pair.sol\":5703:5718  uint(_reserve1) */\n      0xffffffffffffffffffffffffffff\n      and\n        /* \"contracts/pair.sol\":5683:5685  _k */\n      tag_193\n        /* \"contracts/pair.sol\":5683:5719  _k(uint(_reserve0), uint(_reserve1)) */\n      jump\t// in\n    tag_444:\n        /* \"contracts/pair.sol\":5673:5682  Math.sqrt */\n      tag_240\n        /* \"contracts/pair.sol\":5673:5720  Math.sqrt(_k(uint(_reserve0), uint(_reserve1))) */\n      jump\t// in\n    tag_443:\n        /* \"contracts/pair.sol\":5660:5720  uint rootK = Math.sqrt(_k(uint(_reserve0), uint(_reserve1))) */\n      swap1\n      pop\n        /* \"contracts/pair.sol\":5730:5744  uint rootKLast */\n      0x00\n        /* \"contracts/pair.sol\":5747:5764  Math.sqrt(_kLast) */\n      tag_445\n        /* \"contracts/pair.sol\":5757:5763  _kLast */\n      dup4\n        /* \"contracts/pair.sol\":5747:5756  Math.sqrt */\n      tag_240\n        /* \"contracts/pair.sol\":5747:5764  Math.sqrt(_kLast) */\n      jump\t// in\n    tag_445:\n        /* \"contracts/pair.sol\":5730:5764  uint rootKLast = Math.sqrt(_kLast) */\n      swap1\n      pop\n        /* \"contracts/pair.sol\":5786:5795  rootKLast */\n      dup1\n        /* \"contracts/pair.sol\":5778:5783  rootK */\n      dup3\n        /* \"contracts/pair.sol\":5778:5795  rootK > rootKLast */\n      gt\n        /* \"contracts/pair.sol\":5774:6128  if (rootK > rootKLast) {... */\n      iszero\n      tag_446\n      jumpi\n        /* \"contracts/pair.sol\":5809:5815  uint d */\n      0x00\n        /* \"contracts/pair.sol\":5818:5869  (FEE_DENOMINATOR.mul(100) / ownerFeeShare).sub(100) */\n      tag_447\n        /* \"contracts/pair.sol\":5865:5868  100 */\n      0x64\n        /* \"contracts/pair.sol\":5846:5859  ownerFeeShare */\n      dup8\n        /* \"contracts/pair.sol\":5819:5843  FEE_DENOMINATOR.mul(100) */\n      tag_448\n        /* \"contracts/pair.sol\":5839:5842  100 */\n      0x64\n        /* \"contracts/pair.sol\":606:612  100000 */\n      0x0186a0\n        /* \"contracts/pair.sol\":5819:5838  FEE_DENOMINATOR.mul */\n      tag_239\n      swap1\n        /* \"contracts/pair.sol\":5819:5843  FEE_DENOMINATOR.mul(100) */\n      swap2\n      swap1\n      0xffffffff\n      and\n      jump\t// in\n    tag_448:\n        /* \"contracts/pair.sol\":5819:5859  FEE_DENOMINATOR.mul(100) / ownerFeeShare */\n      dup2\n      tag_449\n      jumpi\n      invalid\n    tag_449:\n      div\n        /* \"contracts/pair.sol\":5818:5864  (FEE_DENOMINATOR.mul(100) / ownerFeeShare).sub */\n      tag_173\n      swap1\n        /* \"contracts/pair.sol\":5818:5869  (FEE_DENOMINATOR.mul(100) / ownerFeeShare).sub(100) */\n      swap2\n      swap1\n      0xffffffff\n      and\n      jump\t// in\n    tag_447:\n        /* \"contracts/pair.sol\":5809:5869  uint d = (FEE_DENOMINATOR.mul(100) / ownerFeeShare).sub(100) */\n      swap1\n      pop\n        /* \"contracts/pair.sol\":5881:5895  uint numerator */\n      0x00\n        /* \"contracts/pair.sol\":5898:5944  totalSupply.mul(rootK.sub(rootKLast)).mul(100) */\n      tag_450\n        /* \"contracts/pair.sol\":5940:5943  100 */\n      0x64\n        /* \"contracts/pair.sol\":5898:5935  totalSupply.mul(rootK.sub(rootKLast)) */\n      tag_451\n        /* \"contracts/pair.sol\":5914:5934  rootK.sub(rootKLast) */\n      tag_452\n        /* \"contracts/pair.sol\":5924:5933  rootKLast */\n      dup7\n        /* \"contracts/pair.sol\":5914:5919  rootK */\n      dup9\n        /* \"contracts/pair.sol\":5914:5923  rootK.sub */\n      tag_173\n      swap1\n        /* \"contracts/pair.sol\":5914:5934  rootK.sub(rootKLast) */\n      swap2\n      swap1\n      0xffffffff\n      and\n      jump\t// in\n    tag_452:\n        /* \"contracts/pair.sol\":5898:5909  totalSupply */\n      sload(0x00)\n        /* \"contracts/pair.sol\":5898:5913  totalSupply.mul */\n      tag_239\n      swap1\n        /* \"contracts/pair.sol\":5898:5935  totalSupply.mul(rootK.sub(rootKLast)) */\n      swap2\n      swap1\n      0xffffffff\n      and\n      jump\t// in\n    tag_451:\n        /* \"contracts/pair.sol\":5898:5939  totalSupply.mul(rootK.sub(rootKLast)).mul */\n      tag_239\n      swap1\n        /* \"contracts/pair.sol\":5898:5944  totalSupply.mul(rootK.sub(rootKLast)).mul(100) */\n      swap2\n      swap1\n      0xffffffff\n      and\n      jump\t// in\n    tag_450:\n        /* \"contracts/pair.sol\":5881:5944  uint numerator = totalSupply.mul(rootK.sub(rootKLast)).mul(100) */\n      swap1\n      pop\n        /* \"contracts/pair.sol\":5956:5972  uint denominator */\n      0x00\n        /* \"contracts/pair.sol\":5975:6011  rootK.mul(d).add(rootKLast.mul(100)) */\n      tag_453\n        /* \"contracts/pair.sol\":5992:6010  rootKLast.mul(100) */\n      tag_454\n        /* \"contracts/pair.sol\":6006:6009  100 */\n      0x64\n        /* \"contracts/pair.sol\":5992:6001  rootKLast */\n      dup7\n        /* \"contracts/pair.sol\":5992:6005  rootKLast.mul */\n      tag_239\n      swap1\n        /* \"contracts/pair.sol\":5992:6010  rootKLast.mul(100) */\n      swap2\n      swap1\n      0xffffffff\n      and\n      jump\t// in\n    tag_454:\n        /* \"contracts/pair.sol\":5975:5987  rootK.mul(d) */\n      tag_455\n        /* \"contracts/pair.sol\":5985:5986  d */\n      dup6\n        /* \"contracts/pair.sol\":5975:5980  rootK */\n      dup9\n        /* \"contracts/pair.sol\":5975:5984  rootK.mul */\n      tag_239\n      swap1\n        /* \"contracts/pair.sol\":5975:5987  rootK.mul(d) */\n      swap2\n      swap1\n      0xffffffff\n      and\n      jump\t// in\n    tag_455:\n        /* \"contracts/pair.sol\":5975:5991  rootK.mul(d).add */\n      tag_435\n      swap1\n        /* \"contracts/pair.sol\":5975:6011  rootK.mul(d).add(rootKLast.mul(100)) */\n      swap2\n      swap1\n      0xffffffff\n      and\n      jump\t// in\n    tag_453:\n        /* \"contracts/pair.sol\":5956:6011  uint denominator = rootK.mul(d).add(rootKLast.mul(100)) */\n      swap1\n      pop\n        /* \"contracts/pair.sol\":6023:6037  uint liquidity */\n      0x00\n        /* \"contracts/pair.sol\":6052:6063  denominator */\n      dup2\n        /* \"contracts/pair.sol\":6040:6049  numerator */\n      dup4\n        /* \"contracts/pair.sol\":6040:6063  numerator / denominator */\n      dup2\n      tag_456\n      jumpi\n      invalid\n    tag_456:\n      div\n        /* \"contracts/pair.sol\":6023:6063  uint liquidity = numerator / denominator */\n      swap1\n      pop\n        /* \"contracts/pair.sol\":6091:6092  0 */\n      0x00\n        /* \"contracts/pair.sol\":6079:6088  liquidity */\n      dup2\n        /* \"contracts/pair.sol\":6079:6092  liquidity > 0 */\n      gt\n        /* \"contracts/pair.sol\":6075:6117  if (liquidity > 0) _mint(feeTo, liquidity) */\n      iszero\n      tag_457\n      jumpi\n        /* \"contracts/pair.sol\":6094:6117  _mint(feeTo, liquidity) */\n      tag_458\n        /* \"contracts/pair.sol\":6100:6105  feeTo */\n      dup9\n        /* \"contracts/pair.sol\":6107:6116  liquidity */\n      dup3\n        /* \"contracts/pair.sol\":6094:6099  _mint */\n      tag_242\n        /* \"contracts/pair.sol\":6094:6117  _mint(feeTo, liquidity) */\n      jump\t// in\n    tag_458:\n        /* \"contracts/pair.sol\":6075:6117  if (liquidity > 0) _mint(feeTo, liquidity) */\n    tag_457:\n        /* \"contracts/pair.sol\":5774:6128  if (rootK > rootKLast) {... */\n      pop\n      pop\n      pop\n      pop\n    tag_446:\n        /* \"contracts/pair.sol\":5633:6136  if (_kLast != 0) {... */\n      pop\n      pop\n    tag_442:\n        /* \"contracts/pair.sol\":5614:6189  if (feeOn) {... */\n      jump(tag_459)\n    tag_441:\n        /* \"contracts/pair.sol\":6162:6163  0 */\n      0x00\n        /* \"contracts/pair.sol\":6152:6158  _kLast */\n      dup2\n        /* \"contracts/pair.sol\":6152:6163  _kLast != 0 */\n      eq\n        /* \"contracts/pair.sol\":6148:6189  if (_kLast != 0) {... */\n      tag_460\n      jumpi\n        /* \"contracts/pair.sol\":6181:6182  0 */\n      0x00\n        /* \"contracts/pair.sol\":6173:6178  kLast */\n      0x0b\n        /* \"contracts/pair.sol\":6173:6182  kLast = 0 */\n      dup2\n      swap1\n      sstore\n      pop\n        /* \"contracts/pair.sol\":6148:6189  if (_kLast != 0) {... */\n    tag_460:\n        /* \"contracts/pair.sol\":5614:6189  if (feeOn) {... */\n    tag_459:\n        /* \"contracts/pair.sol\":5341:6193  function _mintFee(uint112 _reserve0, uint112 _reserve1) private returns (bool feeOn) {... */\n      pop\n      pop\n      pop\n    tag_436:\n      swap3\n      swap2\n      pop\n      pop\n      jump\t// out\n        /* \"contracts/pair.sol\":14020:14423  function _k(uint balance0, uint balance1) internal view returns (uint) {... */\n    tag_193:\n        /* \"contracts/pair.sol\":14085:14089  uint */\n      0x00\n        /* \"contracts/pair.sol\":14101:14111  stableSwap */\n      0x0c\n      0x00\n      swap1\n      sload\n      swap1\n      0x0100\n      exp\n      swap1\n      div\n      0xff\n      and\n        /* \"contracts/pair.sol\":14097:14384  if (stableSwap) {... */\n      iszero\n      tag_462\n      jumpi\n        /* \"contracts/pair.sol\":14121:14128  uint _x */\n      0x00\n        /* \"contracts/pair.sol\":14152:14172  precisionMultiplier0 */\n      sload(0x09)\n        /* \"contracts/pair.sol\":14131:14149  balance0.mul(1e18) */\n      tag_463\n        /* \"contracts/pair.sol\":14144:14148  1e18 */\n      0x0de0b6b3a7640000\n        /* \"contracts/pair.sol\":14131:14139  balance0 */\n      dup7\n        /* \"contracts/pair.sol\":14131:14143  balance0.mul */\n      tag_239\n      swap1\n        /* \"contracts/pair.sol\":14131:14149  balance0.mul(1e18) */\n      swap2\n      swap1\n      0xffffffff\n      and\n      jump\t// in\n    tag_463:\n        /* \"contracts/pair.sol\":14131:14172  balance0.mul(1e18) / precisionMultiplier0 */\n      dup2\n      tag_464\n      jumpi\n      invalid\n    tag_464:\n      div\n        /* \"contracts/pair.sol\":14121:14172  uint _x = balance0.mul(1e18) / precisionMultiplier0 */\n      swap1\n      pop\n        /* \"contracts/pair.sol\":14180:14187  uint _y */\n      0x00\n        /* \"contracts/pair.sol\":14211:14231  precisionMultiplier1 */\n      sload(0x0a)\n        /* \"contracts/pair.sol\":14190:14208  balance1.mul(1e18) */\n      tag_465\n        /* \"contracts/pair.sol\":14203:14207  1e18 */\n      0x0de0b6b3a7640000\n        /* \"contracts/pair.sol\":14190:14198  balance1 */\n      dup7\n        /* \"contracts/pair.sol\":14190:14202  balance1.mul */\n      tag_239\n      swap1\n        /* \"contracts/pair.sol\":14190:14208  balance1.mul(1e18) */\n      swap2\n      swap1\n      0xffffffff\n      and\n      jump\t// in\n    tag_465:\n        /* \"contracts/pair.sol\":14190:14231  balance1.mul(1e18) / precisionMultiplier1 */\n      dup2\n      tag_466\n      jumpi\n      invalid\n    tag_466:\n      div\n        /* \"contracts/pair.sol\":14180:14231  uint _y = balance1.mul(1e18) / precisionMultiplier1 */\n      swap1\n      pop\n        /* \"contracts/pair.sol\":14239:14246  uint _a */\n      0x00\n        /* \"contracts/pair.sol\":14264:14268  1e18 */\n      0x0de0b6b3a7640000\n        /* \"contracts/pair.sol\":14250:14260  _x.mul(_y) */\n      tag_467\n        /* \"contracts/pair.sol\":14257:14259  _y */\n      dup4\n        /* \"contracts/pair.sol\":14250:14252  _x */\n      dup6\n        /* \"contracts/pair.sol\":14250:14256  _x.mul */\n      tag_239\n      swap1\n        /* \"contracts/pair.sol\":14250:14260  _x.mul(_y) */\n      swap2\n      swap1\n      0xffffffff\n      and\n      jump\t// in\n    tag_467:\n        /* \"contracts/pair.sol\":14249:14268  (_x.mul(_y)) / 1e18 */\n      dup2\n      tag_468\n      jumpi\n      invalid\n    tag_468:\n      div\n        /* \"contracts/pair.sol\":14239:14268  uint _a = (_x.mul(_y)) / 1e18 */\n      swap1\n      pop\n        /* \"contracts/pair.sol\":14276:14283  uint _b */\n      0x00\n        /* \"contracts/pair.sol\":14286:14328  (_x.mul(_x) / 1e18).add(_y.mul(_y) / 1e18) */\n      tag_469\n        /* \"contracts/pair.sol\":14323:14327  1e18 */\n      0x0de0b6b3a7640000\n        /* \"contracts/pair.sol\":14310:14320  _y.mul(_y) */\n      tag_470\n        /* \"contracts/pair.sol\":14317:14319  _y */\n      dup6\n        /* \"contracts/pair.sol\":14310:14312  _y */\n      dup7\n        /* \"contracts/pair.sol\":14310:14316  _y.mul */\n      tag_239\n      swap1\n        /* \"contracts/pair.sol\":14310:14320  _y.mul(_y) */\n      swap2\n      swap1\n      0xffffffff\n      and\n      jump\t// in\n    tag_470:\n        /* \"contracts/pair.sol\":14310:14327  _y.mul(_y) / 1e18 */\n      dup2\n      tag_471\n      jumpi\n      invalid\n    tag_471:\n      div\n        /* \"contracts/pair.sol\":14300:14304  1e18 */\n      0x0de0b6b3a7640000\n        /* \"contracts/pair.sol\":14287:14297  _x.mul(_x) */\n      tag_472\n        /* \"contracts/pair.sol\":14294:14296  _x */\n      dup8\n        /* \"contracts/pair.sol\":14287:14289  _x */\n      dup9\n        /* \"contracts/pair.sol\":14287:14293  _x.mul */\n      tag_239\n      swap1\n        /* \"contracts/pair.sol\":14287:14297  _x.mul(_x) */\n      swap2\n      swap1\n      0xffffffff\n      and\n      jump\t// in\n    tag_472:\n        /* \"contracts/pair.sol\":14287:14304  _x.mul(_x) / 1e18 */\n      dup2\n      tag_473\n      jumpi\n      invalid\n    tag_473:\n      div\n        /* \"contracts/pair.sol\":14286:14309  (_x.mul(_x) / 1e18).add */\n      tag_435\n      swap1\n        /* \"contracts/pair.sol\":14286:14328  (_x.mul(_x) / 1e18).add(_y.mul(_y) / 1e18) */\n      swap2\n      swap1\n      0xffffffff\n      and\n      jump\t// in\n    tag_469:\n        /* \"contracts/pair.sol\":14276:14328  uint _b = (_x.mul(_x) / 1e18).add(_y.mul(_y) / 1e18) */\n      swap1\n      pop\n        /* \"contracts/pair.sol\":14357:14361  1e18 */\n      0x0de0b6b3a7640000\n        /* \"contracts/pair.sol\":14344:14354  _a.mul(_b) */\n      tag_474\n        /* \"contracts/pair.sol\":14351:14353  _b */\n      dup3\n        /* \"contracts/pair.sol\":14344:14346  _a */\n      dup5\n        /* \"contracts/pair.sol\":14344:14350  _a.mul */\n      tag_239\n      swap1\n        /* \"contracts/pair.sol\":14344:14354  _a.mul(_b) */\n      swap2\n      swap1\n      0xffffffff\n      and\n      jump\t// in\n    tag_474:\n        /* \"contracts/pair.sol\":14344:14361  _a.mul(_b) / 1e18 */\n      dup2\n      tag_475\n      jumpi\n      invalid\n    tag_475:\n      div\n        /* \"contracts/pair.sol\":14336:14361  return  _a.mul(_b) / 1e18 */\n      swap5\n      pop\n      pop\n      pop\n      pop\n      pop\n      jump(tag_461)\n        /* \"contracts/pair.sol\":14097:14384  if (stableSwap) {... */\n    tag_462:\n        /* \"contracts/pair.sol\":14396:14418  balance0.mul(balance1) */\n      tag_476\n        /* \"contracts/pair.sol\":14409:14417  balance1 */\n      dup3\n        /* \"contracts/pair.sol\":14396:14404  balance0 */\n      dup5\n        /* \"contracts/pair.sol\":14396:14408  balance0.mul */\n      tag_239\n      swap1\n        /* \"contracts/pair.sol\":14396:14418  balance0.mul(balance1) */\n      swap2\n      swap1\n      0xffffffff\n      and\n      jump\t// in\n    tag_476:\n        /* \"contracts/pair.sol\":14389:14418  return balance0.mul(balance1) */\n      swap1\n      pop\n        /* \"contracts/pair.sol\":14020:14423  function _k(uint balance0, uint balance1) internal view returns (uint) {... */\n    tag_461:\n      swap3\n      swap2\n      pop\n      pop\n      jump\t// out\n        /* \"contracts/libraries/SafeMath.sol\":421:561  function mul(uint x, uint y) internal pure returns (uint z) {... */\n    tag_239:\n        /* \"contracts/libraries/SafeMath.sol\":473:479  uint z */\n      0x00\n        /* \"contracts/libraries/SafeMath.sol\":504:505  0 */\n      dup1\n        /* \"contracts/libraries/SafeMath.sol\":499:500  y */\n      dup3\n        /* \"contracts/libraries/SafeMath.sol\":499:505  y == 0 */\n      eq\n        /* \"contracts/libraries/SafeMath.sol\":499:529  y == 0 || (z = x * y) / y == x */\n      dup1\n      tag_478\n      jumpi\n      pop\n        /* \"contracts/libraries/SafeMath.sol\":528:529  x */\n      dup3\n        /* \"contracts/libraries/SafeMath.sol\":523:524  y */\n      dup3\n        /* \"contracts/libraries/SafeMath.sol\":518:519  y */\n      dup4\n        /* \"contracts/libraries/SafeMath.sol\":514:515  x */\n      dup6\n        /* \"contracts/libraries/SafeMath.sol\":514:519  x * y */\n      mul\n        /* \"contracts/libraries/SafeMath.sol\":510:519  z = x * y */\n      swap3\n      pop\n      dup3\n        /* \"contracts/libraries/SafeMath.sol\":509:524  (z = x * y) / y */\n      dup2\n      tag_479\n      jumpi\n      invalid\n    tag_479:\n      div\n        /* \"contracts/libraries/SafeMath.sol\":509:529  (z = x * y) / y == x */\n      eq\n        /* \"contracts/libraries/SafeMath.sol\":499:529  y == 0 || (z = x * y) / y == x */\n    tag_478:\n        /* \"contracts/libraries/SafeMath.sol\":491:554  require(y == 0 || (z = x * y) / y == x, 'ds-math-mul-overflow') */\n      tag_480\n      jumpi\n      mload(0x40)\n      0x08c379a000000000000000000000000000000000000000000000000000000000\n      dup2\n      mstore\n      0x04\n      add\n      dup1\n      dup1\n      0x20\n      add\n      dup3\n      dup2\n      sub\n      dup3\n      mstore\n      0x14\n      dup2\n      mstore\n      0x20\n      add\n      dup1\n      0x64732d6d6174682d6d756c2d6f766572666c6f77000000000000000000000000\n      dup2\n      mstore\n      pop\n      0x20\n      add\n      swap2\n      pop\n      pop\n      mload(0x40)\n      dup1\n      swap2\n      sub\n      swap1\n      revert\n    tag_480:\n        /* \"contracts/libraries/SafeMath.sol\":421:561  function mul(uint x, uint y) internal pure returns (uint z) {... */\n      swap3\n      swap2\n      pop\n      pop\n      jump\t// out\n        /* \"contracts/libraries/Math.sol\":307:599  function sqrt(uint y) internal pure returns (uint z) {... */\n    tag_240:\n        /* \"contracts/libraries/Math.sol\":352:358  uint z */\n      0x00\n        /* \"contracts/libraries/Math.sol\":378:379  3 */\n      0x03\n        /* \"contracts/libraries/Math.sol\":374:375  y */\n      dup3\n        /* \"contracts/libraries/Math.sol\":374:379  y > 3 */\n      gt\n        /* \"contracts/libraries/Math.sol\":370:593  if (y > 3) {... */\n      iszero\n      tag_482\n      jumpi\n        /* \"contracts/libraries/Math.sol\":399:400  y */\n      dup2\n        /* \"contracts/libraries/Math.sol\":395:400  z = y */\n      swap1\n      pop\n        /* \"contracts/libraries/Math.sol\":414:420  uint x */\n      0x00\n        /* \"contracts/libraries/Math.sol\":431:432  1 */\n      0x01\n        /* \"contracts/libraries/Math.sol\":427:428  2 */\n      0x02\n        /* \"contracts/libraries/Math.sol\":423:424  y */\n      dup5\n        /* \"contracts/libraries/Math.sol\":423:428  y / 2 */\n      dup2\n      tag_483\n      jumpi\n      invalid\n    tag_483:\n      div\n        /* \"contracts/libraries/Math.sol\":423:432  y / 2 + 1 */\n      add\n        /* \"contracts/libraries/Math.sol\":414:432  uint x = y / 2 + 1 */\n      swap1\n      pop\n        /* \"contracts/libraries/Math.sol\":446:535  while (x < z) {... */\n    tag_484:\n        /* \"contracts/libraries/Math.sol\":457:458  z */\n      dup2\n        /* \"contracts/libraries/Math.sol\":453:454  x */\n      dup2\n        /* \"contracts/libraries/Math.sol\":453:458  x < z */\n      lt\n        /* \"contracts/libraries/Math.sol\":446:535  while (x < z) {... */\n      iszero\n      tag_485\n      jumpi\n        /* \"contracts/libraries/Math.sol\":482:483  x */\n      dup1\n        /* \"contracts/libraries/Math.sol\":478:483  z = x */\n      swap2\n      pop\n        /* \"contracts/libraries/Math.sol\":519:520  2 */\n      0x02\n        /* \"contracts/libraries/Math.sol\":514:515  x */\n      dup2\n        /* \"contracts/libraries/Math.sol\":510:511  x */\n      dup3\n        /* \"contracts/libraries/Math.sol\":506:507  y */\n      dup6\n        /* \"contracts/libraries/Math.sol\":506:511  y / x */\n      dup2\n      tag_486\n      jumpi\n      invalid\n    tag_486:\n      div\n        /* \"contracts/libraries/Math.sol\":506:515  y / x + x */\n      add\n        /* \"contracts/libraries/Math.sol\":505:520  (y / x + x) / 2 */\n      dup2\n      tag_487\n      jumpi\n      invalid\n    tag_487:\n      div\n        /* \"contracts/libraries/Math.sol\":501:520  x = (y / x + x) / 2 */\n      swap1\n      pop\n        /* \"contracts/libraries/Math.sol\":446:535  while (x < z) {... */\n      jump(tag_484)\n    tag_485:\n        /* \"contracts/libraries/Math.sol\":370:593  if (y > 3) {... */\n      pop\n      jump(tag_488)\n    tag_482:\n        /* \"contracts/libraries/Math.sol\":560:561  0 */\n      0x00\n        /* \"contracts/libraries/Math.sol\":555:556  y */\n      dup3\n        /* \"contracts/libraries/Math.sol\":555:561  y != 0 */\n      eq\n        /* \"contracts/libraries/Math.sol\":551:593  if (y != 0) {... */\n      tag_489\n      jumpi\n        /* \"contracts/libraries/Math.sol\":581:582  1 */\n      0x01\n        /* \"contracts/libraries/Math.sol\":577:582  z = 1 */\n      swap1\n      pop\n        /* \"contracts/libraries/Math.sol\":551:593  if (y != 0) {... */\n    tag_489:\n        /* \"contracts/libraries/Math.sol\":370:593  if (y > 3) {... */\n    tag_488:\n        /* \"contracts/libraries/Math.sol\":307:599  function sqrt(uint y) internal pure returns (uint z) {... */\n      swap2\n      swap1\n      pop\n      jump\t// out\n        /* \"contracts/UniswapV2ERC20.sol\":1371:1568  function _mint(address to, uint value) internal {... */\n    tag_242:\n        /* \"contracts/UniswapV2ERC20.sol\":1443:1465  totalSupply.add(value) */\n      tag_491\n        /* \"contracts/UniswapV2ERC20.sol\":1459:1464  value */\n      dup2\n        /* \"contracts/UniswapV2ERC20.sol\":1443:1454  totalSupply */\n      sload(0x00)\n        /* \"contracts/UniswapV2ERC20.sol\":1443:1458  totalSupply.add */\n      tag_435\n      swap1\n        /* \"contracts/UniswapV2ERC20.sol\":1443:1465  totalSupply.add(value) */\n      swap2\n      swap1\n      0xffffffff\n      and\n      jump\t// in\n    tag_491:\n        /* \"contracts/UniswapV2ERC20.sol\":1429:1440  totalSupply */\n      0x00\n        /* \"contracts/UniswapV2ERC20.sol\":1429:1465  totalSupply = totalSupply.add(value) */\n      dup2\n      swap1\n      sstore\n      pop\n        /* \"contracts/UniswapV2ERC20.sol\":1491:1515  balanceOf[to].add(value) */\n      tag_492\n        /* \"contracts/UniswapV2ERC20.sol\":1509:1514  value */\n      dup2\n        /* \"contracts/UniswapV2ERC20.sol\":1491:1500  balanceOf */\n      0x01\n        /* \"contracts/UniswapV2ERC20.sol\":1491:1504  balanceOf[to] */\n      0x00\n        /* \"contracts/UniswapV2ERC20.sol\":1501:1503  to */\n      dup6\n        /* \"contracts/UniswapV2ERC20.sol\":1491:1504  balanceOf[to] */\n      0xffffffffffffffffffffffffffffffffffffffff\n      and\n      0xffffffffffffffffffffffffffffffffffffffff\n      and\n      dup2\n      mstore\n      0x20\n      add\n      swap1\n      dup2\n      mstore\n      0x20\n      add\n      0x00\n      keccak256\n      sload\n        /* \"contracts/UniswapV2ERC20.sol\":1491:1508  balanceOf[to].add */\n      tag_435\n      swap1\n        /* \"contracts/UniswapV2ERC20.sol\":1491:1515  balanceOf[to].add(value) */\n      swap2\n      swap1\n      0xffffffff\n      and\n      jump\t// in\n    tag_492:\n        /* \"contracts/UniswapV2ERC20.sol\":1475:1484  balanceOf */\n      0x01\n        /* \"contracts/UniswapV2ERC20.sol\":1475:1488  balanceOf[to] */\n      0x00\n        /* \"contracts/UniswapV2ERC20.sol\":1485:1487  to */\n      dup5\n        /* \"contracts/UniswapV2ERC20.sol\":1475:1488  balanceOf[to] */\n      0xffffffffffffffffffffffffffffffffffffffff\n      and\n      0xffffffffffffffffffffffffffffffffffffffff\n      and\n      dup2\n      mstore\n      0x20\n      add\n      swap1\n      dup2\n      mstore\n      0x20\n      add\n      0x00\n      keccak256\n        /* \"contracts/UniswapV2ERC20.sol\":1475:1515  balanceOf[to] = balanceOf[to].add(value) */\n      dup2\n      swap1\n      sstore\n      pop\n        /* \"contracts/UniswapV2ERC20.sol\":1551:1553  to */\n      dup2\n        /* \"contracts/UniswapV2ERC20.sol\":1530:1561  Transfer(address(0), to, value) */\n      0xffffffffffffffffffffffffffffffffffffffff\n      and\n        /* \"contracts/UniswapV2ERC20.sol\":1547:1548  0 */\n      0x00\n        /* \"contracts/UniswapV2ERC20.sol\":1530:1561  Transfer(address(0), to, value) */\n      0xffffffffffffffffffffffffffffffffffffffff\n      and\n      0xddf252ad1be2c89b69c2b068fc378daa952ba7f163c4a11628f55a4df523b3ef\n        /* \"contracts/UniswapV2ERC20.sol\":1555:1560  value */\n      dup4\n        /* \"contracts/UniswapV2ERC20.sol\":1530:1561  Transfer(address(0), to, value) */\n      mload(0x40)\n      dup1\n      dup3\n      dup2\n      mstore\n      0x20\n      add\n      swap2\n      pop\n      pop\n      mload(0x40)\n      dup1\n      swap2\n      sub\n      swap1\n      log3\n        /* \"contracts/UniswapV2ERC20.sol\":1371:1568  function _mint(address to, uint value) internal {... */\n      pop\n      pop\n      jump\t// out\n        /* \"contracts/libraries/Math.sol\":98:192  function min(uint x, uint y) internal pure returns (uint z) {... */\n    tag_249:\n        /* \"contracts/libraries/Math.sol\":150:156  uint z */\n      0x00\n        /* \"contracts/libraries/Math.sol\":176:177  y */\n      dup2\n        /* \"contracts/libraries/Math.sol\":172:173  x */\n      dup4\n        /* \"contracts/libraries/Math.sol\":172:177  x < y */\n      lt\n        /* \"contracts/libraries/Math.sol\":172:185  x < y ? x : y */\n      tag_494\n      jumpi\n        /* \"contracts/libraries/Math.sol\":184:185  y */\n      dup2\n        /* \"contracts/libraries/Math.sol\":172:185  x < y ? x : y */\n      jump(tag_495)\n    tag_494:\n        /* \"contracts/libraries/Math.sol\":180:181  x */\n      dup3\n        /* \"contracts/libraries/Math.sol\":172:185  x < y ? x : y */\n    tag_495:\n        /* \"contracts/libraries/Math.sol\":168:185  z = x < y ? x : y */\n      swap1\n      pop\n        /* \"contracts/libraries/Math.sol\":98:192  function min(uint x, uint y) internal pure returns (uint z) {... */\n      swap3\n      swap2\n      pop\n      pop\n      jump\t// out\n        /* \"contracts/pair.sol\":4930:5206  function _update(uint balance0, uint balance1) private {... */\n    tag_253:\n        /* \"contracts/pair.sol\":5019:5022  - 1 */\n      0xffffffffffffffffffffffffffffffffffffffffffffffffffffffffffffffff\n        /* \"contracts/pair.sol\":4999:5023  balance0 <= uint112(- 1) */\n      0xffffffffffffffffffffffffffff\n      and\n        /* \"contracts/pair.sol\":4999:5007  balance0 */\n      dup3\n        /* \"contracts/pair.sol\":4999:5023  balance0 <= uint112(- 1) */\n      gt\n      iszero\n        /* \"contracts/pair.sol\":4999:5051  balance0 <= uint112(- 1) && balance1 <= uint112(- 1) */\n      dup1\n      iszero\n      tag_497\n      jumpi\n      pop\n        /* \"contracts/pair.sol\":5047:5050  - 1 */\n      0xffffffffffffffffffffffffffffffffffffffffffffffffffffffffffffffff\n        /* \"contracts/pair.sol\":5027:5051  balance1 <= uint112(- 1) */\n      0xffffffffffffffffffffffffffff\n      and\n        /* \"contracts/pair.sol\":5027:5035  balance1 */\n      dup2\n        /* \"contracts/pair.sol\":5027:5051  balance1 <= uint112(- 1) */\n      gt\n      iszero\n        /* \"contracts/pair.sol\":4999:5051  balance0 <= uint112(- 1) && balance1 <= uint112(- 1) */\n    tag_497:\n        /* \"contracts/pair.sol\":4991:5079  require(balance0 <= uint112(- 1) && balance1 <= uint112(- 1), 'eZKaliburPair: OVERFLOW') */\n      tag_498\n      jumpi\n      mload(0x40)\n      0x08c379a000000000000000000000000000000000000000000000000000000000\n      dup2\n      mstore\n      0x04\n      add\n      dup1\n      dup1\n      0x20\n      add\n      dup3\n      dup2\n      sub\n      dup3\n      mstore\n      0x17\n      dup2\n      mstore\n      0x20\n      add\n      dup1\n      0x655a4b616c69627572506169723a204f564552464c4f57000000000000000000\n      dup2\n      mstore\n      pop\n      0x20\n      add\n      swap2\n      pop\n      pop\n      mload(0x40)\n      dup1\n      swap2\n      sub\n      swap1\n      revert\n    tag_498:\n        /* \"contracts/pair.sol\":5105:5113  balance0 */\n      dup2\n        /* \"contracts/pair.sol\":5086:5094  reserve0 */\n      0x08\n      0x00\n        /* \"contracts/pair.sol\":5086:5114  reserve0 = uint112(balance0) */\n      0x0100\n      exp\n      dup2\n      sload\n      dup2\n      0xffffffffffffffffffffffffffff\n      mul\n      not\n      and\n      swap1\n      dup4\n      0xffffffffffffffffffffffffffff\n      and\n      mul\n      or\n      swap1\n      sstore\n      pop\n        /* \"contracts/pair.sol\":5139:5147  balance1 */\n      dup1\n        /* \"contracts/pair.sol\":5120:5128  reserve1 */\n      0x08\n      0x0e\n        /* \"contracts/pair.sol\":5120:5148  reserve1 = uint112(balance1) */\n      0x0100\n      exp\n      dup2\n      sload\n      dup2\n      0xffffffffffffffffffffffffffff\n      mul\n      not\n      and\n      swap1\n      dup4\n      0xffffffffffffffffffffffffffff\n      and\n      mul\n      or\n      swap1\n      sstore\n      pop\n        /* \"contracts/pair.sol\":5159:5201  Sync(uint112(balance0), uint112(balance1)) */\n      0x1c411e9a96e071241c2f21f7726b17ae89e3cab4c78be50e062b03a9fffbbad1\n        /* \"contracts/pair.sol\":5172:5180  balance0 */\n      dup3\n        /* \"contracts/pair.sol\":5191:5199  balance1 */\n      dup3\n        /* \"contracts/pair.sol\":5159:5201  Sync(uint112(balance0), uint112(balance1)) */\n      mload(0x40)\n      dup1\n      dup4\n      0xffffffffffffffffffffffffffff\n      and\n      0xffffffffffffffffffffffffffff\n      and\n      dup2\n      mstore\n      0x20\n      add\n      dup3\n      0xffffffffffffffffffffffffffff\n      and\n      0xffffffffffffffffffffffffffff\n      and\n      dup2\n      mstore\n      0x20\n      add\n      swap3\n      pop\n      pop\n      pop\n      mload(0x40)\n      dup1\n      swap2\n      sub\n      swap1\n      log1\n        /* \"contracts/pair.sol\":4930:5206  function _update(uint balance0, uint balance1) private {... */\n      pop\n      pop\n      jump\t// out\n        /* \"contracts/UniswapV2ERC20.sol\":1574:1779  function _burn(address from, uint value) internal {... */\n    tag_277:\n        /* \"contracts/UniswapV2ERC20.sol\":1652:1678  balanceOf[from].sub(value) */\n      tag_500\n        /* \"contracts/UniswapV2ERC20.sol\":1672:1677  value */\n      dup2\n        /* \"contracts/UniswapV2ERC20.sol\":1652:1661  balanceOf */\n      0x01\n        /* \"contracts/UniswapV2ERC20.sol\":1652:1667  balanceOf[from] */\n      0x00\n        /* \"contracts/UniswapV2ERC20.sol\":1662:1666  from */\n      dup6\n        /* \"contracts/UniswapV2ERC20.sol\":1652:1667  balanceOf[from] */\n      0xffffffffffffffffffffffffffffffffffffffff\n      and\n      0xffffffffffffffffffffffffffffffffffffffff\n      and\n      dup2\n      mstore\n      0x20\n      add\n      swap1\n      dup2\n      mstore\n      0x20\n      add\n      0x00\n      keccak256\n      sload\n        /* \"contracts/UniswapV2ERC20.sol\":1652:1671  balanceOf[from].sub */\n      tag_173\n      swap1\n        /* \"contracts/UniswapV2ERC20.sol\":1652:1678  balanceOf[from].sub(value) */\n      swap2\n      swap1\n      0xffffffff\n      and\n      jump\t// in\n    tag_500:\n        /* \"contracts/UniswapV2ERC20.sol\":1634:1643  balanceOf */\n      0x01\n        /* \"contracts/UniswapV2ERC20.sol\":1634:1649  balanceOf[from] */\n      0x00\n        /* \"contracts/UniswapV2ERC20.sol\":1644:1648  from */\n      dup5\n        /* \"contracts/UniswapV2ERC20.sol\":1634:1649  balanceOf[from] */\n      0xffffffffffffffffffffffffffffffffffffffff\n      and\n      0xffffffffffffffffffffffffffffffffffffffff\n      and\n      dup2\n      mstore\n      0x20\n      add\n      swap1\n      dup2\n      mstore\n      0x20\n      add\n      0x00\n      keccak256\n        /* \"contracts/UniswapV2ERC20.sol\":1634:1678  balanceOf[from] = balanceOf[from].sub(value) */\n      dup2\n      swap1\n      sstore\n      pop\n        /* \"contracts/UniswapV2ERC20.sol\":1702:1724  totalSupply.sub(value) */\n      tag_501\n        /* \"contracts/UniswapV2ERC20.sol\":1718:1723  value */\n      dup2\n        /* \"contracts/UniswapV2ERC20.sol\":1702:1713  totalSupply */\n      sload(0x00)\n        /* \"contracts/UniswapV2ERC20.sol\":1702:1717  totalSupply.sub */\n      tag_173\n      swap1\n        /* \"contracts/UniswapV2ERC20.sol\":1702:1724  totalSupply.sub(value) */\n      swap2\n      swap1\n      0xffffffff\n      and\n      jump\t// in\n    tag_501:\n        /* \"contracts/UniswapV2ERC20.sol\":1688:1699  totalSupply */\n      0x00\n        /* \"contracts/UniswapV2ERC20.sol\":1688:1724  totalSupply = totalSupply.sub(value) */\n      dup2\n      swap1\n      sstore\n      pop\n        /* \"contracts/UniswapV2ERC20.sol\":1762:1763  0 */\n      0x00\n        /* \"contracts/UniswapV2ERC20.sol\":1739:1772  Transfer(from, address(0), value) */\n      0xffffffffffffffffffffffffffffffffffffffff\n      and\n        /* \"contracts/UniswapV2ERC20.sol\":1748:1752  from */\n      dup3\n        /* \"contracts/UniswapV2ERC20.sol\":1739:1772  Transfer(from, address(0), value) */\n      0xffffffffffffffffffffffffffffffffffffffff\n      and\n      0xddf252ad1be2c89b69c2b068fc378daa952ba7f163c4a11628f55a4df523b3ef\n        /* \"contracts/UniswapV2ERC20.sol\":1766:1771  value */\n      dup4\n        /* \"contracts/UniswapV2ERC20.sol\":1739:1772  Transfer(from, address(0), value) */\n      mload(0x40)\n      dup1\n      dup3\n      dup2\n      mstore\n      0x20\n      add\n      swap2\n      pop\n      pop\n      mload(0x40)\n      dup1\n      swap2\n      sub\n      swap1\n      log3\n        /* \"contracts/UniswapV2ERC20.sol\":1574:1779  function _burn(address from, uint value) internal {... */\n      pop\n      pop\n      jump\t// out\n        /* \"contracts/pair.sol\":1865:2143  function _safeTransfer(address token, address to, uint value) private {... */\n    tag_279:\n        /* \"contracts/pair.sol\":1942:1954  bool success */\n      0x00\n        /* \"contracts/pair.sol\":1956:1973  bytes memory data */\n      0x60\n        /* \"contracts/pair.sol\":1977:1982  token */\n      dup5\n        /* \"contracts/pair.sol\":1977:1987  token.call */\n      0xffffffffffffffffffffffffffffffffffffffff\n      and\n        /* \"contracts/pair.sol\":421:455  bytes('transfer(address,uint256)') */\n      mload(0x40)\n      dup1\n      0x40\n      add\n      0x40\n      mstore\n      dup1\n      0x19\n      dup2\n      mstore\n      0x20\n      add\n      0x7472616e7366657228616464726573732c75696e743235362900000000000000\n      dup2\n      mstore\n      pop\n        /* \"contracts/pair.sol\":411:456  keccak256(bytes('transfer(address,uint256)')) */\n      dup1\n      mload\n      swap1\n      0x20\n      add\n      keccak256\n        /* \"contracts/pair.sol\":2021:2023  to */\n      dup6\n        /* \"contracts/pair.sol\":2025:2030  value */\n      dup6\n        /* \"contracts/pair.sol\":1988:2031  abi.encodeWithSelector(SELECTOR, to, value) */\n      add(0x24, mload(0x40))\n      dup1\n      dup4\n      0xffffffffffffffffffffffffffffffffffffffff\n      and\n      0xffffffffffffffffffffffffffffffffffffffff\n      and\n      dup2\n      mstore\n      0x20\n      add\n      dup3\n      dup2\n      mstore\n      0x20\n      add\n      swap3\n      pop\n      pop\n      pop\n      mload(0x40)\n        /* \"--CODEGEN--\":49:53   */\n      0x20\n        /* \"--CODEGEN--\":39:46   */\n      dup2\n        /* \"--CODEGEN--\":30:37   */\n      dup4\n        /* \"--CODEGEN--\":26:47   */\n      sub\n        /* \"--CODEGEN--\":22:54   */\n      sub\n        /* \"--CODEGEN--\":13:20   */\n      dup2\n        /* \"--CODEGEN--\":6:55   */\n      mstore\n        /* \"contracts/pair.sol\":1988:2031  abi.encodeWithSelector(SELECTOR, to, value) */\n      swap1\n      0x40\n      mstore\n      swap1\n      not(0xffffffffffffffffffffffffffffffffffffffffffffffffffffffff)\n      and\n        /* \"--CODEGEN--\":38:42   */\n      0x20\n        /* \"--CODEGEN--\":29:36   */\n      dup3\n        /* \"--CODEGEN--\":25:43   */\n      add\n        /* \"--CODEGEN--\":67:77   */\n      dup1\n        /* \"--CODEGEN--\":61:78   */\n      mload\n        /* \"--CODEGEN--\":96:154   */\n      0xffffffffffffffffffffffffffffffffffffffffffffffffffffffff\n        /* \"--CODEGEN--\":199:207   */\n      dup4\n        /* \"--CODEGEN--\":192:196   */\n      dup2\n        /* \"--CODEGEN--\":186:190   */\n      dup4\n        /* \"--CODEGEN--\":182:197   */\n      and\n        /* \"--CODEGEN--\":179:208   */\n      or\n        /* \"--CODEGEN--\":167:177   */\n      dup4\n        /* \"--CODEGEN--\":160:209   */\n      mstore\n        /* \"--CODEGEN--\":0:215   */\n      pop\n      pop\n      pop\n        /* \"contracts/pair.sol\":1988:2031  abi.encodeWithSelector(SELECTOR, to, value) */\n      pop\n        /* \"contracts/pair.sol\":1977:2032  token.call(abi.encodeWithSelector(SELECTOR, to, value)) */\n      mload(0x40)\n      dup1\n      dup3\n      dup1\n      mload\n      swap1\n      0x20\n      add\n      swap1\n      dup1\n      dup4\n      dup4\n        /* \"--CODEGEN--\":36:189   */\n    tag_503:\n        /* \"--CODEGEN--\":66:68   */\n      0x20\n        /* \"--CODEGEN--\":61:64   */\n      dup4\n        /* \"--CODEGEN--\":58:69   */\n      lt\n        /* \"--CODEGEN--\":36:189   */\n      tag_505\n      jumpi\n        /* \"--CODEGEN--\":182:185   */\n      dup1\n        /* \"--CODEGEN--\":176:186   */\n      mload\n        /* \"--CODEGEN--\":171:174   */\n      dup3\n        /* \"--CODEGEN--\":164:187   */\n      mstore\n        /* \"--CODEGEN--\":98:100   */\n      0x20\n        /* \"--CODEGEN--\":93:96   */\n      dup3\n        /* \"--CODEGEN--\":89:101   */\n      add\n        /* \"--CODEGEN--\":82:101   */\n      swap2\n      pop\n        /* \"--CODEGEN--\":123:125   */\n      0x20\n        /* \"--CODEGEN--\":118:121   */\n      dup2\n        /* \"--CODEGEN--\":114:126   */\n      add\n        /* \"--CODEGEN--\":107:126   */\n      swap1\n      pop\n        /* \"--CODEGEN--\":148:150   */\n      0x20\n        /* \"--CODEGEN--\":143:146   */\n      dup4\n        /* \"--CODEGEN--\":139:151   */\n      sub\n        /* \"--CODEGEN--\":132:151   */\n      swap3\n      pop\n        /* \"--CODEGEN--\":36:189   */\n      jump(tag_503)\n    tag_505:\n        /* \"--CODEGEN--\":274:275   */\n      0x01\n        /* \"--CODEGEN--\":267:270   */\n      dup4\n        /* \"--CODEGEN--\":263:265   */\n      0x20\n        /* \"--CODEGEN--\":259:271   */\n      sub\n        /* \"--CODEGEN--\":254:257   */\n      0x0100\n        /* \"--CODEGEN--\":250:272   */\n      exp\n        /* \"--CODEGEN--\":246:276   */\n      sub\n        /* \"--CODEGEN--\":315:319   */\n      dup1\n        /* \"--CODEGEN--\":311:320   */\n      not\n        /* \"--CODEGEN--\":305:308   */\n      dup3\n        /* \"--CODEGEN--\":299:309   */\n      mload\n        /* \"--CODEGEN--\":295:321   */\n      and\n        /* \"--CODEGEN--\":356:360   */\n      dup2\n        /* \"--CODEGEN--\":350:353   */\n      dup5\n        /* \"--CODEGEN--\":344:354   */\n      mload\n        /* \"--CODEGEN--\":340:361   */\n      and\n        /* \"--CODEGEN--\":389:396   */\n      dup1\n        /* \"--CODEGEN--\":380:387   */\n      dup3\n        /* \"--CODEGEN--\":377:397   */\n      or\n        /* \"--CODEGEN--\":372:375   */\n      dup6\n        /* \"--CODEGEN--\":365:398   */\n      mstore\n        /* \"--CODEGEN--\":3:402   */\n      pop\n      pop\n      pop\n        /* \"contracts/pair.sol\":1977:2032  token.call(abi.encodeWithSelector(SELECTOR, to, value)) */\n      pop\n      pop\n      pop\n      swap1\n      pop\n      add\n      swap2\n      pop\n      pop\n      0x00\n      mload(0x40)\n      dup1\n      dup4\n      sub\n      dup2\n      0x00\n      dup7\n      gas\n      call\n      swap2\n      pop\n      pop\n      returndatasize\n        /* \"--CODEGEN--\":14:15   */\n      dup1\n        /* \"--CODEGEN--\":21:22   */\n      0x00\n        /* \"--CODEGEN--\":16:47   */\n      dup2\n      eq\n      tag_507\n      jumpi\n        /* \"--CODEGEN--\":75:79   */\n      0x40\n        /* \"--CODEGEN--\":69:80   */\n      mload\n        /* \"--CODEGEN--\":64:80   */\n      swap2\n      pop\n        /* \"--CODEGEN--\":144:148   */\n      0x1f\n        /* \"--CODEGEN--\":140:149   */\n      not\n        /* \"--CODEGEN--\":133:137   */\n      0x3f\n        /* \"--CODEGEN--\":115:131   */\n      returndatasize\n        /* \"--CODEGEN--\":111:138   */\n      add\n        /* \"--CODEGEN--\":107:150   */\n      and\n        /* \"--CODEGEN--\":104:105   */\n      dup3\n        /* \"--CODEGEN--\":100:151   */\n      add\n        /* \"--CODEGEN--\":94:98   */\n      0x40\n        /* \"--CODEGEN--\":87:152   */\n      mstore\n        /* \"--CODEGEN--\":169:185   */\n      returndatasize\n        /* \"--CODEGEN--\":166:167   */\n      dup3\n        /* \"--CODEGEN--\":159:186   */\n      mstore\n        /* \"--CODEGEN--\":225:241   */\n      returndatasize\n        /* \"--CODEGEN--\":222:223   */\n      0x00\n        /* \"--CODEGEN--\":215:219   */\n      0x20\n        /* \"--CODEGEN--\":212:213   */\n      dup5\n        /* \"--CODEGEN--\":208:220   */\n      add\n        /* \"--CODEGEN--\":193:242   */\n      returndatacopy\n        /* \"--CODEGEN--\":7:249   */\n      jump(tag_506)\n        /* \"--CODEGEN--\":16:47   */\n    tag_507:\n        /* \"--CODEGEN--\":36:40   */\n      0x60\n        /* \"--CODEGEN--\":31:40   */\n      swap2\n      pop\n        /* \"--CODEGEN--\":7:249   */\n    tag_506:\n      pop\n        /* \"contracts/pair.sol\":1941:2032  (bool success, bytes memory data) = token.call(abi.encodeWithSelector(SELECTOR, to, value)) */\n      swap2\n      pop\n      swap2\n      pop\n        /* \"contracts/pair.sol\":2046:2053  success */\n      dup2\n        /* \"contracts/pair.sol\":2046:2103  success && (data.length == 0 || abi.decode(data, (bool))) */\n      dup1\n      iszero\n      tag_508\n      jumpi\n      pop\n        /* \"contracts/pair.sol\":2073:2074  0 */\n      0x00\n        /* \"contracts/pair.sol\":2058:2062  data */\n      dup2\n        /* \"contracts/pair.sol\":2058:2069  data.length */\n      mload\n        /* \"contracts/pair.sol\":2058:2074  data.length == 0 */\n      eq\n        /* \"contracts/pair.sol\":2058:2102  data.length == 0 || abi.decode(data, (bool)) */\n      dup1\n      tag_509\n      jumpi\n      pop\n        /* \"contracts/pair.sol\":2089:2093  data */\n      dup1\n        /* \"contracts/pair.sol\":2078:2102  abi.decode(data, (bool)) */\n      dup1\n      0x20\n      add\n      swap1\n      mload\n        /* \"--CODEGEN--\":13:15   */\n      0x20\n        /* \"--CODEGEN--\":8:11   */\n      dup2\n        /* \"--CODEGEN--\":5:16   */\n      lt\n        /* \"--CODEGEN--\":2:4   */\n      iszero\n      tag_510\n      jumpi\n        /* \"--CODEGEN--\":29:30   */\n      0x00\n        /* \"--CODEGEN--\":26:27   */\n      dup1\n        /* \"--CODEGEN--\":19:31   */\n      revert\n        /* \"--CODEGEN--\":2:4   */\n    tag_510:\n        /* \"contracts/pair.sol\":2078:2102  abi.decode(data, (bool)) */\n      dup2\n      add\n      swap1\n      dup1\n      dup1\n      mload\n      swap1\n      0x20\n      add\n      swap1\n      swap3\n      swap2\n      swap1\n      pop\n      pop\n      pop\n        /* \"contracts/pair.sol\":2058:2102  data.length == 0 || abi.decode(data, (bool)) */\n    tag_509:\n        /* \"contracts/pair.sol\":2046:2103  success && (data.length == 0 || abi.decode(data, (bool))) */\n    tag_508:\n        /* \"contracts/pair.sol\":2038:2138  require(success && (data.length == 0 || abi.decode(data, (bool))), 'eZKaliburPair: TRANSFER_FAILED') */\n      tag_511\n      jumpi\n      mload(0x40)\n      0x08c379a000000000000000000000000000000000000000000000000000000000\n      dup2\n      mstore\n      0x04\n      add\n      dup1\n      dup1\n      0x20\n      add\n      dup3\n      dup2\n      sub\n      dup3\n      mstore\n      0x1e\n      dup2\n      mstore\n      0x20\n      add\n      dup1\n      0x655a4b616c69627572506169723a205452414e534645525f4641494c45440000\n      dup2\n      mstore\n      pop\n      0x20\n      add\n      swap2\n      pop\n      pop\n      mload(0x40)\n      dup1\n      swap2\n      sub\n      swap1\n      revert\n    tag_511:\n        /* \"contracts/pair.sol\":1865:2143  function _safeTransfer(address token, address to, uint value) private {... */\n      pop\n      pop\n      pop\n      pop\n      pop\n      jump\t// out\n        /* \"contracts/pair.sol\":15521:16617  function _getAmountOut(uint amountIn, address tokenIn, uint _reserve0, uint _reserve1, uint feePercent) internal view returns (uint) {... */\n    tag_315:\n        /* \"contracts/pair.sol\":15648:15652  uint */\n      0x00\n        /* \"contracts/pair.sol\":15664:15674  stableSwap */\n      0x0c\n      0x00\n      swap1\n      sload\n      swap1\n      0x0100\n      exp\n      swap1\n      div\n      0xff\n      and\n        /* \"contracts/pair.sol\":15660:16613  if (stableSwap) {... */\n      iszero\n      tag_513\n      jumpi\n        /* \"contracts/pair.sol\":15695:15751  amountIn.sub(amountIn.mul(feePercent) / FEE_DENOMINATOR) */\n      tag_514\n        /* \"contracts/pair.sol\":606:612  100000 */\n      0x0186a0\n        /* \"contracts/pair.sol\":15708:15732  amountIn.mul(feePercent) */\n      tag_515\n        /* \"contracts/pair.sol\":15721:15731  feePercent */\n      dup5\n        /* \"contracts/pair.sol\":15708:15716  amountIn */\n      dup10\n        /* \"contracts/pair.sol\":15708:15720  amountIn.mul */\n      tag_239\n      swap1\n        /* \"contracts/pair.sol\":15708:15732  amountIn.mul(feePercent) */\n      swap2\n      swap1\n      0xffffffff\n      and\n      jump\t// in\n    tag_515:\n        /* \"contracts/pair.sol\":15708:15750  amountIn.mul(feePercent) / FEE_DENOMINATOR */\n      dup2\n      tag_516\n      jumpi\n      invalid\n    tag_516:\n      div\n        /* \"contracts/pair.sol\":15695:15703  amountIn */\n      dup8\n        /* \"contracts/pair.sol\":15695:15707  amountIn.sub */\n      tag_173\n      swap1\n        /* \"contracts/pair.sol\":15695:15751  amountIn.sub(amountIn.mul(feePercent) / FEE_DENOMINATOR) */\n      swap2\n      swap1\n      0xffffffff\n      and\n      jump\t// in\n    tag_514:\n        /* \"contracts/pair.sol\":15684:15751  amountIn = amountIn.sub(amountIn.mul(feePercent) / FEE_DENOMINATOR) */\n      swap6\n      pop\n        /* \"contracts/pair.sol\":15794:15801  uint xy */\n      0x00\n        /* \"contracts/pair.sol\":15804:15828  _k(_reserve0, _reserve1) */\n      tag_517\n        /* \"contracts/pair.sol\":15807:15816  _reserve0 */\n      dup6\n        /* \"contracts/pair.sol\":15818:15827  _reserve1 */\n      dup6\n        /* \"contracts/pair.sol\":15804:15806  _k */\n      tag_193\n        /* \"contracts/pair.sol\":15804:15828  _k(_reserve0, _reserve1) */\n      jump\t// in\n    tag_517:\n        /* \"contracts/pair.sol\":15794:15828  uint xy = _k(_reserve0, _reserve1) */\n      swap1\n      pop\n        /* \"contracts/pair.sol\":15867:15887  precisionMultiplier0 */\n      sload(0x09)\n        /* \"contracts/pair.sol\":15860:15864  1e18 */\n      0x0de0b6b3a7640000\n        /* \"contracts/pair.sol\":15848:15857  _reserve0 */\n      dup7\n        /* \"contracts/pair.sol\":15848:15864  _reserve0 * 1e18 */\n      mul\n        /* \"contracts/pair.sol\":15848:15887  _reserve0 * 1e18 / precisionMultiplier0 */\n      dup2\n      tag_518\n      jumpi\n      invalid\n    tag_518:\n      div\n        /* \"contracts/pair.sol\":15836:15887  _reserve0 = _reserve0 * 1e18 / precisionMultiplier0 */\n      swap5\n      pop\n        /* \"contracts/pair.sol\":15926:15946  precisionMultiplier1 */\n      sload(0x0a)\n        /* \"contracts/pair.sol\":15919:15923  1e18 */\n      0x0de0b6b3a7640000\n        /* \"contracts/pair.sol\":15907:15916  _reserve1 */\n      dup6\n        /* \"contracts/pair.sol\":15907:15923  _reserve1 * 1e18 */\n      mul\n        /* \"contracts/pair.sol\":15907:15946  _reserve1 * 1e18 / precisionMultiplier1 */\n      dup2\n      tag_519\n      jumpi\n      invalid\n    tag_519:\n      div\n        /* \"contracts/pair.sol\":15895:15946  _reserve1 = _reserve1 * 1e18 / precisionMultiplier1 */\n      swap4\n      pop\n        /* \"contracts/pair.sol\":15956:15969  uint reserveA */\n      0x00\n        /* \"contracts/pair.sol\":15971:15984  uint reserveB */\n      dup1\n        /* \"contracts/pair.sol\":15999:16005  token0 */\n      0x06\n      0x00\n      swap1\n      sload\n      swap1\n      0x0100\n      exp\n      swap1\n      div\n      0xffffffffffffffffffffffffffffffffffffffff\n      and\n        /* \"contracts/pair.sol\":15988:16005  tokenIn == token0 */\n      0xffffffffffffffffffffffffffffffffffffffff\n      and\n        /* \"contracts/pair.sol\":15988:15995  tokenIn */\n      dup9\n        /* \"contracts/pair.sol\":15988:16005  tokenIn == token0 */\n      0xffffffffffffffffffffffffffffffffffffffff\n      and\n      eq\n        /* \"contracts/pair.sol\":15988:16055  tokenIn == token0 ? (_reserve0, _reserve1) : (_reserve1, _reserve0) */\n      tag_520\n      jumpi\n        /* \"contracts/pair.sol\":16034:16043  _reserve1 */\n      dup6\n        /* \"contracts/pair.sol\":16045:16054  _reserve0 */\n      dup8\n        /* \"contracts/pair.sol\":15988:16055  tokenIn == token0 ? (_reserve0, _reserve1) : (_reserve1, _reserve0) */\n      jump(tag_521)\n    tag_520:\n        /* \"contracts/pair.sol\":16009:16018  _reserve0 */\n      dup7\n        /* \"contracts/pair.sol\":16020:16029  _reserve1 */\n      dup7\n        /* \"contracts/pair.sol\":15988:16055  tokenIn == token0 ? (_reserve0, _reserve1) : (_reserve1, _reserve0) */\n    tag_521:\n        /* \"contracts/pair.sol\":15955:16055  (uint reserveA, uint reserveB) = tokenIn == token0 ? (_reserve0, _reserve1) : (_reserve1, _reserve0) */\n      swap2\n      pop\n      swap2\n      pop\n        /* \"contracts/pair.sol\":16085:16091  token0 */\n      0x06\n      0x00\n      swap1\n      sload\n      swap1\n      0x0100\n      exp\n      swap1\n      div\n      0xffffffffffffffffffffffffffffffffffffffff\n      and\n        /* \"contracts/pair.sol\":16074:16091  tokenIn == token0 */\n      0xffffffffffffffffffffffffffffffffffffffff\n      and\n        /* \"contracts/pair.sol\":16074:16081  tokenIn */\n      dup9\n        /* \"contracts/pair.sol\":16074:16091  tokenIn == token0 */\n      0xffffffffffffffffffffffffffffffffffffffff\n      and\n      eq\n        /* \"contracts/pair.sol\":16074:16173  tokenIn == token0 ? amountIn * 1e18 / precisionMultiplier0 : amountIn * 1e18 / precisionMultiplier1 */\n      tag_522\n      jumpi\n        /* \"contracts/pair.sol\":16153:16173  precisionMultiplier1 */\n      sload(0x0a)\n        /* \"contracts/pair.sol\":16146:16150  1e18 */\n      0x0de0b6b3a7640000\n        /* \"contracts/pair.sol\":16135:16143  amountIn */\n      dup11\n        /* \"contracts/pair.sol\":16135:16150  amountIn * 1e18 */\n      mul\n        /* \"contracts/pair.sol\":16135:16173  amountIn * 1e18 / precisionMultiplier1 */\n      dup2\n      tag_523\n      jumpi\n      invalid\n    tag_523:\n      div\n        /* \"contracts/pair.sol\":16074:16173  tokenIn == token0 ? amountIn * 1e18 / precisionMultiplier0 : amountIn * 1e18 / precisionMultiplier1 */\n      jump(tag_524)\n    tag_522:\n        /* \"contracts/pair.sol\":16112:16132  precisionMultiplier0 */\n      sload(0x09)\n        /* \"contracts/pair.sol\":16105:16109  1e18 */\n      0x0de0b6b3a7640000\n        /* \"contracts/pair.sol\":16094:16102  amountIn */\n      dup11\n        /* \"contracts/pair.sol\":16094:16109  amountIn * 1e18 */\n      mul\n        /* \"contracts/pair.sol\":16094:16132  amountIn * 1e18 / precisionMultiplier0 */\n      dup2\n      tag_525\n      jumpi\n      invalid\n    tag_525:\n      div\n        /* \"contracts/pair.sol\":16074:16173  tokenIn == token0 ? amountIn * 1e18 / precisionMultiplier0 : amountIn * 1e18 / precisionMultiplier1 */\n    tag_524:\n        /* \"contracts/pair.sol\":16063:16173  amountIn = tokenIn == token0 ? amountIn * 1e18 / precisionMultiplier0 : amountIn * 1e18 / precisionMultiplier1 */\n      swap9\n      pop\n        /* \"contracts/pair.sol\":16181:16187  uint y */\n      0x00\n        /* \"contracts/pair.sol\":16201:16242  _get_y(amountIn + reserveA, xy, reserveB) */\n      tag_526\n        /* \"contracts/pair.sol\":16219:16227  reserveA */\n      dup4\n        /* \"contracts/pair.sol\":16208:16216  amountIn */\n      dup12\n        /* \"contracts/pair.sol\":16208:16227  amountIn + reserveA */\n      add\n        /* \"contracts/pair.sol\":16229:16231  xy */\n      dup6\n        /* \"contracts/pair.sol\":16233:16241  reserveB */\n      dup5\n        /* \"contracts/pair.sol\":16201:16207  _get_y */\n      tag_527\n        /* \"contracts/pair.sol\":16201:16242  _get_y(amountIn + reserveA, xy, reserveB) */\n      jump\t// in\n    tag_526:\n        /* \"contracts/pair.sol\":16190:16198  reserveB */\n      dup3\n        /* \"contracts/pair.sol\":16190:16242  reserveB - _get_y(amountIn + reserveA, xy, reserveB) */\n      sub\n        /* \"contracts/pair.sol\":16181:16242  uint y = reserveB - _get_y(amountIn + reserveA, xy, reserveB) */\n      swap1\n      pop\n        /* \"contracts/pair.sol\":16329:16333  1e18 */\n      0x0de0b6b3a7640000\n        /* \"contracts/pair.sol\":16273:16279  token0 */\n      0x06\n      0x00\n      swap1\n      sload\n      swap1\n      0x0100\n      exp\n      swap1\n      div\n      0xffffffffffffffffffffffffffffffffffffffff\n      and\n        /* \"contracts/pair.sol\":16262:16279  tokenIn == token0 */\n      0xffffffffffffffffffffffffffffffffffffffff\n      and\n        /* \"contracts/pair.sol\":16262:16269  tokenIn */\n      dup11\n        /* \"contracts/pair.sol\":16262:16279  tokenIn == token0 */\n      0xffffffffffffffffffffffffffffffffffffffff\n      and\n      eq\n        /* \"contracts/pair.sol\":16262:16325  tokenIn == token0 ? precisionMultiplier1 : precisionMultiplier0 */\n      tag_528\n      jumpi\n        /* \"contracts/pair.sol\":16305:16325  precisionMultiplier0 */\n      sload(0x09)\n        /* \"contracts/pair.sol\":16262:16325  tokenIn == token0 ? precisionMultiplier1 : precisionMultiplier0 */\n      jump(tag_529)\n    tag_528:\n        /* \"contracts/pair.sol\":16282:16302  precisionMultiplier1 */\n      sload(0x0a)\n        /* \"contracts/pair.sol\":16262:16325  tokenIn == token0 ? precisionMultiplier1 : precisionMultiplier0 */\n    tag_529:\n        /* \"contracts/pair.sol\":16257:16258  y */\n      dup3\n        /* \"contracts/pair.sol\":16257:16326  y * (tokenIn == token0 ? precisionMultiplier1 : precisionMultiplier0) */\n      mul\n        /* \"contracts/pair.sol\":16257:16333  y * (tokenIn == token0 ? precisionMultiplier1 : precisionMultiplier0) / 1e18 */\n      dup2\n      tag_530\n      jumpi\n      invalid\n    tag_530:\n      div\n        /* \"contracts/pair.sol\":16250:16333  return y * (tokenIn == token0 ? precisionMultiplier1 : precisionMultiplier0) / 1e18 */\n      swap5\n      pop\n      pop\n      pop\n      pop\n      pop\n      jump(tag_512)\n        /* \"contracts/pair.sol\":15660:16613  if (stableSwap) {... */\n    tag_513:\n        /* \"contracts/pair.sol\":16356:16369  uint reserveA */\n      0x00\n        /* \"contracts/pair.sol\":16371:16384  uint reserveB */\n      dup1\n        /* \"contracts/pair.sol\":16399:16405  token0 */\n      0x06\n      0x00\n      swap1\n      sload\n      swap1\n      0x0100\n      exp\n      swap1\n      div\n      0xffffffffffffffffffffffffffffffffffffffff\n      and\n        /* \"contracts/pair.sol\":16388:16405  tokenIn == token0 */\n      0xffffffffffffffffffffffffffffffffffffffff\n      and\n        /* \"contracts/pair.sol\":16388:16395  tokenIn */\n      dup8\n        /* \"contracts/pair.sol\":16388:16405  tokenIn == token0 */\n      0xffffffffffffffffffffffffffffffffffffffff\n      and\n      eq\n        /* \"contracts/pair.sol\":16388:16455  tokenIn == token0 ? (_reserve0, _reserve1) : (_reserve1, _reserve0) */\n      tag_532\n      jumpi\n        /* \"contracts/pair.sol\":16434:16443  _reserve1 */\n      dup5\n        /* \"contracts/pair.sol\":16445:16454  _reserve0 */\n      dup7\n        /* \"contracts/pair.sol\":16388:16455  tokenIn == token0 ? (_reserve0, _reserve1) : (_reserve1, _reserve0) */\n      jump(tag_533)\n    tag_532:\n        /* \"contracts/pair.sol\":16409:16418  _reserve0 */\n      dup6\n        /* \"contracts/pair.sol\":16420:16429  _reserve1 */\n      dup6\n        /* \"contracts/pair.sol\":16388:16455  tokenIn == token0 ? (_reserve0, _reserve1) : (_reserve1, _reserve0) */\n    tag_533:\n        /* \"contracts/pair.sol\":16355:16455  (uint reserveA, uint reserveB) = tokenIn == token0 ? (_reserve0, _reserve1) : (_reserve1, _reserve0) */\n      swap2\n      pop\n      swap2\n      pop\n        /* \"contracts/pair.sol\":16474:16519  amountIn.mul(FEE_DENOMINATOR.sub(feePercent)) */\n      tag_534\n        /* \"contracts/pair.sol\":16487:16518  FEE_DENOMINATOR.sub(feePercent) */\n      tag_535\n        /* \"contracts/pair.sol\":16507:16517  feePercent */\n      dup6\n        /* \"contracts/pair.sol\":606:612  100000 */\n      0x0186a0\n        /* \"contracts/pair.sol\":16487:16506  FEE_DENOMINATOR.sub */\n      tag_173\n      swap1\n        /* \"contracts/pair.sol\":16487:16518  FEE_DENOMINATOR.sub(feePercent) */\n      swap2\n      swap1\n      0xffffffff\n      and\n      jump\t// in\n    tag_535:\n        /* \"contracts/pair.sol\":16474:16482  amountIn */\n      dup10\n        /* \"contracts/pair.sol\":16474:16486  amountIn.mul */\n      tag_239\n      swap1\n        /* \"contracts/pair.sol\":16474:16519  amountIn.mul(FEE_DENOMINATOR.sub(feePercent)) */\n      swap2\n      swap1\n      0xffffffff\n      and\n      jump\t// in\n    tag_534:\n        /* \"contracts/pair.sol\":16463:16519  amountIn = amountIn.mul(FEE_DENOMINATOR.sub(feePercent)) */\n      swap8\n      pop\n        /* \"contracts/pair.sol\":16562:16605  reserveA.mul(FEE_DENOMINATOR).add(amountIn) */\n      tag_536\n        /* \"contracts/pair.sol\":16596:16604  amountIn */\n      dup9\n        /* \"contracts/pair.sol\":16562:16591  reserveA.mul(FEE_DENOMINATOR) */\n      tag_537\n        /* \"contracts/pair.sol\":606:612  100000 */\n      0x0186a0\n        /* \"contracts/pair.sol\":16562:16570  reserveA */\n      dup6\n        /* \"contracts/pair.sol\":16562:16574  reserveA.mul */\n      tag_239\n      swap1\n        /* \"contracts/pair.sol\":16562:16591  reserveA.mul(FEE_DENOMINATOR) */\n      swap2\n      swap1\n      0xffffffff\n      and\n      jump\t// in\n    tag_537:\n        /* \"contracts/pair.sol\":16562:16595  reserveA.mul(FEE_DENOMINATOR).add */\n      tag_435\n      swap1\n        /* \"contracts/pair.sol\":16562:16605  reserveA.mul(FEE_DENOMINATOR).add(amountIn) */\n      swap2\n      swap1\n      0xffffffff\n      and\n      jump\t// in\n    tag_536:\n        /* \"contracts/pair.sol\":16535:16557  amountIn.mul(reserveB) */\n      tag_538\n        /* \"contracts/pair.sol\":16548:16556  reserveB */\n      dup3\n        /* \"contracts/pair.sol\":16535:16543  amountIn */\n      dup11\n        /* \"contracts/pair.sol\":16535:16547  amountIn.mul */\n      tag_239\n      swap1\n        /* \"contracts/pair.sol\":16535:16557  amountIn.mul(reserveB) */\n      swap2\n      swap1\n      0xffffffff\n      and\n      jump\t// in\n    tag_538:\n        /* \"contracts/pair.sol\":16534:16606  (amountIn.mul(reserveB)) / (reserveA.mul(FEE_DENOMINATOR).add(amountIn)) */\n      dup2\n      tag_539\n      jumpi\n      invalid\n    tag_539:\n      div\n        /* \"contracts/pair.sol\":16527:16606  return (amountIn.mul(reserveB)) / (reserveA.mul(FEE_DENOMINATOR).add(amountIn)) */\n      swap3\n      pop\n      pop\n      pop\n        /* \"contracts/pair.sol\":15521:16617  function _getAmountOut(uint amountIn, address tokenIn, uint _reserve0, uint _reserve1, uint feePercent) internal view returns (uint) {... */\n    tag_512:\n      swap6\n      swap5\n      pop\n      pop\n      pop\n      pop\n      pop\n      jump\t// out\n        /* \"contracts/libraries/SafeMath.sol\":156:282  function add(uint x, uint y) internal pure returns (uint z) {... */\n    tag_435:\n        /* \"contracts/libraries/SafeMath.sol\":208:214  uint z */\n      0x00\n        /* \"contracts/libraries/SafeMath.sol\":249:250  x */\n      dup3\n        /* \"contracts/libraries/SafeMath.sol\":243:244  y */\n      dup3\n        /* \"contracts/libraries/SafeMath.sol\":239:240  x */\n      dup5\n        /* \"contracts/libraries/SafeMath.sol\":239:244  x + y */\n      add\n        /* \"contracts/libraries/SafeMath.sol\":235:244  z = x + y */\n      swap2\n      pop\n      dup2\n        /* \"contracts/libraries/SafeMath.sol\":234:250  (z = x + y) >= x */\n      lt\n      iszero\n        /* \"contracts/libraries/SafeMath.sol\":226:275  require((z = x + y) >= x, 'ds-math-add-overflow') */\n      tag_541\n      jumpi\n      mload(0x40)\n      0x08c379a000000000000000000000000000000000000000000000000000000000\n      dup2\n      mstore\n      0x04\n      add\n      dup1\n      dup1\n      0x20\n      add\n      dup3\n      dup2\n      sub\n      dup3\n      mstore\n      0x14\n      dup2\n      mstore\n      0x20\n      add\n      dup1\n      0x64732d6d6174682d6164642d6f766572666c6f77000000000000000000000000\n      dup2\n      mstore\n      pop\n      0x20\n      add\n      swap2\n      pop\n      pop\n      mload(0x40)\n      dup1\n      swap2\n      sub\n      swap1\n      revert\n    tag_541:\n        /* \"contracts/libraries/SafeMath.sol\":156:282  function add(uint x, uint y) internal pure returns (uint z) {... */\n      swap3\n      swap2\n      pop\n      pop\n      jump\t// out\n        /* \"contracts/pair.sol\":14427:14955  function _get_y(uint x0, uint xy, uint y) internal pure returns (uint) {... */\n    tag_527:\n        /* \"contracts/pair.sol\":14492:14496  uint */\n      0x00\n        /* \"contracts/pair.sol\":14509:14515  uint i */\n      dup1\n        /* \"contracts/pair.sol\":14518:14519  0 */\n      0x00\n        /* \"contracts/pair.sol\":14509:14519  uint i = 0 */\n      swap1\n      pop\n        /* \"contracts/pair.sol\":14504:14937  for (uint i = 0; i < 255; i++) {... */\n    tag_543:\n        /* \"contracts/pair.sol\":14525:14528  255 */\n      0xff\n        /* \"contracts/pair.sol\":14521:14522  i */\n      dup2\n        /* \"contracts/pair.sol\":14521:14528  i < 255 */\n      lt\n        /* \"contracts/pair.sol\":14504:14937  for (uint i = 0; i < 255; i++) {... */\n      iszero\n      tag_544\n      jumpi\n        /* \"contracts/pair.sol\":14543:14554  uint y_prev */\n      0x00\n        /* \"contracts/pair.sol\":14557:14558  y */\n      dup4\n        /* \"contracts/pair.sol\":14543:14558  uint y_prev = y */\n      swap1\n      pop\n        /* \"contracts/pair.sol\":14566:14572  uint k */\n      0x00\n        /* \"contracts/pair.sol\":14575:14584  _f(x0, y) */\n      tag_546\n        /* \"contracts/pair.sol\":14578:14580  x0 */\n      dup8\n        /* \"contracts/pair.sol\":14582:14583  y */\n      dup7\n        /* \"contracts/pair.sol\":14575:14577  _f */\n      tag_547\n        /* \"contracts/pair.sol\":14575:14584  _f(x0, y) */\n      jump\t// in\n    tag_546:\n        /* \"contracts/pair.sol\":14566:14584  uint k = _f(x0, y) */\n      swap1\n      pop\n        /* \"contracts/pair.sol\":14600:14602  xy */\n      dup6\n        /* \"contracts/pair.sol\":14596:14597  k */\n      dup2\n        /* \"contracts/pair.sol\":14596:14602  k < xy */\n      lt\n        /* \"contracts/pair.sol\":14592:14762  if (k < xy) {... */\n      iszero\n      tag_548\n      jumpi\n        /* \"contracts/pair.sol\":14614:14621  uint dy */\n      0x00\n        /* \"contracts/pair.sol\":14642:14651  _d(x0, y) */\n      tag_549\n        /* \"contracts/pair.sol\":14645:14647  x0 */\n      dup9\n        /* \"contracts/pair.sol\":14649:14650  y */\n      dup8\n        /* \"contracts/pair.sol\":14642:14644  _d */\n      tag_550\n        /* \"contracts/pair.sol\":14642:14651  _d(x0, y) */\n      jump\t// in\n    tag_549:\n        /* \"contracts/pair.sol\":14635:14639  1e18 */\n      0x0de0b6b3a7640000\n        /* \"contracts/pair.sol\":14630:14631  k */\n      dup4\n        /* \"contracts/pair.sol\":14625:14627  xy */\n      dup10\n        /* \"contracts/pair.sol\":14625:14631  xy - k */\n      sub\n        /* \"contracts/pair.sol\":14624:14639  (xy - k) * 1e18 */\n      mul\n        /* \"contracts/pair.sol\":14624:14651  (xy - k) * 1e18 / _d(x0, y) */\n      dup2\n      tag_551\n      jumpi\n      invalid\n    tag_551:\n      div\n        /* \"contracts/pair.sol\":14614:14651  uint dy = (xy - k) * 1e18 / _d(x0, y) */\n      swap1\n      pop\n        /* \"contracts/pair.sol\":14669:14671  dy */\n      dup1\n        /* \"contracts/pair.sol\":14665:14666  y */\n      dup7\n        /* \"contracts/pair.sol\":14665:14671  y + dy */\n      add\n        /* \"contracts/pair.sol\":14661:14671  y = y + dy */\n      swap6\n      pop\n        /* \"contracts/pair.sol\":14592:14762  if (k < xy) {... */\n      pop\n      jump(tag_552)\n    tag_548:\n        /* \"contracts/pair.sol\":14696:14703  uint dy */\n      0x00\n        /* \"contracts/pair.sol\":14724:14733  _d(x0, y) */\n      tag_553\n        /* \"contracts/pair.sol\":14727:14729  x0 */\n      dup9\n        /* \"contracts/pair.sol\":14731:14732  y */\n      dup8\n        /* \"contracts/pair.sol\":14724:14726  _d */\n      tag_550\n        /* \"contracts/pair.sol\":14724:14733  _d(x0, y) */\n      jump\t// in\n    tag_553:\n        /* \"contracts/pair.sol\":14717:14721  1e18 */\n      0x0de0b6b3a7640000\n        /* \"contracts/pair.sol\":14711:14713  xy */\n      dup9\n        /* \"contracts/pair.sol\":14707:14708  k */\n      dup5\n        /* \"contracts/pair.sol\":14707:14713  k - xy */\n      sub\n        /* \"contracts/pair.sol\":14706:14721  (k - xy) * 1e18 */\n      mul\n        /* \"contracts/pair.sol\":14706:14733  (k - xy) * 1e18 / _d(x0, y) */\n      dup2\n      tag_554\n      jumpi\n      invalid\n    tag_554:\n      div\n        /* \"contracts/pair.sol\":14696:14733  uint dy = (k - xy) * 1e18 / _d(x0, y) */\n      swap1\n      pop\n        /* \"contracts/pair.sol\":14751:14753  dy */\n      dup1\n        /* \"contracts/pair.sol\":14747:14748  y */\n      dup7\n        /* \"contracts/pair.sol\":14747:14753  y - dy */\n      sub\n        /* \"contracts/pair.sol\":14743:14753  y = y - dy */\n      swap6\n      pop\n        /* \"contracts/pair.sol\":14592:14762  if (k < xy) {... */\n      pop\n    tag_552:\n        /* \"contracts/pair.sol\":14777:14783  y_prev */\n      dup2\n        /* \"contracts/pair.sol\":14773:14774  y */\n      dup6\n        /* \"contracts/pair.sol\":14773:14783  y > y_prev */\n      gt\n        /* \"contracts/pair.sol\":14769:14931  if (y > y_prev) {... */\n      iszero\n      tag_555\n      jumpi\n        /* \"contracts/pair.sol\":14813:14814  1 */\n      0x01\n        /* \"contracts/pair.sol\":14803:14809  y_prev */\n      dup3\n        /* \"contracts/pair.sol\":14799:14800  y */\n      dup7\n        /* \"contracts/pair.sol\":14799:14809  y - y_prev */\n      sub\n        /* \"contracts/pair.sol\":14799:14814  y - y_prev <= 1 */\n      gt\n        /* \"contracts/pair.sol\":14795:14847  if (y - y_prev <= 1) {... */\n      tag_556\n      jumpi\n        /* \"contracts/pair.sol\":14835:14836  y */\n      dup5\n        /* \"contracts/pair.sol\":14828:14836  return y */\n      swap4\n      pop\n      pop\n      pop\n      pop\n      jump(tag_542)\n        /* \"contracts/pair.sol\":14795:14847  if (y - y_prev <= 1) {... */\n    tag_556:\n        /* \"contracts/pair.sol\":14769:14931  if (y > y_prev) {... */\n      jump(tag_557)\n    tag_555:\n        /* \"contracts/pair.sol\":14889:14890  1 */\n      0x01\n        /* \"contracts/pair.sol\":14884:14885  y */\n      dup6\n        /* \"contracts/pair.sol\":14875:14881  y_prev */\n      dup4\n        /* \"contracts/pair.sol\":14875:14885  y_prev - y */\n      sub\n        /* \"contracts/pair.sol\":14875:14890  y_prev - y <= 1 */\n      gt\n        /* \"contracts/pair.sol\":14871:14923  if (y_prev - y <= 1) {... */\n      tag_558\n      jumpi\n        /* \"contracts/pair.sol\":14911:14912  y */\n      dup5\n        /* \"contracts/pair.sol\":14904:14912  return y */\n      swap4\n      pop\n      pop\n      pop\n      pop\n      jump(tag_542)\n        /* \"contracts/pair.sol\":14871:14923  if (y_prev - y <= 1) {... */\n    tag_558:\n        /* \"contracts/pair.sol\":14769:14931  if (y > y_prev) {... */\n    tag_557:\n        /* \"contracts/pair.sol\":14504:14937  for (uint i = 0; i < 255; i++) {... */\n      pop\n      pop\n        /* \"contracts/pair.sol\":14530:14533  i++ */\n      dup1\n      dup1\n      0x01\n      add\n      swap2\n      pop\n      pop\n        /* \"contracts/pair.sol\":14504:14937  for (uint i = 0; i < 255; i++) {... */\n      jump(tag_543)\n    tag_544:\n      pop\n        /* \"contracts/pair.sol\":14949:14950  y */\n      dup2\n        /* \"contracts/pair.sol\":14942:14950  return y */\n      swap1\n      pop\n        /* \"contracts/pair.sol\":14427:14955  function _get_y(uint x0, uint xy, uint y) internal pure returns (uint) {... */\n    tag_542:\n      swap4\n      swap3\n      pop\n      pop\n      pop\n      jump\t// out\n        /* \"contracts/pair.sol\":14959:15114  function _f(uint x0, uint y) internal pure returns (uint) {... */\n    tag_547:\n        /* \"contracts/pair.sol\":15011:15015  uint */\n      0x00\n        /* \"contracts/pair.sol\":15105:15109  1e18 */\n      0x0de0b6b3a7640000\n        /* \"contracts/pair.sol\":15101:15102  y */\n      dup3\n        /* \"contracts/pair.sol\":15093:15097  1e18 */\n      0x0de0b6b3a7640000\n        /* \"contracts/pair.sol\":15088:15090  x0 */\n      dup6\n        /* \"contracts/pair.sol\":15081:15085  1e18 */\n      0x0de0b6b3a7640000\n        /* \"contracts/pair.sol\":15076:15078  x0 */\n      dup8\n        /* \"contracts/pair.sol\":15071:15073  x0 */\n      dup9\n        /* \"contracts/pair.sol\":15071:15078  x0 * x0 */\n      mul\n        /* \"contracts/pair.sol\":15071:15085  x0 * x0 / 1e18 */\n      dup2\n      tag_560\n      jumpi\n      invalid\n    tag_560:\n      div\n        /* \"contracts/pair.sol\":15071:15090  x0 * x0 / 1e18 * x0 */\n      mul\n        /* \"contracts/pair.sol\":15071:15097  x0 * x0 / 1e18 * x0 / 1e18 */\n      dup2\n      tag_561\n      jumpi\n      invalid\n    tag_561:\n      div\n        /* \"contracts/pair.sol\":15070:15102  (x0 * x0 / 1e18 * x0 / 1e18) * y */\n      mul\n        /* \"contracts/pair.sol\":15070:15109  (x0 * x0 / 1e18 * x0 / 1e18) * y / 1e18 */\n      dup2\n      tag_562\n      jumpi\n      invalid\n    tag_562:\n      div\n        /* \"contracts/pair.sol\":15063:15067  1e18 */\n      0x0de0b6b3a7640000\n        /* \"contracts/pair.sol\":15055:15059  1e18 */\n      dup1\n        /* \"contracts/pair.sol\":15051:15052  y */\n      dup5\n        /* \"contracts/pair.sol\":15044:15048  1e18 */\n      0x0de0b6b3a7640000\n        /* \"contracts/pair.sol\":15040:15041  y */\n      dup7\n        /* \"contracts/pair.sol\":15036:15037  y */\n      dup8\n        /* \"contracts/pair.sol\":15036:15041  y * y */\n      mul\n        /* \"contracts/pair.sol\":15036:15048  y * y / 1e18 */\n      dup2\n      tag_563\n      jumpi\n      invalid\n    tag_563:\n      div\n        /* \"contracts/pair.sol\":15036:15052  y * y / 1e18 * y */\n      mul\n        /* \"contracts/pair.sol\":15036:15059  y * y / 1e18 * y / 1e18 */\n      dup2\n      tag_564\n      jumpi\n      invalid\n    tag_564:\n      div\n        /* \"contracts/pair.sol\":15030:15032  x0 */\n      dup6\n        /* \"contracts/pair.sol\":15030:15060  x0 * (y * y / 1e18 * y / 1e18) */\n      mul\n        /* \"contracts/pair.sol\":15030:15067  x0 * (y * y / 1e18 * y / 1e18) / 1e18 */\n      dup2\n      tag_565\n      jumpi\n      invalid\n    tag_565:\n      div\n        /* \"contracts/pair.sol\":15030:15109  x0 * (y * y / 1e18 * y / 1e18) / 1e18 + (x0 * x0 / 1e18 * x0 / 1e18) * y / 1e18 */\n      add\n        /* \"contracts/pair.sol\":15023:15109  return x0 * (y * y / 1e18 * y / 1e18) / 1e18 + (x0 * x0 / 1e18 * x0 / 1e18) * y / 1e18 */\n      swap1\n      pop\n        /* \"contracts/pair.sol\":14959:15114  function _f(uint x0, uint y) internal pure returns (uint) {... */\n      swap3\n      swap2\n      pop\n      pop\n      jump\t// out\n        /* \"contracts/pair.sol\":15118:15255  function _d(uint x0, uint y) internal pure returns (uint) {... */\n    tag_550:\n        /* \"contracts/pair.sol\":15170:15174  uint */\n      0x00\n        /* \"contracts/pair.sol\":15245:15249  1e18 */\n      0x0de0b6b3a7640000\n        /* \"contracts/pair.sol\":15240:15242  x0 */\n      dup4\n        /* \"contracts/pair.sol\":15233:15237  1e18 */\n      0x0de0b6b3a7640000\n        /* \"contracts/pair.sol\":15228:15230  x0 */\n      dup6\n        /* \"contracts/pair.sol\":15223:15225  x0 */\n      dup7\n        /* \"contracts/pair.sol\":15223:15230  x0 * x0 */\n      mul\n        /* \"contracts/pair.sol\":15223:15237  x0 * x0 / 1e18 */\n      dup2\n      tag_567\n      jumpi\n      invalid\n    tag_567:\n      div\n        /* \"contracts/pair.sol\":15223:15242  x0 * x0 / 1e18 * x0 */\n      mul\n        /* \"contracts/pair.sol\":15223:15249  x0 * x0 / 1e18 * x0 / 1e18 */\n      dup2\n      tag_568\n      jumpi\n      invalid\n    tag_568:\n      div\n        /* \"contracts/pair.sol\":15215:15219  1e18 */\n      0x0de0b6b3a7640000\n        /* \"contracts/pair.sol\":15207:15211  1e18 */\n      dup1\n        /* \"contracts/pair.sol\":15203:15204  y */\n      dup5\n        /* \"contracts/pair.sol\":15199:15200  y */\n      dup6\n        /* \"contracts/pair.sol\":15199:15204  y * y */\n      mul\n        /* \"contracts/pair.sol\":15199:15211  y * y / 1e18 */\n      dup2\n      tag_569\n      jumpi\n      invalid\n    tag_569:\n      div\n        /* \"contracts/pair.sol\":15193:15195  x0 */\n      dup6\n        /* \"contracts/pair.sol\":15189:15190  3 */\n      0x03\n        /* \"contracts/pair.sol\":15189:15195  3 * x0 */\n      mul\n        /* \"contracts/pair.sol\":15189:15212  3 * x0 * (y * y / 1e18) */\n      mul\n        /* \"contracts/pair.sol\":15189:15219  3 * x0 * (y * y / 1e18) / 1e18 */\n      dup2\n      tag_570\n      jumpi\n      invalid\n    tag_570:\n      div\n        /* \"contracts/pair.sol\":15189:15250  3 * x0 * (y * y / 1e18) / 1e18 + (x0 * x0 / 1e18 * x0 / 1e18) */\n      add\n        /* \"contracts/pair.sol\":15182:15250  return 3 * x0 * (y * y / 1e18) / 1e18 + (x0 * x0 / 1e18 * x0 / 1e18) */\n      swap1\n      pop\n        /* \"contracts/pair.sol\":15118:15255  function _d(uint x0, uint y) internal pure returns (uint) {... */\n      swap3\n      swap2\n      pop\n      pop\n      jump\t// out\n        /* \"contracts/pair.sol\":236:17820  contract EZKaliburPair is IPair, UniswapV2ERC20 {... */\n    tag_163:\n      mload(0x40)\n      dup1\n      0x0100\n      add\n      0x40\n      mstore\n      dup1\n      and(0xffffffffffffffffffffffffffffffffffffffff, 0x00)\n      dup2\n      mstore\n      0x20\n      add\n      and(0xffffffffffffffffffffffffffffffffffffffff, 0x00)\n      dup2\n      mstore\n      0x20\n      add\n      0x00\n      dup2\n      mstore\n      0x20\n      add\n      0x00\n      dup2\n      mstore\n      0x20\n      add\n      0x00\n      dup2\n      mstore\n      0x20\n      add\n      0x00\n      dup2\n      mstore\n      0x20\n      add\n      0x00\n      dup2\n      mstore\n      0x20\n      add\n      0x00\n      dup2\n      mstore\n      pop\n      swap1\n      jump\t// out\n    stop\n    data_2be17c6303e0c10da5ff1eb4b266c473ae5fd600c60b6f9faccee86002ad7d5e 655a4b616c69627572506169723a2066656550657263656e74206d7573746e27742065786365656420746865206d6178696d756d\n    data_5c26fe7bac5bd215670303820601ac49f0d4baeb8f47fd314bbc05e382ca9e12 655a4b616c69627572506169723a20494e53554646494349454e545f4c49515549444954595f4255524e4544\n    data_6c8afa2437545964ffee4c84b28541af800177f71a1bad08a0655cae5b8d43e9 655a4b616c69627572506169723a20494e53554646494349454e545f4c4951554944495459\n    data_8ab36b58f19f5658e716652a965572c61ec94ca2b0078cc5663963339a0ef78f 655a4b616c69627572506169723a20494e53554646494349454e545f4c49515549444954595f4d494e544544\n    data_985af2d628585b86a62c2a3e0e095aa532421cf73afcd9f40539c0e984229c9a 655a4b616c69627572506169723a20494e53554646494349454e545f4f55545055545f414d4f554e54\n    data_9ff115c8f228bb5656172ece44e1abafba1eb82b0ff5c74955e92e978f9be43b 655a4b616c69627572506169723a206f6e6c7920666163746f7279277320736574537461626c654f776e6572\n    data_b31389cdce9c235fb73cf94e115b26cc6b115463d873636778ed56513abefea0 655a4b616c69627572506169723a20494e53554646494349454e545f494e5055545f414d4f554e54\n    data_b812a7bb29dec6f526121e1bfdf77da0d9fd5f3d8c74be699d0a2f01be67e231 655a4b616c69627572506169723a206c697175696469747920726174696f206e6f7420696e697469616c697a6564\n    data_d1bf768db97cbb37158f2706c5b1b11ef80704d9d42c88986d88c55d10379282 655a4b616c69627572506169723a2066656550657263656e74206d7573746e27742065786365656420746865206d696e696d756d\n    data_f80fc17e443115161d9ed24aaf21c6e6102496443806d2822fe65bc11fc7a8d3 655a4b616c69627572506169723a206f6e6c7920666163746f7279277320666565416d6f756e744f776e6572\n    data_fd83120603ed4d82de96120f878f97f3eab3d3e5b9b17eb433b2f605b574072d 655a4b616c69627572506169723a206f6e6c7920666163746f72792773206f776e6572\n\n    auxdata: 0xa265627a7a72315820d4194c2de07f2c2ed647fcf04a0959f45ce34d7255041063afc557173c6d096564736f6c63430005100032\n}\n",
				"bytecode": {
					"linkReferences": {},
					"object": "608060405261012c6008601c6101000a81548161ffff021916908361ffff16021790555061012c6008601e6101000a81548161ffff021916908361ffff1602179055506001600d553480156200005457600080fd5b506000469050604051808062005fe060529139605201905060405180910390206040518060400160405280600c81526020017f655a4b616c69627572204c500000000000000000000000000000000000000000815250805190602001206040518060400160405280600181526020017f3100000000000000000000000000000000000000000000000000000000000000815250805190602001208330604051602001808681526020018581526020018481526020018381526020018273ffffffffffffffffffffffffffffffffffffffff1673ffffffffffffffffffffffffffffffffffffffff16815260200195505050505050604051602081830303815290604052805190602001206003819055505033600560006101000a81548173ffffffffffffffffffffffffffffffffffffffff021916908373ffffffffffffffffffffffffffffffffffffffff160217905550615e2a80620001b66000396000f3fe608060405234801561001057600080fd5b50600436106102485760003560e01c80636a6278421161013b578063ba9a7a56116100b8578063d73792a91161007c578063d73792a914610c9c578063dd62ed3e14610cba578063f140a35a14610d32578063f39ac11f14610d94578063fff6cae914610df857610248565b8063ba9a7a5614610b0d578063bc25cf7714610b2b578063c45a015514610b6f578063d21220a714610bb9578063d505accf14610c0357610248565b806389afcb44116100ff57806389afcb441461098157806395d89b41146109e05780639e548b7f14610a63578063a9059cbb14610a85578063b6200b0714610aeb57610248565b80636a6278421461078e5780636e1fdd7f146107e657806370a08231146108b35780637464fc3d1461090b5780637ecebe001461092957610248565b80633029e5d4116101c95780633ba170771161018d5780633ba170771461069c578063485cc955146106a657806348e5d2601461070a57806362ecec031461074a57806367d817401461077057610248565b80633029e5d4146105ba57806330adf81f1461061e578063313ce5671461063c5780633644e515146106605780633b9f1dc01461067e57610248565b8063158ef93e11610210578063158ef93e146104b057806318160ddd146104d257806323b872dd146104f0578063288e5d02146105765780632fcd16921461059457610248565b8063022c0d9f1461024d57806306fdde03146102fa5780630902f1ac1461037d578063095ea7b3146104005780630dfe168114610466575b600080fd5b6102f86004803603608081101561026357600080fd5b810190808035906020019092919080359060200190929190803573ffffffffffffffffffffffffffffffffffffffff169060200190929190803590602001906401000000008111156102b457600080fd5b8201836020820111156102c657600080fd5b803590602001918460018302840111640100000000831117156102e857600080fd5b9091929391929390505050610e02565b005b610302610f13565b6040518080602001828103825283818151815260200191508051906020019080838360005b83811015610342578082015181840152602081019050610327565b50505050905090810190601f16801561036f5780820380516001836020036101000a031916815260200191505b509250505060405180910390f35b610385610f4c565b60405180856dffffffffffffffffffffffffffff166dffffffffffffffffffffffffffff168152602001846dffffffffffffffffffffffffffff166dffffffffffffffffffffffffffff1681526020018361ffff1661ffff1681526020018261ffff1661ffff16815260200194505050505060405180910390f35b61044c6004803603604081101561041657600080fd5b81019080803573ffffffffffffffffffffffffffffffffffffffff16906020019092919080359060200190929190505050610fbc565b604051808215151515815260200191505060405180910390f35b61046e610fd3565b604051808273ffffffffffffffffffffffffffffffffffffffff1673ffffffffffffffffffffffffffffffffffffffff16815260200191505060405180910390f35b6104b8610ff9565b604051808215151515815260200191505060405180910390f35b6104da61100c565b6040518082815260200191505060405180910390f35b61055c6004803603606081101561050657600080fd5b81019080803573ffffffffffffffffffffffffffffffffffffffff169060200190929190803573ffffffffffffffffffffffffffffffffffffffff16906020019092919080359060200190929190505050611012565b604051808215151515815260200191505060405180910390f35b61057e611248565b6040518082815260200191505060405180910390f35b61059c61124e565b604051808261ffff1661ffff16815260200191505060405180910390f35b61061c600480360360608110156105d057600080fd5b8101908080351515906020019092919080356dffffffffffffffffffffffffffff16906020019092919080356dffffffffffffffffffffffffffff169060200190929190505050611262565b005b61062661174e565b6040518082815260200191505060405180910390f35b610644611775565b604051808260ff1660ff16815260200191505060405180910390f35b61066861177a565b6040518082815260200191505060405180910390f35b610686611780565b6040518082815260200191505060405180910390f35b6106a4611786565b005b610708600480360360408110156106bc57600080fd5b81019080803573ffffffffffffffffffffffffffffffffffffffff169060200190929190803573ffffffffffffffffffffffffffffffffffffffff169060200190929190505050611a00565b005b6107486004803603604081101561072057600080fd5b81019080803561ffff169060200190929190803561ffff169060200190929190505050611c97565b005b610752611fb0565b604051808261ffff1661ffff16815260200191505060405180910390f35b610778611fc4565b6040518082815260200191505060405180910390f35b6107d0600480360360208110156107a457600080fd5b81019080803573ffffffffffffffffffffffffffffffffffffffff169060200190929190505050611fca565b6040518082815260200191505060405180910390f35b6108b1600480360360a08110156107fc57600080fd5b810190808035906020019092919080359060200190929190803573ffffffffffffffffffffffffffffffffffffffff1690602001909291908035906020019064010000000081111561084d57600080fd5b82018360208201111561085f57600080fd5b8035906020019184600183028401116401000000008311171561088157600080fd5b9091929391929390803573ffffffffffffffffffffffffffffffffffffffff169060200190929190505050612471565b005b6108f5600480360360208110156108c957600080fd5b81019080803573ffffffffffffffffffffffffffffffffffffffff169060200190929190505050612582565b6040518082815260200191505060405180910390f35b61091361259a565b6040518082815260200191505060405180910390f35b61096b6004803603602081101561093f57600080fd5b81019080803573ffffffffffffffffffffffffffffffffffffffff1690602001909291905050506125a0565b6040518082815260200191505060405180910390f35b6109c36004803603602081101561099757600080fd5b81019080803573ffffffffffffffffffffffffffffffffffffffff1690602001909291905050506125b8565b604051808381526020018281526020019250505060405180910390f35b6109e8612b9b565b6040518080602001828103825283818151815260200191508051906020019080838360005b83811015610a28578082015181840152602081019050610a0d565b50505050905090810190601f168015610a555780820380516001836020036101000a031916815260200191505b509250505060405180910390f35b610a6b612bd4565b604051808215151515815260200191505060405180910390f35b610ad160048036036040811015610a9b57600080fd5b81019080803573ffffffffffffffffffffffffffffffffffffffff16906020019092919080359060200190929190505050612be7565b604051808215151515815260200191505060405180910390f35b610af3612bfe565b604051808215151515815260200191505060405180910390f35b610b15612c11565b6040518082815260200191505060405180910390f35b610b6d60048036036020811015610b4157600080fd5b81019080803573ffffffffffffffffffffffffffffffffffffffff169060200190929190505050612c17565b005b610b77612f1e565b604051808273ffffffffffffffffffffffffffffffffffffffff1673ffffffffffffffffffffffffffffffffffffffff16815260200191505060405180910390f35b610bc1612f44565b604051808273ffffffffffffffffffffffffffffffffffffffff1673ffffffffffffffffffffffffffffffffffffffff16815260200191505060405180910390f35b610c9a600480360360e0811015610c1957600080fd5b81019080803573ffffffffffffffffffffffffffffffffffffffff169060200190929190803573ffffffffffffffffffffffffffffffffffffffff1690602001909291908035906020019092919080359060200190929190803560ff1690602001909291908035906020019092919080359060200190929190505050612f6a565b005b610ca46132ae565b6040518082815260200191505060405180910390f35b610d1c60048036036040811015610cd057600080fd5b81019080803573ffffffffffffffffffffffffffffffffffffffff169060200190929190803573ffffffffffffffffffffffffffffffffffffffff1690602001909291905050506132b5565b6040518082815260200191505060405180910390f35b610d7e60048036036040811015610d4857600080fd5b8101908080359060200190929190803573ffffffffffffffffffffffffffffffffffffffff1690602001909291905050506132da565b6040518082815260200191505060405180910390f35b610df660048036036040811015610daa57600080fd5b81019080803573ffffffffffffffffffffffffffffffffffffffff169060200190929190803573ffffffffffffffffffffffffffffffffffffffff1690602001909291905050506133ce565b005b610e006137da565b005b610e0a615ba5565b604051806101000160405280600660009054906101000a900473ffffffffffffffffffffffffffffffffffffffff1673ffffffffffffffffffffffffffffffffffffffff168152602001600760009054906101000a900473ffffffffffffffffffffffffffffffffffffffff1673ffffffffffffffffffffffffffffffffffffffff16815260200187815260200186815260200160008152602001600081526020016000815260200160008152509050610f0b818585858080601f016020809104026020016040519081016040528093929190818152602001838380828437600081840152601f19601f820116905080830192505050505050506000613a93565b505050505050565b6040518060400160405280600c81526020017f655a4b616c69627572204c50000000000000000000000000000000000000000081525081565b600080600080600860009054906101000a90046dffffffffffffffffffffffffffff1693506008600e9054906101000a90046dffffffffffffffffffffffffffff1692506008601c9054906101000a900461ffff1691506008601e9054906101000a900461ffff16905090919293565b6000610fc9338484614897565b6001905092915050565b600660009054906101000a900473ffffffffffffffffffffffffffffffffffffffff1681565b600760149054906101000a900460ff1681565b60005481565b60007fffffffffffffffffffffffffffffffffffffffffffffffffffffffffffffffff600260008673ffffffffffffffffffffffffffffffffffffffff1673ffffffffffffffffffffffffffffffffffffffff16815260200190815260200160002060003373ffffffffffffffffffffffffffffffffffffffff1673ffffffffffffffffffffffffffffffffffffffff168152602001908152602001600020541461123257600061114883600260008873ffffffffffffffffffffffffffffffffffffffff1673ffffffffffffffffffffffffffffffffffffffff16815260200190815260200160002060003373ffffffffffffffffffffffffffffffffffffffff1673ffffffffffffffffffffffffffffffffffffffff1681526020019081526020016000205461498290919063ffffffff16565b905080600260008773ffffffffffffffffffffffffffffffffffffffff1673ffffffffffffffffffffffffffffffffffffffff16815260200190815260200160002060003373ffffffffffffffffffffffffffffffffffffffff1673ffffffffffffffffffffffffffffffffffffffff168152602001908152602001600020819055503373ffffffffffffffffffffffffffffffffffffffff168573ffffffffffffffffffffffffffffffffffffffff167f8c5be1e5ebec7d5bd14f71427d1e84f3dd0314c0f7b2291e5b200ac8c7c3b925836040518082815260200191505060405180910390a3505b61123d848484614a05565b600190509392505050565b600a5481565b6008601e9054906101000a900461ffff1681565b6001600d54146112da576040517f08c379a00000000000000000000000000000000000000000000000000000000081526004018080602001828103825260158152602001807f655a4b616c69627572506169723a204c4f434b4544000000000000000000000081525060200191505060405180910390fd5b6000600d81905550600560009054906101000a900473ffffffffffffffffffffffffffffffffffffffff1673ffffffffffffffffffffffffffffffffffffffff1663fc39026a6040518163ffffffff1660e01b815260040160206040518083038186803b15801561134a57600080fd5b505afa15801561135e573d6000803e3d6000fd5b505050506040513d602081101561137457600080fd5b810190808051906020019092919050505073ffffffffffffffffffffffffffffffffffffffff163373ffffffffffffffffffffffffffffffffffffffff1614611408576040517f08c379a000000000000000000000000000000000000000000000000000000000815260040180806020018281038252602c815260200180615cf1602c913960400191505060405180910390fd5b600c60019054906101000a900460ff161561148b576040517f08c379a00000000000000000000000000000000000000000000000000000000081526004018080602001828103825260188152602001807f655a4b616c69627572506169723a20696d6d757461626c65000000000000000081525060200191505060405180910390fd5b600c60009054906101000a900460ff1615158315151415611514576040517f08c379a00000000000000000000000000000000000000000000000000000000081526004018080602001828103825260188152602001807f655a4b616c69627572506169723a206e6f20757064617465000000000000000081525060200191505060405180910390fd5b600860009054906101000a90046dffffffffffffffffffffffffffff166dffffffffffffffffffffffffffff16826dffffffffffffffffffffffffffff1614801561159a57506008600e9054906101000a90046dffffffffffffffffffffffffffff166dffffffffffffffffffffffffffff16816dffffffffffffffffffffffffffff16145b61160c576040517f08c379a00000000000000000000000000000000000000000000000000000000081526004018080602001828103825260158152602001807f655a4b616c69627572506169723a206661696c6564000000000000000000000081525060200191505060405180910390fd5b6000611650600860009054906101000a90046dffffffffffffffffffffffffffff166008600e9054906101000a90046dffffffffffffffffffffffffffff16614b99565b90507fb6a86710bde53aa7fb1b3856279e2af5b476d53e2dd0902cf17a0911b5a43a8b600c60009054906101000a900460ff16856040518083151515158152602001821515151581526020019250505060405180910390a183600c60006101000a81548160ff0219169083151502179055508380156116cc5750805b6116d757600061173a565b611739600860009054906101000a90046dffffffffffffffffffffffffffff166dffffffffffffffffffffffffffff166008600e9054906101000a90046dffffffffffffffffffffffffffff166dffffffffffffffffffffffffffff16614dfb565b5b600b81905550506001600d81905550505050565b7f6e71edae12b1b97f4d1f60370fef10105fa2faae0126114a169c64845d6126c960001b81565b601281565b60035481565b60095481565b6001600d54146117fe576040517f08c379a00000000000000000000000000000000000000000000000000000000081526004018080602001828103825260158152602001807f655a4b616c69627572506169723a204c4f434b4544000000000000000000000081525060200191505060405180910390fd5b6000600d81905550600560009054906101000a900473ffffffffffffffffffffffffffffffffffffffff1673ffffffffffffffffffffffffffffffffffffffff16638da5cb5b6040518163ffffffff1660e01b815260040160206040518083038186803b15801561186e57600080fd5b505afa158015611882573d6000803e3d6000fd5b505050506040513d602081101561189857600080fd5b810190808051906020019092919050505073ffffffffffffffffffffffffffffffffffffffff163373ffffffffffffffffffffffffffffffffffffffff161461192c576040517f08c379a0000000000000000000000000000000000000000000000000000000008152600401808060200182810382526023815260200180615dd36023913960400191505060405180910390fd5b600c60019054906101000a900460ff16156119af576040517f08c379a00000000000000000000000000000000000000000000000000000000081526004018080602001828103825260208152602001807f655a4b616c69627572506169723a20616c726561647920696d6d757461626c6581525060200191505060405180910390fd5b6001600c60016101000a81548160ff0219169083151502179055507f09122c41ae733a4d7740324d50e35fbd6ee85be3c1312a45596d8045150ab2f260405160405180910390a16001600d81905550565b600560009054906101000a900473ffffffffffffffffffffffffffffffffffffffff1673ffffffffffffffffffffffffffffffffffffffff163373ffffffffffffffffffffffffffffffffffffffff16148015611a6a5750600760149054906101000a900460ff16155b611adc576040517f08c379a00000000000000000000000000000000000000000000000000000000081526004018080602001828103825260188152602001807f655a4b616c69627572506169723a20464f5242494444454e000000000000000081525060200191505060405180910390fd5b81600660006101000a81548173ffffffffffffffffffffffffffffffffffffffff021916908373ffffffffffffffffffffffffffffffffffffffff16021790555080600760006101000a81548173ffffffffffffffffffffffffffffffffffffffff021916908373ffffffffffffffffffffffffffffffffffffffff1602179055508173ffffffffffffffffffffffffffffffffffffffff1663313ce5676040518163ffffffff1660e01b815260040160206040518083038186803b158015611ba457600080fd5b505afa158015611bb8573d6000803e3d6000fd5b505050506040513d6020811015611bce57600080fd5b810190808051906020019092919050505060ff16600a0a6009819055508073ffffffffffffffffffffffffffffffffffffffff1663313ce5676040518163ffffffff1660e01b815260040160206040518083038186803b158015611c3157600080fd5b505afa158015611c45573d6000803e3d6000fd5b505050506040513d6020811015611c5b57600080fd5b810190808051906020019092919050505060ff16600a0a600a819055506001600760146101000a81548160ff0219169083151502179055505050565b6001600d5414611d0f576040517f08c379a00000000000000000000000000000000000000000000000000000000081526004018080602001828103825260158152602001807f655a4b616c69627572506169723a204c4f434b4544000000000000000000000081525060200191505060405180910390fd5b6000600d81905550600560009054906101000a900473ffffffffffffffffffffffffffffffffffffffff1673ffffffffffffffffffffffffffffffffffffffff16634c2177156040518163ffffffff1660e01b815260040160206040518083038186803b158015611d7f57600080fd5b505afa158015611d93573d6000803e3d6000fd5b505050506040513d6020811015611da957600080fd5b810190808051906020019092919050505073ffffffffffffffffffffffffffffffffffffffff163373ffffffffffffffffffffffffffffffffffffffff1614611e3d576040517f08c379a000000000000000000000000000000000000000000000000000000000815260040180806020018281038252602c815260200180615da7602c913960400191505060405180910390fd5b6107d08261ffff1611158015611e5957506107d08161ffff1611155b611eae576040517f08c379a0000000000000000000000000000000000000000000000000000000008152600401808060200182810382526034815260200180615c176034913960400191505060405180910390fd5b60008261ffff16118015611ec6575060008161ffff16115b611f1b576040517f08c379a0000000000000000000000000000000000000000000000000000000008152600401808060200182810382526034815260200180615d736034913960400191505060405180910390fd5b816008601c6101000a81548161ffff021916908361ffff160217905550806008601e6101000a81548161ffff021916908361ffff1602179055507fa4877b8ecb5a00ba277e4bceeeb187a669e7113649774dfbea05c259ce27f17b8282604051808361ffff1661ffff1681526020018261ffff1661ffff1681526020019250505060405180910390a16001600d819055505050565b6008601c9054906101000a900461ffff1681565b6107d081565b60006001600d5414612044576040517f08c379a00000000000000000000000000000000000000000000000000000000081526004018080602001828103825260158152602001807f655a4b616c69627572506169723a204c4f434b4544000000000000000000000081525060200191505060405180910390fd5b6000600d81905550600080612057610f4c565b5050915091506000600660009054906101000a900473ffffffffffffffffffffffffffffffffffffffff1673ffffffffffffffffffffffffffffffffffffffff166370a08231306040518263ffffffff1660e01b8152600401808273ffffffffffffffffffffffffffffffffffffffff1673ffffffffffffffffffffffffffffffffffffffff16815260200191505060206040518083038186803b1580156120fe57600080fd5b505afa158015612112573d6000803e3d6000fd5b505050506040513d602081101561212857600080fd5b810190808051906020019092919050505090506000600760009054906101000a900473ffffffffffffffffffffffffffffffffffffffff1673ffffffffffffffffffffffffffffffffffffffff166370a08231306040518263ffffffff1660e01b8152600401808273ffffffffffffffffffffffffffffffffffffffff1673ffffffffffffffffffffffffffffffffffffffff16815260200191505060206040518083038186803b1580156121dc57600080fd5b505afa1580156121f0573d6000803e3d6000fd5b505050506040513d602081101561220657600080fd5b81019080805190602001909291905050509050600061223e856dffffffffffffffffffffffffffff168461498290919063ffffffff16565b90506000612265856dffffffffffffffffffffffffffff168461498290919063ffffffff16565b905060006122738787614b99565b905060008054905060008114156122c7576122b36103e86122a56122a08688614f3690919063ffffffff16565b614fcb565b61498290919063ffffffff16565b98506122c260006103e861502d565b61232a565b612327886dffffffffffffffffffffffffffff166122ee8387614f3690919063ffffffff16565b816122f557fe5b04886dffffffffffffffffffffffffffff1661231a8487614f3690919063ffffffff16565b8161232157fe5b04615147565b98505b60008911612383576040517f08c379a000000000000000000000000000000000000000000000000000000000815260040180806020018281038252602c815260200180615c9c602c913960400191505060405180910390fd5b61238d8a8a61502d565b6123978686615160565b8115612406576123ff600860009054906101000a90046dffffffffffffffffffffffffffff166dffffffffffffffffffffffffffff166008600e9054906101000a90046dffffffffffffffffffffffffffff166dffffffffffffffffffffffffffff16614dfb565b600b819055505b3373ffffffffffffffffffffffffffffffffffffffff167f4c209b5fc8ad50758f13e2e1088ba56a560dff690a1c6fef26394f4c03821c4f8585604051808381526020018281526020019250505060405180910390a250505050505050506001600d81905550919050565b612479615ba5565b604051806101000160405280600660009054906101000a900473ffffffffffffffffffffffffffffffffffffffff1673ffffffffffffffffffffffffffffffffffffffff168152602001600760009054906101000a900473ffffffffffffffffffffffffffffffffffffffff1673ffffffffffffffffffffffffffffffffffffffff16815260200188815260200187815260200160008152602001600081526020016000815260200160008152509050612579818686868080601f016020809104026020016040519081016040528093929190818152602001838380828437600081840152601f19601f8201169050808301925050505050505085613a93565b50505050505050565b60016020528060005260406000206000915090505481565b600b5481565b60046020528060005260406000206000915090505481565b6000806001600d5414612633576040517f08c379a00000000000000000000000000000000000000000000000000000000081526004018080602001828103825260158152602001807f655a4b616c69627572506169723a204c4f434b4544000000000000000000000081525060200191505060405180910390fd5b6000600d81905550600080612646610f4c565b5050915091506000600660009054906101000a900473ffffffffffffffffffffffffffffffffffffffff1690506000600760009054906101000a900473ffffffffffffffffffffffffffffffffffffffff16905060008273ffffffffffffffffffffffffffffffffffffffff166370a08231306040518263ffffffff1660e01b8152600401808273ffffffffffffffffffffffffffffffffffffffff1673ffffffffffffffffffffffffffffffffffffffff16815260200191505060206040518083038186803b15801561271957600080fd5b505afa15801561272d573d6000803e3d6000fd5b505050506040513d602081101561274357600080fd5b8101908080519060200190929190505050905060008273ffffffffffffffffffffffffffffffffffffffff166370a08231306040518263ffffffff1660e01b8152600401808273ffffffffffffffffffffffffffffffffffffffff1673ffffffffffffffffffffffffffffffffffffffff16815260200191505060206040518083038186803b1580156127d557600080fd5b505afa1580156127e9573d6000803e3d6000fd5b505050506040513d60208110156127ff57600080fd5b810190808051906020019092919050505090506000600160003073ffffffffffffffffffffffffffffffffffffffff1673ffffffffffffffffffffffffffffffffffffffff16815260200190815260200160002054905060006128628888614b99565b90506000805490508061287e8685614f3690919063ffffffff16565b8161288557fe5b049a508061289c8585614f3690919063ffffffff16565b816128a357fe5b04995060008b1180156128b6575060008a115b61290b576040517f08c379a000000000000000000000000000000000000000000000000000000000815260040180806020018281038252602c815260200180615c4b602c913960400191505060405180910390fd5b612915308461532f565b612920878d8d615449565b61292b868d8c615449565b8673ffffffffffffffffffffffffffffffffffffffff166370a08231306040518263ffffffff1660e01b8152600401808273ffffffffffffffffffffffffffffffffffffffff1673ffffffffffffffffffffffffffffffffffffffff16815260200191505060206040518083038186803b1580156129a857600080fd5b505afa1580156129bc573d6000803e3d6000fd5b505050506040513d60208110156129d257600080fd5b810190808051906020019092919050505094508573ffffffffffffffffffffffffffffffffffffffff166370a08231306040518263ffffffff1660e01b8152600401808273ffffffffffffffffffffffffffffffffffffffff1673ffffffffffffffffffffffffffffffffffffffff16815260200191505060206040518083038186803b158015612a6257600080fd5b505afa158015612a76573d6000803e3d6000fd5b505050506040513d6020811015612a8c57600080fd5b81019080805190602001909291905050509350612aa98585615160565b8115612b1857612b11600860009054906101000a90046dffffffffffffffffffffffffffff166dffffffffffffffffffffffffffff166008600e9054906101000a90046dffffffffffffffffffffffffffff166dffffffffffffffffffffffffffff16614dfb565b600b819055505b8b73ffffffffffffffffffffffffffffffffffffffff163373ffffffffffffffffffffffffffffffffffffffff167fdccd412f0b1252819cb1fd330b93224ca42612892bb3f4f789976e6d819364968d8d604051808381526020018281526020019250505060405180910390a35050505050505050506001600d81905550915091565b6040518060400160405280600681526020017f655a4b2d4c50000000000000000000000000000000000000000000000000000081525081565b600c60009054906101000a900460ff1681565b6000612bf4338484614a05565b6001905092915050565b600c60019054906101000a900460ff1681565b6103e881565b6001600d5414612c8f576040517f08c379a00000000000000000000000000000000000000000000000000000000081526004018080602001828103825260158152602001807f655a4b616c69627572506169723a204c4f434b4544000000000000000000000081525060200191505060405180910390fd5b6000600d819055506000600660009054906101000a900473ffffffffffffffffffffffffffffffffffffffff1690506000600760009054906101000a900473ffffffffffffffffffffffffffffffffffffffff169050612de58284612de0600860009054906101000a90046dffffffffffffffffffffffffffff166dffffffffffffffffffffffffffff168673ffffffffffffffffffffffffffffffffffffffff166370a08231306040518263ffffffff1660e01b8152600401808273ffffffffffffffffffffffffffffffffffffffff1673ffffffffffffffffffffffffffffffffffffffff16815260200191505060206040518083038186803b158015612d9757600080fd5b505afa158015612dab573d6000803e3d6000fd5b505050506040513d6020811015612dc157600080fd5b810190808051906020019092919050505061498290919063ffffffff16565b615449565b612ee58184612ee06008600e9054906101000a90046dffffffffffffffffffffffffffff166dffffffffffffffffffffffffffff168573ffffffffffffffffffffffffffffffffffffffff166370a08231306040518263ffffffff1660e01b8152600401808273ffffffffffffffffffffffffffffffffffffffff1673ffffffffffffffffffffffffffffffffffffffff16815260200191505060206040518083038186803b158015612e9757600080fd5b505afa158015612eab573d6000803e3d6000fd5b505050506040513d6020811015612ec157600080fd5b810190808051906020019092919050505061498290919063ffffffff16565b615449565b7f21ad22495c9c75cd1c94756f91824e779c0c8a8e168b267c790df464fe056b7960405160405180910390a150506001600d8190555050565b600560009054906101000a900473ffffffffffffffffffffffffffffffffffffffff1681565b600760009054906101000a900473ffffffffffffffffffffffffffffffffffffffff1681565b42841015612fe0576040517f08c379a00000000000000000000000000000000000000000000000000000000081526004018080602001828103825260128152602001807f556e697377617056323a2045585049524544000000000000000000000000000081525060200191505060405180910390fd5b60006003547f6e71edae12b1b97f4d1f60370fef10105fa2faae0126114a169c64845d6126c960001b898989600460008e73ffffffffffffffffffffffffffffffffffffffff1673ffffffffffffffffffffffffffffffffffffffff1681526020019081526020016000206000815480929190600101919050558a604051602001808781526020018673ffffffffffffffffffffffffffffffffffffffff1673ffffffffffffffffffffffffffffffffffffffff1681526020018573ffffffffffffffffffffffffffffffffffffffff1673ffffffffffffffffffffffffffffffffffffffff16815260200184815260200183815260200182815260200196505050505050506040516020818303038152906040528051906020012060405160200180807f190100000000000000000000000000000000000000000000000000000000000081525060020183815260200182815260200192505050604051602081830303815290604052805190602001209050600060018286868660405160008152602001604052604051808581526020018460ff1660ff1681526020018381526020018281526020019450505050506020604051602081039080840390855afa1580156131b2573d6000803e3d6000fd5b505050602060405103519050600073ffffffffffffffffffffffffffffffffffffffff168173ffffffffffffffffffffffffffffffffffffffff161415801561322657508873ffffffffffffffffffffffffffffffffffffffff168173ffffffffffffffffffffffffffffffffffffffff16145b613298576040517f08c379a000000000000000000000000000000000000000000000000000000000815260040180806020018281038252601c8152602001807f556e697377617056323a20494e56414c49445f5349474e41545552450000000081525060200191505060405180910390fd5b6132a3898989614897565b505050505050505050565b620186a081565b6002602052816000526040600020602052806000526040600020600091509150505481565b600080600660009054906101000a900473ffffffffffffffffffffffffffffffffffffffff1673ffffffffffffffffffffffffffffffffffffffff168373ffffffffffffffffffffffffffffffffffffffff1614613348576008601e9054906101000a900461ffff1661335a565b6008601c9054906101000a900461ffff165b90506133c58484600860009054906101000a90046dffffffffffffffffffffffffffff166dffffffffffffffffffffffffffff166008600e9054906101000a90046dffffffffffffffffffffffffffff166dffffffffffffffffffffffffffff168561ffff16615696565b91505092915050565b6001600d5414613446576040517f08c379a00000000000000000000000000000000000000000000000000000000081526004018080602001828103825260158152602001807f655a4b616c69627572506169723a204c4f434b4544000000000000000000000081525060200191505060405180910390fd5b6000600d81905550600560009054906101000a900473ffffffffffffffffffffffffffffffffffffffff1673ffffffffffffffffffffffffffffffffffffffff16638da5cb5b6040518163ffffffff1660e01b815260040160206040518083038186803b1580156134b657600080fd5b505afa1580156134ca573d6000803e3d6000fd5b505050506040513d60208110156134e057600080fd5b810190808051906020019092919050505073ffffffffffffffffffffffffffffffffffffffff163373ffffffffffffffffffffffffffffffffffffffff1614613574576040517f08c379a0000000000000000000000000000000000000000000000000000000008152600401808060200182810382526023815260200180615dd36023913960400191505060405180910390fd5b600660009054906101000a900473ffffffffffffffffffffffffffffffffffffffff1673ffffffffffffffffffffffffffffffffffffffff168273ffffffffffffffffffffffffffffffffffffffff16141580156136205750600760009054906101000a900473ffffffffffffffffffffffffffffffffffffffff1673ffffffffffffffffffffffffffffffffffffffff168273ffffffffffffffffffffffffffffffffffffffff1614155b613692576040517f08c379a000000000000000000000000000000000000000000000000000000000815260040180806020018281038252601c8152602001807f655a4b616c69627572506169723a20696e76616c696420746f6b656e0000000081525060200191505060405180910390fd5b61375482828473ffffffffffffffffffffffffffffffffffffffff166370a08231306040518263ffffffff1660e01b8152600401808273ffffffffffffffffffffffffffffffffffffffff1673ffffffffffffffffffffffffffffffffffffffff16815260200191505060206040518083038186803b15801561371457600080fd5b505afa158015613728573d6000803e3d6000fd5b505050506040513d602081101561373e57600080fd5b8101908080519060200190929190505050615449565b8173ffffffffffffffffffffffffffffffffffffffff167f368a9dc863ecb94b5ba32a682e26295b10d9c2666fad7d785ebdf262c3c5241382604051808273ffffffffffffffffffffffffffffffffffffffff1673ffffffffffffffffffffffffffffffffffffffff16815260200191505060405180910390a26001600d819055505050565b6001600d5414613852576040517f08c379a00000000000000000000000000000000000000000000000000000000081526004018080602001828103825260158152602001807f655a4b616c69627572506169723a204c4f434b4544000000000000000000000081525060200191505060405180910390fd5b6000600d819055506000600660009054906101000a900473ffffffffffffffffffffffffffffffffffffffff1673ffffffffffffffffffffffffffffffffffffffff166370a08231306040518263ffffffff1660e01b8152600401808273ffffffffffffffffffffffffffffffffffffffff1673ffffffffffffffffffffffffffffffffffffffff16815260200191505060206040518083038186803b1580156138fb57600080fd5b505afa15801561390f573d6000803e3d6000fd5b505050506040513d602081101561392557600080fd5b810190808051906020019092919050505090506000600760009054906101000a900473ffffffffffffffffffffffffffffffffffffffff1673ffffffffffffffffffffffffffffffffffffffff166370a08231306040518263ffffffff1660e01b8152600401808273ffffffffffffffffffffffffffffffffffffffff1673ffffffffffffffffffffffffffffffffffffffff16815260200191505060206040518083038186803b1580156139d957600080fd5b505afa1580156139ed573d6000803e3d6000fd5b505050506040513d6020811015613a0357600080fd5b8101908080519060200190929190505050905060008214158015613a28575060008114155b613a7d576040517f08c379a000000000000000000000000000000000000000000000000000000000815260040180806020018281038252602e815260200180615d45602e913960400191505060405180910390fd5b613a878282615160565b50506001600d81905550565b6001600d5414613b0b576040517f08c379a00000000000000000000000000000000000000000000000000000000081526004018080602001828103825260158152602001807f655a4b616c69627572506169723a204c4f434b4544000000000000000000000081525060200191505060405180910390fd5b6000600d81905550600084604001511180613b2a575060008460600151115b613b7f576040517f08c379a0000000000000000000000000000000000000000000000000000000008152600401808060200182810382526029815260200180615cc86029913960400191505060405180910390fd5b600080600080613b8d610f4c565b9350935093509350836dffffffffffffffffffffffffffff168860400151108015613bcb5750826dffffffffffffffffffffffffffff168860600151105b613c20576040517f08c379a0000000000000000000000000000000000000000000000000000000008152600401808060200182810382526025815260200180615c776025913960400191505060405180910390fd5b876000015173ffffffffffffffffffffffffffffffffffffffff168773ffffffffffffffffffffffffffffffffffffffff1614158015613c905750876020015173ffffffffffffffffffffffffffffffffffffffff168773ffffffffffffffffffffffffffffffffffffffff1614155b613d02576040517f08c379a00000000000000000000000000000000000000000000000000000000081526004018080602001828103825260198152602001807f655a4b616c69627572506169723a20494e56414c49445f544f0000000000000081525060200191505060405180910390fd5b600088604001511115613d2357613d228860000151888a60400151615449565b5b600088606001511115613d4457613d438860200151888a60600151615449565b5b600086511115613e6b578673ffffffffffffffffffffffffffffffffffffffff166310d1e85c338a604001518b606001518a6040518563ffffffff1660e01b8152600401808573ffffffffffffffffffffffffffffffffffffffff1673ffffffffffffffffffffffffffffffffffffffff16815260200184815260200183815260200180602001828103825283818151815260200191508051906020019080838360005b83811015613e03578082015181840152602081019050613de8565b50505050905090810190601f168015613e305780820380516001836020036101000a031916815260200191505b5095505050505050600060405180830381600087803b158015613e5257600080fd5b505af1158015613e66573d6000803e3d6000fd5b505050505b876000015173ffffffffffffffffffffffffffffffffffffffff166370a08231306040518263ffffffff1660e01b8152600401808273ffffffffffffffffffffffffffffffffffffffff1673ffffffffffffffffffffffffffffffffffffffff16815260200191505060206040518083038186803b158015613eec57600080fd5b505afa158015613f00573d6000803e3d6000fd5b505050506040513d6020811015613f1657600080fd5b8101908080519060200190929190505050886080018181525050876020015173ffffffffffffffffffffffffffffffffffffffff166370a08231306040518263ffffffff1660e01b8152600401808273ffffffffffffffffffffffffffffffffffffffff1673ffffffffffffffffffffffffffffffffffffffff16815260200191505060206040518083038186803b158015613fb157600080fd5b505afa158015613fc5573d6000803e3d6000fd5b505050506040513d6020811015613fdb57600080fd5b81019080805190602001909291905050508860a001818152505060008860400151856dffffffffffffffffffffffffffff160389608001511161401f57600061403d565b8860400151856dffffffffffffffffffffffffffff16038960800151035b905060008960600151856dffffffffffffffffffffffffffff16038a60a0015111614069576000614087565b8960600151856dffffffffffffffffffffffffffff16038a60a00151035b905060008211806140985750600081115b6140ed576040517f08c379a0000000000000000000000000000000000000000000000000000000008152600401808060200182810382526028815260200180615d1d6028913960400191505060405180910390fd5b620186a06141088561ffff1684614f3690919063ffffffff16565b8161410f57fe5b048a60c0018181525050620186a06141348461ffff1683614f3690919063ffffffff16565b8161413b57fe5b048a60e0018181525050600080905060008073ffffffffffffffffffffffffffffffffffffffff168973ffffffffffffffffffffffffffffffffffffffff161415614187576000614262565b600560009054906101000a900473ffffffffffffffffffffffffffffffffffffffff1673ffffffffffffffffffffffffffffffffffffffff16637183d47c8a6040518263ffffffff1660e01b8152600401808273ffffffffffffffffffffffffffffffffffffffff1673ffffffffffffffffffffffffffffffffffffffff16815260200191505060206040518083038186803b15801561422657600080fd5b505afa15801561423a573d6000803e3d6000fd5b505050506040513d602081101561425057600080fd5b81019080805190602001909291905050505b905060008111156143545760008411156142e0576002620186a00a6142a68761ffff166142988488614f3690919063ffffffff16565b614f3690919063ffffffff16565b816142ad57fe5b0491506142c7828d60c0015161498290919063ffffffff16565b8c60c00181815250506142df8c600001518a84615449565b5b6000831115614353576002620186a00a6143198661ffff1661430b8487614f3690919063ffffffff16565b614f3690919063ffffffff16565b8161432057fe5b04915061433a828d60e0015161498290919063ffffffff16565b8c60e00181815250506143528c602001518a84615449565b5b5b600c60009054906101000a900460ff161561456457600080600560009054906101000a900473ffffffffffffffffffffffffffffffffffffffff1673ffffffffffffffffffffffffffffffffffffffff1663995b5aae6040518163ffffffff1660e01b8152600401604080518083038186803b1580156143d357600080fd5b505afa1580156143e7573d6000803e3d6000fd5b505050506040513d60408110156143fd57600080fd5b81019080805190602001909291908051906020019092919050505091509150600073ffffffffffffffffffffffffffffffffffffffff168173ffffffffffffffffffffffffffffffffffffffff1614614561576144788261446a85620186a061498290919063ffffffff16565b614f3690919063ffffffff16565b915060008611156144ed576003620186a00a6144b38961ffff166144a5858a614f3690919063ffffffff16565b614f3690919063ffffffff16565b816144ba57fe5b0493506144d4848f60c0015161498290919063ffffffff16565b8e60c00181815250506144ec8e600001518286615449565b5b6000851115614560576003620186a00a6145268861ffff166145188589614f3690919063ffffffff16565b614f3690919063ffffffff16565b8161452d57fe5b049350614547848f60e0015161498290919063ffffffff16565b8e60e001818152505061455f8e602001518286615449565b5b5b50505b6000841115614633578b6000015173ffffffffffffffffffffffffffffffffffffffff166370a08231306040518263ffffffff1660e01b8152600401808273ffffffffffffffffffffffffffffffffffffffff1673ffffffffffffffffffffffffffffffffffffffff16815260200191505060206040518083038186803b1580156145ee57600080fd5b505afa158015614602573d6000803e3d6000fd5b505050506040513d602081101561461857600080fd5b81019080805190602001909291905050508c60800181815250505b6000831115614702578b6020015173ffffffffffffffffffffffffffffffffffffffff166370a08231306040518263ffffffff1660e01b8152600401808273ffffffffffffffffffffffffffffffffffffffff1673ffffffffffffffffffffffffffffffffffffffff16815260200191505060206040518083038186803b1580156146bd57600080fd5b505afa1580156146d1573d6000803e3d6000fd5b505050506040513d60208110156146e757600080fd5b81019080805190602001909291905050508c60a00181815250505b505060006147218b60c001518c6080015161498290919063ffffffff16565b905060006147408c60e001518d60a0015161498290919063ffffffff16565b905061476c886dffffffffffffffffffffffffffff16886dffffffffffffffffffffffffffff16614dfb565b6147768383614dfb565b10156147ea576040517f08c379a00000000000000000000000000000000000000000000000000000000081526004018080602001828103825260108152602001807f655a4b616c69627572506169723a204b0000000000000000000000000000000081525060200191505060405180910390fd5b50506147fe8a608001518b60a00151615160565b8873ffffffffffffffffffffffffffffffffffffffff163373ffffffffffffffffffffffffffffffffffffffff167fd78ad95fa46c994b6551d0da85fc275fe613ce37657fb8d5e3d130840159d82284848e604001518f606001516040518085815260200184815260200183815260200182815260200194505050505060405180910390a35050505050506001600d8190555050505050565b80600260008573ffffffffffffffffffffffffffffffffffffffff1673ffffffffffffffffffffffffffffffffffffffff16815260200190815260200160002060008473ffffffffffffffffffffffffffffffffffffffff1673ffffffffffffffffffffffffffffffffffffffff168152602001908152602001600020819055508173ffffffffffffffffffffffffffffffffffffffff168373ffffffffffffffffffffffffffffffffffffffff167f8c5be1e5ebec7d5bd14f71427d1e84f3dd0314c0f7b2291e5b200ac8c7c3b925836040518082815260200191505060405180910390a3505050565b60008282840391508111156149ff576040517f08c379a00000000000000000000000000000000000000000000000000000000081526004018080602001828103825260158152602001807f64732d6d6174682d7375622d756e646572666c6f77000000000000000000000081525060200191505060405180910390fd5b92915050565b614a5781600160008673ffffffffffffffffffffffffffffffffffffffff1673ffffffffffffffffffffffffffffffffffffffff1681526020019081526020016000205461498290919063ffffffff16565b600160008573ffffffffffffffffffffffffffffffffffffffff1673ffffffffffffffffffffffffffffffffffffffff16815260200190815260200160002081905550614aec81600160008573ffffffffffffffffffffffffffffffffffffffff1673ffffffffffffffffffffffffffffffffffffffff1681526020019081526020016000205461598090919063ffffffff16565b600160008473ffffffffffffffffffffffffffffffffffffffff1673ffffffffffffffffffffffffffffffffffffffff168152602001908152602001600020819055508173ffffffffffffffffffffffffffffffffffffffff168373ffffffffffffffffffffffffffffffffffffffff167fddf252ad1be2c89b69c2b068fc378daa952ba7f163c4a11628f55a4df523b3ef836040518082815260200191505060405180910390a3505050565b6000600c60009054906101000a900460ff1615614bb95760009050614df5565b600080600560009054906101000a900473ffffffffffffffffffffffffffffffffffffffff1673ffffffffffffffffffffffffffffffffffffffff1663995b5aae6040518163ffffffff1660e01b8152600401604080518083038186803b158015614c2357600080fd5b505afa158015614c37573d6000803e3d6000fd5b505050506040513d6040811015614c4d57600080fd5b81019080805190602001909291908051906020019092919050505091509150600073ffffffffffffffffffffffffffffffffffffffff168173ffffffffffffffffffffffffffffffffffffffff16141592506000600b5490508315614ddf5760008114614dda576000614ce8614ce3886dffffffffffffffffffffffffffff16886dffffffffffffffffffffffffffff16614dfb565b614fcb565b90506000614cf583614fcb565b905080821115614dd7576000614d34606487614d1e6064620186a0614f3690919063ffffffff16565b81614d2557fe5b0461498290919063ffffffff16565b90506000614d726064614d64614d53868861498290919063ffffffff16565b600054614f3690919063ffffffff16565b614f3690919063ffffffff16565b90506000614dae614d8d606486614f3690919063ffffffff16565b614da08588614f3690919063ffffffff16565b61598090919063ffffffff16565b90506000818381614dbb57fe5b0490506000811115614dd257614dd1888261502d565b5b505050505b50505b614df1565b60008114614df0576000600b819055505b5b5050505b92915050565b6000600c60009054906101000a900460ff1615614f1a576000600954614e32670de0b6b3a764000086614f3690919063ffffffff16565b81614e3957fe5b0490506000600a54614e5c670de0b6b3a764000086614f3690919063ffffffff16565b81614e6357fe5b0490506000670de0b6b3a7640000614e848385614f3690919063ffffffff16565b81614e8b57fe5b0490506000614ee9670de0b6b3a7640000614eaf8586614f3690919063ffffffff16565b81614eb657fe5b04670de0b6b3a7640000614ed38788614f3690919063ffffffff16565b81614eda57fe5b0461598090919063ffffffff16565b9050670de0b6b3a7640000614f078284614f3690919063ffffffff16565b81614f0e57fe5b04945050505050614f30565b614f2d8284614f3690919063ffffffff16565b90505b92915050565b600080821480614f535750828283850292508281614f5057fe5b04145b614fc5576040517f08c379a00000000000000000000000000000000000000000000000000000000081526004018080602001828103825260148152602001807f64732d6d6174682d6d756c2d6f766572666c6f7700000000000000000000000081525060200191505060405180910390fd5b92915050565b6000600382111561501a578190506000600160028481614fe757fe5b040190505b818110156150145780915060028182858161500357fe5b04018161500c57fe5b049050614fec565b50615028565b6000821461502757600190505b5b919050565b6150428160005461598090919063ffffffff16565b60008190555061509a81600160008573ffffffffffffffffffffffffffffffffffffffff1673ffffffffffffffffffffffffffffffffffffffff1681526020019081526020016000205461598090919063ffffffff16565b600160008473ffffffffffffffffffffffffffffffffffffffff1673ffffffffffffffffffffffffffffffffffffffff168152602001908152602001600020819055508173ffffffffffffffffffffffffffffffffffffffff16600073ffffffffffffffffffffffffffffffffffffffff167fddf252ad1be2c89b69c2b068fc378daa952ba7f163c4a11628f55a4df523b3ef836040518082815260200191505060405180910390a35050565b60008183106151565781615158565b825b905092915050565b7fffffffffffffffffffffffffffffffffffffffffffffffffffffffffffffffff6dffffffffffffffffffffffffffff1682111580156151d057507fffffffffffffffffffffffffffffffffffffffffffffffffffffffffffffffff6dffffffffffffffffffffffffffff168111155b615242576040517f08c379a00000000000000000000000000000000000000000000000000000000081526004018080602001828103825260178152602001807f655a4b616c69627572506169723a204f564552464c4f5700000000000000000081525060200191505060405180910390fd5b81600860006101000a8154816dffffffffffffffffffffffffffff02191690836dffffffffffffffffffffffffffff160217905550806008600e6101000a8154816dffffffffffffffffffffffffffff02191690836dffffffffffffffffffffffffffff1602179055507f1c411e9a96e071241c2f21f7726b17ae89e3cab4c78be50e062b03a9fffbbad1828260405180836dffffffffffffffffffffffffffff166dffffffffffffffffffffffffffff168152602001826dffffffffffffffffffffffffffff166dffffffffffffffffffffffffffff1681526020019250505060405180910390a15050565b61538181600160008573ffffffffffffffffffffffffffffffffffffffff1673ffffffffffffffffffffffffffffffffffffffff1681526020019081526020016000205461498290919063ffffffff16565b600160008473ffffffffffffffffffffffffffffffffffffffff1673ffffffffffffffffffffffffffffffffffffffff168152602001908152602001600020819055506153d98160005461498290919063ffffffff16565b600081905550600073ffffffffffffffffffffffffffffffffffffffff168273ffffffffffffffffffffffffffffffffffffffff167fddf252ad1be2c89b69c2b068fc378daa952ba7f163c4a11628f55a4df523b3ef836040518082815260200191505060405180910390a35050565b600060608473ffffffffffffffffffffffffffffffffffffffff166040518060400160405280601981526020017f7472616e7366657228616464726573732c75696e743235362900000000000000815250805190602001208585604051602401808373ffffffffffffffffffffffffffffffffffffffff1673ffffffffffffffffffffffffffffffffffffffff16815260200182815260200192505050604051602081830303815290604052907bffffffffffffffffffffffffffffffffffffffffffffffffffffffff19166020820180517bffffffffffffffffffffffffffffffffffffffffffffffffffffffff83818316178352505050506040518082805190602001908083835b602083106155765780518252602082019150602081019050602083039250615553565b6001836020036101000a0380198251168184511680821785525050505050509050019150506000604051808303816000865af19150503d80600081146155d8576040519150601f19603f3d011682016040523d82523d6000602084013e6155dd565b606091505b509150915081801561561d575060008151148061561c575080806020019051602081101561560a57600080fd5b81019080805190602001909291905050505b5b61568f576040517f08c379a000000000000000000000000000000000000000000000000000000000815260040180806020018281038252601e8152602001807f655a4b616c69627572506169723a205452414e534645525f4641494c4544000081525060200191505060405180910390fd5b5050505050565b6000600c60009054906101000a900460ff161561589f576156de620186a06156c78489614f3690919063ffffffff16565b816156ce57fe5b048761498290919063ffffffff16565b955060006156ec8585614dfb565b9050600954670de0b6b3a764000086028161570357fe5b049450600a54670de0b6b3a764000085028161571b57fe5b049350600080600660009054906101000a900473ffffffffffffffffffffffffffffffffffffffff1673ffffffffffffffffffffffffffffffffffffffff168873ffffffffffffffffffffffffffffffffffffffff161461577d578587615780565b86865b91509150600660009054906101000a900473ffffffffffffffffffffffffffffffffffffffff1673ffffffffffffffffffffffffffffffffffffffff168873ffffffffffffffffffffffffffffffffffffffff16146157f457600a54670de0b6b3a76400008a02816157ee57fe5b0461580b565b600954670de0b6b3a76400008a028161580957fe5b045b9850600061581c838b018584615a03565b82039050670de0b6b3a7640000600660009054906101000a900473ffffffffffffffffffffffffffffffffffffffff1673ffffffffffffffffffffffffffffffffffffffff168a73ffffffffffffffffffffffffffffffffffffffff16146158865760095461588a565b600a545b82028161589357fe5b04945050505050615977565b600080600660009054906101000a900473ffffffffffffffffffffffffffffffffffffffff1673ffffffffffffffffffffffffffffffffffffffff168773ffffffffffffffffffffffffffffffffffffffff16146158fe578486615901565b85855b9150915061592d61591e85620186a061498290919063ffffffff16565b89614f3690919063ffffffff16565b975061595788615949620186a085614f3690919063ffffffff16565b61598090919063ffffffff16565b61596a828a614f3690919063ffffffff16565b8161597157fe5b04925050505b95945050505050565b60008282840191508110156159fd576040517f08c379a00000000000000000000000000000000000000000000000000000000081526004018080602001828103825260148152602001807f64732d6d6174682d6164642d6f766572666c6f7700000000000000000000000081525060200191505060405180910390fd5b92915050565b600080600090505b60ff811015615ace5760008390506000615a258786615ada565b905085811015615a5d576000615a3b8887615b51565b670de0b6b3a76400008389030281615a4f57fe5b049050808601955050615a87565b6000615a698887615b51565b670de0b6b3a76400008884030281615a7d57fe5b0490508086039550505b81851115615aa957600182860311615aa457849350505050615ad3565b615abf565b600185830311615abe57849350505050615ad3565b5b50508080600101915050615a0b565b508190505b9392505050565b6000670de0b6b3a764000082670de0b6b3a764000085670de0b6b3a764000087880281615b0357fe5b040281615b0c57fe5b040281615b1557fe5b04670de0b6b3a76400008084670de0b6b3a764000086870281615b3457fe5b040281615b3d57fe5b04850281615b4757fe5b0401905092915050565b6000670de0b6b3a764000083670de0b6b3a764000085860281615b7057fe5b040281615b7957fe5b04670de0b6b3a76400008084850281615b8e57fe5b04856003020281615b9b57fe5b0401905092915050565b604051806101000160405280600073ffffffffffffffffffffffffffffffffffffffff168152602001600073ffffffffffffffffffffffffffffffffffffffff168152602001600081526020016000815260200160008152602001600081526020016000815260200160008152509056fe655a4b616c69627572506169723a2066656550657263656e74206d7573746e27742065786365656420746865206d6178696d756d655a4b616c69627572506169723a20494e53554646494349454e545f4c49515549444954595f4255524e4544655a4b616c69627572506169723a20494e53554646494349454e545f4c4951554944495459655a4b616c69627572506169723a20494e53554646494349454e545f4c49515549444954595f4d494e544544655a4b616c69627572506169723a20494e53554646494349454e545f4f55545055545f414d4f554e54655a4b616c69627572506169723a206f6e6c7920666163746f7279277320736574537461626c654f776e6572655a4b616c69627572506169723a20494e53554646494349454e545f494e5055545f414d4f554e54655a4b616c69627572506169723a206c697175696469747920726174696f206e6f7420696e697469616c697a6564655a4b616c69627572506169723a2066656550657263656e74206d7573746e27742065786365656420746865206d696e696d756d655a4b616c69627572506169723a206f6e6c7920666163746f7279277320666565416d6f756e744f776e6572655a4b616c69627572506169723a206f6e6c7920666163746f72792773206f776e6572a265627a7a72315820d4194c2de07f2c2ed647fcf04a0959f45ce34d7255041063afc557173c6d096564736f6c63430005100032454950373132446f6d61696e28737472696e67206e616d652c737472696e672076657273696f6e2c75696e7432353620636861696e49642c6164647265737320766572696679696e67436f6e747261637429",
					"opcodes": "PUSH1 0x80 PUSH1 0x40 MSTORE PUSH2 0x12C PUSH1 0x8 PUSH1 0x1C PUSH2 0x100 EXP DUP2 SLOAD DUP2 PUSH2 0xFFFF MUL NOT AND SWAP1 DUP4 PUSH2 0xFFFF AND MUL OR SWAP1 SSTORE POP PUSH2 0x12C PUSH1 0x8 PUSH1 0x1E PUSH2 0x100 EXP DUP2 SLOAD DUP2 PUSH2 0xFFFF MUL NOT AND SWAP1 DUP4 PUSH2 0xFFFF AND MUL OR SWAP1 SSTORE POP PUSH1 0x1 PUSH1 0xD SSTORE CALLVALUE DUP1 ISZERO PUSH3 0x54 JUMPI PUSH1 0x0 DUP1 REVERT JUMPDEST POP PUSH1 0x0 CHAINID SWAP1 POP PUSH1 0x40 MLOAD DUP1 DUP1 PUSH3 0x5FE0 PUSH1 0x52 SWAP2 CODECOPY PUSH1 0x52 ADD SWAP1 POP PUSH1 0x40 MLOAD DUP1 SWAP2 SUB SWAP1 KECCAK256 PUSH1 0x40 MLOAD DUP1 PUSH1 0x40 ADD PUSH1 0x40 MSTORE DUP1 PUSH1 0xC DUP2 MSTORE PUSH1 0x20 ADD PUSH32 0x655A4B616C69627572204C500000000000000000000000000000000000000000 DUP2 MSTORE POP DUP1 MLOAD SWAP1 PUSH1 0x20 ADD KECCAK256 PUSH1 0x40 MLOAD DUP1 PUSH1 0x40 ADD PUSH1 0x40 MSTORE DUP1 PUSH1 0x1 DUP2 MSTORE PUSH1 0x20 ADD PUSH32 0x3100000000000000000000000000000000000000000000000000000000000000 DUP2 MSTORE POP DUP1 MLOAD SWAP1 PUSH1 0x20 ADD KECCAK256 DUP4 ADDRESS PUSH1 0x40 MLOAD PUSH1 0x20 ADD DUP1 DUP7 DUP2 MSTORE PUSH1 0x20 ADD DUP6 DUP2 MSTORE PUSH1 0x20 ADD DUP5 DUP2 MSTORE PUSH1 0x20 ADD DUP4 DUP2 MSTORE PUSH1 0x20 ADD DUP3 PUSH20 0xFFFFFFFFFFFFFFFFFFFFFFFFFFFFFFFFFFFFFFFF AND PUSH20 0xFFFFFFFFFFFFFFFFFFFFFFFFFFFFFFFFFFFFFFFF AND DUP2 MSTORE PUSH1 0x20 ADD SWAP6 POP POP POP POP POP POP PUSH1 0x40 MLOAD PUSH1 0x20 DUP2 DUP4 SUB SUB DUP2 MSTORE SWAP1 PUSH1 0x40 MSTORE DUP1 MLOAD SWAP1 PUSH1 0x20 ADD KECCAK256 PUSH1 0x3 DUP2 SWAP1 SSTORE POP POP CALLER PUSH1 0x5 PUSH1 0x0 PUSH2 0x100 EXP DUP2 SLOAD DUP2 PUSH20 0xFFFFFFFFFFFFFFFFFFFFFFFFFFFFFFFFFFFFFFFF MUL NOT AND SWAP1 DUP4 PUSH20 0xFFFFFFFFFFFFFFFFFFFFFFFFFFFFFFFFFFFFFFFF AND MUL OR SWAP1 SSTORE POP PUSH2 0x5E2A DUP1 PUSH3 0x1B6 PUSH1 0x0 CODECOPY PUSH1 0x0 RETURN INVALID PUSH1 0x80 PUSH1 0x40 MSTORE CALLVALUE DUP1 ISZERO PUSH2 0x10 JUMPI PUSH1 0x0 DUP1 REVERT JUMPDEST POP PUSH1 0x4 CALLDATASIZE LT PUSH2 0x248 JUMPI PUSH1 0x0 CALLDATALOAD PUSH1 0xE0 SHR DUP1 PUSH4 0x6A627842 GT PUSH2 0x13B JUMPI DUP1 PUSH4 0xBA9A7A56 GT PUSH2 0xB8 JUMPI DUP1 PUSH4 0xD73792A9 GT PUSH2 0x7C JUMPI DUP1 PUSH4 0xD73792A9 EQ PUSH2 0xC9C JUMPI DUP1 PUSH4 0xDD62ED3E EQ PUSH2 0xCBA JUMPI DUP1 PUSH4 0xF140A35A EQ PUSH2 0xD32 JUMPI DUP1 PUSH4 0xF39AC11F EQ PUSH2 0xD94 JUMPI DUP1 PUSH4 0xFFF6CAE9 EQ PUSH2 0xDF8 JUMPI PUSH2 0x248 JUMP JUMPDEST DUP1 PUSH4 0xBA9A7A56 EQ PUSH2 0xB0D JUMPI DUP1 PUSH4 0xBC25CF77 EQ PUSH2 0xB2B JUMPI DUP1 PUSH4 0xC45A0155 EQ PUSH2 0xB6F JUMPI DUP1 PUSH4 0xD21220A7 EQ PUSH2 0xBB9 JUMPI DUP1 PUSH4 0xD505ACCF EQ PUSH2 0xC03 JUMPI PUSH2 0x248 JUMP JUMPDEST DUP1 PUSH4 0x89AFCB44 GT PUSH2 0xFF JUMPI DUP1 PUSH4 0x89AFCB44 EQ PUSH2 0x981 JUMPI DUP1 PUSH4 0x95D89B41 EQ PUSH2 0x9E0 JUMPI DUP1 PUSH4 0x9E548B7F EQ PUSH2 0xA63 JUMPI DUP1 PUSH4 0xA9059CBB EQ PUSH2 0xA85 JUMPI DUP1 PUSH4 0xB6200B07 EQ PUSH2 0xAEB JUMPI PUSH2 0x248 JUMP JUMPDEST DUP1 PUSH4 0x6A627842 EQ PUSH2 0x78E JUMPI DUP1 PUSH4 0x6E1FDD7F EQ PUSH2 0x7E6 JUMPI DUP1 PUSH4 0x70A08231 EQ PUSH2 0x8B3 JUMPI DUP1 PUSH4 0x7464FC3D EQ PUSH2 0x90B JUMPI DUP1 PUSH4 0x7ECEBE00 EQ PUSH2 0x929 JUMPI PUSH2 0x248 JUMP JUMPDEST DUP1 PUSH4 0x3029E5D4 GT PUSH2 0x1C9 JUMPI DUP1 PUSH4 0x3BA17077 GT PUSH2 0x18D JUMPI DUP1 PUSH4 0x3BA17077 EQ PUSH2 0x69C JUMPI DUP1 PUSH4 0x485CC955 EQ PUSH2 0x6A6 JUMPI DUP1 PUSH4 0x48E5D260 EQ PUSH2 0x70A JUMPI DUP1 PUSH4 0x62ECEC03 EQ PUSH2 0x74A JUMPI DUP1 PUSH4 0x67D81740 EQ PUSH2 0x770 JUMPI PUSH2 0x248 JUMP JUMPDEST DUP1 PUSH4 0x3029E5D4 EQ PUSH2 0x5BA JUMPI DUP1 PUSH4 0x30ADF81F EQ PUSH2 0x61E JUMPI DUP1 PUSH4 0x313CE567 EQ PUSH2 0x63C JUMPI DUP1 PUSH4 0x3644E515 EQ PUSH2 0x660 JUMPI DUP1 PUSH4 0x3B9F1DC0 EQ PUSH2 0x67E JUMPI PUSH2 0x248 JUMP JUMPDEST DUP1 PUSH4 0x158EF93E GT PUSH2 0x210 JUMPI DUP1 PUSH4 0x158EF93E EQ PUSH2 0x4B0 JUMPI DUP1 PUSH4 0x18160DDD EQ PUSH2 0x4D2 JUMPI DUP1 PUSH4 0x23B872DD EQ PUSH2 0x4F0 JUMPI DUP1 PUSH4 0x288E5D02 EQ PUSH2 0x576 JUMPI DUP1 PUSH4 0x2FCD1692 EQ PUSH2 0x594 JUMPI PUSH2 0x248 JUMP JUMPDEST DUP1 PUSH4 0x22C0D9F EQ PUSH2 0x24D JUMPI DUP1 PUSH4 0x6FDDE03 EQ PUSH2 0x2FA JUMPI DUP1 PUSH4 0x902F1AC EQ PUSH2 0x37D JUMPI DUP1 PUSH4 0x95EA7B3 EQ PUSH2 0x400 JUMPI DUP1 PUSH4 0xDFE1681 EQ PUSH2 0x466 JUMPI JUMPDEST PUSH1 0x0 DUP1 REVERT JUMPDEST PUSH2 0x2F8 PUSH1 0x4 DUP1 CALLDATASIZE SUB PUSH1 0x80 DUP2 LT ISZERO PUSH2 0x263 JUMPI PUSH1 0x0 DUP1 REVERT JUMPDEST DUP2 ADD SWAP1 DUP1 DUP1 CALLDATALOAD SWAP1 PUSH1 0x20 ADD SWAP1 SWAP3 SWAP2 SWAP1 DUP1 CALLDATALOAD SWAP1 PUSH1 0x20 ADD SWAP1 SWAP3 SWAP2 SWAP1 DUP1 CALLDATALOAD PUSH20 0xFFFFFFFFFFFFFFFFFFFFFFFFFFFFFFFFFFFFFFFF AND SWAP1 PUSH1 0x20 ADD SWAP1 SWAP3 SWAP2 SWAP1 DUP1 CALLDATALOAD SWAP1 PUSH1 0x20 ADD SWAP1 PUSH5 0x100000000 DUP2 GT ISZERO PUSH2 0x2B4 JUMPI PUSH1 0x0 DUP1 REVERT JUMPDEST DUP3 ADD DUP4 PUSH1 0x20 DUP3 ADD GT ISZERO PUSH2 0x2C6 JUMPI PUSH1 0x0 DUP1 REVERT JUMPDEST DUP1 CALLDATALOAD SWAP1 PUSH1 0x20 ADD SWAP2 DUP5 PUSH1 0x1 DUP4 MUL DUP5 ADD GT PUSH5 0x100000000 DUP4 GT OR ISZERO PUSH2 0x2E8 JUMPI PUSH1 0x0 DUP1 REVERT JUMPDEST SWAP1 SWAP2 SWAP3 SWAP4 SWAP2 SWAP3 SWAP4 SWAP1 POP POP POP PUSH2 0xE02 JUMP JUMPDEST STOP JUMPDEST PUSH2 0x302 PUSH2 0xF13 JUMP JUMPDEST PUSH1 0x40 MLOAD DUP1 DUP1 PUSH1 0x20 ADD DUP3 DUP2 SUB DUP3 MSTORE DUP4 DUP2 DUP2 MLOAD DUP2 MSTORE PUSH1 0x20 ADD SWAP2 POP DUP1 MLOAD SWAP1 PUSH1 0x20 ADD SWAP1 DUP1 DUP4 DUP4 PUSH1 0x0 JUMPDEST DUP4 DUP2 LT ISZERO PUSH2 0x342 JUMPI DUP1 DUP3 ADD MLOAD DUP2 DUP5 ADD MSTORE PUSH1 0x20 DUP2 ADD SWAP1 POP PUSH2 0x327 JUMP JUMPDEST POP POP POP POP SWAP1 POP SWAP1 DUP2 ADD SWAP1 PUSH1 0x1F AND DUP1 ISZERO PUSH2 0x36F JUMPI DUP1 DUP3 SUB DUP1 MLOAD PUSH1 0x1 DUP4 PUSH1 0x20 SUB PUSH2 0x100 EXP SUB NOT AND DUP2 MSTORE PUSH1 0x20 ADD SWAP2 POP JUMPDEST POP SWAP3 POP POP POP PUSH1 0x40 MLOAD DUP1 SWAP2 SUB SWAP1 RETURN JUMPDEST PUSH2 0x385 PUSH2 0xF4C JUMP JUMPDEST PUSH1 0x40 MLOAD DUP1 DUP6 PUSH14 0xFFFFFFFFFFFFFFFFFFFFFFFFFFFF AND PUSH14 0xFFFFFFFFFFFFFFFFFFFFFFFFFFFF AND DUP2 MSTORE PUSH1 0x20 ADD DUP5 PUSH14 0xFFFFFFFFFFFFFFFFFFFFFFFFFFFF AND PUSH14 0xFFFFFFFFFFFFFFFFFFFFFFFFFFFF AND DUP2 MSTORE PUSH1 0x20 ADD DUP4 PUSH2 0xFFFF AND PUSH2 0xFFFF AND DUP2 MSTORE PUSH1 0x20 ADD DUP3 PUSH2 0xFFFF AND PUSH2 0xFFFF AND DUP2 MSTORE PUSH1 0x20 ADD SWAP5 POP POP POP POP POP PUSH1 0x40 MLOAD DUP1 SWAP2 SUB SWAP1 RETURN JUMPDEST PUSH2 0x44C PUSH1 0x4 DUP1 CALLDATASIZE SUB PUSH1 0x40 DUP2 LT ISZERO PUSH2 0x416 JUMPI PUSH1 0x0 DUP1 REVERT JUMPDEST DUP2 ADD SWAP1 DUP1 DUP1 CALLDATALOAD PUSH20 0xFFFFFFFFFFFFFFFFFFFFFFFFFFFFFFFFFFFFFFFF AND SWAP1 PUSH1 0x20 ADD SWAP1 SWAP3 SWAP2 SWAP1 DUP1 CALLDATALOAD SWAP1 PUSH1 0x20 ADD SWAP1 SWAP3 SWAP2 SWAP1 POP POP POP PUSH2 0xFBC JUMP JUMPDEST PUSH1 0x40 MLOAD DUP1 DUP3 ISZERO ISZERO ISZERO ISZERO DUP2 MSTORE PUSH1 0x20 ADD SWAP2 POP POP PUSH1 0x40 MLOAD DUP1 SWAP2 SUB SWAP1 RETURN JUMPDEST PUSH2 0x46E PUSH2 0xFD3 JUMP JUMPDEST PUSH1 0x40 MLOAD DUP1 DUP3 PUSH20 0xFFFFFFFFFFFFFFFFFFFFFFFFFFFFFFFFFFFFFFFF AND PUSH20 0xFFFFFFFFFFFFFFFFFFFFFFFFFFFFFFFFFFFFFFFF AND DUP2 MSTORE PUSH1 0x20 ADD SWAP2 POP POP PUSH1 0x40 MLOAD DUP1 SWAP2 SUB SWAP1 RETURN JUMPDEST PUSH2 0x4B8 PUSH2 0xFF9 JUMP JUMPDEST PUSH1 0x40 MLOAD DUP1 DUP3 ISZERO ISZERO ISZERO ISZERO DUP2 MSTORE PUSH1 0x20 ADD SWAP2 POP POP PUSH1 0x40 MLOAD DUP1 SWAP2 SUB SWAP1 RETURN JUMPDEST PUSH2 0x4DA PUSH2 0x100C JUMP JUMPDEST PUSH1 0x40 MLOAD DUP1 DUP3 DUP2 MSTORE PUSH1 0x20 ADD SWAP2 POP POP PUSH1 0x40 MLOAD DUP1 SWAP2 SUB SWAP1 RETURN JUMPDEST PUSH2 0x55C PUSH1 0x4 DUP1 CALLDATASIZE SUB PUSH1 0x60 DUP2 LT ISZERO PUSH2 0x506 JUMPI PUSH1 0x0 DUP1 REVERT JUMPDEST DUP2 ADD SWAP1 DUP1 DUP1 CALLDATALOAD PUSH20 0xFFFFFFFFFFFFFFFFFFFFFFFFFFFFFFFFFFFFFFFF AND SWAP1 PUSH1 0x20 ADD SWAP1 SWAP3 SWAP2 SWAP1 DUP1 CALLDATALOAD PUSH20 0xFFFFFFFFFFFFFFFFFFFFFFFFFFFFFFFFFFFFFFFF AND SWAP1 PUSH1 0x20 ADD SWAP1 SWAP3 SWAP2 SWAP1 DUP1 CALLDATALOAD SWAP1 PUSH1 0x20 ADD SWAP1 SWAP3 SWAP2 SWAP1 POP POP POP PUSH2 0x1012 JUMP JUMPDEST PUSH1 0x40 MLOAD DUP1 DUP3 ISZERO ISZERO ISZERO ISZERO DUP2 MSTORE PUSH1 0x20 ADD SWAP2 POP POP PUSH1 0x40 MLOAD DUP1 SWAP2 SUB SWAP1 RETURN JUMPDEST PUSH2 0x57E PUSH2 0x1248 JUMP JUMPDEST PUSH1 0x40 MLOAD DUP1 DUP3 DUP2 MSTORE PUSH1 0x20 ADD SWAP2 POP POP PUSH1 0x40 MLOAD DUP1 SWAP2 SUB SWAP1 RETURN JUMPDEST PUSH2 0x59C PUSH2 0x124E JUMP JUMPDEST PUSH1 0x40 MLOAD DUP1 DUP3 PUSH2 0xFFFF AND PUSH2 0xFFFF AND DUP2 MSTORE PUSH1 0x20 ADD SWAP2 POP POP PUSH1 0x40 MLOAD DUP1 SWAP2 SUB SWAP1 RETURN JUMPDEST PUSH2 0x61C PUSH1 0x4 DUP1 CALLDATASIZE SUB PUSH1 0x60 DUP2 LT ISZERO PUSH2 0x5D0 JUMPI PUSH1 0x0 DUP1 REVERT JUMPDEST DUP2 ADD SWAP1 DUP1 DUP1 CALLDATALOAD ISZERO ISZERO SWAP1 PUSH1 0x20 ADD SWAP1 SWAP3 SWAP2 SWAP1 DUP1 CALLDATALOAD PUSH14 0xFFFFFFFFFFFFFFFFFFFFFFFFFFFF AND SWAP1 PUSH1 0x20 ADD SWAP1 SWAP3 SWAP2 SWAP1 DUP1 CALLDATALOAD PUSH14 0xFFFFFFFFFFFFFFFFFFFFFFFFFFFF AND SWAP1 PUSH1 0x20 ADD SWAP1 SWAP3 SWAP2 SWAP1 POP POP POP PUSH2 0x1262 JUMP JUMPDEST STOP JUMPDEST PUSH2 0x626 PUSH2 0x174E JUMP JUMPDEST PUSH1 0x40 MLOAD DUP1 DUP3 DUP2 MSTORE PUSH1 0x20 ADD SWAP2 POP POP PUSH1 0x40 MLOAD DUP1 SWAP2 SUB SWAP1 RETURN JUMPDEST PUSH2 0x644 PUSH2 0x1775 JUMP JUMPDEST PUSH1 0x40 MLOAD DUP1 DUP3 PUSH1 0xFF AND PUSH1 0xFF AND DUP2 MSTORE PUSH1 0x20 ADD SWAP2 POP POP PUSH1 0x40 MLOAD DUP1 SWAP2 SUB SWAP1 RETURN JUMPDEST PUSH2 0x668 PUSH2 0x177A JUMP JUMPDEST PUSH1 0x40 MLOAD DUP1 DUP3 DUP2 MSTORE PUSH1 0x20 ADD SWAP2 POP POP PUSH1 0x40 MLOAD DUP1 SWAP2 SUB SWAP1 RETURN JUMPDEST PUSH2 0x686 PUSH2 0x1780 JUMP JUMPDEST PUSH1 0x40 MLOAD DUP1 DUP3 DUP2 MSTORE PUSH1 0x20 ADD SWAP2 POP POP PUSH1 0x40 MLOAD DUP1 SWAP2 SUB SWAP1 RETURN JUMPDEST PUSH2 0x6A4 PUSH2 0x1786 JUMP JUMPDEST STOP JUMPDEST PUSH2 0x708 PUSH1 0x4 DUP1 CALLDATASIZE SUB PUSH1 0x40 DUP2 LT ISZERO PUSH2 0x6BC JUMPI PUSH1 0x0 DUP1 REVERT JUMPDEST DUP2 ADD SWAP1 DUP1 DUP1 CALLDATALOAD PUSH20 0xFFFFFFFFFFFFFFFFFFFFFFFFFFFFFFFFFFFFFFFF AND SWAP1 PUSH1 0x20 ADD SWAP1 SWAP3 SWAP2 SWAP1 DUP1 CALLDATALOAD PUSH20 0xFFFFFFFFFFFFFFFFFFFFFFFFFFFFFFFFFFFFFFFF AND SWAP1 PUSH1 0x20 ADD SWAP1 SWAP3 SWAP2 SWAP1 POP POP POP PUSH2 0x1A00 JUMP JUMPDEST STOP JUMPDEST PUSH2 0x748 PUSH1 0x4 DUP1 CALLDATASIZE SUB PUSH1 0x40 DUP2 LT ISZERO PUSH2 0x720 JUMPI PUSH1 0x0 DUP1 REVERT JUMPDEST DUP2 ADD SWAP1 DUP1 DUP1 CALLDATALOAD PUSH2 0xFFFF AND SWAP1 PUSH1 0x20 ADD SWAP1 SWAP3 SWAP2 SWAP1 DUP1 CALLDATALOAD PUSH2 0xFFFF AND SWAP1 PUSH1 0x20 ADD SWAP1 SWAP3 SWAP2 SWAP1 POP POP POP PUSH2 0x1C97 JUMP JUMPDEST STOP JUMPDEST PUSH2 0x752 PUSH2 0x1FB0 JUMP JUMPDEST PUSH1 0x40 MLOAD DUP1 DUP3 PUSH2 0xFFFF AND PUSH2 0xFFFF AND DUP2 MSTORE PUSH1 0x20 ADD SWAP2 POP POP PUSH1 0x40 MLOAD DUP1 SWAP2 SUB SWAP1 RETURN JUMPDEST PUSH2 0x778 PUSH2 0x1FC4 JUMP JUMPDEST PUSH1 0x40 MLOAD DUP1 DUP3 DUP2 MSTORE PUSH1 0x20 ADD SWAP2 POP POP PUSH1 0x40 MLOAD DUP1 SWAP2 SUB SWAP1 RETURN JUMPDEST PUSH2 0x7D0 PUSH1 0x4 DUP1 CALLDATASIZE SUB PUSH1 0x20 DUP2 LT ISZERO PUSH2 0x7A4 JUMPI PUSH1 0x0 DUP1 REVERT JUMPDEST DUP2 ADD SWAP1 DUP1 DUP1 CALLDATALOAD PUSH20 0xFFFFFFFFFFFFFFFFFFFFFFFFFFFFFFFFFFFFFFFF AND SWAP1 PUSH1 0x20 ADD SWAP1 SWAP3 SWAP2 SWAP1 POP POP POP PUSH2 0x1FCA JUMP JUMPDEST PUSH1 0x40 MLOAD DUP1 DUP3 DUP2 MSTORE PUSH1 0x20 ADD SWAP2 POP POP PUSH1 0x40 MLOAD DUP1 SWAP2 SUB SWAP1 RETURN JUMPDEST PUSH2 0x8B1 PUSH1 0x4 DUP1 CALLDATASIZE SUB PUSH1 0xA0 DUP2 LT ISZERO PUSH2 0x7FC JUMPI PUSH1 0x0 DUP1 REVERT JUMPDEST DUP2 ADD SWAP1 DUP1 DUP1 CALLDATALOAD SWAP1 PUSH1 0x20 ADD SWAP1 SWAP3 SWAP2 SWAP1 DUP1 CALLDATALOAD SWAP1 PUSH1 0x20 ADD SWAP1 SWAP3 SWAP2 SWAP1 DUP1 CALLDATALOAD PUSH20 0xFFFFFFFFFFFFFFFFFFFFFFFFFFFFFFFFFFFFFFFF AND SWAP1 PUSH1 0x20 ADD SWAP1 SWAP3 SWAP2 SWAP1 DUP1 CALLDATALOAD SWAP1 PUSH1 0x20 ADD SWAP1 PUSH5 0x100000000 DUP2 GT ISZERO PUSH2 0x84D JUMPI PUSH1 0x0 DUP1 REVERT JUMPDEST DUP3 ADD DUP4 PUSH1 0x20 DUP3 ADD GT ISZERO PUSH2 0x85F JUMPI PUSH1 0x0 DUP1 REVERT JUMPDEST DUP1 CALLDATALOAD SWAP1 PUSH1 0x20 ADD SWAP2 DUP5 PUSH1 0x1 DUP4 MUL DUP5 ADD GT PUSH5 0x100000000 DUP4 GT OR ISZERO PUSH2 0x881 JUMPI PUSH1 0x0 DUP1 REVERT JUMPDEST SWAP1 SWAP2 SWAP3 SWAP4 SWAP2 SWAP3 SWAP4 SWAP1 DUP1 CALLDATALOAD PUSH20 0xFFFFFFFFFFFFFFFFFFFFFFFFFFFFFFFFFFFFFFFF AND SWAP1 PUSH1 0x20 ADD SWAP1 SWAP3 SWAP2 SWAP1 POP POP POP PUSH2 0x2471 JUMP JUMPDEST STOP JUMPDEST PUSH2 0x8F5 PUSH1 0x4 DUP1 CALLDATASIZE SUB PUSH1 0x20 DUP2 LT ISZERO PUSH2 0x8C9 JUMPI PUSH1 0x0 DUP1 REVERT JUMPDEST DUP2 ADD SWAP1 DUP1 DUP1 CALLDATALOAD PUSH20 0xFFFFFFFFFFFFFFFFFFFFFFFFFFFFFFFFFFFFFFFF AND SWAP1 PUSH1 0x20 ADD SWAP1 SWAP3 SWAP2 SWAP1 POP POP POP PUSH2 0x2582 JUMP JUMPDEST PUSH1 0x40 MLOAD DUP1 DUP3 DUP2 MSTORE PUSH1 0x20 ADD SWAP2 POP POP PUSH1 0x40 MLOAD DUP1 SWAP2 SUB SWAP1 RETURN JUMPDEST PUSH2 0x913 PUSH2 0x259A JUMP JUMPDEST PUSH1 0x40 MLOAD DUP1 DUP3 DUP2 MSTORE PUSH1 0x20 ADD SWAP2 POP POP PUSH1 0x40 MLOAD DUP1 SWAP2 SUB SWAP1 RETURN JUMPDEST PUSH2 0x96B PUSH1 0x4 DUP1 CALLDATASIZE SUB PUSH1 0x20 DUP2 LT ISZERO PUSH2 0x93F JUMPI PUSH1 0x0 DUP1 REVERT JUMPDEST DUP2 ADD SWAP1 DUP1 DUP1 CALLDATALOAD PUSH20 0xFFFFFFFFFFFFFFFFFFFFFFFFFFFFFFFFFFFFFFFF AND SWAP1 PUSH1 0x20 ADD SWAP1 SWAP3 SWAP2 SWAP1 POP POP POP PUSH2 0x25A0 JUMP JUMPDEST PUSH1 0x40 MLOAD DUP1 DUP3 DUP2 MSTORE PUSH1 0x20 ADD SWAP2 POP POP PUSH1 0x40 MLOAD DUP1 SWAP2 SUB SWAP1 RETURN JUMPDEST PUSH2 0x9C3 PUSH1 0x4 DUP1 CALLDATASIZE SUB PUSH1 0x20 DUP2 LT ISZERO PUSH2 0x997 JUMPI PUSH1 0x0 DUP1 REVERT JUMPDEST DUP2 ADD SWAP1 DUP1 DUP1 CALLDATALOAD PUSH20 0xFFFFFFFFFFFFFFFFFFFFFFFFFFFFFFFFFFFFFFFF AND SWAP1 PUSH1 0x20 ADD SWAP1 SWAP3 SWAP2 SWAP1 POP POP POP PUSH2 0x25B8 JUMP JUMPDEST PUSH1 0x40 MLOAD DUP1 DUP4 DUP2 MSTORE PUSH1 0x20 ADD DUP3 DUP2 MSTORE PUSH1 0x20 ADD SWAP3 POP POP POP PUSH1 0x40 MLOAD DUP1 SWAP2 SUB SWAP1 RETURN JUMPDEST PUSH2 0x9E8 PUSH2 0x2B9B JUMP JUMPDEST PUSH1 0x40 MLOAD DUP1 DUP1 PUSH1 0x20 ADD DUP3 DUP2 SUB DUP3 MSTORE DUP4 DUP2 DUP2 MLOAD DUP2 MSTORE PUSH1 0x20 ADD SWAP2 POP DUP1 MLOAD SWAP1 PUSH1 0x20 ADD SWAP1 DUP1 DUP4 DUP4 PUSH1 0x0 JUMPDEST DUP4 DUP2 LT ISZERO PUSH2 0xA28 JUMPI DUP1 DUP3 ADD MLOAD DUP2 DUP5 ADD MSTORE PUSH1 0x20 DUP2 ADD SWAP1 POP PUSH2 0xA0D JUMP JUMPDEST POP POP POP POP SWAP1 POP SWAP1 DUP2 ADD SWAP1 PUSH1 0x1F AND DUP1 ISZERO PUSH2 0xA55 JUMPI DUP1 DUP3 SUB DUP1 MLOAD PUSH1 0x1 DUP4 PUSH1 0x20 SUB PUSH2 0x100 EXP SUB NOT AND DUP2 MSTORE PUSH1 0x20 ADD SWAP2 POP JUMPDEST POP SWAP3 POP POP POP PUSH1 0x40 MLOAD DUP1 SWAP2 SUB SWAP1 RETURN JUMPDEST PUSH2 0xA6B PUSH2 0x2BD4 JUMP JUMPDEST PUSH1 0x40 MLOAD DUP1 DUP3 ISZERO ISZERO ISZERO ISZERO DUP2 MSTORE PUSH1 0x20 ADD SWAP2 POP POP PUSH1 0x40 MLOAD DUP1 SWAP2 SUB SWAP1 RETURN JUMPDEST PUSH2 0xAD1 PUSH1 0x4 DUP1 CALLDATASIZE SUB PUSH1 0x40 DUP2 LT ISZERO PUSH2 0xA9B JUMPI PUSH1 0x0 DUP1 REVERT JUMPDEST DUP2 ADD SWAP1 DUP1 DUP1 CALLDATALOAD PUSH20 0xFFFFFFFFFFFFFFFFFFFFFFFFFFFFFFFFFFFFFFFF AND SWAP1 PUSH1 0x20 ADD SWAP1 SWAP3 SWAP2 SWAP1 DUP1 CALLDATALOAD SWAP1 PUSH1 0x20 ADD SWAP1 SWAP3 SWAP2 SWAP1 POP POP POP PUSH2 0x2BE7 JUMP JUMPDEST PUSH1 0x40 MLOAD DUP1 DUP3 ISZERO ISZERO ISZERO ISZERO DUP2 MSTORE PUSH1 0x20 ADD SWAP2 POP POP PUSH1 0x40 MLOAD DUP1 SWAP2 SUB SWAP1 RETURN JUMPDEST PUSH2 0xAF3 PUSH2 0x2BFE JUMP JUMPDEST PUSH1 0x40 MLOAD DUP1 DUP3 ISZERO ISZERO ISZERO ISZERO DUP2 MSTORE PUSH1 0x20 ADD SWAP2 POP POP PUSH1 0x40 MLOAD DUP1 SWAP2 SUB SWAP1 RETURN JUMPDEST PUSH2 0xB15 PUSH2 0x2C11 JUMP JUMPDEST PUSH1 0x40 MLOAD DUP1 DUP3 DUP2 MSTORE PUSH1 0x20 ADD SWAP2 POP POP PUSH1 0x40 MLOAD DUP1 SWAP2 SUB SWAP1 RETURN JUMPDEST PUSH2 0xB6D PUSH1 0x4 DUP1 CALLDATASIZE SUB PUSH1 0x20 DUP2 LT ISZERO PUSH2 0xB41 JUMPI PUSH1 0x0 DUP1 REVERT JUMPDEST DUP2 ADD SWAP1 DUP1 DUP1 CALLDATALOAD PUSH20 0xFFFFFFFFFFFFFFFFFFFFFFFFFFFFFFFFFFFFFFFF AND SWAP1 PUSH1 0x20 ADD SWAP1 SWAP3 SWAP2 SWAP1 POP POP POP PUSH2 0x2C17 JUMP JUMPDEST STOP JUMPDEST PUSH2 0xB77 PUSH2 0x2F1E JUMP JUMPDEST PUSH1 0x40 MLOAD DUP1 DUP3 PUSH20 0xFFFFFFFFFFFFFFFFFFFFFFFFFFFFFFFFFFFFFFFF AND PUSH20 0xFFFFFFFFFFFFFFFFFFFFFFFFFFFFFFFFFFFFFFFF AND DUP2 MSTORE PUSH1 0x20 ADD SWAP2 POP POP PUSH1 0x40 MLOAD DUP1 SWAP2 SUB SWAP1 RETURN JUMPDEST PUSH2 0xBC1 PUSH2 0x2F44 JUMP JUMPDEST PUSH1 0x40 MLOAD DUP1 DUP3 PUSH20 0xFFFFFFFFFFFFFFFFFFFFFFFFFFFFFFFFFFFFFFFF AND PUSH20 0xFFFFFFFFFFFFFFFFFFFFFFFFFFFFFFFFFFFFFFFF AND DUP2 MSTORE PUSH1 0x20 ADD SWAP2 POP POP PUSH1 0x40 MLOAD DUP1 SWAP2 SUB SWAP1 RETURN JUMPDEST PUSH2 0xC9A PUSH1 0x4 DUP1 CALLDATASIZE SUB PUSH1 0xE0 DUP2 LT ISZERO PUSH2 0xC19 JUMPI PUSH1 0x0 DUP1 REVERT JUMPDEST DUP2 ADD SWAP1 DUP1 DUP1 CALLDATALOAD PUSH20 0xFFFFFFFFFFFFFFFFFFFFFFFFFFFFFFFFFFFFFFFF AND SWAP1 PUSH1 0x20 ADD SWAP1 SWAP3 SWAP2 SWAP1 DUP1 CALLDATALOAD PUSH20 0xFFFFFFFFFFFFFFFFFFFFFFFFFFFFFFFFFFFFFFFF AND SWAP1 PUSH1 0x20 ADD SWAP1 SWAP3 SWAP2 SWAP1 DUP1 CALLDATALOAD SWAP1 PUSH1 0x20 ADD SWAP1 SWAP3 SWAP2 SWAP1 DUP1 CALLDATALOAD SWAP1 PUSH1 0x20 ADD SWAP1 SWAP3 SWAP2 SWAP1 DUP1 CALLDATALOAD PUSH1 0xFF AND SWAP1 PUSH1 0x20 ADD SWAP1 SWAP3 SWAP2 SWAP1 DUP1 CALLDATALOAD SWAP1 PUSH1 0x20 ADD SWAP1 SWAP3 SWAP2 SWAP1 DUP1 CALLDATALOAD SWAP1 PUSH1 0x20 ADD SWAP1 SWAP3 SWAP2 SWAP1 POP POP POP PUSH2 0x2F6A JUMP JUMPDEST STOP JUMPDEST PUSH2 0xCA4 PUSH2 0x32AE JUMP JUMPDEST PUSH1 0x40 MLOAD DUP1 DUP3 DUP2 MSTORE PUSH1 0x20 ADD SWAP2 POP POP PUSH1 0x40 MLOAD DUP1 SWAP2 SUB SWAP1 RETURN JUMPDEST PUSH2 0xD1C PUSH1 0x4 DUP1 CALLDATASIZE SUB PUSH1 0x40 DUP2 LT ISZERO PUSH2 0xCD0 JUMPI PUSH1 0x0 DUP1 REVERT JUMPDEST DUP2 ADD SWAP1 DUP1 DUP1 CALLDATALOAD PUSH20 0xFFFFFFFFFFFFFFFFFFFFFFFFFFFFFFFFFFFFFFFF AND SWAP1 PUSH1 0x20 ADD SWAP1 SWAP3 SWAP2 SWAP1 DUP1 CALLDATALOAD PUSH20 0xFFFFFFFFFFFFFFFFFFFFFFFFFFFFFFFFFFFFFFFF AND SWAP1 PUSH1 0x20 ADD SWAP1 SWAP3 SWAP2 SWAP1 POP POP POP PUSH2 0x32B5 JUMP JUMPDEST PUSH1 0x40 MLOAD DUP1 DUP3 DUP2 MSTORE PUSH1 0x20 ADD SWAP2 POP POP PUSH1 0x40 MLOAD DUP1 SWAP2 SUB SWAP1 RETURN JUMPDEST PUSH2 0xD7E PUSH1 0x4 DUP1 CALLDATASIZE SUB PUSH1 0x40 DUP2 LT ISZERO PUSH2 0xD48 JUMPI PUSH1 0x0 DUP1 REVERT JUMPDEST DUP2 ADD SWAP1 DUP1 DUP1 CALLDATALOAD SWAP1 PUSH1 0x20 ADD SWAP1 SWAP3 SWAP2 SWAP1 DUP1 CALLDATALOAD PUSH20 0xFFFFFFFFFFFFFFFFFFFFFFFFFFFFFFFFFFFFFFFF AND SWAP1 PUSH1 0x20 ADD SWAP1 SWAP3 SWAP2 SWAP1 POP POP POP PUSH2 0x32DA JUMP JUMPDEST PUSH1 0x40 MLOAD DUP1 DUP3 DUP2 MSTORE PUSH1 0x20 ADD SWAP2 POP POP PUSH1 0x40 MLOAD DUP1 SWAP2 SUB SWAP1 RETURN JUMPDEST PUSH2 0xDF6 PUSH1 0x4 DUP1 CALLDATASIZE SUB PUSH1 0x40 DUP2 LT ISZERO PUSH2 0xDAA JUMPI PUSH1 0x0 DUP1 REVERT JUMPDEST DUP2 ADD SWAP1 DUP1 DUP1 CALLDATALOAD PUSH20 0xFFFFFFFFFFFFFFFFFFFFFFFFFFFFFFFFFFFFFFFF AND SWAP1 PUSH1 0x20 ADD SWAP1 SWAP3 SWAP2 SWAP1 DUP1 CALLDATALOAD PUSH20 0xFFFFFFFFFFFFFFFFFFFFFFFFFFFFFFFFFFFFFFFF AND SWAP1 PUSH1 0x20 ADD SWAP1 SWAP3 SWAP2 SWAP1 POP POP POP PUSH2 0x33CE JUMP JUMPDEST STOP JUMPDEST PUSH2 0xE00 PUSH2 0x37DA JUMP JUMPDEST STOP JUMPDEST PUSH2 0xE0A PUSH2 0x5BA5 JUMP JUMPDEST PUSH1 0x40 MLOAD DUP1 PUSH2 0x100 ADD PUSH1 0x40 MSTORE DUP1 PUSH1 0x6 PUSH1 0x0 SWAP1 SLOAD SWAP1 PUSH2 0x100 EXP SWAP1 DIV PUSH20 0xFFFFFFFFFFFFFFFFFFFFFFFFFFFFFFFFFFFFFFFF AND PUSH20 0xFFFFFFFFFFFFFFFFFFFFFFFFFFFFFFFFFFFFFFFF AND DUP2 MSTORE PUSH1 0x20 ADD PUSH1 0x7 PUSH1 0x0 SWAP1 SLOAD SWAP1 PUSH2 0x100 EXP SWAP1 DIV PUSH20 0xFFFFFFFFFFFFFFFFFFFFFFFFFFFFFFFFFFFFFFFF AND PUSH20 0xFFFFFFFFFFFFFFFFFFFFFFFFFFFFFFFFFFFFFFFF AND DUP2 MSTORE PUSH1 0x20 ADD DUP8 DUP2 MSTORE PUSH1 0x20 ADD DUP7 DUP2 MSTORE PUSH1 0x20 ADD PUSH1 0x0 DUP2 MSTORE PUSH1 0x20 ADD PUSH1 0x0 DUP2 MSTORE PUSH1 0x20 ADD PUSH1 0x0 DUP2 MSTORE PUSH1 0x20 ADD PUSH1 0x0 DUP2 MSTORE POP SWAP1 POP PUSH2 0xF0B DUP2 DUP6 DUP6 DUP6 DUP1 DUP1 PUSH1 0x1F ADD PUSH1 0x20 DUP1 SWAP2 DIV MUL PUSH1 0x20 ADD PUSH1 0x40 MLOAD SWAP1 DUP2 ADD PUSH1 0x40 MSTORE DUP1 SWAP4 SWAP3 SWAP2 SWAP1 DUP2 DUP2 MSTORE PUSH1 0x20 ADD DUP4 DUP4 DUP1 DUP3 DUP5 CALLDATACOPY PUSH1 0x0 DUP2 DUP5 ADD MSTORE PUSH1 0x1F NOT PUSH1 0x1F DUP3 ADD AND SWAP1 POP DUP1 DUP4 ADD SWAP3 POP POP POP POP POP POP POP PUSH1 0x0 PUSH2 0x3A93 JUMP JUMPDEST POP POP POP POP POP POP JUMP JUMPDEST PUSH1 0x40 MLOAD DUP1 PUSH1 0x40 ADD PUSH1 0x40 MSTORE DUP1 PUSH1 0xC DUP2 MSTORE PUSH1 0x20 ADD PUSH32 0x655A4B616C69627572204C500000000000000000000000000000000000000000 DUP2 MSTORE POP DUP2 JUMP JUMPDEST PUSH1 0x0 DUP1 PUSH1 0x0 DUP1 PUSH1 0x8 PUSH1 0x0 SWAP1 SLOAD SWAP1 PUSH2 0x100 EXP SWAP1 DIV PUSH14 0xFFFFFFFFFFFFFFFFFFFFFFFFFFFF AND SWAP4 POP PUSH1 0x8 PUSH1 0xE SWAP1 SLOAD SWAP1 PUSH2 0x100 EXP SWAP1 DIV PUSH14 0xFFFFFFFFFFFFFFFFFFFFFFFFFFFF AND SWAP3 POP PUSH1 0x8 PUSH1 0x1C SWAP1 SLOAD SWAP1 PUSH2 0x100 EXP SWAP1 DIV PUSH2 0xFFFF AND SWAP2 POP PUSH1 0x8 PUSH1 0x1E SWAP1 SLOAD SWAP1 PUSH2 0x100 EXP SWAP1 DIV PUSH2 0xFFFF AND SWAP1 POP SWAP1 SWAP2 SWAP3 SWAP4 JUMP JUMPDEST PUSH1 0x0 PUSH2 0xFC9 CALLER DUP5 DUP5 PUSH2 0x4897 JUMP JUMPDEST PUSH1 0x1 SWAP1 POP SWAP3 SWAP2 POP POP JUMP JUMPDEST PUSH1 0x6 PUSH1 0x0 SWAP1 SLOAD SWAP1 PUSH2 0x100 EXP SWAP1 DIV PUSH20 0xFFFFFFFFFFFFFFFFFFFFFFFFFFFFFFFFFFFFFFFF AND DUP2 JUMP JUMPDEST PUSH1 0x7 PUSH1 0x14 SWAP1 SLOAD SWAP1 PUSH2 0x100 EXP SWAP1 DIV PUSH1 0xFF AND DUP2 JUMP JUMPDEST PUSH1 0x0 SLOAD DUP2 JUMP JUMPDEST PUSH1 0x0 PUSH32 0xFFFFFFFFFFFFFFFFFFFFFFFFFFFFFFFFFFFFFFFFFFFFFFFFFFFFFFFFFFFFFFFF PUSH1 0x2 PUSH1 0x0 DUP7 PUSH20 0xFFFFFFFFFFFFFFFFFFFFFFFFFFFFFFFFFFFFFFFF AND PUSH20 0xFFFFFFFFFFFFFFFFFFFFFFFFFFFFFFFFFFFFFFFF AND DUP2 MSTORE PUSH1 0x20 ADD SWAP1 DUP2 MSTORE PUSH1 0x20 ADD PUSH1 0x0 KECCAK256 PUSH1 0x0 CALLER PUSH20 0xFFFFFFFFFFFFFFFFFFFFFFFFFFFFFFFFFFFFFFFF AND PUSH20 0xFFFFFFFFFFFFFFFFFFFFFFFFFFFFFFFFFFFFFFFF AND DUP2 MSTORE PUSH1 0x20 ADD SWAP1 DUP2 MSTORE PUSH1 0x20 ADD PUSH1 0x0 KECCAK256 SLOAD EQ PUSH2 0x1232 JUMPI PUSH1 0x0 PUSH2 0x1148 DUP4 PUSH1 0x2 PUSH1 0x0 DUP9 PUSH20 0xFFFFFFFFFFFFFFFFFFFFFFFFFFFFFFFFFFFFFFFF AND PUSH20 0xFFFFFFFFFFFFFFFFFFFFFFFFFFFFFFFFFFFFFFFF AND DUP2 MSTORE PUSH1 0x20 ADD SWAP1 DUP2 MSTORE PUSH1 0x20 ADD PUSH1 0x0 KECCAK256 PUSH1 0x0 CALLER PUSH20 0xFFFFFFFFFFFFFFFFFFFFFFFFFFFFFFFFFFFFFFFF AND PUSH20 0xFFFFFFFFFFFFFFFFFFFFFFFFFFFFFFFFFFFFFFFF AND DUP2 MSTORE PUSH1 0x20 ADD SWAP1 DUP2 MSTORE PUSH1 0x20 ADD PUSH1 0x0 KECCAK256 SLOAD PUSH2 0x4982 SWAP1 SWAP2 SWAP1 PUSH4 0xFFFFFFFF AND JUMP JUMPDEST SWAP1 POP DUP1 PUSH1 0x2 PUSH1 0x0 DUP8 PUSH20 0xFFFFFFFFFFFFFFFFFFFFFFFFFFFFFFFFFFFFFFFF AND PUSH20 0xFFFFFFFFFFFFFFFFFFFFFFFFFFFFFFFFFFFFFFFF AND DUP2 MSTORE PUSH1 0x20 ADD SWAP1 DUP2 MSTORE PUSH1 0x20 ADD PUSH1 0x0 KECCAK256 PUSH1 0x0 CALLER PUSH20 0xFFFFFFFFFFFFFFFFFFFFFFFFFFFFFFFFFFFFFFFF AND PUSH20 0xFFFFFFFFFFFFFFFFFFFFFFFFFFFFFFFFFFFFFFFF AND DUP2 MSTORE PUSH1 0x20 ADD SWAP1 DUP2 MSTORE PUSH1 0x20 ADD PUSH1 0x0 KECCAK256 DUP2 SWAP1 SSTORE POP CALLER PUSH20 0xFFFFFFFFFFFFFFFFFFFFFFFFFFFFFFFFFFFFFFFF AND DUP6 PUSH20 0xFFFFFFFFFFFFFFFFFFFFFFFFFFFFFFFFFFFFFFFF AND PUSH32 0x8C5BE1E5EBEC7D5BD14F71427D1E84F3DD0314C0F7B2291E5B200AC8C7C3B925 DUP4 PUSH1 0x40 MLOAD DUP1 DUP3 DUP2 MSTORE PUSH1 0x20 ADD SWAP2 POP POP PUSH1 0x40 MLOAD DUP1 SWAP2 SUB SWAP1 LOG3 POP JUMPDEST PUSH2 0x123D DUP5 DUP5 DUP5 PUSH2 0x4A05 JUMP JUMPDEST PUSH1 0x1 SWAP1 POP SWAP4 SWAP3 POP POP POP JUMP JUMPDEST PUSH1 0xA SLOAD DUP2 JUMP JUMPDEST PUSH1 0x8 PUSH1 0x1E SWAP1 SLOAD SWAP1 PUSH2 0x100 EXP SWAP1 DIV PUSH2 0xFFFF AND DUP2 JUMP JUMPDEST PUSH1 0x1 PUSH1 0xD SLOAD EQ PUSH2 0x12DA JUMPI PUSH1 0x40 MLOAD PUSH32 0x8C379A000000000000000000000000000000000000000000000000000000000 DUP2 MSTORE PUSH1 0x4 ADD DUP1 DUP1 PUSH1 0x20 ADD DUP3 DUP2 SUB DUP3 MSTORE PUSH1 0x15 DUP2 MSTORE PUSH1 0x20 ADD DUP1 PUSH32 0x655A4B616C69627572506169723A204C4F434B45440000000000000000000000 DUP2 MSTORE POP PUSH1 0x20 ADD SWAP2 POP POP PUSH1 0x40 MLOAD DUP1 SWAP2 SUB SWAP1 REVERT JUMPDEST PUSH1 0x0 PUSH1 0xD DUP2 SWAP1 SSTORE POP PUSH1 0x5 PUSH1 0x0 SWAP1 SLOAD SWAP1 PUSH2 0x100 EXP SWAP1 DIV PUSH20 0xFFFFFFFFFFFFFFFFFFFFFFFFFFFFFFFFFFFFFFFF AND PUSH20 0xFFFFFFFFFFFFFFFFFFFFFFFFFFFFFFFFFFFFFFFF AND PUSH4 0xFC39026A PUSH1 0x40 MLOAD DUP2 PUSH4 0xFFFFFFFF AND PUSH1 0xE0 SHL DUP2 MSTORE PUSH1 0x4 ADD PUSH1 0x20 PUSH1 0x40 MLOAD DUP1 DUP4 SUB DUP2 DUP7 DUP1 EXTCODESIZE ISZERO DUP1 ISZERO PUSH2 0x134A JUMPI PUSH1 0x0 DUP1 REVERT JUMPDEST POP GAS STATICCALL ISZERO DUP1 ISZERO PUSH2 0x135E JUMPI RETURNDATASIZE PUSH1 0x0 DUP1 RETURNDATACOPY RETURNDATASIZE PUSH1 0x0 REVERT JUMPDEST POP POP POP POP PUSH1 0x40 MLOAD RETURNDATASIZE PUSH1 0x20 DUP2 LT ISZERO PUSH2 0x1374 JUMPI PUSH1 0x0 DUP1 REVERT JUMPDEST DUP2 ADD SWAP1 DUP1 DUP1 MLOAD SWAP1 PUSH1 0x20 ADD SWAP1 SWAP3 SWAP2 SWAP1 POP POP POP PUSH20 0xFFFFFFFFFFFFFFFFFFFFFFFFFFFFFFFFFFFFFFFF AND CALLER PUSH20 0xFFFFFFFFFFFFFFFFFFFFFFFFFFFFFFFFFFFFFFFF AND EQ PUSH2 0x1408 JUMPI PUSH1 0x40 MLOAD PUSH32 0x8C379A000000000000000000000000000000000000000000000000000000000 DUP2 MSTORE PUSH1 0x4 ADD DUP1 DUP1 PUSH1 0x20 ADD DUP3 DUP2 SUB DUP3 MSTORE PUSH1 0x2C DUP2 MSTORE PUSH1 0x20 ADD DUP1 PUSH2 0x5CF1 PUSH1 0x2C SWAP2 CODECOPY PUSH1 0x40 ADD SWAP2 POP POP PUSH1 0x40 MLOAD DUP1 SWAP2 SUB SWAP1 REVERT JUMPDEST PUSH1 0xC PUSH1 0x1 SWAP1 SLOAD SWAP1 PUSH2 0x100 EXP SWAP1 DIV PUSH1 0xFF AND ISZERO PUSH2 0x148B JUMPI PUSH1 0x40 MLOAD PUSH32 0x8C379A000000000000000000000000000000000000000000000000000000000 DUP2 MSTORE PUSH1 0x4 ADD DUP1 DUP1 PUSH1 0x20 ADD DUP3 DUP2 SUB DUP3 MSTORE PUSH1 0x18 DUP2 MSTORE PUSH1 0x20 ADD DUP1 PUSH32 0x655A4B616C69627572506169723A20696D6D757461626C650000000000000000 DUP2 MSTORE POP PUSH1 0x20 ADD SWAP2 POP POP PUSH1 0x40 MLOAD DUP1 SWAP2 SUB SWAP1 REVERT JUMPDEST PUSH1 0xC PUSH1 0x0 SWAP1 SLOAD SWAP1 PUSH2 0x100 EXP SWAP1 DIV PUSH1 0xFF AND ISZERO ISZERO DUP4 ISZERO ISZERO EQ ISZERO PUSH2 0x1514 JUMPI PUSH1 0x40 MLOAD PUSH32 0x8C379A000000000000000000000000000000000000000000000000000000000 DUP2 MSTORE PUSH1 0x4 ADD DUP1 DUP1 PUSH1 0x20 ADD DUP3 DUP2 SUB DUP3 MSTORE PUSH1 0x18 DUP2 MSTORE PUSH1 0x20 ADD DUP1 PUSH32 0x655A4B616C69627572506169723A206E6F207570646174650000000000000000 DUP2 MSTORE POP PUSH1 0x20 ADD SWAP2 POP POP PUSH1 0x40 MLOAD DUP1 SWAP2 SUB SWAP1 REVERT JUMPDEST PUSH1 0x8 PUSH1 0x0 SWAP1 SLOAD SWAP1 PUSH2 0x100 EXP SWAP1 DIV PUSH14 0xFFFFFFFFFFFFFFFFFFFFFFFFFFFF AND PUSH14 0xFFFFFFFFFFFFFFFFFFFFFFFFFFFF AND DUP3 PUSH14 0xFFFFFFFFFFFFFFFFFFFFFFFFFFFF AND EQ DUP1 ISZERO PUSH2 0x159A JUMPI POP PUSH1 0x8 PUSH1 0xE SWAP1 SLOAD SWAP1 PUSH2 0x100 EXP SWAP1 DIV PUSH14 0xFFFFFFFFFFFFFFFFFFFFFFFFFFFF AND PUSH14 0xFFFFFFFFFFFFFFFFFFFFFFFFFFFF AND DUP2 PUSH14 0xFFFFFFFFFFFFFFFFFFFFFFFFFFFF AND EQ JUMPDEST PUSH2 0x160C JUMPI PUSH1 0x40 MLOAD PUSH32 0x8C379A000000000000000000000000000000000000000000000000000000000 DUP2 MSTORE PUSH1 0x4 ADD DUP1 DUP1 PUSH1 0x20 ADD DUP3 DUP2 SUB DUP3 MSTORE PUSH1 0x15 DUP2 MSTORE PUSH1 0x20 ADD DUP1 PUSH32 0x655A4B616C69627572506169723A206661696C65640000000000000000000000 DUP2 MSTORE POP PUSH1 0x20 ADD SWAP2 POP POP PUSH1 0x40 MLOAD DUP1 SWAP2 SUB SWAP1 REVERT JUMPDEST PUSH1 0x0 PUSH2 0x1650 PUSH1 0x8 PUSH1 0x0 SWAP1 SLOAD SWAP1 PUSH2 0x100 EXP SWAP1 DIV PUSH14 0xFFFFFFFFFFFFFFFFFFFFFFFFFFFF AND PUSH1 0x8 PUSH1 0xE SWAP1 SLOAD SWAP1 PUSH2 0x100 EXP SWAP1 DIV PUSH14 0xFFFFFFFFFFFFFFFFFFFFFFFFFFFF AND PUSH2 0x4B99 JUMP JUMPDEST SWAP1 POP PUSH32 0xB6A86710BDE53AA7FB1B3856279E2AF5B476D53E2DD0902CF17A0911B5A43A8B PUSH1 0xC PUSH1 0x0 SWAP1 SLOAD SWAP1 PUSH2 0x100 EXP SWAP1 DIV PUSH1 0xFF AND DUP6 PUSH1 0x40 MLOAD DUP1 DUP4 ISZERO ISZERO ISZERO ISZERO DUP2 MSTORE PUSH1 0x20 ADD DUP3 ISZERO ISZERO ISZERO ISZERO DUP2 MSTORE PUSH1 0x20 ADD SWAP3 POP POP POP PUSH1 0x40 MLOAD DUP1 SWAP2 SUB SWAP1 LOG1 DUP4 PUSH1 0xC PUSH1 0x0 PUSH2 0x100 EXP DUP2 SLOAD DUP2 PUSH1 0xFF MUL NOT AND SWAP1 DUP4 ISZERO ISZERO MUL OR SWAP1 SSTORE POP DUP4 DUP1 ISZERO PUSH2 0x16CC JUMPI POP DUP1 JUMPDEST PUSH2 0x16D7 JUMPI PUSH1 0x0 PUSH2 0x173A JUMP JUMPDEST PUSH2 0x1739 PUSH1 0x8 PUSH1 0x0 SWAP1 SLOAD SWAP1 PUSH2 0x100 EXP SWAP1 DIV PUSH14 0xFFFFFFFFFFFFFFFFFFFFFFFFFFFF AND PUSH14 0xFFFFFFFFFFFFFFFFFFFFFFFFFFFF AND PUSH1 0x8 PUSH1 0xE SWAP1 SLOAD SWAP1 PUSH2 0x100 EXP SWAP1 DIV PUSH14 0xFFFFFFFFFFFFFFFFFFFFFFFFFFFF AND PUSH14 0xFFFFFFFFFFFFFFFFFFFFFFFFFFFF AND PUSH2 0x4DFB JUMP JUMPDEST JUMPDEST PUSH1 0xB DUP2 SWAP1 SSTORE POP POP PUSH1 0x1 PUSH1 0xD DUP2 SWAP1 SSTORE POP POP POP POP JUMP JUMPDEST PUSH32 0x6E71EDAE12B1B97F4D1F60370FEF10105FA2FAAE0126114A169C64845D6126C9 PUSH1 0x0 SHL DUP2 JUMP JUMPDEST PUSH1 0x12 DUP2 JUMP JUMPDEST PUSH1 0x3 SLOAD DUP2 JUMP JUMPDEST PUSH1 0x9 SLOAD DUP2 JUMP JUMPDEST PUSH1 0x1 PUSH1 0xD SLOAD EQ PUSH2 0x17FE JUMPI PUSH1 0x40 MLOAD PUSH32 0x8C379A000000000000000000000000000000000000000000000000000000000 DUP2 MSTORE PUSH1 0x4 ADD DUP1 DUP1 PUSH1 0x20 ADD DUP3 DUP2 SUB DUP3 MSTORE PUSH1 0x15 DUP2 MSTORE PUSH1 0x20 ADD DUP1 PUSH32 0x655A4B616C69627572506169723A204C4F434B45440000000000000000000000 DUP2 MSTORE POP PUSH1 0x20 ADD SWAP2 POP POP PUSH1 0x40 MLOAD DUP1 SWAP2 SUB SWAP1 REVERT JUMPDEST PUSH1 0x0 PUSH1 0xD DUP2 SWAP1 SSTORE POP PUSH1 0x5 PUSH1 0x0 SWAP1 SLOAD SWAP1 PUSH2 0x100 EXP SWAP1 DIV PUSH20 0xFFFFFFFFFFFFFFFFFFFFFFFFFFFFFFFFFFFFFFFF AND PUSH20 0xFFFFFFFFFFFFFFFFFFFFFFFFFFFFFFFFFFFFFFFF AND PUSH4 0x8DA5CB5B PUSH1 0x40 MLOAD DUP2 PUSH4 0xFFFFFFFF AND PUSH1 0xE0 SHL DUP2 MSTORE PUSH1 0x4 ADD PUSH1 0x20 PUSH1 0x40 MLOAD DUP1 DUP4 SUB DUP2 DUP7 DUP1 EXTCODESIZE ISZERO DUP1 ISZERO PUSH2 0x186E JUMPI PUSH1 0x0 DUP1 REVERT JUMPDEST POP GAS STATICCALL ISZERO DUP1 ISZERO PUSH2 0x1882 JUMPI RETURNDATASIZE PUSH1 0x0 DUP1 RETURNDATACOPY RETURNDATASIZE PUSH1 0x0 REVERT JUMPDEST POP POP POP POP PUSH1 0x40 MLOAD RETURNDATASIZE PUSH1 0x20 DUP2 LT ISZERO PUSH2 0x1898 JUMPI PUSH1 0x0 DUP1 REVERT JUMPDEST DUP2 ADD SWAP1 DUP1 DUP1 MLOAD SWAP1 PUSH1 0x20 ADD SWAP1 SWAP3 SWAP2 SWAP1 POP POP POP PUSH20 0xFFFFFFFFFFFFFFFFFFFFFFFFFFFFFFFFFFFFFFFF AND CALLER PUSH20 0xFFFFFFFFFFFFFFFFFFFFFFFFFFFFFFFFFFFFFFFF AND EQ PUSH2 0x192C JUMPI PUSH1 0x40 MLOAD PUSH32 0x8C379A000000000000000000000000000000000000000000000000000000000 DUP2 MSTORE PUSH1 0x4 ADD DUP1 DUP1 PUSH1 0x20 ADD DUP3 DUP2 SUB DUP3 MSTORE PUSH1 0x23 DUP2 MSTORE PUSH1 0x20 ADD DUP1 PUSH2 0x5DD3 PUSH1 0x23 SWAP2 CODECOPY PUSH1 0x40 ADD SWAP2 POP POP PUSH1 0x40 MLOAD DUP1 SWAP2 SUB SWAP1 REVERT JUMPDEST PUSH1 0xC PUSH1 0x1 SWAP1 SLOAD SWAP1 PUSH2 0x100 EXP SWAP1 DIV PUSH1 0xFF AND ISZERO PUSH2 0x19AF JUMPI PUSH1 0x40 MLOAD PUSH32 0x8C379A000000000000000000000000000000000000000000000000000000000 DUP2 MSTORE PUSH1 0x4 ADD DUP1 DUP1 PUSH1 0x20 ADD DUP3 DUP2 SUB DUP3 MSTORE PUSH1 0x20 DUP2 MSTORE PUSH1 0x20 ADD DUP1 PUSH32 0x655A4B616C69627572506169723A20616C726561647920696D6D757461626C65 DUP2 MSTORE POP PUSH1 0x20 ADD SWAP2 POP POP PUSH1 0x40 MLOAD DUP1 SWAP2 SUB SWAP1 REVERT JUMPDEST PUSH1 0x1 PUSH1 0xC PUSH1 0x1 PUSH2 0x100 EXP DUP2 SLOAD DUP2 PUSH1 0xFF MUL NOT AND SWAP1 DUP4 ISZERO ISZERO MUL OR SWAP1 SSTORE POP PUSH32 0x9122C41AE733A4D7740324D50E35FBD6EE85BE3C1312A45596D8045150AB2F2 PUSH1 0x40 MLOAD PUSH1 0x40 MLOAD DUP1 SWAP2 SUB SWAP1 LOG1 PUSH1 0x1 PUSH1 0xD DUP2 SWAP1 SSTORE POP JUMP JUMPDEST PUSH1 0x5 PUSH1 0x0 SWAP1 SLOAD SWAP1 PUSH2 0x100 EXP SWAP1 DIV PUSH20 0xFFFFFFFFFFFFFFFFFFFFFFFFFFFFFFFFFFFFFFFF AND PUSH20 0xFFFFFFFFFFFFFFFFFFFFFFFFFFFFFFFFFFFFFFFF AND CALLER PUSH20 0xFFFFFFFFFFFFFFFFFFFFFFFFFFFFFFFFFFFFFFFF AND EQ DUP1 ISZERO PUSH2 0x1A6A JUMPI POP PUSH1 0x7 PUSH1 0x14 SWAP1 SLOAD SWAP1 PUSH2 0x100 EXP SWAP1 DIV PUSH1 0xFF AND ISZERO JUMPDEST PUSH2 0x1ADC JUMPI PUSH1 0x40 MLOAD PUSH32 0x8C379A000000000000000000000000000000000000000000000000000000000 DUP2 MSTORE PUSH1 0x4 ADD DUP1 DUP1 PUSH1 0x20 ADD DUP3 DUP2 SUB DUP3 MSTORE PUSH1 0x18 DUP2 MSTORE PUSH1 0x20 ADD DUP1 PUSH32 0x655A4B616C69627572506169723A20464F5242494444454E0000000000000000 DUP2 MSTORE POP PUSH1 0x20 ADD SWAP2 POP POP PUSH1 0x40 MLOAD DUP1 SWAP2 SUB SWAP1 REVERT JUMPDEST DUP2 PUSH1 0x6 PUSH1 0x0 PUSH2 0x100 EXP DUP2 SLOAD DUP2 PUSH20 0xFFFFFFFFFFFFFFFFFFFFFFFFFFFFFFFFFFFFFFFF MUL NOT AND SWAP1 DUP4 PUSH20 0xFFFFFFFFFFFFFFFFFFFFFFFFFFFFFFFFFFFFFFFF AND MUL OR SWAP1 SSTORE POP DUP1 PUSH1 0x7 PUSH1 0x0 PUSH2 0x100 EXP DUP2 SLOAD DUP2 PUSH20 0xFFFFFFFFFFFFFFFFFFFFFFFFFFFFFFFFFFFFFFFF MUL NOT AND SWAP1 DUP4 PUSH20 0xFFFFFFFFFFFFFFFFFFFFFFFFFFFFFFFFFFFFFFFF AND MUL OR SWAP1 SSTORE POP DUP2 PUSH20 0xFFFFFFFFFFFFFFFFFFFFFFFFFFFFFFFFFFFFFFFF AND PUSH4 0x313CE567 PUSH1 0x40 MLOAD DUP2 PUSH4 0xFFFFFFFF AND PUSH1 0xE0 SHL DUP2 MSTORE PUSH1 0x4 ADD PUSH1 0x20 PUSH1 0x40 MLOAD DUP1 DUP4 SUB DUP2 DUP7 DUP1 EXTCODESIZE ISZERO DUP1 ISZERO PUSH2 0x1BA4 JUMPI PUSH1 0x0 DUP1 REVERT JUMPDEST POP GAS STATICCALL ISZERO DUP1 ISZERO PUSH2 0x1BB8 JUMPI RETURNDATASIZE PUSH1 0x0 DUP1 RETURNDATACOPY RETURNDATASIZE PUSH1 0x0 REVERT JUMPDEST POP POP POP POP PUSH1 0x40 MLOAD RETURNDATASIZE PUSH1 0x20 DUP2 LT ISZERO PUSH2 0x1BCE JUMPI PUSH1 0x0 DUP1 REVERT JUMPDEST DUP2 ADD SWAP1 DUP1 DUP1 MLOAD SWAP1 PUSH1 0x20 ADD SWAP1 SWAP3 SWAP2 SWAP1 POP POP POP PUSH1 0xFF AND PUSH1 0xA EXP PUSH1 0x9 DUP2 SWAP1 SSTORE POP DUP1 PUSH20 0xFFFFFFFFFFFFFFFFFFFFFFFFFFFFFFFFFFFFFFFF AND PUSH4 0x313CE567 PUSH1 0x40 MLOAD DUP2 PUSH4 0xFFFFFFFF AND PUSH1 0xE0 SHL DUP2 MSTORE PUSH1 0x4 ADD PUSH1 0x20 PUSH1 0x40 MLOAD DUP1 DUP4 SUB DUP2 DUP7 DUP1 EXTCODESIZE ISZERO DUP1 ISZERO PUSH2 0x1C31 JUMPI PUSH1 0x0 DUP1 REVERT JUMPDEST POP GAS STATICCALL ISZERO DUP1 ISZERO PUSH2 0x1C45 JUMPI RETURNDATASIZE PUSH1 0x0 DUP1 RETURNDATACOPY RETURNDATASIZE PUSH1 0x0 REVERT JUMPDEST POP POP POP POP PUSH1 0x40 MLOAD RETURNDATASIZE PUSH1 0x20 DUP2 LT ISZERO PUSH2 0x1C5B JUMPI PUSH1 0x0 DUP1 REVERT JUMPDEST DUP2 ADD SWAP1 DUP1 DUP1 MLOAD SWAP1 PUSH1 0x20 ADD SWAP1 SWAP3 SWAP2 SWAP1 POP POP POP PUSH1 0xFF AND PUSH1 0xA EXP PUSH1 0xA DUP2 SWAP1 SSTORE POP PUSH1 0x1 PUSH1 0x7 PUSH1 0x14 PUSH2 0x100 EXP DUP2 SLOAD DUP2 PUSH1 0xFF MUL NOT AND SWAP1 DUP4 ISZERO ISZERO MUL OR SWAP1 SSTORE POP POP POP JUMP JUMPDEST PUSH1 0x1 PUSH1 0xD SLOAD EQ PUSH2 0x1D0F JUMPI PUSH1 0x40 MLOAD PUSH32 0x8C379A000000000000000000000000000000000000000000000000000000000 DUP2 MSTORE PUSH1 0x4 ADD DUP1 DUP1 PUSH1 0x20 ADD DUP3 DUP2 SUB DUP3 MSTORE PUSH1 0x15 DUP2 MSTORE PUSH1 0x20 ADD DUP1 PUSH32 0x655A4B616C69627572506169723A204C4F434B45440000000000000000000000 DUP2 MSTORE POP PUSH1 0x20 ADD SWAP2 POP POP PUSH1 0x40 MLOAD DUP1 SWAP2 SUB SWAP1 REVERT JUMPDEST PUSH1 0x0 PUSH1 0xD DUP2 SWAP1 SSTORE POP PUSH1 0x5 PUSH1 0x0 SWAP1 SLOAD SWAP1 PUSH2 0x100 EXP SWAP1 DIV PUSH20 0xFFFFFFFFFFFFFFFFFFFFFFFFFFFFFFFFFFFFFFFF AND PUSH20 0xFFFFFFFFFFFFFFFFFFFFFFFFFFFFFFFFFFFFFFFF AND PUSH4 0x4C217715 PUSH1 0x40 MLOAD DUP2 PUSH4 0xFFFFFFFF AND PUSH1 0xE0 SHL DUP2 MSTORE PUSH1 0x4 ADD PUSH1 0x20 PUSH1 0x40 MLOAD DUP1 DUP4 SUB DUP2 DUP7 DUP1 EXTCODESIZE ISZERO DUP1 ISZERO PUSH2 0x1D7F JUMPI PUSH1 0x0 DUP1 REVERT JUMPDEST POP GAS STATICCALL ISZERO DUP1 ISZERO PUSH2 0x1D93 JUMPI RETURNDATASIZE PUSH1 0x0 DUP1 RETURNDATACOPY RETURNDATASIZE PUSH1 0x0 REVERT JUMPDEST POP POP POP POP PUSH1 0x40 MLOAD RETURNDATASIZE PUSH1 0x20 DUP2 LT ISZERO PUSH2 0x1DA9 JUMPI PUSH1 0x0 DUP1 REVERT JUMPDEST DUP2 ADD SWAP1 DUP1 DUP1 MLOAD SWAP1 PUSH1 0x20 ADD SWAP1 SWAP3 SWAP2 SWAP1 POP POP POP PUSH20 0xFFFFFFFFFFFFFFFFFFFFFFFFFFFFFFFFFFFFFFFF AND CALLER PUSH20 0xFFFFFFFFFFFFFFFFFFFFFFFFFFFFFFFFFFFFFFFF AND EQ PUSH2 0x1E3D JUMPI PUSH1 0x40 MLOAD PUSH32 0x8C379A000000000000000000000000000000000000000000000000000000000 DUP2 MSTORE PUSH1 0x4 ADD DUP1 DUP1 PUSH1 0x20 ADD DUP3 DUP2 SUB DUP3 MSTORE PUSH1 0x2C DUP2 MSTORE PUSH1 0x20 ADD DUP1 PUSH2 0x5DA7 PUSH1 0x2C SWAP2 CODECOPY PUSH1 0x40 ADD SWAP2 POP POP PUSH1 0x40 MLOAD DUP1 SWAP2 SUB SWAP1 REVERT JUMPDEST PUSH2 0x7D0 DUP3 PUSH2 0xFFFF AND GT ISZERO DUP1 ISZERO PUSH2 0x1E59 JUMPI POP PUSH2 0x7D0 DUP2 PUSH2 0xFFFF AND GT ISZERO JUMPDEST PUSH2 0x1EAE JUMPI PUSH1 0x40 MLOAD PUSH32 0x8C379A000000000000000000000000000000000000000000000000000000000 DUP2 MSTORE PUSH1 0x4 ADD DUP1 DUP1 PUSH1 0x20 ADD DUP3 DUP2 SUB DUP3 MSTORE PUSH1 0x34 DUP2 MSTORE PUSH1 0x20 ADD DUP1 PUSH2 0x5C17 PUSH1 0x34 SWAP2 CODECOPY PUSH1 0x40 ADD SWAP2 POP POP PUSH1 0x40 MLOAD DUP1 SWAP2 SUB SWAP1 REVERT JUMPDEST PUSH1 0x0 DUP3 PUSH2 0xFFFF AND GT DUP1 ISZERO PUSH2 0x1EC6 JUMPI POP PUSH1 0x0 DUP2 PUSH2 0xFFFF AND GT JUMPDEST PUSH2 0x1F1B JUMPI PUSH1 0x40 MLOAD PUSH32 0x8C379A000000000000000000000000000000000000000000000000000000000 DUP2 MSTORE PUSH1 0x4 ADD DUP1 DUP1 PUSH1 0x20 ADD DUP3 DUP2 SUB DUP3 MSTORE PUSH1 0x34 DUP2 MSTORE PUSH1 0x20 ADD DUP1 PUSH2 0x5D73 PUSH1 0x34 SWAP2 CODECOPY PUSH1 0x40 ADD SWAP2 POP POP PUSH1 0x40 MLOAD DUP1 SWAP2 SUB SWAP1 REVERT JUMPDEST DUP2 PUSH1 0x8 PUSH1 0x1C PUSH2 0x100 EXP DUP2 SLOAD DUP2 PUSH2 0xFFFF MUL NOT AND SWAP1 DUP4 PUSH2 0xFFFF AND MUL OR SWAP1 SSTORE POP DUP1 PUSH1 0x8 PUSH1 0x1E PUSH2 0x100 EXP DUP2 SLOAD DUP2 PUSH2 0xFFFF MUL NOT AND SWAP1 DUP4 PUSH2 0xFFFF AND MUL OR SWAP1 SSTORE POP PUSH32 0xA4877B8ECB5A00BA277E4BCEEEB187A669E7113649774DFBEA05C259CE27F17B DUP3 DUP3 PUSH1 0x40 MLOAD DUP1 DUP4 PUSH2 0xFFFF AND PUSH2 0xFFFF AND DUP2 MSTORE PUSH1 0x20 ADD DUP3 PUSH2 0xFFFF AND PUSH2 0xFFFF AND DUP2 MSTORE PUSH1 0x20 ADD SWAP3 POP POP POP PUSH1 0x40 MLOAD DUP1 SWAP2 SUB SWAP1 LOG1 PUSH1 0x1 PUSH1 0xD DUP2 SWAP1 SSTORE POP POP POP JUMP JUMPDEST PUSH1 0x8 PUSH1 0x1C SWAP1 SLOAD SWAP1 PUSH2 0x100 EXP SWAP1 DIV PUSH2 0xFFFF AND DUP2 JUMP JUMPDEST PUSH2 0x7D0 DUP2 JUMP JUMPDEST PUSH1 0x0 PUSH1 0x1 PUSH1 0xD SLOAD EQ PUSH2 0x2044 JUMPI PUSH1 0x40 MLOAD PUSH32 0x8C379A000000000000000000000000000000000000000000000000000000000 DUP2 MSTORE PUSH1 0x4 ADD DUP1 DUP1 PUSH1 0x20 ADD DUP3 DUP2 SUB DUP3 MSTORE PUSH1 0x15 DUP2 MSTORE PUSH1 0x20 ADD DUP1 PUSH32 0x655A4B616C69627572506169723A204C4F434B45440000000000000000000000 DUP2 MSTORE POP PUSH1 0x20 ADD SWAP2 POP POP PUSH1 0x40 MLOAD DUP1 SWAP2 SUB SWAP1 REVERT JUMPDEST PUSH1 0x0 PUSH1 0xD DUP2 SWAP1 SSTORE POP PUSH1 0x0 DUP1 PUSH2 0x2057 PUSH2 0xF4C JUMP JUMPDEST POP POP SWAP2 POP SWAP2 POP PUSH1 0x0 PUSH1 0x6 PUSH1 0x0 SWAP1 SLOAD SWAP1 PUSH2 0x100 EXP SWAP1 DIV PUSH20 0xFFFFFFFFFFFFFFFFFFFFFFFFFFFFFFFFFFFFFFFF AND PUSH20 0xFFFFFFFFFFFFFFFFFFFFFFFFFFFFFFFFFFFFFFFF AND PUSH4 0x70A08231 ADDRESS PUSH1 0x40 MLOAD DUP3 PUSH4 0xFFFFFFFF AND PUSH1 0xE0 SHL DUP2 MSTORE PUSH1 0x4 ADD DUP1 DUP3 PUSH20 0xFFFFFFFFFFFFFFFFFFFFFFFFFFFFFFFFFFFFFFFF AND PUSH20 0xFFFFFFFFFFFFFFFFFFFFFFFFFFFFFFFFFFFFFFFF AND DUP2 MSTORE PUSH1 0x20 ADD SWAP2 POP POP PUSH1 0x20 PUSH1 0x40 MLOAD DUP1 DUP4 SUB DUP2 DUP7 DUP1 EXTCODESIZE ISZERO DUP1 ISZERO PUSH2 0x20FE JUMPI PUSH1 0x0 DUP1 REVERT JUMPDEST POP GAS STATICCALL ISZERO DUP1 ISZERO PUSH2 0x2112 JUMPI RETURNDATASIZE PUSH1 0x0 DUP1 RETURNDATACOPY RETURNDATASIZE PUSH1 0x0 REVERT JUMPDEST POP POP POP POP PUSH1 0x40 MLOAD RETURNDATASIZE PUSH1 0x20 DUP2 LT ISZERO PUSH2 0x2128 JUMPI PUSH1 0x0 DUP1 REVERT JUMPDEST DUP2 ADD SWAP1 DUP1 DUP1 MLOAD SWAP1 PUSH1 0x20 ADD SWAP1 SWAP3 SWAP2 SWAP1 POP POP POP SWAP1 POP PUSH1 0x0 PUSH1 0x7 PUSH1 0x0 SWAP1 SLOAD SWAP1 PUSH2 0x100 EXP SWAP1 DIV PUSH20 0xFFFFFFFFFFFFFFFFFFFFFFFFFFFFFFFFFFFFFFFF AND PUSH20 0xFFFFFFFFFFFFFFFFFFFFFFFFFFFFFFFFFFFFFFFF AND PUSH4 0x70A08231 ADDRESS PUSH1 0x40 MLOAD DUP3 PUSH4 0xFFFFFFFF AND PUSH1 0xE0 SHL DUP2 MSTORE PUSH1 0x4 ADD DUP1 DUP3 PUSH20 0xFFFFFFFFFFFFFFFFFFFFFFFFFFFFFFFFFFFFFFFF AND PUSH20 0xFFFFFFFFFFFFFFFFFFFFFFFFFFFFFFFFFFFFFFFF AND DUP2 MSTORE PUSH1 0x20 ADD SWAP2 POP POP PUSH1 0x20 PUSH1 0x40 MLOAD DUP1 DUP4 SUB DUP2 DUP7 DUP1 EXTCODESIZE ISZERO DUP1 ISZERO PUSH2 0x21DC JUMPI PUSH1 0x0 DUP1 REVERT JUMPDEST POP GAS STATICCALL ISZERO DUP1 ISZERO PUSH2 0x21F0 JUMPI RETURNDATASIZE PUSH1 0x0 DUP1 RETURNDATACOPY RETURNDATASIZE PUSH1 0x0 REVERT JUMPDEST POP POP POP POP PUSH1 0x40 MLOAD RETURNDATASIZE PUSH1 0x20 DUP2 LT ISZERO PUSH2 0x2206 JUMPI PUSH1 0x0 DUP1 REVERT JUMPDEST DUP2 ADD SWAP1 DUP1 DUP1 MLOAD SWAP1 PUSH1 0x20 ADD SWAP1 SWAP3 SWAP2 SWAP1 POP POP POP SWAP1 POP PUSH1 0x0 PUSH2 0x223E DUP6 PUSH14 0xFFFFFFFFFFFFFFFFFFFFFFFFFFFF AND DUP5 PUSH2 0x4982 SWAP1 SWAP2 SWAP1 PUSH4 0xFFFFFFFF AND JUMP JUMPDEST SWAP1 POP PUSH1 0x0 PUSH2 0x2265 DUP6 PUSH14 0xFFFFFFFFFFFFFFFFFFFFFFFFFFFF AND DUP5 PUSH2 0x4982 SWAP1 SWAP2 SWAP1 PUSH4 0xFFFFFFFF AND JUMP JUMPDEST SWAP1 POP PUSH1 0x0 PUSH2 0x2273 DUP8 DUP8 PUSH2 0x4B99 JUMP JUMPDEST SWAP1 POP PUSH1 0x0 DUP1 SLOAD SWAP1 POP PUSH1 0x0 DUP2 EQ ISZERO PUSH2 0x22C7 JUMPI PUSH2 0x22B3 PUSH2 0x3E8 PUSH2 0x22A5 PUSH2 0x22A0 DUP7 DUP9 PUSH2 0x4F36 SWAP1 SWAP2 SWAP1 PUSH4 0xFFFFFFFF AND JUMP JUMPDEST PUSH2 0x4FCB JUMP JUMPDEST PUSH2 0x4982 SWAP1 SWAP2 SWAP1 PUSH4 0xFFFFFFFF AND JUMP JUMPDEST SWAP9 POP PUSH2 0x22C2 PUSH1 0x0 PUSH2 0x3E8 PUSH2 0x502D JUMP JUMPDEST PUSH2 0x232A JUMP JUMPDEST PUSH2 0x2327 DUP9 PUSH14 0xFFFFFFFFFFFFFFFFFFFFFFFFFFFF AND PUSH2 0x22EE DUP4 DUP8 PUSH2 0x4F36 SWAP1 SWAP2 SWAP1 PUSH4 0xFFFFFFFF AND JUMP JUMPDEST DUP2 PUSH2 0x22F5 JUMPI INVALID JUMPDEST DIV DUP9 PUSH14 0xFFFFFFFFFFFFFFFFFFFFFFFFFFFF AND PUSH2 0x231A DUP5 DUP8 PUSH2 0x4F36 SWAP1 SWAP2 SWAP1 PUSH4 0xFFFFFFFF AND JUMP JUMPDEST DUP2 PUSH2 0x2321 JUMPI INVALID JUMPDEST DIV PUSH2 0x5147 JUMP JUMPDEST SWAP9 POP JUMPDEST PUSH1 0x0 DUP10 GT PUSH2 0x2383 JUMPI PUSH1 0x40 MLOAD PUSH32 0x8C379A000000000000000000000000000000000000000000000000000000000 DUP2 MSTORE PUSH1 0x4 ADD DUP1 DUP1 PUSH1 0x20 ADD DUP3 DUP2 SUB DUP3 MSTORE PUSH1 0x2C DUP2 MSTORE PUSH1 0x20 ADD DUP1 PUSH2 0x5C9C PUSH1 0x2C SWAP2 CODECOPY PUSH1 0x40 ADD SWAP2 POP POP PUSH1 0x40 MLOAD DUP1 SWAP2 SUB SWAP1 REVERT JUMPDEST PUSH2 0x238D DUP11 DUP11 PUSH2 0x502D JUMP JUMPDEST PUSH2 0x2397 DUP7 DUP7 PUSH2 0x5160 JUMP JUMPDEST DUP2 ISZERO PUSH2 0x2406 JUMPI PUSH2 0x23FF PUSH1 0x8 PUSH1 0x0 SWAP1 SLOAD SWAP1 PUSH2 0x100 EXP SWAP1 DIV PUSH14 0xFFFFFFFFFFFFFFFFFFFFFFFFFFFF AND PUSH14 0xFFFFFFFFFFFFFFFFFFFFFFFFFFFF AND PUSH1 0x8 PUSH1 0xE SWAP1 SLOAD SWAP1 PUSH2 0x100 EXP SWAP1 DIV PUSH14 0xFFFFFFFFFFFFFFFFFFFFFFFFFFFF AND PUSH14 0xFFFFFFFFFFFFFFFFFFFFFFFFFFFF AND PUSH2 0x4DFB JUMP JUMPDEST PUSH1 0xB DUP2 SWAP1 SSTORE POP JUMPDEST CALLER PUSH20 0xFFFFFFFFFFFFFFFFFFFFFFFFFFFFFFFFFFFFFFFF AND PUSH32 0x4C209B5FC8AD50758F13E2E1088BA56A560DFF690A1C6FEF26394F4C03821C4F DUP6 DUP6 PUSH1 0x40 MLOAD DUP1 DUP4 DUP2 MSTORE PUSH1 0x20 ADD DUP3 DUP2 MSTORE PUSH1 0x20 ADD SWAP3 POP POP POP PUSH1 0x40 MLOAD DUP1 SWAP2 SUB SWAP1 LOG2 POP POP POP POP POP POP POP POP PUSH1 0x1 PUSH1 0xD DUP2 SWAP1 SSTORE POP SWAP2 SWAP1 POP JUMP JUMPDEST PUSH2 0x2479 PUSH2 0x5BA5 JUMP JUMPDEST PUSH1 0x40 MLOAD DUP1 PUSH2 0x100 ADD PUSH1 0x40 MSTORE DUP1 PUSH1 0x6 PUSH1 0x0 SWAP1 SLOAD SWAP1 PUSH2 0x100 EXP SWAP1 DIV PUSH20 0xFFFFFFFFFFFFFFFFFFFFFFFFFFFFFFFFFFFFFFFF AND PUSH20 0xFFFFFFFFFFFFFFFFFFFFFFFFFFFFFFFFFFFFFFFF AND DUP2 MSTORE PUSH1 0x20 ADD PUSH1 0x7 PUSH1 0x0 SWAP1 SLOAD SWAP1 PUSH2 0x100 EXP SWAP1 DIV PUSH20 0xFFFFFFFFFFFFFFFFFFFFFFFFFFFFFFFFFFFFFFFF AND PUSH20 0xFFFFFFFFFFFFFFFFFFFFFFFFFFFFFFFFFFFFFFFF AND DUP2 MSTORE PUSH1 0x20 ADD DUP9 DUP2 MSTORE PUSH1 0x20 ADD DUP8 DUP2 MSTORE PUSH1 0x20 ADD PUSH1 0x0 DUP2 MSTORE PUSH1 0x20 ADD PUSH1 0x0 DUP2 MSTORE PUSH1 0x20 ADD PUSH1 0x0 DUP2 MSTORE PUSH1 0x20 ADD PUSH1 0x0 DUP2 MSTORE POP SWAP1 POP PUSH2 0x2579 DUP2 DUP7 DUP7 DUP7 DUP1 DUP1 PUSH1 0x1F ADD PUSH1 0x20 DUP1 SWAP2 DIV MUL PUSH1 0x20 ADD PUSH1 0x40 MLOAD SWAP1 DUP2 ADD PUSH1 0x40 MSTORE DUP1 SWAP4 SWAP3 SWAP2 SWAP1 DUP2 DUP2 MSTORE PUSH1 0x20 ADD DUP4 DUP4 DUP1 DUP3 DUP5 CALLDATACOPY PUSH1 0x0 DUP2 DUP5 ADD MSTORE PUSH1 0x1F NOT PUSH1 0x1F DUP3 ADD AND SWAP1 POP DUP1 DUP4 ADD SWAP3 POP POP POP POP POP POP POP DUP6 PUSH2 0x3A93 JUMP JUMPDEST POP POP POP POP POP POP POP JUMP JUMPDEST PUSH1 0x1 PUSH1 0x20 MSTORE DUP1 PUSH1 0x0 MSTORE PUSH1 0x40 PUSH1 0x0 KECCAK256 PUSH1 0x0 SWAP2 POP SWAP1 POP SLOAD DUP2 JUMP JUMPDEST PUSH1 0xB SLOAD DUP2 JUMP JUMPDEST PUSH1 0x4 PUSH1 0x20 MSTORE DUP1 PUSH1 0x0 MSTORE PUSH1 0x40 PUSH1 0x0 KECCAK256 PUSH1 0x0 SWAP2 POP SWAP1 POP SLOAD DUP2 JUMP JUMPDEST PUSH1 0x0 DUP1 PUSH1 0x1 PUSH1 0xD SLOAD EQ PUSH2 0x2633 JUMPI PUSH1 0x40 MLOAD PUSH32 0x8C379A000000000000000000000000000000000000000000000000000000000 DUP2 MSTORE PUSH1 0x4 ADD DUP1 DUP1 PUSH1 0x20 ADD DUP3 DUP2 SUB DUP3 MSTORE PUSH1 0x15 DUP2 MSTORE PUSH1 0x20 ADD DUP1 PUSH32 0x655A4B616C69627572506169723A204C4F434B45440000000000000000000000 DUP2 MSTORE POP PUSH1 0x20 ADD SWAP2 POP POP PUSH1 0x40 MLOAD DUP1 SWAP2 SUB SWAP1 REVERT JUMPDEST PUSH1 0x0 PUSH1 0xD DUP2 SWAP1 SSTORE POP PUSH1 0x0 DUP1 PUSH2 0x2646 PUSH2 0xF4C JUMP JUMPDEST POP POP SWAP2 POP SWAP2 POP PUSH1 0x0 PUSH1 0x6 PUSH1 0x0 SWAP1 SLOAD SWAP1 PUSH2 0x100 EXP SWAP1 DIV PUSH20 0xFFFFFFFFFFFFFFFFFFFFFFFFFFFFFFFFFFFFFFFF AND SWAP1 POP PUSH1 0x0 PUSH1 0x7 PUSH1 0x0 SWAP1 SLOAD SWAP1 PUSH2 0x100 EXP SWAP1 DIV PUSH20 0xFFFFFFFFFFFFFFFFFFFFFFFFFFFFFFFFFFFFFFFF AND SWAP1 POP PUSH1 0x0 DUP3 PUSH20 0xFFFFFFFFFFFFFFFFFFFFFFFFFFFFFFFFFFFFFFFF AND PUSH4 0x70A08231 ADDRESS PUSH1 0x40 MLOAD DUP3 PUSH4 0xFFFFFFFF AND PUSH1 0xE0 SHL DUP2 MSTORE PUSH1 0x4 ADD DUP1 DUP3 PUSH20 0xFFFFFFFFFFFFFFFFFFFFFFFFFFFFFFFFFFFFFFFF AND PUSH20 0xFFFFFFFFFFFFFFFFFFFFFFFFFFFFFFFFFFFFFFFF AND DUP2 MSTORE PUSH1 0x20 ADD SWAP2 POP POP PUSH1 0x20 PUSH1 0x40 MLOAD DUP1 DUP4 SUB DUP2 DUP7 DUP1 EXTCODESIZE ISZERO DUP1 ISZERO PUSH2 0x2719 JUMPI PUSH1 0x0 DUP1 REVERT JUMPDEST POP GAS STATICCALL ISZERO DUP1 ISZERO PUSH2 0x272D JUMPI RETURNDATASIZE PUSH1 0x0 DUP1 RETURNDATACOPY RETURNDATASIZE PUSH1 0x0 REVERT JUMPDEST POP POP POP POP PUSH1 0x40 MLOAD RETURNDATASIZE PUSH1 0x20 DUP2 LT ISZERO PUSH2 0x2743 JUMPI PUSH1 0x0 DUP1 REVERT JUMPDEST DUP2 ADD SWAP1 DUP1 DUP1 MLOAD SWAP1 PUSH1 0x20 ADD SWAP1 SWAP3 SWAP2 SWAP1 POP POP POP SWAP1 POP PUSH1 0x0 DUP3 PUSH20 0xFFFFFFFFFFFFFFFFFFFFFFFFFFFFFFFFFFFFFFFF AND PUSH4 0x70A08231 ADDRESS PUSH1 0x40 MLOAD DUP3 PUSH4 0xFFFFFFFF AND PUSH1 0xE0 SHL DUP2 MSTORE PUSH1 0x4 ADD DUP1 DUP3 PUSH20 0xFFFFFFFFFFFFFFFFFFFFFFFFFFFFFFFFFFFFFFFF AND PUSH20 0xFFFFFFFFFFFFFFFFFFFFFFFFFFFFFFFFFFFFFFFF AND DUP2 MSTORE PUSH1 0x20 ADD SWAP2 POP POP PUSH1 0x20 PUSH1 0x40 MLOAD DUP1 DUP4 SUB DUP2 DUP7 DUP1 EXTCODESIZE ISZERO DUP1 ISZERO PUSH2 0x27D5 JUMPI PUSH1 0x0 DUP1 REVERT JUMPDEST POP GAS STATICCALL ISZERO DUP1 ISZERO PUSH2 0x27E9 JUMPI RETURNDATASIZE PUSH1 0x0 DUP1 RETURNDATACOPY RETURNDATASIZE PUSH1 0x0 REVERT JUMPDEST POP POP POP POP PUSH1 0x40 MLOAD RETURNDATASIZE PUSH1 0x20 DUP2 LT ISZERO PUSH2 0x27FF JUMPI PUSH1 0x0 DUP1 REVERT JUMPDEST DUP2 ADD SWAP1 DUP1 DUP1 MLOAD SWAP1 PUSH1 0x20 ADD SWAP1 SWAP3 SWAP2 SWAP1 POP POP POP SWAP1 POP PUSH1 0x0 PUSH1 0x1 PUSH1 0x0 ADDRESS PUSH20 0xFFFFFFFFFFFFFFFFFFFFFFFFFFFFFFFFFFFFFFFF AND PUSH20 0xFFFFFFFFFFFFFFFFFFFFFFFFFFFFFFFFFFFFFFFF AND DUP2 MSTORE PUSH1 0x20 ADD SWAP1 DUP2 MSTORE PUSH1 0x20 ADD PUSH1 0x0 KECCAK256 SLOAD SWAP1 POP PUSH1 0x0 PUSH2 0x2862 DUP9 DUP9 PUSH2 0x4B99 JUMP JUMPDEST SWAP1 POP PUSH1 0x0 DUP1 SLOAD SWAP1 POP DUP1 PUSH2 0x287E DUP7 DUP6 PUSH2 0x4F36 SWAP1 SWAP2 SWAP1 PUSH4 0xFFFFFFFF AND JUMP JUMPDEST DUP2 PUSH2 0x2885 JUMPI INVALID JUMPDEST DIV SWAP11 POP DUP1 PUSH2 0x289C DUP6 DUP6 PUSH2 0x4F36 SWAP1 SWAP2 SWAP1 PUSH4 0xFFFFFFFF AND JUMP JUMPDEST DUP2 PUSH2 0x28A3 JUMPI INVALID JUMPDEST DIV SWAP10 POP PUSH1 0x0 DUP12 GT DUP1 ISZERO PUSH2 0x28B6 JUMPI POP PUSH1 0x0 DUP11 GT JUMPDEST PUSH2 0x290B JUMPI PUSH1 0x40 MLOAD PUSH32 0x8C379A000000000000000000000000000000000000000000000000000000000 DUP2 MSTORE PUSH1 0x4 ADD DUP1 DUP1 PUSH1 0x20 ADD DUP3 DUP2 SUB DUP3 MSTORE PUSH1 0x2C DUP2 MSTORE PUSH1 0x20 ADD DUP1 PUSH2 0x5C4B PUSH1 0x2C SWAP2 CODECOPY PUSH1 0x40 ADD SWAP2 POP POP PUSH1 0x40 MLOAD DUP1 SWAP2 SUB SWAP1 REVERT JUMPDEST PUSH2 0x2915 ADDRESS DUP5 PUSH2 0x532F JUMP JUMPDEST PUSH2 0x2920 DUP8 DUP14 DUP14 PUSH2 0x5449 JUMP JUMPDEST PUSH2 0x292B DUP7 DUP14 DUP13 PUSH2 0x5449 JUMP JUMPDEST DUP7 PUSH20 0xFFFFFFFFFFFFFFFFFFFFFFFFFFFFFFFFFFFFFFFF AND PUSH4 0x70A08231 ADDRESS PUSH1 0x40 MLOAD DUP3 PUSH4 0xFFFFFFFF AND PUSH1 0xE0 SHL DUP2 MSTORE PUSH1 0x4 ADD DUP1 DUP3 PUSH20 0xFFFFFFFFFFFFFFFFFFFFFFFFFFFFFFFFFFFFFFFF AND PUSH20 0xFFFFFFFFFFFFFFFFFFFFFFFFFFFFFFFFFFFFFFFF AND DUP2 MSTORE PUSH1 0x20 ADD SWAP2 POP POP PUSH1 0x20 PUSH1 0x40 MLOAD DUP1 DUP4 SUB DUP2 DUP7 DUP1 EXTCODESIZE ISZERO DUP1 ISZERO PUSH2 0x29A8 JUMPI PUSH1 0x0 DUP1 REVERT JUMPDEST POP GAS STATICCALL ISZERO DUP1 ISZERO PUSH2 0x29BC JUMPI RETURNDATASIZE PUSH1 0x0 DUP1 RETURNDATACOPY RETURNDATASIZE PUSH1 0x0 REVERT JUMPDEST POP POP POP POP PUSH1 0x40 MLOAD RETURNDATASIZE PUSH1 0x20 DUP2 LT ISZERO PUSH2 0x29D2 JUMPI PUSH1 0x0 DUP1 REVERT JUMPDEST DUP2 ADD SWAP1 DUP1 DUP1 MLOAD SWAP1 PUSH1 0x20 ADD SWAP1 SWAP3 SWAP2 SWAP1 POP POP POP SWAP5 POP DUP6 PUSH20 0xFFFFFFFFFFFFFFFFFFFFFFFFFFFFFFFFFFFFFFFF AND PUSH4 0x70A08231 ADDRESS PUSH1 0x40 MLOAD DUP3 PUSH4 0xFFFFFFFF AND PUSH1 0xE0 SHL DUP2 MSTORE PUSH1 0x4 ADD DUP1 DUP3 PUSH20 0xFFFFFFFFFFFFFFFFFFFFFFFFFFFFFFFFFFFFFFFF AND PUSH20 0xFFFFFFFFFFFFFFFFFFFFFFFFFFFFFFFFFFFFFFFF AND DUP2 MSTORE PUSH1 0x20 ADD SWAP2 POP POP PUSH1 0x20 PUSH1 0x40 MLOAD DUP1 DUP4 SUB DUP2 DUP7 DUP1 EXTCODESIZE ISZERO DUP1 ISZERO PUSH2 0x2A62 JUMPI PUSH1 0x0 DUP1 REVERT JUMPDEST POP GAS STATICCALL ISZERO DUP1 ISZERO PUSH2 0x2A76 JUMPI RETURNDATASIZE PUSH1 0x0 DUP1 RETURNDATACOPY RETURNDATASIZE PUSH1 0x0 REVERT JUMPDEST POP POP POP POP PUSH1 0x40 MLOAD RETURNDATASIZE PUSH1 0x20 DUP2 LT ISZERO PUSH2 0x2A8C JUMPI PUSH1 0x0 DUP1 REVERT JUMPDEST DUP2 ADD SWAP1 DUP1 DUP1 MLOAD SWAP1 PUSH1 0x20 ADD SWAP1 SWAP3 SWAP2 SWAP1 POP POP POP SWAP4 POP PUSH2 0x2AA9 DUP6 DUP6 PUSH2 0x5160 JUMP JUMPDEST DUP2 ISZERO PUSH2 0x2B18 JUMPI PUSH2 0x2B11 PUSH1 0x8 PUSH1 0x0 SWAP1 SLOAD SWAP1 PUSH2 0x100 EXP SWAP1 DIV PUSH14 0xFFFFFFFFFFFFFFFFFFFFFFFFFFFF AND PUSH14 0xFFFFFFFFFFFFFFFFFFFFFFFFFFFF AND PUSH1 0x8 PUSH1 0xE SWAP1 SLOAD SWAP1 PUSH2 0x100 EXP SWAP1 DIV PUSH14 0xFFFFFFFFFFFFFFFFFFFFFFFFFFFF AND PUSH14 0xFFFFFFFFFFFFFFFFFFFFFFFFFFFF AND PUSH2 0x4DFB JUMP JUMPDEST PUSH1 0xB DUP2 SWAP1 SSTORE POP JUMPDEST DUP12 PUSH20 0xFFFFFFFFFFFFFFFFFFFFFFFFFFFFFFFFFFFFFFFF AND CALLER PUSH20 0xFFFFFFFFFFFFFFFFFFFFFFFFFFFFFFFFFFFFFFFF AND PUSH32 0xDCCD412F0B1252819CB1FD330B93224CA42612892BB3F4F789976E6D81936496 DUP14 DUP14 PUSH1 0x40 MLOAD DUP1 DUP4 DUP2 MSTORE PUSH1 0x20 ADD DUP3 DUP2 MSTORE PUSH1 0x20 ADD SWAP3 POP POP POP PUSH1 0x40 MLOAD DUP1 SWAP2 SUB SWAP1 LOG3 POP POP POP POP POP POP POP POP POP PUSH1 0x1 PUSH1 0xD DUP2 SWAP1 SSTORE POP SWAP2 POP SWAP2 JUMP JUMPDEST PUSH1 0x40 MLOAD DUP1 PUSH1 0x40 ADD PUSH1 0x40 MSTORE DUP1 PUSH1 0x6 DUP2 MSTORE PUSH1 0x20 ADD PUSH32 0x655A4B2D4C500000000000000000000000000000000000000000000000000000 DUP2 MSTORE POP DUP2 JUMP JUMPDEST PUSH1 0xC PUSH1 0x0 SWAP1 SLOAD SWAP1 PUSH2 0x100 EXP SWAP1 DIV PUSH1 0xFF AND DUP2 JUMP JUMPDEST PUSH1 0x0 PUSH2 0x2BF4 CALLER DUP5 DUP5 PUSH2 0x4A05 JUMP JUMPDEST PUSH1 0x1 SWAP1 POP SWAP3 SWAP2 POP POP JUMP JUMPDEST PUSH1 0xC PUSH1 0x1 SWAP1 SLOAD SWAP1 PUSH2 0x100 EXP SWAP1 DIV PUSH1 0xFF AND DUP2 JUMP JUMPDEST PUSH2 0x3E8 DUP2 JUMP JUMPDEST PUSH1 0x1 PUSH1 0xD SLOAD EQ PUSH2 0x2C8F JUMPI PUSH1 0x40 MLOAD PUSH32 0x8C379A000000000000000000000000000000000000000000000000000000000 DUP2 MSTORE PUSH1 0x4 ADD DUP1 DUP1 PUSH1 0x20 ADD DUP3 DUP2 SUB DUP3 MSTORE PUSH1 0x15 DUP2 MSTORE PUSH1 0x20 ADD DUP1 PUSH32 0x655A4B616C69627572506169723A204C4F434B45440000000000000000000000 DUP2 MSTORE POP PUSH1 0x20 ADD SWAP2 POP POP PUSH1 0x40 MLOAD DUP1 SWAP2 SUB SWAP1 REVERT JUMPDEST PUSH1 0x0 PUSH1 0xD DUP2 SWAP1 SSTORE POP PUSH1 0x0 PUSH1 0x6 PUSH1 0x0 SWAP1 SLOAD SWAP1 PUSH2 0x100 EXP SWAP1 DIV PUSH20 0xFFFFFFFFFFFFFFFFFFFFFFFFFFFFFFFFFFFFFFFF AND SWAP1 POP PUSH1 0x0 PUSH1 0x7 PUSH1 0x0 SWAP1 SLOAD SWAP1 PUSH2 0x100 EXP SWAP1 DIV PUSH20 0xFFFFFFFFFFFFFFFFFFFFFFFFFFFFFFFFFFFFFFFF AND SWAP1 POP PUSH2 0x2DE5 DUP3 DUP5 PUSH2 0x2DE0 PUSH1 0x8 PUSH1 0x0 SWAP1 SLOAD SWAP1 PUSH2 0x100 EXP SWAP1 DIV PUSH14 0xFFFFFFFFFFFFFFFFFFFFFFFFFFFF AND PUSH14 0xFFFFFFFFFFFFFFFFFFFFFFFFFFFF AND DUP7 PUSH20 0xFFFFFFFFFFFFFFFFFFFFFFFFFFFFFFFFFFFFFFFF AND PUSH4 0x70A08231 ADDRESS PUSH1 0x40 MLOAD DUP3 PUSH4 0xFFFFFFFF AND PUSH1 0xE0 SHL DUP2 MSTORE PUSH1 0x4 ADD DUP1 DUP3 PUSH20 0xFFFFFFFFFFFFFFFFFFFFFFFFFFFFFFFFFFFFFFFF AND PUSH20 0xFFFFFFFFFFFFFFFFFFFFFFFFFFFFFFFFFFFFFFFF AND DUP2 MSTORE PUSH1 0x20 ADD SWAP2 POP POP PUSH1 0x20 PUSH1 0x40 MLOAD DUP1 DUP4 SUB DUP2 DUP7 DUP1 EXTCODESIZE ISZERO DUP1 ISZERO PUSH2 0x2D97 JUMPI PUSH1 0x0 DUP1 REVERT JUMPDEST POP GAS STATICCALL ISZERO DUP1 ISZERO PUSH2 0x2DAB JUMPI RETURNDATASIZE PUSH1 0x0 DUP1 RETURNDATACOPY RETURNDATASIZE PUSH1 0x0 REVERT JUMPDEST POP POP POP POP PUSH1 0x40 MLOAD RETURNDATASIZE PUSH1 0x20 DUP2 LT ISZERO PUSH2 0x2DC1 JUMPI PUSH1 0x0 DUP1 REVERT JUMPDEST DUP2 ADD SWAP1 DUP1 DUP1 MLOAD SWAP1 PUSH1 0x20 ADD SWAP1 SWAP3 SWAP2 SWAP1 POP POP POP PUSH2 0x4982 SWAP1 SWAP2 SWAP1 PUSH4 0xFFFFFFFF AND JUMP JUMPDEST PUSH2 0x5449 JUMP JUMPDEST PUSH2 0x2EE5 DUP2 DUP5 PUSH2 0x2EE0 PUSH1 0x8 PUSH1 0xE SWAP1 SLOAD SWAP1 PUSH2 0x100 EXP SWAP1 DIV PUSH14 0xFFFFFFFFFFFFFFFFFFFFFFFFFFFF AND PUSH14 0xFFFFFFFFFFFFFFFFFFFFFFFFFFFF AND DUP6 PUSH20 0xFFFFFFFFFFFFFFFFFFFFFFFFFFFFFFFFFFFFFFFF AND PUSH4 0x70A08231 ADDRESS PUSH1 0x40 MLOAD DUP3 PUSH4 0xFFFFFFFF AND PUSH1 0xE0 SHL DUP2 MSTORE PUSH1 0x4 ADD DUP1 DUP3 PUSH20 0xFFFFFFFFFFFFFFFFFFFFFFFFFFFFFFFFFFFFFFFF AND PUSH20 0xFFFFFFFFFFFFFFFFFFFFFFFFFFFFFFFFFFFFFFFF AND DUP2 MSTORE PUSH1 0x20 ADD SWAP2 POP POP PUSH1 0x20 PUSH1 0x40 MLOAD DUP1 DUP4 SUB DUP2 DUP7 DUP1 EXTCODESIZE ISZERO DUP1 ISZERO PUSH2 0x2E97 JUMPI PUSH1 0x0 DUP1 REVERT JUMPDEST POP GAS STATICCALL ISZERO DUP1 ISZERO PUSH2 0x2EAB JUMPI RETURNDATASIZE PUSH1 0x0 DUP1 RETURNDATACOPY RETURNDATASIZE PUSH1 0x0 REVERT JUMPDEST POP POP POP POP PUSH1 0x40 MLOAD RETURNDATASIZE PUSH1 0x20 DUP2 LT ISZERO PUSH2 0x2EC1 JUMPI PUSH1 0x0 DUP1 REVERT JUMPDEST DUP2 ADD SWAP1 DUP1 DUP1 MLOAD SWAP1 PUSH1 0x20 ADD SWAP1 SWAP3 SWAP2 SWAP1 POP POP POP PUSH2 0x4982 SWAP1 SWAP2 SWAP1 PUSH4 0xFFFFFFFF AND JUMP JUMPDEST PUSH2 0x5449 JUMP JUMPDEST PUSH32 0x21AD22495C9C75CD1C94756F91824E779C0C8A8E168B267C790DF464FE056B79 PUSH1 0x40 MLOAD PUSH1 0x40 MLOAD DUP1 SWAP2 SUB SWAP1 LOG1 POP POP PUSH1 0x1 PUSH1 0xD DUP2 SWAP1 SSTORE POP POP JUMP JUMPDEST PUSH1 0x5 PUSH1 0x0 SWAP1 SLOAD SWAP1 PUSH2 0x100 EXP SWAP1 DIV PUSH20 0xFFFFFFFFFFFFFFFFFFFFFFFFFFFFFFFFFFFFFFFF AND DUP2 JUMP JUMPDEST PUSH1 0x7 PUSH1 0x0 SWAP1 SLOAD SWAP1 PUSH2 0x100 EXP SWAP1 DIV PUSH20 0xFFFFFFFFFFFFFFFFFFFFFFFFFFFFFFFFFFFFFFFF AND DUP2 JUMP JUMPDEST TIMESTAMP DUP5 LT ISZERO PUSH2 0x2FE0 JUMPI PUSH1 0x40 MLOAD PUSH32 0x8C379A000000000000000000000000000000000000000000000000000000000 DUP2 MSTORE PUSH1 0x4 ADD DUP1 DUP1 PUSH1 0x20 ADD DUP3 DUP2 SUB DUP3 MSTORE PUSH1 0x12 DUP2 MSTORE PUSH1 0x20 ADD DUP1 PUSH32 0x556E697377617056323A20455850495245440000000000000000000000000000 DUP2 MSTORE POP PUSH1 0x20 ADD SWAP2 POP POP PUSH1 0x40 MLOAD DUP1 SWAP2 SUB SWAP1 REVERT JUMPDEST PUSH1 0x0 PUSH1 0x3 SLOAD PUSH32 0x6E71EDAE12B1B97F4D1F60370FEF10105FA2FAAE0126114A169C64845D6126C9 PUSH1 0x0 SHL DUP10 DUP10 DUP10 PUSH1 0x4 PUSH1 0x0 DUP15 PUSH20 0xFFFFFFFFFFFFFFFFFFFFFFFFFFFFFFFFFFFFFFFF AND PUSH20 0xFFFFFFFFFFFFFFFFFFFFFFFFFFFFFFFFFFFFFFFF AND DUP2 MSTORE PUSH1 0x20 ADD SWAP1 DUP2 MSTORE PUSH1 0x20 ADD PUSH1 0x0 KECCAK256 PUSH1 0x0 DUP2 SLOAD DUP1 SWAP3 SWAP2 SWAP1 PUSH1 0x1 ADD SWAP2 SWAP1 POP SSTORE DUP11 PUSH1 0x40 MLOAD PUSH1 0x20 ADD DUP1 DUP8 DUP2 MSTORE PUSH1 0x20 ADD DUP7 PUSH20 0xFFFFFFFFFFFFFFFFFFFFFFFFFFFFFFFFFFFFFFFF AND PUSH20 0xFFFFFFFFFFFFFFFFFFFFFFFFFFFFFFFFFFFFFFFF AND DUP2 MSTORE PUSH1 0x20 ADD DUP6 PUSH20 0xFFFFFFFFFFFFFFFFFFFFFFFFFFFFFFFFFFFFFFFF AND PUSH20 0xFFFFFFFFFFFFFFFFFFFFFFFFFFFFFFFFFFFFFFFF AND DUP2 MSTORE PUSH1 0x20 ADD DUP5 DUP2 MSTORE PUSH1 0x20 ADD DUP4 DUP2 MSTORE PUSH1 0x20 ADD DUP3 DUP2 MSTORE PUSH1 0x20 ADD SWAP7 POP POP POP POP POP POP POP PUSH1 0x40 MLOAD PUSH1 0x20 DUP2 DUP4 SUB SUB DUP2 MSTORE SWAP1 PUSH1 0x40 MSTORE DUP1 MLOAD SWAP1 PUSH1 0x20 ADD KECCAK256 PUSH1 0x40 MLOAD PUSH1 0x20 ADD DUP1 DUP1 PUSH32 0x1901000000000000000000000000000000000000000000000000000000000000 DUP2 MSTORE POP PUSH1 0x2 ADD DUP4 DUP2 MSTORE PUSH1 0x20 ADD DUP3 DUP2 MSTORE PUSH1 0x20 ADD SWAP3 POP POP POP PUSH1 0x40 MLOAD PUSH1 0x20 DUP2 DUP4 SUB SUB DUP2 MSTORE SWAP1 PUSH1 0x40 MSTORE DUP1 MLOAD SWAP1 PUSH1 0x20 ADD KECCAK256 SWAP1 POP PUSH1 0x0 PUSH1 0x1 DUP3 DUP7 DUP7 DUP7 PUSH1 0x40 MLOAD PUSH1 0x0 DUP2 MSTORE PUSH1 0x20 ADD PUSH1 0x40 MSTORE PUSH1 0x40 MLOAD DUP1 DUP6 DUP2 MSTORE PUSH1 0x20 ADD DUP5 PUSH1 0xFF AND PUSH1 0xFF AND DUP2 MSTORE PUSH1 0x20 ADD DUP4 DUP2 MSTORE PUSH1 0x20 ADD DUP3 DUP2 MSTORE PUSH1 0x20 ADD SWAP5 POP POP POP POP POP PUSH1 0x20 PUSH1 0x40 MLOAD PUSH1 0x20 DUP2 SUB SWAP1 DUP1 DUP5 SUB SWAP1 DUP6 GAS STATICCALL ISZERO DUP1 ISZERO PUSH2 0x31B2 JUMPI RETURNDATASIZE PUSH1 0x0 DUP1 RETURNDATACOPY RETURNDATASIZE PUSH1 0x0 REVERT JUMPDEST POP POP POP PUSH1 0x20 PUSH1 0x40 MLOAD SUB MLOAD SWAP1 POP PUSH1 0x0 PUSH20 0xFFFFFFFFFFFFFFFFFFFFFFFFFFFFFFFFFFFFFFFF AND DUP2 PUSH20 0xFFFFFFFFFFFFFFFFFFFFFFFFFFFFFFFFFFFFFFFF AND EQ ISZERO DUP1 ISZERO PUSH2 0x3226 JUMPI POP DUP9 PUSH20 0xFFFFFFFFFFFFFFFFFFFFFFFFFFFFFFFFFFFFFFFF AND DUP2 PUSH20 0xFFFFFFFFFFFFFFFFFFFFFFFFFFFFFFFFFFFFFFFF AND EQ JUMPDEST PUSH2 0x3298 JUMPI PUSH1 0x40 MLOAD PUSH32 0x8C379A000000000000000000000000000000000000000000000000000000000 DUP2 MSTORE PUSH1 0x4 ADD DUP1 DUP1 PUSH1 0x20 ADD DUP3 DUP2 SUB DUP3 MSTORE PUSH1 0x1C DUP2 MSTORE PUSH1 0x20 ADD DUP1 PUSH32 0x556E697377617056323A20494E56414C49445F5349474E415455524500000000 DUP2 MSTORE POP PUSH1 0x20 ADD SWAP2 POP POP PUSH1 0x40 MLOAD DUP1 SWAP2 SUB SWAP1 REVERT JUMPDEST PUSH2 0x32A3 DUP10 DUP10 DUP10 PUSH2 0x4897 JUMP JUMPDEST POP POP POP POP POP POP POP POP POP JUMP JUMPDEST PUSH3 0x186A0 DUP2 JUMP JUMPDEST PUSH1 0x2 PUSH1 0x20 MSTORE DUP2 PUSH1 0x0 MSTORE PUSH1 0x40 PUSH1 0x0 KECCAK256 PUSH1 0x20 MSTORE DUP1 PUSH1 0x0 MSTORE PUSH1 0x40 PUSH1 0x0 KECCAK256 PUSH1 0x0 SWAP2 POP SWAP2 POP POP SLOAD DUP2 JUMP JUMPDEST PUSH1 0x0 DUP1 PUSH1 0x6 PUSH1 0x0 SWAP1 SLOAD SWAP1 PUSH2 0x100 EXP SWAP1 DIV PUSH20 0xFFFFFFFFFFFFFFFFFFFFFFFFFFFFFFFFFFFFFFFF AND PUSH20 0xFFFFFFFFFFFFFFFFFFFFFFFFFFFFFFFFFFFFFFFF AND DUP4 PUSH20 0xFFFFFFFFFFFFFFFFFFFFFFFFFFFFFFFFFFFFFFFF AND EQ PUSH2 0x3348 JUMPI PUSH1 0x8 PUSH1 0x1E SWAP1 SLOAD SWAP1 PUSH2 0x100 EXP SWAP1 DIV PUSH2 0xFFFF AND PUSH2 0x335A JUMP JUMPDEST PUSH1 0x8 PUSH1 0x1C SWAP1 SLOAD SWAP1 PUSH2 0x100 EXP SWAP1 DIV PUSH2 0xFFFF AND JUMPDEST SWAP1 POP PUSH2 0x33C5 DUP5 DUP5 PUSH1 0x8 PUSH1 0x0 SWAP1 SLOAD SWAP1 PUSH2 0x100 EXP SWAP1 DIV PUSH14 0xFFFFFFFFFFFFFFFFFFFFFFFFFFFF AND PUSH14 0xFFFFFFFFFFFFFFFFFFFFFFFFFFFF AND PUSH1 0x8 PUSH1 0xE SWAP1 SLOAD SWAP1 PUSH2 0x100 EXP SWAP1 DIV PUSH14 0xFFFFFFFFFFFFFFFFFFFFFFFFFFFF AND PUSH14 0xFFFFFFFFFFFFFFFFFFFFFFFFFFFF AND DUP6 PUSH2 0xFFFF AND PUSH2 0x5696 JUMP JUMPDEST SWAP2 POP POP SWAP3 SWAP2 POP POP JUMP JUMPDEST PUSH1 0x1 PUSH1 0xD SLOAD EQ PUSH2 0x3446 JUMPI PUSH1 0x40 MLOAD PUSH32 0x8C379A000000000000000000000000000000000000000000000000000000000 DUP2 MSTORE PUSH1 0x4 ADD DUP1 DUP1 PUSH1 0x20 ADD DUP3 DUP2 SUB DUP3 MSTORE PUSH1 0x15 DUP2 MSTORE PUSH1 0x20 ADD DUP1 PUSH32 0x655A4B616C69627572506169723A204C4F434B45440000000000000000000000 DUP2 MSTORE POP PUSH1 0x20 ADD SWAP2 POP POP PUSH1 0x40 MLOAD DUP1 SWAP2 SUB SWAP1 REVERT JUMPDEST PUSH1 0x0 PUSH1 0xD DUP2 SWAP1 SSTORE POP PUSH1 0x5 PUSH1 0x0 SWAP1 SLOAD SWAP1 PUSH2 0x100 EXP SWAP1 DIV PUSH20 0xFFFFFFFFFFFFFFFFFFFFFFFFFFFFFFFFFFFFFFFF AND PUSH20 0xFFFFFFFFFFFFFFFFFFFFFFFFFFFFFFFFFFFFFFFF AND PUSH4 0x8DA5CB5B PUSH1 0x40 MLOAD DUP2 PUSH4 0xFFFFFFFF AND PUSH1 0xE0 SHL DUP2 MSTORE PUSH1 0x4 ADD PUSH1 0x20 PUSH1 0x40 MLOAD DUP1 DUP4 SUB DUP2 DUP7 DUP1 EXTCODESIZE ISZERO DUP1 ISZERO PUSH2 0x34B6 JUMPI PUSH1 0x0 DUP1 REVERT JUMPDEST POP GAS STATICCALL ISZERO DUP1 ISZERO PUSH2 0x34CA JUMPI RETURNDATASIZE PUSH1 0x0 DUP1 RETURNDATACOPY RETURNDATASIZE PUSH1 0x0 REVERT JUMPDEST POP POP POP POP PUSH1 0x40 MLOAD RETURNDATASIZE PUSH1 0x20 DUP2 LT ISZERO PUSH2 0x34E0 JUMPI PUSH1 0x0 DUP1 REVERT JUMPDEST DUP2 ADD SWAP1 DUP1 DUP1 MLOAD SWAP1 PUSH1 0x20 ADD SWAP1 SWAP3 SWAP2 SWAP1 POP POP POP PUSH20 0xFFFFFFFFFFFFFFFFFFFFFFFFFFFFFFFFFFFFFFFF AND CALLER PUSH20 0xFFFFFFFFFFFFFFFFFFFFFFFFFFFFFFFFFFFFFFFF AND EQ PUSH2 0x3574 JUMPI PUSH1 0x40 MLOAD PUSH32 0x8C379A000000000000000000000000000000000000000000000000000000000 DUP2 MSTORE PUSH1 0x4 ADD DUP1 DUP1 PUSH1 0x20 ADD DUP3 DUP2 SUB DUP3 MSTORE PUSH1 0x23 DUP2 MSTORE PUSH1 0x20 ADD DUP1 PUSH2 0x5DD3 PUSH1 0x23 SWAP2 CODECOPY PUSH1 0x40 ADD SWAP2 POP POP PUSH1 0x40 MLOAD DUP1 SWAP2 SUB SWAP1 REVERT JUMPDEST PUSH1 0x6 PUSH1 0x0 SWAP1 SLOAD SWAP1 PUSH2 0x100 EXP SWAP1 DIV PUSH20 0xFFFFFFFFFFFFFFFFFFFFFFFFFFFFFFFFFFFFFFFF AND PUSH20 0xFFFFFFFFFFFFFFFFFFFFFFFFFFFFFFFFFFFFFFFF AND DUP3 PUSH20 0xFFFFFFFFFFFFFFFFFFFFFFFFFFFFFFFFFFFFFFFF AND EQ ISZERO DUP1 ISZERO PUSH2 0x3620 JUMPI POP PUSH1 0x7 PUSH1 0x0 SWAP1 SLOAD SWAP1 PUSH2 0x100 EXP SWAP1 DIV PUSH20 0xFFFFFFFFFFFFFFFFFFFFFFFFFFFFFFFFFFFFFFFF AND PUSH20 0xFFFFFFFFFFFFFFFFFFFFFFFFFFFFFFFFFFFFFFFF AND DUP3 PUSH20 0xFFFFFFFFFFFFFFFFFFFFFFFFFFFFFFFFFFFFFFFF AND EQ ISZERO JUMPDEST PUSH2 0x3692 JUMPI PUSH1 0x40 MLOAD PUSH32 0x8C379A000000000000000000000000000000000000000000000000000000000 DUP2 MSTORE PUSH1 0x4 ADD DUP1 DUP1 PUSH1 0x20 ADD DUP3 DUP2 SUB DUP3 MSTORE PUSH1 0x1C DUP2 MSTORE PUSH1 0x20 ADD DUP1 PUSH32 0x655A4B616C69627572506169723A20696E76616C696420746F6B656E00000000 DUP2 MSTORE POP PUSH1 0x20 ADD SWAP2 POP POP PUSH1 0x40 MLOAD DUP1 SWAP2 SUB SWAP1 REVERT JUMPDEST PUSH2 0x3754 DUP3 DUP3 DUP5 PUSH20 0xFFFFFFFFFFFFFFFFFFFFFFFFFFFFFFFFFFFFFFFF AND PUSH4 0x70A08231 ADDRESS PUSH1 0x40 MLOAD DUP3 PUSH4 0xFFFFFFFF AND PUSH1 0xE0 SHL DUP2 MSTORE PUSH1 0x4 ADD DUP1 DUP3 PUSH20 0xFFFFFFFFFFFFFFFFFFFFFFFFFFFFFFFFFFFFFFFF AND PUSH20 0xFFFFFFFFFFFFFFFFFFFFFFFFFFFFFFFFFFFFFFFF AND DUP2 MSTORE PUSH1 0x20 ADD SWAP2 POP POP PUSH1 0x20 PUSH1 0x40 MLOAD DUP1 DUP4 SUB DUP2 DUP7 DUP1 EXTCODESIZE ISZERO DUP1 ISZERO PUSH2 0x3714 JUMPI PUSH1 0x0 DUP1 REVERT JUMPDEST POP GAS STATICCALL ISZERO DUP1 ISZERO PUSH2 0x3728 JUMPI RETURNDATASIZE PUSH1 0x0 DUP1 RETURNDATACOPY RETURNDATASIZE PUSH1 0x0 REVERT JUMPDEST POP POP POP POP PUSH1 0x40 MLOAD RETURNDATASIZE PUSH1 0x20 DUP2 LT ISZERO PUSH2 0x373E JUMPI PUSH1 0x0 DUP1 REVERT JUMPDEST DUP2 ADD SWAP1 DUP1 DUP1 MLOAD SWAP1 PUSH1 0x20 ADD SWAP1 SWAP3 SWAP2 SWAP1 POP POP POP PUSH2 0x5449 JUMP JUMPDEST DUP2 PUSH20 0xFFFFFFFFFFFFFFFFFFFFFFFFFFFFFFFFFFFFFFFF AND PUSH32 0x368A9DC863ECB94B5BA32A682E26295B10D9C2666FAD7D785EBDF262C3C52413 DUP3 PUSH1 0x40 MLOAD DUP1 DUP3 PUSH20 0xFFFFFFFFFFFFFFFFFFFFFFFFFFFFFFFFFFFFFFFF AND PUSH20 0xFFFFFFFFFFFFFFFFFFFFFFFFFFFFFFFFFFFFFFFF AND DUP2 MSTORE PUSH1 0x20 ADD SWAP2 POP POP PUSH1 0x40 MLOAD DUP1 SWAP2 SUB SWAP1 LOG2 PUSH1 0x1 PUSH1 0xD DUP2 SWAP1 SSTORE POP POP POP JUMP JUMPDEST PUSH1 0x1 PUSH1 0xD SLOAD EQ PUSH2 0x3852 JUMPI PUSH1 0x40 MLOAD PUSH32 0x8C379A000000000000000000000000000000000000000000000000000000000 DUP2 MSTORE PUSH1 0x4 ADD DUP1 DUP1 PUSH1 0x20 ADD DUP3 DUP2 SUB DUP3 MSTORE PUSH1 0x15 DUP2 MSTORE PUSH1 0x20 ADD DUP1 PUSH32 0x655A4B616C69627572506169723A204C4F434B45440000000000000000000000 DUP2 MSTORE POP PUSH1 0x20 ADD SWAP2 POP POP PUSH1 0x40 MLOAD DUP1 SWAP2 SUB SWAP1 REVERT JUMPDEST PUSH1 0x0 PUSH1 0xD DUP2 SWAP1 SSTORE POP PUSH1 0x0 PUSH1 0x6 PUSH1 0x0 SWAP1 SLOAD SWAP1 PUSH2 0x100 EXP SWAP1 DIV PUSH20 0xFFFFFFFFFFFFFFFFFFFFFFFFFFFFFFFFFFFFFFFF AND PUSH20 0xFFFFFFFFFFFFFFFFFFFFFFFFFFFFFFFFFFFFFFFF AND PUSH4 0x70A08231 ADDRESS PUSH1 0x40 MLOAD DUP3 PUSH4 0xFFFFFFFF AND PUSH1 0xE0 SHL DUP2 MSTORE PUSH1 0x4 ADD DUP1 DUP3 PUSH20 0xFFFFFFFFFFFFFFFFFFFFFFFFFFFFFFFFFFFFFFFF AND PUSH20 0xFFFFFFFFFFFFFFFFFFFFFFFFFFFFFFFFFFFFFFFF AND DUP2 MSTORE PUSH1 0x20 ADD SWAP2 POP POP PUSH1 0x20 PUSH1 0x40 MLOAD DUP1 DUP4 SUB DUP2 DUP7 DUP1 EXTCODESIZE ISZERO DUP1 ISZERO PUSH2 0x38FB JUMPI PUSH1 0x0 DUP1 REVERT JUMPDEST POP GAS STATICCALL ISZERO DUP1 ISZERO PUSH2 0x390F JUMPI RETURNDATASIZE PUSH1 0x0 DUP1 RETURNDATACOPY RETURNDATASIZE PUSH1 0x0 REVERT JUMPDEST POP POP POP POP PUSH1 0x40 MLOAD RETURNDATASIZE PUSH1 0x20 DUP2 LT ISZERO PUSH2 0x3925 JUMPI PUSH1 0x0 DUP1 REVERT JUMPDEST DUP2 ADD SWAP1 DUP1 DUP1 MLOAD SWAP1 PUSH1 0x20 ADD SWAP1 SWAP3 SWAP2 SWAP1 POP POP POP SWAP1 POP PUSH1 0x0 PUSH1 0x7 PUSH1 0x0 SWAP1 SLOAD SWAP1 PUSH2 0x100 EXP SWAP1 DIV PUSH20 0xFFFFFFFFFFFFFFFFFFFFFFFFFFFFFFFFFFFFFFFF AND PUSH20 0xFFFFFFFFFFFFFFFFFFFFFFFFFFFFFFFFFFFFFFFF AND PUSH4 0x70A08231 ADDRESS PUSH1 0x40 MLOAD DUP3 PUSH4 0xFFFFFFFF AND PUSH1 0xE0 SHL DUP2 MSTORE PUSH1 0x4 ADD DUP1 DUP3 PUSH20 0xFFFFFFFFFFFFFFFFFFFFFFFFFFFFFFFFFFFFFFFF AND PUSH20 0xFFFFFFFFFFFFFFFFFFFFFFFFFFFFFFFFFFFFFFFF AND DUP2 MSTORE PUSH1 0x20 ADD SWAP2 POP POP PUSH1 0x20 PUSH1 0x40 MLOAD DUP1 DUP4 SUB DUP2 DUP7 DUP1 EXTCODESIZE ISZERO DUP1 ISZERO PUSH2 0x39D9 JUMPI PUSH1 0x0 DUP1 REVERT JUMPDEST POP GAS STATICCALL ISZERO DUP1 ISZERO PUSH2 0x39ED JUMPI RETURNDATASIZE PUSH1 0x0 DUP1 RETURNDATACOPY RETURNDATASIZE PUSH1 0x0 REVERT JUMPDEST POP POP POP POP PUSH1 0x40 MLOAD RETURNDATASIZE PUSH1 0x20 DUP2 LT ISZERO PUSH2 0x3A03 JUMPI PUSH1 0x0 DUP1 REVERT JUMPDEST DUP2 ADD SWAP1 DUP1 DUP1 MLOAD SWAP1 PUSH1 0x20 ADD SWAP1 SWAP3 SWAP2 SWAP1 POP POP POP SWAP1 POP PUSH1 0x0 DUP3 EQ ISZERO DUP1 ISZERO PUSH2 0x3A28 JUMPI POP PUSH1 0x0 DUP2 EQ ISZERO JUMPDEST PUSH2 0x3A7D JUMPI PUSH1 0x40 MLOAD PUSH32 0x8C379A000000000000000000000000000000000000000000000000000000000 DUP2 MSTORE PUSH1 0x4 ADD DUP1 DUP1 PUSH1 0x20 ADD DUP3 DUP2 SUB DUP3 MSTORE PUSH1 0x2E DUP2 MSTORE PUSH1 0x20 ADD DUP1 PUSH2 0x5D45 PUSH1 0x2E SWAP2 CODECOPY PUSH1 0x40 ADD SWAP2 POP POP PUSH1 0x40 MLOAD DUP1 SWAP2 SUB SWAP1 REVERT JUMPDEST PUSH2 0x3A87 DUP3 DUP3 PUSH2 0x5160 JUMP JUMPDEST POP POP PUSH1 0x1 PUSH1 0xD DUP2 SWAP1 SSTORE POP JUMP JUMPDEST PUSH1 0x1 PUSH1 0xD SLOAD EQ PUSH2 0x3B0B JUMPI PUSH1 0x40 MLOAD PUSH32 0x8C379A000000000000000000000000000000000000000000000000000000000 DUP2 MSTORE PUSH1 0x4 ADD DUP1 DUP1 PUSH1 0x20 ADD DUP3 DUP2 SUB DUP3 MSTORE PUSH1 0x15 DUP2 MSTORE PUSH1 0x20 ADD DUP1 PUSH32 0x655A4B616C69627572506169723A204C4F434B45440000000000000000000000 DUP2 MSTORE POP PUSH1 0x20 ADD SWAP2 POP POP PUSH1 0x40 MLOAD DUP1 SWAP2 SUB SWAP1 REVERT JUMPDEST PUSH1 0x0 PUSH1 0xD DUP2 SWAP1 SSTORE POP PUSH1 0x0 DUP5 PUSH1 0x40 ADD MLOAD GT DUP1 PUSH2 0x3B2A JUMPI POP PUSH1 0x0 DUP5 PUSH1 0x60 ADD MLOAD GT JUMPDEST PUSH2 0x3B7F JUMPI PUSH1 0x40 MLOAD PUSH32 0x8C379A000000000000000000000000000000000000000000000000000000000 DUP2 MSTORE PUSH1 0x4 ADD DUP1 DUP1 PUSH1 0x20 ADD DUP3 DUP2 SUB DUP3 MSTORE PUSH1 0x29 DUP2 MSTORE PUSH1 0x20 ADD DUP1 PUSH2 0x5CC8 PUSH1 0x29 SWAP2 CODECOPY PUSH1 0x40 ADD SWAP2 POP POP PUSH1 0x40 MLOAD DUP1 SWAP2 SUB SWAP1 REVERT JUMPDEST PUSH1 0x0 DUP1 PUSH1 0x0 DUP1 PUSH2 0x3B8D PUSH2 0xF4C JUMP JUMPDEST SWAP4 POP SWAP4 POP SWAP4 POP SWAP4 POP DUP4 PUSH14 0xFFFFFFFFFFFFFFFFFFFFFFFFFFFF AND DUP9 PUSH1 0x40 ADD MLOAD LT DUP1 ISZERO PUSH2 0x3BCB JUMPI POP DUP3 PUSH14 0xFFFFFFFFFFFFFFFFFFFFFFFFFFFF AND DUP9 PUSH1 0x60 ADD MLOAD LT JUMPDEST PUSH2 0x3C20 JUMPI PUSH1 0x40 MLOAD PUSH32 0x8C379A000000000000000000000000000000000000000000000000000000000 DUP2 MSTORE PUSH1 0x4 ADD DUP1 DUP1 PUSH1 0x20 ADD DUP3 DUP2 SUB DUP3 MSTORE PUSH1 0x25 DUP2 MSTORE PUSH1 0x20 ADD DUP1 PUSH2 0x5C77 PUSH1 0x25 SWAP2 CODECOPY PUSH1 0x40 ADD SWAP2 POP POP PUSH1 0x40 MLOAD DUP1 SWAP2 SUB SWAP1 REVERT JUMPDEST DUP8 PUSH1 0x0 ADD MLOAD PUSH20 0xFFFFFFFFFFFFFFFFFFFFFFFFFFFFFFFFFFFFFFFF AND DUP8 PUSH20 0xFFFFFFFFFFFFFFFFFFFFFFFFFFFFFFFFFFFFFFFF AND EQ ISZERO DUP1 ISZERO PUSH2 0x3C90 JUMPI POP DUP8 PUSH1 0x20 ADD MLOAD PUSH20 0xFFFFFFFFFFFFFFFFFFFFFFFFFFFFFFFFFFFFFFFF AND DUP8 PUSH20 0xFFFFFFFFFFFFFFFFFFFFFFFFFFFFFFFFFFFFFFFF AND EQ ISZERO JUMPDEST PUSH2 0x3D02 JUMPI PUSH1 0x40 MLOAD PUSH32 0x8C379A000000000000000000000000000000000000000000000000000000000 DUP2 MSTORE PUSH1 0x4 ADD DUP1 DUP1 PUSH1 0x20 ADD DUP3 DUP2 SUB DUP3 MSTORE PUSH1 0x19 DUP2 MSTORE PUSH1 0x20 ADD DUP1 PUSH32 0x655A4B616C69627572506169723A20494E56414C49445F544F00000000000000 DUP2 MSTORE POP PUSH1 0x20 ADD SWAP2 POP POP PUSH1 0x40 MLOAD DUP1 SWAP2 SUB SWAP1 REVERT JUMPDEST PUSH1 0x0 DUP9 PUSH1 0x40 ADD MLOAD GT ISZERO PUSH2 0x3D23 JUMPI PUSH2 0x3D22 DUP9 PUSH1 0x0 ADD MLOAD DUP9 DUP11 PUSH1 0x40 ADD MLOAD PUSH2 0x5449 JUMP JUMPDEST JUMPDEST PUSH1 0x0 DUP9 PUSH1 0x60 ADD MLOAD GT ISZERO PUSH2 0x3D44 JUMPI PUSH2 0x3D43 DUP9 PUSH1 0x20 ADD MLOAD DUP9 DUP11 PUSH1 0x60 ADD MLOAD PUSH2 0x5449 JUMP JUMPDEST JUMPDEST PUSH1 0x0 DUP7 MLOAD GT ISZERO PUSH2 0x3E6B JUMPI DUP7 PUSH20 0xFFFFFFFFFFFFFFFFFFFFFFFFFFFFFFFFFFFFFFFF AND PUSH4 0x10D1E85C CALLER DUP11 PUSH1 0x40 ADD MLOAD DUP12 PUSH1 0x60 ADD MLOAD DUP11 PUSH1 0x40 MLOAD DUP6 PUSH4 0xFFFFFFFF AND PUSH1 0xE0 SHL DUP2 MSTORE PUSH1 0x4 ADD DUP1 DUP6 PUSH20 0xFFFFFFFFFFFFFFFFFFFFFFFFFFFFFFFFFFFFFFFF AND PUSH20 0xFFFFFFFFFFFFFFFFFFFFFFFFFFFFFFFFFFFFFFFF AND DUP2 MSTORE PUSH1 0x20 ADD DUP5 DUP2 MSTORE PUSH1 0x20 ADD DUP4 DUP2 MSTORE PUSH1 0x20 ADD DUP1 PUSH1 0x20 ADD DUP3 DUP2 SUB DUP3 MSTORE DUP4 DUP2 DUP2 MLOAD DUP2 MSTORE PUSH1 0x20 ADD SWAP2 POP DUP1 MLOAD SWAP1 PUSH1 0x20 ADD SWAP1 DUP1 DUP4 DUP4 PUSH1 0x0 JUMPDEST DUP4 DUP2 LT ISZERO PUSH2 0x3E03 JUMPI DUP1 DUP3 ADD MLOAD DUP2 DUP5 ADD MSTORE PUSH1 0x20 DUP2 ADD SWAP1 POP PUSH2 0x3DE8 JUMP JUMPDEST POP POP POP POP SWAP1 POP SWAP1 DUP2 ADD SWAP1 PUSH1 0x1F AND DUP1 ISZERO PUSH2 0x3E30 JUMPI DUP1 DUP3 SUB DUP1 MLOAD PUSH1 0x1 DUP4 PUSH1 0x20 SUB PUSH2 0x100 EXP SUB NOT AND DUP2 MSTORE PUSH1 0x20 ADD SWAP2 POP JUMPDEST POP SWAP6 POP POP POP POP POP POP PUSH1 0x0 PUSH1 0x40 MLOAD DUP1 DUP4 SUB DUP2 PUSH1 0x0 DUP8 DUP1 EXTCODESIZE ISZERO DUP1 ISZERO PUSH2 0x3E52 JUMPI PUSH1 0x0 DUP1 REVERT JUMPDEST POP GAS CALL ISZERO DUP1 ISZERO PUSH2 0x3E66 JUMPI RETURNDATASIZE PUSH1 0x0 DUP1 RETURNDATACOPY RETURNDATASIZE PUSH1 0x0 REVERT JUMPDEST POP POP POP POP JUMPDEST DUP8 PUSH1 0x0 ADD MLOAD PUSH20 0xFFFFFFFFFFFFFFFFFFFFFFFFFFFFFFFFFFFFFFFF AND PUSH4 0x70A08231 ADDRESS PUSH1 0x40 MLOAD DUP3 PUSH4 0xFFFFFFFF AND PUSH1 0xE0 SHL DUP2 MSTORE PUSH1 0x4 ADD DUP1 DUP3 PUSH20 0xFFFFFFFFFFFFFFFFFFFFFFFFFFFFFFFFFFFFFFFF AND PUSH20 0xFFFFFFFFFFFFFFFFFFFFFFFFFFFFFFFFFFFFFFFF AND DUP2 MSTORE PUSH1 0x20 ADD SWAP2 POP POP PUSH1 0x20 PUSH1 0x40 MLOAD DUP1 DUP4 SUB DUP2 DUP7 DUP1 EXTCODESIZE ISZERO DUP1 ISZERO PUSH2 0x3EEC JUMPI PUSH1 0x0 DUP1 REVERT JUMPDEST POP GAS STATICCALL ISZERO DUP1 ISZERO PUSH2 0x3F00 JUMPI RETURNDATASIZE PUSH1 0x0 DUP1 RETURNDATACOPY RETURNDATASIZE PUSH1 0x0 REVERT JUMPDEST POP POP POP POP PUSH1 0x40 MLOAD RETURNDATASIZE PUSH1 0x20 DUP2 LT ISZERO PUSH2 0x3F16 JUMPI PUSH1 0x0 DUP1 REVERT JUMPDEST DUP2 ADD SWAP1 DUP1 DUP1 MLOAD SWAP1 PUSH1 0x20 ADD SWAP1 SWAP3 SWAP2 SWAP1 POP POP POP DUP9 PUSH1 0x80 ADD DUP2 DUP2 MSTORE POP POP DUP8 PUSH1 0x20 ADD MLOAD PUSH20 0xFFFFFFFFFFFFFFFFFFFFFFFFFFFFFFFFFFFFFFFF AND PUSH4 0x70A08231 ADDRESS PUSH1 0x40 MLOAD DUP3 PUSH4 0xFFFFFFFF AND PUSH1 0xE0 SHL DUP2 MSTORE PUSH1 0x4 ADD DUP1 DUP3 PUSH20 0xFFFFFFFFFFFFFFFFFFFFFFFFFFFFFFFFFFFFFFFF AND PUSH20 0xFFFFFFFFFFFFFFFFFFFFFFFFFFFFFFFFFFFFFFFF AND DUP2 MSTORE PUSH1 0x20 ADD SWAP2 POP POP PUSH1 0x20 PUSH1 0x40 MLOAD DUP1 DUP4 SUB DUP2 DUP7 DUP1 EXTCODESIZE ISZERO DUP1 ISZERO PUSH2 0x3FB1 JUMPI PUSH1 0x0 DUP1 REVERT JUMPDEST POP GAS STATICCALL ISZERO DUP1 ISZERO PUSH2 0x3FC5 JUMPI RETURNDATASIZE PUSH1 0x0 DUP1 RETURNDATACOPY RETURNDATASIZE PUSH1 0x0 REVERT JUMPDEST POP POP POP POP PUSH1 0x40 MLOAD RETURNDATASIZE PUSH1 0x20 DUP2 LT ISZERO PUSH2 0x3FDB JUMPI PUSH1 0x0 DUP1 REVERT JUMPDEST DUP2 ADD SWAP1 DUP1 DUP1 MLOAD SWAP1 PUSH1 0x20 ADD SWAP1 SWAP3 SWAP2 SWAP1 POP POP POP DUP9 PUSH1 0xA0 ADD DUP2 DUP2 MSTORE POP POP PUSH1 0x0 DUP9 PUSH1 0x40 ADD MLOAD DUP6 PUSH14 0xFFFFFFFFFFFFFFFFFFFFFFFFFFFF AND SUB DUP10 PUSH1 0x80 ADD MLOAD GT PUSH2 0x401F JUMPI PUSH1 0x0 PUSH2 0x403D JUMP JUMPDEST DUP9 PUSH1 0x40 ADD MLOAD DUP6 PUSH14 0xFFFFFFFFFFFFFFFFFFFFFFFFFFFF AND SUB DUP10 PUSH1 0x80 ADD MLOAD SUB JUMPDEST SWAP1 POP PUSH1 0x0 DUP10 PUSH1 0x60 ADD MLOAD DUP6 PUSH14 0xFFFFFFFFFFFFFFFFFFFFFFFFFFFF AND SUB DUP11 PUSH1 0xA0 ADD MLOAD GT PUSH2 0x4069 JUMPI PUSH1 0x0 PUSH2 0x4087 JUMP JUMPDEST DUP10 PUSH1 0x60 ADD MLOAD DUP6 PUSH14 0xFFFFFFFFFFFFFFFFFFFFFFFFFFFF AND SUB DUP11 PUSH1 0xA0 ADD MLOAD SUB JUMPDEST SWAP1 POP PUSH1 0x0 DUP3 GT DUP1 PUSH2 0x4098 JUMPI POP PUSH1 0x0 DUP2 GT JUMPDEST PUSH2 0x40ED JUMPI PUSH1 0x40 MLOAD PUSH32 0x8C379A000000000000000000000000000000000000000000000000000000000 DUP2 MSTORE PUSH1 0x4 ADD DUP1 DUP1 PUSH1 0x20 ADD DUP3 DUP2 SUB DUP3 MSTORE PUSH1 0x28 DUP2 MSTORE PUSH1 0x20 ADD DUP1 PUSH2 0x5D1D PUSH1 0x28 SWAP2 CODECOPY PUSH1 0x40 ADD SWAP2 POP POP PUSH1 0x40 MLOAD DUP1 SWAP2 SUB SWAP1 REVERT JUMPDEST PUSH3 0x186A0 PUSH2 0x4108 DUP6 PUSH2 0xFFFF AND DUP5 PUSH2 0x4F36 SWAP1 SWAP2 SWAP1 PUSH4 0xFFFFFFFF AND JUMP JUMPDEST DUP2 PUSH2 0x410F JUMPI INVALID JUMPDEST DIV DUP11 PUSH1 0xC0 ADD DUP2 DUP2 MSTORE POP POP PUSH3 0x186A0 PUSH2 0x4134 DUP5 PUSH2 0xFFFF AND DUP4 PUSH2 0x4F36 SWAP1 SWAP2 SWAP1 PUSH4 0xFFFFFFFF AND JUMP JUMPDEST DUP2 PUSH2 0x413B JUMPI INVALID JUMPDEST DIV DUP11 PUSH1 0xE0 ADD DUP2 DUP2 MSTORE POP POP PUSH1 0x0 DUP1 SWAP1 POP PUSH1 0x0 DUP1 PUSH20 0xFFFFFFFFFFFFFFFFFFFFFFFFFFFFFFFFFFFFFFFF AND DUP10 PUSH20 0xFFFFFFFFFFFFFFFFFFFFFFFFFFFFFFFFFFFFFFFF AND EQ ISZERO PUSH2 0x4187 JUMPI PUSH1 0x0 PUSH2 0x4262 JUMP JUMPDEST PUSH1 0x5 PUSH1 0x0 SWAP1 SLOAD SWAP1 PUSH2 0x100 EXP SWAP1 DIV PUSH20 0xFFFFFFFFFFFFFFFFFFFFFFFFFFFFFFFFFFFFFFFF AND PUSH20 0xFFFFFFFFFFFFFFFFFFFFFFFFFFFFFFFFFFFFFFFF AND PUSH4 0x7183D47C DUP11 PUSH1 0x40 MLOAD DUP3 PUSH4 0xFFFFFFFF AND PUSH1 0xE0 SHL DUP2 MSTORE PUSH1 0x4 ADD DUP1 DUP3 PUSH20 0xFFFFFFFFFFFFFFFFFFFFFFFFFFFFFFFFFFFFFFFF AND PUSH20 0xFFFFFFFFFFFFFFFFFFFFFFFFFFFFFFFFFFFFFFFF AND DUP2 MSTORE PUSH1 0x20 ADD SWAP2 POP POP PUSH1 0x20 PUSH1 0x40 MLOAD DUP1 DUP4 SUB DUP2 DUP7 DUP1 EXTCODESIZE ISZERO DUP1 ISZERO PUSH2 0x4226 JUMPI PUSH1 0x0 DUP1 REVERT JUMPDEST POP GAS STATICCALL ISZERO DUP1 ISZERO PUSH2 0x423A JUMPI RETURNDATASIZE PUSH1 0x0 DUP1 RETURNDATACOPY RETURNDATASIZE PUSH1 0x0 REVERT JUMPDEST POP POP POP POP PUSH1 0x40 MLOAD RETURNDATASIZE PUSH1 0x20 DUP2 LT ISZERO PUSH2 0x4250 JUMPI PUSH1 0x0 DUP1 REVERT JUMPDEST DUP2 ADD SWAP1 DUP1 DUP1 MLOAD SWAP1 PUSH1 0x20 ADD SWAP1 SWAP3 SWAP2 SWAP1 POP POP POP JUMPDEST SWAP1 POP PUSH1 0x0 DUP2 GT ISZERO PUSH2 0x4354 JUMPI PUSH1 0x0 DUP5 GT ISZERO PUSH2 0x42E0 JUMPI PUSH1 0x2 PUSH3 0x186A0 EXP PUSH2 0x42A6 DUP8 PUSH2 0xFFFF AND PUSH2 0x4298 DUP5 DUP9 PUSH2 0x4F36 SWAP1 SWAP2 SWAP1 PUSH4 0xFFFFFFFF AND JUMP JUMPDEST PUSH2 0x4F36 SWAP1 SWAP2 SWAP1 PUSH4 0xFFFFFFFF AND JUMP JUMPDEST DUP2 PUSH2 0x42AD JUMPI INVALID JUMPDEST DIV SWAP2 POP PUSH2 0x42C7 DUP3 DUP14 PUSH1 0xC0 ADD MLOAD PUSH2 0x4982 SWAP1 SWAP2 SWAP1 PUSH4 0xFFFFFFFF AND JUMP JUMPDEST DUP13 PUSH1 0xC0 ADD DUP2 DUP2 MSTORE POP POP PUSH2 0x42DF DUP13 PUSH1 0x0 ADD MLOAD DUP11 DUP5 PUSH2 0x5449 JUMP JUMPDEST JUMPDEST PUSH1 0x0 DUP4 GT ISZERO PUSH2 0x4353 JUMPI PUSH1 0x2 PUSH3 0x186A0 EXP PUSH2 0x4319 DUP7 PUSH2 0xFFFF AND PUSH2 0x430B DUP5 DUP8 PUSH2 0x4F36 SWAP1 SWAP2 SWAP1 PUSH4 0xFFFFFFFF AND JUMP JUMPDEST PUSH2 0x4F36 SWAP1 SWAP2 SWAP1 PUSH4 0xFFFFFFFF AND JUMP JUMPDEST DUP2 PUSH2 0x4320 JUMPI INVALID JUMPDEST DIV SWAP2 POP PUSH2 0x433A DUP3 DUP14 PUSH1 0xE0 ADD MLOAD PUSH2 0x4982 SWAP1 SWAP2 SWAP1 PUSH4 0xFFFFFFFF AND JUMP JUMPDEST DUP13 PUSH1 0xE0 ADD DUP2 DUP2 MSTORE POP POP PUSH2 0x4352 DUP13 PUSH1 0x20 ADD MLOAD DUP11 DUP5 PUSH2 0x5449 JUMP JUMPDEST JUMPDEST JUMPDEST PUSH1 0xC PUSH1 0x0 SWAP1 SLOAD SWAP1 PUSH2 0x100 EXP SWAP1 DIV PUSH1 0xFF AND ISZERO PUSH2 0x4564 JUMPI PUSH1 0x0 DUP1 PUSH1 0x5 PUSH1 0x0 SWAP1 SLOAD SWAP1 PUSH2 0x100 EXP SWAP1 DIV PUSH20 0xFFFFFFFFFFFFFFFFFFFFFFFFFFFFFFFFFFFFFFFF AND PUSH20 0xFFFFFFFFFFFFFFFFFFFFFFFFFFFFFFFFFFFFFFFF AND PUSH4 0x995B5AAE PUSH1 0x40 MLOAD DUP2 PUSH4 0xFFFFFFFF AND PUSH1 0xE0 SHL DUP2 MSTORE PUSH1 0x4 ADD PUSH1 0x40 DUP1 MLOAD DUP1 DUP4 SUB DUP2 DUP7 DUP1 EXTCODESIZE ISZERO DUP1 ISZERO PUSH2 0x43D3 JUMPI PUSH1 0x0 DUP1 REVERT JUMPDEST POP GAS STATICCALL ISZERO DUP1 ISZERO PUSH2 0x43E7 JUMPI RETURNDATASIZE PUSH1 0x0 DUP1 RETURNDATACOPY RETURNDATASIZE PUSH1 0x0 REVERT JUMPDEST POP POP POP POP PUSH1 0x40 MLOAD RETURNDATASIZE PUSH1 0x40 DUP2 LT ISZERO PUSH2 0x43FD JUMPI PUSH1 0x0 DUP1 REVERT JUMPDEST DUP2 ADD SWAP1 DUP1 DUP1 MLOAD SWAP1 PUSH1 0x20 ADD SWAP1 SWAP3 SWAP2 SWAP1 DUP1 MLOAD SWAP1 PUSH1 0x20 ADD SWAP1 SWAP3 SWAP2 SWAP1 POP POP POP SWAP2 POP SWAP2 POP PUSH1 0x0 PUSH20 0xFFFFFFFFFFFFFFFFFFFFFFFFFFFFFFFFFFFFFFFF AND DUP2 PUSH20 0xFFFFFFFFFFFFFFFFFFFFFFFFFFFFFFFFFFFFFFFF AND EQ PUSH2 0x4561 JUMPI PUSH2 0x4478 DUP3 PUSH2 0x446A DUP6 PUSH3 0x186A0 PUSH2 0x4982 SWAP1 SWAP2 SWAP1 PUSH4 0xFFFFFFFF AND JUMP JUMPDEST PUSH2 0x4F36 SWAP1 SWAP2 SWAP1 PUSH4 0xFFFFFFFF AND JUMP JUMPDEST SWAP2 POP PUSH1 0x0 DUP7 GT ISZERO PUSH2 0x44ED JUMPI PUSH1 0x3 PUSH3 0x186A0 EXP PUSH2 0x44B3 DUP10 PUSH2 0xFFFF AND PUSH2 0x44A5 DUP6 DUP11 PUSH2 0x4F36 SWAP1 SWAP2 SWAP1 PUSH4 0xFFFFFFFF AND JUMP JUMPDEST PUSH2 0x4F36 SWAP1 SWAP2 SWAP1 PUSH4 0xFFFFFFFF AND JUMP JUMPDEST DUP2 PUSH2 0x44BA JUMPI INVALID JUMPDEST DIV SWAP4 POP PUSH2 0x44D4 DUP5 DUP16 PUSH1 0xC0 ADD MLOAD PUSH2 0x4982 SWAP1 SWAP2 SWAP1 PUSH4 0xFFFFFFFF AND JUMP JUMPDEST DUP15 PUSH1 0xC0 ADD DUP2 DUP2 MSTORE POP POP PUSH2 0x44EC DUP15 PUSH1 0x0 ADD MLOAD DUP3 DUP7 PUSH2 0x5449 JUMP JUMPDEST JUMPDEST PUSH1 0x0 DUP6 GT ISZERO PUSH2 0x4560 JUMPI PUSH1 0x3 PUSH3 0x186A0 EXP PUSH2 0x4526 DUP9 PUSH2 0xFFFF AND PUSH2 0x4518 DUP6 DUP10 PUSH2 0x4F36 SWAP1 SWAP2 SWAP1 PUSH4 0xFFFFFFFF AND JUMP JUMPDEST PUSH2 0x4F36 SWAP1 SWAP2 SWAP1 PUSH4 0xFFFFFFFF AND JUMP JUMPDEST DUP2 PUSH2 0x452D JUMPI INVALID JUMPDEST DIV SWAP4 POP PUSH2 0x4547 DUP5 DUP16 PUSH1 0xE0 ADD MLOAD PUSH2 0x4982 SWAP1 SWAP2 SWAP1 PUSH4 0xFFFFFFFF AND JUMP JUMPDEST DUP15 PUSH1 0xE0 ADD DUP2 DUP2 MSTORE POP POP PUSH2 0x455F DUP15 PUSH1 0x20 ADD MLOAD DUP3 DUP7 PUSH2 0x5449 JUMP JUMPDEST JUMPDEST JUMPDEST POP POP JUMPDEST PUSH1 0x0 DUP5 GT ISZERO PUSH2 0x4633 JUMPI DUP12 PUSH1 0x0 ADD MLOAD PUSH20 0xFFFFFFFFFFFFFFFFFFFFFFFFFFFFFFFFFFFFFFFF AND PUSH4 0x70A08231 ADDRESS PUSH1 0x40 MLOAD DUP3 PUSH4 0xFFFFFFFF AND PUSH1 0xE0 SHL DUP2 MSTORE PUSH1 0x4 ADD DUP1 DUP3 PUSH20 0xFFFFFFFFFFFFFFFFFFFFFFFFFFFFFFFFFFFFFFFF AND PUSH20 0xFFFFFFFFFFFFFFFFFFFFFFFFFFFFFFFFFFFFFFFF AND DUP2 MSTORE PUSH1 0x20 ADD SWAP2 POP POP PUSH1 0x20 PUSH1 0x40 MLOAD DUP1 DUP4 SUB DUP2 DUP7 DUP1 EXTCODESIZE ISZERO DUP1 ISZERO PUSH2 0x45EE JUMPI PUSH1 0x0 DUP1 REVERT JUMPDEST POP GAS STATICCALL ISZERO DUP1 ISZERO PUSH2 0x4602 JUMPI RETURNDATASIZE PUSH1 0x0 DUP1 RETURNDATACOPY RETURNDATASIZE PUSH1 0x0 REVERT JUMPDEST POP POP POP POP PUSH1 0x40 MLOAD RETURNDATASIZE PUSH1 0x20 DUP2 LT ISZERO PUSH2 0x4618 JUMPI PUSH1 0x0 DUP1 REVERT JUMPDEST DUP2 ADD SWAP1 DUP1 DUP1 MLOAD SWAP1 PUSH1 0x20 ADD SWAP1 SWAP3 SWAP2 SWAP1 POP POP POP DUP13 PUSH1 0x80 ADD DUP2 DUP2 MSTORE POP POP JUMPDEST PUSH1 0x0 DUP4 GT ISZERO PUSH2 0x4702 JUMPI DUP12 PUSH1 0x20 ADD MLOAD PUSH20 0xFFFFFFFFFFFFFFFFFFFFFFFFFFFFFFFFFFFFFFFF AND PUSH4 0x70A08231 ADDRESS PUSH1 0x40 MLOAD DUP3 PUSH4 0xFFFFFFFF AND PUSH1 0xE0 SHL DUP2 MSTORE PUSH1 0x4 ADD DUP1 DUP3 PUSH20 0xFFFFFFFFFFFFFFFFFFFFFFFFFFFFFFFFFFFFFFFF AND PUSH20 0xFFFFFFFFFFFFFFFFFFFFFFFFFFFFFFFFFFFFFFFF AND DUP2 MSTORE PUSH1 0x20 ADD SWAP2 POP POP PUSH1 0x20 PUSH1 0x40 MLOAD DUP1 DUP4 SUB DUP2 DUP7 DUP1 EXTCODESIZE ISZERO DUP1 ISZERO PUSH2 0x46BD JUMPI PUSH1 0x0 DUP1 REVERT JUMPDEST POP GAS STATICCALL ISZERO DUP1 ISZERO PUSH2 0x46D1 JUMPI RETURNDATASIZE PUSH1 0x0 DUP1 RETURNDATACOPY RETURNDATASIZE PUSH1 0x0 REVERT JUMPDEST POP POP POP POP PUSH1 0x40 MLOAD RETURNDATASIZE PUSH1 0x20 DUP2 LT ISZERO PUSH2 0x46E7 JUMPI PUSH1 0x0 DUP1 REVERT JUMPDEST DUP2 ADD SWAP1 DUP1 DUP1 MLOAD SWAP1 PUSH1 0x20 ADD SWAP1 SWAP3 SWAP2 SWAP1 POP POP POP DUP13 PUSH1 0xA0 ADD DUP2 DUP2 MSTORE POP POP JUMPDEST POP POP PUSH1 0x0 PUSH2 0x4721 DUP12 PUSH1 0xC0 ADD MLOAD DUP13 PUSH1 0x80 ADD MLOAD PUSH2 0x4982 SWAP1 SWAP2 SWAP1 PUSH4 0xFFFFFFFF AND JUMP JUMPDEST SWAP1 POP PUSH1 0x0 PUSH2 0x4740 DUP13 PUSH1 0xE0 ADD MLOAD DUP14 PUSH1 0xA0 ADD MLOAD PUSH2 0x4982 SWAP1 SWAP2 SWAP1 PUSH4 0xFFFFFFFF AND JUMP JUMPDEST SWAP1 POP PUSH2 0x476C DUP9 PUSH14 0xFFFFFFFFFFFFFFFFFFFFFFFFFFFF AND DUP9 PUSH14 0xFFFFFFFFFFFFFFFFFFFFFFFFFFFF AND PUSH2 0x4DFB JUMP JUMPDEST PUSH2 0x4776 DUP4 DUP4 PUSH2 0x4DFB JUMP JUMPDEST LT ISZERO PUSH2 0x47EA JUMPI PUSH1 0x40 MLOAD PUSH32 0x8C379A000000000000000000000000000000000000000000000000000000000 DUP2 MSTORE PUSH1 0x4 ADD DUP1 DUP1 PUSH1 0x20 ADD DUP3 DUP2 SUB DUP3 MSTORE PUSH1 0x10 DUP2 MSTORE PUSH1 0x20 ADD DUP1 PUSH32 0x655A4B616C69627572506169723A204B00000000000000000000000000000000 DUP2 MSTORE POP PUSH1 0x20 ADD SWAP2 POP POP PUSH1 0x40 MLOAD DUP1 SWAP2 SUB SWAP1 REVERT JUMPDEST POP POP PUSH2 0x47FE DUP11 PUSH1 0x80 ADD MLOAD DUP12 PUSH1 0xA0 ADD MLOAD PUSH2 0x5160 JUMP JUMPDEST DUP9 PUSH20 0xFFFFFFFFFFFFFFFFFFFFFFFFFFFFFFFFFFFFFFFF AND CALLER PUSH20 0xFFFFFFFFFFFFFFFFFFFFFFFFFFFFFFFFFFFFFFFF AND PUSH32 0xD78AD95FA46C994B6551D0DA85FC275FE613CE37657FB8D5E3D130840159D822 DUP5 DUP5 DUP15 PUSH1 0x40 ADD MLOAD DUP16 PUSH1 0x60 ADD MLOAD PUSH1 0x40 MLOAD DUP1 DUP6 DUP2 MSTORE PUSH1 0x20 ADD DUP5 DUP2 MSTORE PUSH1 0x20 ADD DUP4 DUP2 MSTORE PUSH1 0x20 ADD DUP3 DUP2 MSTORE PUSH1 0x20 ADD SWAP5 POP POP POP POP POP PUSH1 0x40 MLOAD DUP1 SWAP2 SUB SWAP1 LOG3 POP POP POP POP POP POP PUSH1 0x1 PUSH1 0xD DUP2 SWAP1 SSTORE POP POP POP POP POP JUMP JUMPDEST DUP1 PUSH1 0x2 PUSH1 0x0 DUP6 PUSH20 0xFFFFFFFFFFFFFFFFFFFFFFFFFFFFFFFFFFFFFFFF AND PUSH20 0xFFFFFFFFFFFFFFFFFFFFFFFFFFFFFFFFFFFFFFFF AND DUP2 MSTORE PUSH1 0x20 ADD SWAP1 DUP2 MSTORE PUSH1 0x20 ADD PUSH1 0x0 KECCAK256 PUSH1 0x0 DUP5 PUSH20 0xFFFFFFFFFFFFFFFFFFFFFFFFFFFFFFFFFFFFFFFF AND PUSH20 0xFFFFFFFFFFFFFFFFFFFFFFFFFFFFFFFFFFFFFFFF AND DUP2 MSTORE PUSH1 0x20 ADD SWAP1 DUP2 MSTORE PUSH1 0x20 ADD PUSH1 0x0 KECCAK256 DUP2 SWAP1 SSTORE POP DUP2 PUSH20 0xFFFFFFFFFFFFFFFFFFFFFFFFFFFFFFFFFFFFFFFF AND DUP4 PUSH20 0xFFFFFFFFFFFFFFFFFFFFFFFFFFFFFFFFFFFFFFFF AND PUSH32 0x8C5BE1E5EBEC7D5BD14F71427D1E84F3DD0314C0F7B2291E5B200AC8C7C3B925 DUP4 PUSH1 0x40 MLOAD DUP1 DUP3 DUP2 MSTORE PUSH1 0x20 ADD SWAP2 POP POP PUSH1 0x40 MLOAD DUP1 SWAP2 SUB SWAP1 LOG3 POP POP POP JUMP JUMPDEST PUSH1 0x0 DUP3 DUP3 DUP5 SUB SWAP2 POP DUP2 GT ISZERO PUSH2 0x49FF JUMPI PUSH1 0x40 MLOAD PUSH32 0x8C379A000000000000000000000000000000000000000000000000000000000 DUP2 MSTORE PUSH1 0x4 ADD DUP1 DUP1 PUSH1 0x20 ADD DUP3 DUP2 SUB DUP3 MSTORE PUSH1 0x15 DUP2 MSTORE PUSH1 0x20 ADD DUP1 PUSH32 0x64732D6D6174682D7375622D756E646572666C6F770000000000000000000000 DUP2 MSTORE POP PUSH1 0x20 ADD SWAP2 POP POP PUSH1 0x40 MLOAD DUP1 SWAP2 SUB SWAP1 REVERT JUMPDEST SWAP3 SWAP2 POP POP JUMP JUMPDEST PUSH2 0x4A57 DUP2 PUSH1 0x1 PUSH1 0x0 DUP7 PUSH20 0xFFFFFFFFFFFFFFFFFFFFFFFFFFFFFFFFFFFFFFFF AND PUSH20 0xFFFFFFFFFFFFFFFFFFFFFFFFFFFFFFFFFFFFFFFF AND DUP2 MSTORE PUSH1 0x20 ADD SWAP1 DUP2 MSTORE PUSH1 0x20 ADD PUSH1 0x0 KECCAK256 SLOAD PUSH2 0x4982 SWAP1 SWAP2 SWAP1 PUSH4 0xFFFFFFFF AND JUMP JUMPDEST PUSH1 0x1 PUSH1 0x0 DUP6 PUSH20 0xFFFFFFFFFFFFFFFFFFFFFFFFFFFFFFFFFFFFFFFF AND PUSH20 0xFFFFFFFFFFFFFFFFFFFFFFFFFFFFFFFFFFFFFFFF AND DUP2 MSTORE PUSH1 0x20 ADD SWAP1 DUP2 MSTORE PUSH1 0x20 ADD PUSH1 0x0 KECCAK256 DUP2 SWAP1 SSTORE POP PUSH2 0x4AEC DUP2 PUSH1 0x1 PUSH1 0x0 DUP6 PUSH20 0xFFFFFFFFFFFFFFFFFFFFFFFFFFFFFFFFFFFFFFFF AND PUSH20 0xFFFFFFFFFFFFFFFFFFFFFFFFFFFFFFFFFFFFFFFF AND DUP2 MSTORE PUSH1 0x20 ADD SWAP1 DUP2 MSTORE PUSH1 0x20 ADD PUSH1 0x0 KECCAK256 SLOAD PUSH2 0x5980 SWAP1 SWAP2 SWAP1 PUSH4 0xFFFFFFFF AND JUMP JUMPDEST PUSH1 0x1 PUSH1 0x0 DUP5 PUSH20 0xFFFFFFFFFFFFFFFFFFFFFFFFFFFFFFFFFFFFFFFF AND PUSH20 0xFFFFFFFFFFFFFFFFFFFFFFFFFFFFFFFFFFFFFFFF AND DUP2 MSTORE PUSH1 0x20 ADD SWAP1 DUP2 MSTORE PUSH1 0x20 ADD PUSH1 0x0 KECCAK256 DUP2 SWAP1 SSTORE POP DUP2 PUSH20 0xFFFFFFFFFFFFFFFFFFFFFFFFFFFFFFFFFFFFFFFF AND DUP4 PUSH20 0xFFFFFFFFFFFFFFFFFFFFFFFFFFFFFFFFFFFFFFFF AND PUSH32 0xDDF252AD1BE2C89B69C2B068FC378DAA952BA7F163C4A11628F55A4DF523B3EF DUP4 PUSH1 0x40 MLOAD DUP1 DUP3 DUP2 MSTORE PUSH1 0x20 ADD SWAP2 POP POP PUSH1 0x40 MLOAD DUP1 SWAP2 SUB SWAP1 LOG3 POP POP POP JUMP JUMPDEST PUSH1 0x0 PUSH1 0xC PUSH1 0x0 SWAP1 SLOAD SWAP1 PUSH2 0x100 EXP SWAP1 DIV PUSH1 0xFF AND ISZERO PUSH2 0x4BB9 JUMPI PUSH1 0x0 SWAP1 POP PUSH2 0x4DF5 JUMP JUMPDEST PUSH1 0x0 DUP1 PUSH1 0x5 PUSH1 0x0 SWAP1 SLOAD SWAP1 PUSH2 0x100 EXP SWAP1 DIV PUSH20 0xFFFFFFFFFFFFFFFFFFFFFFFFFFFFFFFFFFFFFFFF AND PUSH20 0xFFFFFFFFFFFFFFFFFFFFFFFFFFFFFFFFFFFFFFFF AND PUSH4 0x995B5AAE PUSH1 0x40 MLOAD DUP2 PUSH4 0xFFFFFFFF AND PUSH1 0xE0 SHL DUP2 MSTORE PUSH1 0x4 ADD PUSH1 0x40 DUP1 MLOAD DUP1 DUP4 SUB DUP2 DUP7 DUP1 EXTCODESIZE ISZERO DUP1 ISZERO PUSH2 0x4C23 JUMPI PUSH1 0x0 DUP1 REVERT JUMPDEST POP GAS STATICCALL ISZERO DUP1 ISZERO PUSH2 0x4C37 JUMPI RETURNDATASIZE PUSH1 0x0 DUP1 RETURNDATACOPY RETURNDATASIZE PUSH1 0x0 REVERT JUMPDEST POP POP POP POP PUSH1 0x40 MLOAD RETURNDATASIZE PUSH1 0x40 DUP2 LT ISZERO PUSH2 0x4C4D JUMPI PUSH1 0x0 DUP1 REVERT JUMPDEST DUP2 ADD SWAP1 DUP1 DUP1 MLOAD SWAP1 PUSH1 0x20 ADD SWAP1 SWAP3 SWAP2 SWAP1 DUP1 MLOAD SWAP1 PUSH1 0x20 ADD SWAP1 SWAP3 SWAP2 SWAP1 POP POP POP SWAP2 POP SWAP2 POP PUSH1 0x0 PUSH20 0xFFFFFFFFFFFFFFFFFFFFFFFFFFFFFFFFFFFFFFFF AND DUP2 PUSH20 0xFFFFFFFFFFFFFFFFFFFFFFFFFFFFFFFFFFFFFFFF AND EQ ISZERO SWAP3 POP PUSH1 0x0 PUSH1 0xB SLOAD SWAP1 POP DUP4 ISZERO PUSH2 0x4DDF JUMPI PUSH1 0x0 DUP2 EQ PUSH2 0x4DDA JUMPI PUSH1 0x0 PUSH2 0x4CE8 PUSH2 0x4CE3 DUP9 PUSH14 0xFFFFFFFFFFFFFFFFFFFFFFFFFFFF AND DUP9 PUSH14 0xFFFFFFFFFFFFFFFFFFFFFFFFFFFF AND PUSH2 0x4DFB JUMP JUMPDEST PUSH2 0x4FCB JUMP JUMPDEST SWAP1 POP PUSH1 0x0 PUSH2 0x4CF5 DUP4 PUSH2 0x4FCB JUMP JUMPDEST SWAP1 POP DUP1 DUP3 GT ISZERO PUSH2 0x4DD7 JUMPI PUSH1 0x0 PUSH2 0x4D34 PUSH1 0x64 DUP8 PUSH2 0x4D1E PUSH1 0x64 PUSH3 0x186A0 PUSH2 0x4F36 SWAP1 SWAP2 SWAP1 PUSH4 0xFFFFFFFF AND JUMP JUMPDEST DUP2 PUSH2 0x4D25 JUMPI INVALID JUMPDEST DIV PUSH2 0x4982 SWAP1 SWAP2 SWAP1 PUSH4 0xFFFFFFFF AND JUMP JUMPDEST SWAP1 POP PUSH1 0x0 PUSH2 0x4D72 PUSH1 0x64 PUSH2 0x4D64 PUSH2 0x4D53 DUP7 DUP9 PUSH2 0x4982 SWAP1 SWAP2 SWAP1 PUSH4 0xFFFFFFFF AND JUMP JUMPDEST PUSH1 0x0 SLOAD PUSH2 0x4F36 SWAP1 SWAP2 SWAP1 PUSH4 0xFFFFFFFF AND JUMP JUMPDEST PUSH2 0x4F36 SWAP1 SWAP2 SWAP1 PUSH4 0xFFFFFFFF AND JUMP JUMPDEST SWAP1 POP PUSH1 0x0 PUSH2 0x4DAE PUSH2 0x4D8D PUSH1 0x64 DUP7 PUSH2 0x4F36 SWAP1 SWAP2 SWAP1 PUSH4 0xFFFFFFFF AND JUMP JUMPDEST PUSH2 0x4DA0 DUP6 DUP9 PUSH2 0x4F36 SWAP1 SWAP2 SWAP1 PUSH4 0xFFFFFFFF AND JUMP JUMPDEST PUSH2 0x5980 SWAP1 SWAP2 SWAP1 PUSH4 0xFFFFFFFF AND JUMP JUMPDEST SWAP1 POP PUSH1 0x0 DUP2 DUP4 DUP2 PUSH2 0x4DBB JUMPI INVALID JUMPDEST DIV SWAP1 POP PUSH1 0x0 DUP2 GT ISZERO PUSH2 0x4DD2 JUMPI PUSH2 0x4DD1 DUP9 DUP3 PUSH2 0x502D JUMP JUMPDEST JUMPDEST POP POP POP POP JUMPDEST POP POP JUMPDEST PUSH2 0x4DF1 JUMP JUMPDEST PUSH1 0x0 DUP2 EQ PUSH2 0x4DF0 JUMPI PUSH1 0x0 PUSH1 0xB DUP2 SWAP1 SSTORE POP JUMPDEST JUMPDEST POP POP POP JUMPDEST SWAP3 SWAP2 POP POP JUMP JUMPDEST PUSH1 0x0 PUSH1 0xC PUSH1 0x0 SWAP1 SLOAD SWAP1 PUSH2 0x100 EXP SWAP1 DIV PUSH1 0xFF AND ISZERO PUSH2 0x4F1A JUMPI PUSH1 0x0 PUSH1 0x9 SLOAD PUSH2 0x4E32 PUSH8 0xDE0B6B3A7640000 DUP7 PUSH2 0x4F36 SWAP1 SWAP2 SWAP1 PUSH4 0xFFFFFFFF AND JUMP JUMPDEST DUP2 PUSH2 0x4E39 JUMPI INVALID JUMPDEST DIV SWAP1 POP PUSH1 0x0 PUSH1 0xA SLOAD PUSH2 0x4E5C PUSH8 0xDE0B6B3A7640000 DUP7 PUSH2 0x4F36 SWAP1 SWAP2 SWAP1 PUSH4 0xFFFFFFFF AND JUMP JUMPDEST DUP2 PUSH2 0x4E63 JUMPI INVALID JUMPDEST DIV SWAP1 POP PUSH1 0x0 PUSH8 0xDE0B6B3A7640000 PUSH2 0x4E84 DUP4 DUP6 PUSH2 0x4F36 SWAP1 SWAP2 SWAP1 PUSH4 0xFFFFFFFF AND JUMP JUMPDEST DUP2 PUSH2 0x4E8B JUMPI INVALID JUMPDEST DIV SWAP1 POP PUSH1 0x0 PUSH2 0x4EE9 PUSH8 0xDE0B6B3A7640000 PUSH2 0x4EAF DUP6 DUP7 PUSH2 0x4F36 SWAP1 SWAP2 SWAP1 PUSH4 0xFFFFFFFF AND JUMP JUMPDEST DUP2 PUSH2 0x4EB6 JUMPI INVALID JUMPDEST DIV PUSH8 0xDE0B6B3A7640000 PUSH2 0x4ED3 DUP8 DUP9 PUSH2 0x4F36 SWAP1 SWAP2 SWAP1 PUSH4 0xFFFFFFFF AND JUMP JUMPDEST DUP2 PUSH2 0x4EDA JUMPI INVALID JUMPDEST DIV PUSH2 0x5980 SWAP1 SWAP2 SWAP1 PUSH4 0xFFFFFFFF AND JUMP JUMPDEST SWAP1 POP PUSH8 0xDE0B6B3A7640000 PUSH2 0x4F07 DUP3 DUP5 PUSH2 0x4F36 SWAP1 SWAP2 SWAP1 PUSH4 0xFFFFFFFF AND JUMP JUMPDEST DUP2 PUSH2 0x4F0E JUMPI INVALID JUMPDEST DIV SWAP5 POP POP POP POP POP PUSH2 0x4F30 JUMP JUMPDEST PUSH2 0x4F2D DUP3 DUP5 PUSH2 0x4F36 SWAP1 SWAP2 SWAP1 PUSH4 0xFFFFFFFF AND JUMP JUMPDEST SWAP1 POP JUMPDEST SWAP3 SWAP2 POP POP JUMP JUMPDEST PUSH1 0x0 DUP1 DUP3 EQ DUP1 PUSH2 0x4F53 JUMPI POP DUP3 DUP3 DUP4 DUP6 MUL SWAP3 POP DUP3 DUP2 PUSH2 0x4F50 JUMPI INVALID JUMPDEST DIV EQ JUMPDEST PUSH2 0x4FC5 JUMPI PUSH1 0x40 MLOAD PUSH32 0x8C379A000000000000000000000000000000000000000000000000000000000 DUP2 MSTORE PUSH1 0x4 ADD DUP1 DUP1 PUSH1 0x20 ADD DUP3 DUP2 SUB DUP3 MSTORE PUSH1 0x14 DUP2 MSTORE PUSH1 0x20 ADD DUP1 PUSH32 0x64732D6D6174682D6D756C2D6F766572666C6F77000000000000000000000000 DUP2 MSTORE POP PUSH1 0x20 ADD SWAP2 POP POP PUSH1 0x40 MLOAD DUP1 SWAP2 SUB SWAP1 REVERT JUMPDEST SWAP3 SWAP2 POP POP JUMP JUMPDEST PUSH1 0x0 PUSH1 0x3 DUP3 GT ISZERO PUSH2 0x501A JUMPI DUP2 SWAP1 POP PUSH1 0x0 PUSH1 0x1 PUSH1 0x2 DUP5 DUP2 PUSH2 0x4FE7 JUMPI INVALID JUMPDEST DIV ADD SWAP1 POP JUMPDEST DUP2 DUP2 LT ISZERO PUSH2 0x5014 JUMPI DUP1 SWAP2 POP PUSH1 0x2 DUP2 DUP3 DUP6 DUP2 PUSH2 0x5003 JUMPI INVALID JUMPDEST DIV ADD DUP2 PUSH2 0x500C JUMPI INVALID JUMPDEST DIV SWAP1 POP PUSH2 0x4FEC JUMP JUMPDEST POP PUSH2 0x5028 JUMP JUMPDEST PUSH1 0x0 DUP3 EQ PUSH2 0x5027 JUMPI PUSH1 0x1 SWAP1 POP JUMPDEST JUMPDEST SWAP2 SWAP1 POP JUMP JUMPDEST PUSH2 0x5042 DUP2 PUSH1 0x0 SLOAD PUSH2 0x5980 SWAP1 SWAP2 SWAP1 PUSH4 0xFFFFFFFF AND JUMP JUMPDEST PUSH1 0x0 DUP2 SWAP1 SSTORE POP PUSH2 0x509A DUP2 PUSH1 0x1 PUSH1 0x0 DUP6 PUSH20 0xFFFFFFFFFFFFFFFFFFFFFFFFFFFFFFFFFFFFFFFF AND PUSH20 0xFFFFFFFFFFFFFFFFFFFFFFFFFFFFFFFFFFFFFFFF AND DUP2 MSTORE PUSH1 0x20 ADD SWAP1 DUP2 MSTORE PUSH1 0x20 ADD PUSH1 0x0 KECCAK256 SLOAD PUSH2 0x5980 SWAP1 SWAP2 SWAP1 PUSH4 0xFFFFFFFF AND JUMP JUMPDEST PUSH1 0x1 PUSH1 0x0 DUP5 PUSH20 0xFFFFFFFFFFFFFFFFFFFFFFFFFFFFFFFFFFFFFFFF AND PUSH20 0xFFFFFFFFFFFFFFFFFFFFFFFFFFFFFFFFFFFFFFFF AND DUP2 MSTORE PUSH1 0x20 ADD SWAP1 DUP2 MSTORE PUSH1 0x20 ADD PUSH1 0x0 KECCAK256 DUP2 SWAP1 SSTORE POP DUP2 PUSH20 0xFFFFFFFFFFFFFFFFFFFFFFFFFFFFFFFFFFFFFFFF AND PUSH1 0x0 PUSH20 0xFFFFFFFFFFFFFFFFFFFFFFFFFFFFFFFFFFFFFFFF AND PUSH32 0xDDF252AD1BE2C89B69C2B068FC378DAA952BA7F163C4A11628F55A4DF523B3EF DUP4 PUSH1 0x40 MLOAD DUP1 DUP3 DUP2 MSTORE PUSH1 0x20 ADD SWAP2 POP POP PUSH1 0x40 MLOAD DUP1 SWAP2 SUB SWAP1 LOG3 POP POP JUMP JUMPDEST PUSH1 0x0 DUP2 DUP4 LT PUSH2 0x5156 JUMPI DUP2 PUSH2 0x5158 JUMP JUMPDEST DUP3 JUMPDEST SWAP1 POP SWAP3 SWAP2 POP POP JUMP JUMPDEST PUSH32 0xFFFFFFFFFFFFFFFFFFFFFFFFFFFFFFFFFFFFFFFFFFFFFFFFFFFFFFFFFFFFFFFF PUSH14 0xFFFFFFFFFFFFFFFFFFFFFFFFFFFF AND DUP3 GT ISZERO DUP1 ISZERO PUSH2 0x51D0 JUMPI POP PUSH32 0xFFFFFFFFFFFFFFFFFFFFFFFFFFFFFFFFFFFFFFFFFFFFFFFFFFFFFFFFFFFFFFFF PUSH14 0xFFFFFFFFFFFFFFFFFFFFFFFFFFFF AND DUP2 GT ISZERO JUMPDEST PUSH2 0x5242 JUMPI PUSH1 0x40 MLOAD PUSH32 0x8C379A000000000000000000000000000000000000000000000000000000000 DUP2 MSTORE PUSH1 0x4 ADD DUP1 DUP1 PUSH1 0x20 ADD DUP3 DUP2 SUB DUP3 MSTORE PUSH1 0x17 DUP2 MSTORE PUSH1 0x20 ADD DUP1 PUSH32 0x655A4B616C69627572506169723A204F564552464C4F57000000000000000000 DUP2 MSTORE POP PUSH1 0x20 ADD SWAP2 POP POP PUSH1 0x40 MLOAD DUP1 SWAP2 SUB SWAP1 REVERT JUMPDEST DUP2 PUSH1 0x8 PUSH1 0x0 PUSH2 0x100 EXP DUP2 SLOAD DUP2 PUSH14 0xFFFFFFFFFFFFFFFFFFFFFFFFFFFF MUL NOT AND SWAP1 DUP4 PUSH14 0xFFFFFFFFFFFFFFFFFFFFFFFFFFFF AND MUL OR SWAP1 SSTORE POP DUP1 PUSH1 0x8 PUSH1 0xE PUSH2 0x100 EXP DUP2 SLOAD DUP2 PUSH14 0xFFFFFFFFFFFFFFFFFFFFFFFFFFFF MUL NOT AND SWAP1 DUP4 PUSH14 0xFFFFFFFFFFFFFFFFFFFFFFFFFFFF AND MUL OR SWAP1 SSTORE POP PUSH32 0x1C411E9A96E071241C2F21F7726B17AE89E3CAB4C78BE50E062B03A9FFFBBAD1 DUP3 DUP3 PUSH1 0x40 MLOAD DUP1 DUP4 PUSH14 0xFFFFFFFFFFFFFFFFFFFFFFFFFFFF AND PUSH14 0xFFFFFFFFFFFFFFFFFFFFFFFFFFFF AND DUP2 MSTORE PUSH1 0x20 ADD DUP3 PUSH14 0xFFFFFFFFFFFFFFFFFFFFFFFFFFFF AND PUSH14 0xFFFFFFFFFFFFFFFFFFFFFFFFFFFF AND DUP2 MSTORE PUSH1 0x20 ADD SWAP3 POP POP POP PUSH1 0x40 MLOAD DUP1 SWAP2 SUB SWAP1 LOG1 POP POP JUMP JUMPDEST PUSH2 0x5381 DUP2 PUSH1 0x1 PUSH1 0x0 DUP6 PUSH20 0xFFFFFFFFFFFFFFFFFFFFFFFFFFFFFFFFFFFFFFFF AND PUSH20 0xFFFFFFFFFFFFFFFFFFFFFFFFFFFFFFFFFFFFFFFF AND DUP2 MSTORE PUSH1 0x20 ADD SWAP1 DUP2 MSTORE PUSH1 0x20 ADD PUSH1 0x0 KECCAK256 SLOAD PUSH2 0x4982 SWAP1 SWAP2 SWAP1 PUSH4 0xFFFFFFFF AND JUMP JUMPDEST PUSH1 0x1 PUSH1 0x0 DUP5 PUSH20 0xFFFFFFFFFFFFFFFFFFFFFFFFFFFFFFFFFFFFFFFF AND PUSH20 0xFFFFFFFFFFFFFFFFFFFFFFFFFFFFFFFFFFFFFFFF AND DUP2 MSTORE PUSH1 0x20 ADD SWAP1 DUP2 MSTORE PUSH1 0x20 ADD PUSH1 0x0 KECCAK256 DUP2 SWAP1 SSTORE POP PUSH2 0x53D9 DUP2 PUSH1 0x0 SLOAD PUSH2 0x4982 SWAP1 SWAP2 SWAP1 PUSH4 0xFFFFFFFF AND JUMP JUMPDEST PUSH1 0x0 DUP2 SWAP1 SSTORE POP PUSH1 0x0 PUSH20 0xFFFFFFFFFFFFFFFFFFFFFFFFFFFFFFFFFFFFFFFF AND DUP3 PUSH20 0xFFFFFFFFFFFFFFFFFFFFFFFFFFFFFFFFFFFFFFFF AND PUSH32 0xDDF252AD1BE2C89B69C2B068FC378DAA952BA7F163C4A11628F55A4DF523B3EF DUP4 PUSH1 0x40 MLOAD DUP1 DUP3 DUP2 MSTORE PUSH1 0x20 ADD SWAP2 POP POP PUSH1 0x40 MLOAD DUP1 SWAP2 SUB SWAP1 LOG3 POP POP JUMP JUMPDEST PUSH1 0x0 PUSH1 0x60 DUP5 PUSH20 0xFFFFFFFFFFFFFFFFFFFFFFFFFFFFFFFFFFFFFFFF AND PUSH1 0x40 MLOAD DUP1 PUSH1 0x40 ADD PUSH1 0x40 MSTORE DUP1 PUSH1 0x19 DUP2 MSTORE PUSH1 0x20 ADD PUSH32 0x7472616E7366657228616464726573732C75696E743235362900000000000000 DUP2 MSTORE POP DUP1 MLOAD SWAP1 PUSH1 0x20 ADD KECCAK256 DUP6 DUP6 PUSH1 0x40 MLOAD PUSH1 0x24 ADD DUP1 DUP4 PUSH20 0xFFFFFFFFFFFFFFFFFFFFFFFFFFFFFFFFFFFFFFFF AND PUSH20 0xFFFFFFFFFFFFFFFFFFFFFFFFFFFFFFFFFFFFFFFF AND DUP2 MSTORE PUSH1 0x20 ADD DUP3 DUP2 MSTORE PUSH1 0x20 ADD SWAP3 POP POP POP PUSH1 0x40 MLOAD PUSH1 0x20 DUP2 DUP4 SUB SUB DUP2 MSTORE SWAP1 PUSH1 0x40 MSTORE SWAP1 PUSH28 0xFFFFFFFFFFFFFFFFFFFFFFFFFFFFFFFFFFFFFFFFFFFFFFFFFFFFFFFF NOT AND PUSH1 0x20 DUP3 ADD DUP1 MLOAD PUSH28 0xFFFFFFFFFFFFFFFFFFFFFFFFFFFFFFFFFFFFFFFFFFFFFFFFFFFFFFFF DUP4 DUP2 DUP4 AND OR DUP4 MSTORE POP POP POP POP PUSH1 0x40 MLOAD DUP1 DUP3 DUP1 MLOAD SWAP1 PUSH1 0x20 ADD SWAP1 DUP1 DUP4 DUP4 JUMPDEST PUSH1 0x20 DUP4 LT PUSH2 0x5576 JUMPI DUP1 MLOAD DUP3 MSTORE PUSH1 0x20 DUP3 ADD SWAP2 POP PUSH1 0x20 DUP2 ADD SWAP1 POP PUSH1 0x20 DUP4 SUB SWAP3 POP PUSH2 0x5553 JUMP JUMPDEST PUSH1 0x1 DUP4 PUSH1 0x20 SUB PUSH2 0x100 EXP SUB DUP1 NOT DUP3 MLOAD AND DUP2 DUP5 MLOAD AND DUP1 DUP3 OR DUP6 MSTORE POP POP POP POP POP POP SWAP1 POP ADD SWAP2 POP POP PUSH1 0x0 PUSH1 0x40 MLOAD DUP1 DUP4 SUB DUP2 PUSH1 0x0 DUP7 GAS CALL SWAP2 POP POP RETURNDATASIZE DUP1 PUSH1 0x0 DUP2 EQ PUSH2 0x55D8 JUMPI PUSH1 0x40 MLOAD SWAP2 POP PUSH1 0x1F NOT PUSH1 0x3F RETURNDATASIZE ADD AND DUP3 ADD PUSH1 0x40 MSTORE RETURNDATASIZE DUP3 MSTORE RETURNDATASIZE PUSH1 0x0 PUSH1 0x20 DUP5 ADD RETURNDATACOPY PUSH2 0x55DD JUMP JUMPDEST PUSH1 0x60 SWAP2 POP JUMPDEST POP SWAP2 POP SWAP2 POP DUP2 DUP1 ISZERO PUSH2 0x561D JUMPI POP PUSH1 0x0 DUP2 MLOAD EQ DUP1 PUSH2 0x561C JUMPI POP DUP1 DUP1 PUSH1 0x20 ADD SWAP1 MLOAD PUSH1 0x20 DUP2 LT ISZERO PUSH2 0x560A JUMPI PUSH1 0x0 DUP1 REVERT JUMPDEST DUP2 ADD SWAP1 DUP1 DUP1 MLOAD SWAP1 PUSH1 0x20 ADD SWAP1 SWAP3 SWAP2 SWAP1 POP POP POP JUMPDEST JUMPDEST PUSH2 0x568F JUMPI PUSH1 0x40 MLOAD PUSH32 0x8C379A000000000000000000000000000000000000000000000000000000000 DUP2 MSTORE PUSH1 0x4 ADD DUP1 DUP1 PUSH1 0x20 ADD DUP3 DUP2 SUB DUP3 MSTORE PUSH1 0x1E DUP2 MSTORE PUSH1 0x20 ADD DUP1 PUSH32 0x655A4B616C69627572506169723A205452414E534645525F4641494C45440000 DUP2 MSTORE POP PUSH1 0x20 ADD SWAP2 POP POP PUSH1 0x40 MLOAD DUP1 SWAP2 SUB SWAP1 REVERT JUMPDEST POP POP POP POP POP JUMP JUMPDEST PUSH1 0x0 PUSH1 0xC PUSH1 0x0 SWAP1 SLOAD SWAP1 PUSH2 0x100 EXP SWAP1 DIV PUSH1 0xFF AND ISZERO PUSH2 0x589F JUMPI PUSH2 0x56DE PUSH3 0x186A0 PUSH2 0x56C7 DUP5 DUP10 PUSH2 0x4F36 SWAP1 SWAP2 SWAP1 PUSH4 0xFFFFFFFF AND JUMP JUMPDEST DUP2 PUSH2 0x56CE JUMPI INVALID JUMPDEST DIV DUP8 PUSH2 0x4982 SWAP1 SWAP2 SWAP1 PUSH4 0xFFFFFFFF AND JUMP JUMPDEST SWAP6 POP PUSH1 0x0 PUSH2 0x56EC DUP6 DUP6 PUSH2 0x4DFB JUMP JUMPDEST SWAP1 POP PUSH1 0x9 SLOAD PUSH8 0xDE0B6B3A7640000 DUP7 MUL DUP2 PUSH2 0x5703 JUMPI INVALID JUMPDEST DIV SWAP5 POP PUSH1 0xA SLOAD PUSH8 0xDE0B6B3A7640000 DUP6 MUL DUP2 PUSH2 0x571B JUMPI INVALID JUMPDEST DIV SWAP4 POP PUSH1 0x0 DUP1 PUSH1 0x6 PUSH1 0x0 SWAP1 SLOAD SWAP1 PUSH2 0x100 EXP SWAP1 DIV PUSH20 0xFFFFFFFFFFFFFFFFFFFFFFFFFFFFFFFFFFFFFFFF AND PUSH20 0xFFFFFFFFFFFFFFFFFFFFFFFFFFFFFFFFFFFFFFFF AND DUP9 PUSH20 0xFFFFFFFFFFFFFFFFFFFFFFFFFFFFFFFFFFFFFFFF AND EQ PUSH2 0x577D JUMPI DUP6 DUP8 PUSH2 0x5780 JUMP JUMPDEST DUP7 DUP7 JUMPDEST SWAP2 POP SWAP2 POP PUSH1 0x6 PUSH1 0x0 SWAP1 SLOAD SWAP1 PUSH2 0x100 EXP SWAP1 DIV PUSH20 0xFFFFFFFFFFFFFFFFFFFFFFFFFFFFFFFFFFFFFFFF AND PUSH20 0xFFFFFFFFFFFFFFFFFFFFFFFFFFFFFFFFFFFFFFFF AND DUP9 PUSH20 0xFFFFFFFFFFFFFFFFFFFFFFFFFFFFFFFFFFFFFFFF AND EQ PUSH2 0x57F4 JUMPI PUSH1 0xA SLOAD PUSH8 0xDE0B6B3A7640000 DUP11 MUL DUP2 PUSH2 0x57EE JUMPI INVALID JUMPDEST DIV PUSH2 0x580B JUMP JUMPDEST PUSH1 0x9 SLOAD PUSH8 0xDE0B6B3A7640000 DUP11 MUL DUP2 PUSH2 0x5809 JUMPI INVALID JUMPDEST DIV JUMPDEST SWAP9 POP PUSH1 0x0 PUSH2 0x581C DUP4 DUP12 ADD DUP6 DUP5 PUSH2 0x5A03 JUMP JUMPDEST DUP3 SUB SWAP1 POP PUSH8 0xDE0B6B3A7640000 PUSH1 0x6 PUSH1 0x0 SWAP1 SLOAD SWAP1 PUSH2 0x100 EXP SWAP1 DIV PUSH20 0xFFFFFFFFFFFFFFFFFFFFFFFFFFFFFFFFFFFFFFFF AND PUSH20 0xFFFFFFFFFFFFFFFFFFFFFFFFFFFFFFFFFFFFFFFF AND DUP11 PUSH20 0xFFFFFFFFFFFFFFFFFFFFFFFFFFFFFFFFFFFFFFFF AND EQ PUSH2 0x5886 JUMPI PUSH1 0x9 SLOAD PUSH2 0x588A JUMP JUMPDEST PUSH1 0xA SLOAD JUMPDEST DUP3 MUL DUP2 PUSH2 0x5893 JUMPI INVALID JUMPDEST DIV SWAP5 POP POP POP POP POP PUSH2 0x5977 JUMP JUMPDEST PUSH1 0x0 DUP1 PUSH1 0x6 PUSH1 0x0 SWAP1 SLOAD SWAP1 PUSH2 0x100 EXP SWAP1 DIV PUSH20 0xFFFFFFFFFFFFFFFFFFFFFFFFFFFFFFFFFFFFFFFF AND PUSH20 0xFFFFFFFFFFFFFFFFFFFFFFFFFFFFFFFFFFFFFFFF AND DUP8 PUSH20 0xFFFFFFFFFFFFFFFFFFFFFFFFFFFFFFFFFFFFFFFF AND EQ PUSH2 0x58FE JUMPI DUP5 DUP7 PUSH2 0x5901 JUMP JUMPDEST DUP6 DUP6 JUMPDEST SWAP2 POP SWAP2 POP PUSH2 0x592D PUSH2 0x591E DUP6 PUSH3 0x186A0 PUSH2 0x4982 SWAP1 SWAP2 SWAP1 PUSH4 0xFFFFFFFF AND JUMP JUMPDEST DUP10 PUSH2 0x4F36 SWAP1 SWAP2 SWAP1 PUSH4 0xFFFFFFFF AND JUMP JUMPDEST SWAP8 POP PUSH2 0x5957 DUP9 PUSH2 0x5949 PUSH3 0x186A0 DUP6 PUSH2 0x4F36 SWAP1 SWAP2 SWAP1 PUSH4 0xFFFFFFFF AND JUMP JUMPDEST PUSH2 0x5980 SWAP1 SWAP2 SWAP1 PUSH4 0xFFFFFFFF AND JUMP JUMPDEST PUSH2 0x596A DUP3 DUP11 PUSH2 0x4F36 SWAP1 SWAP2 SWAP1 PUSH4 0xFFFFFFFF AND JUMP JUMPDEST DUP2 PUSH2 0x5971 JUMPI INVALID JUMPDEST DIV SWAP3 POP POP POP JUMPDEST SWAP6 SWAP5 POP POP POP POP POP JUMP JUMPDEST PUSH1 0x0 DUP3 DUP3 DUP5 ADD SWAP2 POP DUP2 LT ISZERO PUSH2 0x59FD JUMPI PUSH1 0x40 MLOAD PUSH32 0x8C379A000000000000000000000000000000000000000000000000000000000 DUP2 MSTORE PUSH1 0x4 ADD DUP1 DUP1 PUSH1 0x20 ADD DUP3 DUP2 SUB DUP3 MSTORE PUSH1 0x14 DUP2 MSTORE PUSH1 0x20 ADD DUP1 PUSH32 0x64732D6D6174682D6164642D6F766572666C6F77000000000000000000000000 DUP2 MSTORE POP PUSH1 0x20 ADD SWAP2 POP POP PUSH1 0x40 MLOAD DUP1 SWAP2 SUB SWAP1 REVERT JUMPDEST SWAP3 SWAP2 POP POP JUMP JUMPDEST PUSH1 0x0 DUP1 PUSH1 0x0 SWAP1 POP JUMPDEST PUSH1 0xFF DUP2 LT ISZERO PUSH2 0x5ACE JUMPI PUSH1 0x0 DUP4 SWAP1 POP PUSH1 0x0 PUSH2 0x5A25 DUP8 DUP7 PUSH2 0x5ADA JUMP JUMPDEST SWAP1 POP DUP6 DUP2 LT ISZERO PUSH2 0x5A5D JUMPI PUSH1 0x0 PUSH2 0x5A3B DUP9 DUP8 PUSH2 0x5B51 JUMP JUMPDEST PUSH8 0xDE0B6B3A7640000 DUP4 DUP10 SUB MUL DUP2 PUSH2 0x5A4F JUMPI INVALID JUMPDEST DIV SWAP1 POP DUP1 DUP7 ADD SWAP6 POP POP PUSH2 0x5A87 JUMP JUMPDEST PUSH1 0x0 PUSH2 0x5A69 DUP9 DUP8 PUSH2 0x5B51 JUMP JUMPDEST PUSH8 0xDE0B6B3A7640000 DUP9 DUP5 SUB MUL DUP2 PUSH2 0x5A7D JUMPI INVALID JUMPDEST DIV SWAP1 POP DUP1 DUP7 SUB SWAP6 POP POP JUMPDEST DUP2 DUP6 GT ISZERO PUSH2 0x5AA9 JUMPI PUSH1 0x1 DUP3 DUP7 SUB GT PUSH2 0x5AA4 JUMPI DUP5 SWAP4 POP POP POP POP PUSH2 0x5AD3 JUMP JUMPDEST PUSH2 0x5ABF JUMP JUMPDEST PUSH1 0x1 DUP6 DUP4 SUB GT PUSH2 0x5ABE JUMPI DUP5 SWAP4 POP POP POP POP PUSH2 0x5AD3 JUMP JUMPDEST JUMPDEST POP POP DUP1 DUP1 PUSH1 0x1 ADD SWAP2 POP POP PUSH2 0x5A0B JUMP JUMPDEST POP DUP2 SWAP1 POP JUMPDEST SWAP4 SWAP3 POP POP POP JUMP JUMPDEST PUSH1 0x0 PUSH8 0xDE0B6B3A7640000 DUP3 PUSH8 0xDE0B6B3A7640000 DUP6 PUSH8 0xDE0B6B3A7640000 DUP8 DUP9 MUL DUP2 PUSH2 0x5B03 JUMPI INVALID JUMPDEST DIV MUL DUP2 PUSH2 0x5B0C JUMPI INVALID JUMPDEST DIV MUL DUP2 PUSH2 0x5B15 JUMPI INVALID JUMPDEST DIV PUSH8 0xDE0B6B3A7640000 DUP1 DUP5 PUSH8 0xDE0B6B3A7640000 DUP7 DUP8 MUL DUP2 PUSH2 0x5B34 JUMPI INVALID JUMPDEST DIV MUL DUP2 PUSH2 0x5B3D JUMPI INVALID JUMPDEST DIV DUP6 MUL DUP2 PUSH2 0x5B47 JUMPI INVALID JUMPDEST DIV ADD SWAP1 POP SWAP3 SWAP2 POP POP JUMP JUMPDEST PUSH1 0x0 PUSH8 0xDE0B6B3A7640000 DUP4 PUSH8 0xDE0B6B3A7640000 DUP6 DUP7 MUL DUP2 PUSH2 0x5B70 JUMPI INVALID JUMPDEST DIV MUL DUP2 PUSH2 0x5B79 JUMPI INVALID JUMPDEST DIV PUSH8 0xDE0B6B3A7640000 DUP1 DUP5 DUP6 MUL DUP2 PUSH2 0x5B8E JUMPI INVALID JUMPDEST DIV DUP6 PUSH1 0x3 MUL MUL DUP2 PUSH2 0x5B9B JUMPI INVALID JUMPDEST DIV ADD SWAP1 POP SWAP3 SWAP2 POP POP JUMP JUMPDEST PUSH1 0x40 MLOAD DUP1 PUSH2 0x100 ADD PUSH1 0x40 MSTORE DUP1 PUSH1 0x0 PUSH20 0xFFFFFFFFFFFFFFFFFFFFFFFFFFFFFFFFFFFFFFFF AND DUP2 MSTORE PUSH1 0x20 ADD PUSH1 0x0 PUSH20 0xFFFFFFFFFFFFFFFFFFFFFFFFFFFFFFFFFFFFFFFF AND DUP2 MSTORE PUSH1 0x20 ADD PUSH1 0x0 DUP2 MSTORE PUSH1 0x20 ADD PUSH1 0x0 DUP2 MSTORE PUSH1 0x20 ADD PUSH1 0x0 DUP2 MSTORE PUSH1 0x20 ADD PUSH1 0x0 DUP2 MSTORE PUSH1 0x20 ADD PUSH1 0x0 DUP2 MSTORE PUSH1 0x20 ADD PUSH1 0x0 DUP2 MSTORE POP SWAP1 JUMP INVALID PUSH6 0x5A4B616C6962 PUSH22 0x72506169723A2066656550657263656E74206D757374 PUSH15 0x27742065786365656420746865206D PUSH2 0x7869 PUSH14 0x756D655A4B616C69627572506169 PUSH19 0x3A20494E53554646494349454E545F4C495155 0x49 DIFFICULTY 0x49 SLOAD MSIZE 0x5F TIMESTAMP SSTORE MSTORE 0x4E GASLIMIT DIFFICULTY PUSH6 0x5A4B616C6962 PUSH22 0x72506169723A20494E53554646494349454E545F4C49 MLOAD SSTORE 0x49 DIFFICULTY 0x49 SLOAD MSIZE PUSH6 0x5A4B616C6962 PUSH22 0x72506169723A20494E53554646494349454E545F4C49 MLOAD SSTORE 0x49 DIFFICULTY 0x49 SLOAD MSIZE 0x5F 0x4D 0x49 0x4E SLOAD GASLIMIT DIFFICULTY PUSH6 0x5A4B616C6962 PUSH22 0x72506169723A20494E53554646494349454E545F4F55 SLOAD POP SSTORE SLOAD 0x5F COINBASE 0x4D 0x4F SSTORE 0x4E SLOAD PUSH6 0x5A4B616C6962 PUSH22 0x72506169723A206F6E6C7920666163746F7279277320 PUSH20 0x6574537461626C654F776E6572655A4B616C6962 PUSH22 0x72506169723A20494E53554646494349454E545F494E POP SSTORE SLOAD 0x5F COINBASE 0x4D 0x4F SSTORE 0x4E SLOAD PUSH6 0x5A4B616C6962 PUSH22 0x72506169723A206C697175696469747920726174696F KECCAK256 PUSH15 0x6F7420696E697469616C697A656465 GAS 0x4B PUSH2 0x6C69 PUSH3 0x757250 PUSH2 0x6972 GASPRICE KECCAK256 PUSH7 0x65655065726365 PUSH15 0x74206D7573746E2774206578636565 PUSH5 0x2074686520 PUSH14 0x696E696D756D655A4B616C696275 PUSH19 0x506169723A206F6E6C7920666163746F727927 PUSH20 0x20666565416D6F756E744F776E6572655A4B616C PUSH10 0x627572506169723A206F PUSH15 0x6C7920666163746F72792773206F77 PUSH15 0x6572A265627A7A72315820D4194C2D 0xE0 PUSH32 0x2C2ED647FCF04A0959F45CE34D7255041063AFC557173C6D096564736F6C6343 STOP SDIV LT STOP ORIGIN GASLIMIT 0x49 POP CALLDATACOPY BALANCE ORIGIN DIFFICULTY PUSH16 0x6D61696E28737472696E67206E616D65 0x2C PUSH20 0x7472696E672076657273696F6E2C75696E743235 CALLDATASIZE KECCAK256 PUSH4 0x6861696E 0x49 PUSH5 0x2C61646472 PUSH6 0x737320766572 PUSH10 0x6679696E67436F6E7472 PUSH2 0x6374 0x29 "
				},
				"gasEstimates": {
					"creation": {
						"codeDepositCost": "4821200",
						"executionCost": "infinite",
						"totalCost": "infinite"
					},
					"external": {
						"DOMAIN_SEPARATOR()": "1117",
						"FEE_DENOMINATOR()": "249",
						"MAX_FEE_PERCENT()": "338",
						"MINIMUM_LIQUIDITY()": "250",
						"PERMIT_TYPEHASH()": "279",
						"allowance(address,address)": "1333",
						"approve(address,uint256)": "22521",
						"balanceOf(address)": "1259",
						"burn(address)": "infinite",
						"decimals()": "307",
						"drainWrongToken(address,address)": "infinite",
						"factory()": "1142",
						"getAmountOut(uint256,address)": "infinite",
						"getReserves()": "3948",
						"initialize(address,address)": "infinite",
						"initialized()": "1149",
						"kLast()": "1117",
						"mint(address)": "infinite",
						"name()": "infinite",
						"nonces(address)": "1303",
						"pairTypeImmutable()": "1236",
						"permit(address,address,uint256,uint256,uint8,bytes32,bytes32)": "infinite",
						"precisionMultiplier0()": "1139",
						"precisionMultiplier1()": "1117",
						"setFeePercent(uint16,uint16)": "infinite",
						"setPairTypeImmutable()": "infinite",
						"setStableSwap(bool,uint112,uint112)": "infinite",
						"skim(address)": "infinite",
						"stableSwap()": "1142",
						"swap(uint256,uint256,address,bytes)": "infinite",
						"swap(uint256,uint256,address,bytes,address)": "infinite",
						"symbol()": "infinite",
						"sync()": "infinite",
						"token0()": "1188",
						"token0FeePercent()": "1214",
						"token1()": "1164",
						"token1FeePercent()": "1237",
						"totalSupply()": "1073",
						"transfer(address,uint256)": "infinite",
						"transferFrom(address,address,uint256)": "infinite"
					},
					"internal": {
						"_d(uint256,uint256)": "176",
						"_f(uint256,uint256)": "234",
						"_getAmountOut(uint256,address,uint256,uint256,uint256)": "infinite",
						"_get_y(uint256,uint256,uint256)": "infinite",
						"_k(uint256,uint256)": "infinite",
						"_mintFee(uint112,uint112)": "infinite",
						"_safeTransfer(address,address,uint256)": "infinite",
						"_swap(struct EZKaliburPair.TokensData memory,address,bytes memory,address)": "infinite",
						"_update(uint256,uint256)": "infinite"
					}
				},
				"methodIdentifiers": {
					"DOMAIN_SEPARATOR()": "3644e515",
					"FEE_DENOMINATOR()": "d73792a9",
					"MAX_FEE_PERCENT()": "67d81740",
					"MINIMUM_LIQUIDITY()": "ba9a7a56",
					"PERMIT_TYPEHASH()": "30adf81f",
					"allowance(address,address)": "dd62ed3e",
					"approve(address,uint256)": "095ea7b3",
					"balanceOf(address)": "70a08231",
					"burn(address)": "89afcb44",
					"decimals()": "313ce567",
					"drainWrongToken(address,address)": "f39ac11f",
					"factory()": "c45a0155",
					"getAmountOut(uint256,address)": "f140a35a",
					"getReserves()": "0902f1ac",
					"initialize(address,address)": "485cc955",
					"initialized()": "158ef93e",
					"kLast()": "7464fc3d",
					"mint(address)": "6a627842",
					"name()": "06fdde03",
					"nonces(address)": "7ecebe00",
					"pairTypeImmutable()": "b6200b07",
					"permit(address,address,uint256,uint256,uint8,bytes32,bytes32)": "d505accf",
					"precisionMultiplier0()": "3b9f1dc0",
					"precisionMultiplier1()": "288e5d02",
					"setFeePercent(uint16,uint16)": "48e5d260",
					"setPairTypeImmutable()": "3ba17077",
					"setStableSwap(bool,uint112,uint112)": "3029e5d4",
					"skim(address)": "bc25cf77",
					"stableSwap()": "9e548b7f",
					"swap(uint256,uint256,address,bytes)": "022c0d9f",
					"swap(uint256,uint256,address,bytes,address)": "6e1fdd7f",
					"symbol()": "95d89b41",
					"sync()": "fff6cae9",
					"token0()": "0dfe1681",
					"token0FeePercent()": "62ecec03",
					"token1()": "d21220a7",
					"token1FeePercent()": "2fcd1692",
					"totalSupply()": "18160ddd",
					"transfer(address,uint256)": "a9059cbb",
					"transferFrom(address,address,uint256)": "23b872dd"
				}
			},
			"storageLayout": {
				"storage": [
					{
						"astId": 19,
						"contract": "contracts/pair.sol:EZKaliburPair",
						"label": "totalSupply",
						"offset": 0,
						"slot": "0",
						"type": "t_uint256"
					},
					{
						"astId": 23,
						"contract": "contracts/pair.sol:EZKaliburPair",
						"label": "balanceOf",
						"offset": 0,
						"slot": "1",
						"type": "t_mapping(t_address,t_uint256)"
					},
					{
						"astId": 29,
						"contract": "contracts/pair.sol:EZKaliburPair",
						"label": "allowance",
						"offset": 0,
						"slot": "2",
						"type": "t_mapping(t_address,t_mapping(t_address,t_uint256))"
					},
					{
						"astId": 31,
						"contract": "contracts/pair.sol:EZKaliburPair",
						"label": "DOMAIN_SEPARATOR",
						"offset": 0,
						"slot": "3",
						"type": "t_bytes32"
					},
					{
						"astId": 38,
						"contract": "contracts/pair.sol:EZKaliburPair",
						"label": "nonces",
						"offset": 0,
						"slot": "4",
						"type": "t_mapping(t_address,t_uint256)"
					},
					{
						"astId": 1143,
						"contract": "contracts/pair.sol:EZKaliburPair",
						"label": "factory",
						"offset": 0,
						"slot": "5",
						"type": "t_address"
					},
					{
						"astId": 1145,
						"contract": "contracts/pair.sol:EZKaliburPair",
						"label": "token0",
						"offset": 0,
						"slot": "6",
						"type": "t_address"
					},
					{
						"astId": 1147,
						"contract": "contracts/pair.sol:EZKaliburPair",
						"label": "token1",
						"offset": 0,
						"slot": "7",
						"type": "t_address"
					},
					{
						"astId": 1149,
						"contract": "contracts/pair.sol:EZKaliburPair",
						"label": "initialized",
						"offset": 20,
						"slot": "7",
						"type": "t_bool"
					},
					{
						"astId": 1157,
						"contract": "contracts/pair.sol:EZKaliburPair",
						"label": "reserve0",
						"offset": 0,
						"slot": "8",
						"type": "t_uint112"
					},
					{
						"astId": 1159,
						"contract": "contracts/pair.sol:EZKaliburPair",
						"label": "reserve1",
						"offset": 14,
						"slot": "8",
						"type": "t_uint112"
					},
					{
						"astId": 1162,
						"contract": "contracts/pair.sol:EZKaliburPair",
						"label": "token0FeePercent",
						"offset": 28,
						"slot": "8",
						"type": "t_uint16"
					},
					{
						"astId": 1165,
						"contract": "contracts/pair.sol:EZKaliburPair",
						"label": "token1FeePercent",
						"offset": 30,
						"slot": "8",
						"type": "t_uint16"
					},
					{
						"astId": 1167,
						"contract": "contracts/pair.sol:EZKaliburPair",
						"label": "precisionMultiplier0",
						"offset": 0,
						"slot": "9",
						"type": "t_uint256"
					},
					{
						"astId": 1169,
						"contract": "contracts/pair.sol:EZKaliburPair",
						"label": "precisionMultiplier1",
						"offset": 0,
						"slot": "10",
						"type": "t_uint256"
					},
					{
						"astId": 1171,
						"contract": "contracts/pair.sol:EZKaliburPair",
						"label": "kLast",
						"offset": 0,
						"slot": "11",
						"type": "t_uint256"
					},
					{
						"astId": 1173,
						"contract": "contracts/pair.sol:EZKaliburPair",
						"label": "stableSwap",
						"offset": 0,
						"slot": "12",
						"type": "t_bool"
					},
					{
						"astId": 1175,
						"contract": "contracts/pair.sol:EZKaliburPair",
						"label": "pairTypeImmutable",
						"offset": 1,
						"slot": "12",
						"type": "t_bool"
					},
					{
						"astId": 1178,
						"contract": "contracts/pair.sol:EZKaliburPair",
						"label": "unlocked",
						"offset": 0,
						"slot": "13",
						"type": "t_uint256"
					}
				],
				"types": {
					"t_address": {
						"encoding": "inplace",
						"label": "address",
						"numberOfBytes": "20"
					},
					"t_bool": {
						"encoding": "inplace",
						"label": "bool",
						"numberOfBytes": "1"
					},
					"t_bytes32": {
						"encoding": "inplace",
						"label": "bytes32",
						"numberOfBytes": "32"
					},
					"t_mapping(t_address,t_mapping(t_address,t_uint256))": {
						"encoding": "mapping",
						"key": "t_address",
						"label": "mapping(address => mapping(address => uint256))",
						"numberOfBytes": "32",
						"value": "t_mapping(t_address,t_uint256)"
					},
					"t_mapping(t_address,t_uint256)": {
						"encoding": "mapping",
						"key": "t_address",
						"label": "mapping(address => uint256)",
						"numberOfBytes": "32",
						"value": "t_uint256"
					},
					"t_uint112": {
						"encoding": "inplace",
						"label": "uint112",
						"numberOfBytes": "14"
					},
					"t_uint16": {
						"encoding": "inplace",
						"label": "uint16",
						"numberOfBytes": "2"
					},
					"t_uint256": {
						"encoding": "inplace",
						"label": "uint256",
						"numberOfBytes": "32"
					}
				}
			},
			"userdoc": {
				"methods": {}
			}
		}
	}
}