{
	"contracts/router.sol": {
		"EZKaliburRouter": {
			"abi": [
				{
					"inputs": [
						{
							"internalType": "address",
							"name": "_factory",
							"type": "address"
						},
						{
							"internalType": "address",
							"name": "_WETH",
							"type": "address"
						}
					],
					"stateMutability": "nonpayable",
					"type": "constructor"
				},
				{
					"inputs": [],
					"name": "WETH",
					"outputs": [
						{
							"internalType": "address",
							"name": "",
							"type": "address"
						}
					],
					"stateMutability": "view",
					"type": "function"
				},
				{
					"inputs": [
						{
							"internalType": "address",
							"name": "tokenA",
							"type": "address"
						},
						{
							"internalType": "address",
							"name": "tokenB",
							"type": "address"
						},
						{
							"internalType": "uint256",
							"name": "amountADesired",
							"type": "uint256"
						},
						{
							"internalType": "uint256",
							"name": "amountBDesired",
							"type": "uint256"
						},
						{
							"internalType": "uint256",
							"name": "amountAMin",
							"type": "uint256"
						},
						{
							"internalType": "uint256",
							"name": "amountBMin",
							"type": "uint256"
						},
						{
							"internalType": "address",
							"name": "to",
							"type": "address"
						},
						{
							"internalType": "uint256",
							"name": "deadline",
							"type": "uint256"
						}
					],
					"name": "addLiquidity",
					"outputs": [
						{
							"internalType": "uint256",
							"name": "amountA",
							"type": "uint256"
						},
						{
							"internalType": "uint256",
							"name": "amountB",
							"type": "uint256"
						},
						{
							"internalType": "uint256",
							"name": "liquidity",
							"type": "uint256"
						}
					],
					"stateMutability": "nonpayable",
					"type": "function"
				},
				{
					"inputs": [
						{
							"internalType": "address",
							"name": "token",
							"type": "address"
						},
						{
							"internalType": "uint256",
							"name": "amountTokenDesired",
							"type": "uint256"
						},
						{
							"internalType": "uint256",
							"name": "amountTokenMin",
							"type": "uint256"
						},
						{
							"internalType": "uint256",
							"name": "amountETHMin",
							"type": "uint256"
						},
						{
							"internalType": "address",
							"name": "to",
							"type": "address"
						},
						{
							"internalType": "uint256",
							"name": "deadline",
							"type": "uint256"
						}
					],
					"name": "addLiquidityETH",
					"outputs": [
						{
							"internalType": "uint256",
							"name": "amountToken",
							"type": "uint256"
						},
						{
							"internalType": "uint256",
							"name": "amountETH",
							"type": "uint256"
						},
						{
							"internalType": "uint256",
							"name": "liquidity",
							"type": "uint256"
						}
					],
					"stateMutability": "payable",
					"type": "function"
				},
				{
					"inputs": [],
					"name": "factory",
					"outputs": [
						{
							"internalType": "address",
							"name": "",
							"type": "address"
						}
					],
					"stateMutability": "view",
					"type": "function"
				},
				{
					"inputs": [
						{
							"internalType": "uint256",
							"name": "amountIn",
							"type": "uint256"
						},
						{
							"internalType": "address[]",
							"name": "path",
							"type": "address[]"
						}
					],
					"name": "getAmountsOut",
					"outputs": [
						{
							"internalType": "uint256[]",
							"name": "amounts",
							"type": "uint256[]"
						}
					],
					"stateMutability": "view",
					"type": "function"
				},
				{
					"inputs": [
						{
							"internalType": "address",
							"name": "token1",
							"type": "address"
						},
						{
							"internalType": "address",
							"name": "token2",
							"type": "address"
						}
					],
					"name": "getPair",
					"outputs": [
						{
							"internalType": "address",
							"name": "",
							"type": "address"
						}
					],
					"stateMutability": "view",
					"type": "function"
				},
				{
					"inputs": [
						{
							"internalType": "uint256",
							"name": "amountA",
							"type": "uint256"
						},
						{
							"internalType": "uint256",
							"name": "reserveA",
							"type": "uint256"
						},
						{
							"internalType": "uint256",
							"name": "reserveB",
							"type": "uint256"
						}
					],
					"name": "quote",
					"outputs": [
						{
							"internalType": "uint256",
							"name": "amountB",
							"type": "uint256"
						}
					],
					"stateMutability": "pure",
					"type": "function"
				},
				{
					"inputs": [
						{
							"internalType": "address",
							"name": "tokenA",
							"type": "address"
						},
						{
							"internalType": "address",
							"name": "tokenB",
							"type": "address"
						},
						{
							"internalType": "uint256",
							"name": "liquidity",
							"type": "uint256"
						},
						{
							"internalType": "uint256",
							"name": "amountAMin",
							"type": "uint256"
						},
						{
							"internalType": "uint256",
							"name": "amountBMin",
							"type": "uint256"
						},
						{
							"internalType": "address",
							"name": "to",
							"type": "address"
						},
						{
							"internalType": "uint256",
							"name": "deadline",
							"type": "uint256"
						}
					],
					"name": "removeLiquidity",
					"outputs": [
						{
							"internalType": "uint256",
							"name": "amountA",
							"type": "uint256"
						},
						{
							"internalType": "uint256",
							"name": "amountB",
							"type": "uint256"
						}
					],
					"stateMutability": "nonpayable",
					"type": "function"
				},
				{
					"inputs": [
						{
							"internalType": "address",
							"name": "token",
							"type": "address"
						},
						{
							"internalType": "uint256",
							"name": "liquidity",
							"type": "uint256"
						},
						{
							"internalType": "uint256",
							"name": "amountTokenMin",
							"type": "uint256"
						},
						{
							"internalType": "uint256",
							"name": "amountETHMin",
							"type": "uint256"
						},
						{
							"internalType": "address",
							"name": "to",
							"type": "address"
						},
						{
							"internalType": "uint256",
							"name": "deadline",
							"type": "uint256"
						}
					],
					"name": "removeLiquidityETH",
					"outputs": [
						{
							"internalType": "uint256",
							"name": "amountToken",
							"type": "uint256"
						},
						{
							"internalType": "uint256",
							"name": "amountETH",
							"type": "uint256"
						}
					],
					"stateMutability": "nonpayable",
					"type": "function"
				},
				{
					"inputs": [
						{
							"internalType": "address",
							"name": "token",
							"type": "address"
						},
						{
							"internalType": "uint256",
							"name": "liquidity",
							"type": "uint256"
						},
						{
							"internalType": "uint256",
							"name": "amountTokenMin",
							"type": "uint256"
						},
						{
							"internalType": "uint256",
							"name": "amountETHMin",
							"type": "uint256"
						},
						{
							"internalType": "address",
							"name": "to",
							"type": "address"
						},
						{
							"internalType": "uint256",
							"name": "deadline",
							"type": "uint256"
						}
					],
					"name": "removeLiquidityETHSupportingFeeOnTransferTokens",
					"outputs": [
						{
							"internalType": "uint256",
							"name": "amountETH",
							"type": "uint256"
						}
					],
					"stateMutability": "nonpayable",
					"type": "function"
				},
				{
					"inputs": [
						{
							"internalType": "address",
							"name": "token",
							"type": "address"
						},
						{
							"internalType": "uint256",
							"name": "liquidity",
							"type": "uint256"
						},
						{
							"internalType": "uint256",
							"name": "amountTokenMin",
							"type": "uint256"
						},
						{
							"internalType": "uint256",
							"name": "amountETHMin",
							"type": "uint256"
						},
						{
							"internalType": "address",
							"name": "to",
							"type": "address"
						},
						{
							"internalType": "uint256",
							"name": "deadline",
							"type": "uint256"
						},
						{
							"internalType": "bool",
							"name": "approveMax",
							"type": "bool"
						},
						{
							"internalType": "uint8",
							"name": "v",
							"type": "uint8"
						},
						{
							"internalType": "bytes32",
							"name": "r",
							"type": "bytes32"
						},
						{
							"internalType": "bytes32",
							"name": "s",
							"type": "bytes32"
						}
					],
					"name": "removeLiquidityETHWithPermit",
					"outputs": [
						{
							"internalType": "uint256",
							"name": "amountToken",
							"type": "uint256"
						},
						{
							"internalType": "uint256",
							"name": "amountETH",
							"type": "uint256"
						}
					],
					"stateMutability": "nonpayable",
					"type": "function"
				},
				{
					"inputs": [
						{
							"internalType": "address",
							"name": "token",
							"type": "address"
						},
						{
							"internalType": "uint256",
							"name": "liquidity",
							"type": "uint256"
						},
						{
							"internalType": "uint256",
							"name": "amountTokenMin",
							"type": "uint256"
						},
						{
							"internalType": "uint256",
							"name": "amountETHMin",
							"type": "uint256"
						},
						{
							"internalType": "address",
							"name": "to",
							"type": "address"
						},
						{
							"internalType": "uint256",
							"name": "deadline",
							"type": "uint256"
						},
						{
							"internalType": "bool",
							"name": "approveMax",
							"type": "bool"
						},
						{
							"internalType": "uint8",
							"name": "v",
							"type": "uint8"
						},
						{
							"internalType": "bytes32",
							"name": "r",
							"type": "bytes32"
						},
						{
							"internalType": "bytes32",
							"name": "s",
							"type": "bytes32"
						}
					],
					"name": "removeLiquidityETHWithPermitSupportingFeeOnTransferTokens",
					"outputs": [
						{
							"internalType": "uint256",
							"name": "amountETH",
							"type": "uint256"
						}
					],
					"stateMutability": "nonpayable",
					"type": "function"
				},
				{
					"inputs": [
						{
							"internalType": "address",
							"name": "tokenA",
							"type": "address"
						},
						{
							"internalType": "address",
							"name": "tokenB",
							"type": "address"
						},
						{
							"internalType": "uint256",
							"name": "liquidity",
							"type": "uint256"
						},
						{
							"internalType": "uint256",
							"name": "amountAMin",
							"type": "uint256"
						},
						{
							"internalType": "uint256",
							"name": "amountBMin",
							"type": "uint256"
						},
						{
							"internalType": "address",
							"name": "to",
							"type": "address"
						},
						{
							"internalType": "uint256",
							"name": "deadline",
							"type": "uint256"
						},
						{
							"internalType": "bool",
							"name": "approveMax",
							"type": "bool"
						},
						{
							"internalType": "uint8",
							"name": "v",
							"type": "uint8"
						},
						{
							"internalType": "bytes32",
							"name": "r",
							"type": "bytes32"
						},
						{
							"internalType": "bytes32",
							"name": "s",
							"type": "bytes32"
						}
					],
					"name": "removeLiquidityWithPermit",
					"outputs": [
						{
							"internalType": "uint256",
							"name": "amountA",
							"type": "uint256"
						},
						{
							"internalType": "uint256",
							"name": "amountB",
							"type": "uint256"
						}
					],
					"stateMutability": "nonpayable",
					"type": "function"
				},
				{
					"inputs": [
						{
							"internalType": "uint256",
							"name": "amountOutMin",
							"type": "uint256"
						},
						{
							"internalType": "address[]",
							"name": "path",
							"type": "address[]"
						},
						{
							"internalType": "address",
							"name": "to",
							"type": "address"
						},
						{
							"internalType": "address",
							"name": "referrer",
							"type": "address"
						},
						{
							"internalType": "uint256",
							"name": "deadline",
							"type": "uint256"
						}
					],
					"name": "swapExactETHForTokensSupportingFeeOnTransferTokens",
					"outputs": [],
					"stateMutability": "payable",
					"type": "function"
				},
				{
					"inputs": [
						{
							"internalType": "uint256",
							"name": "amountIn",
							"type": "uint256"
						},
						{
							"internalType": "uint256",
							"name": "amountOutMin",
							"type": "uint256"
						},
						{
							"internalType": "address[]",
							"name": "path",
							"type": "address[]"
						},
						{
							"internalType": "address",
							"name": "to",
							"type": "address"
						},
						{
							"internalType": "address",
							"name": "referrer",
							"type": "address"
						},
						{
							"internalType": "uint256",
							"name": "deadline",
							"type": "uint256"
						}
					],
					"name": "swapExactTokensForETHSupportingFeeOnTransferTokens",
					"outputs": [],
					"stateMutability": "nonpayable",
					"type": "function"
				},
				{
					"inputs": [
						{
							"internalType": "uint256",
							"name": "amountIn",
							"type": "uint256"
						},
						{
							"internalType": "uint256",
							"name": "amountOutMin",
							"type": "uint256"
						},
						{
							"internalType": "address[]",
							"name": "path",
							"type": "address[]"
						},
						{
							"internalType": "address",
							"name": "to",
							"type": "address"
						},
						{
							"internalType": "address",
							"name": "referrer",
							"type": "address"
						},
						{
							"internalType": "uint256",
							"name": "deadline",
							"type": "uint256"
						}
					],
					"name": "swapExactTokensForTokensSupportingFeeOnTransferTokens",
					"outputs": [],
					"stateMutability": "nonpayable",
					"type": "function"
				},
				{
					"stateMutability": "payable",
					"type": "receive"
				}
			],
			"devdoc": {
				"methods": {}
			},
			"evm": {
				"assembly": "    /* \"contracts/router.sol\":339:11474  contract EZKaliburRouter is IRouter {... */\n  mstore(0x40, 0xc0)\n    /* \"contracts/router.sol\":611:710  constructor(address _factory, address _WETH) public {... */\n  callvalue\n    /* \"--CODEGEN--\":5:14   */\n  dup1\n    /* \"--CODEGEN--\":2:4   */\n  iszero\n  tag_1\n  jumpi\n    /* \"--CODEGEN--\":27:28   */\n  0x00\n    /* \"--CODEGEN--\":24:25   */\n  dup1\n    /* \"--CODEGEN--\":17:29   */\n  revert\n    /* \"--CODEGEN--\":2:4   */\ntag_1:\n    /* \"contracts/router.sol\":611:710  constructor(address _factory, address _WETH) public {... */\n  pop\n  mload(0x40)\n  sub(codesize, bytecodeSize)\n  dup1\n  bytecodeSize\n  dup4\n  codecopy\n  dup2\n  dup2\n  add\n  0x40\n  mstore\n    /* \"--CODEGEN--\":15:17   */\n  0x40\n    /* \"--CODEGEN--\":10:13   */\n  dup2\n    /* \"--CODEGEN--\":7:18   */\n  lt\n    /* \"--CODEGEN--\":4:6   */\n  iszero\n  tag_2\n  jumpi\n    /* \"--CODEGEN--\":31:32   */\n  0x00\n    /* \"--CODEGEN--\":28:29   */\n  dup1\n    /* \"--CODEGEN--\":21:33   */\n  revert\n    /* \"--CODEGEN--\":4:6   */\ntag_2:\n    /* \"contracts/router.sol\":611:710  constructor(address _factory, address _WETH) public {... */\n  dup2\n  add\n  swap1\n  dup1\n  dup1\n  mload\n  swap1\n  0x20\n  add\n  swap1\n  swap3\n  swap2\n  swap1\n  dup1\n  mload\n  swap1\n  0x20\n  add\n  swap1\n  swap3\n  swap2\n  swap1\n  pop\n  pop\n  pop\n    /* \"contracts/router.sol\":679:687  _factory */\n  dup2\n    /* \"contracts/router.sol\":669:687  factory = _factory */\n  0xffffffffffffffffffffffffffffffffffffffff\n  and\n  0x80\n  dup2\n  0xffffffffffffffffffffffffffffffffffffffff\n  and\n  0x60\n  shl\n  dup2\n  mstore\n  pop\n  pop\n    /* \"contracts/router.sol\":700:705  _WETH */\n  dup1\n    /* \"contracts/router.sol\":693:705  WETH = _WETH */\n  0xffffffffffffffffffffffffffffffffffffffff\n  and\n  0xa0\n  dup2\n  0xffffffffffffffffffffffffffffffffffffffff\n  and\n  0x60\n  shl\n  dup2\n  mstore\n  pop\n  pop\n    /* \"contracts/router.sol\":611:710  constructor(address _factory, address _WETH) public {... */\n  pop\n  pop\n    /* \"contracts/router.sol\":339:11474  contract EZKaliburRouter is IRouter {... */\n  shr(0x60, mload(0x80))\n  shr(0x60, mload(0xa0))\n  codecopy(0x00, dataOffset(sub_0), dataSize(sub_0))\n  assignImmutable(\"0x1ae990503def382b005be0ab67f63e79e5d8d76ebedbaef5e88f9b321d6d6a06\")\n  assignImmutable(\"0x1c0bab9e06a591c52ac680ae9eef6479e476f64f56be5d259d46a0497cb2a9b9\")\n  return(0x00, dataSize(sub_0))\nstop\n\nsub_0: assembly {\n        /* \"contracts/router.sol\":339:11474  contract EZKaliburRouter is IRouter {... */\n      mstore(0x40, 0x80)\n      jumpi(tag_1, lt(calldatasize, 0x04))\n      shr(0xe0, calldataload(0x00))\n      dup1\n      0xb4822be3\n      gt\n      tag_19\n      jumpi\n      dup1\n      0xded9382a\n      gt\n      tag_20\n      jumpi\n      dup1\n      0xded9382a\n      eq\n      tag_15\n      jumpi\n      dup1\n      0xe6a43905\n      eq\n      tag_16\n      jumpi\n      dup1\n      0xe8e33700\n      eq\n      tag_17\n      jumpi\n      dup1\n      0xf305d719\n      eq\n      tag_18\n      jumpi\n      jump(tag_2)\n    tag_20:\n      dup1\n      0xb4822be3\n      eq\n      tag_11\n      jumpi\n      dup1\n      0xbaa2abde\n      eq\n      tag_12\n      jumpi\n      dup1\n      0xc45a0155\n      eq\n      tag_13\n      jumpi\n      dup1\n      0xd06ca61f\n      eq\n      tag_14\n      jumpi\n      jump(tag_2)\n    tag_19:\n      dup1\n      0xac3893ba\n      gt\n      tag_21\n      jumpi\n      dup1\n      0xac3893ba\n      eq\n      tag_7\n      jumpi\n      dup1\n      0xad5c4648\n      eq\n      tag_8\n      jumpi\n      dup1\n      0xad615dec\n      eq\n      tag_9\n      jumpi\n      dup1\n      0xaf2979eb\n      eq\n      tag_10\n      jumpi\n      jump(tag_2)\n    tag_21:\n      dup1\n      0x02751cec\n      eq\n      tag_3\n      jumpi\n      dup1\n      0x2195995c\n      eq\n      tag_4\n      jumpi\n      dup1\n      0x52aa4c22\n      eq\n      tag_5\n      jumpi\n      dup1\n      0x5b0d5984\n      eq\n      tag_6\n      jumpi\n      jump(tag_2)\n    tag_1:\n      jumpi(tag_2, calldatasize)\n        /* \"contracts/router.sol\":768:772  WETH */\n      immutable(\"0x1ae990503def382b005be0ab67f63e79e5d8d76ebedbaef5e88f9b321d6d6a06\")\n        /* \"contracts/router.sol\":754:772  msg.sender == WETH */\n      0xffffffffffffffffffffffffffffffffffffffff\n      and\n        /* \"contracts/router.sol\":754:764  msg.sender */\n      caller\n        /* \"contracts/router.sol\":754:772  msg.sender == WETH */\n      0xffffffffffffffffffffffffffffffffffffffff\n      and\n      eq\n        /* \"contracts/router.sol\":747:773  assert(msg.sender == WETH) */\n      tag_24\n      jumpi\n      invalid\n    tag_24:\n        /* \"contracts/router.sol\":339:11474  contract EZKaliburRouter is IRouter {... */\n      stop\n    tag_2:\n        /* \"--CODEGEN--\":12:13   */\n      0x00\n        /* \"--CODEGEN--\":9:10   */\n      dup1\n        /* \"--CODEGEN--\":2:14   */\n      revert\n        /* \"contracts/router.sol\":4514:5069  function removeLiquidityETH(... */\n    tag_3:\n      callvalue\n        /* \"--CODEGEN--\":5:14   */\n      dup1\n        /* \"--CODEGEN--\":2:4   */\n      iszero\n      tag_25\n      jumpi\n        /* \"--CODEGEN--\":27:28   */\n      0x00\n        /* \"--CODEGEN--\":24:25   */\n      dup1\n        /* \"--CODEGEN--\":17:29   */\n      revert\n        /* \"--CODEGEN--\":2:4   */\n    tag_25:\n        /* \"contracts/router.sol\":4514:5069  function removeLiquidityETH(... */\n      pop\n      tag_26\n      0x04\n      dup1\n      calldatasize\n      sub\n        /* \"--CODEGEN--\":15:18   */\n      0xc0\n        /* \"--CODEGEN--\":10:13   */\n      dup2\n        /* \"--CODEGEN--\":7:19   */\n      lt\n        /* \"--CODEGEN--\":4:6   */\n      iszero\n      tag_27\n      jumpi\n        /* \"--CODEGEN--\":32:33   */\n      0x00\n        /* \"--CODEGEN--\":29:30   */\n      dup1\n        /* \"--CODEGEN--\":22:34   */\n      revert\n        /* \"--CODEGEN--\":4:6   */\n    tag_27:\n        /* \"contracts/router.sol\":4514:5069  function removeLiquidityETH(... */\n      dup2\n      add\n      swap1\n      dup1\n      dup1\n      calldataload\n      0xffffffffffffffffffffffffffffffffffffffff\n      and\n      swap1\n      0x20\n      add\n      swap1\n      swap3\n      swap2\n      swap1\n      dup1\n      calldataload\n      swap1\n      0x20\n      add\n      swap1\n      swap3\n      swap2\n      swap1\n      dup1\n      calldataload\n      swap1\n      0x20\n      add\n      swap1\n      swap3\n      swap2\n      swap1\n      dup1\n      calldataload\n      swap1\n      0x20\n      add\n      swap1\n      swap3\n      swap2\n      swap1\n      dup1\n      calldataload\n      0xffffffffffffffffffffffffffffffffffffffff\n      and\n      swap1\n      0x20\n      add\n      swap1\n      swap3\n      swap2\n      swap1\n      dup1\n      calldataload\n      swap1\n      0x20\n      add\n      swap1\n      swap3\n      swap2\n      swap1\n      pop\n      pop\n      pop\n      tag_28\n      jump\t// in\n    tag_26:\n      mload(0x40)\n      dup1\n      dup4\n      dup2\n      mstore\n      0x20\n      add\n      dup3\n      dup2\n      mstore\n      0x20\n      add\n      swap3\n      pop\n      pop\n      pop\n      mload(0x40)\n      dup1\n      swap2\n      sub\n      swap1\n      return\n        /* \"contracts/router.sol\":5073:5668  function removeLiquidityWithPermit(... */\n    tag_4:\n      callvalue\n        /* \"--CODEGEN--\":5:14   */\n      dup1\n        /* \"--CODEGEN--\":2:4   */\n      iszero\n      tag_29\n      jumpi\n        /* \"--CODEGEN--\":27:28   */\n      0x00\n        /* \"--CODEGEN--\":24:25   */\n      dup1\n        /* \"--CODEGEN--\":17:29   */\n      revert\n        /* \"--CODEGEN--\":2:4   */\n    tag_29:\n        /* \"contracts/router.sol\":5073:5668  function removeLiquidityWithPermit(... */\n      pop\n      tag_30\n      0x04\n      dup1\n      calldatasize\n      sub\n        /* \"--CODEGEN--\":15:18   */\n      0x0160\n        /* \"--CODEGEN--\":10:13   */\n      dup2\n        /* \"--CODEGEN--\":7:19   */\n      lt\n        /* \"--CODEGEN--\":4:6   */\n      iszero\n      tag_31\n      jumpi\n        /* \"--CODEGEN--\":32:33   */\n      0x00\n        /* \"--CODEGEN--\":29:30   */\n      dup1\n        /* \"--CODEGEN--\":22:34   */\n      revert\n        /* \"--CODEGEN--\":4:6   */\n    tag_31:\n        /* \"contracts/router.sol\":5073:5668  function removeLiquidityWithPermit(... */\n      dup2\n      add\n      swap1\n      dup1\n      dup1\n      calldataload\n      0xffffffffffffffffffffffffffffffffffffffff\n      and\n      swap1\n      0x20\n      add\n      swap1\n      swap3\n      swap2\n      swap1\n      dup1\n      calldataload\n      0xffffffffffffffffffffffffffffffffffffffff\n      and\n      swap1\n      0x20\n      add\n      swap1\n      swap3\n      swap2\n      swap1\n      dup1\n      calldataload\n      swap1\n      0x20\n      add\n      swap1\n      swap3\n      swap2\n      swap1\n      dup1\n      calldataload\n      swap1\n      0x20\n      add\n      swap1\n      swap3\n      swap2\n      swap1\n      dup1\n      calldataload\n      swap1\n      0x20\n      add\n      swap1\n      swap3\n      swap2\n      swap1\n      dup1\n      calldataload\n      0xffffffffffffffffffffffffffffffffffffffff\n      and\n      swap1\n      0x20\n      add\n      swap1\n      swap3\n      swap2\n      swap1\n      dup1\n      calldataload\n      swap1\n      0x20\n      add\n      swap1\n      swap3\n      swap2\n      swap1\n      dup1\n      calldataload\n      iszero\n      iszero\n      swap1\n      0x20\n      add\n      swap1\n      swap3\n      swap2\n      swap1\n      dup1\n      calldataload\n      0xff\n      and\n      swap1\n      0x20\n      add\n      swap1\n      swap3\n      swap2\n      swap1\n      dup1\n      calldataload\n      swap1\n      0x20\n      add\n      swap1\n      swap3\n      swap2\n      swap1\n      dup1\n      calldataload\n      swap1\n      0x20\n      add\n      swap1\n      swap3\n      swap2\n      swap1\n      pop\n      pop\n      pop\n      tag_32\n      jump\t// in\n    tag_30:\n      mload(0x40)\n      dup1\n      dup4\n      dup2\n      mstore\n      0x20\n      add\n      dup3\n      dup2\n      mstore\n      0x20\n      add\n      swap3\n      pop\n      pop\n      pop\n      mload(0x40)\n      dup1\n      swap2\n      sub\n      swap1\n      return\n        /* \"contracts/router.sol\":10211:10967  function swapExactTokensForETHSupportingFeeOnTransferTokens(... */\n    tag_5:\n      callvalue\n        /* \"--CODEGEN--\":5:14   */\n      dup1\n        /* \"--CODEGEN--\":2:4   */\n      iszero\n      tag_33\n      jumpi\n        /* \"--CODEGEN--\":27:28   */\n      0x00\n        /* \"--CODEGEN--\":24:25   */\n      dup1\n        /* \"--CODEGEN--\":17:29   */\n      revert\n        /* \"--CODEGEN--\":2:4   */\n    tag_33:\n        /* \"contracts/router.sol\":10211:10967  function swapExactTokensForETHSupportingFeeOnTransferTokens(... */\n      pop\n      tag_34\n      0x04\n      dup1\n      calldatasize\n      sub\n        /* \"--CODEGEN--\":15:18   */\n      0xc0\n        /* \"--CODEGEN--\":10:13   */\n      dup2\n        /* \"--CODEGEN--\":7:19   */\n      lt\n        /* \"--CODEGEN--\":4:6   */\n      iszero\n      tag_35\n      jumpi\n        /* \"--CODEGEN--\":32:33   */\n      0x00\n        /* \"--CODEGEN--\":29:30   */\n      dup1\n        /* \"--CODEGEN--\":22:34   */\n      revert\n        /* \"--CODEGEN--\":4:6   */\n    tag_35:\n        /* \"contracts/router.sol\":10211:10967  function swapExactTokensForETHSupportingFeeOnTransferTokens(... */\n      dup2\n      add\n      swap1\n      dup1\n      dup1\n      calldataload\n      swap1\n      0x20\n      add\n      swap1\n      swap3\n      swap2\n      swap1\n      dup1\n      calldataload\n      swap1\n      0x20\n      add\n      swap1\n      swap3\n      swap2\n      swap1\n      dup1\n      calldataload\n      swap1\n      0x20\n      add\n      swap1\n        /* \"--CODEGEN--\":27:38   */\n      0x0100000000\n        /* \"--CODEGEN--\":14:25   */\n      dup2\n        /* \"--CODEGEN--\":11:39   */\n      gt\n        /* \"--CODEGEN--\":8:10   */\n      iszero\n      tag_36\n      jumpi\n        /* \"--CODEGEN--\":52:53   */\n      0x00\n        /* \"--CODEGEN--\":49:50   */\n      dup1\n        /* \"--CODEGEN--\":42:54   */\n      revert\n        /* \"--CODEGEN--\":8:10   */\n    tag_36:\n        /* \"contracts/router.sol\":10211:10967  function swapExactTokensForETHSupportingFeeOnTransferTokens(... */\n      dup3\n      add\n        /* \"--CODEGEN--\":41:50   */\n      dup4\n        /* \"--CODEGEN--\":34:38   */\n      0x20\n        /* \"--CODEGEN--\":18:32   */\n      dup3\n        /* \"--CODEGEN--\":14:39   */\n      add\n        /* \"--CODEGEN--\":11:51   */\n      gt\n        /* \"--CODEGEN--\":8:10   */\n      iszero\n      tag_37\n      jumpi\n        /* \"--CODEGEN--\":64:65   */\n      0x00\n        /* \"--CODEGEN--\":61:62   */\n      dup1\n        /* \"--CODEGEN--\":54:66   */\n      revert\n        /* \"--CODEGEN--\":8:10   */\n    tag_37:\n        /* \"contracts/router.sol\":10211:10967  function swapExactTokensForETHSupportingFeeOnTransferTokens(... */\n      dup1\n      calldataload\n      swap1\n      0x20\n      add\n      swap2\n        /* \"--CODEGEN--\":101:110   */\n      dup5\n        /* \"--CODEGEN--\":95:97   */\n      0x20\n        /* \"--CODEGEN--\":81:93   */\n      dup4\n        /* \"--CODEGEN--\":77:98   */\n      mul\n        /* \"--CODEGEN--\":67:75   */\n      dup5\n        /* \"--CODEGEN--\":63:99   */\n      add\n        /* \"--CODEGEN--\":60:111   */\n      gt\n        /* \"--CODEGEN--\":39:50   */\n      0x0100000000\n        /* \"--CODEGEN--\":25:37   */\n      dup4\n        /* \"--CODEGEN--\":22:51   */\n      gt\n        /* \"--CODEGEN--\":11:119   */\n      or\n        /* \"--CODEGEN--\":8:10   */\n      iszero\n      tag_38\n      jumpi\n        /* \"--CODEGEN--\":132:133   */\n      0x00\n        /* \"--CODEGEN--\":129:130   */\n      dup1\n        /* \"--CODEGEN--\":122:134   */\n      revert\n        /* \"--CODEGEN--\":8:10   */\n    tag_38:\n        /* \"contracts/router.sol\":10211:10967  function swapExactTokensForETHSupportingFeeOnTransferTokens(... */\n      swap1\n      swap2\n      swap3\n      swap4\n      swap2\n      swap3\n      swap4\n      swap1\n      dup1\n      calldataload\n      0xffffffffffffffffffffffffffffffffffffffff\n      and\n      swap1\n      0x20\n      add\n      swap1\n      swap3\n      swap2\n      swap1\n      dup1\n      calldataload\n      0xffffffffffffffffffffffffffffffffffffffff\n      and\n      swap1\n      0x20\n      add\n      swap1\n      swap3\n      swap2\n      swap1\n      dup1\n      calldataload\n      swap1\n      0x20\n      add\n      swap1\n      swap3\n      swap2\n      swap1\n      pop\n      pop\n      pop\n      tag_39\n      jump\t// in\n    tag_34:\n      stop\n        /* \"contracts/router.sol\":6922:7551  function removeLiquidityETHWithPermitSupportingFeeOnTransferTokens(... */\n    tag_6:\n      callvalue\n        /* \"--CODEGEN--\":5:14   */\n      dup1\n        /* \"--CODEGEN--\":2:4   */\n      iszero\n      tag_40\n      jumpi\n        /* \"--CODEGEN--\":27:28   */\n      0x00\n        /* \"--CODEGEN--\":24:25   */\n      dup1\n        /* \"--CODEGEN--\":17:29   */\n      revert\n        /* \"--CODEGEN--\":2:4   */\n    tag_40:\n        /* \"contracts/router.sol\":6922:7551  function removeLiquidityETHWithPermitSupportingFeeOnTransferTokens(... */\n      pop\n      tag_41\n      0x04\n      dup1\n      calldatasize\n      sub\n        /* \"--CODEGEN--\":15:18   */\n      0x0140\n        /* \"--CODEGEN--\":10:13   */\n      dup2\n        /* \"--CODEGEN--\":7:19   */\n      lt\n        /* \"--CODEGEN--\":4:6   */\n      iszero\n      tag_42\n      jumpi\n        /* \"--CODEGEN--\":32:33   */\n      0x00\n        /* \"--CODEGEN--\":29:30   */\n      dup1\n        /* \"--CODEGEN--\":22:34   */\n      revert\n        /* \"--CODEGEN--\":4:6   */\n    tag_42:\n        /* \"contracts/router.sol\":6922:7551  function removeLiquidityETHWithPermitSupportingFeeOnTransferTokens(... */\n      dup2\n      add\n      swap1\n      dup1\n      dup1\n      calldataload\n      0xffffffffffffffffffffffffffffffffffffffff\n      and\n      swap1\n      0x20\n      add\n      swap1\n      swap3\n      swap2\n      swap1\n      dup1\n      calldataload\n      swap1\n      0x20\n      add\n      swap1\n      swap3\n      swap2\n      swap1\n      dup1\n      calldataload\n      swap1\n      0x20\n      add\n      swap1\n      swap3\n      swap2\n      swap1\n      dup1\n      calldataload\n      swap1\n      0x20\n      add\n      swap1\n      swap3\n      swap2\n      swap1\n      dup1\n      calldataload\n      0xffffffffffffffffffffffffffffffffffffffff\n      and\n      swap1\n      0x20\n      add\n      swap1\n      swap3\n      swap2\n      swap1\n      dup1\n      calldataload\n      swap1\n      0x20\n      add\n      swap1\n      swap3\n      swap2\n      swap1\n      dup1\n      calldataload\n      iszero\n      iszero\n      swap1\n      0x20\n      add\n      swap1\n      swap3\n      swap2\n      swap1\n      dup1\n      calldataload\n      0xff\n      and\n      swap1\n      0x20\n      add\n      swap1\n      swap3\n      swap2\n      swap1\n      dup1\n      calldataload\n      swap1\n      0x20\n      add\n      swap1\n      swap3\n      swap2\n      swap1\n      dup1\n      calldataload\n      swap1\n      0x20\n      add\n      swap1\n      swap3\n      swap2\n      swap1\n      pop\n      pop\n      pop\n      tag_43\n      jump\t// in\n    tag_41:\n      mload(0x40)\n      dup1\n      dup3\n      dup2\n      mstore\n      0x20\n      add\n      swap2\n      pop\n      pop\n      mload(0x40)\n      dup1\n      swap2\n      sub\n      swap1\n      return\n        /* \"contracts/router.sol\":8791:9447  function swapExactTokensForTokensSupportingFeeOnTransferTokens(... */\n    tag_7:\n      callvalue\n        /* \"--CODEGEN--\":5:14   */\n      dup1\n        /* \"--CODEGEN--\":2:4   */\n      iszero\n      tag_44\n      jumpi\n        /* \"--CODEGEN--\":27:28   */\n      0x00\n        /* \"--CODEGEN--\":24:25   */\n      dup1\n        /* \"--CODEGEN--\":17:29   */\n      revert\n        /* \"--CODEGEN--\":2:4   */\n    tag_44:\n        /* \"contracts/router.sol\":8791:9447  function swapExactTokensForTokensSupportingFeeOnTransferTokens(... */\n      pop\n      tag_45\n      0x04\n      dup1\n      calldatasize\n      sub\n        /* \"--CODEGEN--\":15:18   */\n      0xc0\n        /* \"--CODEGEN--\":10:13   */\n      dup2\n        /* \"--CODEGEN--\":7:19   */\n      lt\n        /* \"--CODEGEN--\":4:6   */\n      iszero\n      tag_46\n      jumpi\n        /* \"--CODEGEN--\":32:33   */\n      0x00\n        /* \"--CODEGEN--\":29:30   */\n      dup1\n        /* \"--CODEGEN--\":22:34   */\n      revert\n        /* \"--CODEGEN--\":4:6   */\n    tag_46:\n        /* \"contracts/router.sol\":8791:9447  function swapExactTokensForTokensSupportingFeeOnTransferTokens(... */\n      dup2\n      add\n      swap1\n      dup1\n      dup1\n      calldataload\n      swap1\n      0x20\n      add\n      swap1\n      swap3\n      swap2\n      swap1\n      dup1\n      calldataload\n      swap1\n      0x20\n      add\n      swap1\n      swap3\n      swap2\n      swap1\n      dup1\n      calldataload\n      swap1\n      0x20\n      add\n      swap1\n        /* \"--CODEGEN--\":27:38   */\n      0x0100000000\n        /* \"--CODEGEN--\":14:25   */\n      dup2\n        /* \"--CODEGEN--\":11:39   */\n      gt\n        /* \"--CODEGEN--\":8:10   */\n      iszero\n      tag_47\n      jumpi\n        /* \"--CODEGEN--\":52:53   */\n      0x00\n        /* \"--CODEGEN--\":49:50   */\n      dup1\n        /* \"--CODEGEN--\":42:54   */\n      revert\n        /* \"--CODEGEN--\":8:10   */\n    tag_47:\n        /* \"contracts/router.sol\":8791:9447  function swapExactTokensForTokensSupportingFeeOnTransferTokens(... */\n      dup3\n      add\n        /* \"--CODEGEN--\":41:50   */\n      dup4\n        /* \"--CODEGEN--\":34:38   */\n      0x20\n        /* \"--CODEGEN--\":18:32   */\n      dup3\n        /* \"--CODEGEN--\":14:39   */\n      add\n        /* \"--CODEGEN--\":11:51   */\n      gt\n        /* \"--CODEGEN--\":8:10   */\n      iszero\n      tag_48\n      jumpi\n        /* \"--CODEGEN--\":64:65   */\n      0x00\n        /* \"--CODEGEN--\":61:62   */\n      dup1\n        /* \"--CODEGEN--\":54:66   */\n      revert\n        /* \"--CODEGEN--\":8:10   */\n    tag_48:\n        /* \"contracts/router.sol\":8791:9447  function swapExactTokensForTokensSupportingFeeOnTransferTokens(... */\n      dup1\n      calldataload\n      swap1\n      0x20\n      add\n      swap2\n        /* \"--CODEGEN--\":101:110   */\n      dup5\n        /* \"--CODEGEN--\":95:97   */\n      0x20\n        /* \"--CODEGEN--\":81:93   */\n      dup4\n        /* \"--CODEGEN--\":77:98   */\n      mul\n        /* \"--CODEGEN--\":67:75   */\n      dup5\n        /* \"--CODEGEN--\":63:99   */\n      add\n        /* \"--CODEGEN--\":60:111   */\n      gt\n        /* \"--CODEGEN--\":39:50   */\n      0x0100000000\n        /* \"--CODEGEN--\":25:37   */\n      dup4\n        /* \"--CODEGEN--\":22:51   */\n      gt\n        /* \"--CODEGEN--\":11:119   */\n      or\n        /* \"--CODEGEN--\":8:10   */\n      iszero\n      tag_49\n      jumpi\n        /* \"--CODEGEN--\":132:133   */\n      0x00\n        /* \"--CODEGEN--\":129:130   */\n      dup1\n        /* \"--CODEGEN--\":122:134   */\n      revert\n        /* \"--CODEGEN--\":8:10   */\n    tag_49:\n        /* \"contracts/router.sol\":8791:9447  function swapExactTokensForTokensSupportingFeeOnTransferTokens(... */\n      swap1\n      swap2\n      swap3\n      swap4\n      swap2\n      swap3\n      swap4\n      swap1\n      dup1\n      calldataload\n      0xffffffffffffffffffffffffffffffffffffffff\n      and\n      swap1\n      0x20\n      add\n      swap1\n      swap3\n      swap2\n      swap1\n      dup1\n      calldataload\n      0xffffffffffffffffffffffffffffffffffffffff\n      and\n      swap1\n      0x20\n      add\n      swap1\n      swap3\n      swap2\n      swap1\n      dup1\n      calldataload\n      swap1\n      0x20\n      add\n      swap1\n      swap3\n      swap2\n      swap1\n      pop\n      pop\n      pop\n      tag_50\n      jump\t// in\n    tag_45:\n      stop\n        /* \"contracts/router.sol\":451:489  address public immutable override WETH */\n    tag_8:\n      callvalue\n        /* \"--CODEGEN--\":5:14   */\n      dup1\n        /* \"--CODEGEN--\":2:4   */\n      iszero\n      tag_51\n      jumpi\n        /* \"--CODEGEN--\":27:28   */\n      0x00\n        /* \"--CODEGEN--\":24:25   */\n      dup1\n        /* \"--CODEGEN--\":17:29   */\n      revert\n        /* \"--CODEGEN--\":2:4   */\n    tag_51:\n        /* \"contracts/router.sol\":451:489  address public immutable override WETH */\n      pop\n      tag_52\n      tag_53\n      jump\t// in\n    tag_52:\n      mload(0x40)\n      dup1\n      dup3\n      0xffffffffffffffffffffffffffffffffffffffff\n      and\n      0xffffffffffffffffffffffffffffffffffffffff\n      and\n      dup2\n      mstore\n      0x20\n      add\n      swap2\n      pop\n      pop\n      mload(0x40)\n      dup1\n      swap2\n      sub\n      swap1\n      return\n        /* \"contracts/router.sol\":11112:11286  function quote(uint amountA, uint reserveA, uint reserveB) external pure override returns (uint amountB) {... */\n    tag_9:\n      callvalue\n        /* \"--CODEGEN--\":5:14   */\n      dup1\n        /* \"--CODEGEN--\":2:4   */\n      iszero\n      tag_54\n      jumpi\n        /* \"--CODEGEN--\":27:28   */\n      0x00\n        /* \"--CODEGEN--\":24:25   */\n      dup1\n        /* \"--CODEGEN--\":17:29   */\n      revert\n        /* \"--CODEGEN--\":2:4   */\n    tag_54:\n        /* \"contracts/router.sol\":11112:11286  function quote(uint amountA, uint reserveA, uint reserveB) external pure override returns (uint amountB) {... */\n      pop\n      tag_55\n      0x04\n      dup1\n      calldatasize\n      sub\n        /* \"--CODEGEN--\":15:17   */\n      0x60\n        /* \"--CODEGEN--\":10:13   */\n      dup2\n        /* \"--CODEGEN--\":7:18   */\n      lt\n        /* \"--CODEGEN--\":4:6   */\n      iszero\n      tag_56\n      jumpi\n        /* \"--CODEGEN--\":31:32   */\n      0x00\n        /* \"--CODEGEN--\":28:29   */\n      dup1\n        /* \"--CODEGEN--\":21:33   */\n      revert\n        /* \"--CODEGEN--\":4:6   */\n    tag_56:\n        /* \"contracts/router.sol\":11112:11286  function quote(uint amountA, uint reserveA, uint reserveB) external pure override returns (uint amountB) {... */\n      dup2\n      add\n      swap1\n      dup1\n      dup1\n      calldataload\n      swap1\n      0x20\n      add\n      swap1\n      swap3\n      swap2\n      swap1\n      dup1\n      calldataload\n      swap1\n      0x20\n      add\n      swap1\n      swap3\n      swap2\n      swap1\n      dup1\n      calldataload\n      swap1\n      0x20\n      add\n      swap1\n      swap3\n      swap2\n      swap1\n      pop\n      pop\n      pop\n      tag_57\n      jump\t// in\n    tag_55:\n      mload(0x40)\n      dup1\n      dup3\n      dup2\n      mstore\n      0x20\n      add\n      swap2\n      pop\n      pop\n      mload(0x40)\n      dup1\n      swap2\n      sub\n      swap1\n      return\n        /* \"contracts/router.sol\":6336:6918  function removeLiquidityETHSupportingFeeOnTransferTokens(... */\n    tag_10:\n      callvalue\n        /* \"--CODEGEN--\":5:14   */\n      dup1\n        /* \"--CODEGEN--\":2:4   */\n      iszero\n      tag_58\n      jumpi\n        /* \"--CODEGEN--\":27:28   */\n      0x00\n        /* \"--CODEGEN--\":24:25   */\n      dup1\n        /* \"--CODEGEN--\":17:29   */\n      revert\n        /* \"--CODEGEN--\":2:4   */\n    tag_58:\n        /* \"contracts/router.sol\":6336:6918  function removeLiquidityETHSupportingFeeOnTransferTokens(... */\n      pop\n      tag_59\n      0x04\n      dup1\n      calldatasize\n      sub\n        /* \"--CODEGEN--\":15:18   */\n      0xc0\n        /* \"--CODEGEN--\":10:13   */\n      dup2\n        /* \"--CODEGEN--\":7:19   */\n      lt\n        /* \"--CODEGEN--\":4:6   */\n      iszero\n      tag_60\n      jumpi\n        /* \"--CODEGEN--\":32:33   */\n      0x00\n        /* \"--CODEGEN--\":29:30   */\n      dup1\n        /* \"--CODEGEN--\":22:34   */\n      revert\n        /* \"--CODEGEN--\":4:6   */\n    tag_60:\n        /* \"contracts/router.sol\":6336:6918  function removeLiquidityETHSupportingFeeOnTransferTokens(... */\n      dup2\n      add\n      swap1\n      dup1\n      dup1\n      calldataload\n      0xffffffffffffffffffffffffffffffffffffffff\n      and\n      swap1\n      0x20\n      add\n      swap1\n      swap3\n      swap2\n      swap1\n      dup1\n      calldataload\n      swap1\n      0x20\n      add\n      swap1\n      swap3\n      swap2\n      swap1\n      dup1\n      calldataload\n      swap1\n      0x20\n      add\n      swap1\n      swap3\n      swap2\n      swap1\n      dup1\n      calldataload\n      swap1\n      0x20\n      add\n      swap1\n      swap3\n      swap2\n      swap1\n      dup1\n      calldataload\n      0xffffffffffffffffffffffffffffffffffffffff\n      and\n      swap1\n      0x20\n      add\n      swap1\n      swap3\n      swap2\n      swap1\n      dup1\n      calldataload\n      swap1\n      0x20\n      add\n      swap1\n      swap3\n      swap2\n      swap1\n      pop\n      pop\n      pop\n      tag_61\n      jump\t// in\n    tag_59:\n      mload(0x40)\n      dup1\n      dup3\n      dup2\n      mstore\n      0x20\n      add\n      swap2\n      pop\n      pop\n      mload(0x40)\n      dup1\n      swap2\n      sub\n      swap1\n      return\n        /* \"contracts/router.sol\":9451:10207  function swapExactETHForTokensSupportingFeeOnTransferTokens(... */\n    tag_11:\n      tag_62\n      0x04\n      dup1\n      calldatasize\n      sub\n        /* \"--CODEGEN--\":15:18   */\n      0xa0\n        /* \"--CODEGEN--\":10:13   */\n      dup2\n        /* \"--CODEGEN--\":7:19   */\n      lt\n        /* \"--CODEGEN--\":4:6   */\n      iszero\n      tag_63\n      jumpi\n        /* \"--CODEGEN--\":32:33   */\n      0x00\n        /* \"--CODEGEN--\":29:30   */\n      dup1\n        /* \"--CODEGEN--\":22:34   */\n      revert\n        /* \"--CODEGEN--\":4:6   */\n    tag_63:\n        /* \"contracts/router.sol\":9451:10207  function swapExactETHForTokensSupportingFeeOnTransferTokens(... */\n      dup2\n      add\n      swap1\n      dup1\n      dup1\n      calldataload\n      swap1\n      0x20\n      add\n      swap1\n      swap3\n      swap2\n      swap1\n      dup1\n      calldataload\n      swap1\n      0x20\n      add\n      swap1\n        /* \"--CODEGEN--\":27:38   */\n      0x0100000000\n        /* \"--CODEGEN--\":14:25   */\n      dup2\n        /* \"--CODEGEN--\":11:39   */\n      gt\n        /* \"--CODEGEN--\":8:10   */\n      iszero\n      tag_64\n      jumpi\n        /* \"--CODEGEN--\":52:53   */\n      0x00\n        /* \"--CODEGEN--\":49:50   */\n      dup1\n        /* \"--CODEGEN--\":42:54   */\n      revert\n        /* \"--CODEGEN--\":8:10   */\n    tag_64:\n        /* \"contracts/router.sol\":9451:10207  function swapExactETHForTokensSupportingFeeOnTransferTokens(... */\n      dup3\n      add\n        /* \"--CODEGEN--\":41:50   */\n      dup4\n        /* \"--CODEGEN--\":34:38   */\n      0x20\n        /* \"--CODEGEN--\":18:32   */\n      dup3\n        /* \"--CODEGEN--\":14:39   */\n      add\n        /* \"--CODEGEN--\":11:51   */\n      gt\n        /* \"--CODEGEN--\":8:10   */\n      iszero\n      tag_65\n      jumpi\n        /* \"--CODEGEN--\":64:65   */\n      0x00\n        /* \"--CODEGEN--\":61:62   */\n      dup1\n        /* \"--CODEGEN--\":54:66   */\n      revert\n        /* \"--CODEGEN--\":8:10   */\n    tag_65:\n        /* \"contracts/router.sol\":9451:10207  function swapExactETHForTokensSupportingFeeOnTransferTokens(... */\n      dup1\n      calldataload\n      swap1\n      0x20\n      add\n      swap2\n        /* \"--CODEGEN--\":101:110   */\n      dup5\n        /* \"--CODEGEN--\":95:97   */\n      0x20\n        /* \"--CODEGEN--\":81:93   */\n      dup4\n        /* \"--CODEGEN--\":77:98   */\n      mul\n        /* \"--CODEGEN--\":67:75   */\n      dup5\n        /* \"--CODEGEN--\":63:99   */\n      add\n        /* \"--CODEGEN--\":60:111   */\n      gt\n        /* \"--CODEGEN--\":39:50   */\n      0x0100000000\n        /* \"--CODEGEN--\":25:37   */\n      dup4\n        /* \"--CODEGEN--\":22:51   */\n      gt\n        /* \"--CODEGEN--\":11:119   */\n      or\n        /* \"--CODEGEN--\":8:10   */\n      iszero\n      tag_66\n      jumpi\n        /* \"--CODEGEN--\":132:133   */\n      0x00\n        /* \"--CODEGEN--\":129:130   */\n      dup1\n        /* \"--CODEGEN--\":122:134   */\n      revert\n        /* \"--CODEGEN--\":8:10   */\n    tag_66:\n        /* \"contracts/router.sol\":9451:10207  function swapExactETHForTokensSupportingFeeOnTransferTokens(... */\n      swap1\n      swap2\n      swap3\n      swap4\n      swap2\n      swap3\n      swap4\n      swap1\n      dup1\n      calldataload\n      0xffffffffffffffffffffffffffffffffffffffff\n      and\n      swap1\n      0x20\n      add\n      swap1\n      swap3\n      swap2\n      swap1\n      dup1\n      calldataload\n      0xffffffffffffffffffffffffffffffffffffffff\n      and\n      swap1\n      0x20\n      add\n      swap1\n      swap3\n      swap2\n      swap1\n      dup1\n      calldataload\n      swap1\n      0x20\n      add\n      swap1\n      swap3\n      swap2\n      swap1\n      pop\n      pop\n      pop\n      tag_67\n      jump\t// in\n    tag_62:\n      stop\n        /* \"contracts/router.sol\":3743:4510  function removeLiquidity(... */\n    tag_12:\n      callvalue\n        /* \"--CODEGEN--\":5:14   */\n      dup1\n        /* \"--CODEGEN--\":2:4   */\n      iszero\n      tag_68\n      jumpi\n        /* \"--CODEGEN--\":27:28   */\n      0x00\n        /* \"--CODEGEN--\":24:25   */\n      dup1\n        /* \"--CODEGEN--\":17:29   */\n      revert\n        /* \"--CODEGEN--\":2:4   */\n    tag_68:\n        /* \"contracts/router.sol\":3743:4510  function removeLiquidity(... */\n      pop\n      tag_69\n      0x04\n      dup1\n      calldatasize\n      sub\n        /* \"--CODEGEN--\":15:18   */\n      0xe0\n        /* \"--CODEGEN--\":10:13   */\n      dup2\n        /* \"--CODEGEN--\":7:19   */\n      lt\n        /* \"--CODEGEN--\":4:6   */\n      iszero\n      tag_70\n      jumpi\n        /* \"--CODEGEN--\":32:33   */\n      0x00\n        /* \"--CODEGEN--\":29:30   */\n      dup1\n        /* \"--CODEGEN--\":22:34   */\n      revert\n        /* \"--CODEGEN--\":4:6   */\n    tag_70:\n        /* \"contracts/router.sol\":3743:4510  function removeLiquidity(... */\n      dup2\n      add\n      swap1\n      dup1\n      dup1\n      calldataload\n      0xffffffffffffffffffffffffffffffffffffffff\n      and\n      swap1\n      0x20\n      add\n      swap1\n      swap3\n      swap2\n      swap1\n      dup1\n      calldataload\n      0xffffffffffffffffffffffffffffffffffffffff\n      and\n      swap1\n      0x20\n      add\n      swap1\n      swap3\n      swap2\n      swap1\n      dup1\n      calldataload\n      swap1\n      0x20\n      add\n      swap1\n      swap3\n      swap2\n      swap1\n      dup1\n      calldataload\n      swap1\n      0x20\n      add\n      swap1\n      swap3\n      swap2\n      swap1\n      dup1\n      calldataload\n      swap1\n      0x20\n      add\n      swap1\n      swap3\n      swap2\n      swap1\n      dup1\n      calldataload\n      0xffffffffffffffffffffffffffffffffffffffff\n      and\n      swap1\n      0x20\n      add\n      swap1\n      swap3\n      swap2\n      swap1\n      dup1\n      calldataload\n      swap1\n      0x20\n      add\n      swap1\n      swap3\n      swap2\n      swap1\n      pop\n      pop\n      pop\n      tag_71\n      jump\t// in\n    tag_69:\n      mload(0x40)\n      dup1\n      dup4\n      dup2\n      mstore\n      0x20\n      add\n      dup3\n      dup2\n      mstore\n      0x20\n      add\n      swap3\n      pop\n      pop\n      pop\n      mload(0x40)\n      dup1\n      swap2\n      sub\n      swap1\n      return\n        /* \"contracts/router.sol\":406:447  address public immutable override factory */\n    tag_13:\n      callvalue\n        /* \"--CODEGEN--\":5:14   */\n      dup1\n        /* \"--CODEGEN--\":2:4   */\n      iszero\n      tag_72\n      jumpi\n        /* \"--CODEGEN--\":27:28   */\n      0x00\n        /* \"--CODEGEN--\":24:25   */\n      dup1\n        /* \"--CODEGEN--\":17:29   */\n      revert\n        /* \"--CODEGEN--\":2:4   */\n    tag_72:\n        /* \"contracts/router.sol\":406:447  address public immutable override factory */\n      pop\n      tag_73\n      tag_74\n      jump\t// in\n    tag_73:\n      mload(0x40)\n      dup1\n      dup3\n      0xffffffffffffffffffffffffffffffffffffffff\n      and\n      0xffffffffffffffffffffffffffffffffffffffff\n      and\n      dup2\n      mstore\n      0x20\n      add\n      swap2\n      pop\n      pop\n      mload(0x40)\n      dup1\n      swap2\n      sub\n      swap1\n      return\n        /* \"contracts/router.sol\":11290:11472  function getAmountsOut(uint amountIn, address[] calldata path) external view returns (uint[] memory amounts) {... */\n    tag_14:\n      callvalue\n        /* \"--CODEGEN--\":5:14   */\n      dup1\n        /* \"--CODEGEN--\":2:4   */\n      iszero\n      tag_75\n      jumpi\n        /* \"--CODEGEN--\":27:28   */\n      0x00\n        /* \"--CODEGEN--\":24:25   */\n      dup1\n        /* \"--CODEGEN--\":17:29   */\n      revert\n        /* \"--CODEGEN--\":2:4   */\n    tag_75:\n        /* \"contracts/router.sol\":11290:11472  function getAmountsOut(uint amountIn, address[] calldata path) external view returns (uint[] memory amounts) {... */\n      pop\n      tag_76\n      0x04\n      dup1\n      calldatasize\n      sub\n        /* \"--CODEGEN--\":15:17   */\n      0x40\n        /* \"--CODEGEN--\":10:13   */\n      dup2\n        /* \"--CODEGEN--\":7:18   */\n      lt\n        /* \"--CODEGEN--\":4:6   */\n      iszero\n      tag_77\n      jumpi\n        /* \"--CODEGEN--\":31:32   */\n      0x00\n        /* \"--CODEGEN--\":28:29   */\n      dup1\n        /* \"--CODEGEN--\":21:33   */\n      revert\n        /* \"--CODEGEN--\":4:6   */\n    tag_77:\n        /* \"contracts/router.sol\":11290:11472  function getAmountsOut(uint amountIn, address[] calldata path) external view returns (uint[] memory amounts) {... */\n      dup2\n      add\n      swap1\n      dup1\n      dup1\n      calldataload\n      swap1\n      0x20\n      add\n      swap1\n      swap3\n      swap2\n      swap1\n      dup1\n      calldataload\n      swap1\n      0x20\n      add\n      swap1\n        /* \"--CODEGEN--\":27:38   */\n      0x0100000000\n        /* \"--CODEGEN--\":14:25   */\n      dup2\n        /* \"--CODEGEN--\":11:39   */\n      gt\n        /* \"--CODEGEN--\":8:10   */\n      iszero\n      tag_78\n      jumpi\n        /* \"--CODEGEN--\":52:53   */\n      0x00\n        /* \"--CODEGEN--\":49:50   */\n      dup1\n        /* \"--CODEGEN--\":42:54   */\n      revert\n        /* \"--CODEGEN--\":8:10   */\n    tag_78:\n        /* \"contracts/router.sol\":11290:11472  function getAmountsOut(uint amountIn, address[] calldata path) external view returns (uint[] memory amounts) {... */\n      dup3\n      add\n        /* \"--CODEGEN--\":41:50   */\n      dup4\n        /* \"--CODEGEN--\":34:38   */\n      0x20\n        /* \"--CODEGEN--\":18:32   */\n      dup3\n        /* \"--CODEGEN--\":14:39   */\n      add\n        /* \"--CODEGEN--\":11:51   */\n      gt\n        /* \"--CODEGEN--\":8:10   */\n      iszero\n      tag_79\n      jumpi\n        /* \"--CODEGEN--\":64:65   */\n      0x00\n        /* \"--CODEGEN--\":61:62   */\n      dup1\n        /* \"--CODEGEN--\":54:66   */\n      revert\n        /* \"--CODEGEN--\":8:10   */\n    tag_79:\n        /* \"contracts/router.sol\":11290:11472  function getAmountsOut(uint amountIn, address[] calldata path) external view returns (uint[] memory amounts) {... */\n      dup1\n      calldataload\n      swap1\n      0x20\n      add\n      swap2\n        /* \"--CODEGEN--\":101:110   */\n      dup5\n        /* \"--CODEGEN--\":95:97   */\n      0x20\n        /* \"--CODEGEN--\":81:93   */\n      dup4\n        /* \"--CODEGEN--\":77:98   */\n      mul\n        /* \"--CODEGEN--\":67:75   */\n      dup5\n        /* \"--CODEGEN--\":63:99   */\n      add\n        /* \"--CODEGEN--\":60:111   */\n      gt\n        /* \"--CODEGEN--\":39:50   */\n      0x0100000000\n        /* \"--CODEGEN--\":25:37   */\n      dup4\n        /* \"--CODEGEN--\":22:51   */\n      gt\n        /* \"--CODEGEN--\":11:119   */\n      or\n        /* \"--CODEGEN--\":8:10   */\n      iszero\n      tag_80\n      jumpi\n        /* \"--CODEGEN--\":132:133   */\n      0x00\n        /* \"--CODEGEN--\":129:130   */\n      dup1\n        /* \"--CODEGEN--\":122:134   */\n      revert\n        /* \"--CODEGEN--\":8:10   */\n    tag_80:\n        /* \"contracts/router.sol\":11290:11472  function getAmountsOut(uint amountIn, address[] calldata path) external view returns (uint[] memory amounts) {... */\n      swap1\n      swap2\n      swap3\n      swap4\n      swap2\n      swap3\n      swap4\n      swap1\n      pop\n      pop\n      pop\n      tag_81\n      jump\t// in\n    tag_76:\n      mload(0x40)\n      dup1\n      dup1\n      0x20\n      add\n      dup3\n      dup2\n      sub\n      dup3\n      mstore\n      dup4\n      dup2\n      dup2\n      mload\n      dup2\n      mstore\n      0x20\n      add\n      swap2\n      pop\n      dup1\n      mload\n      swap1\n      0x20\n      add\n      swap1\n      0x20\n      mul\n      dup1\n      dup4\n      dup4\n        /* \"--CODEGEN--\":23:24   */\n      0x00\n        /* \"--CODEGEN--\":8:108   */\n    tag_82:\n        /* \"--CODEGEN--\":33:36   */\n      dup4\n        /* \"--CODEGEN--\":30:31   */\n      dup2\n        /* \"--CODEGEN--\":27:37   */\n      lt\n        /* \"--CODEGEN--\":8:108   */\n      iszero\n      tag_84\n      jumpi\n        /* \"--CODEGEN--\":99:100   */\n      dup1\n        /* \"--CODEGEN--\":94:97   */\n      dup3\n        /* \"--CODEGEN--\":90:101   */\n      add\n        /* \"--CODEGEN--\":84:102   */\n      mload\n        /* \"--CODEGEN--\":80:81   */\n      dup2\n        /* \"--CODEGEN--\":75:78   */\n      dup5\n        /* \"--CODEGEN--\":71:82   */\n      add\n        /* \"--CODEGEN--\":64:103   */\n      mstore\n        /* \"--CODEGEN--\":52:54   */\n      0x20\n        /* \"--CODEGEN--\":49:50   */\n      dup2\n        /* \"--CODEGEN--\":45:55   */\n      add\n        /* \"--CODEGEN--\":40:55   */\n      swap1\n      pop\n        /* \"--CODEGEN--\":8:108   */\n      jump(tag_82)\n    tag_84:\n        /* \"--CODEGEN--\":12:26   */\n      pop\n        /* \"contracts/router.sol\":11290:11472  function getAmountsOut(uint amountIn, address[] calldata path) external view returns (uint[] memory amounts) {... */\n      pop\n      pop\n      pop\n      swap1\n      pop\n      add\n      swap3\n      pop\n      pop\n      pop\n      mload(0x40)\n      dup1\n      swap2\n      sub\n      swap1\n      return\n        /* \"contracts/router.sol\":5672:6264  function removeLiquidityETHWithPermit(... */\n    tag_15:\n      callvalue\n        /* \"--CODEGEN--\":5:14   */\n      dup1\n        /* \"--CODEGEN--\":2:4   */\n      iszero\n      tag_85\n      jumpi\n        /* \"--CODEGEN--\":27:28   */\n      0x00\n        /* \"--CODEGEN--\":24:25   */\n      dup1\n        /* \"--CODEGEN--\":17:29   */\n      revert\n        /* \"--CODEGEN--\":2:4   */\n    tag_85:\n        /* \"contracts/router.sol\":5672:6264  function removeLiquidityETHWithPermit(... */\n      pop\n      tag_86\n      0x04\n      dup1\n      calldatasize\n      sub\n        /* \"--CODEGEN--\":15:18   */\n      0x0140\n        /* \"--CODEGEN--\":10:13   */\n      dup2\n        /* \"--CODEGEN--\":7:19   */\n      lt\n        /* \"--CODEGEN--\":4:6   */\n      iszero\n      tag_87\n      jumpi\n        /* \"--CODEGEN--\":32:33   */\n      0x00\n        /* \"--CODEGEN--\":29:30   */\n      dup1\n        /* \"--CODEGEN--\":22:34   */\n      revert\n        /* \"--CODEGEN--\":4:6   */\n    tag_87:\n        /* \"contracts/router.sol\":5672:6264  function removeLiquidityETHWithPermit(... */\n      dup2\n      add\n      swap1\n      dup1\n      dup1\n      calldataload\n      0xffffffffffffffffffffffffffffffffffffffff\n      and\n      swap1\n      0x20\n      add\n      swap1\n      swap3\n      swap2\n      swap1\n      dup1\n      calldataload\n      swap1\n      0x20\n      add\n      swap1\n      swap3\n      swap2\n      swap1\n      dup1\n      calldataload\n      swap1\n      0x20\n      add\n      swap1\n      swap3\n      swap2\n      swap1\n      dup1\n      calldataload\n      swap1\n      0x20\n      add\n      swap1\n      swap3\n      swap2\n      swap1\n      dup1\n      calldataload\n      0xffffffffffffffffffffffffffffffffffffffff\n      and\n      swap1\n      0x20\n      add\n      swap1\n      swap3\n      swap2\n      swap1\n      dup1\n      calldataload\n      swap1\n      0x20\n      add\n      swap1\n      swap3\n      swap2\n      swap1\n      dup1\n      calldataload\n      iszero\n      iszero\n      swap1\n      0x20\n      add\n      swap1\n      swap3\n      swap2\n      swap1\n      dup1\n      calldataload\n      0xff\n      and\n      swap1\n      0x20\n      add\n      swap1\n      swap3\n      swap2\n      swap1\n      dup1\n      calldataload\n      swap1\n      0x20\n      add\n      swap1\n      swap3\n      swap2\n      swap1\n      dup1\n      calldataload\n      swap1\n      0x20\n      add\n      swap1\n      swap3\n      swap2\n      swap1\n      pop\n      pop\n      pop\n      tag_88\n      jump\t// in\n    tag_86:\n      mload(0x40)\n      dup1\n      dup4\n      dup2\n      mstore\n      0x20\n      add\n      dup3\n      dup2\n      mstore\n      0x20\n      add\n      swap3\n      pop\n      pop\n      pop\n      mload(0x40)\n      dup1\n      swap2\n      sub\n      swap1\n      return\n        /* \"contracts/router.sol\":837:984  function getPair(address token1, address token2) external view returns (address){... */\n    tag_16:\n      callvalue\n        /* \"--CODEGEN--\":5:14   */\n      dup1\n        /* \"--CODEGEN--\":2:4   */\n      iszero\n      tag_89\n      jumpi\n        /* \"--CODEGEN--\":27:28   */\n      0x00\n        /* \"--CODEGEN--\":24:25   */\n      dup1\n        /* \"--CODEGEN--\":17:29   */\n      revert\n        /* \"--CODEGEN--\":2:4   */\n    tag_89:\n        /* \"contracts/router.sol\":837:984  function getPair(address token1, address token2) external view returns (address){... */\n      pop\n      tag_90\n      0x04\n      dup1\n      calldatasize\n      sub\n        /* \"--CODEGEN--\":15:17   */\n      0x40\n        /* \"--CODEGEN--\":10:13   */\n      dup2\n        /* \"--CODEGEN--\":7:18   */\n      lt\n        /* \"--CODEGEN--\":4:6   */\n      iszero\n      tag_91\n      jumpi\n        /* \"--CODEGEN--\":31:32   */\n      0x00\n        /* \"--CODEGEN--\":28:29   */\n      dup1\n        /* \"--CODEGEN--\":21:33   */\n      revert\n        /* \"--CODEGEN--\":4:6   */\n    tag_91:\n        /* \"contracts/router.sol\":837:984  function getPair(address token1, address token2) external view returns (address){... */\n      dup2\n      add\n      swap1\n      dup1\n      dup1\n      calldataload\n      0xffffffffffffffffffffffffffffffffffffffff\n      and\n      swap1\n      0x20\n      add\n      swap1\n      swap3\n      swap2\n      swap1\n      dup1\n      calldataload\n      0xffffffffffffffffffffffffffffffffffffffff\n      and\n      swap1\n      0x20\n      add\n      swap1\n      swap3\n      swap2\n      swap1\n      pop\n      pop\n      pop\n      tag_92\n      jump\t// in\n    tag_90:\n      mload(0x40)\n      dup1\n      dup3\n      0xffffffffffffffffffffffffffffffffffffffff\n      and\n      0xffffffffffffffffffffffffffffffffffffffff\n      and\n      dup2\n      mstore\n      0x20\n      add\n      swap2\n      pop\n      pop\n      mload(0x40)\n      dup1\n      swap2\n      sub\n      swap1\n      return\n        /* \"contracts/router.sol\":2218:2868  function addLiquidity(... */\n    tag_17:\n      callvalue\n        /* \"--CODEGEN--\":5:14   */\n      dup1\n        /* \"--CODEGEN--\":2:4   */\n      iszero\n      tag_93\n      jumpi\n        /* \"--CODEGEN--\":27:28   */\n      0x00\n        /* \"--CODEGEN--\":24:25   */\n      dup1\n        /* \"--CODEGEN--\":17:29   */\n      revert\n        /* \"--CODEGEN--\":2:4   */\n    tag_93:\n        /* \"contracts/router.sol\":2218:2868  function addLiquidity(... */\n      pop\n      tag_94\n      0x04\n      dup1\n      calldatasize\n      sub\n        /* \"--CODEGEN--\":15:18   */\n      0x0100\n        /* \"--CODEGEN--\":10:13   */\n      dup2\n        /* \"--CODEGEN--\":7:19   */\n      lt\n        /* \"--CODEGEN--\":4:6   */\n      iszero\n      tag_95\n      jumpi\n        /* \"--CODEGEN--\":32:33   */\n      0x00\n        /* \"--CODEGEN--\":29:30   */\n      dup1\n        /* \"--CODEGEN--\":22:34   */\n      revert\n        /* \"--CODEGEN--\":4:6   */\n    tag_95:\n        /* \"contracts/router.sol\":2218:2868  function addLiquidity(... */\n      dup2\n      add\n      swap1\n      dup1\n      dup1\n      calldataload\n      0xffffffffffffffffffffffffffffffffffffffff\n      and\n      swap1\n      0x20\n      add\n      swap1\n      swap3\n      swap2\n      swap1\n      dup1\n      calldataload\n      0xffffffffffffffffffffffffffffffffffffffff\n      and\n      swap1\n      0x20\n      add\n      swap1\n      swap3\n      swap2\n      swap1\n      dup1\n      calldataload\n      swap1\n      0x20\n      add\n      swap1\n      swap3\n      swap2\n      swap1\n      dup1\n      calldataload\n      swap1\n      0x20\n      add\n      swap1\n      swap3\n      swap2\n      swap1\n      dup1\n      calldataload\n      swap1\n      0x20\n      add\n      swap1\n      swap3\n      swap2\n      swap1\n      dup1\n      calldataload\n      swap1\n      0x20\n      add\n      swap1\n      swap3\n      swap2\n      swap1\n      dup1\n      calldataload\n      0xffffffffffffffffffffffffffffffffffffffff\n      and\n      swap1\n      0x20\n      add\n      swap1\n      swap3\n      swap2\n      swap1\n      dup1\n      calldataload\n      swap1\n      0x20\n      add\n      swap1\n      swap3\n      swap2\n      swap1\n      pop\n      pop\n      pop\n      tag_96\n      jump\t// in\n    tag_94:\n      mload(0x40)\n      dup1\n      dup5\n      dup2\n      mstore\n      0x20\n      add\n      dup4\n      dup2\n      mstore\n      0x20\n      add\n      dup3\n      dup2\n      mstore\n      0x20\n      add\n      swap4\n      pop\n      pop\n      pop\n      pop\n      mload(0x40)\n      dup1\n      swap2\n      sub\n      swap1\n      return\n        /* \"contracts/router.sol\":2872:3707  function addLiquidityETH(... */\n    tag_18:\n      tag_97\n      0x04\n      dup1\n      calldatasize\n      sub\n        /* \"--CODEGEN--\":15:18   */\n      0xc0\n        /* \"--CODEGEN--\":10:13   */\n      dup2\n        /* \"--CODEGEN--\":7:19   */\n      lt\n        /* \"--CODEGEN--\":4:6   */\n      iszero\n      tag_98\n      jumpi\n        /* \"--CODEGEN--\":32:33   */\n      0x00\n        /* \"--CODEGEN--\":29:30   */\n      dup1\n        /* \"--CODEGEN--\":22:34   */\n      revert\n        /* \"--CODEGEN--\":4:6   */\n    tag_98:\n        /* \"contracts/router.sol\":2872:3707  function addLiquidityETH(... */\n      dup2\n      add\n      swap1\n      dup1\n      dup1\n      calldataload\n      0xffffffffffffffffffffffffffffffffffffffff\n      and\n      swap1\n      0x20\n      add\n      swap1\n      swap3\n      swap2\n      swap1\n      dup1\n      calldataload\n      swap1\n      0x20\n      add\n      swap1\n      swap3\n      swap2\n      swap1\n      dup1\n      calldataload\n      swap1\n      0x20\n      add\n      swap1\n      swap3\n      swap2\n      swap1\n      dup1\n      calldataload\n      swap1\n      0x20\n      add\n      swap1\n      swap3\n      swap2\n      swap1\n      dup1\n      calldataload\n      0xffffffffffffffffffffffffffffffffffffffff\n      and\n      swap1\n      0x20\n      add\n      swap1\n      swap3\n      swap2\n      swap1\n      dup1\n      calldataload\n      swap1\n      0x20\n      add\n      swap1\n      swap3\n      swap2\n      swap1\n      pop\n      pop\n      pop\n      tag_99\n      jump\t// in\n    tag_97:\n      mload(0x40)\n      dup1\n      dup5\n      dup2\n      mstore\n      0x20\n      add\n      dup4\n      dup2\n      mstore\n      0x20\n      add\n      dup3\n      dup2\n      mstore\n      0x20\n      add\n      swap4\n      pop\n      pop\n      pop\n      pop\n      mload(0x40)\n      dup1\n      swap2\n      sub\n      swap1\n      return\n        /* \"contracts/router.sol\":4514:5069  function removeLiquidityETH(... */\n    tag_28:\n        /* \"contracts/router.sol\":4710:4726  uint amountToken */\n      0x00\n        /* \"contracts/router.sol\":4728:4742  uint amountETH */\n      dup1\n        /* \"contracts/router.sol\":4691:4699  deadline */\n      dup3\n        /* \"contracts/router.sol\":551:566  block.timestamp */\n      timestamp\n        /* \"contracts/router.sol\":539:547  deadline */\n      dup2\n        /* \"contracts/router.sol\":539:566  deadline >= block.timestamp */\n      lt\n      iszero\n        /* \"contracts/router.sol\":531:595  require(deadline >= block.timestamp, 'EZKaliburRouter: EXPIRED') */\n      tag_101\n      jumpi\n      mload(0x40)\n      0x08c379a000000000000000000000000000000000000000000000000000000000\n      dup2\n      mstore\n      0x04\n      add\n      dup1\n      dup1\n      0x20\n      add\n      dup3\n      dup2\n      sub\n      dup3\n      mstore\n      0x18\n      dup2\n      mstore\n      0x20\n      add\n      dup1\n      0x455a4b616c69627572526f757465723a20455850495245440000000000000000\n      dup2\n      mstore\n      pop\n      0x20\n      add\n      swap2\n      pop\n      pop\n      mload(0x40)\n      dup1\n      swap2\n      sub\n      swap1\n      revert\n    tag_101:\n        /* \"contracts/router.sol\":4777:4919  removeLiquidity(... */\n      tag_103\n        /* \"contracts/router.sol\":4800:4805  token */\n      dup10\n        /* \"contracts/router.sol\":4813:4817  WETH */\n      immutable(\"0x1ae990503def382b005be0ab67f63e79e5d8d76ebedbaef5e88f9b321d6d6a06\")\n        /* \"contracts/router.sol\":4825:4834  liquidity */\n      dup11\n        /* \"contracts/router.sol\":4842:4856  amountTokenMin */\n      dup11\n        /* \"contracts/router.sol\":4864:4876  amountETHMin */\n      dup11\n        /* \"contracts/router.sol\":4892:4896  this */\n      address\n        /* \"contracts/router.sol\":4905:4913  deadline */\n      dup11\n        /* \"contracts/router.sol\":4777:4792  removeLiquidity */\n      tag_71\n        /* \"contracts/router.sol\":4777:4919  removeLiquidity(... */\n      jump\t// in\n    tag_103:\n        /* \"contracts/router.sol\":4750:4919  (amountToken, amountETH) = removeLiquidity(... */\n      dup1\n      swap4\n      pop\n      dup2\n      swap5\n      pop\n      pop\n      pop\n        /* \"contracts/router.sol\":4925:4976  TransferHelper.safeTransfer(token, to, amountToken) */\n      tag_104\n        /* \"contracts/router.sol\":4953:4958  token */\n      dup10\n        /* \"contracts/router.sol\":4960:4962  to */\n      dup7\n        /* \"contracts/router.sol\":4964:4975  amountToken */\n      dup6\n        /* \"contracts/router.sol\":4925:4952  TransferHelper.safeTransfer */\n      tag_105\n        /* \"contracts/router.sol\":4925:4976  TransferHelper.safeTransfer(token, to, amountToken) */\n      jump\t// in\n    tag_104:\n        /* \"contracts/router.sol\":4988:4992  WETH */\n      immutable(\"0x1ae990503def382b005be0ab67f63e79e5d8d76ebedbaef5e88f9b321d6d6a06\")\n        /* \"contracts/router.sol\":4982:5002  IWETH(WETH).withdraw */\n      0xffffffffffffffffffffffffffffffffffffffff\n      and\n      0x2e1a7d4d\n        /* \"contracts/router.sol\":5003:5012  amountETH */\n      dup4\n        /* \"contracts/router.sol\":4982:5013  IWETH(WETH).withdraw(amountETH) */\n      mload(0x40)\n      dup3\n      0xffffffff\n      and\n      0xe0\n      shl\n      dup2\n      mstore\n      0x04\n      add\n      dup1\n      dup3\n      dup2\n      mstore\n      0x20\n      add\n      swap2\n      pop\n      pop\n      0x00\n      mload(0x40)\n      dup1\n      dup4\n      sub\n      dup2\n      0x00\n      dup8\n      dup1\n      extcodesize\n      iszero\n        /* \"--CODEGEN--\":5:14   */\n      dup1\n        /* \"--CODEGEN--\":2:4   */\n      iszero\n      tag_106\n      jumpi\n        /* \"--CODEGEN--\":27:28   */\n      0x00\n        /* \"--CODEGEN--\":24:25   */\n      dup1\n        /* \"--CODEGEN--\":17:29   */\n      revert\n        /* \"--CODEGEN--\":2:4   */\n    tag_106:\n        /* \"contracts/router.sol\":4982:5013  IWETH(WETH).withdraw(amountETH) */\n      pop\n      gas\n      call\n      iszero\n        /* \"--CODEGEN--\":8:17   */\n      dup1\n        /* \"--CODEGEN--\":5:7   */\n      iszero\n      tag_108\n      jumpi\n        /* \"--CODEGEN--\":45:61   */\n      returndatasize\n        /* \"--CODEGEN--\":42:43   */\n      0x00\n        /* \"--CODEGEN--\":39:40   */\n      dup1\n        /* \"--CODEGEN--\":24:62   */\n      returndatacopy\n        /* \"--CODEGEN--\":77:93   */\n      returndatasize\n        /* \"--CODEGEN--\":74:75   */\n      0x00\n        /* \"--CODEGEN--\":67:94   */\n      revert\n        /* \"--CODEGEN--\":5:7   */\n    tag_108:\n        /* \"contracts/router.sol\":4982:5013  IWETH(WETH).withdraw(amountETH) */\n      pop\n      pop\n      pop\n      pop\n        /* \"contracts/router.sol\":5019:5064  TransferHelper.safeTransferETH(to, amountETH) */\n      tag_109\n        /* \"contracts/router.sol\":5050:5052  to */\n      dup6\n        /* \"contracts/router.sol\":5054:5063  amountETH */\n      dup4\n        /* \"contracts/router.sol\":5019:5049  TransferHelper.safeTransferETH */\n      tag_110\n        /* \"contracts/router.sol\":5019:5064  TransferHelper.safeTransferETH(to, amountETH) */\n      jump\t// in\n    tag_109:\n        /* \"contracts/router.sol\":4514:5069  function removeLiquidityETH(... */\n      pop\n      swap7\n      pop\n      swap7\n      swap5\n      pop\n      pop\n      pop\n      pop\n      pop\n      jump\t// out\n        /* \"contracts/router.sol\":5073:5668  function removeLiquidityWithPermit(... */\n    tag_32:\n        /* \"contracts/router.sol\":5328:5340  uint amountA */\n      0x00\n        /* \"contracts/router.sol\":5342:5354  uint amountB */\n      dup1\n        /* \"contracts/router.sol\":5362:5374  address pair */\n      0x00\n        /* \"contracts/router.sol\":5377:5426  UniswapV2Library.pairFor(factory, tokenA, tokenB) */\n      tag_112\n        /* \"contracts/router.sol\":5402:5409  factory */\n      immutable(\"0x1c0bab9e06a591c52ac680ae9eef6479e476f64f56be5d259d46a0497cb2a9b9\")\n        /* \"contracts/router.sol\":5411:5417  tokenA */\n      dup16\n        /* \"contracts/router.sol\":5419:5425  tokenB */\n      dup16\n        /* \"contracts/router.sol\":5377:5401  UniswapV2Library.pairFor */\n      tag_113\n        /* \"contracts/router.sol\":5377:5426  UniswapV2Library.pairFor(factory, tokenA, tokenB) */\n      jump\t// in\n    tag_112:\n        /* \"contracts/router.sol\":5362:5426  address pair = UniswapV2Library.pairFor(factory, tokenA, tokenB) */\n      swap1\n      pop\n        /* \"contracts/router.sol\":5432:5442  uint value */\n      0x00\n        /* \"contracts/router.sol\":5445:5455  approveMax */\n      dup8\n        /* \"contracts/router.sol\":5445:5479  approveMax ? uint(- 1) : liquidity */\n      tag_114\n      jumpi\n        /* \"contracts/router.sol\":5470:5479  liquidity */\n      dup13\n        /* \"contracts/router.sol\":5445:5479  approveMax ? uint(- 1) : liquidity */\n      jump(tag_115)\n    tag_114:\n        /* \"contracts/router.sol\":5463:5466  - 1 */\n      0xffffffffffffffffffffffffffffffffffffffffffffffffffffffffffffffff\n        /* \"contracts/router.sol\":5445:5479  approveMax ? uint(- 1) : liquidity */\n    tag_115:\n        /* \"contracts/router.sol\":5432:5479  uint value = approveMax ? uint(- 1) : liquidity */\n      swap1\n      pop\n        /* \"contracts/router.sol\":5491:5495  pair */\n      dup2\n        /* \"contracts/router.sol\":5485:5503  IPair(pair).permit */\n      0xffffffffffffffffffffffffffffffffffffffff\n      and\n      0xd505accf\n        /* \"contracts/router.sol\":5504:5514  msg.sender */\n      caller\n        /* \"contracts/router.sol\":5524:5528  this */\n      address\n        /* \"contracts/router.sol\":5531:5536  value */\n      dup5\n        /* \"contracts/router.sol\":5538:5546  deadline */\n      dup14\n        /* \"contracts/router.sol\":5548:5549  v */\n      dup13\n        /* \"contracts/router.sol\":5551:5552  r */\n      dup13\n        /* \"contracts/router.sol\":5554:5555  s */\n      dup13\n        /* \"contracts/router.sol\":5485:5556  IPair(pair).permit(msg.sender, address(this), value, deadline, v, r, s) */\n      mload(0x40)\n      dup9\n      0xffffffff\n      and\n      0xe0\n      shl\n      dup2\n      mstore\n      0x04\n      add\n      dup1\n      dup9\n      0xffffffffffffffffffffffffffffffffffffffff\n      and\n      0xffffffffffffffffffffffffffffffffffffffff\n      and\n      dup2\n      mstore\n      0x20\n      add\n      dup8\n      0xffffffffffffffffffffffffffffffffffffffff\n      and\n      0xffffffffffffffffffffffffffffffffffffffff\n      and\n      dup2\n      mstore\n      0x20\n      add\n      dup7\n      dup2\n      mstore\n      0x20\n      add\n      dup6\n      dup2\n      mstore\n      0x20\n      add\n      dup5\n      0xff\n      and\n      0xff\n      and\n      dup2\n      mstore\n      0x20\n      add\n      dup4\n      dup2\n      mstore\n      0x20\n      add\n      dup3\n      dup2\n      mstore\n      0x20\n      add\n      swap8\n      pop\n      pop\n      pop\n      pop\n      pop\n      pop\n      pop\n      pop\n      0x00\n      mload(0x40)\n      dup1\n      dup4\n      sub\n      dup2\n      0x00\n      dup8\n      dup1\n      extcodesize\n      iszero\n        /* \"--CODEGEN--\":5:14   */\n      dup1\n        /* \"--CODEGEN--\":2:4   */\n      iszero\n      tag_116\n      jumpi\n        /* \"--CODEGEN--\":27:28   */\n      0x00\n        /* \"--CODEGEN--\":24:25   */\n      dup1\n        /* \"--CODEGEN--\":17:29   */\n      revert\n        /* \"--CODEGEN--\":2:4   */\n    tag_116:\n        /* \"contracts/router.sol\":5485:5556  IPair(pair).permit(msg.sender, address(this), value, deadline, v, r, s) */\n      pop\n      gas\n      call\n      iszero\n        /* \"--CODEGEN--\":8:17   */\n      dup1\n        /* \"--CODEGEN--\":5:7   */\n      iszero\n      tag_118\n      jumpi\n        /* \"--CODEGEN--\":45:61   */\n      returndatasize\n        /* \"--CODEGEN--\":42:43   */\n      0x00\n        /* \"--CODEGEN--\":39:40   */\n      dup1\n        /* \"--CODEGEN--\":24:62   */\n      returndatacopy\n        /* \"--CODEGEN--\":77:93   */\n      returndatasize\n        /* \"--CODEGEN--\":74:75   */\n      0x00\n        /* \"--CODEGEN--\":67:94   */\n      revert\n        /* \"--CODEGEN--\":5:7   */\n    tag_118:\n        /* \"contracts/router.sol\":5485:5556  IPair(pair).permit(msg.sender, address(this), value, deadline, v, r, s) */\n      pop\n      pop\n      pop\n      pop\n        /* \"contracts/router.sol\":5583:5663  removeLiquidity(tokenA, tokenB, liquidity, amountAMin, amountBMin, to, deadline) */\n      tag_119\n        /* \"contracts/router.sol\":5599:5605  tokenA */\n      dup16\n        /* \"contracts/router.sol\":5607:5613  tokenB */\n      dup16\n        /* \"contracts/router.sol\":5615:5624  liquidity */\n      dup16\n        /* \"contracts/router.sol\":5626:5636  amountAMin */\n      dup16\n        /* \"contracts/router.sol\":5638:5648  amountBMin */\n      dup16\n        /* \"contracts/router.sol\":5650:5652  to */\n      dup16\n        /* \"contracts/router.sol\":5654:5662  deadline */\n      dup16\n        /* \"contracts/router.sol\":5583:5598  removeLiquidity */\n      tag_71\n        /* \"contracts/router.sol\":5583:5663  removeLiquidity(tokenA, tokenB, liquidity, amountAMin, amountBMin, to, deadline) */\n      jump\t// in\n    tag_119:\n        /* \"contracts/router.sol\":5562:5663  (amountA, amountB) = removeLiquidity(tokenA, tokenB, liquidity, amountAMin, amountBMin, to, deadline) */\n      dup1\n      swap5\n      pop\n      dup2\n      swap6\n      pop\n      pop\n      pop\n        /* \"contracts/router.sol\":5073:5668  function removeLiquidityWithPermit(... */\n      pop\n      pop\n      swap12\n      pop\n      swap12\n      swap10\n      pop\n      pop\n      pop\n      pop\n      pop\n      pop\n      pop\n      pop\n      pop\n      pop\n      jump\t// out\n        /* \"contracts/router.sol\":10211:10967  function swapExactTokensForETHSupportingFeeOnTransferTokens(... */\n    tag_39:\n        /* \"contracts/router.sol\":10434:10442  deadline */\n      dup1\n        /* \"contracts/router.sol\":551:566  block.timestamp */\n      timestamp\n        /* \"contracts/router.sol\":539:547  deadline */\n      dup2\n        /* \"contracts/router.sol\":539:566  deadline >= block.timestamp */\n      lt\n      iszero\n        /* \"contracts/router.sol\":531:595  require(deadline >= block.timestamp, 'EZKaliburRouter: EXPIRED') */\n      tag_121\n      jumpi\n      mload(0x40)\n      0x08c379a000000000000000000000000000000000000000000000000000000000\n      dup2\n      mstore\n      0x04\n      add\n      dup1\n      dup1\n      0x20\n      add\n      dup3\n      dup2\n      sub\n      dup3\n      mstore\n      0x18\n      dup2\n      mstore\n      0x20\n      add\n      dup1\n      0x455a4b616c69627572526f757465723a20455850495245440000000000000000\n      dup2\n      mstore\n      pop\n      0x20\n      add\n      swap2\n      pop\n      pop\n      mload(0x40)\n      dup1\n      swap2\n      sub\n      swap1\n      revert\n    tag_121:\n        /* \"contracts/router.sol\":10485:10489  WETH */\n      immutable(\"0x1ae990503def382b005be0ab67f63e79e5d8d76ebedbaef5e88f9b321d6d6a06\")\n        /* \"contracts/router.sol\":10460:10489  path[path.length - 1] == WETH */\n      0xffffffffffffffffffffffffffffffffffffffff\n      and\n        /* \"contracts/router.sol\":10460:10464  path */\n      dup7\n      dup7\n        /* \"contracts/router.sol\":10479:10480  1 */\n      0x01\n        /* \"contracts/router.sol\":10465:10469  path */\n      dup10\n      dup10\n        /* \"contracts/router.sol\":10465:10476  path.length */\n      swap1\n      pop\n        /* \"contracts/router.sol\":10465:10480  path.length - 1 */\n      sub\n        /* \"contracts/router.sol\":10460:10481  path[path.length - 1] */\n      dup2\n      dup2\n      lt\n      tag_123\n      jumpi\n      invalid\n    tag_123:\n      swap1\n      pop\n      0x20\n      mul\n      add\n      calldataload\n      0xffffffffffffffffffffffffffffffffffffffff\n      and\n        /* \"contracts/router.sol\":10460:10489  path[path.length - 1] == WETH */\n      0xffffffffffffffffffffffffffffffffffffffff\n      and\n      eq\n        /* \"contracts/router.sol\":10452:10523  require(path[path.length - 1] == WETH, 'EZKaliburRouter: INVALID_PATH') */\n      tag_124\n      jumpi\n      mload(0x40)\n      0x08c379a000000000000000000000000000000000000000000000000000000000\n      dup2\n      mstore\n      0x04\n      add\n      dup1\n      dup1\n      0x20\n      add\n      dup3\n      dup2\n      sub\n      dup3\n      mstore\n      0x1d\n      dup2\n      mstore\n      0x20\n      add\n      dup1\n      0x455a4b616c69627572526f757465723a20494e56414c49445f50415448000000\n      dup2\n      mstore\n      pop\n      0x20\n      add\n      swap2\n      pop\n      pop\n      mload(0x40)\n      dup1\n      swap2\n      sub\n      swap1\n      revert\n    tag_124:\n        /* \"contracts/router.sol\":10529:10656  TransferHelper.safeTransferFrom(... */\n      tag_125\n        /* \"contracts/router.sol\":10568:10572  path */\n      dup7\n      dup7\n        /* \"contracts/router.sol\":10573:10574  0 */\n      0x00\n        /* \"contracts/router.sol\":10568:10575  path[0] */\n      dup2\n      dup2\n      lt\n      tag_126\n      jumpi\n      invalid\n    tag_126:\n      swap1\n      pop\n      0x20\n      mul\n      add\n      calldataload\n      0xffffffffffffffffffffffffffffffffffffffff\n      and\n        /* \"contracts/router.sol\":10577:10587  msg.sender */\n      caller\n        /* \"contracts/router.sol\":10589:10640  UniswapV2Library.pairFor(factory, path[0], path[1]) */\n      tag_127\n        /* \"contracts/router.sol\":10614:10621  factory */\n      immutable(\"0x1c0bab9e06a591c52ac680ae9eef6479e476f64f56be5d259d46a0497cb2a9b9\")\n        /* \"contracts/router.sol\":10623:10627  path */\n      dup11\n      dup11\n        /* \"contracts/router.sol\":10628:10629  0 */\n      0x00\n        /* \"contracts/router.sol\":10623:10630  path[0] */\n      dup2\n      dup2\n      lt\n      tag_128\n      jumpi\n      invalid\n    tag_128:\n      swap1\n      pop\n      0x20\n      mul\n      add\n      calldataload\n      0xffffffffffffffffffffffffffffffffffffffff\n      and\n        /* \"contracts/router.sol\":10632:10636  path */\n      dup12\n      dup12\n        /* \"contracts/router.sol\":10637:10638  1 */\n      0x01\n        /* \"contracts/router.sol\":10632:10639  path[1] */\n      dup2\n      dup2\n      lt\n      tag_129\n      jumpi\n      invalid\n    tag_129:\n      swap1\n      pop\n      0x20\n      mul\n      add\n      calldataload\n      0xffffffffffffffffffffffffffffffffffffffff\n      and\n        /* \"contracts/router.sol\":10589:10613  UniswapV2Library.pairFor */\n      tag_113\n        /* \"contracts/router.sol\":10589:10640  UniswapV2Library.pairFor(factory, path[0], path[1]) */\n      jump\t// in\n    tag_127:\n        /* \"contracts/router.sol\":10642:10650  amountIn */\n      dup12\n        /* \"contracts/router.sol\":10529:10560  TransferHelper.safeTransferFrom */\n      tag_130\n        /* \"contracts/router.sol\":10529:10656  TransferHelper.safeTransferFrom(... */\n      jump\t// in\n    tag_125:\n        /* \"contracts/router.sol\":10662:10727  _swapSupportingFeeOnTransferTokens(path, address(this), referrer) */\n      tag_131\n        /* \"contracts/router.sol\":10697:10701  path */\n      dup7\n      dup7\n        /* \"contracts/router.sol\":10662:10727  _swapSupportingFeeOnTransferTokens(path, address(this), referrer) */\n      dup1\n      dup1\n      0x20\n      mul\n      0x20\n      add\n      mload(0x40)\n      swap1\n      dup2\n      add\n      0x40\n      mstore\n      dup1\n      swap4\n      swap3\n      swap2\n      swap1\n      dup2\n      dup2\n      mstore\n      0x20\n      add\n      dup4\n      dup4\n      0x20\n      mul\n        /* \"--CODEGEN--\":30:33   */\n      dup1\n        /* \"--CODEGEN--\":22:28   */\n      dup3\n        /* \"--CODEGEN--\":14:20   */\n      dup5\n        /* \"--CODEGEN--\":1:34   */\n      calldatacopy\n        /* \"--CODEGEN--\":99:100   */\n      0x00\n        /* \"--CODEGEN--\":93:96   */\n      dup2\n        /* \"--CODEGEN--\":85:91   */\n      dup5\n        /* \"--CODEGEN--\":81:97   */\n      add\n        /* \"--CODEGEN--\":74:101   */\n      mstore\n        /* \"--CODEGEN--\":137:141   */\n      0x1f\n        /* \"--CODEGEN--\":133:142   */\n      not\n        /* \"--CODEGEN--\":126:130   */\n      0x1f\n        /* \"--CODEGEN--\":121:124   */\n      dup3\n        /* \"--CODEGEN--\":117:131   */\n      add\n        /* \"--CODEGEN--\":113:143   */\n      and\n        /* \"--CODEGEN--\":106:143   */\n      swap1\n      pop\n        /* \"--CODEGEN--\":169:172   */\n      dup1\n        /* \"--CODEGEN--\":161:167   */\n      dup4\n        /* \"--CODEGEN--\":157:173   */\n      add\n        /* \"--CODEGEN--\":147:173   */\n      swap3\n      pop\n        /* \"contracts/router.sol\":10662:10727  _swapSupportingFeeOnTransferTokens(path, address(this), referrer) */\n      pop\n      pop\n      pop\n      pop\n      pop\n      pop\n        /* \"contracts/router.sol\":10711:10715  this */\n      address\n        /* \"contracts/router.sol\":10718:10726  referrer */\n      dup6\n        /* \"contracts/router.sol\":10662:10696  _swapSupportingFeeOnTransferTokens */\n      tag_132\n        /* \"contracts/router.sol\":10662:10727  _swapSupportingFeeOnTransferTokens(path, address(this), referrer) */\n      jump\t// in\n    tag_131:\n        /* \"contracts/router.sol\":10733:10747  uint amountOut */\n      0x00\n        /* \"contracts/router.sol\":10757:10761  WETH */\n      immutable(\"0x1ae990503def382b005be0ab67f63e79e5d8d76ebedbaef5e88f9b321d6d6a06\")\n        /* \"contracts/router.sol\":10750:10772  IERC20(WETH).balanceOf */\n      0xffffffffffffffffffffffffffffffffffffffff\n      and\n      0x70a08231\n        /* \"contracts/router.sol\":10781:10785  this */\n      address\n        /* \"contracts/router.sol\":10750:10787  IERC20(WETH).balanceOf(address(this)) */\n      mload(0x40)\n      dup3\n      0xffffffff\n      and\n      0xe0\n      shl\n      dup2\n      mstore\n      0x04\n      add\n      dup1\n      dup3\n      0xffffffffffffffffffffffffffffffffffffffff\n      and\n      0xffffffffffffffffffffffffffffffffffffffff\n      and\n      dup2\n      mstore\n      0x20\n      add\n      swap2\n      pop\n      pop\n      0x20\n      mload(0x40)\n      dup1\n      dup4\n      sub\n      dup2\n      dup7\n      dup1\n      extcodesize\n      iszero\n        /* \"--CODEGEN--\":5:14   */\n      dup1\n        /* \"--CODEGEN--\":2:4   */\n      iszero\n      tag_133\n      jumpi\n        /* \"--CODEGEN--\":27:28   */\n      0x00\n        /* \"--CODEGEN--\":24:25   */\n      dup1\n        /* \"--CODEGEN--\":17:29   */\n      revert\n        /* \"--CODEGEN--\":2:4   */\n    tag_133:\n        /* \"contracts/router.sol\":10750:10787  IERC20(WETH).balanceOf(address(this)) */\n      pop\n      gas\n      staticcall\n      iszero\n        /* \"--CODEGEN--\":8:17   */\n      dup1\n        /* \"--CODEGEN--\":5:7   */\n      iszero\n      tag_135\n      jumpi\n        /* \"--CODEGEN--\":45:61   */\n      returndatasize\n        /* \"--CODEGEN--\":42:43   */\n      0x00\n        /* \"--CODEGEN--\":39:40   */\n      dup1\n        /* \"--CODEGEN--\":24:62   */\n      returndatacopy\n        /* \"--CODEGEN--\":77:93   */\n      returndatasize\n        /* \"--CODEGEN--\":74:75   */\n      0x00\n        /* \"--CODEGEN--\":67:94   */\n      revert\n        /* \"--CODEGEN--\":5:7   */\n    tag_135:\n        /* \"contracts/router.sol\":10750:10787  IERC20(WETH).balanceOf(address(this)) */\n      pop\n      pop\n      pop\n      pop\n      mload(0x40)\n      returndatasize\n        /* \"--CODEGEN--\":15:17   */\n      0x20\n        /* \"--CODEGEN--\":10:13   */\n      dup2\n        /* \"--CODEGEN--\":7:18   */\n      lt\n        /* \"--CODEGEN--\":4:6   */\n      iszero\n      tag_136\n      jumpi\n        /* \"--CODEGEN--\":31:32   */\n      0x00\n        /* \"--CODEGEN--\":28:29   */\n      dup1\n        /* \"--CODEGEN--\":21:33   */\n      revert\n        /* \"--CODEGEN--\":4:6   */\n    tag_136:\n        /* \"contracts/router.sol\":10750:10787  IERC20(WETH).balanceOf(address(this)) */\n      dup2\n      add\n      swap1\n      dup1\n      dup1\n      mload\n      swap1\n      0x20\n      add\n      swap1\n      swap3\n      swap2\n      swap1\n      pop\n      pop\n      pop\n        /* \"contracts/router.sol\":10733:10787  uint amountOut = IERC20(WETH).balanceOf(address(this)) */\n      swap1\n      pop\n        /* \"contracts/router.sol\":10814:10826  amountOutMin */\n      dup8\n        /* \"contracts/router.sol\":10801:10810  amountOut */\n      dup2\n        /* \"contracts/router.sol\":10801:10826  amountOut >= amountOutMin */\n      lt\n      iszero\n        /* \"contracts/router.sol\":10793:10874  require(amountOut >= amountOutMin, 'EZKaliburRouter: INSUFFICIENT_OUTPUT_AMOUNT') */\n      tag_137\n      jumpi\n      mload(0x40)\n      0x08c379a000000000000000000000000000000000000000000000000000000000\n      dup2\n      mstore\n      0x04\n      add\n      dup1\n      dup1\n      0x20\n      add\n      dup3\n      dup2\n      sub\n      dup3\n      mstore\n      0x2b\n      dup2\n      mstore\n      0x20\n      add\n      dup1\n      data_030eff30113124dc48ff0ea753a3ee23ef46fa107270955ce907ad89212695e5\n      0x2b\n      swap2\n      codecopy\n      0x40\n      add\n      swap2\n      pop\n      pop\n      mload(0x40)\n      dup1\n      swap2\n      sub\n      swap1\n      revert\n    tag_137:\n        /* \"contracts/router.sol\":10886:10890  WETH */\n      immutable(\"0x1ae990503def382b005be0ab67f63e79e5d8d76ebedbaef5e88f9b321d6d6a06\")\n        /* \"contracts/router.sol\":10880:10900  IWETH(WETH).withdraw */\n      0xffffffffffffffffffffffffffffffffffffffff\n      and\n      0x2e1a7d4d\n        /* \"contracts/router.sol\":10901:10910  amountOut */\n      dup3\n        /* \"contracts/router.sol\":10880:10911  IWETH(WETH).withdraw(amountOut) */\n      mload(0x40)\n      dup3\n      0xffffffff\n      and\n      0xe0\n      shl\n      dup2\n      mstore\n      0x04\n      add\n      dup1\n      dup3\n      dup2\n      mstore\n      0x20\n      add\n      swap2\n      pop\n      pop\n      0x00\n      mload(0x40)\n      dup1\n      dup4\n      sub\n      dup2\n      0x00\n      dup8\n      dup1\n      extcodesize\n      iszero\n        /* \"--CODEGEN--\":5:14   */\n      dup1\n        /* \"--CODEGEN--\":2:4   */\n      iszero\n      tag_138\n      jumpi\n        /* \"--CODEGEN--\":27:28   */\n      0x00\n        /* \"--CODEGEN--\":24:25   */\n      dup1\n        /* \"--CODEGEN--\":17:29   */\n      revert\n        /* \"--CODEGEN--\":2:4   */\n    tag_138:\n        /* \"contracts/router.sol\":10880:10911  IWETH(WETH).withdraw(amountOut) */\n      pop\n      gas\n      call\n      iszero\n        /* \"--CODEGEN--\":8:17   */\n      dup1\n        /* \"--CODEGEN--\":5:7   */\n      iszero\n      tag_140\n      jumpi\n        /* \"--CODEGEN--\":45:61   */\n      returndatasize\n        /* \"--CODEGEN--\":42:43   */\n      0x00\n        /* \"--CODEGEN--\":39:40   */\n      dup1\n        /* \"--CODEGEN--\":24:62   */\n      returndatacopy\n        /* \"--CODEGEN--\":77:93   */\n      returndatasize\n        /* \"--CODEGEN--\":74:75   */\n      0x00\n        /* \"--CODEGEN--\":67:94   */\n      revert\n        /* \"--CODEGEN--\":5:7   */\n    tag_140:\n        /* \"contracts/router.sol\":10880:10911  IWETH(WETH).withdraw(amountOut) */\n      pop\n      pop\n      pop\n      pop\n        /* \"contracts/router.sol\":10917:10962  TransferHelper.safeTransferETH(to, amountOut) */\n      tag_141\n        /* \"contracts/router.sol\":10948:10950  to */\n      dup6\n        /* \"contracts/router.sol\":10952:10961  amountOut */\n      dup3\n        /* \"contracts/router.sol\":10917:10947  TransferHelper.safeTransferETH */\n      tag_110\n        /* \"contracts/router.sol\":10917:10962  TransferHelper.safeTransferETH(to, amountOut) */\n      jump\t// in\n    tag_141:\n        /* \"contracts/router.sol\":601:602  _ */\n      pop\n        /* \"contracts/router.sol\":10211:10967  function swapExactTokensForETHSupportingFeeOnTransferTokens(... */\n      pop\n      pop\n      pop\n      pop\n      pop\n      pop\n      pop\n      pop\n      jump\t// out\n        /* \"contracts/router.sol\":6922:7551  function removeLiquidityETHWithPermitSupportingFeeOnTransferTokens(... */\n    tag_43:\n        /* \"contracts/router.sol\":7194:7208  uint amountETH */\n      0x00\n        /* \"contracts/router.sol\":7216:7228  address pair */\n      dup1\n        /* \"contracts/router.sol\":7231:7277  UniswapV2Library.pairFor(factory, token, WETH) */\n      tag_143\n        /* \"contracts/router.sol\":7256:7263  factory */\n      immutable(\"0x1c0bab9e06a591c52ac680ae9eef6479e476f64f56be5d259d46a0497cb2a9b9\")\n        /* \"contracts/router.sol\":7265:7270  token */\n      dup14\n        /* \"contracts/router.sol\":7272:7276  WETH */\n      immutable(\"0x1ae990503def382b005be0ab67f63e79e5d8d76ebedbaef5e88f9b321d6d6a06\")\n        /* \"contracts/router.sol\":7231:7255  UniswapV2Library.pairFor */\n      tag_113\n        /* \"contracts/router.sol\":7231:7277  UniswapV2Library.pairFor(factory, token, WETH) */\n      jump\t// in\n    tag_143:\n        /* \"contracts/router.sol\":7216:7277  address pair = UniswapV2Library.pairFor(factory, token, WETH) */\n      swap1\n      pop\n        /* \"contracts/router.sol\":7283:7293  uint value */\n      0x00\n        /* \"contracts/router.sol\":7296:7306  approveMax */\n      dup7\n        /* \"contracts/router.sol\":7296:7330  approveMax ? uint(- 1) : liquidity */\n      tag_144\n      jumpi\n        /* \"contracts/router.sol\":7321:7330  liquidity */\n      dup12\n        /* \"contracts/router.sol\":7296:7330  approveMax ? uint(- 1) : liquidity */\n      jump(tag_145)\n    tag_144:\n        /* \"contracts/router.sol\":7314:7317  - 1 */\n      0xffffffffffffffffffffffffffffffffffffffffffffffffffffffffffffffff\n        /* \"contracts/router.sol\":7296:7330  approveMax ? uint(- 1) : liquidity */\n    tag_145:\n        /* \"contracts/router.sol\":7283:7330  uint value = approveMax ? uint(- 1) : liquidity */\n      swap1\n      pop\n        /* \"contracts/router.sol\":7342:7346  pair */\n      dup2\n        /* \"contracts/router.sol\":7336:7354  IPair(pair).permit */\n      0xffffffffffffffffffffffffffffffffffffffff\n      and\n      0xd505accf\n        /* \"contracts/router.sol\":7355:7365  msg.sender */\n      caller\n        /* \"contracts/router.sol\":7375:7379  this */\n      address\n        /* \"contracts/router.sol\":7382:7387  value */\n      dup5\n        /* \"contracts/router.sol\":7389:7397  deadline */\n      dup13\n        /* \"contracts/router.sol\":7399:7400  v */\n      dup12\n        /* \"contracts/router.sol\":7402:7403  r */\n      dup12\n        /* \"contracts/router.sol\":7405:7406  s */\n      dup12\n        /* \"contracts/router.sol\":7336:7407  IPair(pair).permit(msg.sender, address(this), value, deadline, v, r, s) */\n      mload(0x40)\n      dup9\n      0xffffffff\n      and\n      0xe0\n      shl\n      dup2\n      mstore\n      0x04\n      add\n      dup1\n      dup9\n      0xffffffffffffffffffffffffffffffffffffffff\n      and\n      0xffffffffffffffffffffffffffffffffffffffff\n      and\n      dup2\n      mstore\n      0x20\n      add\n      dup8\n      0xffffffffffffffffffffffffffffffffffffffff\n      and\n      0xffffffffffffffffffffffffffffffffffffffff\n      and\n      dup2\n      mstore\n      0x20\n      add\n      dup7\n      dup2\n      mstore\n      0x20\n      add\n      dup6\n      dup2\n      mstore\n      0x20\n      add\n      dup5\n      0xff\n      and\n      0xff\n      and\n      dup2\n      mstore\n      0x20\n      add\n      dup4\n      dup2\n      mstore\n      0x20\n      add\n      dup3\n      dup2\n      mstore\n      0x20\n      add\n      swap8\n      pop\n      pop\n      pop\n      pop\n      pop\n      pop\n      pop\n      pop\n      0x00\n      mload(0x40)\n      dup1\n      dup4\n      sub\n      dup2\n      0x00\n      dup8\n      dup1\n      extcodesize\n      iszero\n        /* \"--CODEGEN--\":5:14   */\n      dup1\n        /* \"--CODEGEN--\":2:4   */\n      iszero\n      tag_146\n      jumpi\n        /* \"--CODEGEN--\":27:28   */\n      0x00\n        /* \"--CODEGEN--\":24:25   */\n      dup1\n        /* \"--CODEGEN--\":17:29   */\n      revert\n        /* \"--CODEGEN--\":2:4   */\n    tag_146:\n        /* \"contracts/router.sol\":7336:7407  IPair(pair).permit(msg.sender, address(this), value, deadline, v, r, s) */\n      pop\n      gas\n      call\n      iszero\n        /* \"--CODEGEN--\":8:17   */\n      dup1\n        /* \"--CODEGEN--\":5:7   */\n      iszero\n      tag_148\n      jumpi\n        /* \"--CODEGEN--\":45:61   */\n      returndatasize\n        /* \"--CODEGEN--\":42:43   */\n      0x00\n        /* \"--CODEGEN--\":39:40   */\n      dup1\n        /* \"--CODEGEN--\":24:62   */\n      returndatacopy\n        /* \"--CODEGEN--\":77:93   */\n      returndatasize\n        /* \"--CODEGEN--\":74:75   */\n      0x00\n        /* \"--CODEGEN--\":67:94   */\n      revert\n        /* \"--CODEGEN--\":5:7   */\n    tag_148:\n        /* \"contracts/router.sol\":7336:7407  IPair(pair).permit(msg.sender, address(this), value, deadline, v, r, s) */\n      pop\n      pop\n      pop\n      pop\n        /* \"contracts/router.sol\":7425:7546  removeLiquidityETHSupportingFeeOnTransferTokens(... */\n      tag_149\n        /* \"contracts/router.sol\":7480:7485  token */\n      dup14\n        /* \"contracts/router.sol\":7487:7496  liquidity */\n      dup14\n        /* \"contracts/router.sol\":7498:7512  amountTokenMin */\n      dup14\n        /* \"contracts/router.sol\":7514:7526  amountETHMin */\n      dup14\n        /* \"contracts/router.sol\":7528:7530  to */\n      dup14\n        /* \"contracts/router.sol\":7532:7540  deadline */\n      dup14\n        /* \"contracts/router.sol\":7425:7472  removeLiquidityETHSupportingFeeOnTransferTokens */\n      tag_61\n        /* \"contracts/router.sol\":7425:7546  removeLiquidityETHSupportingFeeOnTransferTokens(... */\n      jump\t// in\n    tag_149:\n        /* \"contracts/router.sol\":7413:7546  amountETH = removeLiquidityETHSupportingFeeOnTransferTokens(... */\n      swap3\n      pop\n        /* \"contracts/router.sol\":6922:7551  function removeLiquidityETHWithPermitSupportingFeeOnTransferTokens(... */\n      pop\n      pop\n      swap11\n      swap10\n      pop\n      pop\n      pop\n      pop\n      pop\n      pop\n      pop\n      pop\n      pop\n      pop\n      jump\t// out\n        /* \"contracts/router.sol\":8791:9447  function swapExactTokensForTokensSupportingFeeOnTransferTokens(... */\n    tag_50:\n        /* \"contracts/router.sol\":9011:9019  deadline */\n      dup1\n        /* \"contracts/router.sol\":551:566  block.timestamp */\n      timestamp\n        /* \"contracts/router.sol\":539:547  deadline */\n      dup2\n        /* \"contracts/router.sol\":539:566  deadline >= block.timestamp */\n      lt\n      iszero\n        /* \"contracts/router.sol\":531:595  require(deadline >= block.timestamp, 'EZKaliburRouter: EXPIRED') */\n      tag_151\n      jumpi\n      mload(0x40)\n      0x08c379a000000000000000000000000000000000000000000000000000000000\n      dup2\n      mstore\n      0x04\n      add\n      dup1\n      dup1\n      0x20\n      add\n      dup3\n      dup2\n      sub\n      dup3\n      mstore\n      0x18\n      dup2\n      mstore\n      0x20\n      add\n      dup1\n      0x455a4b616c69627572526f757465723a20455850495245440000000000000000\n      dup2\n      mstore\n      pop\n      0x20\n      add\n      swap2\n      pop\n      pop\n      mload(0x40)\n      dup1\n      swap2\n      sub\n      swap1\n      revert\n    tag_151:\n        /* \"contracts/router.sol\":9027:9154  TransferHelper.safeTransferFrom(... */\n      tag_153\n        /* \"contracts/router.sol\":9066:9070  path */\n      dup7\n      dup7\n        /* \"contracts/router.sol\":9071:9072  0 */\n      0x00\n        /* \"contracts/router.sol\":9066:9073  path[0] */\n      dup2\n      dup2\n      lt\n      tag_154\n      jumpi\n      invalid\n    tag_154:\n      swap1\n      pop\n      0x20\n      mul\n      add\n      calldataload\n      0xffffffffffffffffffffffffffffffffffffffff\n      and\n        /* \"contracts/router.sol\":9075:9085  msg.sender */\n      caller\n        /* \"contracts/router.sol\":9087:9138  UniswapV2Library.pairFor(factory, path[0], path[1]) */\n      tag_155\n        /* \"contracts/router.sol\":9112:9119  factory */\n      immutable(\"0x1c0bab9e06a591c52ac680ae9eef6479e476f64f56be5d259d46a0497cb2a9b9\")\n        /* \"contracts/router.sol\":9121:9125  path */\n      dup11\n      dup11\n        /* \"contracts/router.sol\":9126:9127  0 */\n      0x00\n        /* \"contracts/router.sol\":9121:9128  path[0] */\n      dup2\n      dup2\n      lt\n      tag_156\n      jumpi\n      invalid\n    tag_156:\n      swap1\n      pop\n      0x20\n      mul\n      add\n      calldataload\n      0xffffffffffffffffffffffffffffffffffffffff\n      and\n        /* \"contracts/router.sol\":9130:9134  path */\n      dup12\n      dup12\n        /* \"contracts/router.sol\":9135:9136  1 */\n      0x01\n        /* \"contracts/router.sol\":9130:9137  path[1] */\n      dup2\n      dup2\n      lt\n      tag_157\n      jumpi\n      invalid\n    tag_157:\n      swap1\n      pop\n      0x20\n      mul\n      add\n      calldataload\n      0xffffffffffffffffffffffffffffffffffffffff\n      and\n        /* \"contracts/router.sol\":9087:9111  UniswapV2Library.pairFor */\n      tag_113\n        /* \"contracts/router.sol\":9087:9138  UniswapV2Library.pairFor(factory, path[0], path[1]) */\n      jump\t// in\n    tag_155:\n        /* \"contracts/router.sol\":9140:9148  amountIn */\n      dup12\n        /* \"contracts/router.sol\":9027:9058  TransferHelper.safeTransferFrom */\n      tag_130\n        /* \"contracts/router.sol\":9027:9154  TransferHelper.safeTransferFrom(... */\n      jump\t// in\n    tag_153:\n        /* \"contracts/router.sol\":9160:9178  uint balanceBefore */\n      0x00\n        /* \"contracts/router.sol\":9188:9192  path */\n      dup7\n      dup7\n        /* \"contracts/router.sol\":9207:9208  1 */\n      0x01\n        /* \"contracts/router.sol\":9193:9197  path */\n      dup10\n      dup10\n        /* \"contracts/router.sol\":9193:9204  path.length */\n      swap1\n      pop\n        /* \"contracts/router.sol\":9193:9208  path.length - 1 */\n      sub\n        /* \"contracts/router.sol\":9188:9209  path[path.length - 1] */\n      dup2\n      dup2\n      lt\n      tag_158\n      jumpi\n      invalid\n    tag_158:\n      swap1\n      pop\n      0x20\n      mul\n      add\n      calldataload\n      0xffffffffffffffffffffffffffffffffffffffff\n      and\n        /* \"contracts/router.sol\":9181:9220  IERC20(path[path.length - 1]).balanceOf */\n      0xffffffffffffffffffffffffffffffffffffffff\n      and\n      0x70a08231\n        /* \"contracts/router.sol\":9221:9223  to */\n      dup7\n        /* \"contracts/router.sol\":9181:9224  IERC20(path[path.length - 1]).balanceOf(to) */\n      mload(0x40)\n      dup3\n      0xffffffff\n      and\n      0xe0\n      shl\n      dup2\n      mstore\n      0x04\n      add\n      dup1\n      dup3\n      0xffffffffffffffffffffffffffffffffffffffff\n      and\n      0xffffffffffffffffffffffffffffffffffffffff\n      and\n      dup2\n      mstore\n      0x20\n      add\n      swap2\n      pop\n      pop\n      0x20\n      mload(0x40)\n      dup1\n      dup4\n      sub\n      dup2\n      dup7\n      dup1\n      extcodesize\n      iszero\n        /* \"--CODEGEN--\":5:14   */\n      dup1\n        /* \"--CODEGEN--\":2:4   */\n      iszero\n      tag_159\n      jumpi\n        /* \"--CODEGEN--\":27:28   */\n      0x00\n        /* \"--CODEGEN--\":24:25   */\n      dup1\n        /* \"--CODEGEN--\":17:29   */\n      revert\n        /* \"--CODEGEN--\":2:4   */\n    tag_159:\n        /* \"contracts/router.sol\":9181:9224  IERC20(path[path.length - 1]).balanceOf(to) */\n      pop\n      gas\n      staticcall\n      iszero\n        /* \"--CODEGEN--\":8:17   */\n      dup1\n        /* \"--CODEGEN--\":5:7   */\n      iszero\n      tag_161\n      jumpi\n        /* \"--CODEGEN--\":45:61   */\n      returndatasize\n        /* \"--CODEGEN--\":42:43   */\n      0x00\n        /* \"--CODEGEN--\":39:40   */\n      dup1\n        /* \"--CODEGEN--\":24:62   */\n      returndatacopy\n        /* \"--CODEGEN--\":77:93   */\n      returndatasize\n        /* \"--CODEGEN--\":74:75   */\n      0x00\n        /* \"--CODEGEN--\":67:94   */\n      revert\n        /* \"--CODEGEN--\":5:7   */\n    tag_161:\n        /* \"contracts/router.sol\":9181:9224  IERC20(path[path.length - 1]).balanceOf(to) */\n      pop\n      pop\n      pop\n      pop\n      mload(0x40)\n      returndatasize\n        /* \"--CODEGEN--\":15:17   */\n      0x20\n        /* \"--CODEGEN--\":10:13   */\n      dup2\n        /* \"--CODEGEN--\":7:18   */\n      lt\n        /* \"--CODEGEN--\":4:6   */\n      iszero\n      tag_162\n      jumpi\n        /* \"--CODEGEN--\":31:32   */\n      0x00\n        /* \"--CODEGEN--\":28:29   */\n      dup1\n        /* \"--CODEGEN--\":21:33   */\n      revert\n        /* \"--CODEGEN--\":4:6   */\n    tag_162:\n        /* \"contracts/router.sol\":9181:9224  IERC20(path[path.length - 1]).balanceOf(to) */\n      dup2\n      add\n      swap1\n      dup1\n      dup1\n      mload\n      swap1\n      0x20\n      add\n      swap1\n      swap3\n      swap2\n      swap1\n      pop\n      pop\n      pop\n        /* \"contracts/router.sol\":9160:9224  uint balanceBefore = IERC20(path[path.length - 1]).balanceOf(to) */\n      swap1\n      pop\n        /* \"contracts/router.sol\":9230:9284  _swapSupportingFeeOnTransferTokens(path, to, referrer) */\n      tag_163\n        /* \"contracts/router.sol\":9265:9269  path */\n      dup8\n      dup8\n        /* \"contracts/router.sol\":9230:9284  _swapSupportingFeeOnTransferTokens(path, to, referrer) */\n      dup1\n      dup1\n      0x20\n      mul\n      0x20\n      add\n      mload(0x40)\n      swap1\n      dup2\n      add\n      0x40\n      mstore\n      dup1\n      swap4\n      swap3\n      swap2\n      swap1\n      dup2\n      dup2\n      mstore\n      0x20\n      add\n      dup4\n      dup4\n      0x20\n      mul\n        /* \"--CODEGEN--\":30:33   */\n      dup1\n        /* \"--CODEGEN--\":22:28   */\n      dup3\n        /* \"--CODEGEN--\":14:20   */\n      dup5\n        /* \"--CODEGEN--\":1:34   */\n      calldatacopy\n        /* \"--CODEGEN--\":99:100   */\n      0x00\n        /* \"--CODEGEN--\":93:96   */\n      dup2\n        /* \"--CODEGEN--\":85:91   */\n      dup5\n        /* \"--CODEGEN--\":81:97   */\n      add\n        /* \"--CODEGEN--\":74:101   */\n      mstore\n        /* \"--CODEGEN--\":137:141   */\n      0x1f\n        /* \"--CODEGEN--\":133:142   */\n      not\n        /* \"--CODEGEN--\":126:130   */\n      0x1f\n        /* \"--CODEGEN--\":121:124   */\n      dup3\n        /* \"--CODEGEN--\":117:131   */\n      add\n        /* \"--CODEGEN--\":113:143   */\n      and\n        /* \"--CODEGEN--\":106:143   */\n      swap1\n      pop\n        /* \"--CODEGEN--\":169:172   */\n      dup1\n        /* \"--CODEGEN--\":161:167   */\n      dup4\n        /* \"--CODEGEN--\":157:173   */\n      add\n        /* \"--CODEGEN--\":147:173   */\n      swap3\n      pop\n        /* \"contracts/router.sol\":9230:9284  _swapSupportingFeeOnTransferTokens(path, to, referrer) */\n      pop\n      pop\n      pop\n      pop\n      pop\n      pop\n        /* \"contracts/router.sol\":9271:9273  to */\n      dup7\n        /* \"contracts/router.sol\":9275:9283  referrer */\n      dup7\n        /* \"contracts/router.sol\":9230:9264  _swapSupportingFeeOnTransferTokens */\n      tag_132\n        /* \"contracts/router.sol\":9230:9284  _swapSupportingFeeOnTransferTokens(path, to, referrer) */\n      jump\t// in\n    tag_163:\n        /* \"contracts/router.sol\":9371:9383  amountOutMin */\n      dup8\n        /* \"contracts/router.sol\":9305:9367  IERC20(path[path.length - 1]).balanceOf(to).sub(balanceBefore) */\n      tag_164\n        /* \"contracts/router.sol\":9353:9366  balanceBefore */\n      dup3\n        /* \"contracts/router.sol\":9312:9316  path */\n      dup10\n      dup10\n        /* \"contracts/router.sol\":9331:9332  1 */\n      0x01\n        /* \"contracts/router.sol\":9317:9321  path */\n      dup13\n      dup13\n        /* \"contracts/router.sol\":9317:9328  path.length */\n      swap1\n      pop\n        /* \"contracts/router.sol\":9317:9332  path.length - 1 */\n      sub\n        /* \"contracts/router.sol\":9312:9333  path[path.length - 1] */\n      dup2\n      dup2\n      lt\n      tag_165\n      jumpi\n      invalid\n    tag_165:\n      swap1\n      pop\n      0x20\n      mul\n      add\n      calldataload\n      0xffffffffffffffffffffffffffffffffffffffff\n      and\n        /* \"contracts/router.sol\":9305:9344  IERC20(path[path.length - 1]).balanceOf */\n      0xffffffffffffffffffffffffffffffffffffffff\n      and\n      0x70a08231\n        /* \"contracts/router.sol\":9345:9347  to */\n      dup10\n        /* \"contracts/router.sol\":9305:9348  IERC20(path[path.length - 1]).balanceOf(to) */\n      mload(0x40)\n      dup3\n      0xffffffff\n      and\n      0xe0\n      shl\n      dup2\n      mstore\n      0x04\n      add\n      dup1\n      dup3\n      0xffffffffffffffffffffffffffffffffffffffff\n      and\n      0xffffffffffffffffffffffffffffffffffffffff\n      and\n      dup2\n      mstore\n      0x20\n      add\n      swap2\n      pop\n      pop\n      0x20\n      mload(0x40)\n      dup1\n      dup4\n      sub\n      dup2\n      dup7\n      dup1\n      extcodesize\n      iszero\n        /* \"--CODEGEN--\":5:14   */\n      dup1\n        /* \"--CODEGEN--\":2:4   */\n      iszero\n      tag_166\n      jumpi\n        /* \"--CODEGEN--\":27:28   */\n      0x00\n        /* \"--CODEGEN--\":24:25   */\n      dup1\n        /* \"--CODEGEN--\":17:29   */\n      revert\n        /* \"--CODEGEN--\":2:4   */\n    tag_166:\n        /* \"contracts/router.sol\":9305:9348  IERC20(path[path.length - 1]).balanceOf(to) */\n      pop\n      gas\n      staticcall\n      iszero\n        /* \"--CODEGEN--\":8:17   */\n      dup1\n        /* \"--CODEGEN--\":5:7   */\n      iszero\n      tag_168\n      jumpi\n        /* \"--CODEGEN--\":45:61   */\n      returndatasize\n        /* \"--CODEGEN--\":42:43   */\n      0x00\n        /* \"--CODEGEN--\":39:40   */\n      dup1\n        /* \"--CODEGEN--\":24:62   */\n      returndatacopy\n        /* \"--CODEGEN--\":77:93   */\n      returndatasize\n        /* \"--CODEGEN--\":74:75   */\n      0x00\n        /* \"--CODEGEN--\":67:94   */\n      revert\n        /* \"--CODEGEN--\":5:7   */\n    tag_168:\n        /* \"contracts/router.sol\":9305:9348  IERC20(path[path.length - 1]).balanceOf(to) */\n      pop\n      pop\n      pop\n      pop\n      mload(0x40)\n      returndatasize\n        /* \"--CODEGEN--\":15:17   */\n      0x20\n        /* \"--CODEGEN--\":10:13   */\n      dup2\n        /* \"--CODEGEN--\":7:18   */\n      lt\n        /* \"--CODEGEN--\":4:6   */\n      iszero\n      tag_169\n      jumpi\n        /* \"--CODEGEN--\":31:32   */\n      0x00\n        /* \"--CODEGEN--\":28:29   */\n      dup1\n        /* \"--CODEGEN--\":21:33   */\n      revert\n        /* \"--CODEGEN--\":4:6   */\n    tag_169:\n        /* \"contracts/router.sol\":9305:9348  IERC20(path[path.length - 1]).balanceOf(to) */\n      dup2\n      add\n      swap1\n      dup1\n      dup1\n      mload\n      swap1\n      0x20\n      add\n      swap1\n      swap3\n      swap2\n      swap1\n      pop\n      pop\n      pop\n        /* \"contracts/router.sol\":9305:9352  IERC20(path[path.length - 1]).balanceOf(to).sub */\n      tag_170\n      swap1\n        /* \"contracts/router.sol\":9305:9367  IERC20(path[path.length - 1]).balanceOf(to).sub(balanceBefore) */\n      swap2\n      swap1\n      0xffffffff\n      and\n      jump\t// in\n    tag_164:\n        /* \"contracts/router.sol\":9305:9383  IERC20(path[path.length - 1]).balanceOf(to).sub(balanceBefore) >= amountOutMin */\n      lt\n      iszero\n        /* \"contracts/router.sol\":9290:9442  require(... */\n      tag_171\n      jumpi\n      mload(0x40)\n      0x08c379a000000000000000000000000000000000000000000000000000000000\n      dup2\n      mstore\n      0x04\n      add\n      dup1\n      dup1\n      0x20\n      add\n      dup3\n      dup2\n      sub\n      dup3\n      mstore\n      0x2b\n      dup2\n      mstore\n      0x20\n      add\n      dup1\n      data_030eff30113124dc48ff0ea753a3ee23ef46fa107270955ce907ad89212695e5\n      0x2b\n      swap2\n      codecopy\n      0x40\n      add\n      swap2\n      pop\n      pop\n      mload(0x40)\n      dup1\n      swap2\n      sub\n      swap1\n      revert\n    tag_171:\n        /* \"contracts/router.sol\":601:602  _ */\n      pop\n        /* \"contracts/router.sol\":8791:9447  function swapExactTokensForTokensSupportingFeeOnTransferTokens(... */\n      pop\n      pop\n      pop\n      pop\n      pop\n      pop\n      pop\n      pop\n      jump\t// out\n        /* \"contracts/router.sol\":451:489  address public immutable override WETH */\n    tag_53:\n      immutable(\"0x1ae990503def382b005be0ab67f63e79e5d8d76ebedbaef5e88f9b321d6d6a06\")\n      dup2\n      jump\t// out\n        /* \"contracts/router.sol\":11112:11286  function quote(uint amountA, uint reserveA, uint reserveB) external pure override returns (uint amountB) {... */\n    tag_57:\n        /* \"contracts/router.sol\":11203:11215  uint amountB */\n      0x00\n        /* \"contracts/router.sol\":11230:11281  UniswapV2Library.quote(amountA, reserveA, reserveB) */\n      tag_173\n        /* \"contracts/router.sol\":11253:11260  amountA */\n      dup5\n        /* \"contracts/router.sol\":11262:11270  reserveA */\n      dup5\n        /* \"contracts/router.sol\":11272:11280  reserveB */\n      dup5\n        /* \"contracts/router.sol\":11230:11252  UniswapV2Library.quote */\n      tag_174\n        /* \"contracts/router.sol\":11230:11281  UniswapV2Library.quote(amountA, reserveA, reserveB) */\n      jump\t// in\n    tag_173:\n        /* \"contracts/router.sol\":11223:11281  return UniswapV2Library.quote(amountA, reserveA, reserveB) */\n      swap1\n      pop\n        /* \"contracts/router.sol\":11112:11286  function quote(uint amountA, uint reserveA, uint reserveB) external pure override returns (uint amountB) {... */\n      swap4\n      swap3\n      pop\n      pop\n      pop\n      jump\t// out\n        /* \"contracts/router.sol\":6336:6918  function removeLiquidityETHSupportingFeeOnTransferTokens(... */\n    tag_61:\n        /* \"contracts/router.sol\":6561:6575  uint amountETH */\n      0x00\n        /* \"contracts/router.sol\":6542:6550  deadline */\n      dup2\n        /* \"contracts/router.sol\":551:566  block.timestamp */\n      timestamp\n        /* \"contracts/router.sol\":539:547  deadline */\n      dup2\n        /* \"contracts/router.sol\":539:566  deadline >= block.timestamp */\n      lt\n      iszero\n        /* \"contracts/router.sol\":531:595  require(deadline >= block.timestamp, 'EZKaliburRouter: EXPIRED') */\n      tag_176\n      jumpi\n      mload(0x40)\n      0x08c379a000000000000000000000000000000000000000000000000000000000\n      dup2\n      mstore\n      0x04\n      add\n      dup1\n      dup1\n      0x20\n      add\n      dup3\n      dup2\n      sub\n      dup3\n      mstore\n      0x18\n      dup2\n      mstore\n      0x20\n      add\n      dup1\n      0x455a4b616c69627572526f757465723a20455850495245440000000000000000\n      dup2\n      mstore\n      pop\n      0x20\n      add\n      swap2\n      pop\n      pop\n      mload(0x40)\n      dup1\n      swap2\n      sub\n      swap1\n      revert\n    tag_176:\n        /* \"contracts/router.sol\":6599:6741  removeLiquidity(... */\n      tag_178\n        /* \"contracts/router.sol\":6622:6627  token */\n      dup9\n        /* \"contracts/router.sol\":6635:6639  WETH */\n      immutable(\"0x1ae990503def382b005be0ab67f63e79e5d8d76ebedbaef5e88f9b321d6d6a06\")\n        /* \"contracts/router.sol\":6647:6656  liquidity */\n      dup10\n        /* \"contracts/router.sol\":6664:6678  amountTokenMin */\n      dup10\n        /* \"contracts/router.sol\":6686:6698  amountETHMin */\n      dup10\n        /* \"contracts/router.sol\":6714:6718  this */\n      address\n        /* \"contracts/router.sol\":6727:6735  deadline */\n      dup10\n        /* \"contracts/router.sol\":6599:6614  removeLiquidity */\n      tag_71\n        /* \"contracts/router.sol\":6599:6741  removeLiquidity(... */\n      jump\t// in\n    tag_178:\n        /* \"contracts/router.sol\":6583:6741  (, amountETH) = removeLiquidity(... */\n      swap1\n      pop\n      dup1\n      swap3\n      pop\n      pop\n        /* \"contracts/router.sol\":6747:6825  TransferHelper.safeTransfer(token, to, IERC20(token).balanceOf(address(this))) */\n      tag_179\n        /* \"contracts/router.sol\":6775:6780  token */\n      dup9\n        /* \"contracts/router.sol\":6782:6784  to */\n      dup6\n        /* \"contracts/router.sol\":6793:6798  token */\n      dup11\n        /* \"contracts/router.sol\":6786:6809  IERC20(token).balanceOf */\n      0xffffffffffffffffffffffffffffffffffffffff\n      and\n      0x70a08231\n        /* \"contracts/router.sol\":6818:6822  this */\n      address\n        /* \"contracts/router.sol\":6786:6824  IERC20(token).balanceOf(address(this)) */\n      mload(0x40)\n      dup3\n      0xffffffff\n      and\n      0xe0\n      shl\n      dup2\n      mstore\n      0x04\n      add\n      dup1\n      dup3\n      0xffffffffffffffffffffffffffffffffffffffff\n      and\n      0xffffffffffffffffffffffffffffffffffffffff\n      and\n      dup2\n      mstore\n      0x20\n      add\n      swap2\n      pop\n      pop\n      0x20\n      mload(0x40)\n      dup1\n      dup4\n      sub\n      dup2\n      dup7\n      dup1\n      extcodesize\n      iszero\n        /* \"--CODEGEN--\":5:14   */\n      dup1\n        /* \"--CODEGEN--\":2:4   */\n      iszero\n      tag_180\n      jumpi\n        /* \"--CODEGEN--\":27:28   */\n      0x00\n        /* \"--CODEGEN--\":24:25   */\n      dup1\n        /* \"--CODEGEN--\":17:29   */\n      revert\n        /* \"--CODEGEN--\":2:4   */\n    tag_180:\n        /* \"contracts/router.sol\":6786:6824  IERC20(token).balanceOf(address(this)) */\n      pop\n      gas\n      staticcall\n      iszero\n        /* \"--CODEGEN--\":8:17   */\n      dup1\n        /* \"--CODEGEN--\":5:7   */\n      iszero\n      tag_182\n      jumpi\n        /* \"--CODEGEN--\":45:61   */\n      returndatasize\n        /* \"--CODEGEN--\":42:43   */\n      0x00\n        /* \"--CODEGEN--\":39:40   */\n      dup1\n        /* \"--CODEGEN--\":24:62   */\n      returndatacopy\n        /* \"--CODEGEN--\":77:93   */\n      returndatasize\n        /* \"--CODEGEN--\":74:75   */\n      0x00\n        /* \"--CODEGEN--\":67:94   */\n      revert\n        /* \"--CODEGEN--\":5:7   */\n    tag_182:\n        /* \"contracts/router.sol\":6786:6824  IERC20(token).balanceOf(address(this)) */\n      pop\n      pop\n      pop\n      pop\n      mload(0x40)\n      returndatasize\n        /* \"--CODEGEN--\":15:17   */\n      0x20\n        /* \"--CODEGEN--\":10:13   */\n      dup2\n        /* \"--CODEGEN--\":7:18   */\n      lt\n        /* \"--CODEGEN--\":4:6   */\n      iszero\n      tag_183\n      jumpi\n        /* \"--CODEGEN--\":31:32   */\n      0x00\n        /* \"--CODEGEN--\":28:29   */\n      dup1\n        /* \"--CODEGEN--\":21:33   */\n      revert\n        /* \"--CODEGEN--\":4:6   */\n    tag_183:\n        /* \"contracts/router.sol\":6786:6824  IERC20(token).balanceOf(address(this)) */\n      dup2\n      add\n      swap1\n      dup1\n      dup1\n      mload\n      swap1\n      0x20\n      add\n      swap1\n      swap3\n      swap2\n      swap1\n      pop\n      pop\n      pop\n        /* \"contracts/router.sol\":6747:6774  TransferHelper.safeTransfer */\n      tag_105\n        /* \"contracts/router.sol\":6747:6825  TransferHelper.safeTransfer(token, to, IERC20(token).balanceOf(address(this))) */\n      jump\t// in\n    tag_179:\n        /* \"contracts/router.sol\":6837:6841  WETH */\n      immutable(\"0x1ae990503def382b005be0ab67f63e79e5d8d76ebedbaef5e88f9b321d6d6a06\")\n        /* \"contracts/router.sol\":6831:6851  IWETH(WETH).withdraw */\n      0xffffffffffffffffffffffffffffffffffffffff\n      and\n      0x2e1a7d4d\n        /* \"contracts/router.sol\":6852:6861  amountETH */\n      dup4\n        /* \"contracts/router.sol\":6831:6862  IWETH(WETH).withdraw(amountETH) */\n      mload(0x40)\n      dup3\n      0xffffffff\n      and\n      0xe0\n      shl\n      dup2\n      mstore\n      0x04\n      add\n      dup1\n      dup3\n      dup2\n      mstore\n      0x20\n      add\n      swap2\n      pop\n      pop\n      0x00\n      mload(0x40)\n      dup1\n      dup4\n      sub\n      dup2\n      0x00\n      dup8\n      dup1\n      extcodesize\n      iszero\n        /* \"--CODEGEN--\":5:14   */\n      dup1\n        /* \"--CODEGEN--\":2:4   */\n      iszero\n      tag_184\n      jumpi\n        /* \"--CODEGEN--\":27:28   */\n      0x00\n        /* \"--CODEGEN--\":24:25   */\n      dup1\n        /* \"--CODEGEN--\":17:29   */\n      revert\n        /* \"--CODEGEN--\":2:4   */\n    tag_184:\n        /* \"contracts/router.sol\":6831:6862  IWETH(WETH).withdraw(amountETH) */\n      pop\n      gas\n      call\n      iszero\n        /* \"--CODEGEN--\":8:17   */\n      dup1\n        /* \"--CODEGEN--\":5:7   */\n      iszero\n      tag_186\n      jumpi\n        /* \"--CODEGEN--\":45:61   */\n      returndatasize\n        /* \"--CODEGEN--\":42:43   */\n      0x00\n        /* \"--CODEGEN--\":39:40   */\n      dup1\n        /* \"--CODEGEN--\":24:62   */\n      returndatacopy\n        /* \"--CODEGEN--\":77:93   */\n      returndatasize\n        /* \"--CODEGEN--\":74:75   */\n      0x00\n        /* \"--CODEGEN--\":67:94   */\n      revert\n        /* \"--CODEGEN--\":5:7   */\n    tag_186:\n        /* \"contracts/router.sol\":6831:6862  IWETH(WETH).withdraw(amountETH) */\n      pop\n      pop\n      pop\n      pop\n        /* \"contracts/router.sol\":6868:6913  TransferHelper.safeTransferETH(to, amountETH) */\n      tag_187\n        /* \"contracts/router.sol\":6899:6901  to */\n      dup5\n        /* \"contracts/router.sol\":6903:6912  amountETH */\n      dup4\n        /* \"contracts/router.sol\":6868:6898  TransferHelper.safeTransferETH */\n      tag_110\n        /* \"contracts/router.sol\":6868:6913  TransferHelper.safeTransferETH(to, amountETH) */\n      jump\t// in\n    tag_187:\n        /* \"contracts/router.sol\":6336:6918  function removeLiquidityETHSupportingFeeOnTransferTokens(... */\n      pop\n      swap7\n      swap6\n      pop\n      pop\n      pop\n      pop\n      pop\n      pop\n      jump\t// out\n        /* \"contracts/router.sol\":9451:10207  function swapExactETHForTokensSupportingFeeOnTransferTokens(... */\n    tag_67:\n        /* \"contracts/router.sol\":9665:9673  deadline */\n      dup1\n        /* \"contracts/router.sol\":551:566  block.timestamp */\n      timestamp\n        /* \"contracts/router.sol\":539:547  deadline */\n      dup2\n        /* \"contracts/router.sol\":539:566  deadline >= block.timestamp */\n      lt\n      iszero\n        /* \"contracts/router.sol\":531:595  require(deadline >= block.timestamp, 'EZKaliburRouter: EXPIRED') */\n      tag_189\n      jumpi\n      mload(0x40)\n      0x08c379a000000000000000000000000000000000000000000000000000000000\n      dup2\n      mstore\n      0x04\n      add\n      dup1\n      dup1\n      0x20\n      add\n      dup3\n      dup2\n      sub\n      dup3\n      mstore\n      0x18\n      dup2\n      mstore\n      0x20\n      add\n      dup1\n      0x455a4b616c69627572526f757465723a20455850495245440000000000000000\n      dup2\n      mstore\n      pop\n      0x20\n      add\n      swap2\n      pop\n      pop\n      mload(0x40)\n      dup1\n      swap2\n      sub\n      swap1\n      revert\n    tag_189:\n        /* \"contracts/router.sol\":9702:9706  WETH */\n      immutable(\"0x1ae990503def382b005be0ab67f63e79e5d8d76ebedbaef5e88f9b321d6d6a06\")\n        /* \"contracts/router.sol\":9691:9706  path[0] == WETH */\n      0xffffffffffffffffffffffffffffffffffffffff\n      and\n        /* \"contracts/router.sol\":9691:9695  path */\n      dup7\n      dup7\n        /* \"contracts/router.sol\":9696:9697  0 */\n      0x00\n        /* \"contracts/router.sol\":9691:9698  path[0] */\n      dup2\n      dup2\n      lt\n      tag_191\n      jumpi\n      invalid\n    tag_191:\n      swap1\n      pop\n      0x20\n      mul\n      add\n      calldataload\n      0xffffffffffffffffffffffffffffffffffffffff\n      and\n        /* \"contracts/router.sol\":9691:9706  path[0] == WETH */\n      0xffffffffffffffffffffffffffffffffffffffff\n      and\n      eq\n        /* \"contracts/router.sol\":9683:9740  require(path[0] == WETH, 'EZKaliburRouter: INVALID_PATH') */\n      tag_192\n      jumpi\n      mload(0x40)\n      0x08c379a000000000000000000000000000000000000000000000000000000000\n      dup2\n      mstore\n      0x04\n      add\n      dup1\n      dup1\n      0x20\n      add\n      dup3\n      dup2\n      sub\n      dup3\n      mstore\n      0x1d\n      dup2\n      mstore\n      0x20\n      add\n      dup1\n      0x455a4b616c69627572526f757465723a20494e56414c49445f50415448000000\n      dup2\n      mstore\n      pop\n      0x20\n      add\n      swap2\n      pop\n      pop\n      mload(0x40)\n      dup1\n      swap2\n      sub\n      swap1\n      revert\n    tag_192:\n        /* \"contracts/router.sol\":9746:9759  uint amountIn */\n      0x00\n        /* \"contracts/router.sol\":9762:9771  msg.value */\n      callvalue\n        /* \"contracts/router.sol\":9746:9771  uint amountIn = msg.value */\n      swap1\n      pop\n        /* \"contracts/router.sol\":9783:9787  WETH */\n      immutable(\"0x1ae990503def382b005be0ab67f63e79e5d8d76ebedbaef5e88f9b321d6d6a06\")\n        /* \"contracts/router.sol\":9777:9796  IWETH(WETH).deposit */\n      0xffffffffffffffffffffffffffffffffffffffff\n      and\n      0xd0e30db0\n        /* \"contracts/router.sol\":9805:9813  amountIn */\n      dup3\n        /* \"contracts/router.sol\":9777:9816  IWETH(WETH).deposit{value : amountIn}() */\n      mload(0x40)\n      dup3\n      0xffffffff\n      and\n      0xe0\n      shl\n      dup2\n      mstore\n      0x04\n      add\n      0x00\n      mload(0x40)\n      dup1\n      dup4\n      sub\n      dup2\n      dup6\n      dup9\n      dup1\n      extcodesize\n      iszero\n        /* \"--CODEGEN--\":5:14   */\n      dup1\n        /* \"--CODEGEN--\":2:4   */\n      iszero\n      tag_193\n      jumpi\n        /* \"--CODEGEN--\":27:28   */\n      0x00\n        /* \"--CODEGEN--\":24:25   */\n      dup1\n        /* \"--CODEGEN--\":17:29   */\n      revert\n        /* \"--CODEGEN--\":2:4   */\n    tag_193:\n        /* \"contracts/router.sol\":9777:9816  IWETH(WETH).deposit{value : amountIn}() */\n      pop\n      gas\n      call\n      iszero\n        /* \"--CODEGEN--\":8:17   */\n      dup1\n        /* \"--CODEGEN--\":5:7   */\n      iszero\n      tag_195\n      jumpi\n        /* \"--CODEGEN--\":45:61   */\n      returndatasize\n        /* \"--CODEGEN--\":42:43   */\n      0x00\n        /* \"--CODEGEN--\":39:40   */\n      dup1\n        /* \"--CODEGEN--\":24:62   */\n      returndatacopy\n        /* \"--CODEGEN--\":77:93   */\n      returndatasize\n        /* \"--CODEGEN--\":74:75   */\n      0x00\n        /* \"--CODEGEN--\":67:94   */\n      revert\n        /* \"--CODEGEN--\":5:7   */\n    tag_195:\n        /* \"contracts/router.sol\":9777:9816  IWETH(WETH).deposit{value : amountIn}() */\n      pop\n      pop\n      pop\n      pop\n      pop\n        /* \"contracts/router.sol\":9835:9839  WETH */\n      immutable(\"0x1ae990503def382b005be0ab67f63e79e5d8d76ebedbaef5e88f9b321d6d6a06\")\n        /* \"contracts/router.sol\":9829:9849  IWETH(WETH).transfer */\n      0xffffffffffffffffffffffffffffffffffffffff\n      and\n      0xa9059cbb\n        /* \"contracts/router.sol\":9850:9901  UniswapV2Library.pairFor(factory, path[0], path[1]) */\n      tag_196\n        /* \"contracts/router.sol\":9875:9882  factory */\n      immutable(\"0x1c0bab9e06a591c52ac680ae9eef6479e476f64f56be5d259d46a0497cb2a9b9\")\n        /* \"contracts/router.sol\":9884:9888  path */\n      dup11\n      dup11\n        /* \"contracts/router.sol\":9889:9890  0 */\n      0x00\n        /* \"contracts/router.sol\":9884:9891  path[0] */\n      dup2\n      dup2\n      lt\n      tag_197\n      jumpi\n      invalid\n    tag_197:\n      swap1\n      pop\n      0x20\n      mul\n      add\n      calldataload\n      0xffffffffffffffffffffffffffffffffffffffff\n      and\n        /* \"contracts/router.sol\":9893:9897  path */\n      dup12\n      dup12\n        /* \"contracts/router.sol\":9898:9899  1 */\n      0x01\n        /* \"contracts/router.sol\":9893:9900  path[1] */\n      dup2\n      dup2\n      lt\n      tag_198\n      jumpi\n      invalid\n    tag_198:\n      swap1\n      pop\n      0x20\n      mul\n      add\n      calldataload\n      0xffffffffffffffffffffffffffffffffffffffff\n      and\n        /* \"contracts/router.sol\":9850:9874  UniswapV2Library.pairFor */\n      tag_113\n        /* \"contracts/router.sol\":9850:9901  UniswapV2Library.pairFor(factory, path[0], path[1]) */\n      jump\t// in\n    tag_196:\n        /* \"contracts/router.sol\":9903:9911  amountIn */\n      dup4\n        /* \"contracts/router.sol\":9829:9912  IWETH(WETH).transfer(UniswapV2Library.pairFor(factory, path[0], path[1]), amountIn) */\n      mload(0x40)\n      dup4\n      0xffffffff\n      and\n      0xe0\n      shl\n      dup2\n      mstore\n      0x04\n      add\n      dup1\n      dup4\n      0xffffffffffffffffffffffffffffffffffffffff\n      and\n      0xffffffffffffffffffffffffffffffffffffffff\n      and\n      dup2\n      mstore\n      0x20\n      add\n      dup3\n      dup2\n      mstore\n      0x20\n      add\n      swap3\n      pop\n      pop\n      pop\n      0x20\n      mload(0x40)\n      dup1\n      dup4\n      sub\n      dup2\n      0x00\n      dup8\n      dup1\n      extcodesize\n      iszero\n        /* \"--CODEGEN--\":5:14   */\n      dup1\n        /* \"--CODEGEN--\":2:4   */\n      iszero\n      tag_199\n      jumpi\n        /* \"--CODEGEN--\":27:28   */\n      0x00\n        /* \"--CODEGEN--\":24:25   */\n      dup1\n        /* \"--CODEGEN--\":17:29   */\n      revert\n        /* \"--CODEGEN--\":2:4   */\n    tag_199:\n        /* \"contracts/router.sol\":9829:9912  IWETH(WETH).transfer(UniswapV2Library.pairFor(factory, path[0], path[1]), amountIn) */\n      pop\n      gas\n      call\n      iszero\n        /* \"--CODEGEN--\":8:17   */\n      dup1\n        /* \"--CODEGEN--\":5:7   */\n      iszero\n      tag_201\n      jumpi\n        /* \"--CODEGEN--\":45:61   */\n      returndatasize\n        /* \"--CODEGEN--\":42:43   */\n      0x00\n        /* \"--CODEGEN--\":39:40   */\n      dup1\n        /* \"--CODEGEN--\":24:62   */\n      returndatacopy\n        /* \"--CODEGEN--\":77:93   */\n      returndatasize\n        /* \"--CODEGEN--\":74:75   */\n      0x00\n        /* \"--CODEGEN--\":67:94   */\n      revert\n        /* \"--CODEGEN--\":5:7   */\n    tag_201:\n        /* \"contracts/router.sol\":9829:9912  IWETH(WETH).transfer(UniswapV2Library.pairFor(factory, path[0], path[1]), amountIn) */\n      pop\n      pop\n      pop\n      pop\n      mload(0x40)\n      returndatasize\n        /* \"--CODEGEN--\":15:17   */\n      0x20\n        /* \"--CODEGEN--\":10:13   */\n      dup2\n        /* \"--CODEGEN--\":7:18   */\n      lt\n        /* \"--CODEGEN--\":4:6   */\n      iszero\n      tag_202\n      jumpi\n        /* \"--CODEGEN--\":31:32   */\n      0x00\n        /* \"--CODEGEN--\":28:29   */\n      dup1\n        /* \"--CODEGEN--\":21:33   */\n      revert\n        /* \"--CODEGEN--\":4:6   */\n    tag_202:\n        /* \"contracts/router.sol\":9829:9912  IWETH(WETH).transfer(UniswapV2Library.pairFor(factory, path[0], path[1]), amountIn) */\n      dup2\n      add\n      swap1\n      dup1\n      dup1\n      mload\n      swap1\n      0x20\n      add\n      swap1\n      swap3\n      swap2\n      swap1\n      pop\n      pop\n      pop\n        /* \"contracts/router.sol\":9822:9913  assert(IWETH(WETH).transfer(UniswapV2Library.pairFor(factory, path[0], path[1]), amountIn)) */\n      tag_203\n      jumpi\n      invalid\n    tag_203:\n        /* \"contracts/router.sol\":9920:9938  uint balanceBefore */\n      0x00\n        /* \"contracts/router.sol\":9948:9952  path */\n      dup8\n      dup8\n        /* \"contracts/router.sol\":9967:9968  1 */\n      0x01\n        /* \"contracts/router.sol\":9953:9957  path */\n      dup11\n      dup11\n        /* \"contracts/router.sol\":9953:9964  path.length */\n      swap1\n      pop\n        /* \"contracts/router.sol\":9953:9968  path.length - 1 */\n      sub\n        /* \"contracts/router.sol\":9948:9969  path[path.length - 1] */\n      dup2\n      dup2\n      lt\n      tag_204\n      jumpi\n      invalid\n    tag_204:\n      swap1\n      pop\n      0x20\n      mul\n      add\n      calldataload\n      0xffffffffffffffffffffffffffffffffffffffff\n      and\n        /* \"contracts/router.sol\":9941:9980  IERC20(path[path.length - 1]).balanceOf */\n      0xffffffffffffffffffffffffffffffffffffffff\n      and\n      0x70a08231\n        /* \"contracts/router.sol\":9981:9983  to */\n      dup8\n        /* \"contracts/router.sol\":9941:9984  IERC20(path[path.length - 1]).balanceOf(to) */\n      mload(0x40)\n      dup3\n      0xffffffff\n      and\n      0xe0\n      shl\n      dup2\n      mstore\n      0x04\n      add\n      dup1\n      dup3\n      0xffffffffffffffffffffffffffffffffffffffff\n      and\n      0xffffffffffffffffffffffffffffffffffffffff\n      and\n      dup2\n      mstore\n      0x20\n      add\n      swap2\n      pop\n      pop\n      0x20\n      mload(0x40)\n      dup1\n      dup4\n      sub\n      dup2\n      dup7\n      dup1\n      extcodesize\n      iszero\n        /* \"--CODEGEN--\":5:14   */\n      dup1\n        /* \"--CODEGEN--\":2:4   */\n      iszero\n      tag_205\n      jumpi\n        /* \"--CODEGEN--\":27:28   */\n      0x00\n        /* \"--CODEGEN--\":24:25   */\n      dup1\n        /* \"--CODEGEN--\":17:29   */\n      revert\n        /* \"--CODEGEN--\":2:4   */\n    tag_205:\n        /* \"contracts/router.sol\":9941:9984  IERC20(path[path.length - 1]).balanceOf(to) */\n      pop\n      gas\n      staticcall\n      iszero\n        /* \"--CODEGEN--\":8:17   */\n      dup1\n        /* \"--CODEGEN--\":5:7   */\n      iszero\n      tag_207\n      jumpi\n        /* \"--CODEGEN--\":45:61   */\n      returndatasize\n        /* \"--CODEGEN--\":42:43   */\n      0x00\n        /* \"--CODEGEN--\":39:40   */\n      dup1\n        /* \"--CODEGEN--\":24:62   */\n      returndatacopy\n        /* \"--CODEGEN--\":77:93   */\n      returndatasize\n        /* \"--CODEGEN--\":74:75   */\n      0x00\n        /* \"--CODEGEN--\":67:94   */\n      revert\n        /* \"--CODEGEN--\":5:7   */\n    tag_207:\n        /* \"contracts/router.sol\":9941:9984  IERC20(path[path.length - 1]).balanceOf(to) */\n      pop\n      pop\n      pop\n      pop\n      mload(0x40)\n      returndatasize\n        /* \"--CODEGEN--\":15:17   */\n      0x20\n        /* \"--CODEGEN--\":10:13   */\n      dup2\n        /* \"--CODEGEN--\":7:18   */\n      lt\n        /* \"--CODEGEN--\":4:6   */\n      iszero\n      tag_208\n      jumpi\n        /* \"--CODEGEN--\":31:32   */\n      0x00\n        /* \"--CODEGEN--\":28:29   */\n      dup1\n        /* \"--CODEGEN--\":21:33   */\n      revert\n        /* \"--CODEGEN--\":4:6   */\n    tag_208:\n        /* \"contracts/router.sol\":9941:9984  IERC20(path[path.length - 1]).balanceOf(to) */\n      dup2\n      add\n      swap1\n      dup1\n      dup1\n      mload\n      swap1\n      0x20\n      add\n      swap1\n      swap3\n      swap2\n      swap1\n      pop\n      pop\n      pop\n        /* \"contracts/router.sol\":9920:9984  uint balanceBefore = IERC20(path[path.length - 1]).balanceOf(to) */\n      swap1\n      pop\n        /* \"contracts/router.sol\":9990:10044  _swapSupportingFeeOnTransferTokens(path, to, referrer) */\n      tag_209\n        /* \"contracts/router.sol\":10025:10029  path */\n      dup9\n      dup9\n        /* \"contracts/router.sol\":9990:10044  _swapSupportingFeeOnTransferTokens(path, to, referrer) */\n      dup1\n      dup1\n      0x20\n      mul\n      0x20\n      add\n      mload(0x40)\n      swap1\n      dup2\n      add\n      0x40\n      mstore\n      dup1\n      swap4\n      swap3\n      swap2\n      swap1\n      dup2\n      dup2\n      mstore\n      0x20\n      add\n      dup4\n      dup4\n      0x20\n      mul\n        /* \"--CODEGEN--\":30:33   */\n      dup1\n        /* \"--CODEGEN--\":22:28   */\n      dup3\n        /* \"--CODEGEN--\":14:20   */\n      dup5\n        /* \"--CODEGEN--\":1:34   */\n      calldatacopy\n        /* \"--CODEGEN--\":99:100   */\n      0x00\n        /* \"--CODEGEN--\":93:96   */\n      dup2\n        /* \"--CODEGEN--\":85:91   */\n      dup5\n        /* \"--CODEGEN--\":81:97   */\n      add\n        /* \"--CODEGEN--\":74:101   */\n      mstore\n        /* \"--CODEGEN--\":137:141   */\n      0x1f\n        /* \"--CODEGEN--\":133:142   */\n      not\n        /* \"--CODEGEN--\":126:130   */\n      0x1f\n        /* \"--CODEGEN--\":121:124   */\n      dup3\n        /* \"--CODEGEN--\":117:131   */\n      add\n        /* \"--CODEGEN--\":113:143   */\n      and\n        /* \"--CODEGEN--\":106:143   */\n      swap1\n      pop\n        /* \"--CODEGEN--\":169:172   */\n      dup1\n        /* \"--CODEGEN--\":161:167   */\n      dup4\n        /* \"--CODEGEN--\":157:173   */\n      add\n        /* \"--CODEGEN--\":147:173   */\n      swap3\n      pop\n        /* \"contracts/router.sol\":9990:10044  _swapSupportingFeeOnTransferTokens(path, to, referrer) */\n      pop\n      pop\n      pop\n      pop\n      pop\n      pop\n        /* \"contracts/router.sol\":10031:10033  to */\n      dup8\n        /* \"contracts/router.sol\":10035:10043  referrer */\n      dup8\n        /* \"contracts/router.sol\":9990:10024  _swapSupportingFeeOnTransferTokens */\n      tag_132\n        /* \"contracts/router.sol\":9990:10044  _swapSupportingFeeOnTransferTokens(path, to, referrer) */\n      jump\t// in\n    tag_209:\n        /* \"contracts/router.sol\":10131:10143  amountOutMin */\n      dup9\n        /* \"contracts/router.sol\":10065:10127  IERC20(path[path.length - 1]).balanceOf(to).sub(balanceBefore) */\n      tag_210\n        /* \"contracts/router.sol\":10113:10126  balanceBefore */\n      dup3\n        /* \"contracts/router.sol\":10072:10076  path */\n      dup11\n      dup11\n        /* \"contracts/router.sol\":10091:10092  1 */\n      0x01\n        /* \"contracts/router.sol\":10077:10081  path */\n      dup14\n      dup14\n        /* \"contracts/router.sol\":10077:10088  path.length */\n      swap1\n      pop\n        /* \"contracts/router.sol\":10077:10092  path.length - 1 */\n      sub\n        /* \"contracts/router.sol\":10072:10093  path[path.length - 1] */\n      dup2\n      dup2\n      lt\n      tag_211\n      jumpi\n      invalid\n    tag_211:\n      swap1\n      pop\n      0x20\n      mul\n      add\n      calldataload\n      0xffffffffffffffffffffffffffffffffffffffff\n      and\n        /* \"contracts/router.sol\":10065:10104  IERC20(path[path.length - 1]).balanceOf */\n      0xffffffffffffffffffffffffffffffffffffffff\n      and\n      0x70a08231\n        /* \"contracts/router.sol\":10105:10107  to */\n      dup11\n        /* \"contracts/router.sol\":10065:10108  IERC20(path[path.length - 1]).balanceOf(to) */\n      mload(0x40)\n      dup3\n      0xffffffff\n      and\n      0xe0\n      shl\n      dup2\n      mstore\n      0x04\n      add\n      dup1\n      dup3\n      0xffffffffffffffffffffffffffffffffffffffff\n      and\n      0xffffffffffffffffffffffffffffffffffffffff\n      and\n      dup2\n      mstore\n      0x20\n      add\n      swap2\n      pop\n      pop\n      0x20\n      mload(0x40)\n      dup1\n      dup4\n      sub\n      dup2\n      dup7\n      dup1\n      extcodesize\n      iszero\n        /* \"--CODEGEN--\":5:14   */\n      dup1\n        /* \"--CODEGEN--\":2:4   */\n      iszero\n      tag_212\n      jumpi\n        /* \"--CODEGEN--\":27:28   */\n      0x00\n        /* \"--CODEGEN--\":24:25   */\n      dup1\n        /* \"--CODEGEN--\":17:29   */\n      revert\n        /* \"--CODEGEN--\":2:4   */\n    tag_212:\n        /* \"contracts/router.sol\":10065:10108  IERC20(path[path.length - 1]).balanceOf(to) */\n      pop\n      gas\n      staticcall\n      iszero\n        /* \"--CODEGEN--\":8:17   */\n      dup1\n        /* \"--CODEGEN--\":5:7   */\n      iszero\n      tag_214\n      jumpi\n        /* \"--CODEGEN--\":45:61   */\n      returndatasize\n        /* \"--CODEGEN--\":42:43   */\n      0x00\n        /* \"--CODEGEN--\":39:40   */\n      dup1\n        /* \"--CODEGEN--\":24:62   */\n      returndatacopy\n        /* \"--CODEGEN--\":77:93   */\n      returndatasize\n        /* \"--CODEGEN--\":74:75   */\n      0x00\n        /* \"--CODEGEN--\":67:94   */\n      revert\n        /* \"--CODEGEN--\":5:7   */\n    tag_214:\n        /* \"contracts/router.sol\":10065:10108  IERC20(path[path.length - 1]).balanceOf(to) */\n      pop\n      pop\n      pop\n      pop\n      mload(0x40)\n      returndatasize\n        /* \"--CODEGEN--\":15:17   */\n      0x20\n        /* \"--CODEGEN--\":10:13   */\n      dup2\n        /* \"--CODEGEN--\":7:18   */\n      lt\n        /* \"--CODEGEN--\":4:6   */\n      iszero\n      tag_215\n      jumpi\n        /* \"--CODEGEN--\":31:32   */\n      0x00\n        /* \"--CODEGEN--\":28:29   */\n      dup1\n        /* \"--CODEGEN--\":21:33   */\n      revert\n        /* \"--CODEGEN--\":4:6   */\n    tag_215:\n        /* \"contracts/router.sol\":10065:10108  IERC20(path[path.length - 1]).balanceOf(to) */\n      dup2\n      add\n      swap1\n      dup1\n      dup1\n      mload\n      swap1\n      0x20\n      add\n      swap1\n      swap3\n      swap2\n      swap1\n      pop\n      pop\n      pop\n        /* \"contracts/router.sol\":10065:10112  IERC20(path[path.length - 1]).balanceOf(to).sub */\n      tag_170\n      swap1\n        /* \"contracts/router.sol\":10065:10127  IERC20(path[path.length - 1]).balanceOf(to).sub(balanceBefore) */\n      swap2\n      swap1\n      0xffffffff\n      and\n      jump\t// in\n    tag_210:\n        /* \"contracts/router.sol\":10065:10143  IERC20(path[path.length - 1]).balanceOf(to).sub(balanceBefore) >= amountOutMin */\n      lt\n      iszero\n        /* \"contracts/router.sol\":10050:10202  require(... */\n      tag_216\n      jumpi\n      mload(0x40)\n      0x08c379a000000000000000000000000000000000000000000000000000000000\n      dup2\n      mstore\n      0x04\n      add\n      dup1\n      dup1\n      0x20\n      add\n      dup3\n      dup2\n      sub\n      dup3\n      mstore\n      0x2b\n      dup2\n      mstore\n      0x20\n      add\n      dup1\n      data_030eff30113124dc48ff0ea753a3ee23ef46fa107270955ce907ad89212695e5\n      0x2b\n      swap2\n      codecopy\n      0x40\n      add\n      swap2\n      pop\n      pop\n      mload(0x40)\n      dup1\n      swap2\n      sub\n      swap1\n      revert\n    tag_216:\n        /* \"contracts/router.sol\":601:602  _ */\n      pop\n      pop\n        /* \"contracts/router.sol\":9451:10207  function swapExactETHForTokensSupportingFeeOnTransferTokens(... */\n      pop\n      pop\n      pop\n      pop\n      pop\n      pop\n      pop\n      jump\t// out\n        /* \"contracts/router.sol\":3743:4510  function removeLiquidity(... */\n    tag_71:\n        /* \"contracts/router.sol\":3951:3963  uint amountA */\n      0x00\n        /* \"contracts/router.sol\":3965:3977  uint amountB */\n      dup1\n        /* \"contracts/router.sol\":3932:3940  deadline */\n      dup3\n        /* \"contracts/router.sol\":551:566  block.timestamp */\n      timestamp\n        /* \"contracts/router.sol\":539:547  deadline */\n      dup2\n        /* \"contracts/router.sol\":539:566  deadline >= block.timestamp */\n      lt\n      iszero\n        /* \"contracts/router.sol\":531:595  require(deadline >= block.timestamp, 'EZKaliburRouter: EXPIRED') */\n      tag_218\n      jumpi\n      mload(0x40)\n      0x08c379a000000000000000000000000000000000000000000000000000000000\n      dup2\n      mstore\n      0x04\n      add\n      dup1\n      dup1\n      0x20\n      add\n      dup3\n      dup2\n      sub\n      dup3\n      mstore\n      0x18\n      dup2\n      mstore\n      0x20\n      add\n      dup1\n      0x455a4b616c69627572526f757465723a20455850495245440000000000000000\n      dup2\n      mstore\n      pop\n      0x20\n      add\n      swap2\n      pop\n      pop\n      mload(0x40)\n      dup1\n      swap2\n      sub\n      swap1\n      revert\n    tag_218:\n        /* \"contracts/router.sol\":3985:3997  address pair */\n      0x00\n        /* \"contracts/router.sol\":4000:4049  UniswapV2Library.pairFor(factory, tokenA, tokenB) */\n      tag_220\n        /* \"contracts/router.sol\":4025:4032  factory */\n      immutable(\"0x1c0bab9e06a591c52ac680ae9eef6479e476f64f56be5d259d46a0497cb2a9b9\")\n        /* \"contracts/router.sol\":4034:4040  tokenA */\n      dup13\n        /* \"contracts/router.sol\":4042:4048  tokenB */\n      dup13\n        /* \"contracts/router.sol\":4000:4024  UniswapV2Library.pairFor */\n      tag_113\n        /* \"contracts/router.sol\":4000:4049  UniswapV2Library.pairFor(factory, tokenA, tokenB) */\n      jump\t// in\n    tag_220:\n        /* \"contracts/router.sol\":3985:4049  address pair = UniswapV2Library.pairFor(factory, tokenA, tokenB) */\n      swap1\n      pop\n        /* \"contracts/router.sol\":4061:4065  pair */\n      dup1\n        /* \"contracts/router.sol\":4055:4079  IPair(pair).transferFrom */\n      0xffffffffffffffffffffffffffffffffffffffff\n      and\n      0x23b872dd\n        /* \"contracts/router.sol\":4080:4090  msg.sender */\n      caller\n        /* \"contracts/router.sol\":4092:4096  pair */\n      dup4\n        /* \"contracts/router.sol\":4098:4107  liquidity */\n      dup13\n        /* \"contracts/router.sol\":4055:4108  IPair(pair).transferFrom(msg.sender, pair, liquidity) */\n      mload(0x40)\n      dup5\n      0xffffffff\n      and\n      0xe0\n      shl\n      dup2\n      mstore\n      0x04\n      add\n      dup1\n      dup5\n      0xffffffffffffffffffffffffffffffffffffffff\n      and\n      0xffffffffffffffffffffffffffffffffffffffff\n      and\n      dup2\n      mstore\n      0x20\n      add\n      dup4\n      0xffffffffffffffffffffffffffffffffffffffff\n      and\n      0xffffffffffffffffffffffffffffffffffffffff\n      and\n      dup2\n      mstore\n      0x20\n      add\n      dup3\n      dup2\n      mstore\n      0x20\n      add\n      swap4\n      pop\n      pop\n      pop\n      pop\n      0x20\n      mload(0x40)\n      dup1\n      dup4\n      sub\n      dup2\n      0x00\n      dup8\n      dup1\n      extcodesize\n      iszero\n        /* \"--CODEGEN--\":5:14   */\n      dup1\n        /* \"--CODEGEN--\":2:4   */\n      iszero\n      tag_221\n      jumpi\n        /* \"--CODEGEN--\":27:28   */\n      0x00\n        /* \"--CODEGEN--\":24:25   */\n      dup1\n        /* \"--CODEGEN--\":17:29   */\n      revert\n        /* \"--CODEGEN--\":2:4   */\n    tag_221:\n        /* \"contracts/router.sol\":4055:4108  IPair(pair).transferFrom(msg.sender, pair, liquidity) */\n      pop\n      gas\n      call\n      iszero\n        /* \"--CODEGEN--\":8:17   */\n      dup1\n        /* \"--CODEGEN--\":5:7   */\n      iszero\n      tag_223\n      jumpi\n        /* \"--CODEGEN--\":45:61   */\n      returndatasize\n        /* \"--CODEGEN--\":42:43   */\n      0x00\n        /* \"--CODEGEN--\":39:40   */\n      dup1\n        /* \"--CODEGEN--\":24:62   */\n      returndatacopy\n        /* \"--CODEGEN--\":77:93   */\n      returndatasize\n        /* \"--CODEGEN--\":74:75   */\n      0x00\n        /* \"--CODEGEN--\":67:94   */\n      revert\n        /* \"--CODEGEN--\":5:7   */\n    tag_223:\n        /* \"contracts/router.sol\":4055:4108  IPair(pair).transferFrom(msg.sender, pair, liquidity) */\n      pop\n      pop\n      pop\n      pop\n      mload(0x40)\n      returndatasize\n        /* \"--CODEGEN--\":15:17   */\n      0x20\n        /* \"--CODEGEN--\":10:13   */\n      dup2\n        /* \"--CODEGEN--\":7:18   */\n      lt\n        /* \"--CODEGEN--\":4:6   */\n      iszero\n      tag_224\n      jumpi\n        /* \"--CODEGEN--\":31:32   */\n      0x00\n        /* \"--CODEGEN--\":28:29   */\n      dup1\n        /* \"--CODEGEN--\":21:33   */\n      revert\n        /* \"--CODEGEN--\":4:6   */\n    tag_224:\n        /* \"contracts/router.sol\":4055:4108  IPair(pair).transferFrom(msg.sender, pair, liquidity) */\n      dup2\n      add\n      swap1\n      dup1\n      dup1\n      mload\n      swap1\n      0x20\n      add\n      swap1\n      swap3\n      swap2\n      swap1\n      pop\n      pop\n      pop\n      pop\n        /* \"contracts/router.sol\":4145:4157  uint amount0 */\n      0x00\n        /* \"contracts/router.sol\":4159:4171  uint amount1 */\n      dup1\n        /* \"contracts/router.sol\":4181:4185  pair */\n      dup3\n        /* \"contracts/router.sol\":4175:4191  IPair(pair).burn */\n      0xffffffffffffffffffffffffffffffffffffffff\n      and\n      0x89afcb44\n        /* \"contracts/router.sol\":4192:4194  to */\n      dup10\n        /* \"contracts/router.sol\":4175:4195  IPair(pair).burn(to) */\n      mload(0x40)\n      dup3\n      0xffffffff\n      and\n      0xe0\n      shl\n      dup2\n      mstore\n      0x04\n      add\n      dup1\n      dup3\n      0xffffffffffffffffffffffffffffffffffffffff\n      and\n      0xffffffffffffffffffffffffffffffffffffffff\n      and\n      dup2\n      mstore\n      0x20\n      add\n      swap2\n      pop\n      pop\n      0x40\n      dup1\n      mload\n      dup1\n      dup4\n      sub\n      dup2\n      0x00\n      dup8\n      dup1\n      extcodesize\n      iszero\n        /* \"--CODEGEN--\":5:14   */\n      dup1\n        /* \"--CODEGEN--\":2:4   */\n      iszero\n      tag_225\n      jumpi\n        /* \"--CODEGEN--\":27:28   */\n      0x00\n        /* \"--CODEGEN--\":24:25   */\n      dup1\n        /* \"--CODEGEN--\":17:29   */\n      revert\n        /* \"--CODEGEN--\":2:4   */\n    tag_225:\n        /* \"contracts/router.sol\":4175:4195  IPair(pair).burn(to) */\n      pop\n      gas\n      call\n      iszero\n        /* \"--CODEGEN--\":8:17   */\n      dup1\n        /* \"--CODEGEN--\":5:7   */\n      iszero\n      tag_227\n      jumpi\n        /* \"--CODEGEN--\":45:61   */\n      returndatasize\n        /* \"--CODEGEN--\":42:43   */\n      0x00\n        /* \"--CODEGEN--\":39:40   */\n      dup1\n        /* \"--CODEGEN--\":24:62   */\n      returndatacopy\n        /* \"--CODEGEN--\":77:93   */\n      returndatasize\n        /* \"--CODEGEN--\":74:75   */\n      0x00\n        /* \"--CODEGEN--\":67:94   */\n      revert\n        /* \"--CODEGEN--\":5:7   */\n    tag_227:\n        /* \"contracts/router.sol\":4175:4195  IPair(pair).burn(to) */\n      pop\n      pop\n      pop\n      pop\n      mload(0x40)\n      returndatasize\n        /* \"--CODEGEN--\":15:17   */\n      0x40\n        /* \"--CODEGEN--\":10:13   */\n      dup2\n        /* \"--CODEGEN--\":7:18   */\n      lt\n        /* \"--CODEGEN--\":4:6   */\n      iszero\n      tag_228\n      jumpi\n        /* \"--CODEGEN--\":31:32   */\n      0x00\n        /* \"--CODEGEN--\":28:29   */\n      dup1\n        /* \"--CODEGEN--\":21:33   */\n      revert\n        /* \"--CODEGEN--\":4:6   */\n    tag_228:\n        /* \"contracts/router.sol\":4175:4195  IPair(pair).burn(to) */\n      dup2\n      add\n      swap1\n      dup1\n      dup1\n      mload\n      swap1\n      0x20\n      add\n      swap1\n      swap3\n      swap2\n      swap1\n      dup1\n      mload\n      swap1\n      0x20\n      add\n      swap1\n      swap3\n      swap2\n      swap1\n      pop\n      pop\n      pop\n        /* \"contracts/router.sol\":4144:4195  (uint amount0, uint amount1) = IPair(pair).burn(to) */\n      swap2\n      pop\n      swap2\n      pop\n        /* \"contracts/router.sol\":4202:4216  address token0 */\n      0x00\n        /* \"contracts/router.sol\":4221:4264  UniswapV2Library.sortTokens(tokenA, tokenB) */\n      tag_229\n        /* \"contracts/router.sol\":4249:4255  tokenA */\n      dup15\n        /* \"contracts/router.sol\":4257:4263  tokenB */\n      dup15\n        /* \"contracts/router.sol\":4221:4248  UniswapV2Library.sortTokens */\n      tag_230\n        /* \"contracts/router.sol\":4221:4264  UniswapV2Library.sortTokens(tokenA, tokenB) */\n      jump\t// in\n    tag_229:\n        /* \"contracts/router.sol\":4201:4264  (address token0,) = UniswapV2Library.sortTokens(tokenA, tokenB) */\n      pop\n      swap1\n      pop\n        /* \"contracts/router.sol\":4301:4307  token0 */\n      dup1\n        /* \"contracts/router.sol\":4291:4307  tokenA == token0 */\n      0xffffffffffffffffffffffffffffffffffffffff\n      and\n        /* \"contracts/router.sol\":4291:4297  tokenA */\n      dup15\n        /* \"contracts/router.sol\":4291:4307  tokenA == token0 */\n      0xffffffffffffffffffffffffffffffffffffffff\n      and\n      eq\n        /* \"contracts/router.sol\":4291:4349  tokenA == token0 ? (amount0, amount1) : (amount1, amount0) */\n      tag_231\n      jumpi\n        /* \"contracts/router.sol\":4332:4339  amount1 */\n      dup2\n        /* \"contracts/router.sol\":4341:4348  amount0 */\n      dup4\n        /* \"contracts/router.sol\":4291:4349  tokenA == token0 ? (amount0, amount1) : (amount1, amount0) */\n      jump(tag_232)\n    tag_231:\n        /* \"contracts/router.sol\":4311:4318  amount0 */\n      dup3\n        /* \"contracts/router.sol\":4320:4327  amount1 */\n      dup3\n        /* \"contracts/router.sol\":4291:4349  tokenA == token0 ? (amount0, amount1) : (amount1, amount0) */\n    tag_232:\n        /* \"contracts/router.sol\":4270:4349  (amountA, amountB) = tokenA == token0 ? (amount0, amount1) : (amount1, amount0) */\n      dup1\n      swap8\n      pop\n      dup2\n      swap9\n      pop\n      pop\n      pop\n        /* \"contracts/router.sol\":4374:4384  amountAMin */\n      dup11\n        /* \"contracts/router.sol\":4363:4370  amountA */\n      dup8\n        /* \"contracts/router.sol\":4363:4384  amountA >= amountAMin */\n      lt\n      iszero\n        /* \"contracts/router.sol\":4355:4427  require(amountA >= amountAMin, 'EZKaliburRouter: INSUFFICIENT_A_AMOUNT') */\n      tag_233\n      jumpi\n      mload(0x40)\n      0x08c379a000000000000000000000000000000000000000000000000000000000\n      dup2\n      mstore\n      0x04\n      add\n      dup1\n      dup1\n      0x20\n      add\n      dup3\n      dup2\n      sub\n      dup3\n      mstore\n      0x26\n      dup2\n      mstore\n      0x20\n      add\n      dup1\n      data_4570be9288664f76b29d49a23968cc6fb608f8c341b1a78187ee6735a35a6f97\n      0x26\n      swap2\n      codecopy\n      0x40\n      add\n      swap2\n      pop\n      pop\n      mload(0x40)\n      dup1\n      swap2\n      sub\n      swap1\n      revert\n    tag_233:\n        /* \"contracts/router.sol\":4452:4462  amountBMin */\n      dup10\n        /* \"contracts/router.sol\":4441:4448  amountB */\n      dup7\n        /* \"contracts/router.sol\":4441:4462  amountB >= amountBMin */\n      lt\n      iszero\n        /* \"contracts/router.sol\":4433:4505  require(amountB >= amountBMin, 'EZKaliburRouter: INSUFFICIENT_B_AMOUNT') */\n      tag_234\n      jumpi\n      mload(0x40)\n      0x08c379a000000000000000000000000000000000000000000000000000000000\n      dup2\n      mstore\n      0x04\n      add\n      dup1\n      dup1\n      0x20\n      add\n      dup3\n      dup2\n      sub\n      dup3\n      mstore\n      0x26\n      dup2\n      mstore\n      0x20\n      add\n      dup1\n      data_74dad2b2b1ce754bc2af951e827754c2e60e36f2bab902635ae5fd9073a9c60d\n      0x26\n      swap2\n      codecopy\n      0x40\n      add\n      swap2\n      pop\n      pop\n      mload(0x40)\n      dup1\n      swap2\n      sub\n      swap1\n      revert\n    tag_234:\n        /* \"contracts/router.sol\":601:602  _ */\n      pop\n      pop\n      pop\n      pop\n        /* \"contracts/router.sol\":3743:4510  function removeLiquidity(... */\n      pop\n      swap8\n      pop\n      swap8\n      swap6\n      pop\n      pop\n      pop\n      pop\n      pop\n      pop\n      jump\t// out\n        /* \"contracts/router.sol\":406:447  address public immutable override factory */\n    tag_74:\n      immutable(\"0x1c0bab9e06a591c52ac680ae9eef6479e476f64f56be5d259d46a0497cb2a9b9\")\n      dup2\n      jump\t// out\n        /* \"contracts/router.sol\":11290:11472  function getAmountsOut(uint amountIn, address[] calldata path) external view returns (uint[] memory amounts) {... */\n    tag_81:\n        /* \"contracts/router.sol\":11376:11397  uint[] memory amounts */\n      0x60\n        /* \"contracts/router.sol\":11412:11467  UniswapV2Library.getAmountsOut(factory, amountIn, path) */\n      tag_236\n        /* \"contracts/router.sol\":11443:11450  factory */\n      immutable(\"0x1c0bab9e06a591c52ac680ae9eef6479e476f64f56be5d259d46a0497cb2a9b9\")\n        /* \"contracts/router.sol\":11452:11460  amountIn */\n      dup6\n        /* \"contracts/router.sol\":11462:11466  path */\n      dup6\n      dup6\n        /* \"contracts/router.sol\":11412:11467  UniswapV2Library.getAmountsOut(factory, amountIn, path) */\n      dup1\n      dup1\n      0x20\n      mul\n      0x20\n      add\n      mload(0x40)\n      swap1\n      dup2\n      add\n      0x40\n      mstore\n      dup1\n      swap4\n      swap3\n      swap2\n      swap1\n      dup2\n      dup2\n      mstore\n      0x20\n      add\n      dup4\n      dup4\n      0x20\n      mul\n        /* \"--CODEGEN--\":30:33   */\n      dup1\n        /* \"--CODEGEN--\":22:28   */\n      dup3\n        /* \"--CODEGEN--\":14:20   */\n      dup5\n        /* \"--CODEGEN--\":1:34   */\n      calldatacopy\n        /* \"--CODEGEN--\":99:100   */\n      0x00\n        /* \"--CODEGEN--\":93:96   */\n      dup2\n        /* \"--CODEGEN--\":85:91   */\n      dup5\n        /* \"--CODEGEN--\":81:97   */\n      add\n        /* \"--CODEGEN--\":74:101   */\n      mstore\n        /* \"--CODEGEN--\":137:141   */\n      0x1f\n        /* \"--CODEGEN--\":133:142   */\n      not\n        /* \"--CODEGEN--\":126:130   */\n      0x1f\n        /* \"--CODEGEN--\":121:124   */\n      dup3\n        /* \"--CODEGEN--\":117:131   */\n      add\n        /* \"--CODEGEN--\":113:143   */\n      and\n        /* \"--CODEGEN--\":106:143   */\n      swap1\n      pop\n        /* \"--CODEGEN--\":169:172   */\n      dup1\n        /* \"--CODEGEN--\":161:167   */\n      dup4\n        /* \"--CODEGEN--\":157:173   */\n      add\n        /* \"--CODEGEN--\":147:173   */\n      swap3\n      pop\n        /* \"contracts/router.sol\":11412:11467  UniswapV2Library.getAmountsOut(factory, amountIn, path) */\n      pop\n      pop\n      pop\n      pop\n      pop\n      pop\n        /* \"contracts/router.sol\":11412:11442  UniswapV2Library.getAmountsOut */\n      tag_237\n        /* \"contracts/router.sol\":11412:11467  UniswapV2Library.getAmountsOut(factory, amountIn, path) */\n      jump\t// in\n    tag_236:\n        /* \"contracts/router.sol\":11405:11467  return UniswapV2Library.getAmountsOut(factory, amountIn, path) */\n      swap1\n      pop\n        /* \"contracts/router.sol\":11290:11472  function getAmountsOut(uint amountIn, address[] calldata path) external view returns (uint[] memory amounts) {... */\n      swap4\n      swap3\n      pop\n      pop\n      pop\n      jump\t// out\n        /* \"contracts/router.sol\":5672:6264  function removeLiquidityETHWithPermit(... */\n    tag_88:\n        /* \"contracts/router.sol\":5915:5931  uint amountToken */\n      0x00\n        /* \"contracts/router.sol\":5933:5947  uint amountETH */\n      dup1\n        /* \"contracts/router.sol\":5955:5967  address pair */\n      0x00\n        /* \"contracts/router.sol\":5970:6016  UniswapV2Library.pairFor(factory, token, WETH) */\n      tag_239\n        /* \"contracts/router.sol\":5995:6002  factory */\n      immutable(\"0x1c0bab9e06a591c52ac680ae9eef6479e476f64f56be5d259d46a0497cb2a9b9\")\n        /* \"contracts/router.sol\":6004:6009  token */\n      dup15\n        /* \"contracts/router.sol\":6011:6015  WETH */\n      immutable(\"0x1ae990503def382b005be0ab67f63e79e5d8d76ebedbaef5e88f9b321d6d6a06\")\n        /* \"contracts/router.sol\":5970:5994  UniswapV2Library.pairFor */\n      tag_113\n        /* \"contracts/router.sol\":5970:6016  UniswapV2Library.pairFor(factory, token, WETH) */\n      jump\t// in\n    tag_239:\n        /* \"contracts/router.sol\":5955:6016  address pair = UniswapV2Library.pairFor(factory, token, WETH) */\n      swap1\n      pop\n        /* \"contracts/router.sol\":6022:6032  uint value */\n      0x00\n        /* \"contracts/router.sol\":6035:6045  approveMax */\n      dup8\n        /* \"contracts/router.sol\":6035:6069  approveMax ? uint(- 1) : liquidity */\n      tag_240\n      jumpi\n        /* \"contracts/router.sol\":6060:6069  liquidity */\n      dup13\n        /* \"contracts/router.sol\":6035:6069  approveMax ? uint(- 1) : liquidity */\n      jump(tag_241)\n    tag_240:\n        /* \"contracts/router.sol\":6053:6056  - 1 */\n      0xffffffffffffffffffffffffffffffffffffffffffffffffffffffffffffffff\n        /* \"contracts/router.sol\":6035:6069  approveMax ? uint(- 1) : liquidity */\n    tag_241:\n        /* \"contracts/router.sol\":6022:6069  uint value = approveMax ? uint(- 1) : liquidity */\n      swap1\n      pop\n        /* \"contracts/router.sol\":6081:6085  pair */\n      dup2\n        /* \"contracts/router.sol\":6075:6093  IPair(pair).permit */\n      0xffffffffffffffffffffffffffffffffffffffff\n      and\n      0xd505accf\n        /* \"contracts/router.sol\":6094:6104  msg.sender */\n      caller\n        /* \"contracts/router.sol\":6114:6118  this */\n      address\n        /* \"contracts/router.sol\":6121:6126  value */\n      dup5\n        /* \"contracts/router.sol\":6128:6136  deadline */\n      dup14\n        /* \"contracts/router.sol\":6138:6139  v */\n      dup13\n        /* \"contracts/router.sol\":6141:6142  r */\n      dup13\n        /* \"contracts/router.sol\":6144:6145  s */\n      dup13\n        /* \"contracts/router.sol\":6075:6146  IPair(pair).permit(msg.sender, address(this), value, deadline, v, r, s) */\n      mload(0x40)\n      dup9\n      0xffffffff\n      and\n      0xe0\n      shl\n      dup2\n      mstore\n      0x04\n      add\n      dup1\n      dup9\n      0xffffffffffffffffffffffffffffffffffffffff\n      and\n      0xffffffffffffffffffffffffffffffffffffffff\n      and\n      dup2\n      mstore\n      0x20\n      add\n      dup8\n      0xffffffffffffffffffffffffffffffffffffffff\n      and\n      0xffffffffffffffffffffffffffffffffffffffff\n      and\n      dup2\n      mstore\n      0x20\n      add\n      dup7\n      dup2\n      mstore\n      0x20\n      add\n      dup6\n      dup2\n      mstore\n      0x20\n      add\n      dup5\n      0xff\n      and\n      0xff\n      and\n      dup2\n      mstore\n      0x20\n      add\n      dup4\n      dup2\n      mstore\n      0x20\n      add\n      dup3\n      dup2\n      mstore\n      0x20\n      add\n      swap8\n      pop\n      pop\n      pop\n      pop\n      pop\n      pop\n      pop\n      pop\n      0x00\n      mload(0x40)\n      dup1\n      dup4\n      sub\n      dup2\n      0x00\n      dup8\n      dup1\n      extcodesize\n      iszero\n        /* \"--CODEGEN--\":5:14   */\n      dup1\n        /* \"--CODEGEN--\":2:4   */\n      iszero\n      tag_242\n      jumpi\n        /* \"--CODEGEN--\":27:28   */\n      0x00\n        /* \"--CODEGEN--\":24:25   */\n      dup1\n        /* \"--CODEGEN--\":17:29   */\n      revert\n        /* \"--CODEGEN--\":2:4   */\n    tag_242:\n        /* \"contracts/router.sol\":6075:6146  IPair(pair).permit(msg.sender, address(this), value, deadline, v, r, s) */\n      pop\n      gas\n      call\n      iszero\n        /* \"--CODEGEN--\":8:17   */\n      dup1\n        /* \"--CODEGEN--\":5:7   */\n      iszero\n      tag_244\n      jumpi\n        /* \"--CODEGEN--\":45:61   */\n      returndatasize\n        /* \"--CODEGEN--\":42:43   */\n      0x00\n        /* \"--CODEGEN--\":39:40   */\n      dup1\n        /* \"--CODEGEN--\":24:62   */\n      returndatacopy\n        /* \"--CODEGEN--\":77:93   */\n      returndatasize\n        /* \"--CODEGEN--\":74:75   */\n      0x00\n        /* \"--CODEGEN--\":67:94   */\n      revert\n        /* \"--CODEGEN--\":5:7   */\n    tag_244:\n        /* \"contracts/router.sol\":6075:6146  IPair(pair).permit(msg.sender, address(this), value, deadline, v, r, s) */\n      pop\n      pop\n      pop\n      pop\n        /* \"contracts/router.sol\":6179:6259  removeLiquidityETH(token, liquidity, amountTokenMin, amountETHMin, to, deadline) */\n      tag_245\n        /* \"contracts/router.sol\":6198:6203  token */\n      dup15\n        /* \"contracts/router.sol\":6205:6214  liquidity */\n      dup15\n        /* \"contracts/router.sol\":6216:6230  amountTokenMin */\n      dup15\n        /* \"contracts/router.sol\":6232:6244  amountETHMin */\n      dup15\n        /* \"contracts/router.sol\":6246:6248  to */\n      dup15\n        /* \"contracts/router.sol\":6250:6258  deadline */\n      dup15\n        /* \"contracts/router.sol\":6179:6197  removeLiquidityETH */\n      tag_28\n        /* \"contracts/router.sol\":6179:6259  removeLiquidityETH(token, liquidity, amountTokenMin, amountETHMin, to, deadline) */\n      jump\t// in\n    tag_245:\n        /* \"contracts/router.sol\":6152:6259  (amountToken, amountETH) = removeLiquidityETH(token, liquidity, amountTokenMin, amountETHMin, to, deadline) */\n      dup1\n      swap5\n      pop\n      dup2\n      swap6\n      pop\n      pop\n      pop\n        /* \"contracts/router.sol\":5672:6264  function removeLiquidityETHWithPermit(... */\n      pop\n      pop\n      swap11\n      pop\n      swap11\n      swap9\n      pop\n      pop\n      pop\n      pop\n      pop\n      pop\n      pop\n      pop\n      pop\n      jump\t// out\n        /* \"contracts/router.sol\":837:984  function getPair(address token1, address token2) external view returns (address){... */\n    tag_92:\n        /* \"contracts/router.sol\":909:916  address */\n      0x00\n        /* \"contracts/router.sol\":930:979  UniswapV2Library.pairFor(factory, token1, token2) */\n      tag_247\n        /* \"contracts/router.sol\":955:962  factory */\n      immutable(\"0x1c0bab9e06a591c52ac680ae9eef6479e476f64f56be5d259d46a0497cb2a9b9\")\n        /* \"contracts/router.sol\":964:970  token1 */\n      dup5\n        /* \"contracts/router.sol\":972:978  token2 */\n      dup5\n        /* \"contracts/router.sol\":930:954  UniswapV2Library.pairFor */\n      tag_113\n        /* \"contracts/router.sol\":930:979  UniswapV2Library.pairFor(factory, token1, token2) */\n      jump\t// in\n    tag_247:\n        /* \"contracts/router.sol\":923:979  return UniswapV2Library.pairFor(factory, token1, token2) */\n      swap1\n      pop\n        /* \"contracts/router.sol\":837:984  function getPair(address token1, address token2) external view returns (address){... */\n      swap3\n      swap2\n      pop\n      pop\n      jump\t// out\n        /* \"contracts/router.sol\":2218:2868  function addLiquidity(... */\n    tag_96:\n        /* \"contracts/router.sol\":2455:2467  uint amountA */\n      0x00\n        /* \"contracts/router.sol\":2469:2481  uint amountB */\n      dup1\n        /* \"contracts/router.sol\":2483:2497  uint liquidity */\n      0x00\n        /* \"contracts/router.sol\":2436:2444  deadline */\n      dup4\n        /* \"contracts/router.sol\":551:566  block.timestamp */\n      timestamp\n        /* \"contracts/router.sol\":539:547  deadline */\n      dup2\n        /* \"contracts/router.sol\":539:566  deadline >= block.timestamp */\n      lt\n      iszero\n        /* \"contracts/router.sol\":531:595  require(deadline >= block.timestamp, 'EZKaliburRouter: EXPIRED') */\n      tag_249\n      jumpi\n      mload(0x40)\n      0x08c379a000000000000000000000000000000000000000000000000000000000\n      dup2\n      mstore\n      0x04\n      add\n      dup1\n      dup1\n      0x20\n      add\n      dup3\n      dup2\n      sub\n      dup3\n      mstore\n      0x18\n      dup2\n      mstore\n      0x20\n      add\n      dup1\n      0x455a4b616c69627572526f757465723a20455850495245440000000000000000\n      dup2\n      mstore\n      pop\n      0x20\n      add\n      swap2\n      pop\n      pop\n      mload(0x40)\n      dup1\n      swap2\n      sub\n      swap1\n      revert\n    tag_249:\n        /* \"contracts/router.sol\":2526:2611  _addLiquidity(tokenA, tokenB, amountADesired, amountBDesired, amountAMin, amountBMin) */\n      tag_251\n        /* \"contracts/router.sol\":2540:2546  tokenA */\n      dup13\n        /* \"contracts/router.sol\":2548:2554  tokenB */\n      dup13\n        /* \"contracts/router.sol\":2556:2570  amountADesired */\n      dup13\n        /* \"contracts/router.sol\":2572:2586  amountBDesired */\n      dup13\n        /* \"contracts/router.sol\":2588:2598  amountAMin */\n      dup13\n        /* \"contracts/router.sol\":2600:2610  amountBMin */\n      dup13\n        /* \"contracts/router.sol\":2526:2539  _addLiquidity */\n      tag_252\n        /* \"contracts/router.sol\":2526:2611  _addLiquidity(tokenA, tokenB, amountADesired, amountBDesired, amountAMin, amountBMin) */\n      jump\t// in\n    tag_251:\n        /* \"contracts/router.sol\":2505:2611  (amountA, amountB) = _addLiquidity(tokenA, tokenB, amountADesired, amountBDesired, amountAMin, amountBMin) */\n      dup1\n      swap5\n      pop\n      dup2\n      swap6\n      pop\n      pop\n      pop\n        /* \"contracts/router.sol\":2617:2629  address pair */\n      0x00\n        /* \"contracts/router.sol\":2632:2681  UniswapV2Library.pairFor(factory, tokenA, tokenB) */\n      tag_253\n        /* \"contracts/router.sol\":2657:2664  factory */\n      immutable(\"0x1c0bab9e06a591c52ac680ae9eef6479e476f64f56be5d259d46a0497cb2a9b9\")\n        /* \"contracts/router.sol\":2666:2672  tokenA */\n      dup15\n        /* \"contracts/router.sol\":2674:2680  tokenB */\n      dup15\n        /* \"contracts/router.sol\":2632:2656  UniswapV2Library.pairFor */\n      tag_113\n        /* \"contracts/router.sol\":2632:2681  UniswapV2Library.pairFor(factory, tokenA, tokenB) */\n      jump\t// in\n    tag_253:\n        /* \"contracts/router.sol\":2617:2681  address pair = UniswapV2Library.pairFor(factory, tokenA, tokenB) */\n      swap1\n      pop\n        /* \"contracts/router.sol\":2687:2753  TransferHelper.safeTransferFrom(tokenA, msg.sender, pair, amountA) */\n      tag_254\n        /* \"contracts/router.sol\":2719:2725  tokenA */\n      dup14\n        /* \"contracts/router.sol\":2727:2737  msg.sender */\n      caller\n        /* \"contracts/router.sol\":2739:2743  pair */\n      dup4\n        /* \"contracts/router.sol\":2745:2752  amountA */\n      dup9\n        /* \"contracts/router.sol\":2687:2718  TransferHelper.safeTransferFrom */\n      tag_130\n        /* \"contracts/router.sol\":2687:2753  TransferHelper.safeTransferFrom(tokenA, msg.sender, pair, amountA) */\n      jump\t// in\n    tag_254:\n        /* \"contracts/router.sol\":2759:2825  TransferHelper.safeTransferFrom(tokenB, msg.sender, pair, amountB) */\n      tag_255\n        /* \"contracts/router.sol\":2791:2797  tokenB */\n      dup13\n        /* \"contracts/router.sol\":2799:2809  msg.sender */\n      caller\n        /* \"contracts/router.sol\":2811:2815  pair */\n      dup4\n        /* \"contracts/router.sol\":2817:2824  amountB */\n      dup8\n        /* \"contracts/router.sol\":2759:2790  TransferHelper.safeTransferFrom */\n      tag_130\n        /* \"contracts/router.sol\":2759:2825  TransferHelper.safeTransferFrom(tokenB, msg.sender, pair, amountB) */\n      jump\t// in\n    tag_255:\n        /* \"contracts/router.sol\":2849:2853  pair */\n      dup1\n        /* \"contracts/router.sol\":2843:2859  IPair(pair).mint */\n      0xffffffffffffffffffffffffffffffffffffffff\n      and\n      0x6a627842\n        /* \"contracts/router.sol\":2860:2862  to */\n      dup9\n        /* \"contracts/router.sol\":2843:2863  IPair(pair).mint(to) */\n      mload(0x40)\n      dup3\n      0xffffffff\n      and\n      0xe0\n      shl\n      dup2\n      mstore\n      0x04\n      add\n      dup1\n      dup3\n      0xffffffffffffffffffffffffffffffffffffffff\n      and\n      0xffffffffffffffffffffffffffffffffffffffff\n      and\n      dup2\n      mstore\n      0x20\n      add\n      swap2\n      pop\n      pop\n      0x20\n      mload(0x40)\n      dup1\n      dup4\n      sub\n      dup2\n      0x00\n      dup8\n      dup1\n      extcodesize\n      iszero\n        /* \"--CODEGEN--\":5:14   */\n      dup1\n        /* \"--CODEGEN--\":2:4   */\n      iszero\n      tag_256\n      jumpi\n        /* \"--CODEGEN--\":27:28   */\n      0x00\n        /* \"--CODEGEN--\":24:25   */\n      dup1\n        /* \"--CODEGEN--\":17:29   */\n      revert\n        /* \"--CODEGEN--\":2:4   */\n    tag_256:\n        /* \"contracts/router.sol\":2843:2863  IPair(pair).mint(to) */\n      pop\n      gas\n      call\n      iszero\n        /* \"--CODEGEN--\":8:17   */\n      dup1\n        /* \"--CODEGEN--\":5:7   */\n      iszero\n      tag_258\n      jumpi\n        /* \"--CODEGEN--\":45:61   */\n      returndatasize\n        /* \"--CODEGEN--\":42:43   */\n      0x00\n        /* \"--CODEGEN--\":39:40   */\n      dup1\n        /* \"--CODEGEN--\":24:62   */\n      returndatacopy\n        /* \"--CODEGEN--\":77:93   */\n      returndatasize\n        /* \"--CODEGEN--\":74:75   */\n      0x00\n        /* \"--CODEGEN--\":67:94   */\n      revert\n        /* \"--CODEGEN--\":5:7   */\n    tag_258:\n        /* \"contracts/router.sol\":2843:2863  IPair(pair).mint(to) */\n      pop\n      pop\n      pop\n      pop\n      mload(0x40)\n      returndatasize\n        /* \"--CODEGEN--\":15:17   */\n      0x20\n        /* \"--CODEGEN--\":10:13   */\n      dup2\n        /* \"--CODEGEN--\":7:18   */\n      lt\n        /* \"--CODEGEN--\":4:6   */\n      iszero\n      tag_259\n      jumpi\n        /* \"--CODEGEN--\":31:32   */\n      0x00\n        /* \"--CODEGEN--\":28:29   */\n      dup1\n        /* \"--CODEGEN--\":21:33   */\n      revert\n        /* \"--CODEGEN--\":4:6   */\n    tag_259:\n        /* \"contracts/router.sol\":2843:2863  IPair(pair).mint(to) */\n      dup2\n      add\n      swap1\n      dup1\n      dup1\n      mload\n      swap1\n      0x20\n      add\n      swap1\n      swap3\n      swap2\n      swap1\n      pop\n      pop\n      pop\n        /* \"contracts/router.sol\":2831:2863  liquidity = IPair(pair).mint(to) */\n      swap3\n      pop\n        /* \"contracts/router.sol\":601:602  _ */\n      pop\n        /* \"contracts/router.sol\":2218:2868  function addLiquidity(... */\n      pop\n      swap9\n      pop\n      swap9\n      pop\n      swap9\n      swap6\n      pop\n      pop\n      pop\n      pop\n      pop\n      pop\n      jump\t// out\n        /* \"contracts/router.sol\":2872:3707  function addLiquidityETH(... */\n    tag_99:\n        /* \"contracts/router.sol\":3084:3100  uint amountToken */\n      0x00\n        /* \"contracts/router.sol\":3102:3116  uint amountETH */\n      dup1\n        /* \"contracts/router.sol\":3118:3132  uint liquidity */\n      0x00\n        /* \"contracts/router.sol\":3065:3073  deadline */\n      dup4\n        /* \"contracts/router.sol\":551:566  block.timestamp */\n      timestamp\n        /* \"contracts/router.sol\":539:547  deadline */\n      dup2\n        /* \"contracts/router.sol\":539:566  deadline >= block.timestamp */\n      lt\n      iszero\n        /* \"contracts/router.sol\":531:595  require(deadline >= block.timestamp, 'EZKaliburRouter: EXPIRED') */\n      tag_261\n      jumpi\n      mload(0x40)\n      0x08c379a000000000000000000000000000000000000000000000000000000000\n      dup2\n      mstore\n      0x04\n      add\n      dup1\n      dup1\n      0x20\n      add\n      dup3\n      dup2\n      sub\n      dup3\n      mstore\n      0x18\n      dup2\n      mstore\n      0x20\n      add\n      dup1\n      0x455a4b616c69627572526f757465723a20455850495245440000000000000000\n      dup2\n      mstore\n      pop\n      0x20\n      add\n      swap2\n      pop\n      pop\n      mload(0x40)\n      dup1\n      swap2\n      sub\n      swap1\n      revert\n    tag_261:\n        /* \"contracts/router.sol\":3167:3296  _addLiquidity(... */\n      tag_263\n        /* \"contracts/router.sol\":3188:3193  token */\n      dup11\n        /* \"contracts/router.sol\":3201:3205  WETH */\n      immutable(\"0x1ae990503def382b005be0ab67f63e79e5d8d76ebedbaef5e88f9b321d6d6a06\")\n        /* \"contracts/router.sol\":3213:3231  amountTokenDesired */\n      dup12\n        /* \"contracts/router.sol\":3239:3248  msg.value */\n      callvalue\n        /* \"contracts/router.sol\":3256:3270  amountTokenMin */\n      dup13\n        /* \"contracts/router.sol\":3278:3290  amountETHMin */\n      dup13\n        /* \"contracts/router.sol\":3167:3180  _addLiquidity */\n      tag_252\n        /* \"contracts/router.sol\":3167:3296  _addLiquidity(... */\n      jump\t// in\n    tag_263:\n        /* \"contracts/router.sol\":3140:3296  (amountToken, amountETH) = _addLiquidity(... */\n      dup1\n      swap5\n      pop\n      dup2\n      swap6\n      pop\n      pop\n      pop\n        /* \"contracts/router.sol\":3302:3314  address pair */\n      0x00\n        /* \"contracts/router.sol\":3317:3363  UniswapV2Library.pairFor(factory, token, WETH) */\n      tag_264\n        /* \"contracts/router.sol\":3342:3349  factory */\n      immutable(\"0x1c0bab9e06a591c52ac680ae9eef6479e476f64f56be5d259d46a0497cb2a9b9\")\n        /* \"contracts/router.sol\":3351:3356  token */\n      dup13\n        /* \"contracts/router.sol\":3358:3362  WETH */\n      immutable(\"0x1ae990503def382b005be0ab67f63e79e5d8d76ebedbaef5e88f9b321d6d6a06\")\n        /* \"contracts/router.sol\":3317:3341  UniswapV2Library.pairFor */\n      tag_113\n        /* \"contracts/router.sol\":3317:3363  UniswapV2Library.pairFor(factory, token, WETH) */\n      jump\t// in\n    tag_264:\n        /* \"contracts/router.sol\":3302:3363  address pair = UniswapV2Library.pairFor(factory, token, WETH) */\n      swap1\n      pop\n        /* \"contracts/router.sol\":3369:3438  TransferHelper.safeTransferFrom(token, msg.sender, pair, amountToken) */\n      tag_265\n        /* \"contracts/router.sol\":3401:3406  token */\n      dup12\n        /* \"contracts/router.sol\":3408:3418  msg.sender */\n      caller\n        /* \"contracts/router.sol\":3420:3424  pair */\n      dup4\n        /* \"contracts/router.sol\":3426:3437  amountToken */\n      dup9\n        /* \"contracts/router.sol\":3369:3400  TransferHelper.safeTransferFrom */\n      tag_130\n        /* \"contracts/router.sol\":3369:3438  TransferHelper.safeTransferFrom(token, msg.sender, pair, amountToken) */\n      jump\t// in\n    tag_265:\n        /* \"contracts/router.sol\":3450:3454  WETH */\n      immutable(\"0x1ae990503def382b005be0ab67f63e79e5d8d76ebedbaef5e88f9b321d6d6a06\")\n        /* \"contracts/router.sol\":3444:3463  IWETH(WETH).deposit */\n      0xffffffffffffffffffffffffffffffffffffffff\n      and\n      0xd0e30db0\n        /* \"contracts/router.sol\":3472:3481  amountETH */\n      dup6\n        /* \"contracts/router.sol\":3444:3484  IWETH(WETH).deposit{value : amountETH}() */\n      mload(0x40)\n      dup3\n      0xffffffff\n      and\n      0xe0\n      shl\n      dup2\n      mstore\n      0x04\n      add\n      0x00\n      mload(0x40)\n      dup1\n      dup4\n      sub\n      dup2\n      dup6\n      dup9\n      dup1\n      extcodesize\n      iszero\n        /* \"--CODEGEN--\":5:14   */\n      dup1\n        /* \"--CODEGEN--\":2:4   */\n      iszero\n      tag_266\n      jumpi\n        /* \"--CODEGEN--\":27:28   */\n      0x00\n        /* \"--CODEGEN--\":24:25   */\n      dup1\n        /* \"--CODEGEN--\":17:29   */\n      revert\n        /* \"--CODEGEN--\":2:4   */\n    tag_266:\n        /* \"contracts/router.sol\":3444:3484  IWETH(WETH).deposit{value : amountETH}() */\n      pop\n      gas\n      call\n      iszero\n        /* \"--CODEGEN--\":8:17   */\n      dup1\n        /* \"--CODEGEN--\":5:7   */\n      iszero\n      tag_268\n      jumpi\n        /* \"--CODEGEN--\":45:61   */\n      returndatasize\n        /* \"--CODEGEN--\":42:43   */\n      0x00\n        /* \"--CODEGEN--\":39:40   */\n      dup1\n        /* \"--CODEGEN--\":24:62   */\n      returndatacopy\n        /* \"--CODEGEN--\":77:93   */\n      returndatasize\n        /* \"--CODEGEN--\":74:75   */\n      0x00\n        /* \"--CODEGEN--\":67:94   */\n      revert\n        /* \"--CODEGEN--\":5:7   */\n    tag_268:\n        /* \"contracts/router.sol\":3444:3484  IWETH(WETH).deposit{value : amountETH}() */\n      pop\n      pop\n      pop\n      pop\n      pop\n        /* \"contracts/router.sol\":3503:3507  WETH */\n      immutable(\"0x1ae990503def382b005be0ab67f63e79e5d8d76ebedbaef5e88f9b321d6d6a06\")\n        /* \"contracts/router.sol\":3497:3517  IWETH(WETH).transfer */\n      0xffffffffffffffffffffffffffffffffffffffff\n      and\n      0xa9059cbb\n        /* \"contracts/router.sol\":3518:3522  pair */\n      dup3\n        /* \"contracts/router.sol\":3524:3533  amountETH */\n      dup7\n        /* \"contracts/router.sol\":3497:3534  IWETH(WETH).transfer(pair, amountETH) */\n      mload(0x40)\n      dup4\n      0xffffffff\n      and\n      0xe0\n      shl\n      dup2\n      mstore\n      0x04\n      add\n      dup1\n      dup4\n      0xffffffffffffffffffffffffffffffffffffffff\n      and\n      0xffffffffffffffffffffffffffffffffffffffff\n      and\n      dup2\n      mstore\n      0x20\n      add\n      dup3\n      dup2\n      mstore\n      0x20\n      add\n      swap3\n      pop\n      pop\n      pop\n      0x20\n      mload(0x40)\n      dup1\n      dup4\n      sub\n      dup2\n      0x00\n      dup8\n      dup1\n      extcodesize\n      iszero\n        /* \"--CODEGEN--\":5:14   */\n      dup1\n        /* \"--CODEGEN--\":2:4   */\n      iszero\n      tag_269\n      jumpi\n        /* \"--CODEGEN--\":27:28   */\n      0x00\n        /* \"--CODEGEN--\":24:25   */\n      dup1\n        /* \"--CODEGEN--\":17:29   */\n      revert\n        /* \"--CODEGEN--\":2:4   */\n    tag_269:\n        /* \"contracts/router.sol\":3497:3534  IWETH(WETH).transfer(pair, amountETH) */\n      pop\n      gas\n      call\n      iszero\n        /* \"--CODEGEN--\":8:17   */\n      dup1\n        /* \"--CODEGEN--\":5:7   */\n      iszero\n      tag_271\n      jumpi\n        /* \"--CODEGEN--\":45:61   */\n      returndatasize\n        /* \"--CODEGEN--\":42:43   */\n      0x00\n        /* \"--CODEGEN--\":39:40   */\n      dup1\n        /* \"--CODEGEN--\":24:62   */\n      returndatacopy\n        /* \"--CODEGEN--\":77:93   */\n      returndatasize\n        /* \"--CODEGEN--\":74:75   */\n      0x00\n        /* \"--CODEGEN--\":67:94   */\n      revert\n        /* \"--CODEGEN--\":5:7   */\n    tag_271:\n        /* \"contracts/router.sol\":3497:3534  IWETH(WETH).transfer(pair, amountETH) */\n      pop\n      pop\n      pop\n      pop\n      mload(0x40)\n      returndatasize\n        /* \"--CODEGEN--\":15:17   */\n      0x20\n        /* \"--CODEGEN--\":10:13   */\n      dup2\n        /* \"--CODEGEN--\":7:18   */\n      lt\n        /* \"--CODEGEN--\":4:6   */\n      iszero\n      tag_272\n      jumpi\n        /* \"--CODEGEN--\":31:32   */\n      0x00\n        /* \"--CODEGEN--\":28:29   */\n      dup1\n        /* \"--CODEGEN--\":21:33   */\n      revert\n        /* \"--CODEGEN--\":4:6   */\n    tag_272:\n        /* \"contracts/router.sol\":3497:3534  IWETH(WETH).transfer(pair, amountETH) */\n      dup2\n      add\n      swap1\n      dup1\n      dup1\n      mload\n      swap1\n      0x20\n      add\n      swap1\n      swap3\n      swap2\n      swap1\n      pop\n      pop\n      pop\n        /* \"contracts/router.sol\":3490:3535  assert(IWETH(WETH).transfer(pair, amountETH)) */\n      tag_273\n      jumpi\n      invalid\n    tag_273:\n        /* \"contracts/router.sol\":3559:3563  pair */\n      dup1\n        /* \"contracts/router.sol\":3553:3569  IPair(pair).mint */\n      0xffffffffffffffffffffffffffffffffffffffff\n      and\n      0x6a627842\n        /* \"contracts/router.sol\":3570:3572  to */\n      dup9\n        /* \"contracts/router.sol\":3553:3573  IPair(pair).mint(to) */\n      mload(0x40)\n      dup3\n      0xffffffff\n      and\n      0xe0\n      shl\n      dup2\n      mstore\n      0x04\n      add\n      dup1\n      dup3\n      0xffffffffffffffffffffffffffffffffffffffff\n      and\n      0xffffffffffffffffffffffffffffffffffffffff\n      and\n      dup2\n      mstore\n      0x20\n      add\n      swap2\n      pop\n      pop\n      0x20\n      mload(0x40)\n      dup1\n      dup4\n      sub\n      dup2\n      0x00\n      dup8\n      dup1\n      extcodesize\n      iszero\n        /* \"--CODEGEN--\":5:14   */\n      dup1\n        /* \"--CODEGEN--\":2:4   */\n      iszero\n      tag_274\n      jumpi\n        /* \"--CODEGEN--\":27:28   */\n      0x00\n        /* \"--CODEGEN--\":24:25   */\n      dup1\n        /* \"--CODEGEN--\":17:29   */\n      revert\n        /* \"--CODEGEN--\":2:4   */\n    tag_274:\n        /* \"contracts/router.sol\":3553:3573  IPair(pair).mint(to) */\n      pop\n      gas\n      call\n      iszero\n        /* \"--CODEGEN--\":8:17   */\n      dup1\n        /* \"--CODEGEN--\":5:7   */\n      iszero\n      tag_276\n      jumpi\n        /* \"--CODEGEN--\":45:61   */\n      returndatasize\n        /* \"--CODEGEN--\":42:43   */\n      0x00\n        /* \"--CODEGEN--\":39:40   */\n      dup1\n        /* \"--CODEGEN--\":24:62   */\n      returndatacopy\n        /* \"--CODEGEN--\":77:93   */\n      returndatasize\n        /* \"--CODEGEN--\":74:75   */\n      0x00\n        /* \"--CODEGEN--\":67:94   */\n      revert\n        /* \"--CODEGEN--\":5:7   */\n    tag_276:\n        /* \"contracts/router.sol\":3553:3573  IPair(pair).mint(to) */\n      pop\n      pop\n      pop\n      pop\n      mload(0x40)\n      returndatasize\n        /* \"--CODEGEN--\":15:17   */\n      0x20\n        /* \"--CODEGEN--\":10:13   */\n      dup2\n        /* \"--CODEGEN--\":7:18   */\n      lt\n        /* \"--CODEGEN--\":4:6   */\n      iszero\n      tag_277\n      jumpi\n        /* \"--CODEGEN--\":31:32   */\n      0x00\n        /* \"--CODEGEN--\":28:29   */\n      dup1\n        /* \"--CODEGEN--\":21:33   */\n      revert\n        /* \"--CODEGEN--\":4:6   */\n    tag_277:\n        /* \"contracts/router.sol\":3553:3573  IPair(pair).mint(to) */\n      dup2\n      add\n      swap1\n      dup1\n      dup1\n      mload\n      swap1\n      0x20\n      add\n      swap1\n      swap3\n      swap2\n      swap1\n      pop\n      pop\n      pop\n        /* \"contracts/router.sol\":3541:3573  liquidity = IPair(pair).mint(to) */\n      swap3\n      pop\n        /* \"contracts/router.sol\":3626:3635  amountETH */\n      dup4\n        /* \"contracts/router.sol\":3614:3623  msg.value */\n      callvalue\n        /* \"contracts/router.sol\":3614:3635  msg.value > amountETH */\n      gt\n        /* \"contracts/router.sol\":3610:3702  if (msg.value > amountETH) TransferHelper.safeTransferETH(msg.sender, msg.value - amountETH) */\n      iszero\n      tag_278\n      jumpi\n        /* \"contracts/router.sol\":3637:3702  TransferHelper.safeTransferETH(msg.sender, msg.value - amountETH) */\n      tag_279\n        /* \"contracts/router.sol\":3668:3678  msg.sender */\n      caller\n        /* \"contracts/router.sol\":3692:3701  amountETH */\n      dup6\n        /* \"contracts/router.sol\":3680:3689  msg.value */\n      callvalue\n        /* \"contracts/router.sol\":3680:3701  msg.value - amountETH */\n      sub\n        /* \"contracts/router.sol\":3637:3667  TransferHelper.safeTransferETH */\n      tag_110\n        /* \"contracts/router.sol\":3637:3702  TransferHelper.safeTransferETH(msg.sender, msg.value - amountETH) */\n      jump\t// in\n    tag_279:\n        /* \"contracts/router.sol\":3610:3702  if (msg.value > amountETH) TransferHelper.safeTransferETH(msg.sender, msg.value - amountETH) */\n    tag_278:\n        /* \"contracts/router.sol\":601:602  _ */\n      pop\n        /* \"contracts/router.sol\":2872:3707  function addLiquidityETH(... */\n      pop\n      swap7\n      pop\n      swap7\n      pop\n      swap7\n      swap4\n      pop\n      pop\n      pop\n      pop\n      jump\t// out\n        /* \"@uniswap/lib/contracts/libraries/TransferHelper.sol\":652:1090  function safeTransfer(... */\n    tag_105:\n        /* \"@uniswap/lib/contracts/libraries/TransferHelper.sol\":832:844  bool success */\n      0x00\n        /* \"@uniswap/lib/contracts/libraries/TransferHelper.sol\":846:863  bytes memory data */\n      0x60\n        /* \"@uniswap/lib/contracts/libraries/TransferHelper.sol\":867:872  token */\n      dup5\n        /* \"@uniswap/lib/contracts/libraries/TransferHelper.sol\":867:877  token.call */\n      0xffffffffffffffffffffffffffffffffffffffff\n      and\n        /* \"@uniswap/lib/contracts/libraries/TransferHelper.sol\":901:911  0xa9059cbb */\n      0xa9059cbb\n        /* \"@uniswap/lib/contracts/libraries/TransferHelper.sol\":913:915  to */\n      dup6\n        /* \"@uniswap/lib/contracts/libraries/TransferHelper.sol\":917:922  value */\n      dup6\n        /* \"@uniswap/lib/contracts/libraries/TransferHelper.sol\":878:923  abi.encodeWithSelector(0xa9059cbb, to, value) */\n      add(0x24, mload(0x40))\n      dup1\n      dup4\n      0xffffffffffffffffffffffffffffffffffffffff\n      and\n      0xffffffffffffffffffffffffffffffffffffffff\n      and\n      dup2\n      mstore\n      0x20\n      add\n      dup3\n      dup2\n      mstore\n      0x20\n      add\n      swap3\n      pop\n      pop\n      pop\n      mload(0x40)\n        /* \"--CODEGEN--\":49:53   */\n      0x20\n        /* \"--CODEGEN--\":39:46   */\n      dup2\n        /* \"--CODEGEN--\":30:37   */\n      dup4\n        /* \"--CODEGEN--\":26:47   */\n      sub\n        /* \"--CODEGEN--\":22:54   */\n      sub\n        /* \"--CODEGEN--\":13:20   */\n      dup2\n        /* \"--CODEGEN--\":6:55   */\n      mstore\n        /* \"@uniswap/lib/contracts/libraries/TransferHelper.sol\":878:923  abi.encodeWithSelector(0xa9059cbb, to, value) */\n      swap1\n      0x40\n      mstore\n      swap1\n      0xe0\n      shl\n        /* \"--CODEGEN--\":38:42   */\n      0x20\n        /* \"--CODEGEN--\":29:36   */\n      dup3\n        /* \"--CODEGEN--\":25:43   */\n      add\n        /* \"--CODEGEN--\":67:77   */\n      dup1\n        /* \"--CODEGEN--\":61:78   */\n      mload\n        /* \"--CODEGEN--\":96:154   */\n      0xffffffffffffffffffffffffffffffffffffffffffffffffffffffff\n        /* \"--CODEGEN--\":199:207   */\n      dup4\n        /* \"--CODEGEN--\":192:196   */\n      dup2\n        /* \"--CODEGEN--\":186:190   */\n      dup4\n        /* \"--CODEGEN--\":182:197   */\n      and\n        /* \"--CODEGEN--\":179:208   */\n      or\n        /* \"--CODEGEN--\":167:177   */\n      dup4\n        /* \"--CODEGEN--\":160:209   */\n      mstore\n        /* \"--CODEGEN--\":0:215   */\n      pop\n      pop\n      pop\n        /* \"@uniswap/lib/contracts/libraries/TransferHelper.sol\":878:923  abi.encodeWithSelector(0xa9059cbb, to, value) */\n      pop\n        /* \"@uniswap/lib/contracts/libraries/TransferHelper.sol\":867:924  token.call(abi.encodeWithSelector(0xa9059cbb, to, value)) */\n      mload(0x40)\n      dup1\n      dup3\n      dup1\n      mload\n      swap1\n      0x20\n      add\n      swap1\n      dup1\n      dup4\n      dup4\n        /* \"--CODEGEN--\":36:189   */\n    tag_281:\n        /* \"--CODEGEN--\":66:68   */\n      0x20\n        /* \"--CODEGEN--\":61:64   */\n      dup4\n        /* \"--CODEGEN--\":58:69   */\n      lt\n        /* \"--CODEGEN--\":36:189   */\n      tag_283\n      jumpi\n        /* \"--CODEGEN--\":182:185   */\n      dup1\n        /* \"--CODEGEN--\":176:186   */\n      mload\n        /* \"--CODEGEN--\":171:174   */\n      dup3\n        /* \"--CODEGEN--\":164:187   */\n      mstore\n        /* \"--CODEGEN--\":98:100   */\n      0x20\n        /* \"--CODEGEN--\":93:96   */\n      dup3\n        /* \"--CODEGEN--\":89:101   */\n      add\n        /* \"--CODEGEN--\":82:101   */\n      swap2\n      pop\n        /* \"--CODEGEN--\":123:125   */\n      0x20\n        /* \"--CODEGEN--\":118:121   */\n      dup2\n        /* \"--CODEGEN--\":114:126   */\n      add\n        /* \"--CODEGEN--\":107:126   */\n      swap1\n      pop\n        /* \"--CODEGEN--\":148:150   */\n      0x20\n        /* \"--CODEGEN--\":143:146   */\n      dup4\n        /* \"--CODEGEN--\":139:151   */\n      sub\n        /* \"--CODEGEN--\":132:151   */\n      swap3\n      pop\n        /* \"--CODEGEN--\":36:189   */\n      jump(tag_281)\n    tag_283:\n        /* \"--CODEGEN--\":274:275   */\n      0x01\n        /* \"--CODEGEN--\":267:270   */\n      dup4\n        /* \"--CODEGEN--\":263:265   */\n      0x20\n        /* \"--CODEGEN--\":259:271   */\n      sub\n        /* \"--CODEGEN--\":254:257   */\n      0x0100\n        /* \"--CODEGEN--\":250:272   */\n      exp\n        /* \"--CODEGEN--\":246:276   */\n      sub\n        /* \"--CODEGEN--\":315:319   */\n      dup1\n        /* \"--CODEGEN--\":311:320   */\n      not\n        /* \"--CODEGEN--\":305:308   */\n      dup3\n        /* \"--CODEGEN--\":299:309   */\n      mload\n        /* \"--CODEGEN--\":295:321   */\n      and\n        /* \"--CODEGEN--\":356:360   */\n      dup2\n        /* \"--CODEGEN--\":350:353   */\n      dup5\n        /* \"--CODEGEN--\":344:354   */\n      mload\n        /* \"--CODEGEN--\":340:361   */\n      and\n        /* \"--CODEGEN--\":389:396   */\n      dup1\n        /* \"--CODEGEN--\":380:387   */\n      dup3\n        /* \"--CODEGEN--\":377:397   */\n      or\n        /* \"--CODEGEN--\":372:375   */\n      dup6\n        /* \"--CODEGEN--\":365:398   */\n      mstore\n        /* \"--CODEGEN--\":3:402   */\n      pop\n      pop\n      pop\n        /* \"@uniswap/lib/contracts/libraries/TransferHelper.sol\":867:924  token.call(abi.encodeWithSelector(0xa9059cbb, to, value)) */\n      pop\n      pop\n      pop\n      swap1\n      pop\n      add\n      swap2\n      pop\n      pop\n      0x00\n      mload(0x40)\n      dup1\n      dup4\n      sub\n      dup2\n      0x00\n      dup7\n      gas\n      call\n      swap2\n      pop\n      pop\n      returndatasize\n        /* \"--CODEGEN--\":12:13   */\n      dup1\n        /* \"--CODEGEN--\":19:20   */\n      0x00\n        /* \"--CODEGEN--\":14:41   */\n      dup2\n      eq\n      tag_286\n      jumpi\n        /* \"--CODEGEN--\":67:71   */\n      0x40\n        /* \"--CODEGEN--\":61:72   */\n      mload\n        /* \"--CODEGEN--\":56:72   */\n      swap2\n      pop\n        /* \"--CODEGEN--\":134:138   */\n      0x1f\n        /* \"--CODEGEN--\":130:139   */\n      not\n        /* \"--CODEGEN--\":123:127   */\n      0x3f\n        /* \"--CODEGEN--\":105:121   */\n      returndatasize\n        /* \"--CODEGEN--\":101:128   */\n      add\n        /* \"--CODEGEN--\":97:140   */\n      and\n        /* \"--CODEGEN--\":94:95   */\n      dup3\n        /* \"--CODEGEN--\":90:141   */\n      add\n        /* \"--CODEGEN--\":84:88   */\n      0x40\n        /* \"--CODEGEN--\":77:142   */\n      mstore\n        /* \"--CODEGEN--\":157:173   */\n      returndatasize\n        /* \"--CODEGEN--\":154:155   */\n      dup3\n        /* \"--CODEGEN--\":147:174   */\n      mstore\n        /* \"--CODEGEN--\":211:227   */\n      returndatasize\n        /* \"--CODEGEN--\":208:209   */\n      0x00\n        /* \"--CODEGEN--\":201:205   */\n      0x20\n        /* \"--CODEGEN--\":198:199   */\n      dup5\n        /* \"--CODEGEN--\":194:206   */\n      add\n        /* \"--CODEGEN--\":179:228   */\n      returndatacopy\n        /* \"--CODEGEN--\":5:233   */\n      jump(tag_285)\n        /* \"--CODEGEN--\":14:41   */\n    tag_286:\n        /* \"--CODEGEN--\":32:36   */\n      0x60\n        /* \"--CODEGEN--\":27:36   */\n      swap2\n      pop\n        /* \"--CODEGEN--\":5:233   */\n    tag_285:\n      pop\n        /* \"@uniswap/lib/contracts/libraries/TransferHelper.sol\":831:924  (bool success, bytes memory data) = token.call(abi.encodeWithSelector(0xa9059cbb, to, value)) */\n      swap2\n      pop\n      swap2\n      pop\n        /* \"@uniswap/lib/contracts/libraries/TransferHelper.sol\":955:962  success */\n      dup2\n        /* \"@uniswap/lib/contracts/libraries/TransferHelper.sol\":955:1012  success && (data.length == 0 || abi.decode(data, (bool))) */\n      dup1\n      iszero\n      tag_287\n      jumpi\n      pop\n        /* \"@uniswap/lib/contracts/libraries/TransferHelper.sol\":982:983  0 */\n      0x00\n        /* \"@uniswap/lib/contracts/libraries/TransferHelper.sol\":967:971  data */\n      dup2\n        /* \"@uniswap/lib/contracts/libraries/TransferHelper.sol\":967:978  data.length */\n      mload\n        /* \"@uniswap/lib/contracts/libraries/TransferHelper.sol\":967:983  data.length == 0 */\n      eq\n        /* \"@uniswap/lib/contracts/libraries/TransferHelper.sol\":967:1011  data.length == 0 || abi.decode(data, (bool)) */\n      dup1\n      tag_288\n      jumpi\n      pop\n        /* \"@uniswap/lib/contracts/libraries/TransferHelper.sol\":998:1002  data */\n      dup1\n        /* \"@uniswap/lib/contracts/libraries/TransferHelper.sol\":987:1011  abi.decode(data, (bool)) */\n      dup1\n      0x20\n      add\n      swap1\n      mload\n        /* \"--CODEGEN--\":15:17   */\n      0x20\n        /* \"--CODEGEN--\":10:13   */\n      dup2\n        /* \"--CODEGEN--\":7:18   */\n      lt\n        /* \"--CODEGEN--\":4:6   */\n      iszero\n      tag_289\n      jumpi\n        /* \"--CODEGEN--\":31:32   */\n      0x00\n        /* \"--CODEGEN--\":28:29   */\n      dup1\n        /* \"--CODEGEN--\":21:33   */\n      revert\n        /* \"--CODEGEN--\":4:6   */\n    tag_289:\n        /* \"@uniswap/lib/contracts/libraries/TransferHelper.sol\":987:1011  abi.decode(data, (bool)) */\n      dup2\n      add\n      swap1\n      dup1\n      dup1\n      mload\n      swap1\n      0x20\n      add\n      swap1\n      swap3\n      swap2\n      swap1\n      pop\n      pop\n      pop\n        /* \"@uniswap/lib/contracts/libraries/TransferHelper.sol\":967:1011  data.length == 0 || abi.decode(data, (bool)) */\n    tag_288:\n        /* \"@uniswap/lib/contracts/libraries/TransferHelper.sol\":955:1012  success && (data.length == 0 || abi.decode(data, (bool))) */\n    tag_287:\n        /* \"@uniswap/lib/contracts/libraries/TransferHelper.sol\":934:1083  require(... */\n      tag_290\n      jumpi\n      mload(0x40)\n      0x08c379a000000000000000000000000000000000000000000000000000000000\n      dup2\n      mstore\n      0x04\n      add\n      dup1\n      dup1\n      0x20\n      add\n      dup3\n      dup2\n      sub\n      dup3\n      mstore\n      0x2d\n      dup2\n      mstore\n      0x20\n      add\n      dup1\n      data_daea69421eeb1164e163c36f3d4349f0db3ec4e0d1381bd5bf4faf53496c2611\n      0x2d\n      swap2\n      codecopy\n      0x40\n      add\n      swap2\n      pop\n      pop\n      mload(0x40)\n      dup1\n      swap2\n      sub\n      swap1\n      revert\n    tag_290:\n        /* \"@uniswap/lib/contracts/libraries/TransferHelper.sol\":652:1090  function safeTransfer(... */\n      pop\n      pop\n      pop\n      pop\n      pop\n      jump\t// out\n        /* \"@uniswap/lib/contracts/libraries/TransferHelper.sol\":1588:1802  function safeTransferETH(address to, uint256 value) internal {... */\n    tag_110:\n        /* \"@uniswap/lib/contracts/libraries/TransferHelper.sol\":1660:1672  bool success */\n      0x00\n        /* \"@uniswap/lib/contracts/libraries/TransferHelper.sol\":1678:1680  to */\n      dup3\n        /* \"@uniswap/lib/contracts/libraries/TransferHelper.sol\":1678:1685  to.call */\n      0xffffffffffffffffffffffffffffffffffffffff\n      and\n        /* \"@uniswap/lib/contracts/libraries/TransferHelper.sol\":1693:1698  value */\n      dup3\n        /* \"@uniswap/lib/contracts/libraries/TransferHelper.sol\":1710:1711  0 */\n      0x00\n        /* \"@uniswap/lib/contracts/libraries/TransferHelper.sol\":1700:1712  new bytes(0) */\n      0xffffffffffffffff\n      dup2\n      gt\n        /* \"--CODEGEN--\":5:14   */\n      dup1\n        /* \"--CODEGEN--\":2:4   */\n      iszero\n      tag_292\n      jumpi\n        /* \"--CODEGEN--\":27:28   */\n      0x00\n        /* \"--CODEGEN--\":24:25   */\n      dup1\n        /* \"--CODEGEN--\":17:29   */\n      revert\n        /* \"--CODEGEN--\":2:4   */\n    tag_292:\n        /* \"@uniswap/lib/contracts/libraries/TransferHelper.sol\":1700:1712  new bytes(0) */\n      pop\n      mload(0x40)\n      swap1\n      dup1\n      dup3\n      mstore\n      dup1\n      0x1f\n      add\n      not(0x1f)\n      and\n      0x20\n      add\n      dup3\n      add\n      0x40\n      mstore\n      dup1\n      iszero\n      tag_293\n      jumpi\n      dup2\n      0x20\n      add\n        /* \"--CODEGEN--\":29:30   */\n      0x01\n        /* \"--CODEGEN--\":21:27   */\n      dup3\n        /* \"--CODEGEN--\":17:31   */\n      mul\n        /* \"--CODEGEN--\":124:128   */\n      dup1\n        /* \"--CODEGEN--\":108:122   */\n      calldatasize\n        /* \"--CODEGEN--\":100:106   */\n      dup4\n        /* \"--CODEGEN--\":87:129   */\n      calldatacopy\n        /* \"--CODEGEN--\":155:159   */\n      dup1\n        /* \"--CODEGEN--\":147:153   */\n      dup3\n        /* \"--CODEGEN--\":143:160   */\n      add\n        /* \"--CODEGEN--\":133:160   */\n      swap2\n      pop\n        /* \"--CODEGEN--\":0:164   */\n      pop\n        /* \"@uniswap/lib/contracts/libraries/TransferHelper.sol\":1700:1712  new bytes(0) */\n      swap1\n      pop\n    tag_293:\n      pop\n        /* \"@uniswap/lib/contracts/libraries/TransferHelper.sol\":1678:1713  to.call{value: value}(new bytes(0)) */\n      mload(0x40)\n      dup1\n      dup3\n      dup1\n      mload\n      swap1\n      0x20\n      add\n      swap1\n      dup1\n      dup4\n      dup4\n        /* \"--CODEGEN--\":36:189   */\n    tag_294:\n        /* \"--CODEGEN--\":66:68   */\n      0x20\n        /* \"--CODEGEN--\":61:64   */\n      dup4\n        /* \"--CODEGEN--\":58:69   */\n      lt\n        /* \"--CODEGEN--\":36:189   */\n      tag_296\n      jumpi\n        /* \"--CODEGEN--\":182:185   */\n      dup1\n        /* \"--CODEGEN--\":176:186   */\n      mload\n        /* \"--CODEGEN--\":171:174   */\n      dup3\n        /* \"--CODEGEN--\":164:187   */\n      mstore\n        /* \"--CODEGEN--\":98:100   */\n      0x20\n        /* \"--CODEGEN--\":93:96   */\n      dup3\n        /* \"--CODEGEN--\":89:101   */\n      add\n        /* \"--CODEGEN--\":82:101   */\n      swap2\n      pop\n        /* \"--CODEGEN--\":123:125   */\n      0x20\n        /* \"--CODEGEN--\":118:121   */\n      dup2\n        /* \"--CODEGEN--\":114:126   */\n      add\n        /* \"--CODEGEN--\":107:126   */\n      swap1\n      pop\n        /* \"--CODEGEN--\":148:150   */\n      0x20\n        /* \"--CODEGEN--\":143:146   */\n      dup4\n        /* \"--CODEGEN--\":139:151   */\n      sub\n        /* \"--CODEGEN--\":132:151   */\n      swap3\n      pop\n        /* \"--CODEGEN--\":36:189   */\n      jump(tag_294)\n    tag_296:\n        /* \"--CODEGEN--\":274:275   */\n      0x01\n        /* \"--CODEGEN--\":267:270   */\n      dup4\n        /* \"--CODEGEN--\":263:265   */\n      0x20\n        /* \"--CODEGEN--\":259:271   */\n      sub\n        /* \"--CODEGEN--\":254:257   */\n      0x0100\n        /* \"--CODEGEN--\":250:272   */\n      exp\n        /* \"--CODEGEN--\":246:276   */\n      sub\n        /* \"--CODEGEN--\":315:319   */\n      dup1\n        /* \"--CODEGEN--\":311:320   */\n      not\n        /* \"--CODEGEN--\":305:308   */\n      dup3\n        /* \"--CODEGEN--\":299:309   */\n      mload\n        /* \"--CODEGEN--\":295:321   */\n      and\n        /* \"--CODEGEN--\":356:360   */\n      dup2\n        /* \"--CODEGEN--\":350:353   */\n      dup5\n        /* \"--CODEGEN--\":344:354   */\n      mload\n        /* \"--CODEGEN--\":340:361   */\n      and\n        /* \"--CODEGEN--\":389:396   */\n      dup1\n        /* \"--CODEGEN--\":380:387   */\n      dup3\n        /* \"--CODEGEN--\":377:397   */\n      or\n        /* \"--CODEGEN--\":372:375   */\n      dup6\n        /* \"--CODEGEN--\":365:398   */\n      mstore\n        /* \"--CODEGEN--\":3:402   */\n      pop\n      pop\n      pop\n        /* \"@uniswap/lib/contracts/libraries/TransferHelper.sol\":1678:1713  to.call{value: value}(new bytes(0)) */\n      pop\n      pop\n      pop\n      swap1\n      pop\n      add\n      swap2\n      pop\n      pop\n      0x00\n      mload(0x40)\n      dup1\n      dup4\n      sub\n      dup2\n      dup6\n      dup8\n      gas\n      call\n      swap3\n      pop\n      pop\n      pop\n      returndatasize\n        /* \"--CODEGEN--\":12:13   */\n      dup1\n        /* \"--CODEGEN--\":19:20   */\n      0x00\n        /* \"--CODEGEN--\":14:41   */\n      dup2\n      eq\n      tag_299\n      jumpi\n        /* \"--CODEGEN--\":67:71   */\n      0x40\n        /* \"--CODEGEN--\":61:72   */\n      mload\n        /* \"--CODEGEN--\":56:72   */\n      swap2\n      pop\n        /* \"--CODEGEN--\":134:138   */\n      0x1f\n        /* \"--CODEGEN--\":130:139   */\n      not\n        /* \"--CODEGEN--\":123:127   */\n      0x3f\n        /* \"--CODEGEN--\":105:121   */\n      returndatasize\n        /* \"--CODEGEN--\":101:128   */\n      add\n        /* \"--CODEGEN--\":97:140   */\n      and\n        /* \"--CODEGEN--\":94:95   */\n      dup3\n        /* \"--CODEGEN--\":90:141   */\n      add\n        /* \"--CODEGEN--\":84:88   */\n      0x40\n        /* \"--CODEGEN--\":77:142   */\n      mstore\n        /* \"--CODEGEN--\":157:173   */\n      returndatasize\n        /* \"--CODEGEN--\":154:155   */\n      dup3\n        /* \"--CODEGEN--\":147:174   */\n      mstore\n        /* \"--CODEGEN--\":211:227   */\n      returndatasize\n        /* \"--CODEGEN--\":208:209   */\n      0x00\n        /* \"--CODEGEN--\":201:205   */\n      0x20\n        /* \"--CODEGEN--\":198:199   */\n      dup5\n        /* \"--CODEGEN--\":194:206   */\n      add\n        /* \"--CODEGEN--\":179:228   */\n      returndatacopy\n        /* \"--CODEGEN--\":5:233   */\n      jump(tag_298)\n        /* \"--CODEGEN--\":14:41   */\n    tag_299:\n        /* \"--CODEGEN--\":32:36   */\n      0x60\n        /* \"--CODEGEN--\":27:36   */\n      swap2\n      pop\n        /* \"--CODEGEN--\":5:233   */\n    tag_298:\n      pop\n        /* \"@uniswap/lib/contracts/libraries/TransferHelper.sol\":1659:1713  (bool success, ) = to.call{value: value}(new bytes(0)) */\n      pop\n      swap1\n      pop\n        /* \"@uniswap/lib/contracts/libraries/TransferHelper.sol\":1731:1738  success */\n      dup1\n        /* \"@uniswap/lib/contracts/libraries/TransferHelper.sol\":1723:1795  require(success, 'TransferHelper::safeTransferETH: ETH transfer failed') */\n      tag_300\n      jumpi\n      mload(0x40)\n      0x08c379a000000000000000000000000000000000000000000000000000000000\n      dup2\n      mstore\n      0x04\n      add\n      dup1\n      dup1\n      0x20\n      add\n      dup3\n      dup2\n      sub\n      dup3\n      mstore\n      0x34\n      dup2\n      mstore\n      0x20\n      add\n      dup1\n      data_43d7bec223ecf9eb06ea147e7d564bc71c2448662d62a4ea86ce71fc4518b350\n      0x34\n      swap2\n      codecopy\n      0x40\n      add\n      swap2\n      pop\n      pop\n      mload(0x40)\n      dup1\n      swap2\n      sub\n      swap1\n      revert\n    tag_300:\n        /* \"@uniswap/lib/contracts/libraries/TransferHelper.sol\":1588:1802  function safeTransferETH(address to, uint256 value) internal {... */\n      pop\n      pop\n      pop\n      jump\t// out\n        /* \"contracts/libraries/UniswapV2Library.sol\":719:958  function pairFor(address factory, address tokenA, address tokenB) internal view returns (address pair) {... */\n    tag_113:\n        /* \"contracts/libraries/UniswapV2Library.sol\":808:820  address pair */\n      0x00\n        /* \"contracts/libraries/UniswapV2Library.sol\":833:847  address token0 */\n      dup1\n        /* \"contracts/libraries/UniswapV2Library.sol\":849:863  address token1 */\n      0x00\n        /* \"contracts/libraries/UniswapV2Library.sol\":867:893  sortTokens(tokenA, tokenB) */\n      tag_302\n        /* \"contracts/libraries/UniswapV2Library.sol\":878:884  tokenA */\n      dup6\n        /* \"contracts/libraries/UniswapV2Library.sol\":886:892  tokenB */\n      dup6\n        /* \"contracts/libraries/UniswapV2Library.sol\":867:877  sortTokens */\n      tag_230\n        /* \"contracts/libraries/UniswapV2Library.sol\":867:893  sortTokens(tokenA, tokenB) */\n      jump\t// in\n    tag_302:\n        /* \"contracts/libraries/UniswapV2Library.sol\":832:893  (address token0, address token1) = sortTokens(tokenA, tokenB) */\n      swap2\n      pop\n      swap2\n      pop\n        /* \"contracts/libraries/UniswapV2Library.sol\":919:926  factory */\n      dup6\n        /* \"contracts/libraries/UniswapV2Library.sol\":910:935  IFactory(factory).getPair */\n      0xffffffffffffffffffffffffffffffffffffffff\n      and\n      0xe6a43905\n        /* \"contracts/libraries/UniswapV2Library.sol\":936:942  token0 */\n      dup4\n        /* \"contracts/libraries/UniswapV2Library.sol\":944:950  token1 */\n      dup4\n        /* \"contracts/libraries/UniswapV2Library.sol\":910:951  IFactory(factory).getPair(token0, token1) */\n      mload(0x40)\n      dup4\n      0xffffffff\n      and\n      0xe0\n      shl\n      dup2\n      mstore\n      0x04\n      add\n      dup1\n      dup4\n      0xffffffffffffffffffffffffffffffffffffffff\n      and\n      0xffffffffffffffffffffffffffffffffffffffff\n      and\n      dup2\n      mstore\n      0x20\n      add\n      dup3\n      0xffffffffffffffffffffffffffffffffffffffff\n      and\n      0xffffffffffffffffffffffffffffffffffffffff\n      and\n      dup2\n      mstore\n      0x20\n      add\n      swap3\n      pop\n      pop\n      pop\n      0x20\n      mload(0x40)\n      dup1\n      dup4\n      sub\n      dup2\n      dup7\n      dup1\n      extcodesize\n      iszero\n        /* \"--CODEGEN--\":5:14   */\n      dup1\n        /* \"--CODEGEN--\":2:4   */\n      iszero\n      tag_303\n      jumpi\n        /* \"--CODEGEN--\":27:28   */\n      0x00\n        /* \"--CODEGEN--\":24:25   */\n      dup1\n        /* \"--CODEGEN--\":17:29   */\n      revert\n        /* \"--CODEGEN--\":2:4   */\n    tag_303:\n        /* \"contracts/libraries/UniswapV2Library.sol\":910:951  IFactory(factory).getPair(token0, token1) */\n      pop\n      gas\n      staticcall\n      iszero\n        /* \"--CODEGEN--\":8:17   */\n      dup1\n        /* \"--CODEGEN--\":5:7   */\n      iszero\n      tag_305\n      jumpi\n        /* \"--CODEGEN--\":45:61   */\n      returndatasize\n        /* \"--CODEGEN--\":42:43   */\n      0x00\n        /* \"--CODEGEN--\":39:40   */\n      dup1\n        /* \"--CODEGEN--\":24:62   */\n      returndatacopy\n        /* \"--CODEGEN--\":77:93   */\n      returndatasize\n        /* \"--CODEGEN--\":74:75   */\n      0x00\n        /* \"--CODEGEN--\":67:94   */\n      revert\n        /* \"--CODEGEN--\":5:7   */\n    tag_305:\n        /* \"contracts/libraries/UniswapV2Library.sol\":910:951  IFactory(factory).getPair(token0, token1) */\n      pop\n      pop\n      pop\n      pop\n      mload(0x40)\n      returndatasize\n        /* \"--CODEGEN--\":15:17   */\n      0x20\n        /* \"--CODEGEN--\":10:13   */\n      dup2\n        /* \"--CODEGEN--\":7:18   */\n      lt\n        /* \"--CODEGEN--\":4:6   */\n      iszero\n      tag_306\n      jumpi\n        /* \"--CODEGEN--\":31:32   */\n      0x00\n        /* \"--CODEGEN--\":28:29   */\n      dup1\n        /* \"--CODEGEN--\":21:33   */\n      revert\n        /* \"--CODEGEN--\":4:6   */\n    tag_306:\n        /* \"contracts/libraries/UniswapV2Library.sol\":910:951  IFactory(factory).getPair(token0, token1) */\n      dup2\n      add\n      swap1\n      dup1\n      dup1\n      mload\n      swap1\n      0x20\n      add\n      swap1\n      swap3\n      swap2\n      swap1\n      pop\n      pop\n      pop\n        /* \"contracts/libraries/UniswapV2Library.sol\":903:951  pair = IFactory(factory).getPair(token0, token1) */\n      swap3\n      pop\n        /* \"contracts/libraries/UniswapV2Library.sol\":719:958  function pairFor(address factory, address tokenA, address tokenB) internal view returns (address pair) {... */\n      pop\n      pop\n      swap4\n      swap3\n      pop\n      pop\n      pop\n      jump\t// out\n        /* \"@uniswap/lib/contracts/libraries/TransferHelper.sol\":1096:1582  function safeTransferFrom(... */\n    tag_130:\n        /* \"@uniswap/lib/contracts/libraries/TransferHelper.sol\":1314:1326  bool success */\n      0x00\n        /* \"@uniswap/lib/contracts/libraries/TransferHelper.sol\":1328:1345  bytes memory data */\n      0x60\n        /* \"@uniswap/lib/contracts/libraries/TransferHelper.sol\":1349:1354  token */\n      dup6\n        /* \"@uniswap/lib/contracts/libraries/TransferHelper.sol\":1349:1359  token.call */\n      0xffffffffffffffffffffffffffffffffffffffff\n      and\n        /* \"@uniswap/lib/contracts/libraries/TransferHelper.sol\":1383:1393  0x23b872dd */\n      0x23b872dd\n        /* \"@uniswap/lib/contracts/libraries/TransferHelper.sol\":1395:1399  from */\n      dup7\n        /* \"@uniswap/lib/contracts/libraries/TransferHelper.sol\":1401:1403  to */\n      dup7\n        /* \"@uniswap/lib/contracts/libraries/TransferHelper.sol\":1405:1410  value */\n      dup7\n        /* \"@uniswap/lib/contracts/libraries/TransferHelper.sol\":1360:1411  abi.encodeWithSelector(0x23b872dd, from, to, value) */\n      add(0x24, mload(0x40))\n      dup1\n      dup5\n      0xffffffffffffffffffffffffffffffffffffffff\n      and\n      0xffffffffffffffffffffffffffffffffffffffff\n      and\n      dup2\n      mstore\n      0x20\n      add\n      dup4\n      0xffffffffffffffffffffffffffffffffffffffff\n      and\n      0xffffffffffffffffffffffffffffffffffffffff\n      and\n      dup2\n      mstore\n      0x20\n      add\n      dup3\n      dup2\n      mstore\n      0x20\n      add\n      swap4\n      pop\n      pop\n      pop\n      pop\n      mload(0x40)\n        /* \"--CODEGEN--\":49:53   */\n      0x20\n        /* \"--CODEGEN--\":39:46   */\n      dup2\n        /* \"--CODEGEN--\":30:37   */\n      dup4\n        /* \"--CODEGEN--\":26:47   */\n      sub\n        /* \"--CODEGEN--\":22:54   */\n      sub\n        /* \"--CODEGEN--\":13:20   */\n      dup2\n        /* \"--CODEGEN--\":6:55   */\n      mstore\n        /* \"@uniswap/lib/contracts/libraries/TransferHelper.sol\":1360:1411  abi.encodeWithSelector(0x23b872dd, from, to, value) */\n      swap1\n      0x40\n      mstore\n      swap1\n      0xe0\n      shl\n        /* \"--CODEGEN--\":38:42   */\n      0x20\n        /* \"--CODEGEN--\":29:36   */\n      dup3\n        /* \"--CODEGEN--\":25:43   */\n      add\n        /* \"--CODEGEN--\":67:77   */\n      dup1\n        /* \"--CODEGEN--\":61:78   */\n      mload\n        /* \"--CODEGEN--\":96:154   */\n      0xffffffffffffffffffffffffffffffffffffffffffffffffffffffff\n        /* \"--CODEGEN--\":199:207   */\n      dup4\n        /* \"--CODEGEN--\":192:196   */\n      dup2\n        /* \"--CODEGEN--\":186:190   */\n      dup4\n        /* \"--CODEGEN--\":182:197   */\n      and\n        /* \"--CODEGEN--\":179:208   */\n      or\n        /* \"--CODEGEN--\":167:177   */\n      dup4\n        /* \"--CODEGEN--\":160:209   */\n      mstore\n        /* \"--CODEGEN--\":0:215   */\n      pop\n      pop\n      pop\n        /* \"@uniswap/lib/contracts/libraries/TransferHelper.sol\":1360:1411  abi.encodeWithSelector(0x23b872dd, from, to, value) */\n      pop\n        /* \"@uniswap/lib/contracts/libraries/TransferHelper.sol\":1349:1412  token.call(abi.encodeWithSelector(0x23b872dd, from, to, value)) */\n      mload(0x40)\n      dup1\n      dup3\n      dup1\n      mload\n      swap1\n      0x20\n      add\n      swap1\n      dup1\n      dup4\n      dup4\n        /* \"--CODEGEN--\":36:189   */\n    tag_308:\n        /* \"--CODEGEN--\":66:68   */\n      0x20\n        /* \"--CODEGEN--\":61:64   */\n      dup4\n        /* \"--CODEGEN--\":58:69   */\n      lt\n        /* \"--CODEGEN--\":36:189   */\n      tag_310\n      jumpi\n        /* \"--CODEGEN--\":182:185   */\n      dup1\n        /* \"--CODEGEN--\":176:186   */\n      mload\n        /* \"--CODEGEN--\":171:174   */\n      dup3\n        /* \"--CODEGEN--\":164:187   */\n      mstore\n        /* \"--CODEGEN--\":98:100   */\n      0x20\n        /* \"--CODEGEN--\":93:96   */\n      dup3\n        /* \"--CODEGEN--\":89:101   */\n      add\n        /* \"--CODEGEN--\":82:101   */\n      swap2\n      pop\n        /* \"--CODEGEN--\":123:125   */\n      0x20\n        /* \"--CODEGEN--\":118:121   */\n      dup2\n        /* \"--CODEGEN--\":114:126   */\n      add\n        /* \"--CODEGEN--\":107:126   */\n      swap1\n      pop\n        /* \"--CODEGEN--\":148:150   */\n      0x20\n        /* \"--CODEGEN--\":143:146   */\n      dup4\n        /* \"--CODEGEN--\":139:151   */\n      sub\n        /* \"--CODEGEN--\":132:151   */\n      swap3\n      pop\n        /* \"--CODEGEN--\":36:189   */\n      jump(tag_308)\n    tag_310:\n        /* \"--CODEGEN--\":274:275   */\n      0x01\n        /* \"--CODEGEN--\":267:270   */\n      dup4\n        /* \"--CODEGEN--\":263:265   */\n      0x20\n        /* \"--CODEGEN--\":259:271   */\n      sub\n        /* \"--CODEGEN--\":254:257   */\n      0x0100\n        /* \"--CODEGEN--\":250:272   */\n      exp\n        /* \"--CODEGEN--\":246:276   */\n      sub\n        /* \"--CODEGEN--\":315:319   */\n      dup1\n        /* \"--CODEGEN--\":311:320   */\n      not\n        /* \"--CODEGEN--\":305:308   */\n      dup3\n        /* \"--CODEGEN--\":299:309   */\n      mload\n        /* \"--CODEGEN--\":295:321   */\n      and\n        /* \"--CODEGEN--\":356:360   */\n      dup2\n        /* \"--CODEGEN--\":350:353   */\n      dup5\n        /* \"--CODEGEN--\":344:354   */\n      mload\n        /* \"--CODEGEN--\":340:361   */\n      and\n        /* \"--CODEGEN--\":389:396   */\n      dup1\n        /* \"--CODEGEN--\":380:387   */\n      dup3\n        /* \"--CODEGEN--\":377:397   */\n      or\n        /* \"--CODEGEN--\":372:375   */\n      dup6\n        /* \"--CODEGEN--\":365:398   */\n      mstore\n        /* \"--CODEGEN--\":3:402   */\n      pop\n      pop\n      pop\n        /* \"@uniswap/lib/contracts/libraries/TransferHelper.sol\":1349:1412  token.call(abi.encodeWithSelector(0x23b872dd, from, to, value)) */\n      pop\n      pop\n      pop\n      swap1\n      pop\n      add\n      swap2\n      pop\n      pop\n      0x00\n      mload(0x40)\n      dup1\n      dup4\n      sub\n      dup2\n      0x00\n      dup7\n      gas\n      call\n      swap2\n      pop\n      pop\n      returndatasize\n        /* \"--CODEGEN--\":12:13   */\n      dup1\n        /* \"--CODEGEN--\":19:20   */\n      0x00\n        /* \"--CODEGEN--\":14:41   */\n      dup2\n      eq\n      tag_313\n      jumpi\n        /* \"--CODEGEN--\":67:71   */\n      0x40\n        /* \"--CODEGEN--\":61:72   */\n      mload\n        /* \"--CODEGEN--\":56:72   */\n      swap2\n      pop\n        /* \"--CODEGEN--\":134:138   */\n      0x1f\n        /* \"--CODEGEN--\":130:139   */\n      not\n        /* \"--CODEGEN--\":123:127   */\n      0x3f\n        /* \"--CODEGEN--\":105:121   */\n      returndatasize\n        /* \"--CODEGEN--\":101:128   */\n      add\n        /* \"--CODEGEN--\":97:140   */\n      and\n        /* \"--CODEGEN--\":94:95   */\n      dup3\n        /* \"--CODEGEN--\":90:141   */\n      add\n        /* \"--CODEGEN--\":84:88   */\n      0x40\n        /* \"--CODEGEN--\":77:142   */\n      mstore\n        /* \"--CODEGEN--\":157:173   */\n      returndatasize\n        /* \"--CODEGEN--\":154:155   */\n      dup3\n        /* \"--CODEGEN--\":147:174   */\n      mstore\n        /* \"--CODEGEN--\":211:227   */\n      returndatasize\n        /* \"--CODEGEN--\":208:209   */\n      0x00\n        /* \"--CODEGEN--\":201:205   */\n      0x20\n        /* \"--CODEGEN--\":198:199   */\n      dup5\n        /* \"--CODEGEN--\":194:206   */\n      add\n        /* \"--CODEGEN--\":179:228   */\n      returndatacopy\n        /* \"--CODEGEN--\":5:233   */\n      jump(tag_312)\n        /* \"--CODEGEN--\":14:41   */\n    tag_313:\n        /* \"--CODEGEN--\":32:36   */\n      0x60\n        /* \"--CODEGEN--\":27:36   */\n      swap2\n      pop\n        /* \"--CODEGEN--\":5:233   */\n    tag_312:\n      pop\n        /* \"@uniswap/lib/contracts/libraries/TransferHelper.sol\":1313:1412  (bool success, bytes memory data) = token.call(abi.encodeWithSelector(0x23b872dd, from, to, value)) */\n      swap2\n      pop\n      swap2\n      pop\n        /* \"@uniswap/lib/contracts/libraries/TransferHelper.sol\":1443:1450  success */\n      dup2\n        /* \"@uniswap/lib/contracts/libraries/TransferHelper.sol\":1443:1500  success && (data.length == 0 || abi.decode(data, (bool))) */\n      dup1\n      iszero\n      tag_314\n      jumpi\n      pop\n        /* \"@uniswap/lib/contracts/libraries/TransferHelper.sol\":1470:1471  0 */\n      0x00\n        /* \"@uniswap/lib/contracts/libraries/TransferHelper.sol\":1455:1459  data */\n      dup2\n        /* \"@uniswap/lib/contracts/libraries/TransferHelper.sol\":1455:1466  data.length */\n      mload\n        /* \"@uniswap/lib/contracts/libraries/TransferHelper.sol\":1455:1471  data.length == 0 */\n      eq\n        /* \"@uniswap/lib/contracts/libraries/TransferHelper.sol\":1455:1499  data.length == 0 || abi.decode(data, (bool)) */\n      dup1\n      tag_315\n      jumpi\n      pop\n        /* \"@uniswap/lib/contracts/libraries/TransferHelper.sol\":1486:1490  data */\n      dup1\n        /* \"@uniswap/lib/contracts/libraries/TransferHelper.sol\":1475:1499  abi.decode(data, (bool)) */\n      dup1\n      0x20\n      add\n      swap1\n      mload\n        /* \"--CODEGEN--\":15:17   */\n      0x20\n        /* \"--CODEGEN--\":10:13   */\n      dup2\n        /* \"--CODEGEN--\":7:18   */\n      lt\n        /* \"--CODEGEN--\":4:6   */\n      iszero\n      tag_316\n      jumpi\n        /* \"--CODEGEN--\":31:32   */\n      0x00\n        /* \"--CODEGEN--\":28:29   */\n      dup1\n        /* \"--CODEGEN--\":21:33   */\n      revert\n        /* \"--CODEGEN--\":4:6   */\n    tag_316:\n        /* \"@uniswap/lib/contracts/libraries/TransferHelper.sol\":1475:1499  abi.decode(data, (bool)) */\n      dup2\n      add\n      swap1\n      dup1\n      dup1\n      mload\n      swap1\n      0x20\n      add\n      swap1\n      swap3\n      swap2\n      swap1\n      pop\n      pop\n      pop\n        /* \"@uniswap/lib/contracts/libraries/TransferHelper.sol\":1455:1499  data.length == 0 || abi.decode(data, (bool)) */\n    tag_315:\n        /* \"@uniswap/lib/contracts/libraries/TransferHelper.sol\":1443:1500  success && (data.length == 0 || abi.decode(data, (bool))) */\n    tag_314:\n        /* \"@uniswap/lib/contracts/libraries/TransferHelper.sol\":1422:1575  require(... */\n      tag_317\n      jumpi\n      mload(0x40)\n      0x08c379a000000000000000000000000000000000000000000000000000000000\n      dup2\n      mstore\n      0x04\n      add\n      dup1\n      dup1\n      0x20\n      add\n      dup3\n      dup2\n      sub\n      dup3\n      mstore\n      0x31\n      dup2\n      mstore\n      0x20\n      add\n      dup1\n      data_3f8faf98afe9344b6d4b0e75b0101259bf282914b3b5a9320c6918b6e27ede1c\n      0x31\n      swap2\n      codecopy\n      0x40\n      add\n      swap2\n      pop\n      pop\n      mload(0x40)\n      dup1\n      swap2\n      sub\n      swap1\n      revert\n    tag_317:\n        /* \"@uniswap/lib/contracts/libraries/TransferHelper.sol\":1096:1582  function safeTransferFrom(... */\n      pop\n      pop\n      pop\n      pop\n      pop\n      pop\n      jump\t// out\n        /* \"contracts/router.sol\":7709:8787  function _swapSupportingFeeOnTransferTokens(address[] memory path, address _to, address referrer) internal {... */\n    tag_132:\n        /* \"contracts/router.sol\":7827:7833  uint i */\n      0x00\n        /* \"contracts/router.sol\":7822:8783  for (uint i; i < path.length - 1; i++) {... */\n    tag_319:\n        /* \"contracts/router.sol\":7853:7854  1 */\n      0x01\n        /* \"contracts/router.sol\":7839:7843  path */\n      dup5\n        /* \"contracts/router.sol\":7839:7850  path.length */\n      mload\n        /* \"contracts/router.sol\":7839:7854  path.length - 1 */\n      sub\n        /* \"contracts/router.sol\":7835:7836  i */\n      dup2\n        /* \"contracts/router.sol\":7835:7854  i < path.length - 1 */\n      lt\n        /* \"contracts/router.sol\":7822:8783  for (uint i; i < path.length - 1; i++) {... */\n      iszero\n      tag_320\n      jumpi\n        /* \"contracts/router.sol\":7870:7883  address input */\n      0x00\n        /* \"contracts/router.sol\":7885:7899  address output */\n      dup1\n        /* \"contracts/router.sol\":7904:7908  path */\n      dup6\n        /* \"contracts/router.sol\":7909:7910  i */\n      dup4\n        /* \"contracts/router.sol\":7904:7911  path[i] */\n      dup2\n      mload\n      dup2\n      lt\n      tag_322\n      jumpi\n      invalid\n    tag_322:\n      0x20\n      mul\n      0x20\n      add\n      add\n      mload\n        /* \"contracts/router.sol\":7913:7917  path */\n      dup7\n        /* \"contracts/router.sol\":7922:7923  1 */\n      0x01\n        /* \"contracts/router.sol\":7918:7919  i */\n      dup6\n        /* \"contracts/router.sol\":7918:7923  i + 1 */\n      add\n        /* \"contracts/router.sol\":7913:7924  path[i + 1] */\n      dup2\n      mload\n      dup2\n      lt\n      tag_323\n      jumpi\n      invalid\n    tag_323:\n      0x20\n      mul\n      0x20\n      add\n      add\n      mload\n        /* \"contracts/router.sol\":7869:7925  (address input, address output) = (path[i], path[i + 1]) */\n      swap2\n      pop\n      swap2\n      pop\n        /* \"contracts/router.sol\":7934:7948  address token0 */\n      0x00\n        /* \"contracts/router.sol\":7953:7995  UniswapV2Library.sortTokens(input, output) */\n      tag_324\n        /* \"contracts/router.sol\":7981:7986  input */\n      dup4\n        /* \"contracts/router.sol\":7988:7994  output */\n      dup4\n        /* \"contracts/router.sol\":7953:7980  UniswapV2Library.sortTokens */\n      tag_230\n        /* \"contracts/router.sol\":7953:7995  UniswapV2Library.sortTokens(input, output) */\n      jump\t// in\n    tag_324:\n        /* \"contracts/router.sol\":7933:7995  (address token0,) = UniswapV2Library.sortTokens(input, output) */\n      pop\n      swap1\n      pop\n        /* \"contracts/router.sol\":8003:8013  IPair pair */\n      0x00\n        /* \"contracts/router.sol\":8022:8070  UniswapV2Library.pairFor(factory, input, output) */\n      tag_325\n        /* \"contracts/router.sol\":8047:8054  factory */\n      immutable(\"0x1c0bab9e06a591c52ac680ae9eef6479e476f64f56be5d259d46a0497cb2a9b9\")\n        /* \"contracts/router.sol\":8056:8061  input */\n      dup6\n        /* \"contracts/router.sol\":8063:8069  output */\n      dup6\n        /* \"contracts/router.sol\":8022:8046  UniswapV2Library.pairFor */\n      tag_113\n        /* \"contracts/router.sol\":8022:8070  UniswapV2Library.pairFor(factory, input, output) */\n      jump\t// in\n    tag_325:\n        /* \"contracts/router.sol\":8003:8071  IPair pair = IPair(UniswapV2Library.pairFor(factory, input, output)) */\n      swap1\n      pop\n        /* \"contracts/router.sol\":8079:8096  uint amountOutput */\n      0x00\n        /* \"contracts/router.sol\":8154:8167  uint reserve0 */\n      dup1\n        /* \"contracts/router.sol\":8169:8182  uint reserve1 */\n      0x00\n        /* \"contracts/router.sol\":8188:8192  pair */\n      dup4\n        /* \"contracts/router.sol\":8188:8204  pair.getReserves */\n      0xffffffffffffffffffffffffffffffffffffffff\n      and\n      0x0902f1ac\n        /* \"contracts/router.sol\":8188:8206  pair.getReserves() */\n      mload(0x40)\n      dup2\n      0xffffffff\n      and\n      0xe0\n      shl\n      dup2\n      mstore\n      0x04\n      add\n      0x80\n      mload(0x40)\n      dup1\n      dup4\n      sub\n      dup2\n      dup7\n      dup1\n      extcodesize\n      iszero\n        /* \"--CODEGEN--\":5:14   */\n      dup1\n        /* \"--CODEGEN--\":2:4   */\n      iszero\n      tag_326\n      jumpi\n        /* \"--CODEGEN--\":27:28   */\n      0x00\n        /* \"--CODEGEN--\":24:25   */\n      dup1\n        /* \"--CODEGEN--\":17:29   */\n      revert\n        /* \"--CODEGEN--\":2:4   */\n    tag_326:\n        /* \"contracts/router.sol\":8188:8206  pair.getReserves() */\n      pop\n      gas\n      staticcall\n      iszero\n        /* \"--CODEGEN--\":8:17   */\n      dup1\n        /* \"--CODEGEN--\":5:7   */\n      iszero\n      tag_328\n      jumpi\n        /* \"--CODEGEN--\":45:61   */\n      returndatasize\n        /* \"--CODEGEN--\":42:43   */\n      0x00\n        /* \"--CODEGEN--\":39:40   */\n      dup1\n        /* \"--CODEGEN--\":24:62   */\n      returndatacopy\n        /* \"--CODEGEN--\":77:93   */\n      returndatasize\n        /* \"--CODEGEN--\":74:75   */\n      0x00\n        /* \"--CODEGEN--\":67:94   */\n      revert\n        /* \"--CODEGEN--\":5:7   */\n    tag_328:\n        /* \"contracts/router.sol\":8188:8206  pair.getReserves() */\n      pop\n      pop\n      pop\n      pop\n      mload(0x40)\n      returndatasize\n        /* \"--CODEGEN--\":15:18   */\n      0x80\n        /* \"--CODEGEN--\":10:13   */\n      dup2\n        /* \"--CODEGEN--\":7:19   */\n      lt\n        /* \"--CODEGEN--\":4:6   */\n      iszero\n      tag_329\n      jumpi\n        /* \"--CODEGEN--\":32:33   */\n      0x00\n        /* \"--CODEGEN--\":29:30   */\n      dup1\n        /* \"--CODEGEN--\":22:34   */\n      revert\n        /* \"--CODEGEN--\":4:6   */\n    tag_329:\n        /* \"contracts/router.sol\":8188:8206  pair.getReserves() */\n      dup2\n      add\n      swap1\n      dup1\n      dup1\n      mload\n      swap1\n      0x20\n      add\n      swap1\n      swap3\n      swap2\n      swap1\n      dup1\n      mload\n      swap1\n      0x20\n      add\n      swap1\n      swap3\n      swap2\n      swap1\n      dup1\n      mload\n      swap1\n      0x20\n      add\n      swap1\n      swap3\n      swap2\n      swap1\n      dup1\n      mload\n      swap1\n      0x20\n      add\n      swap1\n      swap3\n      swap2\n      swap1\n      pop\n      pop\n      pop\n        /* \"contracts/router.sol\":8153:8206  (uint reserve0, uint reserve1,,) = pair.getReserves() */\n      pop\n      pop\n      0xffffffffffffffffffffffffffff\n      and\n      swap2\n      pop\n      0xffffffffffffffffffffffffffff\n      and\n      swap2\n      pop\n        /* \"contracts/router.sol\":8289:8295  token0 */\n      dup5\n        /* \"contracts/router.sol\":8280:8295  input != token0 */\n      0xffffffffffffffffffffffffffffffffffffffff\n      and\n        /* \"contracts/router.sol\":8280:8285  input */\n      dup8\n        /* \"contracts/router.sol\":8280:8295  input != token0 */\n      0xffffffffffffffffffffffffffffffffffffffff\n      and\n      eq\n        /* \"contracts/router.sol\":8276:8340  if (input != token0) (reserve0, reserve1) = (reserve1, reserve0) */\n      tag_330\n      jumpi\n        /* \"contracts/router.sol\":8321:8329  reserve1 */\n      dup1\n        /* \"contracts/router.sol\":8331:8339  reserve0 */\n      dup3\n        /* \"contracts/router.sol\":8297:8340  (reserve0, reserve1) = (reserve1, reserve0) */\n      dup1\n      swap3\n      pop\n      dup2\n      swap4\n      pop\n      pop\n      pop\n        /* \"contracts/router.sol\":8276:8340  if (input != token0) (reserve0, reserve1) = (reserve1, reserve0) */\n    tag_330:\n        /* \"contracts/router.sol\":8350:8366  uint amountInput */\n      0x00\n        /* \"contracts/router.sol\":8369:8421  IERC20(input).balanceOf(address(pair)).sub(reserve0) */\n      tag_331\n        /* \"contracts/router.sol\":8412:8420  reserve0 */\n      dup4\n        /* \"contracts/router.sol\":8376:8381  input */\n      dup10\n        /* \"contracts/router.sol\":8369:8392  IERC20(input).balanceOf */\n      0xffffffffffffffffffffffffffffffffffffffff\n      and\n      0x70a08231\n        /* \"contracts/router.sol\":8401:8405  pair */\n      dup9\n        /* \"contracts/router.sol\":8369:8407  IERC20(input).balanceOf(address(pair)) */\n      mload(0x40)\n      dup3\n      0xffffffff\n      and\n      0xe0\n      shl\n      dup2\n      mstore\n      0x04\n      add\n      dup1\n      dup3\n      0xffffffffffffffffffffffffffffffffffffffff\n      and\n      0xffffffffffffffffffffffffffffffffffffffff\n      and\n      dup2\n      mstore\n      0x20\n      add\n      swap2\n      pop\n      pop\n      0x20\n      mload(0x40)\n      dup1\n      dup4\n      sub\n      dup2\n      dup7\n      dup1\n      extcodesize\n      iszero\n        /* \"--CODEGEN--\":5:14   */\n      dup1\n        /* \"--CODEGEN--\":2:4   */\n      iszero\n      tag_332\n      jumpi\n        /* \"--CODEGEN--\":27:28   */\n      0x00\n        /* \"--CODEGEN--\":24:25   */\n      dup1\n        /* \"--CODEGEN--\":17:29   */\n      revert\n        /* \"--CODEGEN--\":2:4   */\n    tag_332:\n        /* \"contracts/router.sol\":8369:8407  IERC20(input).balanceOf(address(pair)) */\n      pop\n      gas\n      staticcall\n      iszero\n        /* \"--CODEGEN--\":8:17   */\n      dup1\n        /* \"--CODEGEN--\":5:7   */\n      iszero\n      tag_334\n      jumpi\n        /* \"--CODEGEN--\":45:61   */\n      returndatasize\n        /* \"--CODEGEN--\":42:43   */\n      0x00\n        /* \"--CODEGEN--\":39:40   */\n      dup1\n        /* \"--CODEGEN--\":24:62   */\n      returndatacopy\n        /* \"--CODEGEN--\":77:93   */\n      returndatasize\n        /* \"--CODEGEN--\":74:75   */\n      0x00\n        /* \"--CODEGEN--\":67:94   */\n      revert\n        /* \"--CODEGEN--\":5:7   */\n    tag_334:\n        /* \"contracts/router.sol\":8369:8407  IERC20(input).balanceOf(address(pair)) */\n      pop\n      pop\n      pop\n      pop\n      mload(0x40)\n      returndatasize\n        /* \"--CODEGEN--\":15:17   */\n      0x20\n        /* \"--CODEGEN--\":10:13   */\n      dup2\n        /* \"--CODEGEN--\":7:18   */\n      lt\n        /* \"--CODEGEN--\":4:6   */\n      iszero\n      tag_335\n      jumpi\n        /* \"--CODEGEN--\":31:32   */\n      0x00\n        /* \"--CODEGEN--\":28:29   */\n      dup1\n        /* \"--CODEGEN--\":21:33   */\n      revert\n        /* \"--CODEGEN--\":4:6   */\n    tag_335:\n        /* \"contracts/router.sol\":8369:8407  IERC20(input).balanceOf(address(pair)) */\n      dup2\n      add\n      swap1\n      dup1\n      dup1\n      mload\n      swap1\n      0x20\n      add\n      swap1\n      swap3\n      swap2\n      swap1\n      pop\n      pop\n      pop\n        /* \"contracts/router.sol\":8369:8411  IERC20(input).balanceOf(address(pair)).sub */\n      tag_170\n      swap1\n        /* \"contracts/router.sol\":8369:8421  IERC20(input).balanceOf(address(pair)).sub(reserve0) */\n      swap2\n      swap1\n      0xffffffff\n      and\n      jump\t// in\n    tag_331:\n        /* \"contracts/router.sol\":8350:8421  uint amountInput = IERC20(input).balanceOf(address(pair)).sub(reserve0) */\n      swap1\n      pop\n        /* \"contracts/router.sol\":8446:8450  pair */\n      dup5\n        /* \"contracts/router.sol\":8446:8463  pair.getAmountOut */\n      0xffffffffffffffffffffffffffffffffffffffff\n      and\n      0xf140a35a\n        /* \"contracts/router.sol\":8464:8475  amountInput */\n      dup3\n        /* \"contracts/router.sol\":8477:8482  input */\n      dup11\n        /* \"contracts/router.sol\":8446:8483  pair.getAmountOut(amountInput, input) */\n      mload(0x40)\n      dup4\n      0xffffffff\n      and\n      0xe0\n      shl\n      dup2\n      mstore\n      0x04\n      add\n      dup1\n      dup4\n      dup2\n      mstore\n      0x20\n      add\n      dup3\n      0xffffffffffffffffffffffffffffffffffffffff\n      and\n      0xffffffffffffffffffffffffffffffffffffffff\n      and\n      dup2\n      mstore\n      0x20\n      add\n      swap3\n      pop\n      pop\n      pop\n      0x20\n      mload(0x40)\n      dup1\n      dup4\n      sub\n      dup2\n      dup7\n      dup1\n      extcodesize\n      iszero\n        /* \"--CODEGEN--\":5:14   */\n      dup1\n        /* \"--CODEGEN--\":2:4   */\n      iszero\n      tag_336\n      jumpi\n        /* \"--CODEGEN--\":27:28   */\n      0x00\n        /* \"--CODEGEN--\":24:25   */\n      dup1\n        /* \"--CODEGEN--\":17:29   */\n      revert\n        /* \"--CODEGEN--\":2:4   */\n    tag_336:\n        /* \"contracts/router.sol\":8446:8483  pair.getAmountOut(amountInput, input) */\n      pop\n      gas\n      staticcall\n      iszero\n        /* \"--CODEGEN--\":8:17   */\n      dup1\n        /* \"--CODEGEN--\":5:7   */\n      iszero\n      tag_338\n      jumpi\n        /* \"--CODEGEN--\":45:61   */\n      returndatasize\n        /* \"--CODEGEN--\":42:43   */\n      0x00\n        /* \"--CODEGEN--\":39:40   */\n      dup1\n        /* \"--CODEGEN--\":24:62   */\n      returndatacopy\n        /* \"--CODEGEN--\":77:93   */\n      returndatasize\n        /* \"--CODEGEN--\":74:75   */\n      0x00\n        /* \"--CODEGEN--\":67:94   */\n      revert\n        /* \"--CODEGEN--\":5:7   */\n    tag_338:\n        /* \"contracts/router.sol\":8446:8483  pair.getAmountOut(amountInput, input) */\n      pop\n      pop\n      pop\n      pop\n      mload(0x40)\n      returndatasize\n        /* \"--CODEGEN--\":15:17   */\n      0x20\n        /* \"--CODEGEN--\":10:13   */\n      dup2\n        /* \"--CODEGEN--\":7:18   */\n      lt\n        /* \"--CODEGEN--\":4:6   */\n      iszero\n      tag_339\n      jumpi\n        /* \"--CODEGEN--\":31:32   */\n      0x00\n        /* \"--CODEGEN--\":28:29   */\n      dup1\n        /* \"--CODEGEN--\":21:33   */\n      revert\n        /* \"--CODEGEN--\":4:6   */\n    tag_339:\n        /* \"contracts/router.sol\":8446:8483  pair.getAmountOut(amountInput, input) */\n      dup2\n      add\n      swap1\n      dup1\n      dup1\n      mload\n      swap1\n      0x20\n      add\n      swap1\n      swap3\n      swap2\n      swap1\n      pop\n      pop\n      pop\n        /* \"contracts/router.sol\":8431:8483  amountOutput = pair.getAmountOut(amountInput, input) */\n      swap4\n      pop\n        /* \"contracts/router.sol\":7822:8783  for (uint i; i < path.length - 1; i++) {... */\n      pop\n      pop\n      pop\n        /* \"contracts/router.sol\":8501:8516  uint amount0Out */\n      0x00\n        /* \"contracts/router.sol\":8518:8533  uint amount1Out */\n      dup1\n        /* \"contracts/router.sol\":8546:8552  token0 */\n      dup5\n        /* \"contracts/router.sol\":8537:8552  input == token0 */\n      0xffffffffffffffffffffffffffffffffffffffff\n      and\n        /* \"contracts/router.sol\":8537:8542  input */\n      dup8\n        /* \"contracts/router.sol\":8537:8552  input == token0 */\n      0xffffffffffffffffffffffffffffffffffffffff\n      and\n      eq\n        /* \"contracts/router.sol\":8537:8604  input == token0 ? (uint(0), amountOutput) : (amountOutput, uint(0)) */\n      tag_340\n      jumpi\n        /* \"contracts/router.sol\":8582:8594  amountOutput */\n      dup3\n        /* \"contracts/router.sol\":8601:8602  0 */\n      0x00\n        /* \"contracts/router.sol\":8537:8604  input == token0 ? (uint(0), amountOutput) : (amountOutput, uint(0)) */\n      jump(tag_341)\n    tag_340:\n        /* \"contracts/router.sol\":8561:8562  0 */\n      0x00\n        /* \"contracts/router.sol\":8565:8577  amountOutput */\n      dup4\n        /* \"contracts/router.sol\":8537:8604  input == token0 ? (uint(0), amountOutput) : (amountOutput, uint(0)) */\n    tag_341:\n        /* \"contracts/router.sol\":8500:8604  (uint amount0Out, uint amount1Out) = input == token0 ? (uint(0), amountOutput) : (amountOutput, uint(0)) */\n      swap2\n      pop\n      swap2\n      pop\n        /* \"contracts/router.sol\":8612:8622  address to */\n      0x00\n        /* \"contracts/router.sol\":8643:8644  2 */\n      0x02\n        /* \"contracts/router.sol\":8629:8633  path */\n      dup13\n        /* \"contracts/router.sol\":8629:8640  path.length */\n      mload\n        /* \"contracts/router.sol\":8629:8644  path.length - 2 */\n      sub\n        /* \"contracts/router.sol\":8625:8626  i */\n      dup10\n        /* \"contracts/router.sol\":8625:8644  i < path.length - 2 */\n      lt\n        /* \"contracts/router.sol\":8625:8707  i < path.length - 2 ? UniswapV2Library.pairFor(factory, output, path[i + 2]) : _to */\n      tag_342\n      jumpi\n        /* \"contracts/router.sol\":8704:8707  _to */\n      dup11\n        /* \"contracts/router.sol\":8625:8707  i < path.length - 2 ? UniswapV2Library.pairFor(factory, output, path[i + 2]) : _to */\n      jump(tag_343)\n    tag_342:\n        /* \"contracts/router.sol\":8647:8701  UniswapV2Library.pairFor(factory, output, path[i + 2]) */\n      tag_344\n        /* \"contracts/router.sol\":8672:8679  factory */\n      immutable(\"0x1c0bab9e06a591c52ac680ae9eef6479e476f64f56be5d259d46a0497cb2a9b9\")\n        /* \"contracts/router.sol\":8681:8687  output */\n      dup9\n        /* \"contracts/router.sol\":8689:8693  path */\n      dup15\n        /* \"contracts/router.sol\":8698:8699  2 */\n      0x02\n        /* \"contracts/router.sol\":8694:8695  i */\n      dup14\n        /* \"contracts/router.sol\":8694:8699  i + 2 */\n      add\n        /* \"contracts/router.sol\":8689:8700  path[i + 2] */\n      dup2\n      mload\n      dup2\n      lt\n      tag_345\n      jumpi\n      invalid\n    tag_345:\n      0x20\n      mul\n      0x20\n      add\n      add\n      mload\n        /* \"contracts/router.sol\":8647:8671  UniswapV2Library.pairFor */\n      tag_113\n        /* \"contracts/router.sol\":8647:8701  UniswapV2Library.pairFor(factory, output, path[i + 2]) */\n      jump\t// in\n    tag_344:\n        /* \"contracts/router.sol\":8625:8707  i < path.length - 2 ? UniswapV2Library.pairFor(factory, output, path[i + 2]) : _to */\n    tag_343:\n        /* \"contracts/router.sol\":8612:8707  address to = i < path.length - 2 ? UniswapV2Library.pairFor(factory, output, path[i + 2]) : _to */\n      swap1\n      pop\n        /* \"contracts/router.sol\":8715:8719  pair */\n      dup5\n        /* \"contracts/router.sol\":8715:8724  pair.swap */\n      0xffffffffffffffffffffffffffffffffffffffff\n      and\n      0x6e1fdd7f\n        /* \"contracts/router.sol\":8725:8735  amount0Out */\n      dup5\n        /* \"contracts/router.sol\":8737:8747  amount1Out */\n      dup5\n        /* \"contracts/router.sol\":8749:8751  to */\n      dup5\n        /* \"contracts/router.sol\":8763:8764  0 */\n      0x00\n        /* \"contracts/router.sol\":8753:8765  new bytes(0) */\n      0xffffffffffffffff\n      dup2\n      gt\n        /* \"--CODEGEN--\":5:14   */\n      dup1\n        /* \"--CODEGEN--\":2:4   */\n      iszero\n      tag_346\n      jumpi\n        /* \"--CODEGEN--\":27:28   */\n      0x00\n        /* \"--CODEGEN--\":24:25   */\n      dup1\n        /* \"--CODEGEN--\":17:29   */\n      revert\n        /* \"--CODEGEN--\":2:4   */\n    tag_346:\n        /* \"contracts/router.sol\":8753:8765  new bytes(0) */\n      pop\n      mload(0x40)\n      swap1\n      dup1\n      dup3\n      mstore\n      dup1\n      0x1f\n      add\n      not(0x1f)\n      and\n      0x20\n      add\n      dup3\n      add\n      0x40\n      mstore\n      dup1\n      iszero\n      tag_347\n      jumpi\n      dup2\n      0x20\n      add\n        /* \"--CODEGEN--\":29:30   */\n      0x01\n        /* \"--CODEGEN--\":21:27   */\n      dup3\n        /* \"--CODEGEN--\":17:31   */\n      mul\n        /* \"--CODEGEN--\":124:128   */\n      dup1\n        /* \"--CODEGEN--\":108:122   */\n      calldatasize\n        /* \"--CODEGEN--\":100:106   */\n      dup4\n        /* \"--CODEGEN--\":87:129   */\n      calldatacopy\n        /* \"--CODEGEN--\":155:159   */\n      dup1\n        /* \"--CODEGEN--\":147:153   */\n      dup3\n        /* \"--CODEGEN--\":143:160   */\n      add\n        /* \"--CODEGEN--\":133:160   */\n      swap2\n      pop\n        /* \"--CODEGEN--\":0:164   */\n      pop\n        /* \"contracts/router.sol\":8753:8765  new bytes(0) */\n      swap1\n      pop\n    tag_347:\n      pop\n        /* \"contracts/router.sol\":8767:8775  referrer */\n      dup16\n        /* \"contracts/router.sol\":8715:8776  pair.swap(amount0Out, amount1Out, to, new bytes(0), referrer) */\n      mload(0x40)\n      dup7\n      0xffffffff\n      and\n      0xe0\n      shl\n      dup2\n      mstore\n      0x04\n      add\n      dup1\n      dup7\n      dup2\n      mstore\n      0x20\n      add\n      dup6\n      dup2\n      mstore\n      0x20\n      add\n      dup5\n      0xffffffffffffffffffffffffffffffffffffffff\n      and\n      0xffffffffffffffffffffffffffffffffffffffff\n      and\n      dup2\n      mstore\n      0x20\n      add\n      dup1\n      0x20\n      add\n      dup4\n      0xffffffffffffffffffffffffffffffffffffffff\n      and\n      0xffffffffffffffffffffffffffffffffffffffff\n      and\n      dup2\n      mstore\n      0x20\n      add\n      dup3\n      dup2\n      sub\n      dup3\n      mstore\n      dup5\n      dup2\n      dup2\n      mload\n      dup2\n      mstore\n      0x20\n      add\n      swap2\n      pop\n      dup1\n      mload\n      swap1\n      0x20\n      add\n      swap1\n      dup1\n      dup4\n      dup4\n        /* \"--CODEGEN--\":23:24   */\n      0x00\n        /* \"--CODEGEN--\":8:108   */\n    tag_348:\n        /* \"--CODEGEN--\":33:36   */\n      dup4\n        /* \"--CODEGEN--\":30:31   */\n      dup2\n        /* \"--CODEGEN--\":27:37   */\n      lt\n        /* \"--CODEGEN--\":8:108   */\n      iszero\n      tag_350\n      jumpi\n        /* \"--CODEGEN--\":99:100   */\n      dup1\n        /* \"--CODEGEN--\":94:97   */\n      dup3\n        /* \"--CODEGEN--\":90:101   */\n      add\n        /* \"--CODEGEN--\":84:102   */\n      mload\n        /* \"--CODEGEN--\":80:81   */\n      dup2\n        /* \"--CODEGEN--\":75:78   */\n      dup5\n        /* \"--CODEGEN--\":71:82   */\n      add\n        /* \"--CODEGEN--\":64:103   */\n      mstore\n        /* \"--CODEGEN--\":52:54   */\n      0x20\n        /* \"--CODEGEN--\":49:50   */\n      dup2\n        /* \"--CODEGEN--\":45:55   */\n      add\n        /* \"--CODEGEN--\":40:55   */\n      swap1\n      pop\n        /* \"--CODEGEN--\":8:108   */\n      jump(tag_348)\n    tag_350:\n        /* \"--CODEGEN--\":12:26   */\n      pop\n        /* \"contracts/router.sol\":8715:8776  pair.swap(amount0Out, amount1Out, to, new bytes(0), referrer) */\n      pop\n      pop\n      pop\n      swap1\n      pop\n      swap1\n      dup2\n      add\n      swap1\n      0x1f\n      and\n      dup1\n      iszero\n      tag_351\n      jumpi\n      dup1\n      dup3\n      sub\n      dup1\n      mload\n      0x01\n      dup4\n      0x20\n      sub\n      0x0100\n      exp\n      sub\n      not\n      and\n      dup2\n      mstore\n      0x20\n      add\n      swap2\n      pop\n    tag_351:\n      pop\n      swap7\n      pop\n      pop\n      pop\n      pop\n      pop\n      pop\n      pop\n      0x00\n      mload(0x40)\n      dup1\n      dup4\n      sub\n      dup2\n      0x00\n      dup8\n      dup1\n      extcodesize\n      iszero\n        /* \"--CODEGEN--\":5:14   */\n      dup1\n        /* \"--CODEGEN--\":2:4   */\n      iszero\n      tag_352\n      jumpi\n        /* \"--CODEGEN--\":27:28   */\n      0x00\n        /* \"--CODEGEN--\":24:25   */\n      dup1\n        /* \"--CODEGEN--\":17:29   */\n      revert\n        /* \"--CODEGEN--\":2:4   */\n    tag_352:\n        /* \"contracts/router.sol\":8715:8776  pair.swap(amount0Out, amount1Out, to, new bytes(0), referrer) */\n      pop\n      gas\n      call\n      iszero\n        /* \"--CODEGEN--\":8:17   */\n      dup1\n        /* \"--CODEGEN--\":5:7   */\n      iszero\n      tag_354\n      jumpi\n        /* \"--CODEGEN--\":45:61   */\n      returndatasize\n        /* \"--CODEGEN--\":42:43   */\n      0x00\n        /* \"--CODEGEN--\":39:40   */\n      dup1\n        /* \"--CODEGEN--\":24:62   */\n      returndatacopy\n        /* \"--CODEGEN--\":77:93   */\n      returndatasize\n        /* \"--CODEGEN--\":74:75   */\n      0x00\n        /* \"--CODEGEN--\":67:94   */\n      revert\n        /* \"--CODEGEN--\":5:7   */\n    tag_354:\n        /* \"contracts/router.sol\":8715:8776  pair.swap(amount0Out, amount1Out, to, new bytes(0), referrer) */\n      pop\n      pop\n      pop\n      pop\n        /* \"contracts/router.sol\":7822:8783  for (uint i; i < path.length - 1; i++) {... */\n      pop\n      pop\n      pop\n      pop\n      pop\n      pop\n      pop\n      pop\n        /* \"contracts/router.sol\":7856:7859  i++ */\n      dup1\n      dup1\n      0x01\n      add\n      swap2\n      pop\n      pop\n        /* \"contracts/router.sol\":7822:8783  for (uint i; i < path.length - 1; i++) {... */\n      jump(tag_319)\n    tag_320:\n      pop\n        /* \"contracts/router.sol\":7709:8787  function _swapSupportingFeeOnTransferTokens(address[] memory path, address _to, address referrer) internal {... */\n      pop\n      pop\n      pop\n      jump\t// out\n        /* \"contracts/libraries/SafeMath.sol\":288:415  function sub(uint x, uint y) internal pure returns (uint z) {... */\n    tag_170:\n        /* \"contracts/libraries/SafeMath.sol\":340:346  uint z */\n      0x00\n        /* \"contracts/libraries/SafeMath.sol\":381:382  x */\n      dup3\n        /* \"contracts/libraries/SafeMath.sol\":375:376  y */\n      dup3\n        /* \"contracts/libraries/SafeMath.sol\":371:372  x */\n      dup5\n        /* \"contracts/libraries/SafeMath.sol\":371:376  x - y */\n      sub\n        /* \"contracts/libraries/SafeMath.sol\":367:376  z = x - y */\n      swap2\n      pop\n      dup2\n        /* \"contracts/libraries/SafeMath.sol\":366:382  (z = x - y) <= x */\n      gt\n      iszero\n        /* \"contracts/libraries/SafeMath.sol\":358:408  require((z = x - y) <= x, 'ds-math-sub-underflow') */\n      tag_356\n      jumpi\n      mload(0x40)\n      0x08c379a000000000000000000000000000000000000000000000000000000000\n      dup2\n      mstore\n      0x04\n      add\n      dup1\n      dup1\n      0x20\n      add\n      dup3\n      dup2\n      sub\n      dup3\n      mstore\n      0x15\n      dup2\n      mstore\n      0x20\n      add\n      dup1\n      0x64732d6d6174682d7375622d756e646572666c6f770000000000000000000000\n      dup2\n      mstore\n      pop\n      0x20\n      add\n      swap2\n      pop\n      pop\n      mload(0x40)\n      dup1\n      swap2\n      sub\n      swap1\n      revert\n    tag_356:\n        /* \"contracts/libraries/SafeMath.sol\":288:415  function sub(uint x, uint y) internal pure returns (uint z) {... */\n      swap3\n      swap2\n      pop\n      pop\n      jump\t// out\n        /* \"contracts/libraries/UniswapV2Library.sol\":1502:1819  function quote(uint amountA, uint reserveA, uint reserveB) internal pure returns (uint amountB) {... */\n    tag_174:\n        /* \"contracts/libraries/UniswapV2Library.sol\":1584:1596  uint amountB */\n      0x00\n        /* \"contracts/libraries/UniswapV2Library.sol\":1626:1627  0 */\n      dup1\n        /* \"contracts/libraries/UniswapV2Library.sol\":1616:1623  amountA */\n      dup5\n        /* \"contracts/libraries/UniswapV2Library.sol\":1616:1627  amountA > 0 */\n      gt\n        /* \"contracts/libraries/UniswapV2Library.sol\":1608:1669  require(amountA > 0, 'UniswapV2Library: INSUFFICIENT_AMOUNT') */\n      tag_358\n      jumpi\n      mload(0x40)\n      0x08c379a000000000000000000000000000000000000000000000000000000000\n      dup2\n      mstore\n      0x04\n      add\n      dup1\n      dup1\n      0x20\n      add\n      dup3\n      dup2\n      sub\n      dup3\n      mstore\n      0x25\n      dup2\n      mstore\n      0x20\n      add\n      dup1\n      data_b3ea0cd729028efbc737ad3cde1d4d854e6f2c136b354fbaea9389d68bc3a146\n      0x25\n      swap2\n      codecopy\n      0x40\n      add\n      swap2\n      pop\n      pop\n      mload(0x40)\n      dup1\n      swap2\n      sub\n      swap1\n      revert\n    tag_358:\n        /* \"contracts/libraries/UniswapV2Library.sol\":1698:1699  0 */\n      0x00\n        /* \"contracts/libraries/UniswapV2Library.sol\":1687:1695  reserveA */\n      dup4\n        /* \"contracts/libraries/UniswapV2Library.sol\":1687:1699  reserveA > 0 */\n      gt\n        /* \"contracts/libraries/UniswapV2Library.sol\":1687:1715  reserveA > 0 && reserveB > 0 */\n      dup1\n      iszero\n      tag_359\n      jumpi\n      pop\n        /* \"contracts/libraries/UniswapV2Library.sol\":1714:1715  0 */\n      0x00\n        /* \"contracts/libraries/UniswapV2Library.sol\":1703:1711  reserveB */\n      dup3\n        /* \"contracts/libraries/UniswapV2Library.sol\":1703:1715  reserveB > 0 */\n      gt\n        /* \"contracts/libraries/UniswapV2Library.sol\":1687:1715  reserveA > 0 && reserveB > 0 */\n    tag_359:\n        /* \"contracts/libraries/UniswapV2Library.sol\":1679:1760  require(reserveA > 0 && reserveB > 0, 'UniswapV2Library: INSUFFICIENT_LIQUIDITY') */\n      tag_360\n      jumpi\n      mload(0x40)\n      0x08c379a000000000000000000000000000000000000000000000000000000000\n      dup2\n      mstore\n      0x04\n      add\n      dup1\n      dup1\n      0x20\n      add\n      dup3\n      dup2\n      sub\n      dup3\n      mstore\n      0x28\n      dup2\n      mstore\n      0x20\n      add\n      dup1\n      data_7e8d6b265173dbbd87b3b9e2bf4238bea6caf2b2bbeb63f859a738aec9e761c8\n      0x28\n      swap2\n      codecopy\n      0x40\n      add\n      swap2\n      pop\n      pop\n      mload(0x40)\n      dup1\n      swap2\n      sub\n      swap1\n      revert\n    tag_360:\n        /* \"contracts/libraries/UniswapV2Library.sol\":1804:1812  reserveA */\n      dup3\n        /* \"contracts/libraries/UniswapV2Library.sol\":1780:1801  amountA.mul(reserveB) */\n      tag_361\n        /* \"contracts/libraries/UniswapV2Library.sol\":1792:1800  reserveB */\n      dup4\n        /* \"contracts/libraries/UniswapV2Library.sol\":1780:1787  amountA */\n      dup7\n        /* \"contracts/libraries/UniswapV2Library.sol\":1780:1791  amountA.mul */\n      tag_362\n      swap1\n        /* \"contracts/libraries/UniswapV2Library.sol\":1780:1801  amountA.mul(reserveB) */\n      swap2\n      swap1\n      0xffffffff\n      and\n      jump\t// in\n    tag_361:\n        /* \"contracts/libraries/UniswapV2Library.sol\":1780:1812  amountA.mul(reserveB) / reserveA */\n      dup2\n      tag_363\n      jumpi\n      invalid\n    tag_363:\n      div\n        /* \"contracts/libraries/UniswapV2Library.sol\":1770:1812  amountB = amountA.mul(reserveB) / reserveA */\n      swap1\n      pop\n        /* \"contracts/libraries/UniswapV2Library.sol\":1502:1819  function quote(uint amountA, uint reserveA, uint reserveB) internal pure returns (uint amountB) {... */\n      swap4\n      swap3\n      pop\n      pop\n      pop\n      jump\t// out\n        /* \"contracts/libraries/UniswapV2Library.sol\":285:630  function sortTokens(address tokenA, address tokenB) internal pure returns (address token0, address token1) {... */\n    tag_230:\n        /* \"contracts/libraries/UniswapV2Library.sol\":360:374  address token0 */\n      0x00\n        /* \"contracts/libraries/UniswapV2Library.sol\":376:390  address token1 */\n      dup1\n        /* \"contracts/libraries/UniswapV2Library.sol\":420:426  tokenB */\n      dup3\n        /* \"contracts/libraries/UniswapV2Library.sol\":410:426  tokenA != tokenB */\n      0xffffffffffffffffffffffffffffffffffffffff\n      and\n        /* \"contracts/libraries/UniswapV2Library.sol\":410:416  tokenA */\n      dup5\n        /* \"contracts/libraries/UniswapV2Library.sol\":410:426  tokenA != tokenB */\n      0xffffffffffffffffffffffffffffffffffffffff\n      and\n      eq\n      iszero\n        /* \"contracts/libraries/UniswapV2Library.sol\":402:468  require(tokenA != tokenB, 'UniswapV2Library: IDENTICAL_ADDRESSES') */\n      tag_365\n      jumpi\n      mload(0x40)\n      0x08c379a000000000000000000000000000000000000000000000000000000000\n      dup2\n      mstore\n      0x04\n      add\n      dup1\n      dup1\n      0x20\n      add\n      dup3\n      dup2\n      sub\n      dup3\n      mstore\n      0x25\n      dup2\n      mstore\n      0x20\n      add\n      dup1\n      data_4ddc3ca35a8b7ccaa016ab70252fdf3396ded4f4fd8375f95b1e9d99790fcdca\n      0x25\n      swap2\n      codecopy\n      0x40\n      add\n      swap2\n      pop\n      pop\n      mload(0x40)\n      dup1\n      swap2\n      sub\n      swap1\n      revert\n    tag_365:\n        /* \"contracts/libraries/UniswapV2Library.sol\":506:512  tokenB */\n      dup3\n        /* \"contracts/libraries/UniswapV2Library.sol\":497:512  tokenA < tokenB */\n      0xffffffffffffffffffffffffffffffffffffffff\n      and\n        /* \"contracts/libraries/UniswapV2Library.sol\":497:503  tokenA */\n      dup5\n        /* \"contracts/libraries/UniswapV2Library.sol\":497:512  tokenA < tokenB */\n      0xffffffffffffffffffffffffffffffffffffffff\n      and\n      lt\n        /* \"contracts/libraries/UniswapV2Library.sol\":497:550  tokenA < tokenB ? (tokenA, tokenB) : (tokenB, tokenA) */\n      tag_366\n      jumpi\n        /* \"contracts/libraries/UniswapV2Library.sol\":535:541  tokenB */\n      dup3\n        /* \"contracts/libraries/UniswapV2Library.sol\":543:549  tokenA */\n      dup5\n        /* \"contracts/libraries/UniswapV2Library.sol\":497:550  tokenA < tokenB ? (tokenA, tokenB) : (tokenB, tokenA) */\n      jump(tag_367)\n    tag_366:\n        /* \"contracts/libraries/UniswapV2Library.sol\":516:522  tokenA */\n      dup4\n        /* \"contracts/libraries/UniswapV2Library.sol\":524:530  tokenB */\n      dup4\n        /* \"contracts/libraries/UniswapV2Library.sol\":497:550  tokenA < tokenB ? (tokenA, tokenB) : (tokenB, tokenA) */\n    tag_367:\n        /* \"contracts/libraries/UniswapV2Library.sol\":478:550  (token0, token1) = tokenA < tokenB ? (tokenA, tokenB) : (tokenB, tokenA) */\n      dup1\n      swap3\n      pop\n      dup2\n      swap4\n      pop\n      pop\n      pop\n        /* \"contracts/libraries/UniswapV2Library.sol\":586:587  0 */\n      0x00\n        /* \"contracts/libraries/UniswapV2Library.sol\":568:588  token0 != address(0) */\n      0xffffffffffffffffffffffffffffffffffffffff\n      and\n        /* \"contracts/libraries/UniswapV2Library.sol\":568:574  token0 */\n      dup3\n        /* \"contracts/libraries/UniswapV2Library.sol\":568:588  token0 != address(0) */\n      0xffffffffffffffffffffffffffffffffffffffff\n      and\n      eq\n      iszero\n        /* \"contracts/libraries/UniswapV2Library.sol\":560:623  require(token0 != address(0), 'UniswapV2Library: ZERO_ADDRESS') */\n      tag_368\n      jumpi\n      mload(0x40)\n      0x08c379a000000000000000000000000000000000000000000000000000000000\n      dup2\n      mstore\n      0x04\n      add\n      dup1\n      dup1\n      0x20\n      add\n      dup3\n      dup2\n      sub\n      dup3\n      mstore\n      0x1e\n      dup2\n      mstore\n      0x20\n      add\n      dup1\n      0x556e697377617056324c6962726172793a205a45524f5f414444524553530000\n      dup2\n      mstore\n      pop\n      0x20\n      add\n      swap2\n      pop\n      pop\n      mload(0x40)\n      dup1\n      swap2\n      sub\n      swap1\n      revert\n    tag_368:\n        /* \"contracts/libraries/UniswapV2Library.sol\":285:630  function sortTokens(address tokenA, address tokenB) internal pure returns (address token0, address token1) {... */\n      swap3\n      pop\n      swap3\n      swap1\n      pop\n      jump\t// out\n        /* \"contracts/libraries/UniswapV2Library.sol\":1898:2372  function getAmountsOut(address factory, uint amountIn, address[] memory path) internal view returns (uint[] memory amounts) {... */\n    tag_237:\n        /* \"contracts/libraries/UniswapV2Library.sol\":1999:2020  uint[] memory amounts */\n      0x60\n        /* \"contracts/libraries/UniswapV2Library.sol\":2055:2056  2 */\n      0x02\n        /* \"contracts/libraries/UniswapV2Library.sol\":2040:2044  path */\n      dup3\n        /* \"contracts/libraries/UniswapV2Library.sol\":2040:2051  path.length */\n      mload\n        /* \"contracts/libraries/UniswapV2Library.sol\":2040:2056  path.length >= 2 */\n      lt\n      iszero\n        /* \"contracts/libraries/UniswapV2Library.sol\":2032:2091  require(path.length >= 2, 'UniswapV2Library: INVALID_PATH') */\n      tag_370\n      jumpi\n      mload(0x40)\n      0x08c379a000000000000000000000000000000000000000000000000000000000\n      dup2\n      mstore\n      0x04\n      add\n      dup1\n      dup1\n      0x20\n      add\n      dup3\n      dup2\n      sub\n      dup3\n      mstore\n      0x1e\n      dup2\n      mstore\n      0x20\n      add\n      dup1\n      0x556e697377617056324c6962726172793a20494e56414c49445f504154480000\n      dup2\n      mstore\n      pop\n      0x20\n      add\n      swap2\n      pop\n      pop\n      mload(0x40)\n      dup1\n      swap2\n      sub\n      swap1\n      revert\n    tag_370:\n        /* \"contracts/libraries/UniswapV2Library.sol\":2122:2126  path */\n      dup2\n        /* \"contracts/libraries/UniswapV2Library.sol\":2122:2133  path.length */\n      mload\n        /* \"contracts/libraries/UniswapV2Library.sol\":2111:2134  new uint[](path.length) */\n      0xffffffffffffffff\n      dup2\n      gt\n        /* \"--CODEGEN--\":5:14   */\n      dup1\n        /* \"--CODEGEN--\":2:4   */\n      iszero\n      tag_371\n      jumpi\n        /* \"--CODEGEN--\":27:28   */\n      0x00\n        /* \"--CODEGEN--\":24:25   */\n      dup1\n        /* \"--CODEGEN--\":17:29   */\n      revert\n        /* \"--CODEGEN--\":2:4   */\n    tag_371:\n        /* \"contracts/libraries/UniswapV2Library.sol\":2111:2134  new uint[](path.length) */\n      pop\n      mload(0x40)\n      swap1\n      dup1\n      dup3\n      mstore\n      dup1\n      0x20\n      mul\n      0x20\n      add\n      dup3\n      add\n      0x40\n      mstore\n      dup1\n      iszero\n      tag_372\n      jumpi\n      dup2\n      0x20\n      add\n        /* \"--CODEGEN--\":29:31   */\n      0x20\n        /* \"--CODEGEN--\":21:27   */\n      dup3\n        /* \"--CODEGEN--\":17:32   */\n      mul\n        /* \"--CODEGEN--\":125:129   */\n      dup1\n        /* \"--CODEGEN--\":109:123   */\n      calldatasize\n        /* \"--CODEGEN--\":101:107   */\n      dup4\n        /* \"--CODEGEN--\":88:130   */\n      calldatacopy\n        /* \"--CODEGEN--\":156:160   */\n      dup1\n        /* \"--CODEGEN--\":148:154   */\n      dup3\n        /* \"--CODEGEN--\":144:161   */\n      add\n        /* \"--CODEGEN--\":134:161   */\n      swap2\n      pop\n        /* \"--CODEGEN--\":0:165   */\n      pop\n        /* \"contracts/libraries/UniswapV2Library.sol\":2111:2134  new uint[](path.length) */\n      swap1\n      pop\n    tag_372:\n      pop\n        /* \"contracts/libraries/UniswapV2Library.sol\":2101:2134  amounts = new uint[](path.length) */\n      swap1\n      pop\n        /* \"contracts/libraries/UniswapV2Library.sol\":2157:2165  amountIn */\n      dup3\n        /* \"contracts/libraries/UniswapV2Library.sol\":2144:2151  amounts */\n      dup2\n        /* \"contracts/libraries/UniswapV2Library.sol\":2152:2153  0 */\n      0x00\n        /* \"contracts/libraries/UniswapV2Library.sol\":2144:2154  amounts[0] */\n      dup2\n      mload\n      dup2\n      lt\n      tag_373\n      jumpi\n      invalid\n    tag_373:\n      0x20\n      mul\n      0x20\n      add\n      add\n        /* \"contracts/libraries/UniswapV2Library.sol\":2144:2165  amounts[0] = amountIn */\n      dup2\n      dup2\n      mstore\n      pop\n      pop\n        /* \"contracts/libraries/UniswapV2Library.sol\":2180:2186  uint i */\n      0x00\n        /* \"contracts/libraries/UniswapV2Library.sol\":2175:2366  for (uint i; i < path.length - 1; i++) {... */\n    tag_374:\n        /* \"contracts/libraries/UniswapV2Library.sol\":2206:2207  1 */\n      0x01\n        /* \"contracts/libraries/UniswapV2Library.sol\":2192:2196  path */\n      dup4\n        /* \"contracts/libraries/UniswapV2Library.sol\":2192:2203  path.length */\n      mload\n        /* \"contracts/libraries/UniswapV2Library.sol\":2192:2207  path.length - 1 */\n      sub\n        /* \"contracts/libraries/UniswapV2Library.sol\":2188:2189  i */\n      dup2\n        /* \"contracts/libraries/UniswapV2Library.sol\":2188:2207  i < path.length - 1 */\n      lt\n        /* \"contracts/libraries/UniswapV2Library.sol\":2175:2366  for (uint i; i < path.length - 1; i++) {... */\n      iszero\n      tag_375\n      jumpi\n        /* \"contracts/libraries/UniswapV2Library.sol\":2228:2238  IPair pair */\n      0x00\n        /* \"contracts/libraries/UniswapV2Library.sol\":2247:2285  pairFor(factory, path[i], path[i + 1]) */\n      tag_377\n        /* \"contracts/libraries/UniswapV2Library.sol\":2255:2262  factory */\n      dup7\n        /* \"contracts/libraries/UniswapV2Library.sol\":2264:2268  path */\n      dup6\n        /* \"contracts/libraries/UniswapV2Library.sol\":2269:2270  i */\n      dup5\n        /* \"contracts/libraries/UniswapV2Library.sol\":2264:2271  path[i] */\n      dup2\n      mload\n      dup2\n      lt\n      tag_378\n      jumpi\n      invalid\n    tag_378:\n      0x20\n      mul\n      0x20\n      add\n      add\n      mload\n        /* \"contracts/libraries/UniswapV2Library.sol\":2273:2277  path */\n      dup7\n        /* \"contracts/libraries/UniswapV2Library.sol\":2282:2283  1 */\n      0x01\n        /* \"contracts/libraries/UniswapV2Library.sol\":2278:2279  i */\n      dup7\n        /* \"contracts/libraries/UniswapV2Library.sol\":2278:2283  i + 1 */\n      add\n        /* \"contracts/libraries/UniswapV2Library.sol\":2273:2284  path[i + 1] */\n      dup2\n      mload\n      dup2\n      lt\n      tag_379\n      jumpi\n      invalid\n    tag_379:\n      0x20\n      mul\n      0x20\n      add\n      add\n      mload\n        /* \"contracts/libraries/UniswapV2Library.sol\":2247:2254  pairFor */\n      tag_113\n        /* \"contracts/libraries/UniswapV2Library.sol\":2247:2285  pairFor(factory, path[i], path[i + 1]) */\n      jump\t// in\n    tag_377:\n        /* \"contracts/libraries/UniswapV2Library.sol\":2228:2286  IPair pair = IPair(pairFor(factory, path[i], path[i + 1])) */\n      swap1\n      pop\n        /* \"contracts/libraries/UniswapV2Library.sol\":2317:2321  pair */\n      dup1\n        /* \"contracts/libraries/UniswapV2Library.sol\":2317:2334  pair.getAmountOut */\n      0xffffffffffffffffffffffffffffffffffffffff\n      and\n      0xf140a35a\n        /* \"contracts/libraries/UniswapV2Library.sol\":2335:2342  amounts */\n      dup5\n        /* \"contracts/libraries/UniswapV2Library.sol\":2343:2344  i */\n      dup5\n        /* \"contracts/libraries/UniswapV2Library.sol\":2335:2345  amounts[i] */\n      dup2\n      mload\n      dup2\n      lt\n      tag_380\n      jumpi\n      invalid\n    tag_380:\n      0x20\n      mul\n      0x20\n      add\n      add\n      mload\n        /* \"contracts/libraries/UniswapV2Library.sol\":2347:2351  path */\n      dup7\n        /* \"contracts/libraries/UniswapV2Library.sol\":2352:2353  i */\n      dup6\n        /* \"contracts/libraries/UniswapV2Library.sol\":2347:2354  path[i] */\n      dup2\n      mload\n      dup2\n      lt\n      tag_381\n      jumpi\n      invalid\n    tag_381:\n      0x20\n      mul\n      0x20\n      add\n      add\n      mload\n        /* \"contracts/libraries/UniswapV2Library.sol\":2317:2355  pair.getAmountOut(amounts[i], path[i]) */\n      mload(0x40)\n      dup4\n      0xffffffff\n      and\n      0xe0\n      shl\n      dup2\n      mstore\n      0x04\n      add\n      dup1\n      dup4\n      dup2\n      mstore\n      0x20\n      add\n      dup3\n      0xffffffffffffffffffffffffffffffffffffffff\n      and\n      0xffffffffffffffffffffffffffffffffffffffff\n      and\n      dup2\n      mstore\n      0x20\n      add\n      swap3\n      pop\n      pop\n      pop\n      0x20\n      mload(0x40)\n      dup1\n      dup4\n      sub\n      dup2\n      dup7\n      dup1\n      extcodesize\n      iszero\n        /* \"--CODEGEN--\":5:14   */\n      dup1\n        /* \"--CODEGEN--\":2:4   */\n      iszero\n      tag_382\n      jumpi\n        /* \"--CODEGEN--\":27:28   */\n      0x00\n        /* \"--CODEGEN--\":24:25   */\n      dup1\n        /* \"--CODEGEN--\":17:29   */\n      revert\n        /* \"--CODEGEN--\":2:4   */\n    tag_382:\n        /* \"contracts/libraries/UniswapV2Library.sol\":2317:2355  pair.getAmountOut(amounts[i], path[i]) */\n      pop\n      gas\n      staticcall\n      iszero\n        /* \"--CODEGEN--\":8:17   */\n      dup1\n        /* \"--CODEGEN--\":5:7   */\n      iszero\n      tag_384\n      jumpi\n        /* \"--CODEGEN--\":45:61   */\n      returndatasize\n        /* \"--CODEGEN--\":42:43   */\n      0x00\n        /* \"--CODEGEN--\":39:40   */\n      dup1\n        /* \"--CODEGEN--\":24:62   */\n      returndatacopy\n        /* \"--CODEGEN--\":77:93   */\n      returndatasize\n        /* \"--CODEGEN--\":74:75   */\n      0x00\n        /* \"--CODEGEN--\":67:94   */\n      revert\n        /* \"--CODEGEN--\":5:7   */\n    tag_384:\n        /* \"contracts/libraries/UniswapV2Library.sol\":2317:2355  pair.getAmountOut(amounts[i], path[i]) */\n      pop\n      pop\n      pop\n      pop\n      mload(0x40)\n      returndatasize\n        /* \"--CODEGEN--\":15:17   */\n      0x20\n        /* \"--CODEGEN--\":10:13   */\n      dup2\n        /* \"--CODEGEN--\":7:18   */\n      lt\n        /* \"--CODEGEN--\":4:6   */\n      iszero\n      tag_385\n      jumpi\n        /* \"--CODEGEN--\":31:32   */\n      0x00\n        /* \"--CODEGEN--\":28:29   */\n      dup1\n        /* \"--CODEGEN--\":21:33   */\n      revert\n        /* \"--CODEGEN--\":4:6   */\n    tag_385:\n        /* \"contracts/libraries/UniswapV2Library.sol\":2317:2355  pair.getAmountOut(amounts[i], path[i]) */\n      dup2\n      add\n      swap1\n      dup1\n      dup1\n      mload\n      swap1\n      0x20\n      add\n      swap1\n      swap3\n      swap2\n      swap1\n      pop\n      pop\n      pop\n        /* \"contracts/libraries/UniswapV2Library.sol\":2300:2307  amounts */\n      dup4\n        /* \"contracts/libraries/UniswapV2Library.sol\":2312:2313  1 */\n      0x01\n        /* \"contracts/libraries/UniswapV2Library.sol\":2308:2309  i */\n      dup5\n        /* \"contracts/libraries/UniswapV2Library.sol\":2308:2313  i + 1 */\n      add\n        /* \"contracts/libraries/UniswapV2Library.sol\":2300:2314  amounts[i + 1] */\n      dup2\n      mload\n      dup2\n      lt\n      tag_386\n      jumpi\n      invalid\n    tag_386:\n      0x20\n      mul\n      0x20\n      add\n      add\n        /* \"contracts/libraries/UniswapV2Library.sol\":2300:2355  amounts[i + 1] = pair.getAmountOut(amounts[i], path[i]) */\n      dup2\n      dup2\n      mstore\n      pop\n      pop\n        /* \"contracts/libraries/UniswapV2Library.sol\":2175:2366  for (uint i; i < path.length - 1; i++) {... */\n      pop\n        /* \"contracts/libraries/UniswapV2Library.sol\":2209:2212  i++ */\n      dup1\n      dup1\n      0x01\n      add\n      swap2\n      pop\n      pop\n        /* \"contracts/libraries/UniswapV2Library.sol\":2175:2366  for (uint i; i < path.length - 1; i++) {... */\n      jump(tag_374)\n    tag_375:\n      pop\n        /* \"contracts/libraries/UniswapV2Library.sol\":1898:2372  function getAmountsOut(address factory, uint amountIn, address[] memory path) internal view returns (uint[] memory amounts) {... */\n      swap4\n      swap3\n      pop\n      pop\n      pop\n      jump\t// out\n        /* \"contracts/router.sol\":1017:2214  function _addLiquidity(... */\n    tag_252:\n        /* \"contracts/router.sol\":1194:1206  uint amountA */\n      0x00\n        /* \"contracts/router.sol\":1208:1220  uint amountB */\n      dup1\n        /* \"contracts/router.sol\":1332:1333  0 */\n      0x00\n        /* \"contracts/router.sol\":1279:1334  IFactory(factory).getPair(tokenA, tokenB) == address(0) */\n      0xffffffffffffffffffffffffffffffffffffffff\n      and\n        /* \"contracts/router.sol\":1288:1295  factory */\n      immutable(\"0x1c0bab9e06a591c52ac680ae9eef6479e476f64f56be5d259d46a0497cb2a9b9\")\n        /* \"contracts/router.sol\":1279:1304  IFactory(factory).getPair */\n      0xffffffffffffffffffffffffffffffffffffffff\n      and\n      0xe6a43905\n        /* \"contracts/router.sol\":1305:1311  tokenA */\n      dup11\n        /* \"contracts/router.sol\":1313:1319  tokenB */\n      dup11\n        /* \"contracts/router.sol\":1279:1320  IFactory(factory).getPair(tokenA, tokenB) */\n      mload(0x40)\n      dup4\n      0xffffffff\n      and\n      0xe0\n      shl\n      dup2\n      mstore\n      0x04\n      add\n      dup1\n      dup4\n      0xffffffffffffffffffffffffffffffffffffffff\n      and\n      0xffffffffffffffffffffffffffffffffffffffff\n      and\n      dup2\n      mstore\n      0x20\n      add\n      dup3\n      0xffffffffffffffffffffffffffffffffffffffff\n      and\n      0xffffffffffffffffffffffffffffffffffffffff\n      and\n      dup2\n      mstore\n      0x20\n      add\n      swap3\n      pop\n      pop\n      pop\n      0x20\n      mload(0x40)\n      dup1\n      dup4\n      sub\n      dup2\n      dup7\n      dup1\n      extcodesize\n      iszero\n        /* \"--CODEGEN--\":5:14   */\n      dup1\n        /* \"--CODEGEN--\":2:4   */\n      iszero\n      tag_388\n      jumpi\n        /* \"--CODEGEN--\":27:28   */\n      0x00\n        /* \"--CODEGEN--\":24:25   */\n      dup1\n        /* \"--CODEGEN--\":17:29   */\n      revert\n        /* \"--CODEGEN--\":2:4   */\n    tag_388:\n        /* \"contracts/router.sol\":1279:1320  IFactory(factory).getPair(tokenA, tokenB) */\n      pop\n      gas\n      staticcall\n      iszero\n        /* \"--CODEGEN--\":8:17   */\n      dup1\n        /* \"--CODEGEN--\":5:7   */\n      iszero\n      tag_390\n      jumpi\n        /* \"--CODEGEN--\":45:61   */\n      returndatasize\n        /* \"--CODEGEN--\":42:43   */\n      0x00\n        /* \"--CODEGEN--\":39:40   */\n      dup1\n        /* \"--CODEGEN--\":24:62   */\n      returndatacopy\n        /* \"--CODEGEN--\":77:93   */\n      returndatasize\n        /* \"--CODEGEN--\":74:75   */\n      0x00\n        /* \"--CODEGEN--\":67:94   */\n      revert\n        /* \"--CODEGEN--\":5:7   */\n    tag_390:\n        /* \"contracts/router.sol\":1279:1320  IFactory(factory).getPair(tokenA, tokenB) */\n      pop\n      pop\n      pop\n      pop\n      mload(0x40)\n      returndatasize\n        /* \"--CODEGEN--\":15:17   */\n      0x20\n        /* \"--CODEGEN--\":10:13   */\n      dup2\n        /* \"--CODEGEN--\":7:18   */\n      lt\n        /* \"--CODEGEN--\":4:6   */\n      iszero\n      tag_391\n      jumpi\n        /* \"--CODEGEN--\":31:32   */\n      0x00\n        /* \"--CODEGEN--\":28:29   */\n      dup1\n        /* \"--CODEGEN--\":21:33   */\n      revert\n        /* \"--CODEGEN--\":4:6   */\n    tag_391:\n        /* \"contracts/router.sol\":1279:1320  IFactory(factory).getPair(tokenA, tokenB) */\n      dup2\n      add\n      swap1\n      dup1\n      dup1\n      mload\n      swap1\n      0x20\n      add\n      swap1\n      swap3\n      swap2\n      swap1\n      pop\n      pop\n      pop\n        /* \"contracts/router.sol\":1279:1334  IFactory(factory).getPair(tokenA, tokenB) == address(0) */\n      0xffffffffffffffffffffffffffffffffffffffff\n      and\n      eq\n        /* \"contracts/router.sol\":1275:1395  if (IFactory(factory).getPair(tokenA, tokenB) == address(0)) {... */\n      iszero\n      tag_392\n      jumpi\n        /* \"contracts/router.sol\":1353:1360  factory */\n      immutable(\"0x1c0bab9e06a591c52ac680ae9eef6479e476f64f56be5d259d46a0497cb2a9b9\")\n        /* \"contracts/router.sol\":1344:1372  IFactory(factory).createPair */\n      0xffffffffffffffffffffffffffffffffffffffff\n      and\n      0xc9c65396\n        /* \"contracts/router.sol\":1373:1379  tokenA */\n      dup10\n        /* \"contracts/router.sol\":1381:1387  tokenB */\n      dup10\n        /* \"contracts/router.sol\":1344:1388  IFactory(factory).createPair(tokenA, tokenB) */\n      mload(0x40)\n      dup4\n      0xffffffff\n      and\n      0xe0\n      shl\n      dup2\n      mstore\n      0x04\n      add\n      dup1\n      dup4\n      0xffffffffffffffffffffffffffffffffffffffff\n      and\n      0xffffffffffffffffffffffffffffffffffffffff\n      and\n      dup2\n      mstore\n      0x20\n      add\n      dup3\n      0xffffffffffffffffffffffffffffffffffffffff\n      and\n      0xffffffffffffffffffffffffffffffffffffffff\n      and\n      dup2\n      mstore\n      0x20\n      add\n      swap3\n      pop\n      pop\n      pop\n      0x20\n      mload(0x40)\n      dup1\n      dup4\n      sub\n      dup2\n      0x00\n      dup8\n      dup1\n      extcodesize\n      iszero\n        /* \"--CODEGEN--\":5:14   */\n      dup1\n        /* \"--CODEGEN--\":2:4   */\n      iszero\n      tag_393\n      jumpi\n        /* \"--CODEGEN--\":27:28   */\n      0x00\n        /* \"--CODEGEN--\":24:25   */\n      dup1\n        /* \"--CODEGEN--\":17:29   */\n      revert\n        /* \"--CODEGEN--\":2:4   */\n    tag_393:\n        /* \"contracts/router.sol\":1344:1388  IFactory(factory).createPair(tokenA, tokenB) */\n      pop\n      gas\n      call\n      iszero\n        /* \"--CODEGEN--\":8:17   */\n      dup1\n        /* \"--CODEGEN--\":5:7   */\n      iszero\n      tag_395\n      jumpi\n        /* \"--CODEGEN--\":45:61   */\n      returndatasize\n        /* \"--CODEGEN--\":42:43   */\n      0x00\n        /* \"--CODEGEN--\":39:40   */\n      dup1\n        /* \"--CODEGEN--\":24:62   */\n      returndatacopy\n        /* \"--CODEGEN--\":77:93   */\n      returndatasize\n        /* \"--CODEGEN--\":74:75   */\n      0x00\n        /* \"--CODEGEN--\":67:94   */\n      revert\n        /* \"--CODEGEN--\":5:7   */\n    tag_395:\n        /* \"contracts/router.sol\":1344:1388  IFactory(factory).createPair(tokenA, tokenB) */\n      pop\n      pop\n      pop\n      pop\n      mload(0x40)\n      returndatasize\n        /* \"--CODEGEN--\":15:17   */\n      0x20\n        /* \"--CODEGEN--\":10:13   */\n      dup2\n        /* \"--CODEGEN--\":7:18   */\n      lt\n        /* \"--CODEGEN--\":4:6   */\n      iszero\n      tag_396\n      jumpi\n        /* \"--CODEGEN--\":31:32   */\n      0x00\n        /* \"--CODEGEN--\":28:29   */\n      dup1\n        /* \"--CODEGEN--\":21:33   */\n      revert\n        /* \"--CODEGEN--\":4:6   */\n    tag_396:\n        /* \"contracts/router.sol\":1344:1388  IFactory(factory).createPair(tokenA, tokenB) */\n      dup2\n      add\n      swap1\n      dup1\n      dup1\n      mload\n      swap1\n      0x20\n      add\n      swap1\n      swap3\n      swap2\n      swap1\n      pop\n      pop\n      pop\n      pop\n        /* \"contracts/router.sol\":1275:1395  if (IFactory(factory).getPair(tokenA, tokenB) == address(0)) {... */\n    tag_392:\n        /* \"contracts/router.sol\":1401:1414  uint reserveA */\n      0x00\n        /* \"contracts/router.sol\":1416:1429  uint reserveB */\n      dup1\n        /* \"contracts/router.sol\":1433:1486  UniswapV2Library.getReserves(factory, tokenA, tokenB) */\n      tag_397\n        /* \"contracts/router.sol\":1462:1469  factory */\n      immutable(\"0x1c0bab9e06a591c52ac680ae9eef6479e476f64f56be5d259d46a0497cb2a9b9\")\n        /* \"contracts/router.sol\":1471:1477  tokenA */\n      dup12\n        /* \"contracts/router.sol\":1479:1485  tokenB */\n      dup12\n        /* \"contracts/router.sol\":1433:1461  UniswapV2Library.getReserves */\n      tag_398\n        /* \"contracts/router.sol\":1433:1486  UniswapV2Library.getReserves(factory, tokenA, tokenB) */\n      jump\t// in\n    tag_397:\n        /* \"contracts/router.sol\":1400:1486  (uint reserveA, uint reserveB) = UniswapV2Library.getReserves(factory, tokenA, tokenB) */\n      swap2\n      pop\n      swap2\n      pop\n        /* \"contracts/router.sol\":1508:1509  0 */\n      0x00\n        /* \"contracts/router.sol\":1496:1504  reserveA */\n      dup3\n        /* \"contracts/router.sol\":1496:1509  reserveA == 0 */\n      eq\n        /* \"contracts/router.sol\":1496:1526  reserveA == 0 && reserveB == 0 */\n      dup1\n      iszero\n      tag_399\n      jumpi\n      pop\n        /* \"contracts/router.sol\":1525:1526  0 */\n      0x00\n        /* \"contracts/router.sol\":1513:1521  reserveB */\n      dup2\n        /* \"contracts/router.sol\":1513:1526  reserveB == 0 */\n      eq\n        /* \"contracts/router.sol\":1496:1526  reserveA == 0 && reserveB == 0 */\n    tag_399:\n        /* \"contracts/router.sol\":1492:2210  if (reserveA == 0 && reserveB == 0) {... */\n      iszero\n      tag_400\n      jumpi\n        /* \"contracts/router.sol\":1558:1572  amountADesired */\n      dup8\n        /* \"contracts/router.sol\":1574:1588  amountBDesired */\n      dup8\n        /* \"contracts/router.sol\":1536:1589  (amountA, amountB) = (amountADesired, amountBDesired) */\n      dup1\n      swap5\n      pop\n      dup2\n      swap6\n      pop\n      pop\n      pop\n        /* \"contracts/router.sol\":1492:2210  if (reserveA == 0 && reserveB == 0) {... */\n      jump(tag_401)\n    tag_400:\n        /* \"contracts/router.sol\":1610:1629  uint amountBOptimal */\n      0x00\n        /* \"contracts/router.sol\":1632:1690  UniswapV2Library.quote(amountADesired, reserveA, reserveB) */\n      tag_402\n        /* \"contracts/router.sol\":1655:1669  amountADesired */\n      dup10\n        /* \"contracts/router.sol\":1671:1679  reserveA */\n      dup5\n        /* \"contracts/router.sol\":1681:1689  reserveB */\n      dup5\n        /* \"contracts/router.sol\":1632:1654  UniswapV2Library.quote */\n      tag_174\n        /* \"contracts/router.sol\":1632:1690  UniswapV2Library.quote(amountADesired, reserveA, reserveB) */\n      jump\t// in\n    tag_402:\n        /* \"contracts/router.sol\":1610:1690  uint amountBOptimal = UniswapV2Library.quote(amountADesired, reserveA, reserveB) */\n      swap1\n      pop\n        /* \"contracts/router.sol\":1720:1734  amountBDesired */\n      dup8\n        /* \"contracts/router.sol\":1702:1716  amountBOptimal */\n      dup2\n        /* \"contracts/router.sol\":1702:1734  amountBOptimal <= amountBDesired */\n      gt\n        /* \"contracts/router.sol\":1698:2204  if (amountBOptimal <= amountBDesired) {... */\n      tag_403\n      jumpi\n        /* \"contracts/router.sol\":1772:1782  amountBMin */\n      dup6\n        /* \"contracts/router.sol\":1754:1768  amountBOptimal */\n      dup2\n        /* \"contracts/router.sol\":1754:1782  amountBOptimal >= amountBMin */\n      lt\n      iszero\n        /* \"contracts/router.sol\":1746:1825  require(amountBOptimal >= amountBMin, 'EZKaliburRouter: INSUFFICIENT_B_AMOUNT') */\n      tag_404\n      jumpi\n      mload(0x40)\n      0x08c379a000000000000000000000000000000000000000000000000000000000\n      dup2\n      mstore\n      0x04\n      add\n      dup1\n      dup1\n      0x20\n      add\n      dup3\n      dup2\n      sub\n      dup3\n      mstore\n      0x26\n      dup2\n      mstore\n      0x20\n      add\n      dup1\n      data_74dad2b2b1ce754bc2af951e827754c2e60e36f2bab902635ae5fd9073a9c60d\n      0x26\n      swap2\n      codecopy\n      0x40\n      add\n      swap2\n      pop\n      pop\n      mload(0x40)\n      dup1\n      swap2\n      sub\n      swap1\n      revert\n    tag_404:\n        /* \"contracts/router.sol\":1857:1871  amountADesired */\n      dup9\n        /* \"contracts/router.sol\":1873:1887  amountBOptimal */\n      dup2\n        /* \"contracts/router.sol\":1835:1888  (amountA, amountB) = (amountADesired, amountBOptimal) */\n      dup1\n      swap6\n      pop\n      dup2\n      swap7\n      pop\n      pop\n      pop\n        /* \"contracts/router.sol\":1698:2204  if (amountBOptimal <= amountBDesired) {... */\n      jump(tag_405)\n    tag_403:\n        /* \"contracts/router.sol\":1913:1932  uint amountAOptimal */\n      0x00\n        /* \"contracts/router.sol\":1935:1993  UniswapV2Library.quote(amountBDesired, reserveB, reserveA) */\n      tag_406\n        /* \"contracts/router.sol\":1958:1972  amountBDesired */\n      dup10\n        /* \"contracts/router.sol\":1974:1982  reserveB */\n      dup5\n        /* \"contracts/router.sol\":1984:1992  reserveA */\n      dup7\n        /* \"contracts/router.sol\":1935:1957  UniswapV2Library.quote */\n      tag_174\n        /* \"contracts/router.sol\":1935:1993  UniswapV2Library.quote(amountBDesired, reserveB, reserveA) */\n      jump\t// in\n    tag_406:\n        /* \"contracts/router.sol\":1913:1993  uint amountAOptimal = UniswapV2Library.quote(amountBDesired, reserveB, reserveA) */\n      swap1\n      pop\n        /* \"contracts/router.sol\":2028:2042  amountADesired */\n      dup10\n        /* \"contracts/router.sol\":2010:2024  amountAOptimal */\n      dup2\n        /* \"contracts/router.sol\":2010:2042  amountAOptimal <= amountADesired */\n      gt\n      iszero\n        /* \"contracts/router.sol\":2003:2043  assert(amountAOptimal <= amountADesired) */\n      tag_407\n      jumpi\n      invalid\n    tag_407:\n        /* \"contracts/router.sol\":2079:2089  amountAMin */\n      dup8\n        /* \"contracts/router.sol\":2061:2075  amountAOptimal */\n      dup2\n        /* \"contracts/router.sol\":2061:2089  amountAOptimal >= amountAMin */\n      lt\n      iszero\n        /* \"contracts/router.sol\":2053:2132  require(amountAOptimal >= amountAMin, 'EZKaliburRouter: INSUFFICIENT_A_AMOUNT') */\n      tag_408\n      jumpi\n      mload(0x40)\n      0x08c379a000000000000000000000000000000000000000000000000000000000\n      dup2\n      mstore\n      0x04\n      add\n      dup1\n      dup1\n      0x20\n      add\n      dup3\n      dup2\n      sub\n      dup3\n      mstore\n      0x26\n      dup2\n      mstore\n      0x20\n      add\n      dup1\n      data_4570be9288664f76b29d49a23968cc6fb608f8c341b1a78187ee6735a35a6f97\n      0x26\n      swap2\n      codecopy\n      0x40\n      add\n      swap2\n      pop\n      pop\n      mload(0x40)\n      dup1\n      swap2\n      sub\n      swap1\n      revert\n    tag_408:\n        /* \"contracts/router.sol\":2164:2178  amountAOptimal */\n      dup1\n        /* \"contracts/router.sol\":2180:2194  amountBDesired */\n      dup10\n        /* \"contracts/router.sol\":2142:2195  (amountA, amountB) = (amountAOptimal, amountBDesired) */\n      dup1\n      swap7\n      pop\n      dup2\n      swap8\n      pop\n      pop\n      pop\n        /* \"contracts/router.sol\":1698:2204  if (amountBOptimal <= amountBDesired) {... */\n      pop\n    tag_405:\n        /* \"contracts/router.sol\":1492:2210  if (reserveA == 0 && reserveB == 0) {... */\n      pop\n    tag_401:\n        /* \"contracts/router.sol\":1017:2214  function _addLiquidity(... */\n      pop\n      pop\n      swap7\n      pop\n      swap7\n      swap5\n      pop\n      pop\n      pop\n      pop\n      pop\n      jump\t// out\n        /* \"contracts/libraries/SafeMath.sol\":421:561  function mul(uint x, uint y) internal pure returns (uint z) {... */\n    tag_362:\n        /* \"contracts/libraries/SafeMath.sol\":473:479  uint z */\n      0x00\n        /* \"contracts/libraries/SafeMath.sol\":504:505  0 */\n      dup1\n        /* \"contracts/libraries/SafeMath.sol\":499:500  y */\n      dup3\n        /* \"contracts/libraries/SafeMath.sol\":499:505  y == 0 */\n      eq\n        /* \"contracts/libraries/SafeMath.sol\":499:529  y == 0 || (z = x * y) / y == x */\n      dup1\n      tag_410\n      jumpi\n      pop\n        /* \"contracts/libraries/SafeMath.sol\":528:529  x */\n      dup3\n        /* \"contracts/libraries/SafeMath.sol\":523:524  y */\n      dup3\n        /* \"contracts/libraries/SafeMath.sol\":518:519  y */\n      dup4\n        /* \"contracts/libraries/SafeMath.sol\":514:515  x */\n      dup6\n        /* \"contracts/libraries/SafeMath.sol\":514:519  x * y */\n      mul\n        /* \"contracts/libraries/SafeMath.sol\":510:519  z = x * y */\n      swap3\n      pop\n      dup3\n        /* \"contracts/libraries/SafeMath.sol\":509:524  (z = x * y) / y */\n      dup2\n      tag_411\n      jumpi\n      invalid\n    tag_411:\n      div\n        /* \"contracts/libraries/SafeMath.sol\":509:529  (z = x * y) / y == x */\n      eq\n        /* \"contracts/libraries/SafeMath.sol\":499:529  y == 0 || (z = x * y) / y == x */\n    tag_410:\n        /* \"contracts/libraries/SafeMath.sol\":491:554  require(y == 0 || (z = x * y) / y == x, 'ds-math-mul-overflow') */\n      tag_412\n      jumpi\n      mload(0x40)\n      0x08c379a000000000000000000000000000000000000000000000000000000000\n      dup2\n      mstore\n      0x04\n      add\n      dup1\n      dup1\n      0x20\n      add\n      dup3\n      dup2\n      sub\n      dup3\n      mstore\n      0x14\n      dup2\n      mstore\n      0x20\n      add\n      dup1\n      0x64732d6d6174682d6d756c2d6f766572666c6f77000000000000000000000000\n      dup2\n      mstore\n      pop\n      0x20\n      add\n      swap2\n      pop\n      pop\n      mload(0x40)\n      dup1\n      swap2\n      sub\n      swap1\n      revert\n    tag_412:\n        /* \"contracts/libraries/SafeMath.sol\":421:561  function mul(uint x, uint y) internal pure returns (uint z) {... */\n      swap3\n      swap2\n      pop\n      pop\n      jump\t// out\n        /* \"contracts/libraries/UniswapV2Library.sol\":1013:1392  function getReserves(address factory, address tokenA, address tokenB) internal view returns (uint reserveA, uint reserveB) {... */\n    tag_398:\n        /* \"contracts/libraries/UniswapV2Library.sol\":1106:1119  uint reserveA */\n      0x00\n        /* \"contracts/libraries/UniswapV2Library.sol\":1121:1134  uint reserveB */\n      dup1\n        /* \"contracts/libraries/UniswapV2Library.sol\":1147:1161  address token0 */\n      0x00\n        /* \"contracts/libraries/UniswapV2Library.sol\":1166:1192  sortTokens(tokenA, tokenB) */\n      tag_414\n        /* \"contracts/libraries/UniswapV2Library.sol\":1177:1183  tokenA */\n      dup6\n        /* \"contracts/libraries/UniswapV2Library.sol\":1185:1191  tokenB */\n      dup6\n        /* \"contracts/libraries/UniswapV2Library.sol\":1166:1176  sortTokens */\n      tag_230\n        /* \"contracts/libraries/UniswapV2Library.sol\":1166:1192  sortTokens(tokenA, tokenB) */\n      jump\t// in\n    tag_414:\n        /* \"contracts/libraries/UniswapV2Library.sol\":1146:1192  (address token0,) = sortTokens(tokenA, tokenB) */\n      pop\n      swap1\n      pop\n        /* \"contracts/libraries/UniswapV2Library.sol\":1203:1216  uint reserve0 */\n      0x00\n        /* \"contracts/libraries/UniswapV2Library.sol\":1218:1231  uint reserve1 */\n      dup1\n        /* \"contracts/libraries/UniswapV2Library.sol\":1243:1275  pairFor(factory, tokenA, tokenB) */\n      tag_415\n        /* \"contracts/libraries/UniswapV2Library.sol\":1251:1258  factory */\n      dup9\n        /* \"contracts/libraries/UniswapV2Library.sol\":1260:1266  tokenA */\n      dup9\n        /* \"contracts/libraries/UniswapV2Library.sol\":1268:1274  tokenB */\n      dup9\n        /* \"contracts/libraries/UniswapV2Library.sol\":1243:1250  pairFor */\n      tag_113\n        /* \"contracts/libraries/UniswapV2Library.sol\":1243:1275  pairFor(factory, tokenA, tokenB) */\n      jump\t// in\n    tag_415:\n        /* \"contracts/libraries/UniswapV2Library.sol\":1237:1288  IPair(pairFor(factory, tokenA, tokenB)).getReserves */\n      0xffffffffffffffffffffffffffffffffffffffff\n      and\n      0x0902f1ac\n        /* \"contracts/libraries/UniswapV2Library.sol\":1237:1290  IPair(pairFor(factory, tokenA, tokenB)).getReserves() */\n      mload(0x40)\n      dup2\n      0xffffffff\n      and\n      0xe0\n      shl\n      dup2\n      mstore\n      0x04\n      add\n      0x80\n      mload(0x40)\n      dup1\n      dup4\n      sub\n      dup2\n      dup7\n      dup1\n      extcodesize\n      iszero\n        /* \"--CODEGEN--\":5:14   */\n      dup1\n        /* \"--CODEGEN--\":2:4   */\n      iszero\n      tag_416\n      jumpi\n        /* \"--CODEGEN--\":27:28   */\n      0x00\n        /* \"--CODEGEN--\":24:25   */\n      dup1\n        /* \"--CODEGEN--\":17:29   */\n      revert\n        /* \"--CODEGEN--\":2:4   */\n    tag_416:\n        /* \"contracts/libraries/UniswapV2Library.sol\":1237:1290  IPair(pairFor(factory, tokenA, tokenB)).getReserves() */\n      pop\n      gas\n      staticcall\n      iszero\n        /* \"--CODEGEN--\":8:17   */\n      dup1\n        /* \"--CODEGEN--\":5:7   */\n      iszero\n      tag_418\n      jumpi\n        /* \"--CODEGEN--\":45:61   */\n      returndatasize\n        /* \"--CODEGEN--\":42:43   */\n      0x00\n        /* \"--CODEGEN--\":39:40   */\n      dup1\n        /* \"--CODEGEN--\":24:62   */\n      returndatacopy\n        /* \"--CODEGEN--\":77:93   */\n      returndatasize\n        /* \"--CODEGEN--\":74:75   */\n      0x00\n        /* \"--CODEGEN--\":67:94   */\n      revert\n        /* \"--CODEGEN--\":5:7   */\n    tag_418:\n        /* \"contracts/libraries/UniswapV2Library.sol\":1237:1290  IPair(pairFor(factory, tokenA, tokenB)).getReserves() */\n      pop\n      pop\n      pop\n      pop\n      mload(0x40)\n      returndatasize\n        /* \"--CODEGEN--\":15:18   */\n      0x80\n        /* \"--CODEGEN--\":10:13   */\n      dup2\n        /* \"--CODEGEN--\":7:19   */\n      lt\n        /* \"--CODEGEN--\":4:6   */\n      iszero\n      tag_419\n      jumpi\n        /* \"--CODEGEN--\":32:33   */\n      0x00\n        /* \"--CODEGEN--\":29:30   */\n      dup1\n        /* \"--CODEGEN--\":22:34   */\n      revert\n        /* \"--CODEGEN--\":4:6   */\n    tag_419:\n        /* \"contracts/libraries/UniswapV2Library.sol\":1237:1290  IPair(pairFor(factory, tokenA, tokenB)).getReserves() */\n      dup2\n      add\n      swap1\n      dup1\n      dup1\n      mload\n      swap1\n      0x20\n      add\n      swap1\n      swap3\n      swap2\n      swap1\n      dup1\n      mload\n      swap1\n      0x20\n      add\n      swap1\n      swap3\n      swap2\n      swap1\n      dup1\n      mload\n      swap1\n      0x20\n      add\n      swap1\n      swap3\n      swap2\n      swap1\n      dup1\n      mload\n      swap1\n      0x20\n      add\n      swap1\n      swap3\n      swap2\n      swap1\n      pop\n      pop\n      pop\n        /* \"contracts/libraries/UniswapV2Library.sol\":1202:1290  (uint reserve0, uint reserve1,,) = IPair(pairFor(factory, tokenA, tokenB)).getReserves() */\n      pop\n      pop\n      0xffffffffffffffffffffffffffff\n      and\n      swap2\n      pop\n      0xffffffffffffffffffffffffffff\n      and\n      swap2\n      pop\n        /* \"contracts/libraries/UniswapV2Library.sol\":1333:1339  token0 */\n      dup3\n        /* \"contracts/libraries/UniswapV2Library.sol\":1323:1339  tokenA == token0 */\n      0xffffffffffffffffffffffffffffffffffffffff\n      and\n        /* \"contracts/libraries/UniswapV2Library.sol\":1323:1329  tokenA */\n      dup8\n        /* \"contracts/libraries/UniswapV2Library.sol\":1323:1339  tokenA == token0 */\n      0xffffffffffffffffffffffffffffffffffffffff\n      and\n      eq\n        /* \"contracts/libraries/UniswapV2Library.sol\":1323:1385  tokenA == token0 ? (reserve0, reserve1) : (reserve1, reserve0) */\n      tag_420\n      jumpi\n        /* \"contracts/libraries/UniswapV2Library.sol\":1366:1374  reserve1 */\n      dup1\n        /* \"contracts/libraries/UniswapV2Library.sol\":1376:1384  reserve0 */\n      dup3\n        /* \"contracts/libraries/UniswapV2Library.sol\":1323:1385  tokenA == token0 ? (reserve0, reserve1) : (reserve1, reserve0) */\n      jump(tag_421)\n    tag_420:\n        /* \"contracts/libraries/UniswapV2Library.sol\":1343:1351  reserve0 */\n      dup2\n        /* \"contracts/libraries/UniswapV2Library.sol\":1353:1361  reserve1 */\n      dup2\n        /* \"contracts/libraries/UniswapV2Library.sol\":1323:1385  tokenA == token0 ? (reserve0, reserve1) : (reserve1, reserve0) */\n    tag_421:\n        /* \"contracts/libraries/UniswapV2Library.sol\":1300:1385  (reserveA, reserveB) = tokenA == token0 ? (reserve0, reserve1) : (reserve1, reserve0) */\n      dup1\n      swap6\n      pop\n      dup2\n      swap7\n      pop\n      pop\n      pop\n        /* \"contracts/libraries/UniswapV2Library.sol\":1013:1392  function getReserves(address factory, address tokenA, address tokenB) internal view returns (uint reserveA, uint reserveB) {... */\n      pop\n      pop\n      pop\n      swap4\n      pop\n      swap4\n      swap2\n      pop\n      pop\n      jump\t// out\n    stop\n    data_030eff30113124dc48ff0ea753a3ee23ef46fa107270955ce907ad89212695e5 455a4b616c69627572526f757465723a20494e53554646494349454e545f4f55545055545f414d4f554e54\n    data_3f8faf98afe9344b6d4b0e75b0101259bf282914b3b5a9320c6918b6e27ede1c 5472616e7366657248656c7065723a3a7472616e7366657246726f6d3a207472616e7366657246726f6d206661696c6564\n    data_43d7bec223ecf9eb06ea147e7d564bc71c2448662d62a4ea86ce71fc4518b350 5472616e7366657248656c7065723a3a736166655472616e736665724554483a20455448207472616e73666572206661696c6564\n    data_4570be9288664f76b29d49a23968cc6fb608f8c341b1a78187ee6735a35a6f97 455a4b616c69627572526f757465723a20494e53554646494349454e545f415f414d4f554e54\n    data_4ddc3ca35a8b7ccaa016ab70252fdf3396ded4f4fd8375f95b1e9d99790fcdca 556e697377617056324c6962726172793a204944454e544943414c5f414444524553534553\n    data_74dad2b2b1ce754bc2af951e827754c2e60e36f2bab902635ae5fd9073a9c60d 455a4b616c69627572526f757465723a20494e53554646494349454e545f425f414d4f554e54\n    data_7e8d6b265173dbbd87b3b9e2bf4238bea6caf2b2bbeb63f859a738aec9e761c8 556e697377617056324c6962726172793a20494e53554646494349454e545f4c4951554944495459\n    data_b3ea0cd729028efbc737ad3cde1d4d854e6f2c136b354fbaea9389d68bc3a146 556e697377617056324c6962726172793a20494e53554646494349454e545f414d4f554e54\n    data_daea69421eeb1164e163c36f3d4349f0db3ec4e0d1381bd5bf4faf53496c2611 5472616e7366657248656c7065723a3a736166655472616e736665723a207472616e73666572206661696c6564\n\n    auxdata: 0xa26469706673582212203c2c2d38c81d4dbd340bf1362cbd0790cf32b8129e28d17271cce0eaffeab87864736f6c63430006060033\n}\n",
				"bytecode": {
					"linkReferences": {},
					"object": "60c060405234801561001057600080fd5b506040516200462e3803806200462e8339818101604052604081101561003557600080fd5b8101908080519060200190929190805190602001909291905050508173ffffffffffffffffffffffffffffffffffffffff1660808173ffffffffffffffffffffffffffffffffffffffff1660601b815250508073ffffffffffffffffffffffffffffffffffffffff1660a08173ffffffffffffffffffffffffffffffffffffffff1660601b81525050505060805160601c60a05160601c6144a06200018e6000398060fe5280610d9c5280610dda5280611077528061126552806113985280611460528061198b5280611a425280611b355280611c4c5280611d3b5280611dbc52806125f752806129ca5280612a235280612a575280612ad8525080610e835280611197528061143e528061167a5280611dfb52806122305280612532528061255b52806125d55280612775528061283c5280612a01528061334a528061366b5280613d8f5280613eb75280613fcd52506144a06000f3fe6080604052600436106100f75760003560e01c8063b4822be31161008a578063ded9382a11610059578063ded9382a146109f5578063e6a4390514610ad7578063e8e3370014610b88578063f305d71914610c6e57610153565b8063b4822be314610718578063baa2abde146107e5578063c45a0155146108b9578063d06ca61f1461091057610153565b8063ac3893ba116100c6578063ac3893ba146104cd578063ad5c4648146105b1578063ad615dec14610608578063af2979eb1461066b57610153565b806302751cec146101585780632195995c1461020c57806352aa4c221461030e5780635b0d5984146103f257610153565b36610153577f000000000000000000000000000000000000000000000000000000000000000073ffffffffffffffffffffffffffffffffffffffff163373ffffffffffffffffffffffffffffffffffffffff161461015157fe5b005b600080fd5b34801561016457600080fd5b506101ef600480360360c081101561017b57600080fd5b81019080803573ffffffffffffffffffffffffffffffffffffffff169060200190929190803590602001909291908035906020019092919080359060200190929190803573ffffffffffffffffffffffffffffffffffffffff16906020019092919080359060200190929190505050610d1c565b604051808381526020018281526020019250505060405180910390f35b34801561021857600080fd5b506102f1600480360361016081101561023057600080fd5b81019080803573ffffffffffffffffffffffffffffffffffffffff169060200190929190803573ffffffffffffffffffffffffffffffffffffffff169060200190929190803590602001909291908035906020019092919080359060200190929190803573ffffffffffffffffffffffffffffffffffffffff16906020019092919080359060200190929190803515159060200190929190803560ff1690602001909291908035906020019092919080359060200190929190505050610e79565b604051808381526020018281526020019250505060405180910390f35b34801561031a57600080fd5b506103f0600480360360c081101561033157600080fd5b8101908080359060200190929190803590602001909291908035906020019064010000000081111561036257600080fd5b82018360208201111561037457600080fd5b8035906020019184602083028401116401000000008311171561039657600080fd5b9091929391929390803573ffffffffffffffffffffffffffffffffffffffff169060200190929190803573ffffffffffffffffffffffffffffffffffffffff16906020019092919080359060200190929190505050610ffe565b005b3480156103fe57600080fd5b506104b7600480360361014081101561041657600080fd5b81019080803573ffffffffffffffffffffffffffffffffffffffff169060200190929190803590602001909291908035906020019092919080359060200190929190803573ffffffffffffffffffffffffffffffffffffffff16906020019092919080359060200190929190803515159060200190929190803560ff1690602001909291908035906020019092919080359060200190929190505050611436565b6040518082815260200191505060405180910390f35b3480156104d957600080fd5b506105af600480360360c08110156104f057600080fd5b8101908080359060200190929190803590602001909291908035906020019064010000000081111561052157600080fd5b82018360208201111561053357600080fd5b8035906020019184602083028401116401000000008311171561055557600080fd5b9091929391929390803573ffffffffffffffffffffffffffffffffffffffff169060200190929190803573ffffffffffffffffffffffffffffffffffffffff169060200190929190803590602001909291905050506115d0565b005b3480156105bd57600080fd5b506105c6611989565b604051808273ffffffffffffffffffffffffffffffffffffffff1673ffffffffffffffffffffffffffffffffffffffff16815260200191505060405180910390f35b34801561061457600080fd5b506106556004803603606081101561062b57600080fd5b810190808035906020019092919080359060200190929190803590602001909291905050506119ad565b6040518082815260200191505060405180910390f35b34801561067757600080fd5b50610702600480360360c081101561068e57600080fd5b81019080803573ffffffffffffffffffffffffffffffffffffffff169060200190929190803590602001909291908035906020019092919080359060200190929190803573ffffffffffffffffffffffffffffffffffffffff169060200190929190803590602001909291905050506119c3565b6040518082815260200191505060405180910390f35b6107e3600480360360a081101561072e57600080fd5b81019080803590602001909291908035906020019064010000000081111561075557600080fd5b82018360208201111561076757600080fd5b8035906020019184602083028401116401000000008311171561078957600080fd5b9091929391929390803573ffffffffffffffffffffffffffffffffffffffff169060200190929190803573ffffffffffffffffffffffffffffffffffffffff16906020019092919080359060200190929190505050611bd3565b005b3480156107f157600080fd5b5061089c600480360360e081101561080857600080fd5b81019080803573ffffffffffffffffffffffffffffffffffffffff169060200190929190803573ffffffffffffffffffffffffffffffffffffffff169060200190929190803590602001909291908035906020019092919080359060200190929190803573ffffffffffffffffffffffffffffffffffffffff169060200190929190803590602001909291905050506121af565b604051808381526020018281526020019250505060405180910390f35b3480156108c557600080fd5b506108ce612530565b604051808273ffffffffffffffffffffffffffffffffffffffff1673ffffffffffffffffffffffffffffffffffffffff16815260200191505060405180910390f35b34801561091c57600080fd5b5061099e6004803603604081101561093357600080fd5b81019080803590602001909291908035906020019064010000000081111561095a57600080fd5b82018360208201111561096c57600080fd5b8035906020019184602083028401116401000000008311171561098e57600080fd5b9091929391929390505050612554565b6040518080602001828103825283818151815260200191508051906020019060200280838360005b838110156109e15780820151818401526020810190506109c6565b505050509050019250505060405180910390f35b348015610a0157600080fd5b50610aba6004803603610140811015610a1957600080fd5b81019080803573ffffffffffffffffffffffffffffffffffffffff169060200190929190803590602001909291908035906020019092919080359060200190929190803573ffffffffffffffffffffffffffffffffffffffff16906020019092919080359060200190929190803515159060200190929190803560ff16906020019092919080359060200190929190803590602001909291905050506125cb565b604051808381526020018281526020019250505060405180910390f35b348015610ae357600080fd5b50610b4660048036036040811015610afa57600080fd5b81019080803573ffffffffffffffffffffffffffffffffffffffff169060200190929190803573ffffffffffffffffffffffffffffffffffffffff16906020019092919050505061276e565b604051808273ffffffffffffffffffffffffffffffffffffffff1673ffffffffffffffffffffffffffffffffffffffff16815260200191505060405180910390f35b348015610b9457600080fd5b50610c4a6004803603610100811015610bac57600080fd5b81019080803573ffffffffffffffffffffffffffffffffffffffff169060200190929190803573ffffffffffffffffffffffffffffffffffffffff16906020019092919080359060200190929190803590602001909291908035906020019092919080359060200190929190803573ffffffffffffffffffffffffffffffffffffffff169060200190929190803590602001909291905050506127a3565b60405180848152602001838152602001828152602001935050505060405180910390f35b610cf8600480360360c0811015610c8457600080fd5b81019080803573ffffffffffffffffffffffffffffffffffffffff169060200190929190803590602001909291908035906020019092919080359060200190929190803573ffffffffffffffffffffffffffffffffffffffff16906020019092919080359060200190929190505050612948565b60405180848152602001838152602001828152602001935050505060405180910390f35b6000808242811015610d96576040517f08c379a00000000000000000000000000000000000000000000000000000000081526004018080602001828103825260188152602001807f455a4b616c69627572526f757465723a2045585049524544000000000000000081525060200191505060405180910390fd5b610dc5897f00000000000000000000000000000000000000000000000000000000000000008a8a8a308a6121af565b8093508194505050610dd8898685612c9d565b7f000000000000000000000000000000000000000000000000000000000000000073ffffffffffffffffffffffffffffffffffffffff16632e1a7d4d836040518263ffffffff1660e01b815260040180828152602001915050600060405180830381600087803b158015610e4b57600080fd5b505af1158015610e5f573d6000803e3d6000fd5b50505050610e6d8583612e79565b50965096945050505050565b6000806000610ea97f00000000000000000000000000000000000000000000000000000000000000008f8f612fd8565b9050600087610eb8578c610eda565b7fffffffffffffffffffffffffffffffffffffffffffffffffffffffffffffffff5b90508173ffffffffffffffffffffffffffffffffffffffff1663d505accf3330848d8c8c8c6040518863ffffffff1660e01b8152600401808873ffffffffffffffffffffffffffffffffffffffff1673ffffffffffffffffffffffffffffffffffffffff1681526020018773ffffffffffffffffffffffffffffffffffffffff1673ffffffffffffffffffffffffffffffffffffffff1681526020018681526020018581526020018460ff1660ff168152602001838152602001828152602001975050505050505050600060405180830381600087803b158015610fbd57600080fd5b505af1158015610fd1573d6000803e3d6000fd5b50505050610fe48f8f8f8f8f8f8f6121af565b809450819550505050509b509b9950505050505050505050565b8042811015611075576040517f08c379a00000000000000000000000000000000000000000000000000000000081526004018080602001828103825260188152602001807f455a4b616c69627572526f757465723a2045585049524544000000000000000081525060200191505060405180910390fd5b7f000000000000000000000000000000000000000000000000000000000000000073ffffffffffffffffffffffffffffffffffffffff168686600189899050038181106110be57fe5b9050602002013573ffffffffffffffffffffffffffffffffffffffff1673ffffffffffffffffffffffffffffffffffffffff1614611164576040517f08c379a000000000000000000000000000000000000000000000000000000000815260040180806020018281038252601d8152602001807f455a4b616c69627572526f757465723a20494e56414c49445f5041544800000081525060200191505060405180910390fd5b6112158686600081811061117457fe5b9050602002013573ffffffffffffffffffffffffffffffffffffffff163361120f7f00000000000000000000000000000000000000000000000000000000000000008a8a60008181106111c357fe5b9050602002013573ffffffffffffffffffffffffffffffffffffffff168b8b60018181106111ed57fe5b9050602002013573ffffffffffffffffffffffffffffffffffffffff16612fd8565b8b6130e2565b611261868680806020026020016040519081016040528093929190818152602001838360200280828437600081840152601f19601f8201169050808301925050505050505030856132f3565b60007f000000000000000000000000000000000000000000000000000000000000000073ffffffffffffffffffffffffffffffffffffffff166370a08231306040518263ffffffff1660e01b8152600401808273ffffffffffffffffffffffffffffffffffffffff1673ffffffffffffffffffffffffffffffffffffffff16815260200191505060206040518083038186803b15801561130057600080fd5b505afa158015611314573d6000803e3d6000fd5b505050506040513d602081101561132a57600080fd5b8101908080519060200190929190505050905087811015611396576040517f08c379a000000000000000000000000000000000000000000000000000000000815260040180806020018281038252602b8152602001806142f0602b913960400191505060405180910390fd5b7f000000000000000000000000000000000000000000000000000000000000000073ffffffffffffffffffffffffffffffffffffffff16632e1a7d4d826040518263ffffffff1660e01b815260040180828152602001915050600060405180830381600087803b15801561140957600080fd5b505af115801561141d573d6000803e3d6000fd5b5050505061142b8582612e79565b505050505050505050565b6000806114847f00000000000000000000000000000000000000000000000000000000000000008d7f0000000000000000000000000000000000000000000000000000000000000000612fd8565b9050600086611493578b6114b5565b7fffffffffffffffffffffffffffffffffffffffffffffffffffffffffffffffff5b90508173ffffffffffffffffffffffffffffffffffffffff1663d505accf3330848c8b8b8b6040518863ffffffff1660e01b8152600401808873ffffffffffffffffffffffffffffffffffffffff1673ffffffffffffffffffffffffffffffffffffffff1681526020018773ffffffffffffffffffffffffffffffffffffffff1673ffffffffffffffffffffffffffffffffffffffff1681526020018681526020018581526020018460ff1660ff168152602001838152602001828152602001975050505050505050600060405180830381600087803b15801561159857600080fd5b505af11580156115ac573d6000803e3d6000fd5b505050506115be8d8d8d8d8d8d6119c3565b925050509a9950505050505050505050565b8042811015611647576040517f08c379a00000000000000000000000000000000000000000000000000000000081526004018080602001828103825260188152602001807f455a4b616c69627572526f757465723a2045585049524544000000000000000081525060200191505060405180910390fd5b6116f88686600081811061165757fe5b9050602002013573ffffffffffffffffffffffffffffffffffffffff16336116f27f00000000000000000000000000000000000000000000000000000000000000008a8a60008181106116a657fe5b9050602002013573ffffffffffffffffffffffffffffffffffffffff168b8b60018181106116d057fe5b9050602002013573ffffffffffffffffffffffffffffffffffffffff16612fd8565b8b6130e2565b600086866001898990500381811061170c57fe5b9050602002013573ffffffffffffffffffffffffffffffffffffffff1673ffffffffffffffffffffffffffffffffffffffff166370a08231866040518263ffffffff1660e01b8152600401808273ffffffffffffffffffffffffffffffffffffffff1673ffffffffffffffffffffffffffffffffffffffff16815260200191505060206040518083038186803b1580156117a557600080fd5b505afa1580156117b9573d6000803e3d6000fd5b505050506040513d60208110156117cf57600080fd5b8101908080519060200190929190505050905061182e878780806020026020016040519081016040528093929190818152602001838360200280828437600081840152601f19601f8201169050808301925050505050505086866132f3565b8761192782898960018c8c90500381811061184557fe5b9050602002013573ffffffffffffffffffffffffffffffffffffffff1673ffffffffffffffffffffffffffffffffffffffff166370a08231896040518263ffffffff1660e01b8152600401808273ffffffffffffffffffffffffffffffffffffffff1673ffffffffffffffffffffffffffffffffffffffff16815260200191505060206040518083038186803b1580156118de57600080fd5b505afa1580156118f2573d6000803e3d6000fd5b505050506040513d602081101561190857600080fd5b810190808051906020019092919050505061385890919063ffffffff16565b101561197e576040517f08c379a000000000000000000000000000000000000000000000000000000000815260040180806020018281038252602b8152602001806142f0602b913960400191505060405180910390fd5b505050505050505050565b7f000000000000000000000000000000000000000000000000000000000000000081565b60006119ba8484846138db565b90509392505050565b60008142811015611a3c576040517f08c379a00000000000000000000000000000000000000000000000000000000081526004018080602001828103825260188152602001807f455a4b616c69627572526f757465723a2045585049524544000000000000000081525060200191505060405180910390fd5b611a6b887f000000000000000000000000000000000000000000000000000000000000000089898930896121af565b905080925050611b3388858a73ffffffffffffffffffffffffffffffffffffffff166370a08231306040518263ffffffff1660e01b8152600401808273ffffffffffffffffffffffffffffffffffffffff1673ffffffffffffffffffffffffffffffffffffffff16815260200191505060206040518083038186803b158015611af357600080fd5b505afa158015611b07573d6000803e3d6000fd5b505050506040513d6020811015611b1d57600080fd5b8101908080519060200190929190505050612c9d565b7f000000000000000000000000000000000000000000000000000000000000000073ffffffffffffffffffffffffffffffffffffffff16632e1a7d4d836040518263ffffffff1660e01b815260040180828152602001915050600060405180830381600087803b158015611ba657600080fd5b505af1158015611bba573d6000803e3d6000fd5b50505050611bc88483612e79565b509695505050505050565b8042811015611c4a576040517f08c379a00000000000000000000000000000000000000000000000000000000081526004018080602001828103825260188152602001807f455a4b616c69627572526f757465723a2045585049524544000000000000000081525060200191505060405180910390fd5b7f000000000000000000000000000000000000000000000000000000000000000073ffffffffffffffffffffffffffffffffffffffff1686866000818110611c8e57fe5b9050602002013573ffffffffffffffffffffffffffffffffffffffff1673ffffffffffffffffffffffffffffffffffffffff1614611d34576040517f08c379a000000000000000000000000000000000000000000000000000000000815260040180806020018281038252601d8152602001807f455a4b616c69627572526f757465723a20494e56414c49445f5041544800000081525060200191505060405180910390fd5b60003490507f000000000000000000000000000000000000000000000000000000000000000073ffffffffffffffffffffffffffffffffffffffff1663d0e30db0826040518263ffffffff1660e01b81526004016000604051808303818588803b158015611da157600080fd5b505af1158015611db5573d6000803e3d6000fd5b50505050507f000000000000000000000000000000000000000000000000000000000000000073ffffffffffffffffffffffffffffffffffffffff1663a9059cbb611e737f00000000000000000000000000000000000000000000000000000000000000008a8a6000818110611e2757fe5b9050602002013573ffffffffffffffffffffffffffffffffffffffff168b8b6001818110611e5157fe5b9050602002013573ffffffffffffffffffffffffffffffffffffffff16612fd8565b836040518363ffffffff1660e01b8152600401808373ffffffffffffffffffffffffffffffffffffffff1673ffffffffffffffffffffffffffffffffffffffff16815260200182815260200192505050602060405180830381600087803b158015611edd57600080fd5b505af1158015611ef1573d6000803e3d6000fd5b505050506040513d6020811015611f0757600080fd5b8101908080519060200190929190505050611f1e57fe5b6000878760018a8a905003818110611f3257fe5b9050602002013573ffffffffffffffffffffffffffffffffffffffff1673ffffffffffffffffffffffffffffffffffffffff166370a08231876040518263ffffffff1660e01b8152600401808273ffffffffffffffffffffffffffffffffffffffff1673ffffffffffffffffffffffffffffffffffffffff16815260200191505060206040518083038186803b158015611fcb57600080fd5b505afa158015611fdf573d6000803e3d6000fd5b505050506040513d6020811015611ff557600080fd5b81019080805190602001909291905050509050612054888880806020026020016040519081016040528093929190818152602001838360200280828437600081840152601f19601f8201169050808301925050505050505087876132f3565b8861214d828a8a60018d8d90500381811061206b57fe5b9050602002013573ffffffffffffffffffffffffffffffffffffffff1673ffffffffffffffffffffffffffffffffffffffff166370a082318a6040518263ffffffff1660e01b8152600401808273ffffffffffffffffffffffffffffffffffffffff1673ffffffffffffffffffffffffffffffffffffffff16815260200191505060206040518083038186803b15801561210457600080fd5b505afa158015612118573d6000803e3d6000fd5b505050506040513d602081101561212e57600080fd5b810190808051906020019092919050505061385890919063ffffffff16565b10156121a4576040517f08c379a000000000000000000000000000000000000000000000000000000000815260040180806020018281038252602b8152602001806142f0602b913960400191505060405180910390fd5b505050505050505050565b6000808242811015612229576040517f08c379a00000000000000000000000000000000000000000000000000000000081526004018080602001828103825260188152602001807f455a4b616c69627572526f757465723a2045585049524544000000000000000081525060200191505060405180910390fd5b60006122567f00000000000000000000000000000000000000000000000000000000000000008c8c612fd8565b90508073ffffffffffffffffffffffffffffffffffffffff166323b872dd33838c6040518463ffffffff1660e01b8152600401808473ffffffffffffffffffffffffffffffffffffffff1673ffffffffffffffffffffffffffffffffffffffff1681526020018373ffffffffffffffffffffffffffffffffffffffff1673ffffffffffffffffffffffffffffffffffffffff1681526020018281526020019350505050602060405180830381600087803b15801561231357600080fd5b505af1158015612327573d6000803e3d6000fd5b505050506040513d602081101561233d57600080fd5b8101908080519060200190929190505050506000808273ffffffffffffffffffffffffffffffffffffffff166389afcb44896040518263ffffffff1660e01b8152600401808273ffffffffffffffffffffffffffffffffffffffff1673ffffffffffffffffffffffffffffffffffffffff1681526020019150506040805180830381600087803b1580156123d057600080fd5b505af11580156123e4573d6000803e3d6000fd5b505050506040513d60408110156123fa57600080fd5b8101908080519060200190929190805190602001909291905050509150915060006124258e8e6139bf565b5090508073ffffffffffffffffffffffffffffffffffffffff168e73ffffffffffffffffffffffffffffffffffffffff1614612462578183612465565b82825b80975081985050508a8710156124c6576040517f08c379a00000000000000000000000000000000000000000000000000000000081526004018080602001828103825260268152602001806143806026913960400191505060405180910390fd5b8986101561251f576040517f08c379a00000000000000000000000000000000000000000000000000000000081526004018080602001828103825260268152602001806143cb6026913960400191505060405180910390fd5b505050505097509795505050505050565b7f000000000000000000000000000000000000000000000000000000000000000081565b60606125c27f000000000000000000000000000000000000000000000000000000000000000085858580806020026020016040519081016040528093929190818152602001838360200280828437600081840152601f19601f82011690508083019250505050505050613b36565b90509392505050565b600080600061261b7f00000000000000000000000000000000000000000000000000000000000000008e7f0000000000000000000000000000000000000000000000000000000000000000612fd8565b905060008761262a578c61264c565b7fffffffffffffffffffffffffffffffffffffffffffffffffffffffffffffffff5b90508173ffffffffffffffffffffffffffffffffffffffff1663d505accf3330848d8c8c8c6040518863ffffffff1660e01b8152600401808873ffffffffffffffffffffffffffffffffffffffff1673ffffffffffffffffffffffffffffffffffffffff1681526020018773ffffffffffffffffffffffffffffffffffffffff1673ffffffffffffffffffffffffffffffffffffffff1681526020018681526020018581526020018460ff1660ff168152602001838152602001828152602001975050505050505050600060405180830381600087803b15801561272f57600080fd5b505af1158015612743573d6000803e3d6000fd5b505050506127558e8e8e8e8e8e610d1c565b809450819550505050509a509a98505050505050505050565b600061279b7f00000000000000000000000000000000000000000000000000000000000000008484612fd8565b905092915050565b6000806000834281101561281f576040517f08c379a00000000000000000000000000000000000000000000000000000000081526004018080602001828103825260188152602001807f455a4b616c69627572526f757465723a2045585049524544000000000000000081525060200191505060405180910390fd5b61282d8c8c8c8c8c8c613d72565b809450819550505060006128627f00000000000000000000000000000000000000000000000000000000000000008e8e612fd8565b90506128708d3383886130e2565b61287c8c3383876130e2565b8073ffffffffffffffffffffffffffffffffffffffff16636a627842886040518263ffffffff1660e01b8152600401808273ffffffffffffffffffffffffffffffffffffffff1673ffffffffffffffffffffffffffffffffffffffff168152602001915050602060405180830381600087803b1580156128fb57600080fd5b505af115801561290f573d6000803e3d6000fd5b505050506040513d602081101561292557600080fd5b810190808051906020019092919050505092505050985098509895505050505050565b600080600083428110156129c4576040517f08c379a00000000000000000000000000000000000000000000000000000000081526004018080602001828103825260188152602001807f455a4b616c69627572526f757465723a2045585049524544000000000000000081525060200191505060405180910390fd5b6129f28a7f00000000000000000000000000000000000000000000000000000000000000008b348c8c613d72565b80945081955050506000612a477f00000000000000000000000000000000000000000000000000000000000000008c7f0000000000000000000000000000000000000000000000000000000000000000612fd8565b9050612a558b3383886130e2565b7f000000000000000000000000000000000000000000000000000000000000000073ffffffffffffffffffffffffffffffffffffffff1663d0e30db0856040518263ffffffff1660e01b81526004016000604051808303818588803b158015612abd57600080fd5b505af1158015612ad1573d6000803e3d6000fd5b50505050507f000000000000000000000000000000000000000000000000000000000000000073ffffffffffffffffffffffffffffffffffffffff1663a9059cbb82866040518363ffffffff1660e01b8152600401808373ffffffffffffffffffffffffffffffffffffffff1673ffffffffffffffffffffffffffffffffffffffff16815260200182815260200192505050602060405180830381600087803b158015612b7d57600080fd5b505af1158015612b91573d6000803e3d6000fd5b505050506040513d6020811015612ba757600080fd5b8101908080519060200190929190505050612bbe57fe5b8073ffffffffffffffffffffffffffffffffffffffff16636a627842886040518263ffffffff1660e01b8152600401808273ffffffffffffffffffffffffffffffffffffffff1673ffffffffffffffffffffffffffffffffffffffff168152602001915050602060405180830381600087803b158015612c3d57600080fd5b505af1158015612c51573d6000803e3d6000fd5b505050506040513d6020811015612c6757600080fd5b8101908080519060200190929190505050925083341115612c8f57612c8e33853403612e79565b5b505096509650969350505050565b600060608473ffffffffffffffffffffffffffffffffffffffff1663a9059cbb8585604051602401808373ffffffffffffffffffffffffffffffffffffffff1673ffffffffffffffffffffffffffffffffffffffff168152602001828152602001925050506040516020818303038152906040529060e01b6020820180517bffffffffffffffffffffffffffffffffffffffffffffffffffffffff83818316178352505050506040518082805190602001908083835b60208310612d765780518252602082019150602081019050602083039250612d53565b6001836020036101000a0380198251168184511680821785525050505050509050019150506000604051808303816000865af19150503d8060008114612dd8576040519150601f19603f3d011682016040523d82523d6000602084013e612ddd565b606091505b5091509150818015612e1d5750600081511480612e1c5750808060200190516020811015612e0a57600080fd5b81019080805190602001909291905050505b5b612e72576040517f08c379a000000000000000000000000000000000000000000000000000000000815260040180806020018281038252602d81526020018061443e602d913960400191505060405180910390fd5b5050505050565b60008273ffffffffffffffffffffffffffffffffffffffff1682600067ffffffffffffffff81118015612eab57600080fd5b506040519080825280601f01601f191660200182016040528015612ede5781602001600182028036833780820191505090505b506040518082805190602001908083835b60208310612f125780518252602082019150602081019050602083039250612eef565b6001836020036101000a03801982511681845116808217855250505050505090500191505060006040518083038185875af1925050503d8060008114612f74576040519150601f19603f3d011682016040523d82523d6000602084013e612f79565b606091505b5050905080612fd3576040517f08c379a000000000000000000000000000000000000000000000000000000000815260040180806020018281038252603481526020018061434c6034913960400191505060405180910390fd5b505050565b6000806000612fe785856139bf565b915091508573ffffffffffffffffffffffffffffffffffffffff1663e6a4390583836040518363ffffffff1660e01b8152600401808373ffffffffffffffffffffffffffffffffffffffff1673ffffffffffffffffffffffffffffffffffffffff1681526020018273ffffffffffffffffffffffffffffffffffffffff1673ffffffffffffffffffffffffffffffffffffffff1681526020019250505060206040518083038186803b15801561309c57600080fd5b505afa1580156130b0573d6000803e3d6000fd5b505050506040513d60208110156130c657600080fd5b8101908080519060200190929190505050925050509392505050565b600060608573ffffffffffffffffffffffffffffffffffffffff166323b872dd868686604051602401808473ffffffffffffffffffffffffffffffffffffffff1673ffffffffffffffffffffffffffffffffffffffff1681526020018373ffffffffffffffffffffffffffffffffffffffff1673ffffffffffffffffffffffffffffffffffffffff16815260200182815260200193505050506040516020818303038152906040529060e01b6020820180517bffffffffffffffffffffffffffffffffffffffffffffffffffffffff83818316178352505050506040518082805190602001908083835b602083106131ef57805182526020820191506020810190506020830392506131cc565b6001836020036101000a0380198251168184511680821785525050505050509050019150506000604051808303816000865af19150503d8060008114613251576040519150601f19603f3d011682016040523d82523d6000602084013e613256565b606091505b50915091508180156132965750600081511480613295575080806020019051602081101561328357600080fd5b81019080805190602001909291905050505b5b6132eb576040517f08c379a000000000000000000000000000000000000000000000000000000000815260040180806020018281038252603181526020018061431b6031913960400191505060405180910390fd5b505050505050565b60005b60018451038110156138525760008085838151811061331157fe5b602002602001015186600185018151811061332857fe5b602002602001015191509150600061334083836139bf565b50905060006133707f00000000000000000000000000000000000000000000000000000000000000008585612fd8565b905060008060008373ffffffffffffffffffffffffffffffffffffffff16630902f1ac6040518163ffffffff1660e01b815260040160806040518083038186803b1580156133bd57600080fd5b505afa1580156133d1573d6000803e3d6000fd5b505050506040513d60808110156133e757600080fd5b810190808051906020019092919080519060200190929190805190602001909291908051906020019092919050505050506dffffffffffffffffffffffffffff1691506dffffffffffffffffffffffffffff1691508473ffffffffffffffffffffffffffffffffffffffff168773ffffffffffffffffffffffffffffffffffffffff161461347a57808280925081935050505b6000613546838973ffffffffffffffffffffffffffffffffffffffff166370a08231886040518263ffffffff1660e01b8152600401808273ffffffffffffffffffffffffffffffffffffffff1673ffffffffffffffffffffffffffffffffffffffff16815260200191505060206040518083038186803b1580156134fd57600080fd5b505afa158015613511573d6000803e3d6000fd5b505050506040513d602081101561352757600080fd5b810190808051906020019092919050505061385890919063ffffffff16565b90508473ffffffffffffffffffffffffffffffffffffffff1663f140a35a828a6040518363ffffffff1660e01b8152600401808381526020018273ffffffffffffffffffffffffffffffffffffffff1673ffffffffffffffffffffffffffffffffffffffff1681526020019250505060206040518083038186803b1580156135cd57600080fd5b505afa1580156135e1573d6000803e3d6000fd5b505050506040513d60208110156135f757600080fd5b810190808051906020019092919050505093505050506000808473ffffffffffffffffffffffffffffffffffffffff168773ffffffffffffffffffffffffffffffffffffffff161461364b5782600061364f565b6000835b91509150600060028c51038910613666578a6136a8565b6136a77f0000000000000000000000000000000000000000000000000000000000000000888e60028d018151811061369a57fe5b6020026020010151612fd8565b5b90508473ffffffffffffffffffffffffffffffffffffffff16636e1fdd7f848484600067ffffffffffffffff811180156136e157600080fd5b506040519080825280601f01601f1916602001820160405280156137145781602001600182028036833780820191505090505b508f6040518663ffffffff1660e01b8152600401808681526020018581526020018473ffffffffffffffffffffffffffffffffffffffff1673ffffffffffffffffffffffffffffffffffffffff168152602001806020018373ffffffffffffffffffffffffffffffffffffffff1673ffffffffffffffffffffffffffffffffffffffff168152602001828103825284818151815260200191508051906020019080838360005b838110156137d55780820151818401526020810190506137ba565b50505050905090810190601f1680156138025780820380516001836020036101000a031916815260200191505b509650505050505050600060405180830381600087803b15801561382557600080fd5b505af1158015613839573d6000803e3d6000fd5b50505050505050505050505080806001019150506132f6565b50505050565b60008282840391508111156138d5576040517f08c379a00000000000000000000000000000000000000000000000000000000081526004018080602001828103825260158152602001807f64732d6d6174682d7375622d756e646572666c6f77000000000000000000000081525060200191505060405180910390fd5b92915050565b6000808411613935576040517f08c379a00000000000000000000000000000000000000000000000000000000081526004018080602001828103825260258152602001806144196025913960400191505060405180910390fd5b6000831180156139455750600082115b61399a576040517f08c379a00000000000000000000000000000000000000000000000000000000081526004018080602001828103825260288152602001806143f16028913960400191505060405180910390fd5b826139ae838661412690919063ffffffff16565b816139b557fe5b0490509392505050565b6000808273ffffffffffffffffffffffffffffffffffffffff168473ffffffffffffffffffffffffffffffffffffffff161415613a47576040517f08c379a00000000000000000000000000000000000000000000000000000000081526004018080602001828103825260258152602001806143a66025913960400191505060405180910390fd5b8273ffffffffffffffffffffffffffffffffffffffff168473ffffffffffffffffffffffffffffffffffffffff1610613a81578284613a84565b83835b8092508193505050600073ffffffffffffffffffffffffffffffffffffffff168273ffffffffffffffffffffffffffffffffffffffff161415613b2f576040517f08c379a000000000000000000000000000000000000000000000000000000000815260040180806020018281038252601e8152602001807f556e697377617056324c6962726172793a205a45524f5f41444452455353000081525060200191505060405180910390fd5b9250929050565b6060600282511015613bb0576040517f08c379a000000000000000000000000000000000000000000000000000000000815260040180806020018281038252601e8152602001807f556e697377617056324c6962726172793a20494e56414c49445f50415448000081525060200191505060405180910390fd5b815167ffffffffffffffff81118015613bc857600080fd5b50604051908082528060200260200182016040528015613bf75781602001602082028036833780820191505090505b5090508281600081518110613c0857fe5b60200260200101818152505060005b6001835103811015613d6a576000613c5986858481518110613c3557fe5b6020026020010151866001860181518110613c4c57fe5b6020026020010151612fd8565b90508073ffffffffffffffffffffffffffffffffffffffff1663f140a35a848481518110613c8357fe5b6020026020010151868581518110613c9757fe5b60200260200101516040518363ffffffff1660e01b8152600401808381526020018273ffffffffffffffffffffffffffffffffffffffff1673ffffffffffffffffffffffffffffffffffffffff1681526020019250505060206040518083038186803b158015613d0657600080fd5b505afa158015613d1a573d6000803e3d6000fd5b505050506040513d6020811015613d3057600080fd5b8101908080519060200190929190505050836001840181518110613d5057fe5b602002602001018181525050508080600101915050613c17565b509392505050565b600080600073ffffffffffffffffffffffffffffffffffffffff167f000000000000000000000000000000000000000000000000000000000000000073ffffffffffffffffffffffffffffffffffffffff1663e6a439058a8a6040518363ffffffff1660e01b8152600401808373ffffffffffffffffffffffffffffffffffffffff1673ffffffffffffffffffffffffffffffffffffffff1681526020018273ffffffffffffffffffffffffffffffffffffffff1673ffffffffffffffffffffffffffffffffffffffff1681526020019250505060206040518083038186803b158015613e5e57600080fd5b505afa158015613e72573d6000803e3d6000fd5b505050506040513d6020811015613e8857600080fd5b810190808051906020019092919050505073ffffffffffffffffffffffffffffffffffffffff161415613fc5577f000000000000000000000000000000000000000000000000000000000000000073ffffffffffffffffffffffffffffffffffffffff1663c9c6539689896040518363ffffffff1660e01b8152600401808373ffffffffffffffffffffffffffffffffffffffff1673ffffffffffffffffffffffffffffffffffffffff1681526020018273ffffffffffffffffffffffffffffffffffffffff1673ffffffffffffffffffffffffffffffffffffffff16815260200192505050602060405180830381600087803b158015613f8857600080fd5b505af1158015613f9c573d6000803e3d6000fd5b505050506040513d6020811015613fb257600080fd5b8101908080519060200190929190505050505b600080613ff37f00000000000000000000000000000000000000000000000000000000000000008b8b6141bb565b915091506000821480156140075750600081145b1561401b5787878094508195505050614119565b60006140288984846138db565b9050878111614099578581101561408a576040517f08c379a00000000000000000000000000000000000000000000000000000000081526004018080602001828103825260268152602001806143cb6026913960400191505060405180910390fd5b88818095508196505050614117565b60006140a68984866138db565b9050898111156140b257fe5b8781101561410b576040517f08c379a00000000000000000000000000000000000000000000000000000000081526004018080602001828103825260268152602001806143806026913960400191505060405180910390fd5b80898096508197505050505b505b5050965096945050505050565b600080821480614143575082828385029250828161414057fe5b04145b6141b5576040517f08c379a00000000000000000000000000000000000000000000000000000000081526004018080602001828103825260148152602001807f64732d6d6174682d6d756c2d6f766572666c6f7700000000000000000000000081525060200191505060405180910390fd5b92915050565b60008060006141ca85856139bf565b5090506000806141db888888612fd8565b73ffffffffffffffffffffffffffffffffffffffff16630902f1ac6040518163ffffffff1660e01b815260040160806040518083038186803b15801561422057600080fd5b505afa158015614234573d6000803e3d6000fd5b505050506040513d608081101561424a57600080fd5b810190808051906020019092919080519060200190929190805190602001909291908051906020019092919050505050506dffffffffffffffffffffffffffff1691506dffffffffffffffffffffffffffff1691508273ffffffffffffffffffffffffffffffffffffffff168773ffffffffffffffffffffffffffffffffffffffff16146142d95780826142dc565b81815b809550819650505050505093509391505056fe455a4b616c69627572526f757465723a20494e53554646494349454e545f4f55545055545f414d4f554e545472616e7366657248656c7065723a3a7472616e7366657246726f6d3a207472616e7366657246726f6d206661696c65645472616e7366657248656c7065723a3a736166655472616e736665724554483a20455448207472616e73666572206661696c6564455a4b616c69627572526f757465723a20494e53554646494349454e545f415f414d4f554e54556e697377617056324c6962726172793a204944454e544943414c5f414444524553534553455a4b616c69627572526f757465723a20494e53554646494349454e545f425f414d4f554e54556e697377617056324c6962726172793a20494e53554646494349454e545f4c4951554944495459556e697377617056324c6962726172793a20494e53554646494349454e545f414d4f554e545472616e7366657248656c7065723a3a736166655472616e736665723a207472616e73666572206661696c6564a26469706673582212203c2c2d38c81d4dbd340bf1362cbd0790cf32b8129e28d17271cce0eaffeab87864736f6c63430006060033",
					"opcodes": "PUSH1 0xC0 PUSH1 0x40 MSTORE CALLVALUE DUP1 ISZERO PUSH2 0x10 JUMPI PUSH1 0x0 DUP1 REVERT JUMPDEST POP PUSH1 0x40 MLOAD PUSH3 0x462E CODESIZE SUB DUP1 PUSH3 0x462E DUP4 CODECOPY DUP2 DUP2 ADD PUSH1 0x40 MSTORE PUSH1 0x40 DUP2 LT ISZERO PUSH2 0x35 JUMPI PUSH1 0x0 DUP1 REVERT JUMPDEST DUP2 ADD SWAP1 DUP1 DUP1 MLOAD SWAP1 PUSH1 0x20 ADD SWAP1 SWAP3 SWAP2 SWAP1 DUP1 MLOAD SWAP1 PUSH1 0x20 ADD SWAP1 SWAP3 SWAP2 SWAP1 POP POP POP DUP2 PUSH20 0xFFFFFFFFFFFFFFFFFFFFFFFFFFFFFFFFFFFFFFFF AND PUSH1 0x80 DUP2 PUSH20 0xFFFFFFFFFFFFFFFFFFFFFFFFFFFFFFFFFFFFFFFF AND PUSH1 0x60 SHL DUP2 MSTORE POP POP DUP1 PUSH20 0xFFFFFFFFFFFFFFFFFFFFFFFFFFFFFFFFFFFFFFFF AND PUSH1 0xA0 DUP2 PUSH20 0xFFFFFFFFFFFFFFFFFFFFFFFFFFFFFFFFFFFFFFFF AND PUSH1 0x60 SHL DUP2 MSTORE POP POP POP POP PUSH1 0x80 MLOAD PUSH1 0x60 SHR PUSH1 0xA0 MLOAD PUSH1 0x60 SHR PUSH2 0x44A0 PUSH3 0x18E PUSH1 0x0 CODECOPY DUP1 PUSH1 0xFE MSTORE DUP1 PUSH2 0xD9C MSTORE DUP1 PUSH2 0xDDA MSTORE DUP1 PUSH2 0x1077 MSTORE DUP1 PUSH2 0x1265 MSTORE DUP1 PUSH2 0x1398 MSTORE DUP1 PUSH2 0x1460 MSTORE DUP1 PUSH2 0x198B MSTORE DUP1 PUSH2 0x1A42 MSTORE DUP1 PUSH2 0x1B35 MSTORE DUP1 PUSH2 0x1C4C MSTORE DUP1 PUSH2 0x1D3B MSTORE DUP1 PUSH2 0x1DBC MSTORE DUP1 PUSH2 0x25F7 MSTORE DUP1 PUSH2 0x29CA MSTORE DUP1 PUSH2 0x2A23 MSTORE DUP1 PUSH2 0x2A57 MSTORE DUP1 PUSH2 0x2AD8 MSTORE POP DUP1 PUSH2 0xE83 MSTORE DUP1 PUSH2 0x1197 MSTORE DUP1 PUSH2 0x143E MSTORE DUP1 PUSH2 0x167A MSTORE DUP1 PUSH2 0x1DFB MSTORE DUP1 PUSH2 0x2230 MSTORE DUP1 PUSH2 0x2532 MSTORE DUP1 PUSH2 0x255B MSTORE DUP1 PUSH2 0x25D5 MSTORE DUP1 PUSH2 0x2775 MSTORE DUP1 PUSH2 0x283C MSTORE DUP1 PUSH2 0x2A01 MSTORE DUP1 PUSH2 0x334A MSTORE DUP1 PUSH2 0x366B MSTORE DUP1 PUSH2 0x3D8F MSTORE DUP1 PUSH2 0x3EB7 MSTORE DUP1 PUSH2 0x3FCD MSTORE POP PUSH2 0x44A0 PUSH1 0x0 RETURN INVALID PUSH1 0x80 PUSH1 0x40 MSTORE PUSH1 0x4 CALLDATASIZE LT PUSH2 0xF7 JUMPI PUSH1 0x0 CALLDATALOAD PUSH1 0xE0 SHR DUP1 PUSH4 0xB4822BE3 GT PUSH2 0x8A JUMPI DUP1 PUSH4 0xDED9382A GT PUSH2 0x59 JUMPI DUP1 PUSH4 0xDED9382A EQ PUSH2 0x9F5 JUMPI DUP1 PUSH4 0xE6A43905 EQ PUSH2 0xAD7 JUMPI DUP1 PUSH4 0xE8E33700 EQ PUSH2 0xB88 JUMPI DUP1 PUSH4 0xF305D719 EQ PUSH2 0xC6E JUMPI PUSH2 0x153 JUMP JUMPDEST DUP1 PUSH4 0xB4822BE3 EQ PUSH2 0x718 JUMPI DUP1 PUSH4 0xBAA2ABDE EQ PUSH2 0x7E5 JUMPI DUP1 PUSH4 0xC45A0155 EQ PUSH2 0x8B9 JUMPI DUP1 PUSH4 0xD06CA61F EQ PUSH2 0x910 JUMPI PUSH2 0x153 JUMP JUMPDEST DUP1 PUSH4 0xAC3893BA GT PUSH2 0xC6 JUMPI DUP1 PUSH4 0xAC3893BA EQ PUSH2 0x4CD JUMPI DUP1 PUSH4 0xAD5C4648 EQ PUSH2 0x5B1 JUMPI DUP1 PUSH4 0xAD615DEC EQ PUSH2 0x608 JUMPI DUP1 PUSH4 0xAF2979EB EQ PUSH2 0x66B JUMPI PUSH2 0x153 JUMP JUMPDEST DUP1 PUSH4 0x2751CEC EQ PUSH2 0x158 JUMPI DUP1 PUSH4 0x2195995C EQ PUSH2 0x20C JUMPI DUP1 PUSH4 0x52AA4C22 EQ PUSH2 0x30E JUMPI DUP1 PUSH4 0x5B0D5984 EQ PUSH2 0x3F2 JUMPI PUSH2 0x153 JUMP JUMPDEST CALLDATASIZE PUSH2 0x153 JUMPI PUSH32 0x0 PUSH20 0xFFFFFFFFFFFFFFFFFFFFFFFFFFFFFFFFFFFFFFFF AND CALLER PUSH20 0xFFFFFFFFFFFFFFFFFFFFFFFFFFFFFFFFFFFFFFFF AND EQ PUSH2 0x151 JUMPI INVALID JUMPDEST STOP JUMPDEST PUSH1 0x0 DUP1 REVERT JUMPDEST CALLVALUE DUP1 ISZERO PUSH2 0x164 JUMPI PUSH1 0x0 DUP1 REVERT JUMPDEST POP PUSH2 0x1EF PUSH1 0x4 DUP1 CALLDATASIZE SUB PUSH1 0xC0 DUP2 LT ISZERO PUSH2 0x17B JUMPI PUSH1 0x0 DUP1 REVERT JUMPDEST DUP2 ADD SWAP1 DUP1 DUP1 CALLDATALOAD PUSH20 0xFFFFFFFFFFFFFFFFFFFFFFFFFFFFFFFFFFFFFFFF AND SWAP1 PUSH1 0x20 ADD SWAP1 SWAP3 SWAP2 SWAP1 DUP1 CALLDATALOAD SWAP1 PUSH1 0x20 ADD SWAP1 SWAP3 SWAP2 SWAP1 DUP1 CALLDATALOAD SWAP1 PUSH1 0x20 ADD SWAP1 SWAP3 SWAP2 SWAP1 DUP1 CALLDATALOAD SWAP1 PUSH1 0x20 ADD SWAP1 SWAP3 SWAP2 SWAP1 DUP1 CALLDATALOAD PUSH20 0xFFFFFFFFFFFFFFFFFFFFFFFFFFFFFFFFFFFFFFFF AND SWAP1 PUSH1 0x20 ADD SWAP1 SWAP3 SWAP2 SWAP1 DUP1 CALLDATALOAD SWAP1 PUSH1 0x20 ADD SWAP1 SWAP3 SWAP2 SWAP1 POP POP POP PUSH2 0xD1C JUMP JUMPDEST PUSH1 0x40 MLOAD DUP1 DUP4 DUP2 MSTORE PUSH1 0x20 ADD DUP3 DUP2 MSTORE PUSH1 0x20 ADD SWAP3 POP POP POP PUSH1 0x40 MLOAD DUP1 SWAP2 SUB SWAP1 RETURN JUMPDEST CALLVALUE DUP1 ISZERO PUSH2 0x218 JUMPI PUSH1 0x0 DUP1 REVERT JUMPDEST POP PUSH2 0x2F1 PUSH1 0x4 DUP1 CALLDATASIZE SUB PUSH2 0x160 DUP2 LT ISZERO PUSH2 0x230 JUMPI PUSH1 0x0 DUP1 REVERT JUMPDEST DUP2 ADD SWAP1 DUP1 DUP1 CALLDATALOAD PUSH20 0xFFFFFFFFFFFFFFFFFFFFFFFFFFFFFFFFFFFFFFFF AND SWAP1 PUSH1 0x20 ADD SWAP1 SWAP3 SWAP2 SWAP1 DUP1 CALLDATALOAD PUSH20 0xFFFFFFFFFFFFFFFFFFFFFFFFFFFFFFFFFFFFFFFF AND SWAP1 PUSH1 0x20 ADD SWAP1 SWAP3 SWAP2 SWAP1 DUP1 CALLDATALOAD SWAP1 PUSH1 0x20 ADD SWAP1 SWAP3 SWAP2 SWAP1 DUP1 CALLDATALOAD SWAP1 PUSH1 0x20 ADD SWAP1 SWAP3 SWAP2 SWAP1 DUP1 CALLDATALOAD SWAP1 PUSH1 0x20 ADD SWAP1 SWAP3 SWAP2 SWAP1 DUP1 CALLDATALOAD PUSH20 0xFFFFFFFFFFFFFFFFFFFFFFFFFFFFFFFFFFFFFFFF AND SWAP1 PUSH1 0x20 ADD SWAP1 SWAP3 SWAP2 SWAP1 DUP1 CALLDATALOAD SWAP1 PUSH1 0x20 ADD SWAP1 SWAP3 SWAP2 SWAP1 DUP1 CALLDATALOAD ISZERO ISZERO SWAP1 PUSH1 0x20 ADD SWAP1 SWAP3 SWAP2 SWAP1 DUP1 CALLDATALOAD PUSH1 0xFF AND SWAP1 PUSH1 0x20 ADD SWAP1 SWAP3 SWAP2 SWAP1 DUP1 CALLDATALOAD SWAP1 PUSH1 0x20 ADD SWAP1 SWAP3 SWAP2 SWAP1 DUP1 CALLDATALOAD SWAP1 PUSH1 0x20 ADD SWAP1 SWAP3 SWAP2 SWAP1 POP POP POP PUSH2 0xE79 JUMP JUMPDEST PUSH1 0x40 MLOAD DUP1 DUP4 DUP2 MSTORE PUSH1 0x20 ADD DUP3 DUP2 MSTORE PUSH1 0x20 ADD SWAP3 POP POP POP PUSH1 0x40 MLOAD DUP1 SWAP2 SUB SWAP1 RETURN JUMPDEST CALLVALUE DUP1 ISZERO PUSH2 0x31A JUMPI PUSH1 0x0 DUP1 REVERT JUMPDEST POP PUSH2 0x3F0 PUSH1 0x4 DUP1 CALLDATASIZE SUB PUSH1 0xC0 DUP2 LT ISZERO PUSH2 0x331 JUMPI PUSH1 0x0 DUP1 REVERT JUMPDEST DUP2 ADD SWAP1 DUP1 DUP1 CALLDATALOAD SWAP1 PUSH1 0x20 ADD SWAP1 SWAP3 SWAP2 SWAP1 DUP1 CALLDATALOAD SWAP1 PUSH1 0x20 ADD SWAP1 SWAP3 SWAP2 SWAP1 DUP1 CALLDATALOAD SWAP1 PUSH1 0x20 ADD SWAP1 PUSH5 0x100000000 DUP2 GT ISZERO PUSH2 0x362 JUMPI PUSH1 0x0 DUP1 REVERT JUMPDEST DUP3 ADD DUP4 PUSH1 0x20 DUP3 ADD GT ISZERO PUSH2 0x374 JUMPI PUSH1 0x0 DUP1 REVERT JUMPDEST DUP1 CALLDATALOAD SWAP1 PUSH1 0x20 ADD SWAP2 DUP5 PUSH1 0x20 DUP4 MUL DUP5 ADD GT PUSH5 0x100000000 DUP4 GT OR ISZERO PUSH2 0x396 JUMPI PUSH1 0x0 DUP1 REVERT JUMPDEST SWAP1 SWAP2 SWAP3 SWAP4 SWAP2 SWAP3 SWAP4 SWAP1 DUP1 CALLDATALOAD PUSH20 0xFFFFFFFFFFFFFFFFFFFFFFFFFFFFFFFFFFFFFFFF AND SWAP1 PUSH1 0x20 ADD SWAP1 SWAP3 SWAP2 SWAP1 DUP1 CALLDATALOAD PUSH20 0xFFFFFFFFFFFFFFFFFFFFFFFFFFFFFFFFFFFFFFFF AND SWAP1 PUSH1 0x20 ADD SWAP1 SWAP3 SWAP2 SWAP1 DUP1 CALLDATALOAD SWAP1 PUSH1 0x20 ADD SWAP1 SWAP3 SWAP2 SWAP1 POP POP POP PUSH2 0xFFE JUMP JUMPDEST STOP JUMPDEST CALLVALUE DUP1 ISZERO PUSH2 0x3FE JUMPI PUSH1 0x0 DUP1 REVERT JUMPDEST POP PUSH2 0x4B7 PUSH1 0x4 DUP1 CALLDATASIZE SUB PUSH2 0x140 DUP2 LT ISZERO PUSH2 0x416 JUMPI PUSH1 0x0 DUP1 REVERT JUMPDEST DUP2 ADD SWAP1 DUP1 DUP1 CALLDATALOAD PUSH20 0xFFFFFFFFFFFFFFFFFFFFFFFFFFFFFFFFFFFFFFFF AND SWAP1 PUSH1 0x20 ADD SWAP1 SWAP3 SWAP2 SWAP1 DUP1 CALLDATALOAD SWAP1 PUSH1 0x20 ADD SWAP1 SWAP3 SWAP2 SWAP1 DUP1 CALLDATALOAD SWAP1 PUSH1 0x20 ADD SWAP1 SWAP3 SWAP2 SWAP1 DUP1 CALLDATALOAD SWAP1 PUSH1 0x20 ADD SWAP1 SWAP3 SWAP2 SWAP1 DUP1 CALLDATALOAD PUSH20 0xFFFFFFFFFFFFFFFFFFFFFFFFFFFFFFFFFFFFFFFF AND SWAP1 PUSH1 0x20 ADD SWAP1 SWAP3 SWAP2 SWAP1 DUP1 CALLDATALOAD SWAP1 PUSH1 0x20 ADD SWAP1 SWAP3 SWAP2 SWAP1 DUP1 CALLDATALOAD ISZERO ISZERO SWAP1 PUSH1 0x20 ADD SWAP1 SWAP3 SWAP2 SWAP1 DUP1 CALLDATALOAD PUSH1 0xFF AND SWAP1 PUSH1 0x20 ADD SWAP1 SWAP3 SWAP2 SWAP1 DUP1 CALLDATALOAD SWAP1 PUSH1 0x20 ADD SWAP1 SWAP3 SWAP2 SWAP1 DUP1 CALLDATALOAD SWAP1 PUSH1 0x20 ADD SWAP1 SWAP3 SWAP2 SWAP1 POP POP POP PUSH2 0x1436 JUMP JUMPDEST PUSH1 0x40 MLOAD DUP1 DUP3 DUP2 MSTORE PUSH1 0x20 ADD SWAP2 POP POP PUSH1 0x40 MLOAD DUP1 SWAP2 SUB SWAP1 RETURN JUMPDEST CALLVALUE DUP1 ISZERO PUSH2 0x4D9 JUMPI PUSH1 0x0 DUP1 REVERT JUMPDEST POP PUSH2 0x5AF PUSH1 0x4 DUP1 CALLDATASIZE SUB PUSH1 0xC0 DUP2 LT ISZERO PUSH2 0x4F0 JUMPI PUSH1 0x0 DUP1 REVERT JUMPDEST DUP2 ADD SWAP1 DUP1 DUP1 CALLDATALOAD SWAP1 PUSH1 0x20 ADD SWAP1 SWAP3 SWAP2 SWAP1 DUP1 CALLDATALOAD SWAP1 PUSH1 0x20 ADD SWAP1 SWAP3 SWAP2 SWAP1 DUP1 CALLDATALOAD SWAP1 PUSH1 0x20 ADD SWAP1 PUSH5 0x100000000 DUP2 GT ISZERO PUSH2 0x521 JUMPI PUSH1 0x0 DUP1 REVERT JUMPDEST DUP3 ADD DUP4 PUSH1 0x20 DUP3 ADD GT ISZERO PUSH2 0x533 JUMPI PUSH1 0x0 DUP1 REVERT JUMPDEST DUP1 CALLDATALOAD SWAP1 PUSH1 0x20 ADD SWAP2 DUP5 PUSH1 0x20 DUP4 MUL DUP5 ADD GT PUSH5 0x100000000 DUP4 GT OR ISZERO PUSH2 0x555 JUMPI PUSH1 0x0 DUP1 REVERT JUMPDEST SWAP1 SWAP2 SWAP3 SWAP4 SWAP2 SWAP3 SWAP4 SWAP1 DUP1 CALLDATALOAD PUSH20 0xFFFFFFFFFFFFFFFFFFFFFFFFFFFFFFFFFFFFFFFF AND SWAP1 PUSH1 0x20 ADD SWAP1 SWAP3 SWAP2 SWAP1 DUP1 CALLDATALOAD PUSH20 0xFFFFFFFFFFFFFFFFFFFFFFFFFFFFFFFFFFFFFFFF AND SWAP1 PUSH1 0x20 ADD SWAP1 SWAP3 SWAP2 SWAP1 DUP1 CALLDATALOAD SWAP1 PUSH1 0x20 ADD SWAP1 SWAP3 SWAP2 SWAP1 POP POP POP PUSH2 0x15D0 JUMP JUMPDEST STOP JUMPDEST CALLVALUE DUP1 ISZERO PUSH2 0x5BD JUMPI PUSH1 0x0 DUP1 REVERT JUMPDEST POP PUSH2 0x5C6 PUSH2 0x1989 JUMP JUMPDEST PUSH1 0x40 MLOAD DUP1 DUP3 PUSH20 0xFFFFFFFFFFFFFFFFFFFFFFFFFFFFFFFFFFFFFFFF AND PUSH20 0xFFFFFFFFFFFFFFFFFFFFFFFFFFFFFFFFFFFFFFFF AND DUP2 MSTORE PUSH1 0x20 ADD SWAP2 POP POP PUSH1 0x40 MLOAD DUP1 SWAP2 SUB SWAP1 RETURN JUMPDEST CALLVALUE DUP1 ISZERO PUSH2 0x614 JUMPI PUSH1 0x0 DUP1 REVERT JUMPDEST POP PUSH2 0x655 PUSH1 0x4 DUP1 CALLDATASIZE SUB PUSH1 0x60 DUP2 LT ISZERO PUSH2 0x62B JUMPI PUSH1 0x0 DUP1 REVERT JUMPDEST DUP2 ADD SWAP1 DUP1 DUP1 CALLDATALOAD SWAP1 PUSH1 0x20 ADD SWAP1 SWAP3 SWAP2 SWAP1 DUP1 CALLDATALOAD SWAP1 PUSH1 0x20 ADD SWAP1 SWAP3 SWAP2 SWAP1 DUP1 CALLDATALOAD SWAP1 PUSH1 0x20 ADD SWAP1 SWAP3 SWAP2 SWAP1 POP POP POP PUSH2 0x19AD JUMP JUMPDEST PUSH1 0x40 MLOAD DUP1 DUP3 DUP2 MSTORE PUSH1 0x20 ADD SWAP2 POP POP PUSH1 0x40 MLOAD DUP1 SWAP2 SUB SWAP1 RETURN JUMPDEST CALLVALUE DUP1 ISZERO PUSH2 0x677 JUMPI PUSH1 0x0 DUP1 REVERT JUMPDEST POP PUSH2 0x702 PUSH1 0x4 DUP1 CALLDATASIZE SUB PUSH1 0xC0 DUP2 LT ISZERO PUSH2 0x68E JUMPI PUSH1 0x0 DUP1 REVERT JUMPDEST DUP2 ADD SWAP1 DUP1 DUP1 CALLDATALOAD PUSH20 0xFFFFFFFFFFFFFFFFFFFFFFFFFFFFFFFFFFFFFFFF AND SWAP1 PUSH1 0x20 ADD SWAP1 SWAP3 SWAP2 SWAP1 DUP1 CALLDATALOAD SWAP1 PUSH1 0x20 ADD SWAP1 SWAP3 SWAP2 SWAP1 DUP1 CALLDATALOAD SWAP1 PUSH1 0x20 ADD SWAP1 SWAP3 SWAP2 SWAP1 DUP1 CALLDATALOAD SWAP1 PUSH1 0x20 ADD SWAP1 SWAP3 SWAP2 SWAP1 DUP1 CALLDATALOAD PUSH20 0xFFFFFFFFFFFFFFFFFFFFFFFFFFFFFFFFFFFFFFFF AND SWAP1 PUSH1 0x20 ADD SWAP1 SWAP3 SWAP2 SWAP1 DUP1 CALLDATALOAD SWAP1 PUSH1 0x20 ADD SWAP1 SWAP3 SWAP2 SWAP1 POP POP POP PUSH2 0x19C3 JUMP JUMPDEST PUSH1 0x40 MLOAD DUP1 DUP3 DUP2 MSTORE PUSH1 0x20 ADD SWAP2 POP POP PUSH1 0x40 MLOAD DUP1 SWAP2 SUB SWAP1 RETURN JUMPDEST PUSH2 0x7E3 PUSH1 0x4 DUP1 CALLDATASIZE SUB PUSH1 0xA0 DUP2 LT ISZERO PUSH2 0x72E JUMPI PUSH1 0x0 DUP1 REVERT JUMPDEST DUP2 ADD SWAP1 DUP1 DUP1 CALLDATALOAD SWAP1 PUSH1 0x20 ADD SWAP1 SWAP3 SWAP2 SWAP1 DUP1 CALLDATALOAD SWAP1 PUSH1 0x20 ADD SWAP1 PUSH5 0x100000000 DUP2 GT ISZERO PUSH2 0x755 JUMPI PUSH1 0x0 DUP1 REVERT JUMPDEST DUP3 ADD DUP4 PUSH1 0x20 DUP3 ADD GT ISZERO PUSH2 0x767 JUMPI PUSH1 0x0 DUP1 REVERT JUMPDEST DUP1 CALLDATALOAD SWAP1 PUSH1 0x20 ADD SWAP2 DUP5 PUSH1 0x20 DUP4 MUL DUP5 ADD GT PUSH5 0x100000000 DUP4 GT OR ISZERO PUSH2 0x789 JUMPI PUSH1 0x0 DUP1 REVERT JUMPDEST SWAP1 SWAP2 SWAP3 SWAP4 SWAP2 SWAP3 SWAP4 SWAP1 DUP1 CALLDATALOAD PUSH20 0xFFFFFFFFFFFFFFFFFFFFFFFFFFFFFFFFFFFFFFFF AND SWAP1 PUSH1 0x20 ADD SWAP1 SWAP3 SWAP2 SWAP1 DUP1 CALLDATALOAD PUSH20 0xFFFFFFFFFFFFFFFFFFFFFFFFFFFFFFFFFFFFFFFF AND SWAP1 PUSH1 0x20 ADD SWAP1 SWAP3 SWAP2 SWAP1 DUP1 CALLDATALOAD SWAP1 PUSH1 0x20 ADD SWAP1 SWAP3 SWAP2 SWAP1 POP POP POP PUSH2 0x1BD3 JUMP JUMPDEST STOP JUMPDEST CALLVALUE DUP1 ISZERO PUSH2 0x7F1 JUMPI PUSH1 0x0 DUP1 REVERT JUMPDEST POP PUSH2 0x89C PUSH1 0x4 DUP1 CALLDATASIZE SUB PUSH1 0xE0 DUP2 LT ISZERO PUSH2 0x808 JUMPI PUSH1 0x0 DUP1 REVERT JUMPDEST DUP2 ADD SWAP1 DUP1 DUP1 CALLDATALOAD PUSH20 0xFFFFFFFFFFFFFFFFFFFFFFFFFFFFFFFFFFFFFFFF AND SWAP1 PUSH1 0x20 ADD SWAP1 SWAP3 SWAP2 SWAP1 DUP1 CALLDATALOAD PUSH20 0xFFFFFFFFFFFFFFFFFFFFFFFFFFFFFFFFFFFFFFFF AND SWAP1 PUSH1 0x20 ADD SWAP1 SWAP3 SWAP2 SWAP1 DUP1 CALLDATALOAD SWAP1 PUSH1 0x20 ADD SWAP1 SWAP3 SWAP2 SWAP1 DUP1 CALLDATALOAD SWAP1 PUSH1 0x20 ADD SWAP1 SWAP3 SWAP2 SWAP1 DUP1 CALLDATALOAD SWAP1 PUSH1 0x20 ADD SWAP1 SWAP3 SWAP2 SWAP1 DUP1 CALLDATALOAD PUSH20 0xFFFFFFFFFFFFFFFFFFFFFFFFFFFFFFFFFFFFFFFF AND SWAP1 PUSH1 0x20 ADD SWAP1 SWAP3 SWAP2 SWAP1 DUP1 CALLDATALOAD SWAP1 PUSH1 0x20 ADD SWAP1 SWAP3 SWAP2 SWAP1 POP POP POP PUSH2 0x21AF JUMP JUMPDEST PUSH1 0x40 MLOAD DUP1 DUP4 DUP2 MSTORE PUSH1 0x20 ADD DUP3 DUP2 MSTORE PUSH1 0x20 ADD SWAP3 POP POP POP PUSH1 0x40 MLOAD DUP1 SWAP2 SUB SWAP1 RETURN JUMPDEST CALLVALUE DUP1 ISZERO PUSH2 0x8C5 JUMPI PUSH1 0x0 DUP1 REVERT JUMPDEST POP PUSH2 0x8CE PUSH2 0x2530 JUMP JUMPDEST PUSH1 0x40 MLOAD DUP1 DUP3 PUSH20 0xFFFFFFFFFFFFFFFFFFFFFFFFFFFFFFFFFFFFFFFF AND PUSH20 0xFFFFFFFFFFFFFFFFFFFFFFFFFFFFFFFFFFFFFFFF AND DUP2 MSTORE PUSH1 0x20 ADD SWAP2 POP POP PUSH1 0x40 MLOAD DUP1 SWAP2 SUB SWAP1 RETURN JUMPDEST CALLVALUE DUP1 ISZERO PUSH2 0x91C JUMPI PUSH1 0x0 DUP1 REVERT JUMPDEST POP PUSH2 0x99E PUSH1 0x4 DUP1 CALLDATASIZE SUB PUSH1 0x40 DUP2 LT ISZERO PUSH2 0x933 JUMPI PUSH1 0x0 DUP1 REVERT JUMPDEST DUP2 ADD SWAP1 DUP1 DUP1 CALLDATALOAD SWAP1 PUSH1 0x20 ADD SWAP1 SWAP3 SWAP2 SWAP1 DUP1 CALLDATALOAD SWAP1 PUSH1 0x20 ADD SWAP1 PUSH5 0x100000000 DUP2 GT ISZERO PUSH2 0x95A JUMPI PUSH1 0x0 DUP1 REVERT JUMPDEST DUP3 ADD DUP4 PUSH1 0x20 DUP3 ADD GT ISZERO PUSH2 0x96C JUMPI PUSH1 0x0 DUP1 REVERT JUMPDEST DUP1 CALLDATALOAD SWAP1 PUSH1 0x20 ADD SWAP2 DUP5 PUSH1 0x20 DUP4 MUL DUP5 ADD GT PUSH5 0x100000000 DUP4 GT OR ISZERO PUSH2 0x98E JUMPI PUSH1 0x0 DUP1 REVERT JUMPDEST SWAP1 SWAP2 SWAP3 SWAP4 SWAP2 SWAP3 SWAP4 SWAP1 POP POP POP PUSH2 0x2554 JUMP JUMPDEST PUSH1 0x40 MLOAD DUP1 DUP1 PUSH1 0x20 ADD DUP3 DUP2 SUB DUP3 MSTORE DUP4 DUP2 DUP2 MLOAD DUP2 MSTORE PUSH1 0x20 ADD SWAP2 POP DUP1 MLOAD SWAP1 PUSH1 0x20 ADD SWAP1 PUSH1 0x20 MUL DUP1 DUP4 DUP4 PUSH1 0x0 JUMPDEST DUP4 DUP2 LT ISZERO PUSH2 0x9E1 JUMPI DUP1 DUP3 ADD MLOAD DUP2 DUP5 ADD MSTORE PUSH1 0x20 DUP2 ADD SWAP1 POP PUSH2 0x9C6 JUMP JUMPDEST POP POP POP POP SWAP1 POP ADD SWAP3 POP POP POP PUSH1 0x40 MLOAD DUP1 SWAP2 SUB SWAP1 RETURN JUMPDEST CALLVALUE DUP1 ISZERO PUSH2 0xA01 JUMPI PUSH1 0x0 DUP1 REVERT JUMPDEST POP PUSH2 0xABA PUSH1 0x4 DUP1 CALLDATASIZE SUB PUSH2 0x140 DUP2 LT ISZERO PUSH2 0xA19 JUMPI PUSH1 0x0 DUP1 REVERT JUMPDEST DUP2 ADD SWAP1 DUP1 DUP1 CALLDATALOAD PUSH20 0xFFFFFFFFFFFFFFFFFFFFFFFFFFFFFFFFFFFFFFFF AND SWAP1 PUSH1 0x20 ADD SWAP1 SWAP3 SWAP2 SWAP1 DUP1 CALLDATALOAD SWAP1 PUSH1 0x20 ADD SWAP1 SWAP3 SWAP2 SWAP1 DUP1 CALLDATALOAD SWAP1 PUSH1 0x20 ADD SWAP1 SWAP3 SWAP2 SWAP1 DUP1 CALLDATALOAD SWAP1 PUSH1 0x20 ADD SWAP1 SWAP3 SWAP2 SWAP1 DUP1 CALLDATALOAD PUSH20 0xFFFFFFFFFFFFFFFFFFFFFFFFFFFFFFFFFFFFFFFF AND SWAP1 PUSH1 0x20 ADD SWAP1 SWAP3 SWAP2 SWAP1 DUP1 CALLDATALOAD SWAP1 PUSH1 0x20 ADD SWAP1 SWAP3 SWAP2 SWAP1 DUP1 CALLDATALOAD ISZERO ISZERO SWAP1 PUSH1 0x20 ADD SWAP1 SWAP3 SWAP2 SWAP1 DUP1 CALLDATALOAD PUSH1 0xFF AND SWAP1 PUSH1 0x20 ADD SWAP1 SWAP3 SWAP2 SWAP1 DUP1 CALLDATALOAD SWAP1 PUSH1 0x20 ADD SWAP1 SWAP3 SWAP2 SWAP1 DUP1 CALLDATALOAD SWAP1 PUSH1 0x20 ADD SWAP1 SWAP3 SWAP2 SWAP1 POP POP POP PUSH2 0x25CB JUMP JUMPDEST PUSH1 0x40 MLOAD DUP1 DUP4 DUP2 MSTORE PUSH1 0x20 ADD DUP3 DUP2 MSTORE PUSH1 0x20 ADD SWAP3 POP POP POP PUSH1 0x40 MLOAD DUP1 SWAP2 SUB SWAP1 RETURN JUMPDEST CALLVALUE DUP1 ISZERO PUSH2 0xAE3 JUMPI PUSH1 0x0 DUP1 REVERT JUMPDEST POP PUSH2 0xB46 PUSH1 0x4 DUP1 CALLDATASIZE SUB PUSH1 0x40 DUP2 LT ISZERO PUSH2 0xAFA JUMPI PUSH1 0x0 DUP1 REVERT JUMPDEST DUP2 ADD SWAP1 DUP1 DUP1 CALLDATALOAD PUSH20 0xFFFFFFFFFFFFFFFFFFFFFFFFFFFFFFFFFFFFFFFF AND SWAP1 PUSH1 0x20 ADD SWAP1 SWAP3 SWAP2 SWAP1 DUP1 CALLDATALOAD PUSH20 0xFFFFFFFFFFFFFFFFFFFFFFFFFFFFFFFFFFFFFFFF AND SWAP1 PUSH1 0x20 ADD SWAP1 SWAP3 SWAP2 SWAP1 POP POP POP PUSH2 0x276E JUMP JUMPDEST PUSH1 0x40 MLOAD DUP1 DUP3 PUSH20 0xFFFFFFFFFFFFFFFFFFFFFFFFFFFFFFFFFFFFFFFF AND PUSH20 0xFFFFFFFFFFFFFFFFFFFFFFFFFFFFFFFFFFFFFFFF AND DUP2 MSTORE PUSH1 0x20 ADD SWAP2 POP POP PUSH1 0x40 MLOAD DUP1 SWAP2 SUB SWAP1 RETURN JUMPDEST CALLVALUE DUP1 ISZERO PUSH2 0xB94 JUMPI PUSH1 0x0 DUP1 REVERT JUMPDEST POP PUSH2 0xC4A PUSH1 0x4 DUP1 CALLDATASIZE SUB PUSH2 0x100 DUP2 LT ISZERO PUSH2 0xBAC JUMPI PUSH1 0x0 DUP1 REVERT JUMPDEST DUP2 ADD SWAP1 DUP1 DUP1 CALLDATALOAD PUSH20 0xFFFFFFFFFFFFFFFFFFFFFFFFFFFFFFFFFFFFFFFF AND SWAP1 PUSH1 0x20 ADD SWAP1 SWAP3 SWAP2 SWAP1 DUP1 CALLDATALOAD PUSH20 0xFFFFFFFFFFFFFFFFFFFFFFFFFFFFFFFFFFFFFFFF AND SWAP1 PUSH1 0x20 ADD SWAP1 SWAP3 SWAP2 SWAP1 DUP1 CALLDATALOAD SWAP1 PUSH1 0x20 ADD SWAP1 SWAP3 SWAP2 SWAP1 DUP1 CALLDATALOAD SWAP1 PUSH1 0x20 ADD SWAP1 SWAP3 SWAP2 SWAP1 DUP1 CALLDATALOAD SWAP1 PUSH1 0x20 ADD SWAP1 SWAP3 SWAP2 SWAP1 DUP1 CALLDATALOAD SWAP1 PUSH1 0x20 ADD SWAP1 SWAP3 SWAP2 SWAP1 DUP1 CALLDATALOAD PUSH20 0xFFFFFFFFFFFFFFFFFFFFFFFFFFFFFFFFFFFFFFFF AND SWAP1 PUSH1 0x20 ADD SWAP1 SWAP3 SWAP2 SWAP1 DUP1 CALLDATALOAD SWAP1 PUSH1 0x20 ADD SWAP1 SWAP3 SWAP2 SWAP1 POP POP POP PUSH2 0x27A3 JUMP JUMPDEST PUSH1 0x40 MLOAD DUP1 DUP5 DUP2 MSTORE PUSH1 0x20 ADD DUP4 DUP2 MSTORE PUSH1 0x20 ADD DUP3 DUP2 MSTORE PUSH1 0x20 ADD SWAP4 POP POP POP POP PUSH1 0x40 MLOAD DUP1 SWAP2 SUB SWAP1 RETURN JUMPDEST PUSH2 0xCF8 PUSH1 0x4 DUP1 CALLDATASIZE SUB PUSH1 0xC0 DUP2 LT ISZERO PUSH2 0xC84 JUMPI PUSH1 0x0 DUP1 REVERT JUMPDEST DUP2 ADD SWAP1 DUP1 DUP1 CALLDATALOAD PUSH20 0xFFFFFFFFFFFFFFFFFFFFFFFFFFFFFFFFFFFFFFFF AND SWAP1 PUSH1 0x20 ADD SWAP1 SWAP3 SWAP2 SWAP1 DUP1 CALLDATALOAD SWAP1 PUSH1 0x20 ADD SWAP1 SWAP3 SWAP2 SWAP1 DUP1 CALLDATALOAD SWAP1 PUSH1 0x20 ADD SWAP1 SWAP3 SWAP2 SWAP1 DUP1 CALLDATALOAD SWAP1 PUSH1 0x20 ADD SWAP1 SWAP3 SWAP2 SWAP1 DUP1 CALLDATALOAD PUSH20 0xFFFFFFFFFFFFFFFFFFFFFFFFFFFFFFFFFFFFFFFF AND SWAP1 PUSH1 0x20 ADD SWAP1 SWAP3 SWAP2 SWAP1 DUP1 CALLDATALOAD SWAP1 PUSH1 0x20 ADD SWAP1 SWAP3 SWAP2 SWAP1 POP POP POP PUSH2 0x2948 JUMP JUMPDEST PUSH1 0x40 MLOAD DUP1 DUP5 DUP2 MSTORE PUSH1 0x20 ADD DUP4 DUP2 MSTORE PUSH1 0x20 ADD DUP3 DUP2 MSTORE PUSH1 0x20 ADD SWAP4 POP POP POP POP PUSH1 0x40 MLOAD DUP1 SWAP2 SUB SWAP1 RETURN JUMPDEST PUSH1 0x0 DUP1 DUP3 TIMESTAMP DUP2 LT ISZERO PUSH2 0xD96 JUMPI PUSH1 0x40 MLOAD PUSH32 0x8C379A000000000000000000000000000000000000000000000000000000000 DUP2 MSTORE PUSH1 0x4 ADD DUP1 DUP1 PUSH1 0x20 ADD DUP3 DUP2 SUB DUP3 MSTORE PUSH1 0x18 DUP2 MSTORE PUSH1 0x20 ADD DUP1 PUSH32 0x455A4B616C69627572526F757465723A20455850495245440000000000000000 DUP2 MSTORE POP PUSH1 0x20 ADD SWAP2 POP POP PUSH1 0x40 MLOAD DUP1 SWAP2 SUB SWAP1 REVERT JUMPDEST PUSH2 0xDC5 DUP10 PUSH32 0x0 DUP11 DUP11 DUP11 ADDRESS DUP11 PUSH2 0x21AF JUMP JUMPDEST DUP1 SWAP4 POP DUP2 SWAP5 POP POP POP PUSH2 0xDD8 DUP10 DUP7 DUP6 PUSH2 0x2C9D JUMP JUMPDEST PUSH32 0x0 PUSH20 0xFFFFFFFFFFFFFFFFFFFFFFFFFFFFFFFFFFFFFFFF AND PUSH4 0x2E1A7D4D DUP4 PUSH1 0x40 MLOAD DUP3 PUSH4 0xFFFFFFFF AND PUSH1 0xE0 SHL DUP2 MSTORE PUSH1 0x4 ADD DUP1 DUP3 DUP2 MSTORE PUSH1 0x20 ADD SWAP2 POP POP PUSH1 0x0 PUSH1 0x40 MLOAD DUP1 DUP4 SUB DUP2 PUSH1 0x0 DUP8 DUP1 EXTCODESIZE ISZERO DUP1 ISZERO PUSH2 0xE4B JUMPI PUSH1 0x0 DUP1 REVERT JUMPDEST POP GAS CALL ISZERO DUP1 ISZERO PUSH2 0xE5F JUMPI RETURNDATASIZE PUSH1 0x0 DUP1 RETURNDATACOPY RETURNDATASIZE PUSH1 0x0 REVERT JUMPDEST POP POP POP POP PUSH2 0xE6D DUP6 DUP4 PUSH2 0x2E79 JUMP JUMPDEST POP SWAP7 POP SWAP7 SWAP5 POP POP POP POP POP JUMP JUMPDEST PUSH1 0x0 DUP1 PUSH1 0x0 PUSH2 0xEA9 PUSH32 0x0 DUP16 DUP16 PUSH2 0x2FD8 JUMP JUMPDEST SWAP1 POP PUSH1 0x0 DUP8 PUSH2 0xEB8 JUMPI DUP13 PUSH2 0xEDA JUMP JUMPDEST PUSH32 0xFFFFFFFFFFFFFFFFFFFFFFFFFFFFFFFFFFFFFFFFFFFFFFFFFFFFFFFFFFFFFFFF JUMPDEST SWAP1 POP DUP2 PUSH20 0xFFFFFFFFFFFFFFFFFFFFFFFFFFFFFFFFFFFFFFFF AND PUSH4 0xD505ACCF CALLER ADDRESS DUP5 DUP14 DUP13 DUP13 DUP13 PUSH1 0x40 MLOAD DUP9 PUSH4 0xFFFFFFFF AND PUSH1 0xE0 SHL DUP2 MSTORE PUSH1 0x4 ADD DUP1 DUP9 PUSH20 0xFFFFFFFFFFFFFFFFFFFFFFFFFFFFFFFFFFFFFFFF AND PUSH20 0xFFFFFFFFFFFFFFFFFFFFFFFFFFFFFFFFFFFFFFFF AND DUP2 MSTORE PUSH1 0x20 ADD DUP8 PUSH20 0xFFFFFFFFFFFFFFFFFFFFFFFFFFFFFFFFFFFFFFFF AND PUSH20 0xFFFFFFFFFFFFFFFFFFFFFFFFFFFFFFFFFFFFFFFF AND DUP2 MSTORE PUSH1 0x20 ADD DUP7 DUP2 MSTORE PUSH1 0x20 ADD DUP6 DUP2 MSTORE PUSH1 0x20 ADD DUP5 PUSH1 0xFF AND PUSH1 0xFF AND DUP2 MSTORE PUSH1 0x20 ADD DUP4 DUP2 MSTORE PUSH1 0x20 ADD DUP3 DUP2 MSTORE PUSH1 0x20 ADD SWAP8 POP POP POP POP POP POP POP POP PUSH1 0x0 PUSH1 0x40 MLOAD DUP1 DUP4 SUB DUP2 PUSH1 0x0 DUP8 DUP1 EXTCODESIZE ISZERO DUP1 ISZERO PUSH2 0xFBD JUMPI PUSH1 0x0 DUP1 REVERT JUMPDEST POP GAS CALL ISZERO DUP1 ISZERO PUSH2 0xFD1 JUMPI RETURNDATASIZE PUSH1 0x0 DUP1 RETURNDATACOPY RETURNDATASIZE PUSH1 0x0 REVERT JUMPDEST POP POP POP POP PUSH2 0xFE4 DUP16 DUP16 DUP16 DUP16 DUP16 DUP16 DUP16 PUSH2 0x21AF JUMP JUMPDEST DUP1 SWAP5 POP DUP2 SWAP6 POP POP POP POP POP SWAP12 POP SWAP12 SWAP10 POP POP POP POP POP POP POP POP POP POP JUMP JUMPDEST DUP1 TIMESTAMP DUP2 LT ISZERO PUSH2 0x1075 JUMPI PUSH1 0x40 MLOAD PUSH32 0x8C379A000000000000000000000000000000000000000000000000000000000 DUP2 MSTORE PUSH1 0x4 ADD DUP1 DUP1 PUSH1 0x20 ADD DUP3 DUP2 SUB DUP3 MSTORE PUSH1 0x18 DUP2 MSTORE PUSH1 0x20 ADD DUP1 PUSH32 0x455A4B616C69627572526F757465723A20455850495245440000000000000000 DUP2 MSTORE POP PUSH1 0x20 ADD SWAP2 POP POP PUSH1 0x40 MLOAD DUP1 SWAP2 SUB SWAP1 REVERT JUMPDEST PUSH32 0x0 PUSH20 0xFFFFFFFFFFFFFFFFFFFFFFFFFFFFFFFFFFFFFFFF AND DUP7 DUP7 PUSH1 0x1 DUP10 DUP10 SWAP1 POP SUB DUP2 DUP2 LT PUSH2 0x10BE JUMPI INVALID JUMPDEST SWAP1 POP PUSH1 0x20 MUL ADD CALLDATALOAD PUSH20 0xFFFFFFFFFFFFFFFFFFFFFFFFFFFFFFFFFFFFFFFF AND PUSH20 0xFFFFFFFFFFFFFFFFFFFFFFFFFFFFFFFFFFFFFFFF AND EQ PUSH2 0x1164 JUMPI PUSH1 0x40 MLOAD PUSH32 0x8C379A000000000000000000000000000000000000000000000000000000000 DUP2 MSTORE PUSH1 0x4 ADD DUP1 DUP1 PUSH1 0x20 ADD DUP3 DUP2 SUB DUP3 MSTORE PUSH1 0x1D DUP2 MSTORE PUSH1 0x20 ADD DUP1 PUSH32 0x455A4B616C69627572526F757465723A20494E56414C49445F50415448000000 DUP2 MSTORE POP PUSH1 0x20 ADD SWAP2 POP POP PUSH1 0x40 MLOAD DUP1 SWAP2 SUB SWAP1 REVERT JUMPDEST PUSH2 0x1215 DUP7 DUP7 PUSH1 0x0 DUP2 DUP2 LT PUSH2 0x1174 JUMPI INVALID JUMPDEST SWAP1 POP PUSH1 0x20 MUL ADD CALLDATALOAD PUSH20 0xFFFFFFFFFFFFFFFFFFFFFFFFFFFFFFFFFFFFFFFF AND CALLER PUSH2 0x120F PUSH32 0x0 DUP11 DUP11 PUSH1 0x0 DUP2 DUP2 LT PUSH2 0x11C3 JUMPI INVALID JUMPDEST SWAP1 POP PUSH1 0x20 MUL ADD CALLDATALOAD PUSH20 0xFFFFFFFFFFFFFFFFFFFFFFFFFFFFFFFFFFFFFFFF AND DUP12 DUP12 PUSH1 0x1 DUP2 DUP2 LT PUSH2 0x11ED JUMPI INVALID JUMPDEST SWAP1 POP PUSH1 0x20 MUL ADD CALLDATALOAD PUSH20 0xFFFFFFFFFFFFFFFFFFFFFFFFFFFFFFFFFFFFFFFF AND PUSH2 0x2FD8 JUMP JUMPDEST DUP12 PUSH2 0x30E2 JUMP JUMPDEST PUSH2 0x1261 DUP7 DUP7 DUP1 DUP1 PUSH1 0x20 MUL PUSH1 0x20 ADD PUSH1 0x40 MLOAD SWAP1 DUP2 ADD PUSH1 0x40 MSTORE DUP1 SWAP4 SWAP3 SWAP2 SWAP1 DUP2 DUP2 MSTORE PUSH1 0x20 ADD DUP4 DUP4 PUSH1 0x20 MUL DUP1 DUP3 DUP5 CALLDATACOPY PUSH1 0x0 DUP2 DUP5 ADD MSTORE PUSH1 0x1F NOT PUSH1 0x1F DUP3 ADD AND SWAP1 POP DUP1 DUP4 ADD SWAP3 POP POP POP POP POP POP POP ADDRESS DUP6 PUSH2 0x32F3 JUMP JUMPDEST PUSH1 0x0 PUSH32 0x0 PUSH20 0xFFFFFFFFFFFFFFFFFFFFFFFFFFFFFFFFFFFFFFFF AND PUSH4 0x70A08231 ADDRESS PUSH1 0x40 MLOAD DUP3 PUSH4 0xFFFFFFFF AND PUSH1 0xE0 SHL DUP2 MSTORE PUSH1 0x4 ADD DUP1 DUP3 PUSH20 0xFFFFFFFFFFFFFFFFFFFFFFFFFFFFFFFFFFFFFFFF AND PUSH20 0xFFFFFFFFFFFFFFFFFFFFFFFFFFFFFFFFFFFFFFFF AND DUP2 MSTORE PUSH1 0x20 ADD SWAP2 POP POP PUSH1 0x20 PUSH1 0x40 MLOAD DUP1 DUP4 SUB DUP2 DUP7 DUP1 EXTCODESIZE ISZERO DUP1 ISZERO PUSH2 0x1300 JUMPI PUSH1 0x0 DUP1 REVERT JUMPDEST POP GAS STATICCALL ISZERO DUP1 ISZERO PUSH2 0x1314 JUMPI RETURNDATASIZE PUSH1 0x0 DUP1 RETURNDATACOPY RETURNDATASIZE PUSH1 0x0 REVERT JUMPDEST POP POP POP POP PUSH1 0x40 MLOAD RETURNDATASIZE PUSH1 0x20 DUP2 LT ISZERO PUSH2 0x132A JUMPI PUSH1 0x0 DUP1 REVERT JUMPDEST DUP2 ADD SWAP1 DUP1 DUP1 MLOAD SWAP1 PUSH1 0x20 ADD SWAP1 SWAP3 SWAP2 SWAP1 POP POP POP SWAP1 POP DUP8 DUP2 LT ISZERO PUSH2 0x1396 JUMPI PUSH1 0x40 MLOAD PUSH32 0x8C379A000000000000000000000000000000000000000000000000000000000 DUP2 MSTORE PUSH1 0x4 ADD DUP1 DUP1 PUSH1 0x20 ADD DUP3 DUP2 SUB DUP3 MSTORE PUSH1 0x2B DUP2 MSTORE PUSH1 0x20 ADD DUP1 PUSH2 0x42F0 PUSH1 0x2B SWAP2 CODECOPY PUSH1 0x40 ADD SWAP2 POP POP PUSH1 0x40 MLOAD DUP1 SWAP2 SUB SWAP1 REVERT JUMPDEST PUSH32 0x0 PUSH20 0xFFFFFFFFFFFFFFFFFFFFFFFFFFFFFFFFFFFFFFFF AND PUSH4 0x2E1A7D4D DUP3 PUSH1 0x40 MLOAD DUP3 PUSH4 0xFFFFFFFF AND PUSH1 0xE0 SHL DUP2 MSTORE PUSH1 0x4 ADD DUP1 DUP3 DUP2 MSTORE PUSH1 0x20 ADD SWAP2 POP POP PUSH1 0x0 PUSH1 0x40 MLOAD DUP1 DUP4 SUB DUP2 PUSH1 0x0 DUP8 DUP1 EXTCODESIZE ISZERO DUP1 ISZERO PUSH2 0x1409 JUMPI PUSH1 0x0 DUP1 REVERT JUMPDEST POP GAS CALL ISZERO DUP1 ISZERO PUSH2 0x141D JUMPI RETURNDATASIZE PUSH1 0x0 DUP1 RETURNDATACOPY RETURNDATASIZE PUSH1 0x0 REVERT JUMPDEST POP POP POP POP PUSH2 0x142B DUP6 DUP3 PUSH2 0x2E79 JUMP JUMPDEST POP POP POP POP POP POP POP POP POP JUMP JUMPDEST PUSH1 0x0 DUP1 PUSH2 0x1484 PUSH32 0x0 DUP14 PUSH32 0x0 PUSH2 0x2FD8 JUMP JUMPDEST SWAP1 POP PUSH1 0x0 DUP7 PUSH2 0x1493 JUMPI DUP12 PUSH2 0x14B5 JUMP JUMPDEST PUSH32 0xFFFFFFFFFFFFFFFFFFFFFFFFFFFFFFFFFFFFFFFFFFFFFFFFFFFFFFFFFFFFFFFF JUMPDEST SWAP1 POP DUP2 PUSH20 0xFFFFFFFFFFFFFFFFFFFFFFFFFFFFFFFFFFFFFFFF AND PUSH4 0xD505ACCF CALLER ADDRESS DUP5 DUP13 DUP12 DUP12 DUP12 PUSH1 0x40 MLOAD DUP9 PUSH4 0xFFFFFFFF AND PUSH1 0xE0 SHL DUP2 MSTORE PUSH1 0x4 ADD DUP1 DUP9 PUSH20 0xFFFFFFFFFFFFFFFFFFFFFFFFFFFFFFFFFFFFFFFF AND PUSH20 0xFFFFFFFFFFFFFFFFFFFFFFFFFFFFFFFFFFFFFFFF AND DUP2 MSTORE PUSH1 0x20 ADD DUP8 PUSH20 0xFFFFFFFFFFFFFFFFFFFFFFFFFFFFFFFFFFFFFFFF AND PUSH20 0xFFFFFFFFFFFFFFFFFFFFFFFFFFFFFFFFFFFFFFFF AND DUP2 MSTORE PUSH1 0x20 ADD DUP7 DUP2 MSTORE PUSH1 0x20 ADD DUP6 DUP2 MSTORE PUSH1 0x20 ADD DUP5 PUSH1 0xFF AND PUSH1 0xFF AND DUP2 MSTORE PUSH1 0x20 ADD DUP4 DUP2 MSTORE PUSH1 0x20 ADD DUP3 DUP2 MSTORE PUSH1 0x20 ADD SWAP8 POP POP POP POP POP POP POP POP PUSH1 0x0 PUSH1 0x40 MLOAD DUP1 DUP4 SUB DUP2 PUSH1 0x0 DUP8 DUP1 EXTCODESIZE ISZERO DUP1 ISZERO PUSH2 0x1598 JUMPI PUSH1 0x0 DUP1 REVERT JUMPDEST POP GAS CALL ISZERO DUP1 ISZERO PUSH2 0x15AC JUMPI RETURNDATASIZE PUSH1 0x0 DUP1 RETURNDATACOPY RETURNDATASIZE PUSH1 0x0 REVERT JUMPDEST POP POP POP POP PUSH2 0x15BE DUP14 DUP14 DUP14 DUP14 DUP14 DUP14 PUSH2 0x19C3 JUMP JUMPDEST SWAP3 POP POP POP SWAP11 SWAP10 POP POP POP POP POP POP POP POP POP POP JUMP JUMPDEST DUP1 TIMESTAMP DUP2 LT ISZERO PUSH2 0x1647 JUMPI PUSH1 0x40 MLOAD PUSH32 0x8C379A000000000000000000000000000000000000000000000000000000000 DUP2 MSTORE PUSH1 0x4 ADD DUP1 DUP1 PUSH1 0x20 ADD DUP3 DUP2 SUB DUP3 MSTORE PUSH1 0x18 DUP2 MSTORE PUSH1 0x20 ADD DUP1 PUSH32 0x455A4B616C69627572526F757465723A20455850495245440000000000000000 DUP2 MSTORE POP PUSH1 0x20 ADD SWAP2 POP POP PUSH1 0x40 MLOAD DUP1 SWAP2 SUB SWAP1 REVERT JUMPDEST PUSH2 0x16F8 DUP7 DUP7 PUSH1 0x0 DUP2 DUP2 LT PUSH2 0x1657 JUMPI INVALID JUMPDEST SWAP1 POP PUSH1 0x20 MUL ADD CALLDATALOAD PUSH20 0xFFFFFFFFFFFFFFFFFFFFFFFFFFFFFFFFFFFFFFFF AND CALLER PUSH2 0x16F2 PUSH32 0x0 DUP11 DUP11 PUSH1 0x0 DUP2 DUP2 LT PUSH2 0x16A6 JUMPI INVALID JUMPDEST SWAP1 POP PUSH1 0x20 MUL ADD CALLDATALOAD PUSH20 0xFFFFFFFFFFFFFFFFFFFFFFFFFFFFFFFFFFFFFFFF AND DUP12 DUP12 PUSH1 0x1 DUP2 DUP2 LT PUSH2 0x16D0 JUMPI INVALID JUMPDEST SWAP1 POP PUSH1 0x20 MUL ADD CALLDATALOAD PUSH20 0xFFFFFFFFFFFFFFFFFFFFFFFFFFFFFFFFFFFFFFFF AND PUSH2 0x2FD8 JUMP JUMPDEST DUP12 PUSH2 0x30E2 JUMP JUMPDEST PUSH1 0x0 DUP7 DUP7 PUSH1 0x1 DUP10 DUP10 SWAP1 POP SUB DUP2 DUP2 LT PUSH2 0x170C JUMPI INVALID JUMPDEST SWAP1 POP PUSH1 0x20 MUL ADD CALLDATALOAD PUSH20 0xFFFFFFFFFFFFFFFFFFFFFFFFFFFFFFFFFFFFFFFF AND PUSH20 0xFFFFFFFFFFFFFFFFFFFFFFFFFFFFFFFFFFFFFFFF AND PUSH4 0x70A08231 DUP7 PUSH1 0x40 MLOAD DUP3 PUSH4 0xFFFFFFFF AND PUSH1 0xE0 SHL DUP2 MSTORE PUSH1 0x4 ADD DUP1 DUP3 PUSH20 0xFFFFFFFFFFFFFFFFFFFFFFFFFFFFFFFFFFFFFFFF AND PUSH20 0xFFFFFFFFFFFFFFFFFFFFFFFFFFFFFFFFFFFFFFFF AND DUP2 MSTORE PUSH1 0x20 ADD SWAP2 POP POP PUSH1 0x20 PUSH1 0x40 MLOAD DUP1 DUP4 SUB DUP2 DUP7 DUP1 EXTCODESIZE ISZERO DUP1 ISZERO PUSH2 0x17A5 JUMPI PUSH1 0x0 DUP1 REVERT JUMPDEST POP GAS STATICCALL ISZERO DUP1 ISZERO PUSH2 0x17B9 JUMPI RETURNDATASIZE PUSH1 0x0 DUP1 RETURNDATACOPY RETURNDATASIZE PUSH1 0x0 REVERT JUMPDEST POP POP POP POP PUSH1 0x40 MLOAD RETURNDATASIZE PUSH1 0x20 DUP2 LT ISZERO PUSH2 0x17CF JUMPI PUSH1 0x0 DUP1 REVERT JUMPDEST DUP2 ADD SWAP1 DUP1 DUP1 MLOAD SWAP1 PUSH1 0x20 ADD SWAP1 SWAP3 SWAP2 SWAP1 POP POP POP SWAP1 POP PUSH2 0x182E DUP8 DUP8 DUP1 DUP1 PUSH1 0x20 MUL PUSH1 0x20 ADD PUSH1 0x40 MLOAD SWAP1 DUP2 ADD PUSH1 0x40 MSTORE DUP1 SWAP4 SWAP3 SWAP2 SWAP1 DUP2 DUP2 MSTORE PUSH1 0x20 ADD DUP4 DUP4 PUSH1 0x20 MUL DUP1 DUP3 DUP5 CALLDATACOPY PUSH1 0x0 DUP2 DUP5 ADD MSTORE PUSH1 0x1F NOT PUSH1 0x1F DUP3 ADD AND SWAP1 POP DUP1 DUP4 ADD SWAP3 POP POP POP POP POP POP POP DUP7 DUP7 PUSH2 0x32F3 JUMP JUMPDEST DUP8 PUSH2 0x1927 DUP3 DUP10 DUP10 PUSH1 0x1 DUP13 DUP13 SWAP1 POP SUB DUP2 DUP2 LT PUSH2 0x1845 JUMPI INVALID JUMPDEST SWAP1 POP PUSH1 0x20 MUL ADD CALLDATALOAD PUSH20 0xFFFFFFFFFFFFFFFFFFFFFFFFFFFFFFFFFFFFFFFF AND PUSH20 0xFFFFFFFFFFFFFFFFFFFFFFFFFFFFFFFFFFFFFFFF AND PUSH4 0x70A08231 DUP10 PUSH1 0x40 MLOAD DUP3 PUSH4 0xFFFFFFFF AND PUSH1 0xE0 SHL DUP2 MSTORE PUSH1 0x4 ADD DUP1 DUP3 PUSH20 0xFFFFFFFFFFFFFFFFFFFFFFFFFFFFFFFFFFFFFFFF AND PUSH20 0xFFFFFFFFFFFFFFFFFFFFFFFFFFFFFFFFFFFFFFFF AND DUP2 MSTORE PUSH1 0x20 ADD SWAP2 POP POP PUSH1 0x20 PUSH1 0x40 MLOAD DUP1 DUP4 SUB DUP2 DUP7 DUP1 EXTCODESIZE ISZERO DUP1 ISZERO PUSH2 0x18DE JUMPI PUSH1 0x0 DUP1 REVERT JUMPDEST POP GAS STATICCALL ISZERO DUP1 ISZERO PUSH2 0x18F2 JUMPI RETURNDATASIZE PUSH1 0x0 DUP1 RETURNDATACOPY RETURNDATASIZE PUSH1 0x0 REVERT JUMPDEST POP POP POP POP PUSH1 0x40 MLOAD RETURNDATASIZE PUSH1 0x20 DUP2 LT ISZERO PUSH2 0x1908 JUMPI PUSH1 0x0 DUP1 REVERT JUMPDEST DUP2 ADD SWAP1 DUP1 DUP1 MLOAD SWAP1 PUSH1 0x20 ADD SWAP1 SWAP3 SWAP2 SWAP1 POP POP POP PUSH2 0x3858 SWAP1 SWAP2 SWAP1 PUSH4 0xFFFFFFFF AND JUMP JUMPDEST LT ISZERO PUSH2 0x197E JUMPI PUSH1 0x40 MLOAD PUSH32 0x8C379A000000000000000000000000000000000000000000000000000000000 DUP2 MSTORE PUSH1 0x4 ADD DUP1 DUP1 PUSH1 0x20 ADD DUP3 DUP2 SUB DUP3 MSTORE PUSH1 0x2B DUP2 MSTORE PUSH1 0x20 ADD DUP1 PUSH2 0x42F0 PUSH1 0x2B SWAP2 CODECOPY PUSH1 0x40 ADD SWAP2 POP POP PUSH1 0x40 MLOAD DUP1 SWAP2 SUB SWAP1 REVERT JUMPDEST POP POP POP POP POP POP POP POP POP JUMP JUMPDEST PUSH32 0x0 DUP2 JUMP JUMPDEST PUSH1 0x0 PUSH2 0x19BA DUP5 DUP5 DUP5 PUSH2 0x38DB JUMP JUMPDEST SWAP1 POP SWAP4 SWAP3 POP POP POP JUMP JUMPDEST PUSH1 0x0 DUP2 TIMESTAMP DUP2 LT ISZERO PUSH2 0x1A3C JUMPI PUSH1 0x40 MLOAD PUSH32 0x8C379A000000000000000000000000000000000000000000000000000000000 DUP2 MSTORE PUSH1 0x4 ADD DUP1 DUP1 PUSH1 0x20 ADD DUP3 DUP2 SUB DUP3 MSTORE PUSH1 0x18 DUP2 MSTORE PUSH1 0x20 ADD DUP1 PUSH32 0x455A4B616C69627572526F757465723A20455850495245440000000000000000 DUP2 MSTORE POP PUSH1 0x20 ADD SWAP2 POP POP PUSH1 0x40 MLOAD DUP1 SWAP2 SUB SWAP1 REVERT JUMPDEST PUSH2 0x1A6B DUP9 PUSH32 0x0 DUP10 DUP10 DUP10 ADDRESS DUP10 PUSH2 0x21AF JUMP JUMPDEST SWAP1 POP DUP1 SWAP3 POP POP PUSH2 0x1B33 DUP9 DUP6 DUP11 PUSH20 0xFFFFFFFFFFFFFFFFFFFFFFFFFFFFFFFFFFFFFFFF AND PUSH4 0x70A08231 ADDRESS PUSH1 0x40 MLOAD DUP3 PUSH4 0xFFFFFFFF AND PUSH1 0xE0 SHL DUP2 MSTORE PUSH1 0x4 ADD DUP1 DUP3 PUSH20 0xFFFFFFFFFFFFFFFFFFFFFFFFFFFFFFFFFFFFFFFF AND PUSH20 0xFFFFFFFFFFFFFFFFFFFFFFFFFFFFFFFFFFFFFFFF AND DUP2 MSTORE PUSH1 0x20 ADD SWAP2 POP POP PUSH1 0x20 PUSH1 0x40 MLOAD DUP1 DUP4 SUB DUP2 DUP7 DUP1 EXTCODESIZE ISZERO DUP1 ISZERO PUSH2 0x1AF3 JUMPI PUSH1 0x0 DUP1 REVERT JUMPDEST POP GAS STATICCALL ISZERO DUP1 ISZERO PUSH2 0x1B07 JUMPI RETURNDATASIZE PUSH1 0x0 DUP1 RETURNDATACOPY RETURNDATASIZE PUSH1 0x0 REVERT JUMPDEST POP POP POP POP PUSH1 0x40 MLOAD RETURNDATASIZE PUSH1 0x20 DUP2 LT ISZERO PUSH2 0x1B1D JUMPI PUSH1 0x0 DUP1 REVERT JUMPDEST DUP2 ADD SWAP1 DUP1 DUP1 MLOAD SWAP1 PUSH1 0x20 ADD SWAP1 SWAP3 SWAP2 SWAP1 POP POP POP PUSH2 0x2C9D JUMP JUMPDEST PUSH32 0x0 PUSH20 0xFFFFFFFFFFFFFFFFFFFFFFFFFFFFFFFFFFFFFFFF AND PUSH4 0x2E1A7D4D DUP4 PUSH1 0x40 MLOAD DUP3 PUSH4 0xFFFFFFFF AND PUSH1 0xE0 SHL DUP2 MSTORE PUSH1 0x4 ADD DUP1 DUP3 DUP2 MSTORE PUSH1 0x20 ADD SWAP2 POP POP PUSH1 0x0 PUSH1 0x40 MLOAD DUP1 DUP4 SUB DUP2 PUSH1 0x0 DUP8 DUP1 EXTCODESIZE ISZERO DUP1 ISZERO PUSH2 0x1BA6 JUMPI PUSH1 0x0 DUP1 REVERT JUMPDEST POP GAS CALL ISZERO DUP1 ISZERO PUSH2 0x1BBA JUMPI RETURNDATASIZE PUSH1 0x0 DUP1 RETURNDATACOPY RETURNDATASIZE PUSH1 0x0 REVERT JUMPDEST POP POP POP POP PUSH2 0x1BC8 DUP5 DUP4 PUSH2 0x2E79 JUMP JUMPDEST POP SWAP7 SWAP6 POP POP POP POP POP POP JUMP JUMPDEST DUP1 TIMESTAMP DUP2 LT ISZERO PUSH2 0x1C4A JUMPI PUSH1 0x40 MLOAD PUSH32 0x8C379A000000000000000000000000000000000000000000000000000000000 DUP2 MSTORE PUSH1 0x4 ADD DUP1 DUP1 PUSH1 0x20 ADD DUP3 DUP2 SUB DUP3 MSTORE PUSH1 0x18 DUP2 MSTORE PUSH1 0x20 ADD DUP1 PUSH32 0x455A4B616C69627572526F757465723A20455850495245440000000000000000 DUP2 MSTORE POP PUSH1 0x20 ADD SWAP2 POP POP PUSH1 0x40 MLOAD DUP1 SWAP2 SUB SWAP1 REVERT JUMPDEST PUSH32 0x0 PUSH20 0xFFFFFFFFFFFFFFFFFFFFFFFFFFFFFFFFFFFFFFFF AND DUP7 DUP7 PUSH1 0x0 DUP2 DUP2 LT PUSH2 0x1C8E JUMPI INVALID JUMPDEST SWAP1 POP PUSH1 0x20 MUL ADD CALLDATALOAD PUSH20 0xFFFFFFFFFFFFFFFFFFFFFFFFFFFFFFFFFFFFFFFF AND PUSH20 0xFFFFFFFFFFFFFFFFFFFFFFFFFFFFFFFFFFFFFFFF AND EQ PUSH2 0x1D34 JUMPI PUSH1 0x40 MLOAD PUSH32 0x8C379A000000000000000000000000000000000000000000000000000000000 DUP2 MSTORE PUSH1 0x4 ADD DUP1 DUP1 PUSH1 0x20 ADD DUP3 DUP2 SUB DUP3 MSTORE PUSH1 0x1D DUP2 MSTORE PUSH1 0x20 ADD DUP1 PUSH32 0x455A4B616C69627572526F757465723A20494E56414C49445F50415448000000 DUP2 MSTORE POP PUSH1 0x20 ADD SWAP2 POP POP PUSH1 0x40 MLOAD DUP1 SWAP2 SUB SWAP1 REVERT JUMPDEST PUSH1 0x0 CALLVALUE SWAP1 POP PUSH32 0x0 PUSH20 0xFFFFFFFFFFFFFFFFFFFFFFFFFFFFFFFFFFFFFFFF AND PUSH4 0xD0E30DB0 DUP3 PUSH1 0x40 MLOAD DUP3 PUSH4 0xFFFFFFFF AND PUSH1 0xE0 SHL DUP2 MSTORE PUSH1 0x4 ADD PUSH1 0x0 PUSH1 0x40 MLOAD DUP1 DUP4 SUB DUP2 DUP6 DUP9 DUP1 EXTCODESIZE ISZERO DUP1 ISZERO PUSH2 0x1DA1 JUMPI PUSH1 0x0 DUP1 REVERT JUMPDEST POP GAS CALL ISZERO DUP1 ISZERO PUSH2 0x1DB5 JUMPI RETURNDATASIZE PUSH1 0x0 DUP1 RETURNDATACOPY RETURNDATASIZE PUSH1 0x0 REVERT JUMPDEST POP POP POP POP POP PUSH32 0x0 PUSH20 0xFFFFFFFFFFFFFFFFFFFFFFFFFFFFFFFFFFFFFFFF AND PUSH4 0xA9059CBB PUSH2 0x1E73 PUSH32 0x0 DUP11 DUP11 PUSH1 0x0 DUP2 DUP2 LT PUSH2 0x1E27 JUMPI INVALID JUMPDEST SWAP1 POP PUSH1 0x20 MUL ADD CALLDATALOAD PUSH20 0xFFFFFFFFFFFFFFFFFFFFFFFFFFFFFFFFFFFFFFFF AND DUP12 DUP12 PUSH1 0x1 DUP2 DUP2 LT PUSH2 0x1E51 JUMPI INVALID JUMPDEST SWAP1 POP PUSH1 0x20 MUL ADD CALLDATALOAD PUSH20 0xFFFFFFFFFFFFFFFFFFFFFFFFFFFFFFFFFFFFFFFF AND PUSH2 0x2FD8 JUMP JUMPDEST DUP4 PUSH1 0x40 MLOAD DUP4 PUSH4 0xFFFFFFFF AND PUSH1 0xE0 SHL DUP2 MSTORE PUSH1 0x4 ADD DUP1 DUP4 PUSH20 0xFFFFFFFFFFFFFFFFFFFFFFFFFFFFFFFFFFFFFFFF AND PUSH20 0xFFFFFFFFFFFFFFFFFFFFFFFFFFFFFFFFFFFFFFFF AND DUP2 MSTORE PUSH1 0x20 ADD DUP3 DUP2 MSTORE PUSH1 0x20 ADD SWAP3 POP POP POP PUSH1 0x20 PUSH1 0x40 MLOAD DUP1 DUP4 SUB DUP2 PUSH1 0x0 DUP8 DUP1 EXTCODESIZE ISZERO DUP1 ISZERO PUSH2 0x1EDD JUMPI PUSH1 0x0 DUP1 REVERT JUMPDEST POP GAS CALL ISZERO DUP1 ISZERO PUSH2 0x1EF1 JUMPI RETURNDATASIZE PUSH1 0x0 DUP1 RETURNDATACOPY RETURNDATASIZE PUSH1 0x0 REVERT JUMPDEST POP POP POP POP PUSH1 0x40 MLOAD RETURNDATASIZE PUSH1 0x20 DUP2 LT ISZERO PUSH2 0x1F07 JUMPI PUSH1 0x0 DUP1 REVERT JUMPDEST DUP2 ADD SWAP1 DUP1 DUP1 MLOAD SWAP1 PUSH1 0x20 ADD SWAP1 SWAP3 SWAP2 SWAP1 POP POP POP PUSH2 0x1F1E JUMPI INVALID JUMPDEST PUSH1 0x0 DUP8 DUP8 PUSH1 0x1 DUP11 DUP11 SWAP1 POP SUB DUP2 DUP2 LT PUSH2 0x1F32 JUMPI INVALID JUMPDEST SWAP1 POP PUSH1 0x20 MUL ADD CALLDATALOAD PUSH20 0xFFFFFFFFFFFFFFFFFFFFFFFFFFFFFFFFFFFFFFFF AND PUSH20 0xFFFFFFFFFFFFFFFFFFFFFFFFFFFFFFFFFFFFFFFF AND PUSH4 0x70A08231 DUP8 PUSH1 0x40 MLOAD DUP3 PUSH4 0xFFFFFFFF AND PUSH1 0xE0 SHL DUP2 MSTORE PUSH1 0x4 ADD DUP1 DUP3 PUSH20 0xFFFFFFFFFFFFFFFFFFFFFFFFFFFFFFFFFFFFFFFF AND PUSH20 0xFFFFFFFFFFFFFFFFFFFFFFFFFFFFFFFFFFFFFFFF AND DUP2 MSTORE PUSH1 0x20 ADD SWAP2 POP POP PUSH1 0x20 PUSH1 0x40 MLOAD DUP1 DUP4 SUB DUP2 DUP7 DUP1 EXTCODESIZE ISZERO DUP1 ISZERO PUSH2 0x1FCB JUMPI PUSH1 0x0 DUP1 REVERT JUMPDEST POP GAS STATICCALL ISZERO DUP1 ISZERO PUSH2 0x1FDF JUMPI RETURNDATASIZE PUSH1 0x0 DUP1 RETURNDATACOPY RETURNDATASIZE PUSH1 0x0 REVERT JUMPDEST POP POP POP POP PUSH1 0x40 MLOAD RETURNDATASIZE PUSH1 0x20 DUP2 LT ISZERO PUSH2 0x1FF5 JUMPI PUSH1 0x0 DUP1 REVERT JUMPDEST DUP2 ADD SWAP1 DUP1 DUP1 MLOAD SWAP1 PUSH1 0x20 ADD SWAP1 SWAP3 SWAP2 SWAP1 POP POP POP SWAP1 POP PUSH2 0x2054 DUP9 DUP9 DUP1 DUP1 PUSH1 0x20 MUL PUSH1 0x20 ADD PUSH1 0x40 MLOAD SWAP1 DUP2 ADD PUSH1 0x40 MSTORE DUP1 SWAP4 SWAP3 SWAP2 SWAP1 DUP2 DUP2 MSTORE PUSH1 0x20 ADD DUP4 DUP4 PUSH1 0x20 MUL DUP1 DUP3 DUP5 CALLDATACOPY PUSH1 0x0 DUP2 DUP5 ADD MSTORE PUSH1 0x1F NOT PUSH1 0x1F DUP3 ADD AND SWAP1 POP DUP1 DUP4 ADD SWAP3 POP POP POP POP POP POP POP DUP8 DUP8 PUSH2 0x32F3 JUMP JUMPDEST DUP9 PUSH2 0x214D DUP3 DUP11 DUP11 PUSH1 0x1 DUP14 DUP14 SWAP1 POP SUB DUP2 DUP2 LT PUSH2 0x206B JUMPI INVALID JUMPDEST SWAP1 POP PUSH1 0x20 MUL ADD CALLDATALOAD PUSH20 0xFFFFFFFFFFFFFFFFFFFFFFFFFFFFFFFFFFFFFFFF AND PUSH20 0xFFFFFFFFFFFFFFFFFFFFFFFFFFFFFFFFFFFFFFFF AND PUSH4 0x70A08231 DUP11 PUSH1 0x40 MLOAD DUP3 PUSH4 0xFFFFFFFF AND PUSH1 0xE0 SHL DUP2 MSTORE PUSH1 0x4 ADD DUP1 DUP3 PUSH20 0xFFFFFFFFFFFFFFFFFFFFFFFFFFFFFFFFFFFFFFFF AND PUSH20 0xFFFFFFFFFFFFFFFFFFFFFFFFFFFFFFFFFFFFFFFF AND DUP2 MSTORE PUSH1 0x20 ADD SWAP2 POP POP PUSH1 0x20 PUSH1 0x40 MLOAD DUP1 DUP4 SUB DUP2 DUP7 DUP1 EXTCODESIZE ISZERO DUP1 ISZERO PUSH2 0x2104 JUMPI PUSH1 0x0 DUP1 REVERT JUMPDEST POP GAS STATICCALL ISZERO DUP1 ISZERO PUSH2 0x2118 JUMPI RETURNDATASIZE PUSH1 0x0 DUP1 RETURNDATACOPY RETURNDATASIZE PUSH1 0x0 REVERT JUMPDEST POP POP POP POP PUSH1 0x40 MLOAD RETURNDATASIZE PUSH1 0x20 DUP2 LT ISZERO PUSH2 0x212E JUMPI PUSH1 0x0 DUP1 REVERT JUMPDEST DUP2 ADD SWAP1 DUP1 DUP1 MLOAD SWAP1 PUSH1 0x20 ADD SWAP1 SWAP3 SWAP2 SWAP1 POP POP POP PUSH2 0x3858 SWAP1 SWAP2 SWAP1 PUSH4 0xFFFFFFFF AND JUMP JUMPDEST LT ISZERO PUSH2 0x21A4 JUMPI PUSH1 0x40 MLOAD PUSH32 0x8C379A000000000000000000000000000000000000000000000000000000000 DUP2 MSTORE PUSH1 0x4 ADD DUP1 DUP1 PUSH1 0x20 ADD DUP3 DUP2 SUB DUP3 MSTORE PUSH1 0x2B DUP2 MSTORE PUSH1 0x20 ADD DUP1 PUSH2 0x42F0 PUSH1 0x2B SWAP2 CODECOPY PUSH1 0x40 ADD SWAP2 POP POP PUSH1 0x40 MLOAD DUP1 SWAP2 SUB SWAP1 REVERT JUMPDEST POP POP POP POP POP POP POP POP POP JUMP JUMPDEST PUSH1 0x0 DUP1 DUP3 TIMESTAMP DUP2 LT ISZERO PUSH2 0x2229 JUMPI PUSH1 0x40 MLOAD PUSH32 0x8C379A000000000000000000000000000000000000000000000000000000000 DUP2 MSTORE PUSH1 0x4 ADD DUP1 DUP1 PUSH1 0x20 ADD DUP3 DUP2 SUB DUP3 MSTORE PUSH1 0x18 DUP2 MSTORE PUSH1 0x20 ADD DUP1 PUSH32 0x455A4B616C69627572526F757465723A20455850495245440000000000000000 DUP2 MSTORE POP PUSH1 0x20 ADD SWAP2 POP POP PUSH1 0x40 MLOAD DUP1 SWAP2 SUB SWAP1 REVERT JUMPDEST PUSH1 0x0 PUSH2 0x2256 PUSH32 0x0 DUP13 DUP13 PUSH2 0x2FD8 JUMP JUMPDEST SWAP1 POP DUP1 PUSH20 0xFFFFFFFFFFFFFFFFFFFFFFFFFFFFFFFFFFFFFFFF AND PUSH4 0x23B872DD CALLER DUP4 DUP13 PUSH1 0x40 MLOAD DUP5 PUSH4 0xFFFFFFFF AND PUSH1 0xE0 SHL DUP2 MSTORE PUSH1 0x4 ADD DUP1 DUP5 PUSH20 0xFFFFFFFFFFFFFFFFFFFFFFFFFFFFFFFFFFFFFFFF AND PUSH20 0xFFFFFFFFFFFFFFFFFFFFFFFFFFFFFFFFFFFFFFFF AND DUP2 MSTORE PUSH1 0x20 ADD DUP4 PUSH20 0xFFFFFFFFFFFFFFFFFFFFFFFFFFFFFFFFFFFFFFFF AND PUSH20 0xFFFFFFFFFFFFFFFFFFFFFFFFFFFFFFFFFFFFFFFF AND DUP2 MSTORE PUSH1 0x20 ADD DUP3 DUP2 MSTORE PUSH1 0x20 ADD SWAP4 POP POP POP POP PUSH1 0x20 PUSH1 0x40 MLOAD DUP1 DUP4 SUB DUP2 PUSH1 0x0 DUP8 DUP1 EXTCODESIZE ISZERO DUP1 ISZERO PUSH2 0x2313 JUMPI PUSH1 0x0 DUP1 REVERT JUMPDEST POP GAS CALL ISZERO DUP1 ISZERO PUSH2 0x2327 JUMPI RETURNDATASIZE PUSH1 0x0 DUP1 RETURNDATACOPY RETURNDATASIZE PUSH1 0x0 REVERT JUMPDEST POP POP POP POP PUSH1 0x40 MLOAD RETURNDATASIZE PUSH1 0x20 DUP2 LT ISZERO PUSH2 0x233D JUMPI PUSH1 0x0 DUP1 REVERT JUMPDEST DUP2 ADD SWAP1 DUP1 DUP1 MLOAD SWAP1 PUSH1 0x20 ADD SWAP1 SWAP3 SWAP2 SWAP1 POP POP POP POP PUSH1 0x0 DUP1 DUP3 PUSH20 0xFFFFFFFFFFFFFFFFFFFFFFFFFFFFFFFFFFFFFFFF AND PUSH4 0x89AFCB44 DUP10 PUSH1 0x40 MLOAD DUP3 PUSH4 0xFFFFFFFF AND PUSH1 0xE0 SHL DUP2 MSTORE PUSH1 0x4 ADD DUP1 DUP3 PUSH20 0xFFFFFFFFFFFFFFFFFFFFFFFFFFFFFFFFFFFFFFFF AND PUSH20 0xFFFFFFFFFFFFFFFFFFFFFFFFFFFFFFFFFFFFFFFF AND DUP2 MSTORE PUSH1 0x20 ADD SWAP2 POP POP PUSH1 0x40 DUP1 MLOAD DUP1 DUP4 SUB DUP2 PUSH1 0x0 DUP8 DUP1 EXTCODESIZE ISZERO DUP1 ISZERO PUSH2 0x23D0 JUMPI PUSH1 0x0 DUP1 REVERT JUMPDEST POP GAS CALL ISZERO DUP1 ISZERO PUSH2 0x23E4 JUMPI RETURNDATASIZE PUSH1 0x0 DUP1 RETURNDATACOPY RETURNDATASIZE PUSH1 0x0 REVERT JUMPDEST POP POP POP POP PUSH1 0x40 MLOAD RETURNDATASIZE PUSH1 0x40 DUP2 LT ISZERO PUSH2 0x23FA JUMPI PUSH1 0x0 DUP1 REVERT JUMPDEST DUP2 ADD SWAP1 DUP1 DUP1 MLOAD SWAP1 PUSH1 0x20 ADD SWAP1 SWAP3 SWAP2 SWAP1 DUP1 MLOAD SWAP1 PUSH1 0x20 ADD SWAP1 SWAP3 SWAP2 SWAP1 POP POP POP SWAP2 POP SWAP2 POP PUSH1 0x0 PUSH2 0x2425 DUP15 DUP15 PUSH2 0x39BF JUMP JUMPDEST POP SWAP1 POP DUP1 PUSH20 0xFFFFFFFFFFFFFFFFFFFFFFFFFFFFFFFFFFFFFFFF AND DUP15 PUSH20 0xFFFFFFFFFFFFFFFFFFFFFFFFFFFFFFFFFFFFFFFF AND EQ PUSH2 0x2462 JUMPI DUP2 DUP4 PUSH2 0x2465 JUMP JUMPDEST DUP3 DUP3 JUMPDEST DUP1 SWAP8 POP DUP2 SWAP9 POP POP POP DUP11 DUP8 LT ISZERO PUSH2 0x24C6 JUMPI PUSH1 0x40 MLOAD PUSH32 0x8C379A000000000000000000000000000000000000000000000000000000000 DUP2 MSTORE PUSH1 0x4 ADD DUP1 DUP1 PUSH1 0x20 ADD DUP3 DUP2 SUB DUP3 MSTORE PUSH1 0x26 DUP2 MSTORE PUSH1 0x20 ADD DUP1 PUSH2 0x4380 PUSH1 0x26 SWAP2 CODECOPY PUSH1 0x40 ADD SWAP2 POP POP PUSH1 0x40 MLOAD DUP1 SWAP2 SUB SWAP1 REVERT JUMPDEST DUP10 DUP7 LT ISZERO PUSH2 0x251F JUMPI PUSH1 0x40 MLOAD PUSH32 0x8C379A000000000000000000000000000000000000000000000000000000000 DUP2 MSTORE PUSH1 0x4 ADD DUP1 DUP1 PUSH1 0x20 ADD DUP3 DUP2 SUB DUP3 MSTORE PUSH1 0x26 DUP2 MSTORE PUSH1 0x20 ADD DUP1 PUSH2 0x43CB PUSH1 0x26 SWAP2 CODECOPY PUSH1 0x40 ADD SWAP2 POP POP PUSH1 0x40 MLOAD DUP1 SWAP2 SUB SWAP1 REVERT JUMPDEST POP POP POP POP POP SWAP8 POP SWAP8 SWAP6 POP POP POP POP POP POP JUMP JUMPDEST PUSH32 0x0 DUP2 JUMP JUMPDEST PUSH1 0x60 PUSH2 0x25C2 PUSH32 0x0 DUP6 DUP6 DUP6 DUP1 DUP1 PUSH1 0x20 MUL PUSH1 0x20 ADD PUSH1 0x40 MLOAD SWAP1 DUP2 ADD PUSH1 0x40 MSTORE DUP1 SWAP4 SWAP3 SWAP2 SWAP1 DUP2 DUP2 MSTORE PUSH1 0x20 ADD DUP4 DUP4 PUSH1 0x20 MUL DUP1 DUP3 DUP5 CALLDATACOPY PUSH1 0x0 DUP2 DUP5 ADD MSTORE PUSH1 0x1F NOT PUSH1 0x1F DUP3 ADD AND SWAP1 POP DUP1 DUP4 ADD SWAP3 POP POP POP POP POP POP POP PUSH2 0x3B36 JUMP JUMPDEST SWAP1 POP SWAP4 SWAP3 POP POP POP JUMP JUMPDEST PUSH1 0x0 DUP1 PUSH1 0x0 PUSH2 0x261B PUSH32 0x0 DUP15 PUSH32 0x0 PUSH2 0x2FD8 JUMP JUMPDEST SWAP1 POP PUSH1 0x0 DUP8 PUSH2 0x262A JUMPI DUP13 PUSH2 0x264C JUMP JUMPDEST PUSH32 0xFFFFFFFFFFFFFFFFFFFFFFFFFFFFFFFFFFFFFFFFFFFFFFFFFFFFFFFFFFFFFFFF JUMPDEST SWAP1 POP DUP2 PUSH20 0xFFFFFFFFFFFFFFFFFFFFFFFFFFFFFFFFFFFFFFFF AND PUSH4 0xD505ACCF CALLER ADDRESS DUP5 DUP14 DUP13 DUP13 DUP13 PUSH1 0x40 MLOAD DUP9 PUSH4 0xFFFFFFFF AND PUSH1 0xE0 SHL DUP2 MSTORE PUSH1 0x4 ADD DUP1 DUP9 PUSH20 0xFFFFFFFFFFFFFFFFFFFFFFFFFFFFFFFFFFFFFFFF AND PUSH20 0xFFFFFFFFFFFFFFFFFFFFFFFFFFFFFFFFFFFFFFFF AND DUP2 MSTORE PUSH1 0x20 ADD DUP8 PUSH20 0xFFFFFFFFFFFFFFFFFFFFFFFFFFFFFFFFFFFFFFFF AND PUSH20 0xFFFFFFFFFFFFFFFFFFFFFFFFFFFFFFFFFFFFFFFF AND DUP2 MSTORE PUSH1 0x20 ADD DUP7 DUP2 MSTORE PUSH1 0x20 ADD DUP6 DUP2 MSTORE PUSH1 0x20 ADD DUP5 PUSH1 0xFF AND PUSH1 0xFF AND DUP2 MSTORE PUSH1 0x20 ADD DUP4 DUP2 MSTORE PUSH1 0x20 ADD DUP3 DUP2 MSTORE PUSH1 0x20 ADD SWAP8 POP POP POP POP POP POP POP POP PUSH1 0x0 PUSH1 0x40 MLOAD DUP1 DUP4 SUB DUP2 PUSH1 0x0 DUP8 DUP1 EXTCODESIZE ISZERO DUP1 ISZERO PUSH2 0x272F JUMPI PUSH1 0x0 DUP1 REVERT JUMPDEST POP GAS CALL ISZERO DUP1 ISZERO PUSH2 0x2743 JUMPI RETURNDATASIZE PUSH1 0x0 DUP1 RETURNDATACOPY RETURNDATASIZE PUSH1 0x0 REVERT JUMPDEST POP POP POP POP PUSH2 0x2755 DUP15 DUP15 DUP15 DUP15 DUP15 DUP15 PUSH2 0xD1C JUMP JUMPDEST DUP1 SWAP5 POP DUP2 SWAP6 POP POP POP POP POP SWAP11 POP SWAP11 SWAP9 POP POP POP POP POP POP POP POP POP JUMP JUMPDEST PUSH1 0x0 PUSH2 0x279B PUSH32 0x0 DUP5 DUP5 PUSH2 0x2FD8 JUMP JUMPDEST SWAP1 POP SWAP3 SWAP2 POP POP JUMP JUMPDEST PUSH1 0x0 DUP1 PUSH1 0x0 DUP4 TIMESTAMP DUP2 LT ISZERO PUSH2 0x281F JUMPI PUSH1 0x40 MLOAD PUSH32 0x8C379A000000000000000000000000000000000000000000000000000000000 DUP2 MSTORE PUSH1 0x4 ADD DUP1 DUP1 PUSH1 0x20 ADD DUP3 DUP2 SUB DUP3 MSTORE PUSH1 0x18 DUP2 MSTORE PUSH1 0x20 ADD DUP1 PUSH32 0x455A4B616C69627572526F757465723A20455850495245440000000000000000 DUP2 MSTORE POP PUSH1 0x20 ADD SWAP2 POP POP PUSH1 0x40 MLOAD DUP1 SWAP2 SUB SWAP1 REVERT JUMPDEST PUSH2 0x282D DUP13 DUP13 DUP13 DUP13 DUP13 DUP13 PUSH2 0x3D72 JUMP JUMPDEST DUP1 SWAP5 POP DUP2 SWAP6 POP POP POP PUSH1 0x0 PUSH2 0x2862 PUSH32 0x0 DUP15 DUP15 PUSH2 0x2FD8 JUMP JUMPDEST SWAP1 POP PUSH2 0x2870 DUP14 CALLER DUP4 DUP9 PUSH2 0x30E2 JUMP JUMPDEST PUSH2 0x287C DUP13 CALLER DUP4 DUP8 PUSH2 0x30E2 JUMP JUMPDEST DUP1 PUSH20 0xFFFFFFFFFFFFFFFFFFFFFFFFFFFFFFFFFFFFFFFF AND PUSH4 0x6A627842 DUP9 PUSH1 0x40 MLOAD DUP3 PUSH4 0xFFFFFFFF AND PUSH1 0xE0 SHL DUP2 MSTORE PUSH1 0x4 ADD DUP1 DUP3 PUSH20 0xFFFFFFFFFFFFFFFFFFFFFFFFFFFFFFFFFFFFFFFF AND PUSH20 0xFFFFFFFFFFFFFFFFFFFFFFFFFFFFFFFFFFFFFFFF AND DUP2 MSTORE PUSH1 0x20 ADD SWAP2 POP POP PUSH1 0x20 PUSH1 0x40 MLOAD DUP1 DUP4 SUB DUP2 PUSH1 0x0 DUP8 DUP1 EXTCODESIZE ISZERO DUP1 ISZERO PUSH2 0x28FB JUMPI PUSH1 0x0 DUP1 REVERT JUMPDEST POP GAS CALL ISZERO DUP1 ISZERO PUSH2 0x290F JUMPI RETURNDATASIZE PUSH1 0x0 DUP1 RETURNDATACOPY RETURNDATASIZE PUSH1 0x0 REVERT JUMPDEST POP POP POP POP PUSH1 0x40 MLOAD RETURNDATASIZE PUSH1 0x20 DUP2 LT ISZERO PUSH2 0x2925 JUMPI PUSH1 0x0 DUP1 REVERT JUMPDEST DUP2 ADD SWAP1 DUP1 DUP1 MLOAD SWAP1 PUSH1 0x20 ADD SWAP1 SWAP3 SWAP2 SWAP1 POP POP POP SWAP3 POP POP POP SWAP9 POP SWAP9 POP SWAP9 SWAP6 POP POP POP POP POP POP JUMP JUMPDEST PUSH1 0x0 DUP1 PUSH1 0x0 DUP4 TIMESTAMP DUP2 LT ISZERO PUSH2 0x29C4 JUMPI PUSH1 0x40 MLOAD PUSH32 0x8C379A000000000000000000000000000000000000000000000000000000000 DUP2 MSTORE PUSH1 0x4 ADD DUP1 DUP1 PUSH1 0x20 ADD DUP3 DUP2 SUB DUP3 MSTORE PUSH1 0x18 DUP2 MSTORE PUSH1 0x20 ADD DUP1 PUSH32 0x455A4B616C69627572526F757465723A20455850495245440000000000000000 DUP2 MSTORE POP PUSH1 0x20 ADD SWAP2 POP POP PUSH1 0x40 MLOAD DUP1 SWAP2 SUB SWAP1 REVERT JUMPDEST PUSH2 0x29F2 DUP11 PUSH32 0x0 DUP12 CALLVALUE DUP13 DUP13 PUSH2 0x3D72 JUMP JUMPDEST DUP1 SWAP5 POP DUP2 SWAP6 POP POP POP PUSH1 0x0 PUSH2 0x2A47 PUSH32 0x0 DUP13 PUSH32 0x0 PUSH2 0x2FD8 JUMP JUMPDEST SWAP1 POP PUSH2 0x2A55 DUP12 CALLER DUP4 DUP9 PUSH2 0x30E2 JUMP JUMPDEST PUSH32 0x0 PUSH20 0xFFFFFFFFFFFFFFFFFFFFFFFFFFFFFFFFFFFFFFFF AND PUSH4 0xD0E30DB0 DUP6 PUSH1 0x40 MLOAD DUP3 PUSH4 0xFFFFFFFF AND PUSH1 0xE0 SHL DUP2 MSTORE PUSH1 0x4 ADD PUSH1 0x0 PUSH1 0x40 MLOAD DUP1 DUP4 SUB DUP2 DUP6 DUP9 DUP1 EXTCODESIZE ISZERO DUP1 ISZERO PUSH2 0x2ABD JUMPI PUSH1 0x0 DUP1 REVERT JUMPDEST POP GAS CALL ISZERO DUP1 ISZERO PUSH2 0x2AD1 JUMPI RETURNDATASIZE PUSH1 0x0 DUP1 RETURNDATACOPY RETURNDATASIZE PUSH1 0x0 REVERT JUMPDEST POP POP POP POP POP PUSH32 0x0 PUSH20 0xFFFFFFFFFFFFFFFFFFFFFFFFFFFFFFFFFFFFFFFF AND PUSH4 0xA9059CBB DUP3 DUP7 PUSH1 0x40 MLOAD DUP4 PUSH4 0xFFFFFFFF AND PUSH1 0xE0 SHL DUP2 MSTORE PUSH1 0x4 ADD DUP1 DUP4 PUSH20 0xFFFFFFFFFFFFFFFFFFFFFFFFFFFFFFFFFFFFFFFF AND PUSH20 0xFFFFFFFFFFFFFFFFFFFFFFFFFFFFFFFFFFFFFFFF AND DUP2 MSTORE PUSH1 0x20 ADD DUP3 DUP2 MSTORE PUSH1 0x20 ADD SWAP3 POP POP POP PUSH1 0x20 PUSH1 0x40 MLOAD DUP1 DUP4 SUB DUP2 PUSH1 0x0 DUP8 DUP1 EXTCODESIZE ISZERO DUP1 ISZERO PUSH2 0x2B7D JUMPI PUSH1 0x0 DUP1 REVERT JUMPDEST POP GAS CALL ISZERO DUP1 ISZERO PUSH2 0x2B91 JUMPI RETURNDATASIZE PUSH1 0x0 DUP1 RETURNDATACOPY RETURNDATASIZE PUSH1 0x0 REVERT JUMPDEST POP POP POP POP PUSH1 0x40 MLOAD RETURNDATASIZE PUSH1 0x20 DUP2 LT ISZERO PUSH2 0x2BA7 JUMPI PUSH1 0x0 DUP1 REVERT JUMPDEST DUP2 ADD SWAP1 DUP1 DUP1 MLOAD SWAP1 PUSH1 0x20 ADD SWAP1 SWAP3 SWAP2 SWAP1 POP POP POP PUSH2 0x2BBE JUMPI INVALID JUMPDEST DUP1 PUSH20 0xFFFFFFFFFFFFFFFFFFFFFFFFFFFFFFFFFFFFFFFF AND PUSH4 0x6A627842 DUP9 PUSH1 0x40 MLOAD DUP3 PUSH4 0xFFFFFFFF AND PUSH1 0xE0 SHL DUP2 MSTORE PUSH1 0x4 ADD DUP1 DUP3 PUSH20 0xFFFFFFFFFFFFFFFFFFFFFFFFFFFFFFFFFFFFFFFF AND PUSH20 0xFFFFFFFFFFFFFFFFFFFFFFFFFFFFFFFFFFFFFFFF AND DUP2 MSTORE PUSH1 0x20 ADD SWAP2 POP POP PUSH1 0x20 PUSH1 0x40 MLOAD DUP1 DUP4 SUB DUP2 PUSH1 0x0 DUP8 DUP1 EXTCODESIZE ISZERO DUP1 ISZERO PUSH2 0x2C3D JUMPI PUSH1 0x0 DUP1 REVERT JUMPDEST POP GAS CALL ISZERO DUP1 ISZERO PUSH2 0x2C51 JUMPI RETURNDATASIZE PUSH1 0x0 DUP1 RETURNDATACOPY RETURNDATASIZE PUSH1 0x0 REVERT JUMPDEST POP POP POP POP PUSH1 0x40 MLOAD RETURNDATASIZE PUSH1 0x20 DUP2 LT ISZERO PUSH2 0x2C67 JUMPI PUSH1 0x0 DUP1 REVERT JUMPDEST DUP2 ADD SWAP1 DUP1 DUP1 MLOAD SWAP1 PUSH1 0x20 ADD SWAP1 SWAP3 SWAP2 SWAP1 POP POP POP SWAP3 POP DUP4 CALLVALUE GT ISZERO PUSH2 0x2C8F JUMPI PUSH2 0x2C8E CALLER DUP6 CALLVALUE SUB PUSH2 0x2E79 JUMP JUMPDEST JUMPDEST POP POP SWAP7 POP SWAP7 POP SWAP7 SWAP4 POP POP POP POP JUMP JUMPDEST PUSH1 0x0 PUSH1 0x60 DUP5 PUSH20 0xFFFFFFFFFFFFFFFFFFFFFFFFFFFFFFFFFFFFFFFF AND PUSH4 0xA9059CBB DUP6 DUP6 PUSH1 0x40 MLOAD PUSH1 0x24 ADD DUP1 DUP4 PUSH20 0xFFFFFFFFFFFFFFFFFFFFFFFFFFFFFFFFFFFFFFFF AND PUSH20 0xFFFFFFFFFFFFFFFFFFFFFFFFFFFFFFFFFFFFFFFF AND DUP2 MSTORE PUSH1 0x20 ADD DUP3 DUP2 MSTORE PUSH1 0x20 ADD SWAP3 POP POP POP PUSH1 0x40 MLOAD PUSH1 0x20 DUP2 DUP4 SUB SUB DUP2 MSTORE SWAP1 PUSH1 0x40 MSTORE SWAP1 PUSH1 0xE0 SHL PUSH1 0x20 DUP3 ADD DUP1 MLOAD PUSH28 0xFFFFFFFFFFFFFFFFFFFFFFFFFFFFFFFFFFFFFFFFFFFFFFFFFFFFFFFF DUP4 DUP2 DUP4 AND OR DUP4 MSTORE POP POP POP POP PUSH1 0x40 MLOAD DUP1 DUP3 DUP1 MLOAD SWAP1 PUSH1 0x20 ADD SWAP1 DUP1 DUP4 DUP4 JUMPDEST PUSH1 0x20 DUP4 LT PUSH2 0x2D76 JUMPI DUP1 MLOAD DUP3 MSTORE PUSH1 0x20 DUP3 ADD SWAP2 POP PUSH1 0x20 DUP2 ADD SWAP1 POP PUSH1 0x20 DUP4 SUB SWAP3 POP PUSH2 0x2D53 JUMP JUMPDEST PUSH1 0x1 DUP4 PUSH1 0x20 SUB PUSH2 0x100 EXP SUB DUP1 NOT DUP3 MLOAD AND DUP2 DUP5 MLOAD AND DUP1 DUP3 OR DUP6 MSTORE POP POP POP POP POP POP SWAP1 POP ADD SWAP2 POP POP PUSH1 0x0 PUSH1 0x40 MLOAD DUP1 DUP4 SUB DUP2 PUSH1 0x0 DUP7 GAS CALL SWAP2 POP POP RETURNDATASIZE DUP1 PUSH1 0x0 DUP2 EQ PUSH2 0x2DD8 JUMPI PUSH1 0x40 MLOAD SWAP2 POP PUSH1 0x1F NOT PUSH1 0x3F RETURNDATASIZE ADD AND DUP3 ADD PUSH1 0x40 MSTORE RETURNDATASIZE DUP3 MSTORE RETURNDATASIZE PUSH1 0x0 PUSH1 0x20 DUP5 ADD RETURNDATACOPY PUSH2 0x2DDD JUMP JUMPDEST PUSH1 0x60 SWAP2 POP JUMPDEST POP SWAP2 POP SWAP2 POP DUP2 DUP1 ISZERO PUSH2 0x2E1D JUMPI POP PUSH1 0x0 DUP2 MLOAD EQ DUP1 PUSH2 0x2E1C JUMPI POP DUP1 DUP1 PUSH1 0x20 ADD SWAP1 MLOAD PUSH1 0x20 DUP2 LT ISZERO PUSH2 0x2E0A JUMPI PUSH1 0x0 DUP1 REVERT JUMPDEST DUP2 ADD SWAP1 DUP1 DUP1 MLOAD SWAP1 PUSH1 0x20 ADD SWAP1 SWAP3 SWAP2 SWAP1 POP POP POP JUMPDEST JUMPDEST PUSH2 0x2E72 JUMPI PUSH1 0x40 MLOAD PUSH32 0x8C379A000000000000000000000000000000000000000000000000000000000 DUP2 MSTORE PUSH1 0x4 ADD DUP1 DUP1 PUSH1 0x20 ADD DUP3 DUP2 SUB DUP3 MSTORE PUSH1 0x2D DUP2 MSTORE PUSH1 0x20 ADD DUP1 PUSH2 0x443E PUSH1 0x2D SWAP2 CODECOPY PUSH1 0x40 ADD SWAP2 POP POP PUSH1 0x40 MLOAD DUP1 SWAP2 SUB SWAP1 REVERT JUMPDEST POP POP POP POP POP JUMP JUMPDEST PUSH1 0x0 DUP3 PUSH20 0xFFFFFFFFFFFFFFFFFFFFFFFFFFFFFFFFFFFFFFFF AND DUP3 PUSH1 0x0 PUSH8 0xFFFFFFFFFFFFFFFF DUP2 GT DUP1 ISZERO PUSH2 0x2EAB JUMPI PUSH1 0x0 DUP1 REVERT JUMPDEST POP PUSH1 0x40 MLOAD SWAP1 DUP1 DUP3 MSTORE DUP1 PUSH1 0x1F ADD PUSH1 0x1F NOT AND PUSH1 0x20 ADD DUP3 ADD PUSH1 0x40 MSTORE DUP1 ISZERO PUSH2 0x2EDE JUMPI DUP2 PUSH1 0x20 ADD PUSH1 0x1 DUP3 MUL DUP1 CALLDATASIZE DUP4 CALLDATACOPY DUP1 DUP3 ADD SWAP2 POP POP SWAP1 POP JUMPDEST POP PUSH1 0x40 MLOAD DUP1 DUP3 DUP1 MLOAD SWAP1 PUSH1 0x20 ADD SWAP1 DUP1 DUP4 DUP4 JUMPDEST PUSH1 0x20 DUP4 LT PUSH2 0x2F12 JUMPI DUP1 MLOAD DUP3 MSTORE PUSH1 0x20 DUP3 ADD SWAP2 POP PUSH1 0x20 DUP2 ADD SWAP1 POP PUSH1 0x20 DUP4 SUB SWAP3 POP PUSH2 0x2EEF JUMP JUMPDEST PUSH1 0x1 DUP4 PUSH1 0x20 SUB PUSH2 0x100 EXP SUB DUP1 NOT DUP3 MLOAD AND DUP2 DUP5 MLOAD AND DUP1 DUP3 OR DUP6 MSTORE POP POP POP POP POP POP SWAP1 POP ADD SWAP2 POP POP PUSH1 0x0 PUSH1 0x40 MLOAD DUP1 DUP4 SUB DUP2 DUP6 DUP8 GAS CALL SWAP3 POP POP POP RETURNDATASIZE DUP1 PUSH1 0x0 DUP2 EQ PUSH2 0x2F74 JUMPI PUSH1 0x40 MLOAD SWAP2 POP PUSH1 0x1F NOT PUSH1 0x3F RETURNDATASIZE ADD AND DUP3 ADD PUSH1 0x40 MSTORE RETURNDATASIZE DUP3 MSTORE RETURNDATASIZE PUSH1 0x0 PUSH1 0x20 DUP5 ADD RETURNDATACOPY PUSH2 0x2F79 JUMP JUMPDEST PUSH1 0x60 SWAP2 POP JUMPDEST POP POP SWAP1 POP DUP1 PUSH2 0x2FD3 JUMPI PUSH1 0x40 MLOAD PUSH32 0x8C379A000000000000000000000000000000000000000000000000000000000 DUP2 MSTORE PUSH1 0x4 ADD DUP1 DUP1 PUSH1 0x20 ADD DUP3 DUP2 SUB DUP3 MSTORE PUSH1 0x34 DUP2 MSTORE PUSH1 0x20 ADD DUP1 PUSH2 0x434C PUSH1 0x34 SWAP2 CODECOPY PUSH1 0x40 ADD SWAP2 POP POP PUSH1 0x40 MLOAD DUP1 SWAP2 SUB SWAP1 REVERT JUMPDEST POP POP POP JUMP JUMPDEST PUSH1 0x0 DUP1 PUSH1 0x0 PUSH2 0x2FE7 DUP6 DUP6 PUSH2 0x39BF JUMP JUMPDEST SWAP2 POP SWAP2 POP DUP6 PUSH20 0xFFFFFFFFFFFFFFFFFFFFFFFFFFFFFFFFFFFFFFFF AND PUSH4 0xE6A43905 DUP4 DUP4 PUSH1 0x40 MLOAD DUP4 PUSH4 0xFFFFFFFF AND PUSH1 0xE0 SHL DUP2 MSTORE PUSH1 0x4 ADD DUP1 DUP4 PUSH20 0xFFFFFFFFFFFFFFFFFFFFFFFFFFFFFFFFFFFFFFFF AND PUSH20 0xFFFFFFFFFFFFFFFFFFFFFFFFFFFFFFFFFFFFFFFF AND DUP2 MSTORE PUSH1 0x20 ADD DUP3 PUSH20 0xFFFFFFFFFFFFFFFFFFFFFFFFFFFFFFFFFFFFFFFF AND PUSH20 0xFFFFFFFFFFFFFFFFFFFFFFFFFFFFFFFFFFFFFFFF AND DUP2 MSTORE PUSH1 0x20 ADD SWAP3 POP POP POP PUSH1 0x20 PUSH1 0x40 MLOAD DUP1 DUP4 SUB DUP2 DUP7 DUP1 EXTCODESIZE ISZERO DUP1 ISZERO PUSH2 0x309C JUMPI PUSH1 0x0 DUP1 REVERT JUMPDEST POP GAS STATICCALL ISZERO DUP1 ISZERO PUSH2 0x30B0 JUMPI RETURNDATASIZE PUSH1 0x0 DUP1 RETURNDATACOPY RETURNDATASIZE PUSH1 0x0 REVERT JUMPDEST POP POP POP POP PUSH1 0x40 MLOAD RETURNDATASIZE PUSH1 0x20 DUP2 LT ISZERO PUSH2 0x30C6 JUMPI PUSH1 0x0 DUP1 REVERT JUMPDEST DUP2 ADD SWAP1 DUP1 DUP1 MLOAD SWAP1 PUSH1 0x20 ADD SWAP1 SWAP3 SWAP2 SWAP1 POP POP POP SWAP3 POP POP POP SWAP4 SWAP3 POP POP POP JUMP JUMPDEST PUSH1 0x0 PUSH1 0x60 DUP6 PUSH20 0xFFFFFFFFFFFFFFFFFFFFFFFFFFFFFFFFFFFFFFFF AND PUSH4 0x23B872DD DUP7 DUP7 DUP7 PUSH1 0x40 MLOAD PUSH1 0x24 ADD DUP1 DUP5 PUSH20 0xFFFFFFFFFFFFFFFFFFFFFFFFFFFFFFFFFFFFFFFF AND PUSH20 0xFFFFFFFFFFFFFFFFFFFFFFFFFFFFFFFFFFFFFFFF AND DUP2 MSTORE PUSH1 0x20 ADD DUP4 PUSH20 0xFFFFFFFFFFFFFFFFFFFFFFFFFFFFFFFFFFFFFFFF AND PUSH20 0xFFFFFFFFFFFFFFFFFFFFFFFFFFFFFFFFFFFFFFFF AND DUP2 MSTORE PUSH1 0x20 ADD DUP3 DUP2 MSTORE PUSH1 0x20 ADD SWAP4 POP POP POP POP PUSH1 0x40 MLOAD PUSH1 0x20 DUP2 DUP4 SUB SUB DUP2 MSTORE SWAP1 PUSH1 0x40 MSTORE SWAP1 PUSH1 0xE0 SHL PUSH1 0x20 DUP3 ADD DUP1 MLOAD PUSH28 0xFFFFFFFFFFFFFFFFFFFFFFFFFFFFFFFFFFFFFFFFFFFFFFFFFFFFFFFF DUP4 DUP2 DUP4 AND OR DUP4 MSTORE POP POP POP POP PUSH1 0x40 MLOAD DUP1 DUP3 DUP1 MLOAD SWAP1 PUSH1 0x20 ADD SWAP1 DUP1 DUP4 DUP4 JUMPDEST PUSH1 0x20 DUP4 LT PUSH2 0x31EF JUMPI DUP1 MLOAD DUP3 MSTORE PUSH1 0x20 DUP3 ADD SWAP2 POP PUSH1 0x20 DUP2 ADD SWAP1 POP PUSH1 0x20 DUP4 SUB SWAP3 POP PUSH2 0x31CC JUMP JUMPDEST PUSH1 0x1 DUP4 PUSH1 0x20 SUB PUSH2 0x100 EXP SUB DUP1 NOT DUP3 MLOAD AND DUP2 DUP5 MLOAD AND DUP1 DUP3 OR DUP6 MSTORE POP POP POP POP POP POP SWAP1 POP ADD SWAP2 POP POP PUSH1 0x0 PUSH1 0x40 MLOAD DUP1 DUP4 SUB DUP2 PUSH1 0x0 DUP7 GAS CALL SWAP2 POP POP RETURNDATASIZE DUP1 PUSH1 0x0 DUP2 EQ PUSH2 0x3251 JUMPI PUSH1 0x40 MLOAD SWAP2 POP PUSH1 0x1F NOT PUSH1 0x3F RETURNDATASIZE ADD AND DUP3 ADD PUSH1 0x40 MSTORE RETURNDATASIZE DUP3 MSTORE RETURNDATASIZE PUSH1 0x0 PUSH1 0x20 DUP5 ADD RETURNDATACOPY PUSH2 0x3256 JUMP JUMPDEST PUSH1 0x60 SWAP2 POP JUMPDEST POP SWAP2 POP SWAP2 POP DUP2 DUP1 ISZERO PUSH2 0x3296 JUMPI POP PUSH1 0x0 DUP2 MLOAD EQ DUP1 PUSH2 0x3295 JUMPI POP DUP1 DUP1 PUSH1 0x20 ADD SWAP1 MLOAD PUSH1 0x20 DUP2 LT ISZERO PUSH2 0x3283 JUMPI PUSH1 0x0 DUP1 REVERT JUMPDEST DUP2 ADD SWAP1 DUP1 DUP1 MLOAD SWAP1 PUSH1 0x20 ADD SWAP1 SWAP3 SWAP2 SWAP1 POP POP POP JUMPDEST JUMPDEST PUSH2 0x32EB JUMPI PUSH1 0x40 MLOAD PUSH32 0x8C379A000000000000000000000000000000000000000000000000000000000 DUP2 MSTORE PUSH1 0x4 ADD DUP1 DUP1 PUSH1 0x20 ADD DUP3 DUP2 SUB DUP3 MSTORE PUSH1 0x31 DUP2 MSTORE PUSH1 0x20 ADD DUP1 PUSH2 0x431B PUSH1 0x31 SWAP2 CODECOPY PUSH1 0x40 ADD SWAP2 POP POP PUSH1 0x40 MLOAD DUP1 SWAP2 SUB SWAP1 REVERT JUMPDEST POP POP POP POP POP POP JUMP JUMPDEST PUSH1 0x0 JUMPDEST PUSH1 0x1 DUP5 MLOAD SUB DUP2 LT ISZERO PUSH2 0x3852 JUMPI PUSH1 0x0 DUP1 DUP6 DUP4 DUP2 MLOAD DUP2 LT PUSH2 0x3311 JUMPI INVALID JUMPDEST PUSH1 0x20 MUL PUSH1 0x20 ADD ADD MLOAD DUP7 PUSH1 0x1 DUP6 ADD DUP2 MLOAD DUP2 LT PUSH2 0x3328 JUMPI INVALID JUMPDEST PUSH1 0x20 MUL PUSH1 0x20 ADD ADD MLOAD SWAP2 POP SWAP2 POP PUSH1 0x0 PUSH2 0x3340 DUP4 DUP4 PUSH2 0x39BF JUMP JUMPDEST POP SWAP1 POP PUSH1 0x0 PUSH2 0x3370 PUSH32 0x0 DUP6 DUP6 PUSH2 0x2FD8 JUMP JUMPDEST SWAP1 POP PUSH1 0x0 DUP1 PUSH1 0x0 DUP4 PUSH20 0xFFFFFFFFFFFFFFFFFFFFFFFFFFFFFFFFFFFFFFFF AND PUSH4 0x902F1AC PUSH1 0x40 MLOAD DUP2 PUSH4 0xFFFFFFFF AND PUSH1 0xE0 SHL DUP2 MSTORE PUSH1 0x4 ADD PUSH1 0x80 PUSH1 0x40 MLOAD DUP1 DUP4 SUB DUP2 DUP7 DUP1 EXTCODESIZE ISZERO DUP1 ISZERO PUSH2 0x33BD JUMPI PUSH1 0x0 DUP1 REVERT JUMPDEST POP GAS STATICCALL ISZERO DUP1 ISZERO PUSH2 0x33D1 JUMPI RETURNDATASIZE PUSH1 0x0 DUP1 RETURNDATACOPY RETURNDATASIZE PUSH1 0x0 REVERT JUMPDEST POP POP POP POP PUSH1 0x40 MLOAD RETURNDATASIZE PUSH1 0x80 DUP2 LT ISZERO PUSH2 0x33E7 JUMPI PUSH1 0x0 DUP1 REVERT JUMPDEST DUP2 ADD SWAP1 DUP1 DUP1 MLOAD SWAP1 PUSH1 0x20 ADD SWAP1 SWAP3 SWAP2 SWAP1 DUP1 MLOAD SWAP1 PUSH1 0x20 ADD SWAP1 SWAP3 SWAP2 SWAP1 DUP1 MLOAD SWAP1 PUSH1 0x20 ADD SWAP1 SWAP3 SWAP2 SWAP1 DUP1 MLOAD SWAP1 PUSH1 0x20 ADD SWAP1 SWAP3 SWAP2 SWAP1 POP POP POP POP POP PUSH14 0xFFFFFFFFFFFFFFFFFFFFFFFFFFFF AND SWAP2 POP PUSH14 0xFFFFFFFFFFFFFFFFFFFFFFFFFFFF AND SWAP2 POP DUP5 PUSH20 0xFFFFFFFFFFFFFFFFFFFFFFFFFFFFFFFFFFFFFFFF AND DUP8 PUSH20 0xFFFFFFFFFFFFFFFFFFFFFFFFFFFFFFFFFFFFFFFF AND EQ PUSH2 0x347A JUMPI DUP1 DUP3 DUP1 SWAP3 POP DUP2 SWAP4 POP POP POP JUMPDEST PUSH1 0x0 PUSH2 0x3546 DUP4 DUP10 PUSH20 0xFFFFFFFFFFFFFFFFFFFFFFFFFFFFFFFFFFFFFFFF AND PUSH4 0x70A08231 DUP9 PUSH1 0x40 MLOAD DUP3 PUSH4 0xFFFFFFFF AND PUSH1 0xE0 SHL DUP2 MSTORE PUSH1 0x4 ADD DUP1 DUP3 PUSH20 0xFFFFFFFFFFFFFFFFFFFFFFFFFFFFFFFFFFFFFFFF AND PUSH20 0xFFFFFFFFFFFFFFFFFFFFFFFFFFFFFFFFFFFFFFFF AND DUP2 MSTORE PUSH1 0x20 ADD SWAP2 POP POP PUSH1 0x20 PUSH1 0x40 MLOAD DUP1 DUP4 SUB DUP2 DUP7 DUP1 EXTCODESIZE ISZERO DUP1 ISZERO PUSH2 0x34FD JUMPI PUSH1 0x0 DUP1 REVERT JUMPDEST POP GAS STATICCALL ISZERO DUP1 ISZERO PUSH2 0x3511 JUMPI RETURNDATASIZE PUSH1 0x0 DUP1 RETURNDATACOPY RETURNDATASIZE PUSH1 0x0 REVERT JUMPDEST POP POP POP POP PUSH1 0x40 MLOAD RETURNDATASIZE PUSH1 0x20 DUP2 LT ISZERO PUSH2 0x3527 JUMPI PUSH1 0x0 DUP1 REVERT JUMPDEST DUP2 ADD SWAP1 DUP1 DUP1 MLOAD SWAP1 PUSH1 0x20 ADD SWAP1 SWAP3 SWAP2 SWAP1 POP POP POP PUSH2 0x3858 SWAP1 SWAP2 SWAP1 PUSH4 0xFFFFFFFF AND JUMP JUMPDEST SWAP1 POP DUP5 PUSH20 0xFFFFFFFFFFFFFFFFFFFFFFFFFFFFFFFFFFFFFFFF AND PUSH4 0xF140A35A DUP3 DUP11 PUSH1 0x40 MLOAD DUP4 PUSH4 0xFFFFFFFF AND PUSH1 0xE0 SHL DUP2 MSTORE PUSH1 0x4 ADD DUP1 DUP4 DUP2 MSTORE PUSH1 0x20 ADD DUP3 PUSH20 0xFFFFFFFFFFFFFFFFFFFFFFFFFFFFFFFFFFFFFFFF AND PUSH20 0xFFFFFFFFFFFFFFFFFFFFFFFFFFFFFFFFFFFFFFFF AND DUP2 MSTORE PUSH1 0x20 ADD SWAP3 POP POP POP PUSH1 0x20 PUSH1 0x40 MLOAD DUP1 DUP4 SUB DUP2 DUP7 DUP1 EXTCODESIZE ISZERO DUP1 ISZERO PUSH2 0x35CD JUMPI PUSH1 0x0 DUP1 REVERT JUMPDEST POP GAS STATICCALL ISZERO DUP1 ISZERO PUSH2 0x35E1 JUMPI RETURNDATASIZE PUSH1 0x0 DUP1 RETURNDATACOPY RETURNDATASIZE PUSH1 0x0 REVERT JUMPDEST POP POP POP POP PUSH1 0x40 MLOAD RETURNDATASIZE PUSH1 0x20 DUP2 LT ISZERO PUSH2 0x35F7 JUMPI PUSH1 0x0 DUP1 REVERT JUMPDEST DUP2 ADD SWAP1 DUP1 DUP1 MLOAD SWAP1 PUSH1 0x20 ADD SWAP1 SWAP3 SWAP2 SWAP1 POP POP POP SWAP4 POP POP POP POP PUSH1 0x0 DUP1 DUP5 PUSH20 0xFFFFFFFFFFFFFFFFFFFFFFFFFFFFFFFFFFFFFFFF AND DUP8 PUSH20 0xFFFFFFFFFFFFFFFFFFFFFFFFFFFFFFFFFFFFFFFF AND EQ PUSH2 0x364B JUMPI DUP3 PUSH1 0x0 PUSH2 0x364F JUMP JUMPDEST PUSH1 0x0 DUP4 JUMPDEST SWAP2 POP SWAP2 POP PUSH1 0x0 PUSH1 0x2 DUP13 MLOAD SUB DUP10 LT PUSH2 0x3666 JUMPI DUP11 PUSH2 0x36A8 JUMP JUMPDEST PUSH2 0x36A7 PUSH32 0x0 DUP9 DUP15 PUSH1 0x2 DUP14 ADD DUP2 MLOAD DUP2 LT PUSH2 0x369A JUMPI INVALID JUMPDEST PUSH1 0x20 MUL PUSH1 0x20 ADD ADD MLOAD PUSH2 0x2FD8 JUMP JUMPDEST JUMPDEST SWAP1 POP DUP5 PUSH20 0xFFFFFFFFFFFFFFFFFFFFFFFFFFFFFFFFFFFFFFFF AND PUSH4 0x6E1FDD7F DUP5 DUP5 DUP5 PUSH1 0x0 PUSH8 0xFFFFFFFFFFFFFFFF DUP2 GT DUP1 ISZERO PUSH2 0x36E1 JUMPI PUSH1 0x0 DUP1 REVERT JUMPDEST POP PUSH1 0x40 MLOAD SWAP1 DUP1 DUP3 MSTORE DUP1 PUSH1 0x1F ADD PUSH1 0x1F NOT AND PUSH1 0x20 ADD DUP3 ADD PUSH1 0x40 MSTORE DUP1 ISZERO PUSH2 0x3714 JUMPI DUP2 PUSH1 0x20 ADD PUSH1 0x1 DUP3 MUL DUP1 CALLDATASIZE DUP4 CALLDATACOPY DUP1 DUP3 ADD SWAP2 POP POP SWAP1 POP JUMPDEST POP DUP16 PUSH1 0x40 MLOAD DUP7 PUSH4 0xFFFFFFFF AND PUSH1 0xE0 SHL DUP2 MSTORE PUSH1 0x4 ADD DUP1 DUP7 DUP2 MSTORE PUSH1 0x20 ADD DUP6 DUP2 MSTORE PUSH1 0x20 ADD DUP5 PUSH20 0xFFFFFFFFFFFFFFFFFFFFFFFFFFFFFFFFFFFFFFFF AND PUSH20 0xFFFFFFFFFFFFFFFFFFFFFFFFFFFFFFFFFFFFFFFF AND DUP2 MSTORE PUSH1 0x20 ADD DUP1 PUSH1 0x20 ADD DUP4 PUSH20 0xFFFFFFFFFFFFFFFFFFFFFFFFFFFFFFFFFFFFFFFF AND PUSH20 0xFFFFFFFFFFFFFFFFFFFFFFFFFFFFFFFFFFFFFFFF AND DUP2 MSTORE PUSH1 0x20 ADD DUP3 DUP2 SUB DUP3 MSTORE DUP5 DUP2 DUP2 MLOAD DUP2 MSTORE PUSH1 0x20 ADD SWAP2 POP DUP1 MLOAD SWAP1 PUSH1 0x20 ADD SWAP1 DUP1 DUP4 DUP4 PUSH1 0x0 JUMPDEST DUP4 DUP2 LT ISZERO PUSH2 0x37D5 JUMPI DUP1 DUP3 ADD MLOAD DUP2 DUP5 ADD MSTORE PUSH1 0x20 DUP2 ADD SWAP1 POP PUSH2 0x37BA JUMP JUMPDEST POP POP POP POP SWAP1 POP SWAP1 DUP2 ADD SWAP1 PUSH1 0x1F AND DUP1 ISZERO PUSH2 0x3802 JUMPI DUP1 DUP3 SUB DUP1 MLOAD PUSH1 0x1 DUP4 PUSH1 0x20 SUB PUSH2 0x100 EXP SUB NOT AND DUP2 MSTORE PUSH1 0x20 ADD SWAP2 POP JUMPDEST POP SWAP7 POP POP POP POP POP POP POP PUSH1 0x0 PUSH1 0x40 MLOAD DUP1 DUP4 SUB DUP2 PUSH1 0x0 DUP8 DUP1 EXTCODESIZE ISZERO DUP1 ISZERO PUSH2 0x3825 JUMPI PUSH1 0x0 DUP1 REVERT JUMPDEST POP GAS CALL ISZERO DUP1 ISZERO PUSH2 0x3839 JUMPI RETURNDATASIZE PUSH1 0x0 DUP1 RETURNDATACOPY RETURNDATASIZE PUSH1 0x0 REVERT JUMPDEST POP POP POP POP POP POP POP POP POP POP POP POP DUP1 DUP1 PUSH1 0x1 ADD SWAP2 POP POP PUSH2 0x32F6 JUMP JUMPDEST POP POP POP POP JUMP JUMPDEST PUSH1 0x0 DUP3 DUP3 DUP5 SUB SWAP2 POP DUP2 GT ISZERO PUSH2 0x38D5 JUMPI PUSH1 0x40 MLOAD PUSH32 0x8C379A000000000000000000000000000000000000000000000000000000000 DUP2 MSTORE PUSH1 0x4 ADD DUP1 DUP1 PUSH1 0x20 ADD DUP3 DUP2 SUB DUP3 MSTORE PUSH1 0x15 DUP2 MSTORE PUSH1 0x20 ADD DUP1 PUSH32 0x64732D6D6174682D7375622D756E646572666C6F770000000000000000000000 DUP2 MSTORE POP PUSH1 0x20 ADD SWAP2 POP POP PUSH1 0x40 MLOAD DUP1 SWAP2 SUB SWAP1 REVERT JUMPDEST SWAP3 SWAP2 POP POP JUMP JUMPDEST PUSH1 0x0 DUP1 DUP5 GT PUSH2 0x3935 JUMPI PUSH1 0x40 MLOAD PUSH32 0x8C379A000000000000000000000000000000000000000000000000000000000 DUP2 MSTORE PUSH1 0x4 ADD DUP1 DUP1 PUSH1 0x20 ADD DUP3 DUP2 SUB DUP3 MSTORE PUSH1 0x25 DUP2 MSTORE PUSH1 0x20 ADD DUP1 PUSH2 0x4419 PUSH1 0x25 SWAP2 CODECOPY PUSH1 0x40 ADD SWAP2 POP POP PUSH1 0x40 MLOAD DUP1 SWAP2 SUB SWAP1 REVERT JUMPDEST PUSH1 0x0 DUP4 GT DUP1 ISZERO PUSH2 0x3945 JUMPI POP PUSH1 0x0 DUP3 GT JUMPDEST PUSH2 0x399A JUMPI PUSH1 0x40 MLOAD PUSH32 0x8C379A000000000000000000000000000000000000000000000000000000000 DUP2 MSTORE PUSH1 0x4 ADD DUP1 DUP1 PUSH1 0x20 ADD DUP3 DUP2 SUB DUP3 MSTORE PUSH1 0x28 DUP2 MSTORE PUSH1 0x20 ADD DUP1 PUSH2 0x43F1 PUSH1 0x28 SWAP2 CODECOPY PUSH1 0x40 ADD SWAP2 POP POP PUSH1 0x40 MLOAD DUP1 SWAP2 SUB SWAP1 REVERT JUMPDEST DUP3 PUSH2 0x39AE DUP4 DUP7 PUSH2 0x4126 SWAP1 SWAP2 SWAP1 PUSH4 0xFFFFFFFF AND JUMP JUMPDEST DUP2 PUSH2 0x39B5 JUMPI INVALID JUMPDEST DIV SWAP1 POP SWAP4 SWAP3 POP POP POP JUMP JUMPDEST PUSH1 0x0 DUP1 DUP3 PUSH20 0xFFFFFFFFFFFFFFFFFFFFFFFFFFFFFFFFFFFFFFFF AND DUP5 PUSH20 0xFFFFFFFFFFFFFFFFFFFFFFFFFFFFFFFFFFFFFFFF AND EQ ISZERO PUSH2 0x3A47 JUMPI PUSH1 0x40 MLOAD PUSH32 0x8C379A000000000000000000000000000000000000000000000000000000000 DUP2 MSTORE PUSH1 0x4 ADD DUP1 DUP1 PUSH1 0x20 ADD DUP3 DUP2 SUB DUP3 MSTORE PUSH1 0x25 DUP2 MSTORE PUSH1 0x20 ADD DUP1 PUSH2 0x43A6 PUSH1 0x25 SWAP2 CODECOPY PUSH1 0x40 ADD SWAP2 POP POP PUSH1 0x40 MLOAD DUP1 SWAP2 SUB SWAP1 REVERT JUMPDEST DUP3 PUSH20 0xFFFFFFFFFFFFFFFFFFFFFFFFFFFFFFFFFFFFFFFF AND DUP5 PUSH20 0xFFFFFFFFFFFFFFFFFFFFFFFFFFFFFFFFFFFFFFFF AND LT PUSH2 0x3A81 JUMPI DUP3 DUP5 PUSH2 0x3A84 JUMP JUMPDEST DUP4 DUP4 JUMPDEST DUP1 SWAP3 POP DUP2 SWAP4 POP POP POP PUSH1 0x0 PUSH20 0xFFFFFFFFFFFFFFFFFFFFFFFFFFFFFFFFFFFFFFFF AND DUP3 PUSH20 0xFFFFFFFFFFFFFFFFFFFFFFFFFFFFFFFFFFFFFFFF AND EQ ISZERO PUSH2 0x3B2F JUMPI PUSH1 0x40 MLOAD PUSH32 0x8C379A000000000000000000000000000000000000000000000000000000000 DUP2 MSTORE PUSH1 0x4 ADD DUP1 DUP1 PUSH1 0x20 ADD DUP3 DUP2 SUB DUP3 MSTORE PUSH1 0x1E DUP2 MSTORE PUSH1 0x20 ADD DUP1 PUSH32 0x556E697377617056324C6962726172793A205A45524F5F414444524553530000 DUP2 MSTORE POP PUSH1 0x20 ADD SWAP2 POP POP PUSH1 0x40 MLOAD DUP1 SWAP2 SUB SWAP1 REVERT JUMPDEST SWAP3 POP SWAP3 SWAP1 POP JUMP JUMPDEST PUSH1 0x60 PUSH1 0x2 DUP3 MLOAD LT ISZERO PUSH2 0x3BB0 JUMPI PUSH1 0x40 MLOAD PUSH32 0x8C379A000000000000000000000000000000000000000000000000000000000 DUP2 MSTORE PUSH1 0x4 ADD DUP1 DUP1 PUSH1 0x20 ADD DUP3 DUP2 SUB DUP3 MSTORE PUSH1 0x1E DUP2 MSTORE PUSH1 0x20 ADD DUP1 PUSH32 0x556E697377617056324C6962726172793A20494E56414C49445F504154480000 DUP2 MSTORE POP PUSH1 0x20 ADD SWAP2 POP POP PUSH1 0x40 MLOAD DUP1 SWAP2 SUB SWAP1 REVERT JUMPDEST DUP2 MLOAD PUSH8 0xFFFFFFFFFFFFFFFF DUP2 GT DUP1 ISZERO PUSH2 0x3BC8 JUMPI PUSH1 0x0 DUP1 REVERT JUMPDEST POP PUSH1 0x40 MLOAD SWAP1 DUP1 DUP3 MSTORE DUP1 PUSH1 0x20 MUL PUSH1 0x20 ADD DUP3 ADD PUSH1 0x40 MSTORE DUP1 ISZERO PUSH2 0x3BF7 JUMPI DUP2 PUSH1 0x20 ADD PUSH1 0x20 DUP3 MUL DUP1 CALLDATASIZE DUP4 CALLDATACOPY DUP1 DUP3 ADD SWAP2 POP POP SWAP1 POP JUMPDEST POP SWAP1 POP DUP3 DUP2 PUSH1 0x0 DUP2 MLOAD DUP2 LT PUSH2 0x3C08 JUMPI INVALID JUMPDEST PUSH1 0x20 MUL PUSH1 0x20 ADD ADD DUP2 DUP2 MSTORE POP POP PUSH1 0x0 JUMPDEST PUSH1 0x1 DUP4 MLOAD SUB DUP2 LT ISZERO PUSH2 0x3D6A JUMPI PUSH1 0x0 PUSH2 0x3C59 DUP7 DUP6 DUP5 DUP2 MLOAD DUP2 LT PUSH2 0x3C35 JUMPI INVALID JUMPDEST PUSH1 0x20 MUL PUSH1 0x20 ADD ADD MLOAD DUP7 PUSH1 0x1 DUP7 ADD DUP2 MLOAD DUP2 LT PUSH2 0x3C4C JUMPI INVALID JUMPDEST PUSH1 0x20 MUL PUSH1 0x20 ADD ADD MLOAD PUSH2 0x2FD8 JUMP JUMPDEST SWAP1 POP DUP1 PUSH20 0xFFFFFFFFFFFFFFFFFFFFFFFFFFFFFFFFFFFFFFFF AND PUSH4 0xF140A35A DUP5 DUP5 DUP2 MLOAD DUP2 LT PUSH2 0x3C83 JUMPI INVALID JUMPDEST PUSH1 0x20 MUL PUSH1 0x20 ADD ADD MLOAD DUP7 DUP6 DUP2 MLOAD DUP2 LT PUSH2 0x3C97 JUMPI INVALID JUMPDEST PUSH1 0x20 MUL PUSH1 0x20 ADD ADD MLOAD PUSH1 0x40 MLOAD DUP4 PUSH4 0xFFFFFFFF AND PUSH1 0xE0 SHL DUP2 MSTORE PUSH1 0x4 ADD DUP1 DUP4 DUP2 MSTORE PUSH1 0x20 ADD DUP3 PUSH20 0xFFFFFFFFFFFFFFFFFFFFFFFFFFFFFFFFFFFFFFFF AND PUSH20 0xFFFFFFFFFFFFFFFFFFFFFFFFFFFFFFFFFFFFFFFF AND DUP2 MSTORE PUSH1 0x20 ADD SWAP3 POP POP POP PUSH1 0x20 PUSH1 0x40 MLOAD DUP1 DUP4 SUB DUP2 DUP7 DUP1 EXTCODESIZE ISZERO DUP1 ISZERO PUSH2 0x3D06 JUMPI PUSH1 0x0 DUP1 REVERT JUMPDEST POP GAS STATICCALL ISZERO DUP1 ISZERO PUSH2 0x3D1A JUMPI RETURNDATASIZE PUSH1 0x0 DUP1 RETURNDATACOPY RETURNDATASIZE PUSH1 0x0 REVERT JUMPDEST POP POP POP POP PUSH1 0x40 MLOAD RETURNDATASIZE PUSH1 0x20 DUP2 LT ISZERO PUSH2 0x3D30 JUMPI PUSH1 0x0 DUP1 REVERT JUMPDEST DUP2 ADD SWAP1 DUP1 DUP1 MLOAD SWAP1 PUSH1 0x20 ADD SWAP1 SWAP3 SWAP2 SWAP1 POP POP POP DUP4 PUSH1 0x1 DUP5 ADD DUP2 MLOAD DUP2 LT PUSH2 0x3D50 JUMPI INVALID JUMPDEST PUSH1 0x20 MUL PUSH1 0x20 ADD ADD DUP2 DUP2 MSTORE POP POP POP DUP1 DUP1 PUSH1 0x1 ADD SWAP2 POP POP PUSH2 0x3C17 JUMP JUMPDEST POP SWAP4 SWAP3 POP POP POP JUMP JUMPDEST PUSH1 0x0 DUP1 PUSH1 0x0 PUSH20 0xFFFFFFFFFFFFFFFFFFFFFFFFFFFFFFFFFFFFFFFF AND PUSH32 0x0 PUSH20 0xFFFFFFFFFFFFFFFFFFFFFFFFFFFFFFFFFFFFFFFF AND PUSH4 0xE6A43905 DUP11 DUP11 PUSH1 0x40 MLOAD DUP4 PUSH4 0xFFFFFFFF AND PUSH1 0xE0 SHL DUP2 MSTORE PUSH1 0x4 ADD DUP1 DUP4 PUSH20 0xFFFFFFFFFFFFFFFFFFFFFFFFFFFFFFFFFFFFFFFF AND PUSH20 0xFFFFFFFFFFFFFFFFFFFFFFFFFFFFFFFFFFFFFFFF AND DUP2 MSTORE PUSH1 0x20 ADD DUP3 PUSH20 0xFFFFFFFFFFFFFFFFFFFFFFFFFFFFFFFFFFFFFFFF AND PUSH20 0xFFFFFFFFFFFFFFFFFFFFFFFFFFFFFFFFFFFFFFFF AND DUP2 MSTORE PUSH1 0x20 ADD SWAP3 POP POP POP PUSH1 0x20 PUSH1 0x40 MLOAD DUP1 DUP4 SUB DUP2 DUP7 DUP1 EXTCODESIZE ISZERO DUP1 ISZERO PUSH2 0x3E5E JUMPI PUSH1 0x0 DUP1 REVERT JUMPDEST POP GAS STATICCALL ISZERO DUP1 ISZERO PUSH2 0x3E72 JUMPI RETURNDATASIZE PUSH1 0x0 DUP1 RETURNDATACOPY RETURNDATASIZE PUSH1 0x0 REVERT JUMPDEST POP POP POP POP PUSH1 0x40 MLOAD RETURNDATASIZE PUSH1 0x20 DUP2 LT ISZERO PUSH2 0x3E88 JUMPI PUSH1 0x0 DUP1 REVERT JUMPDEST DUP2 ADD SWAP1 DUP1 DUP1 MLOAD SWAP1 PUSH1 0x20 ADD SWAP1 SWAP3 SWAP2 SWAP1 POP POP POP PUSH20 0xFFFFFFFFFFFFFFFFFFFFFFFFFFFFFFFFFFFFFFFF AND EQ ISZERO PUSH2 0x3FC5 JUMPI PUSH32 0x0 PUSH20 0xFFFFFFFFFFFFFFFFFFFFFFFFFFFFFFFFFFFFFFFF AND PUSH4 0xC9C65396 DUP10 DUP10 PUSH1 0x40 MLOAD DUP4 PUSH4 0xFFFFFFFF AND PUSH1 0xE0 SHL DUP2 MSTORE PUSH1 0x4 ADD DUP1 DUP4 PUSH20 0xFFFFFFFFFFFFFFFFFFFFFFFFFFFFFFFFFFFFFFFF AND PUSH20 0xFFFFFFFFFFFFFFFFFFFFFFFFFFFFFFFFFFFFFFFF AND DUP2 MSTORE PUSH1 0x20 ADD DUP3 PUSH20 0xFFFFFFFFFFFFFFFFFFFFFFFFFFFFFFFFFFFFFFFF AND PUSH20 0xFFFFFFFFFFFFFFFFFFFFFFFFFFFFFFFFFFFFFFFF AND DUP2 MSTORE PUSH1 0x20 ADD SWAP3 POP POP POP PUSH1 0x20 PUSH1 0x40 MLOAD DUP1 DUP4 SUB DUP2 PUSH1 0x0 DUP8 DUP1 EXTCODESIZE ISZERO DUP1 ISZERO PUSH2 0x3F88 JUMPI PUSH1 0x0 DUP1 REVERT JUMPDEST POP GAS CALL ISZERO DUP1 ISZERO PUSH2 0x3F9C JUMPI RETURNDATASIZE PUSH1 0x0 DUP1 RETURNDATACOPY RETURNDATASIZE PUSH1 0x0 REVERT JUMPDEST POP POP POP POP PUSH1 0x40 MLOAD RETURNDATASIZE PUSH1 0x20 DUP2 LT ISZERO PUSH2 0x3FB2 JUMPI PUSH1 0x0 DUP1 REVERT JUMPDEST DUP2 ADD SWAP1 DUP1 DUP1 MLOAD SWAP1 PUSH1 0x20 ADD SWAP1 SWAP3 SWAP2 SWAP1 POP POP POP POP JUMPDEST PUSH1 0x0 DUP1 PUSH2 0x3FF3 PUSH32 0x0 DUP12 DUP12 PUSH2 0x41BB JUMP JUMPDEST SWAP2 POP SWAP2 POP PUSH1 0x0 DUP3 EQ DUP1 ISZERO PUSH2 0x4007 JUMPI POP PUSH1 0x0 DUP2 EQ JUMPDEST ISZERO PUSH2 0x401B JUMPI DUP8 DUP8 DUP1 SWAP5 POP DUP2 SWAP6 POP POP POP PUSH2 0x4119 JUMP JUMPDEST PUSH1 0x0 PUSH2 0x4028 DUP10 DUP5 DUP5 PUSH2 0x38DB JUMP JUMPDEST SWAP1 POP DUP8 DUP2 GT PUSH2 0x4099 JUMPI DUP6 DUP2 LT ISZERO PUSH2 0x408A JUMPI PUSH1 0x40 MLOAD PUSH32 0x8C379A000000000000000000000000000000000000000000000000000000000 DUP2 MSTORE PUSH1 0x4 ADD DUP1 DUP1 PUSH1 0x20 ADD DUP3 DUP2 SUB DUP3 MSTORE PUSH1 0x26 DUP2 MSTORE PUSH1 0x20 ADD DUP1 PUSH2 0x43CB PUSH1 0x26 SWAP2 CODECOPY PUSH1 0x40 ADD SWAP2 POP POP PUSH1 0x40 MLOAD DUP1 SWAP2 SUB SWAP1 REVERT JUMPDEST DUP9 DUP2 DUP1 SWAP6 POP DUP2 SWAP7 POP POP POP PUSH2 0x4117 JUMP JUMPDEST PUSH1 0x0 PUSH2 0x40A6 DUP10 DUP5 DUP7 PUSH2 0x38DB JUMP JUMPDEST SWAP1 POP DUP10 DUP2 GT ISZERO PUSH2 0x40B2 JUMPI INVALID JUMPDEST DUP8 DUP2 LT ISZERO PUSH2 0x410B JUMPI PUSH1 0x40 MLOAD PUSH32 0x8C379A000000000000000000000000000000000000000000000000000000000 DUP2 MSTORE PUSH1 0x4 ADD DUP1 DUP1 PUSH1 0x20 ADD DUP3 DUP2 SUB DUP3 MSTORE PUSH1 0x26 DUP2 MSTORE PUSH1 0x20 ADD DUP1 PUSH2 0x4380 PUSH1 0x26 SWAP2 CODECOPY PUSH1 0x40 ADD SWAP2 POP POP PUSH1 0x40 MLOAD DUP1 SWAP2 SUB SWAP1 REVERT JUMPDEST DUP1 DUP10 DUP1 SWAP7 POP DUP2 SWAP8 POP POP POP POP JUMPDEST POP JUMPDEST POP POP SWAP7 POP SWAP7 SWAP5 POP POP POP POP POP JUMP JUMPDEST PUSH1 0x0 DUP1 DUP3 EQ DUP1 PUSH2 0x4143 JUMPI POP DUP3 DUP3 DUP4 DUP6 MUL SWAP3 POP DUP3 DUP2 PUSH2 0x4140 JUMPI INVALID JUMPDEST DIV EQ JUMPDEST PUSH2 0x41B5 JUMPI PUSH1 0x40 MLOAD PUSH32 0x8C379A000000000000000000000000000000000000000000000000000000000 DUP2 MSTORE PUSH1 0x4 ADD DUP1 DUP1 PUSH1 0x20 ADD DUP3 DUP2 SUB DUP3 MSTORE PUSH1 0x14 DUP2 MSTORE PUSH1 0x20 ADD DUP1 PUSH32 0x64732D6D6174682D6D756C2D6F766572666C6F77000000000000000000000000 DUP2 MSTORE POP PUSH1 0x20 ADD SWAP2 POP POP PUSH1 0x40 MLOAD DUP1 SWAP2 SUB SWAP1 REVERT JUMPDEST SWAP3 SWAP2 POP POP JUMP JUMPDEST PUSH1 0x0 DUP1 PUSH1 0x0 PUSH2 0x41CA DUP6 DUP6 PUSH2 0x39BF JUMP JUMPDEST POP SWAP1 POP PUSH1 0x0 DUP1 PUSH2 0x41DB DUP9 DUP9 DUP9 PUSH2 0x2FD8 JUMP JUMPDEST PUSH20 0xFFFFFFFFFFFFFFFFFFFFFFFFFFFFFFFFFFFFFFFF AND PUSH4 0x902F1AC PUSH1 0x40 MLOAD DUP2 PUSH4 0xFFFFFFFF AND PUSH1 0xE0 SHL DUP2 MSTORE PUSH1 0x4 ADD PUSH1 0x80 PUSH1 0x40 MLOAD DUP1 DUP4 SUB DUP2 DUP7 DUP1 EXTCODESIZE ISZERO DUP1 ISZERO PUSH2 0x4220 JUMPI PUSH1 0x0 DUP1 REVERT JUMPDEST POP GAS STATICCALL ISZERO DUP1 ISZERO PUSH2 0x4234 JUMPI RETURNDATASIZE PUSH1 0x0 DUP1 RETURNDATACOPY RETURNDATASIZE PUSH1 0x0 REVERT JUMPDEST POP POP POP POP PUSH1 0x40 MLOAD RETURNDATASIZE PUSH1 0x80 DUP2 LT ISZERO PUSH2 0x424A JUMPI PUSH1 0x0 DUP1 REVERT JUMPDEST DUP2 ADD SWAP1 DUP1 DUP1 MLOAD SWAP1 PUSH1 0x20 ADD SWAP1 SWAP3 SWAP2 SWAP1 DUP1 MLOAD SWAP1 PUSH1 0x20 ADD SWAP1 SWAP3 SWAP2 SWAP1 DUP1 MLOAD SWAP1 PUSH1 0x20 ADD SWAP1 SWAP3 SWAP2 SWAP1 DUP1 MLOAD SWAP1 PUSH1 0x20 ADD SWAP1 SWAP3 SWAP2 SWAP1 POP POP POP POP POP PUSH14 0xFFFFFFFFFFFFFFFFFFFFFFFFFFFF AND SWAP2 POP PUSH14 0xFFFFFFFFFFFFFFFFFFFFFFFFFFFF AND SWAP2 POP DUP3 PUSH20 0xFFFFFFFFFFFFFFFFFFFFFFFFFFFFFFFFFFFFFFFF AND DUP8 PUSH20 0xFFFFFFFFFFFFFFFFFFFFFFFFFFFFFFFFFFFFFFFF AND EQ PUSH2 0x42D9 JUMPI DUP1 DUP3 PUSH2 0x42DC JUMP JUMPDEST DUP2 DUP2 JUMPDEST DUP1 SWAP6 POP DUP2 SWAP7 POP POP POP POP POP POP SWAP4 POP SWAP4 SWAP2 POP POP JUMP INVALID GASLIMIT GAS 0x4B PUSH2 0x6C69 PUSH3 0x757252 PUSH16 0x757465723A20494E5355464649434945 0x4E SLOAD 0x5F 0x4F SSTORE SLOAD POP SSTORE SLOAD 0x5F COINBASE 0x4D 0x4F SSTORE 0x4E SLOAD SLOAD PUSH19 0x616E7366657248656C7065723A3A7472616E73 PUSH7 0x657246726F6D3A KECCAK256 PUSH21 0x72616E7366657246726F6D206661696C6564547261 PUSH15 0x7366657248656C7065723A3A736166 PUSH6 0x5472616E7366 PUSH6 0x724554483A20 GASLIMIT SLOAD 0x48 KECCAK256 PUSH21 0x72616E73666572206661696C6564455A4B616C6962 PUSH22 0x72526F757465723A20494E53554646494349454E545F COINBASE 0x5F COINBASE 0x4D 0x4F SSTORE 0x4E SLOAD SSTORE PUSH15 0x697377617056324C6962726172793A KECCAK256 0x49 DIFFICULTY GASLIMIT 0x4E SLOAD 0x49 NUMBER COINBASE 0x4C 0x5F COINBASE DIFFICULTY DIFFICULTY MSTORE GASLIMIT MSTORE8 MSTORE8 GASLIMIT MSTORE8 GASLIMIT GAS 0x4B PUSH2 0x6C69 PUSH3 0x757252 PUSH16 0x757465723A20494E5355464649434945 0x4E SLOAD 0x5F TIMESTAMP 0x5F COINBASE 0x4D 0x4F SSTORE 0x4E SLOAD SSTORE PUSH15 0x697377617056324C6962726172793A KECCAK256 0x49 0x4E MSTORE8 SSTORE CHAINID CHAINID 0x49 NUMBER 0x49 GASLIMIT 0x4E SLOAD 0x5F 0x4C 0x49 MLOAD SSTORE 0x49 DIFFICULTY 0x49 SLOAD MSIZE SSTORE PUSH15 0x697377617056324C6962726172793A KECCAK256 0x49 0x4E MSTORE8 SSTORE CHAINID CHAINID 0x49 NUMBER 0x49 GASLIMIT 0x4E SLOAD 0x5F COINBASE 0x4D 0x4F SSTORE 0x4E SLOAD SLOAD PUSH19 0x616E7366657248656C7065723A3A7361666554 PUSH19 0x616E736665723A207472616E73666572206661 PUSH10 0x6C6564A2646970667358 0x22 SLT KECCAK256 EXTCODECOPY 0x2C 0x2D CODESIZE 0xC8 SAR 0x4D 0xBD CALLVALUE SIGNEXTEND CALL CALLDATASIZE 0x2C 0xBD SMOD SWAP1 0xCF ORIGIN 0xB8 SLT SWAP15 0x28 0xD1 PUSH19 0x71CCE0EAFFEAB87864736F6C63430006060033 "
				},
				"gasEstimates": {
					"creation": {
						"codeDepositCost": "3513600",
						"executionCost": "infinite",
						"totalCost": "infinite"
					},
					"external": {
						"WETH()": "infinite",
						"addLiquidity(address,address,uint256,uint256,uint256,uint256,address,uint256)": "infinite",
						"addLiquidityETH(address,uint256,uint256,uint256,address,uint256)": "infinite",
						"factory()": "infinite",
						"getAmountsOut(uint256,address[])": "infinite",
						"getPair(address,address)": "infinite",
						"quote(uint256,uint256,uint256)": "infinite",
						"removeLiquidity(address,address,uint256,uint256,uint256,address,uint256)": "infinite",
						"removeLiquidityETH(address,uint256,uint256,uint256,address,uint256)": "infinite",
						"removeLiquidityETHSupportingFeeOnTransferTokens(address,uint256,uint256,uint256,address,uint256)": "infinite",
						"removeLiquidityETHWithPermit(address,uint256,uint256,uint256,address,uint256,bool,uint8,bytes32,bytes32)": "infinite",
						"removeLiquidityETHWithPermitSupportingFeeOnTransferTokens(address,uint256,uint256,uint256,address,uint256,bool,uint8,bytes32,bytes32)": "infinite",
						"removeLiquidityWithPermit(address,address,uint256,uint256,uint256,address,uint256,bool,uint8,bytes32,bytes32)": "infinite",
						"swapExactETHForTokensSupportingFeeOnTransferTokens(uint256,address[],address,address,uint256)": "infinite",
						"swapExactTokensForETHSupportingFeeOnTransferTokens(uint256,uint256,address[],address,address,uint256)": "infinite",
						"swapExactTokensForTokensSupportingFeeOnTransferTokens(uint256,uint256,address[],address,address,uint256)": "infinite"
					},
					"internal": {
						"_addLiquidity(address,address,uint256,uint256,uint256,uint256)": "infinite",
						"_swapSupportingFeeOnTransferTokens(address[] memory,address,address)": "infinite"
					}
				},
				"methodIdentifiers": {
					"WETH()": "ad5c4648",
					"addLiquidity(address,address,uint256,uint256,uint256,uint256,address,uint256)": "e8e33700",
					"addLiquidityETH(address,uint256,uint256,uint256,address,uint256)": "f305d719",
					"factory()": "c45a0155",
					"getAmountsOut(uint256,address[])": "d06ca61f",
					"getPair(address,address)": "e6a43905",
					"quote(uint256,uint256,uint256)": "ad615dec",
					"removeLiquidity(address,address,uint256,uint256,uint256,address,uint256)": "baa2abde",
					"removeLiquidityETH(address,uint256,uint256,uint256,address,uint256)": "02751cec",
					"removeLiquidityETHSupportingFeeOnTransferTokens(address,uint256,uint256,uint256,address,uint256)": "af2979eb",
					"removeLiquidityETHWithPermit(address,uint256,uint256,uint256,address,uint256,bool,uint8,bytes32,bytes32)": "ded9382a",
					"removeLiquidityETHWithPermitSupportingFeeOnTransferTokens(address,uint256,uint256,uint256,address,uint256,bool,uint8,bytes32,bytes32)": "5b0d5984",
					"removeLiquidityWithPermit(address,address,uint256,uint256,uint256,address,uint256,bool,uint8,bytes32,bytes32)": "2195995c",
					"swapExactETHForTokensSupportingFeeOnTransferTokens(uint256,address[],address,address,uint256)": "b4822be3",
					"swapExactTokensForETHSupportingFeeOnTransferTokens(uint256,uint256,address[],address,address,uint256)": "52aa4c22",
					"swapExactTokensForTokensSupportingFeeOnTransferTokens(uint256,uint256,address[],address,address,uint256)": "ac3893ba"
				}
			},
			"storageLayout": {
				"storage": [],
				"types": null
			},
			"userdoc": {
				"methods": {}
			}
		}
	}
}