{
	"contracts/ProtocolEarnings.sol": {
		"ProtocolEarnings": {
			"abi": [
				{
					"inputs": [
						{
							"internalType": "address",
							"name": "dividends",
							"type": "address"
						},
						{
							"internalType": "address",
							"name": "buyback",
							"type": "address"
						},
						{
							"internalType": "address",
							"name": "operating",
							"type": "address"
						}
					],
					"stateMutability": "nonpayable",
					"type": "constructor"
				},
				{
					"anonymous": false,
					"inputs": [
						{
							"indexed": false,
							"internalType": "contract IERC20",
							"name": "token",
							"type": "address"
						},
						{
							"indexed": false,
							"internalType": "uint256",
							"name": "dividendsAmount",
							"type": "uint256"
						},
						{
							"indexed": false,
							"internalType": "uint256",
							"name": "buybackAndBurnAmount",
							"type": "uint256"
						},
						{
							"indexed": false,
							"internalType": "uint256",
							"name": "operatingAmount",
							"type": "uint256"
						}
					],
					"name": "Distribute",
					"type": "event"
				},
				{
					"anonymous": false,
					"inputs": [
						{
							"indexed": true,
							"internalType": "address",
							"name": "previousOwner",
							"type": "address"
						},
						{
							"indexed": true,
							"internalType": "address",
							"name": "newOwner",
							"type": "address"
						}
					],
					"name": "OwnershipTransferred",
					"type": "event"
				},
				{
					"inputs": [],
					"name": "buybackAndBurnShare",
					"outputs": [
						{
							"internalType": "uint256",
							"name": "",
							"type": "uint256"
						}
					],
					"stateMutability": "view",
					"type": "function"
				},
				{
					"inputs": [],
					"name": "buybackAndBurnWallet",
					"outputs": [
						{
							"internalType": "address",
							"name": "",
							"type": "address"
						}
					],
					"stateMutability": "view",
					"type": "function"
				},
				{
					"inputs": [
						{
							"internalType": "contract IERC20",
							"name": "token",
							"type": "address"
						}
					],
					"name": "distributeShares",
					"outputs": [],
					"stateMutability": "nonpayable",
					"type": "function"
				},
				{
					"inputs": [],
					"name": "dividendsShare",
					"outputs": [
						{
							"internalType": "uint256",
							"name": "",
							"type": "uint256"
						}
					],
					"stateMutability": "view",
					"type": "function"
				},
				{
					"inputs": [],
					"name": "dividendsWallet",
					"outputs": [
						{
							"internalType": "address",
							"name": "",
							"type": "address"
						}
					],
					"stateMutability": "view",
					"type": "function"
				},
				{
					"inputs": [],
					"name": "operatingFundsWallet",
					"outputs": [
						{
							"internalType": "address",
							"name": "",
							"type": "address"
						}
					],
					"stateMutability": "view",
					"type": "function"
				},
				{
					"inputs": [],
					"name": "owner",
					"outputs": [
						{
							"internalType": "address",
							"name": "",
							"type": "address"
						}
					],
					"stateMutability": "view",
					"type": "function"
				},
				{
					"inputs": [],
					"name": "renounceOwnership",
					"outputs": [],
					"stateMutability": "nonpayable",
					"type": "function"
				},
				{
					"inputs": [
						{
							"internalType": "contract IERC20",
							"name": "token",
							"type": "address"
						},
						{
							"internalType": "address",
							"name": "to",
							"type": "address"
						}
					],
					"name": "safeEmergencyWithdraw",
					"outputs": [],
					"stateMutability": "nonpayable",
					"type": "function"
				},
				{
					"inputs": [],
					"name": "sharePrecision",
					"outputs": [
						{
							"internalType": "uint256",
							"name": "",
							"type": "uint256"
						}
					],
					"stateMutability": "view",
					"type": "function"
				},
				{
					"inputs": [
						{
							"internalType": "address",
							"name": "newOwner",
							"type": "address"
						}
					],
					"name": "transferOwnership",
					"outputs": [],
					"stateMutability": "nonpayable",
					"type": "function"
				},
				{
					"inputs": [
						{
							"internalType": "address",
							"name": "newWallet",
							"type": "address"
						}
					],
					"name": "updateBuybackAndBurnWallet",
					"outputs": [],
					"stateMutability": "nonpayable",
					"type": "function"
				},
				{
					"inputs": [
						{
							"internalType": "address",
							"name": "newWallet",
							"type": "address"
						}
					],
					"name": "updateDevelopmentFundsWallet",
					"outputs": [],
					"stateMutability": "nonpayable",
					"type": "function"
				},
				{
					"inputs": [
						{
							"internalType": "address",
							"name": "newWallet",
							"type": "address"
						}
					],
					"name": "updateDividendsWallet",
					"outputs": [],
					"stateMutability": "nonpayable",
					"type": "function"
				},
				{
					"inputs": [
						{
							"internalType": "uint256",
							"name": "dividendsShare_",
							"type": "uint256"
						},
						{
							"internalType": "uint256",
							"name": "buybackAndBurnShare_",
							"type": "uint256"
						}
					],
					"name": "updateShares",
					"outputs": [],
					"stateMutability": "nonpayable",
					"type": "function"
				}
			],
			"devdoc": {
				"kind": "dev",
				"methods": {
					"owner()": {
						"details": "Returns the address of the current owner."
					},
					"renounceOwnership()": {
						"details": "Leaves the contract without owner. It will not be possible to call `onlyOwner` functions. Can only be called by the current owner. NOTE: Renouncing ownership will leave the contract without an owner, thereby disabling any functionality that is only available to the owner."
					},
					"transferOwnership(address)": {
						"details": "Transfers ownership of the contract to a new account (`newOwner`). Can only be called by the current owner."
					}
				},
				"version": 1
			},
			"evm": {
				"assembly": "    /* \"contracts/ProtocolEarnings.sol\":155:2501  contract ProtocolEarnings is Ownable {... */\n  mstore(0x40, 0x80)\n    /* \"contracts/ProtocolEarnings.sol\":452:456  6250 */\n  0x186a\n    /* \"contracts/ProtocolEarnings.sol\":420:456  uint256 public dividendsShare = 6250 */\n  0x04\n  sstore\n    /* \"contracts/ProtocolEarnings.sol\":497:501  2500 */\n  0x09c4\n    /* \"contracts/ProtocolEarnings.sol\":460:501  uint256 public buybackAndBurnShare = 2500 */\n  0x05\n  sstore\n    /* \"contracts/ProtocolEarnings.sol\":506:686  constructor (address dividends, address buyback, address operating) {... */\n  callvalue\n  dup1\n  iszero\n  tag_1\n  jumpi\n  0x00\n  dup1\n  revert\ntag_1:\n  pop\n  mload(0x40)\n  sub(codesize, bytecodeSize)\n  dup1\n  bytecodeSize\n  dup4\n  codecopy\n  dup2\n  dup2\n  add\n  0x40\n  mstore\n  0x60\n  dup2\n  lt\n  iszero\n  tag_2\n  jumpi\n  0x00\n  dup1\n  revert\ntag_2:\n  dup2\n  add\n  swap1\n  dup1\n  dup1\n  mload\n  swap1\n  0x20\n  add\n  swap1\n  swap3\n  swap2\n  swap1\n  dup1\n  mload\n  swap1\n  0x20\n  add\n  swap1\n  swap3\n  swap2\n  swap1\n  dup1\n  mload\n  swap1\n  0x20\n  add\n  swap1\n  swap3\n  swap2\n  swap1\n  pop\n  pop\n  pop\n    /* \"contracts/access/Ownable.sol\":940:972  _transferOwnership(_msgSender()) */\n  tag_6\n    /* \"contracts/access/Ownable.sol\":959:971  _msgSender() */\n  tag_7\n    /* \"contracts/access/Ownable.sol\":959:969  _msgSender */\n  shl(0x20, tag_8)\n    /* \"contracts/access/Ownable.sol\":959:971  _msgSender() */\n  0x20\n  shr\n  jump\t// in\ntag_7:\n    /* \"contracts/access/Ownable.sol\":940:958  _transferOwnership */\n  shl(0x20, tag_9)\n    /* \"contracts/access/Ownable.sol\":940:972  _transferOwnership(_msgSender()) */\n  0x20\n  shr\n  jump\t// in\ntag_6:\n    /* \"contracts/ProtocolEarnings.sol\":598:607  dividends */\n  dup3\n    /* \"contracts/ProtocolEarnings.sol\":580:595  dividendsWallet */\n  0x01\n  0x00\n    /* \"contracts/ProtocolEarnings.sol\":580:607  dividendsWallet = dividends */\n  0x0100\n  exp\n  dup2\n  sload\n  dup2\n  0xffffffffffffffffffffffffffffffffffffffff\n  mul\n  not\n  and\n  swap1\n  dup4\n  0xffffffffffffffffffffffffffffffffffffffff\n  and\n  mul\n  or\n  swap1\n  sstore\n  pop\n    /* \"contracts/ProtocolEarnings.sol\":636:643  buyback */\n  dup2\n    /* \"contracts/ProtocolEarnings.sol\":613:633  buybackAndBurnWallet */\n  0x02\n  0x00\n    /* \"contracts/ProtocolEarnings.sol\":613:643  buybackAndBurnWallet = buyback */\n  0x0100\n  exp\n  dup2\n  sload\n  dup2\n  0xffffffffffffffffffffffffffffffffffffffff\n  mul\n  not\n  and\n  swap1\n  dup4\n  0xffffffffffffffffffffffffffffffffffffffff\n  and\n  mul\n  or\n  swap1\n  sstore\n  pop\n    /* \"contracts/ProtocolEarnings.sol\":672:681  operating */\n  dup1\n    /* \"contracts/ProtocolEarnings.sol\":649:669  operatingFundsWallet */\n  0x03\n  0x00\n    /* \"contracts/ProtocolEarnings.sol\":649:681  operatingFundsWallet = operating */\n  0x0100\n  exp\n  dup2\n  sload\n  dup2\n  0xffffffffffffffffffffffffffffffffffffffff\n  mul\n  not\n  and\n  swap1\n  dup4\n  0xffffffffffffffffffffffffffffffffffffffff\n  and\n  mul\n  or\n  swap1\n  sstore\n  pop\n    /* \"contracts/ProtocolEarnings.sol\":506:686  constructor (address dividends, address buyback, address operating) {... */\n  pop\n  pop\n  pop\n    /* \"contracts/ProtocolEarnings.sol\":155:2501  contract ProtocolEarnings is Ownable {... */\n  jump(tag_11)\n    /* \"contracts/libraries/Context.sol\":598:702  function _msgSender() internal view virtual returns (address payable) {... */\ntag_8:\n    /* \"contracts/libraries/Context.sol\":651:666  address payable */\n  0x00\n    /* \"contracts/libraries/Context.sol\":685:695  msg.sender */\n  caller\n    /* \"contracts/libraries/Context.sol\":678:695  return msg.sender */\n  swap1\n  pop\n    /* \"contracts/libraries/Context.sol\":598:702  function _msgSender() internal view virtual returns (address payable) {... */\n  swap1\n  jump\t// out\n    /* \"contracts/access/Ownable.sol\":2430:2617  function _transferOwnership(address newOwner) internal virtual {... */\ntag_9:\n    /* \"contracts/access/Ownable.sol\":2503:2519  address oldOwner */\n  0x00\n    /* \"contracts/access/Ownable.sol\":2522:2528  _owner */\n  dup1\n  0x00\n  swap1\n  sload\n  swap1\n  0x0100\n  exp\n  swap1\n  div\n  0xffffffffffffffffffffffffffffffffffffffff\n  and\n    /* \"contracts/access/Ownable.sol\":2503:2528  address oldOwner = _owner */\n  swap1\n  pop\n    /* \"contracts/access/Ownable.sol\":2547:2555  newOwner */\n  dup2\n    /* \"contracts/access/Ownable.sol\":2538:2544  _owner */\n  0x00\n  dup1\n    /* \"contracts/access/Ownable.sol\":2538:2555  _owner = newOwner */\n  0x0100\n  exp\n  dup2\n  sload\n  dup2\n  0xffffffffffffffffffffffffffffffffffffffff\n  mul\n  not\n  and\n  swap1\n  dup4\n  0xffffffffffffffffffffffffffffffffffffffff\n  and\n  mul\n  or\n  swap1\n  sstore\n  pop\n    /* \"contracts/access/Ownable.sol\":2601:2609  newOwner */\n  dup2\n    /* \"contracts/access/Ownable.sol\":2570:2610  OwnershipTransferred(oldOwner, newOwner) */\n  0xffffffffffffffffffffffffffffffffffffffff\n  and\n    /* \"contracts/access/Ownable.sol\":2591:2599  oldOwner */\n  dup2\n    /* \"contracts/access/Ownable.sol\":2570:2610  OwnershipTransferred(oldOwner, newOwner) */\n  0xffffffffffffffffffffffffffffffffffffffff\n  and\n  0x8be0079c531659141344cd1fd0a4f28419497f9722a3daafe3b4186f6b6457e0\n  mload(0x40)\n  mload(0x40)\n  dup1\n  swap2\n  sub\n  swap1\n  log3\n    /* \"contracts/access/Ownable.sol\":2430:2617  function _transferOwnership(address newOwner) internal virtual {... */\n  pop\n  pop\n  jump\t// out\n    /* \"contracts/ProtocolEarnings.sol\":155:2501  contract ProtocolEarnings is Ownable {... */\ntag_11:\n  dataSize(sub_0)\n  dup1\n  dataOffset(sub_0)\n  0x00\n  codecopy\n  0x00\n  return\nstop\n\nsub_0: assembly {\n        /* \"contracts/ProtocolEarnings.sol\":155:2501  contract ProtocolEarnings is Ownable {... */\n      mstore(0x40, 0x80)\n      callvalue\n      dup1\n      iszero\n      tag_1\n      jumpi\n      0x00\n      dup1\n      revert\n    tag_1:\n      pop\n      jumpi(tag_2, lt(calldatasize, 0x04))\n      shr(0xe0, calldataload(0x00))\n      dup1\n      0x715018a6\n      gt\n      tag_18\n      jumpi\n      dup1\n      0x9bafaaa4\n      gt\n      tag_19\n      jumpi\n      dup1\n      0x9bafaaa4\n      eq\n      tag_14\n      jumpi\n      dup1\n      0xdc308193\n      eq\n      tag_15\n      jumpi\n      dup1\n      0xe2c8dd34\n      eq\n      tag_16\n      jumpi\n      dup1\n      0xf2fde38b\n      eq\n      tag_17\n      jumpi\n      jump(tag_2)\n    tag_19:\n      dup1\n      0x715018a6\n      eq\n      tag_10\n      jumpi\n      dup1\n      0x7500412b\n      eq\n      tag_11\n      jumpi\n      dup1\n      0x86df07ba\n      eq\n      tag_12\n      jumpi\n      dup1\n      0x8da5cb5b\n      eq\n      tag_13\n      jumpi\n      jump(tag_2)\n    tag_18:\n      dup1\n      0x327de06a\n      gt\n      tag_20\n      jumpi\n      dup1\n      0x327de06a\n      eq\n      tag_6\n      jumpi\n      dup1\n      0x3f428adc\n      eq\n      tag_7\n      jumpi\n      dup1\n      0x541effc3\n      eq\n      tag_8\n      jumpi\n      dup1\n      0x64790208\n      eq\n      tag_9\n      jumpi\n      jump(tag_2)\n    tag_20:\n      dup1\n      0x0481531d\n      eq\n      tag_3\n      jumpi\n      dup1\n      0x1efee6be\n      eq\n      tag_4\n      jumpi\n      dup1\n      0x2ab8fc1e\n      eq\n      tag_5\n      jumpi\n    tag_2:\n      0x00\n      dup1\n      revert\n        /* \"contracts/ProtocolEarnings.sol\":805:976  function updateBuybackAndBurnWallet(address newWallet) external onlyOwner {... */\n    tag_3:\n      tag_21\n      0x04\n      dup1\n      calldatasize\n      sub\n      0x20\n      dup2\n      lt\n      iszero\n      tag_22\n      jumpi\n      0x00\n      dup1\n      revert\n    tag_22:\n      dup2\n      add\n      swap1\n      dup1\n      dup1\n      calldataload\n      0xffffffffffffffffffffffffffffffffffffffff\n      and\n      swap1\n      0x20\n      add\n      swap1\n      swap3\n      swap2\n      swap1\n      pop\n      pop\n      pop\n      tag_23\n      jump\t// in\n    tag_21:\n      stop\n        /* \"contracts/ProtocolEarnings.sol\":370:416  uint256 public constant sharePrecision = 10000 */\n    tag_4:\n      tag_24\n      tag_25\n      jump\t// in\n    tag_24:\n      mload(0x40)\n      dup1\n      dup3\n      dup2\n      mstore\n      0x20\n      add\n      swap2\n      pop\n      pop\n      mload(0x40)\n      dup1\n      swap2\n      sub\n      swap1\n      return\n        /* \"contracts/ProtocolEarnings.sol\":330:365  address public operatingFundsWallet */\n    tag_5:\n      tag_26\n      tag_27\n      jump\t// in\n    tag_26:\n      mload(0x40)\n      dup1\n      dup3\n      0xffffffffffffffffffffffffffffffffffffffff\n      and\n      dup2\n      mstore\n      0x20\n      add\n      swap2\n      pop\n      pop\n      mload(0x40)\n      dup1\n      swap2\n      sub\n      swap1\n      return\n        /* \"contracts/ProtocolEarnings.sol\":1157:1318  function updateDividendsWallet(address newWallet) external onlyOwner {... */\n    tag_6:\n      tag_28\n      0x04\n      dup1\n      calldatasize\n      sub\n      0x20\n      dup2\n      lt\n      iszero\n      tag_29\n      jumpi\n      0x00\n      dup1\n      revert\n    tag_29:\n      dup2\n      add\n      swap1\n      dup1\n      dup1\n      calldataload\n      0xffffffffffffffffffffffffffffffffffffffff\n      and\n      swap1\n      0x20\n      add\n      swap1\n      swap3\n      swap2\n      swap1\n      pop\n      pop\n      pop\n      tag_30\n      jump\t// in\n    tag_28:\n      stop\n        /* \"contracts/ProtocolEarnings.sol\":420:456  uint256 public dividendsShare = 6250 */\n    tag_7:\n      tag_31\n      tag_32\n      jump\t// in\n    tag_31:\n      mload(0x40)\n      dup1\n      dup3\n      dup2\n      mstore\n      0x20\n      add\n      swap2\n      pop\n      pop\n      mload(0x40)\n      dup1\n      swap2\n      sub\n      swap1\n      return\n        /* \"contracts/ProtocolEarnings.sol\":460:501  uint256 public buybackAndBurnShare = 2500 */\n    tag_8:\n      tag_33\n      tag_34\n      jump\t// in\n    tag_33:\n      mload(0x40)\n      dup1\n      dup3\n      dup2\n      mstore\n      0x20\n      add\n      swap2\n      pop\n      pop\n      mload(0x40)\n      dup1\n      swap2\n      sub\n      swap1\n      return\n        /* \"contracts/ProtocolEarnings.sol\":2075:2354  function updateShares(uint256 dividendsShare_, uint256 buybackAndBurnShare_) external onlyOwner {... */\n    tag_9:\n      tag_35\n      0x04\n      dup1\n      calldatasize\n      sub\n      0x40\n      dup2\n      lt\n      iszero\n      tag_36\n      jumpi\n      0x00\n      dup1\n      revert\n    tag_36:\n      dup2\n      add\n      swap1\n      dup1\n      dup1\n      calldataload\n      swap1\n      0x20\n      add\n      swap1\n      swap3\n      swap2\n      swap1\n      dup1\n      calldataload\n      swap1\n      0x20\n      add\n      swap1\n      swap3\n      swap2\n      swap1\n      pop\n      pop\n      pop\n      tag_37\n      jump\t// in\n    tag_35:\n      stop\n        /* \"contracts/access/Ownable.sol\":1828:1929  function renounceOwnership() public virtual onlyOwner {... */\n    tag_10:\n      tag_38\n      tag_39\n      jump\t// in\n    tag_38:\n      stop\n        /* \"contracts/ProtocolEarnings.sol\":2358:2499  function safeEmergencyWithdraw(IERC20 token, address to) external onlyOwner {... */\n    tag_11:\n      tag_40\n      0x04\n      dup1\n      calldatasize\n      sub\n      0x40\n      dup2\n      lt\n      iszero\n      tag_41\n      jumpi\n      0x00\n      dup1\n      revert\n    tag_41:\n      dup2\n      add\n      swap1\n      dup1\n      dup1\n      calldataload\n      0xffffffffffffffffffffffffffffffffffffffff\n      and\n      swap1\n      0x20\n      add\n      swap1\n      swap3\n      swap2\n      swap1\n      dup1\n      calldataload\n      0xffffffffffffffffffffffffffffffffffffffff\n      and\n      swap1\n      0x20\n      add\n      swap1\n      swap3\n      swap2\n      swap1\n      pop\n      pop\n      pop\n      tag_42\n      jump\t// in\n    tag_40:\n      stop\n        /* \"contracts/ProtocolEarnings.sol\":980:1153  function updateDevelopmentFundsWallet(address newWallet) external onlyOwner {... */\n    tag_12:\n      tag_43\n      0x04\n      dup1\n      calldatasize\n      sub\n      0x20\n      dup2\n      lt\n      iszero\n      tag_44\n      jumpi\n      0x00\n      dup1\n      revert\n    tag_44:\n      dup2\n      add\n      swap1\n      dup1\n      dup1\n      calldataload\n      0xffffffffffffffffffffffffffffffffffffffff\n      and\n      swap1\n      0x20\n      add\n      swap1\n      swap3\n      swap2\n      swap1\n      pop\n      pop\n      pop\n      tag_45\n      jump\t// in\n    tag_43:\n      stop\n        /* \"contracts/access/Ownable.sol\":1205:1290  function owner() public view virtual returns (address) {... */\n    tag_13:\n      tag_46\n      tag_47\n      jump\t// in\n    tag_46:\n      mload(0x40)\n      dup1\n      dup3\n      0xffffffffffffffffffffffffffffffffffffffff\n      and\n      dup2\n      mstore\n      0x20\n      add\n      swap2\n      pop\n      pop\n      mload(0x40)\n      dup1\n      swap2\n      sub\n      swap1\n      return\n        /* \"contracts/ProtocolEarnings.sol\":1322:2071  function distributeShares(IERC20 token) external onlyOwner {... */\n    tag_14:\n      tag_48\n      0x04\n      dup1\n      calldatasize\n      sub\n      0x20\n      dup2\n      lt\n      iszero\n      tag_49\n      jumpi\n      0x00\n      dup1\n      revert\n    tag_49:\n      dup2\n      add\n      swap1\n      dup1\n      dup1\n      calldataload\n      0xffffffffffffffffffffffffffffffffffffffff\n      and\n      swap1\n      0x20\n      add\n      swap1\n      swap3\n      swap2\n      swap1\n      pop\n      pop\n      pop\n      tag_50\n      jump\t// in\n    tag_48:\n      stop\n        /* \"contracts/ProtocolEarnings.sol\":291:326  address public buybackAndBurnWallet */\n    tag_15:\n      tag_51\n      tag_52\n      jump\t// in\n    tag_51:\n      mload(0x40)\n      dup1\n      dup3\n      0xffffffffffffffffffffffffffffffffffffffff\n      and\n      dup2\n      mstore\n      0x20\n      add\n      swap2\n      pop\n      pop\n      mload(0x40)\n      dup1\n      swap2\n      sub\n      swap1\n      return\n        /* \"contracts/ProtocolEarnings.sol\":257:287  address public dividendsWallet */\n    tag_16:\n      tag_53\n      tag_54\n      jump\t// in\n    tag_53:\n      mload(0x40)\n      dup1\n      dup3\n      0xffffffffffffffffffffffffffffffffffffffff\n      and\n      dup2\n      mstore\n      0x20\n      add\n      swap2\n      pop\n      pop\n      mload(0x40)\n      dup1\n      swap2\n      sub\n      swap1\n      return\n        /* \"contracts/access/Ownable.sol\":2078:2276  function transferOwnership(address newOwner) public virtual onlyOwner {... */\n    tag_17:\n      tag_55\n      0x04\n      dup1\n      calldatasize\n      sub\n      0x20\n      dup2\n      lt\n      iszero\n      tag_56\n      jumpi\n      0x00\n      dup1\n      revert\n    tag_56:\n      dup2\n      add\n      swap1\n      dup1\n      dup1\n      calldataload\n      0xffffffffffffffffffffffffffffffffffffffff\n      and\n      swap1\n      0x20\n      add\n      swap1\n      swap3\n      swap2\n      swap1\n      pop\n      pop\n      pop\n      tag_57\n      jump\t// in\n    tag_55:\n      stop\n        /* \"contracts/ProtocolEarnings.sol\":805:976  function updateBuybackAndBurnWallet(address newWallet) external onlyOwner {... */\n    tag_23:\n        /* \"contracts/access/Ownable.sol\":1098:1111  _checkOwner() */\n      tag_59\n        /* \"contracts/access/Ownable.sol\":1098:1109  _checkOwner */\n      tag_60\n        /* \"contracts/access/Ownable.sol\":1098:1111  _checkOwner() */\n      jump\t// in\n    tag_59:\n        /* \"contracts/ProtocolEarnings.sol\":914:915  0 */\n      0x00\n        /* \"contracts/ProtocolEarnings.sol\":893:916  newWallet != address(0) */\n      0xffffffffffffffffffffffffffffffffffffffff\n      and\n        /* \"contracts/ProtocolEarnings.sol\":893:902  newWallet */\n      dup2\n        /* \"contracts/ProtocolEarnings.sol\":893:916  newWallet != address(0) */\n      0xffffffffffffffffffffffffffffffffffffffff\n      and\n      eq\n      iszero\n        /* \"contracts/ProtocolEarnings.sol\":885:933  require(newWallet != address(0), \"zero address\") */\n      tag_62\n      jumpi\n      mload(0x40)\n      0x08c379a000000000000000000000000000000000000000000000000000000000\n      dup2\n      mstore\n      0x04\n      add\n      dup1\n      dup1\n      0x20\n      add\n      dup3\n      dup2\n      sub\n      dup3\n      mstore\n      0x0c\n      dup2\n      mstore\n      0x20\n      add\n      dup1\n      0x7a65726f20616464726573730000000000000000000000000000000000000000\n      dup2\n      mstore\n      pop\n      0x20\n      add\n      swap2\n      pop\n      pop\n      mload(0x40)\n      dup1\n      swap2\n      sub\n      swap1\n      revert\n    tag_62:\n        /* \"contracts/ProtocolEarnings.sol\":962:971  newWallet */\n      dup1\n        /* \"contracts/ProtocolEarnings.sol\":939:959  buybackAndBurnWallet */\n      0x02\n      0x00\n        /* \"contracts/ProtocolEarnings.sol\":939:971  buybackAndBurnWallet = newWallet */\n      0x0100\n      exp\n      dup2\n      sload\n      dup2\n      0xffffffffffffffffffffffffffffffffffffffff\n      mul\n      not\n      and\n      swap1\n      dup4\n      0xffffffffffffffffffffffffffffffffffffffff\n      and\n      mul\n      or\n      swap1\n      sstore\n      pop\n        /* \"contracts/ProtocolEarnings.sol\":805:976  function updateBuybackAndBurnWallet(address newWallet) external onlyOwner {... */\n      pop\n      jump\t// out\n        /* \"contracts/ProtocolEarnings.sol\":370:416  uint256 public constant sharePrecision = 10000 */\n    tag_25:\n        /* \"contracts/ProtocolEarnings.sol\":411:416  10000 */\n      0x2710\n        /* \"contracts/ProtocolEarnings.sol\":370:416  uint256 public constant sharePrecision = 10000 */\n      dup2\n      jump\t// out\n        /* \"contracts/ProtocolEarnings.sol\":330:365  address public operatingFundsWallet */\n    tag_27:\n      0x03\n      0x00\n      swap1\n      sload\n      swap1\n      0x0100\n      exp\n      swap1\n      div\n      0xffffffffffffffffffffffffffffffffffffffff\n      and\n      dup2\n      jump\t// out\n        /* \"contracts/ProtocolEarnings.sol\":1157:1318  function updateDividendsWallet(address newWallet) external onlyOwner {... */\n    tag_30:\n        /* \"contracts/access/Ownable.sol\":1098:1111  _checkOwner() */\n      tag_64\n        /* \"contracts/access/Ownable.sol\":1098:1109  _checkOwner */\n      tag_60\n        /* \"contracts/access/Ownable.sol\":1098:1111  _checkOwner() */\n      jump\t// in\n    tag_64:\n        /* \"contracts/ProtocolEarnings.sol\":1261:1262  0 */\n      0x00\n        /* \"contracts/ProtocolEarnings.sol\":1240:1263  newWallet != address(0) */\n      0xffffffffffffffffffffffffffffffffffffffff\n      and\n        /* \"contracts/ProtocolEarnings.sol\":1240:1249  newWallet */\n      dup2\n        /* \"contracts/ProtocolEarnings.sol\":1240:1263  newWallet != address(0) */\n      0xffffffffffffffffffffffffffffffffffffffff\n      and\n      eq\n      iszero\n        /* \"contracts/ProtocolEarnings.sol\":1232:1280  require(newWallet != address(0), \"zero address\") */\n      tag_66\n      jumpi\n      mload(0x40)\n      0x08c379a000000000000000000000000000000000000000000000000000000000\n      dup2\n      mstore\n      0x04\n      add\n      dup1\n      dup1\n      0x20\n      add\n      dup3\n      dup2\n      sub\n      dup3\n      mstore\n      0x0c\n      dup2\n      mstore\n      0x20\n      add\n      dup1\n      0x7a65726f20616464726573730000000000000000000000000000000000000000\n      dup2\n      mstore\n      pop\n      0x20\n      add\n      swap2\n      pop\n      pop\n      mload(0x40)\n      dup1\n      swap2\n      sub\n      swap1\n      revert\n    tag_66:\n        /* \"contracts/ProtocolEarnings.sol\":1304:1313  newWallet */\n      dup1\n        /* \"contracts/ProtocolEarnings.sol\":1286:1301  dividendsWallet */\n      0x01\n      0x00\n        /* \"contracts/ProtocolEarnings.sol\":1286:1313  dividendsWallet = newWallet */\n      0x0100\n      exp\n      dup2\n      sload\n      dup2\n      0xffffffffffffffffffffffffffffffffffffffff\n      mul\n      not\n      and\n      swap1\n      dup4\n      0xffffffffffffffffffffffffffffffffffffffff\n      and\n      mul\n      or\n      swap1\n      sstore\n      pop\n        /* \"contracts/ProtocolEarnings.sol\":1157:1318  function updateDividendsWallet(address newWallet) external onlyOwner {... */\n      pop\n      jump\t// out\n        /* \"contracts/ProtocolEarnings.sol\":420:456  uint256 public dividendsShare = 6250 */\n    tag_32:\n      sload(0x04)\n      dup2\n      jump\t// out\n        /* \"contracts/ProtocolEarnings.sol\":460:501  uint256 public buybackAndBurnShare = 2500 */\n    tag_34:\n      sload(0x05)\n      dup2\n      jump\t// out\n        /* \"contracts/ProtocolEarnings.sol\":2075:2354  function updateShares(uint256 dividendsShare_, uint256 buybackAndBurnShare_) external onlyOwner {... */\n    tag_37:\n        /* \"contracts/access/Ownable.sol\":1098:1111  _checkOwner() */\n      tag_68\n        /* \"contracts/access/Ownable.sol\":1098:1109  _checkOwner */\n      tag_60\n        /* \"contracts/access/Ownable.sol\":1098:1111  _checkOwner() */\n      jump\t// in\n    tag_68:\n        /* \"contracts/ProtocolEarnings.sol\":411:416  10000 */\n      0x2710\n        /* \"contracts/ProtocolEarnings.sol\":2185:2226  dividendsShare_.add(buybackAndBurnShare_) */\n      tag_70\n        /* \"contracts/ProtocolEarnings.sol\":2205:2225  buybackAndBurnShare_ */\n      dup3\n        /* \"contracts/ProtocolEarnings.sol\":2185:2200  dividendsShare_ */\n      dup5\n        /* \"contracts/ProtocolEarnings.sol\":2185:2204  dividendsShare_.add */\n      tag_71\n      swap1\n        /* \"contracts/ProtocolEarnings.sol\":2185:2226  dividendsShare_.add(buybackAndBurnShare_) */\n      swap2\n      swap1\n      0xffffffff\n      and\n      jump\t// in\n    tag_70:\n        /* \"contracts/ProtocolEarnings.sol\":2185:2244  dividendsShare_.add(buybackAndBurnShare_) <= sharePrecision */\n      gt\n      iszero\n        /* \"contracts/ProtocolEarnings.sol\":2177:2263  require(dividendsShare_.add(buybackAndBurnShare_) <= sharePrecision, \"invalid shares\") */\n      tag_72\n      jumpi\n      mload(0x40)\n      0x08c379a000000000000000000000000000000000000000000000000000000000\n      dup2\n      mstore\n      0x04\n      add\n      dup1\n      dup1\n      0x20\n      add\n      dup3\n      dup2\n      sub\n      dup3\n      mstore\n      0x0e\n      dup2\n      mstore\n      0x20\n      add\n      dup1\n      0x696e76616c696420736861726573000000000000000000000000000000000000\n      dup2\n      mstore\n      pop\n      0x20\n      add\n      swap2\n      pop\n      pop\n      mload(0x40)\n      dup1\n      swap2\n      sub\n      swap1\n      revert\n    tag_72:\n        /* \"contracts/ProtocolEarnings.sol\":2286:2301  dividendsShare_ */\n      dup2\n        /* \"contracts/ProtocolEarnings.sol\":2269:2283  dividendsShare */\n      0x04\n        /* \"contracts/ProtocolEarnings.sol\":2269:2301  dividendsShare = dividendsShare_ */\n      dup2\n      swap1\n      sstore\n      pop\n        /* \"contracts/ProtocolEarnings.sol\":2329:2349  buybackAndBurnShare_ */\n      dup1\n        /* \"contracts/ProtocolEarnings.sol\":2307:2326  buybackAndBurnShare */\n      0x05\n        /* \"contracts/ProtocolEarnings.sol\":2307:2349  buybackAndBurnShare = buybackAndBurnShare_ */\n      dup2\n      swap1\n      sstore\n      pop\n        /* \"contracts/ProtocolEarnings.sol\":2075:2354  function updateShares(uint256 dividendsShare_, uint256 buybackAndBurnShare_) external onlyOwner {... */\n      pop\n      pop\n      jump\t// out\n        /* \"contracts/access/Ownable.sol\":1828:1929  function renounceOwnership() public virtual onlyOwner {... */\n    tag_39:\n        /* \"contracts/access/Ownable.sol\":1098:1111  _checkOwner() */\n      tag_74\n        /* \"contracts/access/Ownable.sol\":1098:1109  _checkOwner */\n      tag_60\n        /* \"contracts/access/Ownable.sol\":1098:1111  _checkOwner() */\n      jump\t// in\n    tag_74:\n        /* \"contracts/access/Ownable.sol\":1892:1922  _transferOwnership(address(0)) */\n      tag_76\n        /* \"contracts/access/Ownable.sol\":1919:1920  0 */\n      0x00\n        /* \"contracts/access/Ownable.sol\":1892:1910  _transferOwnership */\n      tag_77\n        /* \"contracts/access/Ownable.sol\":1892:1922  _transferOwnership(address(0)) */\n      jump\t// in\n    tag_76:\n        /* \"contracts/access/Ownable.sol\":1828:1929  function renounceOwnership() public virtual onlyOwner {... */\n      jump\t// out\n        /* \"contracts/ProtocolEarnings.sol\":2358:2499  function safeEmergencyWithdraw(IERC20 token, address to) external onlyOwner {... */\n    tag_42:\n        /* \"contracts/access/Ownable.sol\":1098:1111  _checkOwner() */\n      tag_79\n        /* \"contracts/access/Ownable.sol\":1098:1109  _checkOwner */\n      tag_60\n        /* \"contracts/access/Ownable.sol\":1098:1111  _checkOwner() */\n      jump\t// in\n    tag_79:\n        /* \"contracts/ProtocolEarnings.sol\":2440:2494  token.safeTransfer(to, token.balanceOf(address(this))) */\n      tag_81\n        /* \"contracts/ProtocolEarnings.sol\":2459:2461  to */\n      dup2\n        /* \"contracts/ProtocolEarnings.sol\":2463:2468  token */\n      dup4\n        /* \"contracts/ProtocolEarnings.sol\":2463:2478  token.balanceOf */\n      0xffffffffffffffffffffffffffffffffffffffff\n      and\n      0x70a08231\n        /* \"contracts/ProtocolEarnings.sol\":2487:2491  this */\n      address\n        /* \"contracts/ProtocolEarnings.sol\":2463:2493  token.balanceOf(address(this)) */\n      mload(0x40)\n      dup3\n      0xffffffff\n      and\n      0xe0\n      shl\n      dup2\n      mstore\n      0x04\n      add\n      dup1\n      dup3\n      0xffffffffffffffffffffffffffffffffffffffff\n      and\n      dup2\n      mstore\n      0x20\n      add\n      swap2\n      pop\n      pop\n      0x20\n      mload(0x40)\n      dup1\n      dup4\n      sub\n      dup2\n      dup7\n      dup1\n      extcodesize\n      iszero\n      dup1\n      iszero\n      tag_82\n      jumpi\n      0x00\n      dup1\n      revert\n    tag_82:\n      pop\n      gas\n      staticcall\n      iszero\n      dup1\n      iszero\n      tag_84\n      jumpi\n      returndatasize\n      0x00\n      dup1\n      returndatacopy\n      revert(0x00, returndatasize)\n    tag_84:\n      pop\n      pop\n      pop\n      pop\n      mload(0x40)\n      returndatasize\n      0x20\n      dup2\n      lt\n      iszero\n      tag_85\n      jumpi\n      0x00\n      dup1\n      revert\n    tag_85:\n      dup2\n      add\n      swap1\n      dup1\n      dup1\n      mload\n      swap1\n      0x20\n      add\n      swap1\n      swap3\n      swap2\n      swap1\n      pop\n      pop\n      pop\n        /* \"contracts/ProtocolEarnings.sol\":2440:2445  token */\n      dup5\n        /* \"contracts/ProtocolEarnings.sol\":2440:2458  token.safeTransfer */\n      0xffffffffffffffffffffffffffffffffffffffff\n      and\n      tag_86\n      swap1\n        /* \"contracts/ProtocolEarnings.sol\":2440:2494  token.safeTransfer(to, token.balanceOf(address(this))) */\n      swap3\n      swap2\n      swap1\n      0xffffffff\n      and\n      jump\t// in\n    tag_81:\n        /* \"contracts/ProtocolEarnings.sol\":2358:2499  function safeEmergencyWithdraw(IERC20 token, address to) external onlyOwner {... */\n      pop\n      pop\n      jump\t// out\n        /* \"contracts/ProtocolEarnings.sol\":980:1153  function updateDevelopmentFundsWallet(address newWallet) external onlyOwner {... */\n    tag_45:\n        /* \"contracts/access/Ownable.sol\":1098:1111  _checkOwner() */\n      tag_88\n        /* \"contracts/access/Ownable.sol\":1098:1109  _checkOwner */\n      tag_60\n        /* \"contracts/access/Ownable.sol\":1098:1111  _checkOwner() */\n      jump\t// in\n    tag_88:\n        /* \"contracts/ProtocolEarnings.sol\":1091:1092  0 */\n      0x00\n        /* \"contracts/ProtocolEarnings.sol\":1070:1093  newWallet != address(0) */\n      0xffffffffffffffffffffffffffffffffffffffff\n      and\n        /* \"contracts/ProtocolEarnings.sol\":1070:1079  newWallet */\n      dup2\n        /* \"contracts/ProtocolEarnings.sol\":1070:1093  newWallet != address(0) */\n      0xffffffffffffffffffffffffffffffffffffffff\n      and\n      eq\n      iszero\n        /* \"contracts/ProtocolEarnings.sol\":1062:1110  require(newWallet != address(0), \"zero address\") */\n      tag_90\n      jumpi\n      mload(0x40)\n      0x08c379a000000000000000000000000000000000000000000000000000000000\n      dup2\n      mstore\n      0x04\n      add\n      dup1\n      dup1\n      0x20\n      add\n      dup3\n      dup2\n      sub\n      dup3\n      mstore\n      0x0c\n      dup2\n      mstore\n      0x20\n      add\n      dup1\n      0x7a65726f20616464726573730000000000000000000000000000000000000000\n      dup2\n      mstore\n      pop\n      0x20\n      add\n      swap2\n      pop\n      pop\n      mload(0x40)\n      dup1\n      swap2\n      sub\n      swap1\n      revert\n    tag_90:\n        /* \"contracts/ProtocolEarnings.sol\":1139:1148  newWallet */\n      dup1\n        /* \"contracts/ProtocolEarnings.sol\":1116:1136  operatingFundsWallet */\n      0x03\n      0x00\n        /* \"contracts/ProtocolEarnings.sol\":1116:1148  operatingFundsWallet = newWallet */\n      0x0100\n      exp\n      dup2\n      sload\n      dup2\n      0xffffffffffffffffffffffffffffffffffffffff\n      mul\n      not\n      and\n      swap1\n      dup4\n      0xffffffffffffffffffffffffffffffffffffffff\n      and\n      mul\n      or\n      swap1\n      sstore\n      pop\n        /* \"contracts/ProtocolEarnings.sol\":980:1153  function updateDevelopmentFundsWallet(address newWallet) external onlyOwner {... */\n      pop\n      jump\t// out\n        /* \"contracts/access/Ownable.sol\":1205:1290  function owner() public view virtual returns (address) {... */\n    tag_47:\n        /* \"contracts/access/Ownable.sol\":1251:1258  address */\n      0x00\n        /* \"contracts/access/Ownable.sol\":1277:1283  _owner */\n      dup1\n      0x00\n      swap1\n      sload\n      swap1\n      0x0100\n      exp\n      swap1\n      div\n      0xffffffffffffffffffffffffffffffffffffffff\n      and\n        /* \"contracts/access/Ownable.sol\":1270:1283  return _owner */\n      swap1\n      pop\n        /* \"contracts/access/Ownable.sol\":1205:1290  function owner() public view virtual returns (address) {... */\n      swap1\n      jump\t// out\n        /* \"contracts/ProtocolEarnings.sol\":1322:2071  function distributeShares(IERC20 token) external onlyOwner {... */\n    tag_50:\n        /* \"contracts/access/Ownable.sol\":1098:1111  _checkOwner() */\n      tag_93\n        /* \"contracts/access/Ownable.sol\":1098:1109  _checkOwner */\n      tag_60\n        /* \"contracts/access/Ownable.sol\":1098:1111  _checkOwner() */\n      jump\t// in\n    tag_93:\n        /* \"contracts/ProtocolEarnings.sol\":1387:1403  uint256 _balance */\n      0x00\n        /* \"contracts/ProtocolEarnings.sol\":1406:1411  token */\n      dup2\n        /* \"contracts/ProtocolEarnings.sol\":1406:1421  token.balanceOf */\n      0xffffffffffffffffffffffffffffffffffffffff\n      and\n      0x70a08231\n        /* \"contracts/ProtocolEarnings.sol\":1430:1434  this */\n      address\n        /* \"contracts/ProtocolEarnings.sol\":1406:1436  token.balanceOf(address(this)) */\n      mload(0x40)\n      dup3\n      0xffffffff\n      and\n      0xe0\n      shl\n      dup2\n      mstore\n      0x04\n      add\n      dup1\n      dup3\n      0xffffffffffffffffffffffffffffffffffffffff\n      and\n      dup2\n      mstore\n      0x20\n      add\n      swap2\n      pop\n      pop\n      0x20\n      mload(0x40)\n      dup1\n      dup4\n      sub\n      dup2\n      dup7\n      dup1\n      extcodesize\n      iszero\n      dup1\n      iszero\n      tag_95\n      jumpi\n      0x00\n      dup1\n      revert\n    tag_95:\n      pop\n      gas\n      staticcall\n      iszero\n      dup1\n      iszero\n      tag_97\n      jumpi\n      returndatasize\n      0x00\n      dup1\n      returndatacopy\n      revert(0x00, returndatasize)\n    tag_97:\n      pop\n      pop\n      pop\n      pop\n      mload(0x40)\n      returndatasize\n      0x20\n      dup2\n      lt\n      iszero\n      tag_98\n      jumpi\n      0x00\n      dup1\n      revert\n    tag_98:\n      dup2\n      add\n      swap1\n      dup1\n      dup1\n      mload\n      swap1\n      0x20\n      add\n      swap1\n      swap3\n      swap2\n      swap1\n      pop\n      pop\n      pop\n        /* \"contracts/ProtocolEarnings.sol\":1387:1436  uint256 _balance = token.balanceOf(address(this)) */\n      swap1\n      pop\n        /* \"contracts/ProtocolEarnings.sol\":1443:1466  uint256 dividendsAmount */\n      0x00\n        /* \"contracts/ProtocolEarnings.sol\":1469:1517  _balance.mul(dividendsShare).div(sharePrecision) */\n      tag_99\n        /* \"contracts/ProtocolEarnings.sol\":411:416  10000 */\n      0x2710\n        /* \"contracts/ProtocolEarnings.sol\":1469:1497  _balance.mul(dividendsShare) */\n      tag_100\n        /* \"contracts/ProtocolEarnings.sol\":1482:1496  dividendsShare */\n      sload(0x04)\n        /* \"contracts/ProtocolEarnings.sol\":1469:1477  _balance */\n      dup6\n        /* \"contracts/ProtocolEarnings.sol\":1469:1481  _balance.mul */\n      tag_101\n      swap1\n        /* \"contracts/ProtocolEarnings.sol\":1469:1497  _balance.mul(dividendsShare) */\n      swap2\n      swap1\n      0xffffffff\n      and\n      jump\t// in\n    tag_100:\n        /* \"contracts/ProtocolEarnings.sol\":1469:1501  _balance.mul(dividendsShare).div */\n      tag_102\n      swap1\n        /* \"contracts/ProtocolEarnings.sol\":1469:1517  _balance.mul(dividendsShare).div(sharePrecision) */\n      swap2\n      swap1\n      0xffffffff\n      and\n      jump\t// in\n    tag_99:\n        /* \"contracts/ProtocolEarnings.sol\":1443:1517  uint256 dividendsAmount = _balance.mul(dividendsShare).div(sharePrecision) */\n      swap1\n      pop\n        /* \"contracts/ProtocolEarnings.sol\":1523:1551  uint256 buybackAndBurnAmount */\n      0x00\n        /* \"contracts/ProtocolEarnings.sol\":1554:1607  _balance.mul(buybackAndBurnShare).div(sharePrecision) */\n      tag_103\n        /* \"contracts/ProtocolEarnings.sol\":411:416  10000 */\n      0x2710\n        /* \"contracts/ProtocolEarnings.sol\":1554:1587  _balance.mul(buybackAndBurnShare) */\n      tag_104\n        /* \"contracts/ProtocolEarnings.sol\":1567:1586  buybackAndBurnShare */\n      sload(0x05)\n        /* \"contracts/ProtocolEarnings.sol\":1554:1562  _balance */\n      dup7\n        /* \"contracts/ProtocolEarnings.sol\":1554:1566  _balance.mul */\n      tag_101\n      swap1\n        /* \"contracts/ProtocolEarnings.sol\":1554:1587  _balance.mul(buybackAndBurnShare) */\n      swap2\n      swap1\n      0xffffffff\n      and\n      jump\t// in\n    tag_104:\n        /* \"contracts/ProtocolEarnings.sol\":1554:1591  _balance.mul(buybackAndBurnShare).div */\n      tag_102\n      swap1\n        /* \"contracts/ProtocolEarnings.sol\":1554:1607  _balance.mul(buybackAndBurnShare).div(sharePrecision) */\n      swap2\n      swap1\n      0xffffffff\n      and\n      jump\t// in\n    tag_103:\n        /* \"contracts/ProtocolEarnings.sol\":1523:1607  uint256 buybackAndBurnAmount = _balance.mul(buybackAndBurnShare).div(sharePrecision) */\n      swap1\n      pop\n        /* \"contracts/ProtocolEarnings.sol\":1613:1641  uint256 operatingFundsAmount */\n      0x00\n        /* \"contracts/ProtocolEarnings.sol\":1644:1699  _balance.sub(dividendsAmount).sub(buybackAndBurnAmount) */\n      tag_105\n        /* \"contracts/ProtocolEarnings.sol\":1678:1698  buybackAndBurnAmount */\n      dup3\n        /* \"contracts/ProtocolEarnings.sol\":1644:1673  _balance.sub(dividendsAmount) */\n      tag_106\n        /* \"contracts/ProtocolEarnings.sol\":1657:1672  dividendsAmount */\n      dup6\n        /* \"contracts/ProtocolEarnings.sol\":1644:1652  _balance */\n      dup8\n        /* \"contracts/ProtocolEarnings.sol\":1644:1656  _balance.sub */\n      tag_107\n      swap1\n        /* \"contracts/ProtocolEarnings.sol\":1644:1673  _balance.sub(dividendsAmount) */\n      swap2\n      swap1\n      0xffffffff\n      and\n      jump\t// in\n    tag_106:\n        /* \"contracts/ProtocolEarnings.sol\":1644:1677  _balance.sub(dividendsAmount).sub */\n      tag_107\n      swap1\n        /* \"contracts/ProtocolEarnings.sol\":1644:1699  _balance.sub(dividendsAmount).sub(buybackAndBurnAmount) */\n      swap2\n      swap1\n      0xffffffff\n      and\n      jump\t// in\n    tag_105:\n        /* \"contracts/ProtocolEarnings.sol\":1613:1699  uint256 operatingFundsAmount = _balance.sub(dividendsAmount).sub(buybackAndBurnAmount) */\n      swap1\n      pop\n        /* \"contracts/ProtocolEarnings.sol\":1727:1728  0 */\n      0x00\n        /* \"contracts/ProtocolEarnings.sol\":1709:1724  dividendsAmount */\n      dup4\n        /* \"contracts/ProtocolEarnings.sol\":1709:1728  dividendsAmount > 0 */\n      gt\n        /* \"contracts/ProtocolEarnings.sol\":1706:1782  if(dividendsAmount > 0) token.safeTransfer(dividendsWallet, dividendsAmount) */\n      iszero\n      tag_108\n      jumpi\n        /* \"contracts/ProtocolEarnings.sol\":1730:1782  token.safeTransfer(dividendsWallet, dividendsAmount) */\n      tag_109\n        /* \"contracts/ProtocolEarnings.sol\":1749:1764  dividendsWallet */\n      0x01\n      0x00\n      swap1\n      sload\n      swap1\n      0x0100\n      exp\n      swap1\n      div\n      0xffffffffffffffffffffffffffffffffffffffff\n      and\n        /* \"contracts/ProtocolEarnings.sol\":1766:1781  dividendsAmount */\n      dup5\n        /* \"contracts/ProtocolEarnings.sol\":1730:1735  token */\n      dup8\n        /* \"contracts/ProtocolEarnings.sol\":1730:1748  token.safeTransfer */\n      0xffffffffffffffffffffffffffffffffffffffff\n      and\n      tag_86\n      swap1\n        /* \"contracts/ProtocolEarnings.sol\":1730:1782  token.safeTransfer(dividendsWallet, dividendsAmount) */\n      swap3\n      swap2\n      swap1\n      0xffffffff\n      and\n      jump\t// in\n    tag_109:\n        /* \"contracts/ProtocolEarnings.sol\":1706:1782  if(dividendsAmount > 0) token.safeTransfer(dividendsWallet, dividendsAmount) */\n    tag_108:\n        /* \"contracts/ProtocolEarnings.sol\":1814:1815  0 */\n      0x00\n        /* \"contracts/ProtocolEarnings.sol\":1791:1811  buybackAndBurnAmount */\n      dup3\n        /* \"contracts/ProtocolEarnings.sol\":1791:1815  buybackAndBurnAmount > 0 */\n      gt\n        /* \"contracts/ProtocolEarnings.sol\":1788:1879  if(buybackAndBurnAmount > 0) token.safeTransfer(buybackAndBurnWallet, buybackAndBurnAmount) */\n      iszero\n      tag_110\n      jumpi\n        /* \"contracts/ProtocolEarnings.sol\":1817:1879  token.safeTransfer(buybackAndBurnWallet, buybackAndBurnAmount) */\n      tag_111\n        /* \"contracts/ProtocolEarnings.sol\":1836:1856  buybackAndBurnWallet */\n      0x02\n      0x00\n      swap1\n      sload\n      swap1\n      0x0100\n      exp\n      swap1\n      div\n      0xffffffffffffffffffffffffffffffffffffffff\n      and\n        /* \"contracts/ProtocolEarnings.sol\":1858:1878  buybackAndBurnAmount */\n      dup4\n        /* \"contracts/ProtocolEarnings.sol\":1817:1822  token */\n      dup8\n        /* \"contracts/ProtocolEarnings.sol\":1817:1835  token.safeTransfer */\n      0xffffffffffffffffffffffffffffffffffffffff\n      and\n      tag_86\n      swap1\n        /* \"contracts/ProtocolEarnings.sol\":1817:1879  token.safeTransfer(buybackAndBurnWallet, buybackAndBurnAmount) */\n      swap3\n      swap2\n      swap1\n      0xffffffff\n      and\n      jump\t// in\n    tag_111:\n        /* \"contracts/ProtocolEarnings.sol\":1788:1879  if(buybackAndBurnAmount > 0) token.safeTransfer(buybackAndBurnWallet, buybackAndBurnAmount) */\n    tag_110:\n        /* \"contracts/ProtocolEarnings.sol\":1911:1912  0 */\n      0x00\n        /* \"contracts/ProtocolEarnings.sol\":1888:1908  operatingFundsAmount */\n      dup2\n        /* \"contracts/ProtocolEarnings.sol\":1888:1912  operatingFundsAmount > 0 */\n      gt\n        /* \"contracts/ProtocolEarnings.sol\":1885:1976  if(operatingFundsAmount > 0) token.safeTransfer(operatingFundsWallet, operatingFundsAmount) */\n      iszero\n      tag_112\n      jumpi\n        /* \"contracts/ProtocolEarnings.sol\":1914:1976  token.safeTransfer(operatingFundsWallet, operatingFundsAmount) */\n      tag_113\n        /* \"contracts/ProtocolEarnings.sol\":1933:1953  operatingFundsWallet */\n      0x03\n      0x00\n      swap1\n      sload\n      swap1\n      0x0100\n      exp\n      swap1\n      div\n      0xffffffffffffffffffffffffffffffffffffffff\n      and\n        /* \"contracts/ProtocolEarnings.sol\":1955:1975  operatingFundsAmount */\n      dup3\n        /* \"contracts/ProtocolEarnings.sol\":1914:1919  token */\n      dup8\n        /* \"contracts/ProtocolEarnings.sol\":1914:1932  token.safeTransfer */\n      0xffffffffffffffffffffffffffffffffffffffff\n      and\n      tag_86\n      swap1\n        /* \"contracts/ProtocolEarnings.sol\":1914:1976  token.safeTransfer(operatingFundsWallet, operatingFundsAmount) */\n      swap3\n      swap2\n      swap1\n      0xffffffff\n      and\n      jump\t// in\n    tag_113:\n        /* \"contracts/ProtocolEarnings.sol\":1885:1976  if(operatingFundsAmount > 0) token.safeTransfer(operatingFundsWallet, operatingFundsAmount) */\n    tag_112:\n        /* \"contracts/ProtocolEarnings.sol\":1988:2066  Distribute(token, dividendsAmount, buybackAndBurnAmount, operatingFundsAmount) */\n      0x899f4b1088197f1163efe7b38e0e7ce07a6b129dadf58829dd71fae27f1f2374\n        /* \"contracts/ProtocolEarnings.sol\":1999:2004  token */\n      dup6\n        /* \"contracts/ProtocolEarnings.sol\":2006:2021  dividendsAmount */\n      dup5\n        /* \"contracts/ProtocolEarnings.sol\":2023:2043  buybackAndBurnAmount */\n      dup5\n        /* \"contracts/ProtocolEarnings.sol\":2045:2065  operatingFundsAmount */\n      dup5\n        /* \"contracts/ProtocolEarnings.sol\":1988:2066  Distribute(token, dividendsAmount, buybackAndBurnAmount, operatingFundsAmount) */\n      mload(0x40)\n      dup1\n      dup6\n      0xffffffffffffffffffffffffffffffffffffffff\n      and\n      dup2\n      mstore\n      0x20\n      add\n      dup5\n      dup2\n      mstore\n      0x20\n      add\n      dup4\n      dup2\n      mstore\n      0x20\n      add\n      dup3\n      dup2\n      mstore\n      0x20\n      add\n      swap5\n      pop\n      pop\n      pop\n      pop\n      pop\n      mload(0x40)\n      dup1\n      swap2\n      sub\n      swap1\n      log1\n        /* \"contracts/access/Ownable.sol\":1121:1122  _ */\n      pop\n      pop\n      pop\n      pop\n        /* \"contracts/ProtocolEarnings.sol\":1322:2071  function distributeShares(IERC20 token) external onlyOwner {... */\n      pop\n      jump\t// out\n        /* \"contracts/ProtocolEarnings.sol\":291:326  address public buybackAndBurnWallet */\n    tag_52:\n      0x02\n      0x00\n      swap1\n      sload\n      swap1\n      0x0100\n      exp\n      swap1\n      div\n      0xffffffffffffffffffffffffffffffffffffffff\n      and\n      dup2\n      jump\t// out\n        /* \"contracts/ProtocolEarnings.sol\":257:287  address public dividendsWallet */\n    tag_54:\n      0x01\n      0x00\n      swap1\n      sload\n      swap1\n      0x0100\n      exp\n      swap1\n      div\n      0xffffffffffffffffffffffffffffffffffffffff\n      and\n      dup2\n      jump\t// out\n        /* \"contracts/access/Ownable.sol\":2078:2276  function transferOwnership(address newOwner) public virtual onlyOwner {... */\n    tag_57:\n        /* \"contracts/access/Ownable.sol\":1098:1111  _checkOwner() */\n      tag_115\n        /* \"contracts/access/Ownable.sol\":1098:1109  _checkOwner */\n      tag_60\n        /* \"contracts/access/Ownable.sol\":1098:1111  _checkOwner() */\n      jump\t// in\n    tag_115:\n        /* \"contracts/access/Ownable.sol\":2186:2187  0 */\n      0x00\n        /* \"contracts/access/Ownable.sol\":2166:2188  newOwner != address(0) */\n      0xffffffffffffffffffffffffffffffffffffffff\n      and\n        /* \"contracts/access/Ownable.sol\":2166:2174  newOwner */\n      dup2\n        /* \"contracts/access/Ownable.sol\":2166:2188  newOwner != address(0) */\n      0xffffffffffffffffffffffffffffffffffffffff\n      and\n      eq\n      iszero\n        /* \"contracts/access/Ownable.sol\":2158:2231  require(newOwner != address(0), \"Ownable: new owner is the zero address\") */\n      tag_117\n      jumpi\n      mload(0x40)\n      0x08c379a000000000000000000000000000000000000000000000000000000000\n      dup2\n      mstore\n      0x04\n      add\n      dup1\n      dup1\n      0x20\n      add\n      dup3\n      dup2\n      sub\n      dup3\n      mstore\n      0x26\n      dup2\n      mstore\n      0x20\n      add\n      dup1\n      data_245f15ff17f551913a7a18385165551503906a406f905ac1c2437281a7cd0cfe\n      0x26\n      swap2\n      codecopy\n      0x40\n      add\n      swap2\n      pop\n      pop\n      mload(0x40)\n      dup1\n      swap2\n      sub\n      swap1\n      revert\n    tag_117:\n        /* \"contracts/access/Ownable.sol\":2241:2269  _transferOwnership(newOwner) */\n      tag_118\n        /* \"contracts/access/Ownable.sol\":2260:2268  newOwner */\n      dup2\n        /* \"contracts/access/Ownable.sol\":2241:2259  _transferOwnership */\n      tag_77\n        /* \"contracts/access/Ownable.sol\":2241:2269  _transferOwnership(newOwner) */\n      jump\t// in\n    tag_118:\n        /* \"contracts/access/Ownable.sol\":2078:2276  function transferOwnership(address newOwner) public virtual onlyOwner {... */\n      pop\n      jump\t// out\n        /* \"contracts/access/Ownable.sol\":1363:1493  function _checkOwner() internal view virtual {... */\n    tag_60:\n        /* \"contracts/access/Ownable.sol\":1437:1449  _msgSender() */\n      tag_120\n        /* \"contracts/access/Ownable.sol\":1437:1447  _msgSender */\n      tag_121\n        /* \"contracts/access/Ownable.sol\":1437:1449  _msgSender() */\n      jump\t// in\n    tag_120:\n        /* \"contracts/access/Ownable.sol\":1426:1449  owner() == _msgSender() */\n      0xffffffffffffffffffffffffffffffffffffffff\n      and\n        /* \"contracts/access/Ownable.sol\":1426:1433  owner() */\n      tag_122\n        /* \"contracts/access/Ownable.sol\":1426:1431  owner */\n      tag_47\n        /* \"contracts/access/Ownable.sol\":1426:1433  owner() */\n      jump\t// in\n    tag_122:\n        /* \"contracts/access/Ownable.sol\":1426:1449  owner() == _msgSender() */\n      0xffffffffffffffffffffffffffffffffffffffff\n      and\n      eq\n        /* \"contracts/access/Ownable.sol\":1418:1486  require(owner() == _msgSender(), \"Ownable: caller is not the owner\") */\n      tag_123\n      jumpi\n      mload(0x40)\n      0x08c379a000000000000000000000000000000000000000000000000000000000\n      dup2\n      mstore\n      0x04\n      add\n      dup1\n      dup1\n      0x20\n      add\n      dup3\n      dup2\n      sub\n      dup3\n      mstore\n      0x20\n      dup2\n      mstore\n      0x20\n      add\n      dup1\n      0x4f776e61626c653a2063616c6c6572206973206e6f7420746865206f776e6572\n      dup2\n      mstore\n      pop\n      0x20\n      add\n      swap2\n      pop\n      pop\n      mload(0x40)\n      dup1\n      swap2\n      sub\n      swap1\n      revert\n    tag_123:\n        /* \"contracts/access/Ownable.sol\":1363:1493  function _checkOwner() internal view virtual {... */\n      jump\t// out\n        /* \"contracts/math/SafeMath.sol\":2682:2857  function add(uint256 a, uint256 b) internal pure returns (uint256) {... */\n    tag_71:\n        /* \"contracts/math/SafeMath.sol\":2740:2747  uint256 */\n      0x00\n        /* \"contracts/math/SafeMath.sol\":2759:2768  uint256 c */\n      dup1\n        /* \"contracts/math/SafeMath.sol\":2775:2776  b */\n      dup3\n        /* \"contracts/math/SafeMath.sol\":2771:2772  a */\n      dup5\n        /* \"contracts/math/SafeMath.sol\":2771:2776  a + b */\n      add\n        /* \"contracts/math/SafeMath.sol\":2759:2776  uint256 c = a + b */\n      swap1\n      pop\n        /* \"contracts/math/SafeMath.sol\":2799:2800  a */\n      dup4\n        /* \"contracts/math/SafeMath.sol\":2794:2795  c */\n      dup2\n        /* \"contracts/math/SafeMath.sol\":2794:2800  c >= a */\n      lt\n      iszero\n        /* \"contracts/math/SafeMath.sol\":2786:2832  require(c >= a, \"SafeMath: addition overflow\") */\n      tag_125\n      jumpi\n      mload(0x40)\n      0x08c379a000000000000000000000000000000000000000000000000000000000\n      dup2\n      mstore\n      0x04\n      add\n      dup1\n      dup1\n      0x20\n      add\n      dup3\n      dup2\n      sub\n      dup3\n      mstore\n      0x1b\n      dup2\n      mstore\n      0x20\n      add\n      dup1\n      0x536166654d6174683a206164646974696f6e206f766572666c6f770000000000\n      dup2\n      mstore\n      pop\n      0x20\n      add\n      swap2\n      pop\n      pop\n      mload(0x40)\n      dup1\n      swap2\n      sub\n      swap1\n      revert\n    tag_125:\n        /* \"contracts/math/SafeMath.sol\":2849:2850  c */\n      dup1\n        /* \"contracts/math/SafeMath.sol\":2842:2850  return c */\n      swap2\n      pop\n      pop\n        /* \"contracts/math/SafeMath.sol\":2682:2857  function add(uint256 a, uint256 b) internal pure returns (uint256) {... */\n      swap3\n      swap2\n      pop\n      pop\n      jump\t// out\n        /* \"contracts/access/Ownable.sol\":2430:2617  function _transferOwnership(address newOwner) internal virtual {... */\n    tag_77:\n        /* \"contracts/access/Ownable.sol\":2503:2519  address oldOwner */\n      0x00\n        /* \"contracts/access/Ownable.sol\":2522:2528  _owner */\n      dup1\n      0x00\n      swap1\n      sload\n      swap1\n      0x0100\n      exp\n      swap1\n      div\n      0xffffffffffffffffffffffffffffffffffffffff\n      and\n        /* \"contracts/access/Ownable.sol\":2503:2528  address oldOwner = _owner */\n      swap1\n      pop\n        /* \"contracts/access/Ownable.sol\":2547:2555  newOwner */\n      dup2\n        /* \"contracts/access/Ownable.sol\":2538:2544  _owner */\n      0x00\n      dup1\n        /* \"contracts/access/Ownable.sol\":2538:2555  _owner = newOwner */\n      0x0100\n      exp\n      dup2\n      sload\n      dup2\n      0xffffffffffffffffffffffffffffffffffffffff\n      mul\n      not\n      and\n      swap1\n      dup4\n      0xffffffffffffffffffffffffffffffffffffffff\n      and\n      mul\n      or\n      swap1\n      sstore\n      pop\n        /* \"contracts/access/Ownable.sol\":2601:2609  newOwner */\n      dup2\n        /* \"contracts/access/Ownable.sol\":2570:2610  OwnershipTransferred(oldOwner, newOwner) */\n      0xffffffffffffffffffffffffffffffffffffffff\n      and\n        /* \"contracts/access/Ownable.sol\":2591:2599  oldOwner */\n      dup2\n        /* \"contracts/access/Ownable.sol\":2570:2610  OwnershipTransferred(oldOwner, newOwner) */\n      0xffffffffffffffffffffffffffffffffffffffff\n      and\n      0x8be0079c531659141344cd1fd0a4f28419497f9722a3daafe3b4186f6b6457e0\n      mload(0x40)\n      mload(0x40)\n      dup1\n      swap2\n      sub\n      swap1\n      log3\n        /* \"contracts/access/Ownable.sol\":2430:2617  function _transferOwnership(address newOwner) internal virtual {... */\n      pop\n      pop\n      jump\t// out\n        /* \"contracts/libraries/SafeERC20.sol\":695:870  function safeTransfer(IERC20 token, address to, uint256 value) internal {... */\n    tag_86:\n        /* \"contracts/libraries/SafeERC20.sol\":777:863  _callOptionalReturn(token, abi.encodeWithSelector(token.transfer.selector, to, value)) */\n      tag_128\n        /* \"contracts/libraries/SafeERC20.sol\":797:802  token */\n      dup4\n        /* \"contracts/libraries/SafeERC20.sol\":827:850  token.transfer.selector */\n      shl(0xe0, 0xa9059cbb)\n        /* \"contracts/libraries/SafeERC20.sol\":852:854  to */\n      dup5\n        /* \"contracts/libraries/SafeERC20.sol\":856:861  value */\n      dup5\n        /* \"contracts/libraries/SafeERC20.sol\":804:862  abi.encodeWithSelector(token.transfer.selector, to, value) */\n      add(0x24, mload(0x40))\n      dup1\n      dup4\n      0xffffffffffffffffffffffffffffffffffffffff\n      and\n      dup2\n      mstore\n      0x20\n      add\n      dup3\n      dup2\n      mstore\n      0x20\n      add\n      swap3\n      pop\n      pop\n      pop\n      mload(0x40)\n      0x20\n      dup2\n      dup4\n      sub\n      sub\n      dup2\n      mstore\n      swap1\n      0x40\n      mstore\n      swap1\n      not(0xffffffffffffffffffffffffffffffffffffffffffffffffffffffff)\n      and\n      0x20\n      dup3\n      add\n      dup1\n      mload\n      0xffffffffffffffffffffffffffffffffffffffffffffffffffffffff\n      dup4\n      dup2\n      dup4\n      and\n      or\n      dup4\n      mstore\n      pop\n      pop\n      pop\n      pop\n        /* \"contracts/libraries/SafeERC20.sol\":777:796  _callOptionalReturn */\n      tag_129\n        /* \"contracts/libraries/SafeERC20.sol\":777:863  _callOptionalReturn(token, abi.encodeWithSelector(token.transfer.selector, to, value)) */\n      jump\t// in\n    tag_128:\n        /* \"contracts/libraries/SafeERC20.sol\":695:870  function safeTransfer(IERC20 token, address to, uint256 value) internal {... */\n      pop\n      pop\n      pop\n      jump\t// out\n        /* \"contracts/math/SafeMath.sol\":3530:3745  function mul(uint256 a, uint256 b) internal pure returns (uint256) {... */\n    tag_101:\n        /* \"contracts/math/SafeMath.sol\":3588:3595  uint256 */\n      0x00\n        /* \"contracts/math/SafeMath.sol\":3616:3617  0 */\n      dup1\n        /* \"contracts/math/SafeMath.sol\":3611:3612  a */\n      dup4\n        /* \"contracts/math/SafeMath.sol\":3611:3617  a == 0 */\n      eq\n        /* \"contracts/math/SafeMath.sol\":3607:3627  if (a == 0) return 0 */\n      iszero\n      tag_131\n      jumpi\n        /* \"contracts/math/SafeMath.sol\":3626:3627  0 */\n      0x00\n        /* \"contracts/math/SafeMath.sol\":3619:3627  return 0 */\n      swap1\n      pop\n      jump(tag_130)\n        /* \"contracts/math/SafeMath.sol\":3607:3627  if (a == 0) return 0 */\n    tag_131:\n        /* \"contracts/math/SafeMath.sol\":3637:3646  uint256 c */\n      0x00\n        /* \"contracts/math/SafeMath.sol\":3653:3654  b */\n      dup3\n        /* \"contracts/math/SafeMath.sol\":3649:3650  a */\n      dup5\n        /* \"contracts/math/SafeMath.sol\":3649:3654  a * b */\n      mul\n        /* \"contracts/math/SafeMath.sol\":3637:3654  uint256 c = a * b */\n      swap1\n      pop\n        /* \"contracts/math/SafeMath.sol\":3681:3682  b */\n      dup3\n        /* \"contracts/math/SafeMath.sol\":3676:3677  a */\n      dup5\n        /* \"contracts/math/SafeMath.sol\":3672:3673  c */\n      dup3\n        /* \"contracts/math/SafeMath.sol\":3672:3677  c / a */\n      dup2\n      tag_132\n      jumpi\n      invalid\n    tag_132:\n      div\n        /* \"contracts/math/SafeMath.sol\":3672:3682  c / a == b */\n      eq\n        /* \"contracts/math/SafeMath.sol\":3664:3720  require(c / a == b, \"SafeMath: multiplication overflow\") */\n      tag_133\n      jumpi\n      mload(0x40)\n      0x08c379a000000000000000000000000000000000000000000000000000000000\n      dup2\n      mstore\n      0x04\n      add\n      dup1\n      dup1\n      0x20\n      add\n      dup3\n      dup2\n      sub\n      dup3\n      mstore\n      0x21\n      dup2\n      mstore\n      0x20\n      add\n      dup1\n      data_9113bb53c2876a3805b2c9242029423fc540a728243ce887ab24c82cf119fba3\n      0x21\n      swap2\n      codecopy\n      0x40\n      add\n      swap2\n      pop\n      pop\n      mload(0x40)\n      dup1\n      swap2\n      sub\n      swap1\n      revert\n    tag_133:\n        /* \"contracts/math/SafeMath.sol\":3737:3738  c */\n      dup1\n        /* \"contracts/math/SafeMath.sol\":3730:3738  return c */\n      swap2\n      pop\n      pop\n        /* \"contracts/math/SafeMath.sol\":3530:3745  function mul(uint256 a, uint256 b) internal pure returns (uint256) {... */\n    tag_130:\n      swap3\n      swap2\n      pop\n      pop\n      jump\t// out\n        /* \"contracts/math/SafeMath.sol\":4209:4359  function div(uint256 a, uint256 b) internal pure returns (uint256) {... */\n    tag_102:\n        /* \"contracts/math/SafeMath.sol\":4267:4274  uint256 */\n      0x00\n        /* \"contracts/math/SafeMath.sol\":4298:4299  0 */\n      dup1\n        /* \"contracts/math/SafeMath.sol\":4294:4295  b */\n      dup3\n        /* \"contracts/math/SafeMath.sol\":4294:4299  b > 0 */\n      gt\n        /* \"contracts/math/SafeMath.sol\":4286:4330  require(b > 0, \"SafeMath: division by zero\") */\n      tag_135\n      jumpi\n      mload(0x40)\n      0x08c379a000000000000000000000000000000000000000000000000000000000\n      dup2\n      mstore\n      0x04\n      add\n      dup1\n      dup1\n      0x20\n      add\n      dup3\n      dup2\n      sub\n      dup3\n      mstore\n      0x1a\n      dup2\n      mstore\n      0x20\n      add\n      dup1\n      0x536166654d6174683a206469766973696f6e206279207a65726f000000000000\n      dup2\n      mstore\n      pop\n      0x20\n      add\n      swap2\n      pop\n      pop\n      mload(0x40)\n      dup1\n      swap2\n      sub\n      swap1\n      revert\n    tag_135:\n        /* \"contracts/math/SafeMath.sol\":4351:4352  b */\n      dup2\n        /* \"contracts/math/SafeMath.sol\":4347:4348  a */\n      dup4\n        /* \"contracts/math/SafeMath.sol\":4347:4352  a / b */\n      dup2\n      tag_136\n      jumpi\n      invalid\n    tag_136:\n      div\n        /* \"contracts/math/SafeMath.sol\":4340:4352  return a / b */\n      swap1\n      pop\n        /* \"contracts/math/SafeMath.sol\":4209:4359  function div(uint256 a, uint256 b) internal pure returns (uint256) {... */\n      swap3\n      swap2\n      pop\n      pop\n      jump\t// out\n        /* \"contracts/math/SafeMath.sol\":3128:3283  function sub(uint256 a, uint256 b) internal pure returns (uint256) {... */\n    tag_107:\n        /* \"contracts/math/SafeMath.sol\":3186:3193  uint256 */\n      0x00\n        /* \"contracts/math/SafeMath.sol\":3218:3219  a */\n      dup3\n        /* \"contracts/math/SafeMath.sol\":3213:3214  b */\n      dup3\n        /* \"contracts/math/SafeMath.sol\":3213:3219  b <= a */\n      gt\n      iszero\n        /* \"contracts/math/SafeMath.sol\":3205:3254  require(b <= a, \"SafeMath: subtraction overflow\") */\n      tag_138\n      jumpi\n      mload(0x40)\n      0x08c379a000000000000000000000000000000000000000000000000000000000\n      dup2\n      mstore\n      0x04\n      add\n      dup1\n      dup1\n      0x20\n      add\n      dup3\n      dup2\n      sub\n      dup3\n      mstore\n      0x1e\n      dup2\n      mstore\n      0x20\n      add\n      dup1\n      0x536166654d6174683a207375627472616374696f6e206f766572666c6f770000\n      dup2\n      mstore\n      pop\n      0x20\n      add\n      swap2\n      pop\n      pop\n      mload(0x40)\n      dup1\n      swap2\n      sub\n      swap1\n      revert\n    tag_138:\n        /* \"contracts/math/SafeMath.sol\":3275:3276  b */\n      dup2\n        /* \"contracts/math/SafeMath.sol\":3271:3272  a */\n      dup4\n        /* \"contracts/math/SafeMath.sol\":3271:3276  a - b */\n      sub\n        /* \"contracts/math/SafeMath.sol\":3264:3276  return a - b */\n      swap1\n      pop\n        /* \"contracts/math/SafeMath.sol\":3128:3283  function sub(uint256 a, uint256 b) internal pure returns (uint256) {... */\n      swap3\n      swap2\n      pop\n      pop\n      jump\t// out\n        /* \"contracts/libraries/Context.sol\":598:702  function _msgSender() internal view virtual returns (address payable) {... */\n    tag_121:\n        /* \"contracts/libraries/Context.sol\":651:666  address payable */\n      0x00\n        /* \"contracts/libraries/Context.sol\":685:695  msg.sender */\n      caller\n        /* \"contracts/libraries/Context.sol\":678:695  return msg.sender */\n      swap1\n      pop\n        /* \"contracts/libraries/Context.sol\":598:702  function _msgSender() internal view virtual returns (address payable) {... */\n      swap1\n      jump\t// out\n        /* \"contracts/libraries/SafeERC20.sol\":2958:3709  function _callOptionalReturn(IERC20 token, bytes memory data) private {... */\n    tag_129:\n        /* \"contracts/libraries/SafeERC20.sol\":3377:3400  bytes memory returndata */\n      0x00\n        /* \"contracts/libraries/SafeERC20.sol\":3403:3472  address(token).functionCall(data, \"SafeERC20: low-level call failed\") */\n      tag_141\n        /* \"contracts/libraries/SafeERC20.sol\":3431:3435  data */\n      dup3\n        /* \"contracts/libraries/SafeERC20.sol\":3403:3472  address(token).functionCall(data, \"SafeERC20: low-level call failed\") */\n      mload(0x40)\n      dup1\n      0x40\n      add\n      0x40\n      mstore\n      dup1\n      0x20\n      dup2\n      mstore\n      0x20\n      add\n      0x5361666545524332303a206c6f772d6c6576656c2063616c6c206661696c6564\n      dup2\n      mstore\n      pop\n        /* \"contracts/libraries/SafeERC20.sol\":3411:3416  token */\n      dup6\n        /* \"contracts/libraries/SafeERC20.sol\":3403:3430  address(token).functionCall */\n      0xffffffffffffffffffffffffffffffffffffffff\n      and\n      tag_142\n      swap1\n        /* \"contracts/libraries/SafeERC20.sol\":3403:3472  address(token).functionCall(data, \"SafeERC20: low-level call failed\") */\n      swap3\n      swap2\n      swap1\n      0xffffffff\n      and\n      jump\t// in\n    tag_141:\n        /* \"contracts/libraries/SafeERC20.sol\":3377:3472  bytes memory returndata = address(token).functionCall(data, \"SafeERC20: low-level call failed\") */\n      swap1\n      pop\n        /* \"contracts/libraries/SafeERC20.sol\":3506:3507  0 */\n      0x00\n        /* \"contracts/libraries/SafeERC20.sol\":3486:3496  returndata */\n      dup2\n        /* \"contracts/libraries/SafeERC20.sol\":3486:3503  returndata.length */\n      mload\n        /* \"contracts/libraries/SafeERC20.sol\":3486:3507  returndata.length > 0 */\n      gt\n        /* \"contracts/libraries/SafeERC20.sol\":3482:3703  if (returndata.length > 0) { // Return data is optional... */\n      iszero\n      tag_143\n      jumpi\n        /* \"contracts/libraries/SafeERC20.sol\":3626:3636  returndata */\n      dup1\n        /* \"contracts/libraries/SafeERC20.sol\":3615:3645  abi.decode(returndata, (bool)) */\n      dup1\n      0x20\n      add\n      swap1\n      mload\n      0x20\n      dup2\n      lt\n      iszero\n      tag_144\n      jumpi\n      0x00\n      dup1\n      revert\n    tag_144:\n      dup2\n      add\n      swap1\n      dup1\n      dup1\n      mload\n      swap1\n      0x20\n      add\n      swap1\n      swap3\n      swap2\n      swap1\n      pop\n      pop\n      pop\n        /* \"contracts/libraries/SafeERC20.sol\":3607:3692  require(abi.decode(returndata, (bool)), \"SafeERC20: ERC20 operation did not succeed\") */\n      tag_145\n      jumpi\n      mload(0x40)\n      0x08c379a000000000000000000000000000000000000000000000000000000000\n      dup2\n      mstore\n      0x04\n      add\n      dup1\n      dup1\n      0x20\n      add\n      dup3\n      dup2\n      sub\n      dup3\n      mstore\n      0x2a\n      dup2\n      mstore\n      0x20\n      add\n      dup1\n      data_e11ad79d1e4a7f2e5f376964cb99e8e8f7904e3fc16a109f7a7ecb9aa7956dcd\n      0x2a\n      swap2\n      codecopy\n      0x40\n      add\n      swap2\n      pop\n      pop\n      mload(0x40)\n      dup1\n      swap2\n      sub\n      swap1\n      revert\n    tag_145:\n        /* \"contracts/libraries/SafeERC20.sol\":3482:3703  if (returndata.length > 0) { // Return data is optional... */\n    tag_143:\n        /* \"contracts/libraries/SafeERC20.sol\":2958:3709  function _callOptionalReturn(IERC20 token, bytes memory data) private {... */\n      pop\n      pop\n      pop\n      jump\t// out\n        /* \"contracts/libraries/Address.sol\":3573:3766  function functionCall(address target, bytes memory data, string memory errorMessage) internal returns (bytes memory) {... */\n    tag_142:\n        /* \"contracts/libraries/Address.sol\":3676:3688  bytes memory */\n      0x60\n        /* \"contracts/libraries/Address.sol\":3707:3759  functionCallWithValue(target, data, 0, errorMessage) */\n      tag_147\n        /* \"contracts/libraries/Address.sol\":3729:3735  target */\n      dup5\n        /* \"contracts/libraries/Address.sol\":3737:3741  data */\n      dup5\n        /* \"contracts/libraries/Address.sol\":3743:3744  0 */\n      0x00\n        /* \"contracts/libraries/Address.sol\":3746:3758  errorMessage */\n      dup6\n        /* \"contracts/libraries/Address.sol\":3707:3728  functionCallWithValue */\n      tag_148\n        /* \"contracts/libraries/Address.sol\":3707:3759  functionCallWithValue(target, data, 0, errorMessage) */\n      jump\t// in\n    tag_147:\n        /* \"contracts/libraries/Address.sol\":3700:3759  return functionCallWithValue(target, data, 0, errorMessage) */\n      swap1\n      pop\n        /* \"contracts/libraries/Address.sol\":3573:3766  function functionCall(address target, bytes memory data, string memory errorMessage) internal returns (bytes memory) {... */\n      swap4\n      swap3\n      pop\n      pop\n      pop\n      jump\t// out\n        /* \"contracts/libraries/Address.sol\":4600:5123  function functionCallWithValue(address target, bytes memory data, uint256 value, string memory errorMessage) internal returns (bytes memory) {... */\n    tag_148:\n        /* \"contracts/libraries/Address.sol\":4727:4739  bytes memory */\n      0x60\n        /* \"contracts/libraries/Address.sol\":4784:4789  value */\n      dup3\n        /* \"contracts/libraries/Address.sol\":4759:4780  address(this).balance */\n      selfbalance\n        /* \"contracts/libraries/Address.sol\":4759:4789  address(this).balance >= value */\n      lt\n      iszero\n        /* \"contracts/libraries/Address.sol\":4751:4832  require(address(this).balance >= value, \"Address: insufficient balance for call\") */\n      tag_150\n      jumpi\n      mload(0x40)\n      0x08c379a000000000000000000000000000000000000000000000000000000000\n      dup2\n      mstore\n      0x04\n      add\n      dup1\n      dup1\n      0x20\n      add\n      dup3\n      dup2\n      sub\n      dup3\n      mstore\n      0x26\n      dup2\n      mstore\n      0x20\n      add\n      dup1\n      data_565f1a77334fc4792800921178c71e4521acffab18ff9e7885b49377ee80ab4c\n      0x26\n      swap2\n      codecopy\n      0x40\n      add\n      swap2\n      pop\n      pop\n      mload(0x40)\n      dup1\n      swap2\n      sub\n      swap1\n      revert\n    tag_150:\n        /* \"contracts/libraries/Address.sol\":4850:4868  isContract(target) */\n      tag_151\n        /* \"contracts/libraries/Address.sol\":4861:4867  target */\n      dup6\n        /* \"contracts/libraries/Address.sol\":4850:4860  isContract */\n      tag_152\n        /* \"contracts/libraries/Address.sol\":4850:4868  isContract(target) */\n      jump\t// in\n    tag_151:\n        /* \"contracts/libraries/Address.sol\":4842:4902  require(isContract(target), \"Address: call to non-contract\") */\n      tag_153\n      jumpi\n      mload(0x40)\n      0x08c379a000000000000000000000000000000000000000000000000000000000\n      dup2\n      mstore\n      0x04\n      add\n      dup1\n      dup1\n      0x20\n      add\n      dup3\n      dup2\n      sub\n      dup3\n      mstore\n      0x1d\n      dup2\n      mstore\n      0x20\n      add\n      dup1\n      0x416464726573733a2063616c6c20746f206e6f6e2d636f6e7472616374000000\n      dup2\n      mstore\n      pop\n      0x20\n      add\n      swap2\n      pop\n      pop\n      mload(0x40)\n      dup1\n      swap2\n      sub\n      swap1\n      revert\n    tag_153:\n        /* \"contracts/libraries/Address.sol\":4973:4985  bool success */\n      0x00\n        /* \"contracts/libraries/Address.sol\":4987:5010  bytes memory returndata */\n      dup1\n        /* \"contracts/libraries/Address.sol\":5014:5020  target */\n      dup7\n        /* \"contracts/libraries/Address.sol\":5014:5025  target.call */\n      0xffffffffffffffffffffffffffffffffffffffff\n      and\n        /* \"contracts/libraries/Address.sol\":5034:5039  value */\n      dup6\n        /* \"contracts/libraries/Address.sol\":5042:5046  data */\n      dup8\n        /* \"contracts/libraries/Address.sol\":5014:5047  target.call{ value: value }(data) */\n      mload(0x40)\n      dup1\n      dup3\n      dup1\n      mload\n      swap1\n      0x20\n      add\n      swap1\n      dup1\n      dup4\n      dup4\n    tag_154:\n      0x20\n      dup4\n      lt\n      tag_156\n      jumpi\n      dup1\n      mload\n      dup3\n      mstore\n      0x20\n      dup3\n      add\n      swap2\n      pop\n      0x20\n      dup2\n      add\n      swap1\n      pop\n      0x20\n      dup4\n      sub\n      swap3\n      pop\n      jump(tag_154)\n    tag_156:\n      0x01\n      dup4\n      0x20\n      sub\n      0x0100\n      exp\n      sub\n      dup1\n      not\n      dup3\n      mload\n      and\n      dup2\n      dup5\n      mload\n      and\n      dup1\n      dup3\n      or\n      dup6\n      mstore\n      pop\n      pop\n      pop\n      pop\n      pop\n      pop\n      swap1\n      pop\n      add\n      swap2\n      pop\n      pop\n      0x00\n      mload(0x40)\n      dup1\n      dup4\n      sub\n      dup2\n      dup6\n      dup8\n      gas\n      call\n      swap3\n      pop\n      pop\n      pop\n      returndatasize\n      dup1\n      0x00\n      dup2\n      eq\n      tag_159\n      jumpi\n      mload(0x40)\n      swap2\n      pop\n      and(add(returndatasize, 0x3f), not(0x1f))\n      dup3\n      add\n      0x40\n      mstore\n      returndatasize\n      dup3\n      mstore\n      returndatasize\n      0x00\n      0x20\n      dup5\n      add\n      returndatacopy\n      jump(tag_158)\n    tag_159:\n      0x60\n      swap2\n      pop\n    tag_158:\n      pop\n        /* \"contracts/libraries/Address.sol\":4972:5047  (bool success, bytes memory returndata) = target.call{ value: value }(data) */\n      swap2\n      pop\n      swap2\n      pop\n        /* \"contracts/libraries/Address.sol\":5064:5116  _verifyCallResult(success, returndata, errorMessage) */\n      tag_160\n        /* \"contracts/libraries/Address.sol\":5082:5089  success */\n      dup3\n        /* \"contracts/libraries/Address.sol\":5091:5101  returndata */\n      dup3\n        /* \"contracts/libraries/Address.sol\":5103:5115  errorMessage */\n      dup7\n        /* \"contracts/libraries/Address.sol\":5064:5081  _verifyCallResult */\n      tag_161\n        /* \"contracts/libraries/Address.sol\":5064:5116  _verifyCallResult(success, returndata, errorMessage) */\n      jump\t// in\n    tag_160:\n        /* \"contracts/libraries/Address.sol\":5057:5116  return _verifyCallResult(success, returndata, errorMessage) */\n      swap3\n      pop\n      pop\n      pop\n        /* \"contracts/libraries/Address.sol\":4600:5123  function functionCallWithValue(address target, bytes memory data, uint256 value, string memory errorMessage) internal returns (bytes memory) {... */\n      swap5\n      swap4\n      pop\n      pop\n      pop\n      pop\n      jump\t// out\n        /* \"contracts/libraries/Address.sol\":718:1131  function isContract(address account) internal view returns (bool) {... */\n    tag_152:\n        /* \"contracts/libraries/Address.sol\":778:782  bool */\n      0x00\n        /* \"contracts/libraries/Address.sol\":981:993  uint256 size */\n      dup1\n        /* \"contracts/libraries/Address.sol\":1090:1097  account */\n      dup3\n        /* \"contracts/libraries/Address.sol\":1078:1098  extcodesize(account) */\n      extcodesize\n        /* \"contracts/libraries/Address.sol\":1070:1098  size := extcodesize(account) */\n      swap1\n      pop\n        /* \"contracts/libraries/Address.sol\":1123:1124  0 */\n      0x00\n        /* \"contracts/libraries/Address.sol\":1116:1120  size */\n      dup2\n        /* \"contracts/libraries/Address.sol\":1116:1124  size > 0 */\n      gt\n        /* \"contracts/libraries/Address.sol\":1109:1124  return size > 0 */\n      swap2\n      pop\n      pop\n        /* \"contracts/libraries/Address.sol\":718:1131  function isContract(address account) internal view returns (bool) {... */\n      swap2\n      swap1\n      pop\n      jump\t// out\n        /* \"contracts/libraries/Address.sol\":7083:7808  function _verifyCallResult(bool success, bytes memory returndata, string memory errorMessage) private pure returns(bytes memory) {... */\n    tag_161:\n        /* \"contracts/libraries/Address.sol\":7198:7210  bytes memory */\n      0x60\n        /* \"contracts/libraries/Address.sol\":7226:7233  success */\n      dup4\n        /* \"contracts/libraries/Address.sol\":7222:7802  if (success) {... */\n      iszero\n      tag_164\n      jumpi\n        /* \"contracts/libraries/Address.sol\":7256:7266  returndata */\n      dup3\n        /* \"contracts/libraries/Address.sol\":7249:7266  return returndata */\n      swap1\n      pop\n      jump(tag_163)\n        /* \"contracts/libraries/Address.sol\":7222:7802  if (success) {... */\n    tag_164:\n        /* \"contracts/libraries/Address.sol\":7387:7388  0 */\n      0x00\n        /* \"contracts/libraries/Address.sol\":7367:7377  returndata */\n      dup4\n        /* \"contracts/libraries/Address.sol\":7367:7384  returndata.length */\n      mload\n        /* \"contracts/libraries/Address.sol\":7367:7388  returndata.length > 0 */\n      gt\n        /* \"contracts/libraries/Address.sol\":7363:7792  if (returndata.length > 0) {... */\n      iszero\n      tag_166\n      jumpi\n        /* \"contracts/libraries/Address.sol\":7625:7635  returndata */\n      dup3\n        /* \"contracts/libraries/Address.sol\":7619:7636  mload(returndata) */\n      mload\n        /* \"contracts/libraries/Address.sol\":7685:7700  returndata_size */\n      dup1\n        /* \"contracts/libraries/Address.sol\":7672:7682  returndata */\n      dup5\n        /* \"contracts/libraries/Address.sol\":7668:7670  32 */\n      0x20\n        /* \"contracts/libraries/Address.sol\":7664:7683  add(32, returndata) */\n      add\n        /* \"contracts/libraries/Address.sol\":7657:7701  revert(add(32, returndata), returndata_size) */\n      revert\n        /* \"contracts/libraries/Address.sol\":7574:7719  {... */\n    tag_166:\n        /* \"contracts/libraries/Address.sol\":7764:7776  errorMessage */\n      dup2\n        /* \"contracts/libraries/Address.sol\":7757:7777  revert(errorMessage) */\n      mload(0x40)\n      0x08c379a000000000000000000000000000000000000000000000000000000000\n      dup2\n      mstore\n      0x04\n      add\n      dup1\n      dup1\n      0x20\n      add\n      dup3\n      dup2\n      sub\n      dup3\n      mstore\n      dup4\n      dup2\n      dup2\n      mload\n      dup2\n      mstore\n      0x20\n      add\n      swap2\n      pop\n      dup1\n      mload\n      swap1\n      0x20\n      add\n      swap1\n      dup1\n      dup4\n      dup4\n      0x00\n    tag_168:\n      dup4\n      dup2\n      lt\n      iszero\n      tag_170\n      jumpi\n      dup1\n      dup3\n      add\n      mload\n      dup2\n      dup5\n      add\n      mstore\n      0x20\n      dup2\n      add\n      swap1\n      pop\n      jump(tag_168)\n    tag_170:\n      pop\n      pop\n      pop\n      pop\n      swap1\n      pop\n      swap1\n      dup2\n      add\n      swap1\n      0x1f\n      and\n      dup1\n      iszero\n      tag_171\n      jumpi\n      dup1\n      dup3\n      sub\n      dup1\n      mload\n      0x01\n      dup4\n      0x20\n      sub\n      0x0100\n      exp\n      sub\n      not\n      and\n      dup2\n      mstore\n      0x20\n      add\n      swap2\n      pop\n    tag_171:\n      pop\n      swap3\n      pop\n      pop\n      pop\n      mload(0x40)\n      dup1\n      swap2\n      sub\n      swap1\n      revert\n        /* \"contracts/libraries/Address.sol\":7083:7808  function _verifyCallResult(bool success, bytes memory returndata, string memory errorMessage) private pure returns(bytes memory) {... */\n    tag_163:\n      swap4\n      swap3\n      pop\n      pop\n      pop\n      jump\t// out\n    stop\n    data_245f15ff17f551913a7a18385165551503906a406f905ac1c2437281a7cd0cfe 4f776e61626c653a206e6577206f776e657220697320746865207a65726f2061646472657373\n    data_565f1a77334fc4792800921178c71e4521acffab18ff9e7885b49377ee80ab4c 416464726573733a20696e73756666696369656e742062616c616e636520666f722063616c6c\n    data_9113bb53c2876a3805b2c9242029423fc540a728243ce887ab24c82cf119fba3 536166654d6174683a206d756c7469706c69636174696f6e206f766572666c6f77\n    data_e11ad79d1e4a7f2e5f376964cb99e8e8f7904e3fc16a109f7a7ecb9aa7956dcd 5361666545524332303a204552433230206f7065726174696f6e20646964206e6f742073756363656564\n\n    auxdata: 0xa26469706673582212207a63a459368ac067c8010e2fa8db625bd71ce3daccb6cd2cb35aa4a4bdd4fb0e64736f6c63430007060033\n}\n",
				"bytecode": {
					"linkReferences": {},
					"object": "608060405261186a6004556109c460055534801561001c57600080fd5b5060405161171e38038061171e8339818101604052606081101561003f57600080fd5b8101908080519060200190929190805190602001909291908051906020019092919050505061008061007561014b60201b60201c565b61015360201b60201c565b82600160006101000a81548173ffffffffffffffffffffffffffffffffffffffff021916908373ffffffffffffffffffffffffffffffffffffffff16021790555081600260006101000a81548173ffffffffffffffffffffffffffffffffffffffff021916908373ffffffffffffffffffffffffffffffffffffffff16021790555080600360006101000a81548173ffffffffffffffffffffffffffffffffffffffff021916908373ffffffffffffffffffffffffffffffffffffffff160217905550505050610217565b600033905090565b60008060009054906101000a900473ffffffffffffffffffffffffffffffffffffffff169050816000806101000a81548173ffffffffffffffffffffffffffffffffffffffff021916908373ffffffffffffffffffffffffffffffffffffffff1602179055508173ffffffffffffffffffffffffffffffffffffffff168173ffffffffffffffffffffffffffffffffffffffff167f8be0079c531659141344cd1fd0a4f28419497f9722a3daafe3b4186f6b6457e060405160405180910390a35050565b6114f8806102266000396000f3fe608060405234801561001057600080fd5b50600436106100f55760003560e01c8063715018a6116100975780639bafaaa4116100665780639bafaaa41461032e578063dc30819314610372578063e2c8dd34146103a6578063f2fde38b146103da576100f5565b8063715018a6146102485780637500412b1461025257806386df07ba146102b65780638da5cb5b146102fa576100f5565b8063327de06a116100d3578063327de06a146101905780633f428adc146101d4578063541effc3146101f25780636479020814610210576100f5565b80630481531d146100fa5780631efee6be1461013e5780632ab8fc1e1461015c575b600080fd5b61013c6004803603602081101561011057600080fd5b81019080803573ffffffffffffffffffffffffffffffffffffffff16906020019092919050505061041e565b005b61014661050d565b6040518082815260200191505060405180910390f35b610164610513565b604051808273ffffffffffffffffffffffffffffffffffffffff16815260200191505060405180910390f35b6101d2600480360360208110156101a657600080fd5b81019080803573ffffffffffffffffffffffffffffffffffffffff169060200190929190505050610539565b005b6101dc610628565b6040518082815260200191505060405180910390f35b6101fa61062e565b6040518082815260200191505060405180910390f35b6102466004803603604081101561022657600080fd5b810190808035906020019092919080359060200190929190505050610634565b005b6102506106d8565b005b6102b46004803603604081101561026857600080fd5b81019080803573ffffffffffffffffffffffffffffffffffffffff169060200190929190803573ffffffffffffffffffffffffffffffffffffffff1690602001909291905050506106ec565b005b6102f8600480360360208110156102cc57600080fd5b81019080803573ffffffffffffffffffffffffffffffffffffffff1690602001909291905050506107c4565b005b6103026108b3565b604051808273ffffffffffffffffffffffffffffffffffffffff16815260200191505060405180910390f35b6103706004803603602081101561034457600080fd5b81019080803573ffffffffffffffffffffffffffffffffffffffff1690602001909291905050506108dc565b005b61037a610b7e565b604051808273ffffffffffffffffffffffffffffffffffffffff16815260200191505060405180910390f35b6103ae610ba4565b604051808273ffffffffffffffffffffffffffffffffffffffff16815260200191505060405180910390f35b61041c600480360360208110156103f057600080fd5b81019080803573ffffffffffffffffffffffffffffffffffffffff169060200190929190505050610bca565b005b610426610c64565b600073ffffffffffffffffffffffffffffffffffffffff168173ffffffffffffffffffffffffffffffffffffffff1614156104c9576040517f08c379a000000000000000000000000000000000000000000000000000000000815260040180806020018281038252600c8152602001807f7a65726f2061646472657373000000000000000000000000000000000000000081525060200191505060405180910390fd5b80600260006101000a81548173ffffffffffffffffffffffffffffffffffffffff021916908373ffffffffffffffffffffffffffffffffffffffff16021790555050565b61271081565b600360009054906101000a900473ffffffffffffffffffffffffffffffffffffffff1681565b610541610c64565b600073ffffffffffffffffffffffffffffffffffffffff168173ffffffffffffffffffffffffffffffffffffffff1614156105e4576040517f08c379a000000000000000000000000000000000000000000000000000000000815260040180806020018281038252600c8152602001807f7a65726f2061646472657373000000000000000000000000000000000000000081525060200191505060405180910390fd5b80600160006101000a81548173ffffffffffffffffffffffffffffffffffffffff021916908373ffffffffffffffffffffffffffffffffffffffff16021790555050565b60045481565b60055481565b61063c610c64565b6127106106528284610d1590919063ffffffff16565b11156106c6576040517f08c379a000000000000000000000000000000000000000000000000000000000815260040180806020018281038252600e8152602001807f696e76616c69642073686172657300000000000000000000000000000000000081525060200191505060405180910390fd5b81600481905550806005819055505050565b6106e0610c64565b6106ea6000610d9d565b565b6106f4610c64565b6107c0818373ffffffffffffffffffffffffffffffffffffffff166370a08231306040518263ffffffff1660e01b8152600401808273ffffffffffffffffffffffffffffffffffffffff16815260200191505060206040518083038186803b15801561075f57600080fd5b505afa158015610773573d6000803e3d6000fd5b505050506040513d602081101561078957600080fd5b81019080805190602001909291905050508473ffffffffffffffffffffffffffffffffffffffff16610e619092919063ffffffff16565b5050565b6107cc610c64565b600073ffffffffffffffffffffffffffffffffffffffff168173ffffffffffffffffffffffffffffffffffffffff16141561086f576040517f08c379a000000000000000000000000000000000000000000000000000000000815260040180806020018281038252600c8152602001807f7a65726f2061646472657373000000000000000000000000000000000000000081525060200191505060405180910390fd5b80600360006101000a81548173ffffffffffffffffffffffffffffffffffffffff021916908373ffffffffffffffffffffffffffffffffffffffff16021790555050565b60008060009054906101000a900473ffffffffffffffffffffffffffffffffffffffff16905090565b6108e4610c64565b60008173ffffffffffffffffffffffffffffffffffffffff166370a08231306040518263ffffffff1660e01b8152600401808273ffffffffffffffffffffffffffffffffffffffff16815260200191505060206040518083038186803b15801561094d57600080fd5b505afa158015610961573d6000803e3d6000fd5b505050506040513d602081101561097757600080fd5b8101908080519060200190929190505050905060006109b56127106109a760045485610f0390919063ffffffff16565b610f8990919063ffffffff16565b905060006109e26127106109d460055486610f0390919063ffffffff16565b610f8990919063ffffffff16565b90506000610a0b826109fd858761101290919063ffffffff16565b61101290919063ffffffff16565b90506000831115610a6457610a63600160009054906101000a900473ffffffffffffffffffffffffffffffffffffffff16848773ffffffffffffffffffffffffffffffffffffffff16610e619092919063ffffffff16565b5b6000821115610abb57610aba600260009054906101000a900473ffffffffffffffffffffffffffffffffffffffff16838773ffffffffffffffffffffffffffffffffffffffff16610e619092919063ffffffff16565b5b6000811115610b1257610b11600360009054906101000a900473ffffffffffffffffffffffffffffffffffffffff16828773ffffffffffffffffffffffffffffffffffffffff16610e619092919063ffffffff16565b5b7f899f4b1088197f1163efe7b38e0e7ce07a6b129dadf58829dd71fae27f1f237485848484604051808573ffffffffffffffffffffffffffffffffffffffff16815260200184815260200183815260200182815260200194505050505060405180910390a15050505050565b600260009054906101000a900473ffffffffffffffffffffffffffffffffffffffff1681565b600160009054906101000a900473ffffffffffffffffffffffffffffffffffffffff1681565b610bd2610c64565b600073ffffffffffffffffffffffffffffffffffffffff168173ffffffffffffffffffffffffffffffffffffffff161415610c58576040517f08c379a000000000000000000000000000000000000000000000000000000000815260040180806020018281038252602681526020018061142c6026913960400191505060405180910390fd5b610c6181610d9d565b50565b610c6c611095565b73ffffffffffffffffffffffffffffffffffffffff16610c8a6108b3565b73ffffffffffffffffffffffffffffffffffffffff1614610d13576040517f08c379a00000000000000000000000000000000000000000000000000000000081526004018080602001828103825260208152602001807f4f776e61626c653a2063616c6c6572206973206e6f7420746865206f776e657281525060200191505060405180910390fd5b565b600080828401905083811015610d93576040517f08c379a000000000000000000000000000000000000000000000000000000000815260040180806020018281038252601b8152602001807f536166654d6174683a206164646974696f6e206f766572666c6f77000000000081525060200191505060405180910390fd5b8091505092915050565b60008060009054906101000a900473ffffffffffffffffffffffffffffffffffffffff169050816000806101000a81548173ffffffffffffffffffffffffffffffffffffffff021916908373ffffffffffffffffffffffffffffffffffffffff1602179055508173ffffffffffffffffffffffffffffffffffffffff168173ffffffffffffffffffffffffffffffffffffffff167f8be0079c531659141344cd1fd0a4f28419497f9722a3daafe3b4186f6b6457e060405160405180910390a35050565b610efe8363a9059cbb60e01b8484604051602401808373ffffffffffffffffffffffffffffffffffffffff16815260200182815260200192505050604051602081830303815290604052907bffffffffffffffffffffffffffffffffffffffffffffffffffffffff19166020820180517bffffffffffffffffffffffffffffffffffffffffffffffffffffffff838183161783525050505061109d565b505050565b600080831415610f165760009050610f83565b6000828402905082848281610f2757fe5b0414610f7e576040517f08c379a00000000000000000000000000000000000000000000000000000000081526004018080602001828103825260218152602001806114786021913960400191505060405180910390fd5b809150505b92915050565b6000808211611000576040517f08c379a000000000000000000000000000000000000000000000000000000000815260040180806020018281038252601a8152602001807f536166654d6174683a206469766973696f6e206279207a65726f00000000000081525060200191505060405180910390fd5b81838161100957fe5b04905092915050565b60008282111561108a576040517f08c379a000000000000000000000000000000000000000000000000000000000815260040180806020018281038252601e8152602001807f536166654d6174683a207375627472616374696f6e206f766572666c6f77000081525060200191505060405180910390fd5b818303905092915050565b600033905090565b60006110ff826040518060400160405280602081526020017f5361666545524332303a206c6f772d6c6576656c2063616c6c206661696c65648152508573ffffffffffffffffffffffffffffffffffffffff1661118c9092919063ffffffff16565b90506000815111156111875780806020019051602081101561112057600080fd5b8101908080519060200190929190505050611186576040517f08c379a000000000000000000000000000000000000000000000000000000000815260040180806020018281038252602a815260200180611499602a913960400191505060405180910390fd5b5b505050565b606061119b84846000856111a4565b90509392505050565b6060824710156111ff576040517f08c379a00000000000000000000000000000000000000000000000000000000081526004018080602001828103825260268152602001806114526026913960400191505060405180910390fd5b6112088561134c565b61127a576040517f08c379a000000000000000000000000000000000000000000000000000000000815260040180806020018281038252601d8152602001807f416464726573733a2063616c6c20746f206e6f6e2d636f6e747261637400000081525060200191505060405180910390fd5b6000808673ffffffffffffffffffffffffffffffffffffffff1685876040518082805190602001908083835b602083106112c957805182526020820191506020810190506020830392506112a6565b6001836020036101000a03801982511681845116808217855250505050505090500191505060006040518083038185875af1925050503d806000811461132b576040519150601f19603f3d011682016040523d82523d6000602084013e611330565b606091505b509150915061134082828661135f565b92505050949350505050565b600080823b905060008111915050919050565b6060831561136f57829050611424565b6000835111156113825782518084602001fd5b816040517f08c379a00000000000000000000000000000000000000000000000000000000081526004018080602001828103825283818151815260200191508051906020019080838360005b838110156113e95780820151818401526020810190506113ce565b50505050905090810190601f1680156114165780820380516001836020036101000a031916815260200191505b509250505060405180910390fd5b939250505056fe4f776e61626c653a206e6577206f776e657220697320746865207a65726f2061646472657373416464726573733a20696e73756666696369656e742062616c616e636520666f722063616c6c536166654d6174683a206d756c7469706c69636174696f6e206f766572666c6f775361666545524332303a204552433230206f7065726174696f6e20646964206e6f742073756363656564a26469706673582212207a63a459368ac067c8010e2fa8db625bd71ce3daccb6cd2cb35aa4a4bdd4fb0e64736f6c63430007060033",
					"opcodes": "PUSH1 0x80 PUSH1 0x40 MSTORE PUSH2 0x186A PUSH1 0x4 SSTORE PUSH2 0x9C4 PUSH1 0x5 SSTORE CALLVALUE DUP1 ISZERO PUSH2 0x1C JUMPI PUSH1 0x0 DUP1 REVERT JUMPDEST POP PUSH1 0x40 MLOAD PUSH2 0x171E CODESIZE SUB DUP1 PUSH2 0x171E DUP4 CODECOPY DUP2 DUP2 ADD PUSH1 0x40 MSTORE PUSH1 0x60 DUP2 LT ISZERO PUSH2 0x3F JUMPI PUSH1 0x0 DUP1 REVERT JUMPDEST DUP2 ADD SWAP1 DUP1 DUP1 MLOAD SWAP1 PUSH1 0x20 ADD SWAP1 SWAP3 SWAP2 SWAP1 DUP1 MLOAD SWAP1 PUSH1 0x20 ADD SWAP1 SWAP3 SWAP2 SWAP1 DUP1 MLOAD SWAP1 PUSH1 0x20 ADD SWAP1 SWAP3 SWAP2 SWAP1 POP POP POP PUSH2 0x80 PUSH2 0x75 PUSH2 0x14B PUSH1 0x20 SHL PUSH1 0x20 SHR JUMP JUMPDEST PUSH2 0x153 PUSH1 0x20 SHL PUSH1 0x20 SHR JUMP JUMPDEST DUP3 PUSH1 0x1 PUSH1 0x0 PUSH2 0x100 EXP DUP2 SLOAD DUP2 PUSH20 0xFFFFFFFFFFFFFFFFFFFFFFFFFFFFFFFFFFFFFFFF MUL NOT AND SWAP1 DUP4 PUSH20 0xFFFFFFFFFFFFFFFFFFFFFFFFFFFFFFFFFFFFFFFF AND MUL OR SWAP1 SSTORE POP DUP2 PUSH1 0x2 PUSH1 0x0 PUSH2 0x100 EXP DUP2 SLOAD DUP2 PUSH20 0xFFFFFFFFFFFFFFFFFFFFFFFFFFFFFFFFFFFFFFFF MUL NOT AND SWAP1 DUP4 PUSH20 0xFFFFFFFFFFFFFFFFFFFFFFFFFFFFFFFFFFFFFFFF AND MUL OR SWAP1 SSTORE POP DUP1 PUSH1 0x3 PUSH1 0x0 PUSH2 0x100 EXP DUP2 SLOAD DUP2 PUSH20 0xFFFFFFFFFFFFFFFFFFFFFFFFFFFFFFFFFFFFFFFF MUL NOT AND SWAP1 DUP4 PUSH20 0xFFFFFFFFFFFFFFFFFFFFFFFFFFFFFFFFFFFFFFFF AND MUL OR SWAP1 SSTORE POP POP POP POP PUSH2 0x217 JUMP JUMPDEST PUSH1 0x0 CALLER SWAP1 POP SWAP1 JUMP JUMPDEST PUSH1 0x0 DUP1 PUSH1 0x0 SWAP1 SLOAD SWAP1 PUSH2 0x100 EXP SWAP1 DIV PUSH20 0xFFFFFFFFFFFFFFFFFFFFFFFFFFFFFFFFFFFFFFFF AND SWAP1 POP DUP2 PUSH1 0x0 DUP1 PUSH2 0x100 EXP DUP2 SLOAD DUP2 PUSH20 0xFFFFFFFFFFFFFFFFFFFFFFFFFFFFFFFFFFFFFFFF MUL NOT AND SWAP1 DUP4 PUSH20 0xFFFFFFFFFFFFFFFFFFFFFFFFFFFFFFFFFFFFFFFF AND MUL OR SWAP1 SSTORE POP DUP2 PUSH20 0xFFFFFFFFFFFFFFFFFFFFFFFFFFFFFFFFFFFFFFFF AND DUP2 PUSH20 0xFFFFFFFFFFFFFFFFFFFFFFFFFFFFFFFFFFFFFFFF AND PUSH32 0x8BE0079C531659141344CD1FD0A4F28419497F9722A3DAAFE3B4186F6B6457E0 PUSH1 0x40 MLOAD PUSH1 0x40 MLOAD DUP1 SWAP2 SUB SWAP1 LOG3 POP POP JUMP JUMPDEST PUSH2 0x14F8 DUP1 PUSH2 0x226 PUSH1 0x0 CODECOPY PUSH1 0x0 RETURN INVALID PUSH1 0x80 PUSH1 0x40 MSTORE CALLVALUE DUP1 ISZERO PUSH2 0x10 JUMPI PUSH1 0x0 DUP1 REVERT JUMPDEST POP PUSH1 0x4 CALLDATASIZE LT PUSH2 0xF5 JUMPI PUSH1 0x0 CALLDATALOAD PUSH1 0xE0 SHR DUP1 PUSH4 0x715018A6 GT PUSH2 0x97 JUMPI DUP1 PUSH4 0x9BAFAAA4 GT PUSH2 0x66 JUMPI DUP1 PUSH4 0x9BAFAAA4 EQ PUSH2 0x32E JUMPI DUP1 PUSH4 0xDC308193 EQ PUSH2 0x372 JUMPI DUP1 PUSH4 0xE2C8DD34 EQ PUSH2 0x3A6 JUMPI DUP1 PUSH4 0xF2FDE38B EQ PUSH2 0x3DA JUMPI PUSH2 0xF5 JUMP JUMPDEST DUP1 PUSH4 0x715018A6 EQ PUSH2 0x248 JUMPI DUP1 PUSH4 0x7500412B EQ PUSH2 0x252 JUMPI DUP1 PUSH4 0x86DF07BA EQ PUSH2 0x2B6 JUMPI DUP1 PUSH4 0x8DA5CB5B EQ PUSH2 0x2FA JUMPI PUSH2 0xF5 JUMP JUMPDEST DUP1 PUSH4 0x327DE06A GT PUSH2 0xD3 JUMPI DUP1 PUSH4 0x327DE06A EQ PUSH2 0x190 JUMPI DUP1 PUSH4 0x3F428ADC EQ PUSH2 0x1D4 JUMPI DUP1 PUSH4 0x541EFFC3 EQ PUSH2 0x1F2 JUMPI DUP1 PUSH4 0x64790208 EQ PUSH2 0x210 JUMPI PUSH2 0xF5 JUMP JUMPDEST DUP1 PUSH4 0x481531D EQ PUSH2 0xFA JUMPI DUP1 PUSH4 0x1EFEE6BE EQ PUSH2 0x13E JUMPI DUP1 PUSH4 0x2AB8FC1E EQ PUSH2 0x15C JUMPI JUMPDEST PUSH1 0x0 DUP1 REVERT JUMPDEST PUSH2 0x13C PUSH1 0x4 DUP1 CALLDATASIZE SUB PUSH1 0x20 DUP2 LT ISZERO PUSH2 0x110 JUMPI PUSH1 0x0 DUP1 REVERT JUMPDEST DUP2 ADD SWAP1 DUP1 DUP1 CALLDATALOAD PUSH20 0xFFFFFFFFFFFFFFFFFFFFFFFFFFFFFFFFFFFFFFFF AND SWAP1 PUSH1 0x20 ADD SWAP1 SWAP3 SWAP2 SWAP1 POP POP POP PUSH2 0x41E JUMP JUMPDEST STOP JUMPDEST PUSH2 0x146 PUSH2 0x50D JUMP JUMPDEST PUSH1 0x40 MLOAD DUP1 DUP3 DUP2 MSTORE PUSH1 0x20 ADD SWAP2 POP POP PUSH1 0x40 MLOAD DUP1 SWAP2 SUB SWAP1 RETURN JUMPDEST PUSH2 0x164 PUSH2 0x513 JUMP JUMPDEST PUSH1 0x40 MLOAD DUP1 DUP3 PUSH20 0xFFFFFFFFFFFFFFFFFFFFFFFFFFFFFFFFFFFFFFFF AND DUP2 MSTORE PUSH1 0x20 ADD SWAP2 POP POP PUSH1 0x40 MLOAD DUP1 SWAP2 SUB SWAP1 RETURN JUMPDEST PUSH2 0x1D2 PUSH1 0x4 DUP1 CALLDATASIZE SUB PUSH1 0x20 DUP2 LT ISZERO PUSH2 0x1A6 JUMPI PUSH1 0x0 DUP1 REVERT JUMPDEST DUP2 ADD SWAP1 DUP1 DUP1 CALLDATALOAD PUSH20 0xFFFFFFFFFFFFFFFFFFFFFFFFFFFFFFFFFFFFFFFF AND SWAP1 PUSH1 0x20 ADD SWAP1 SWAP3 SWAP2 SWAP1 POP POP POP PUSH2 0x539 JUMP JUMPDEST STOP JUMPDEST PUSH2 0x1DC PUSH2 0x628 JUMP JUMPDEST PUSH1 0x40 MLOAD DUP1 DUP3 DUP2 MSTORE PUSH1 0x20 ADD SWAP2 POP POP PUSH1 0x40 MLOAD DUP1 SWAP2 SUB SWAP1 RETURN JUMPDEST PUSH2 0x1FA PUSH2 0x62E JUMP JUMPDEST PUSH1 0x40 MLOAD DUP1 DUP3 DUP2 MSTORE PUSH1 0x20 ADD SWAP2 POP POP PUSH1 0x40 MLOAD DUP1 SWAP2 SUB SWAP1 RETURN JUMPDEST PUSH2 0x246 PUSH1 0x4 DUP1 CALLDATASIZE SUB PUSH1 0x40 DUP2 LT ISZERO PUSH2 0x226 JUMPI PUSH1 0x0 DUP1 REVERT JUMPDEST DUP2 ADD SWAP1 DUP1 DUP1 CALLDATALOAD SWAP1 PUSH1 0x20 ADD SWAP1 SWAP3 SWAP2 SWAP1 DUP1 CALLDATALOAD SWAP1 PUSH1 0x20 ADD SWAP1 SWAP3 SWAP2 SWAP1 POP POP POP PUSH2 0x634 JUMP JUMPDEST STOP JUMPDEST PUSH2 0x250 PUSH2 0x6D8 JUMP JUMPDEST STOP JUMPDEST PUSH2 0x2B4 PUSH1 0x4 DUP1 CALLDATASIZE SUB PUSH1 0x40 DUP2 LT ISZERO PUSH2 0x268 JUMPI PUSH1 0x0 DUP1 REVERT JUMPDEST DUP2 ADD SWAP1 DUP1 DUP1 CALLDATALOAD PUSH20 0xFFFFFFFFFFFFFFFFFFFFFFFFFFFFFFFFFFFFFFFF AND SWAP1 PUSH1 0x20 ADD SWAP1 SWAP3 SWAP2 SWAP1 DUP1 CALLDATALOAD PUSH20 0xFFFFFFFFFFFFFFFFFFFFFFFFFFFFFFFFFFFFFFFF AND SWAP1 PUSH1 0x20 ADD SWAP1 SWAP3 SWAP2 SWAP1 POP POP POP PUSH2 0x6EC JUMP JUMPDEST STOP JUMPDEST PUSH2 0x2F8 PUSH1 0x4 DUP1 CALLDATASIZE SUB PUSH1 0x20 DUP2 LT ISZERO PUSH2 0x2CC JUMPI PUSH1 0x0 DUP1 REVERT JUMPDEST DUP2 ADD SWAP1 DUP1 DUP1 CALLDATALOAD PUSH20 0xFFFFFFFFFFFFFFFFFFFFFFFFFFFFFFFFFFFFFFFF AND SWAP1 PUSH1 0x20 ADD SWAP1 SWAP3 SWAP2 SWAP1 POP POP POP PUSH2 0x7C4 JUMP JUMPDEST STOP JUMPDEST PUSH2 0x302 PUSH2 0x8B3 JUMP JUMPDEST PUSH1 0x40 MLOAD DUP1 DUP3 PUSH20 0xFFFFFFFFFFFFFFFFFFFFFFFFFFFFFFFFFFFFFFFF AND DUP2 MSTORE PUSH1 0x20 ADD SWAP2 POP POP PUSH1 0x40 MLOAD DUP1 SWAP2 SUB SWAP1 RETURN JUMPDEST PUSH2 0x370 PUSH1 0x4 DUP1 CALLDATASIZE SUB PUSH1 0x20 DUP2 LT ISZERO PUSH2 0x344 JUMPI PUSH1 0x0 DUP1 REVERT JUMPDEST DUP2 ADD SWAP1 DUP1 DUP1 CALLDATALOAD PUSH20 0xFFFFFFFFFFFFFFFFFFFFFFFFFFFFFFFFFFFFFFFF AND SWAP1 PUSH1 0x20 ADD SWAP1 SWAP3 SWAP2 SWAP1 POP POP POP PUSH2 0x8DC JUMP JUMPDEST STOP JUMPDEST PUSH2 0x37A PUSH2 0xB7E JUMP JUMPDEST PUSH1 0x40 MLOAD DUP1 DUP3 PUSH20 0xFFFFFFFFFFFFFFFFFFFFFFFFFFFFFFFFFFFFFFFF AND DUP2 MSTORE PUSH1 0x20 ADD SWAP2 POP POP PUSH1 0x40 MLOAD DUP1 SWAP2 SUB SWAP1 RETURN JUMPDEST PUSH2 0x3AE PUSH2 0xBA4 JUMP JUMPDEST PUSH1 0x40 MLOAD DUP1 DUP3 PUSH20 0xFFFFFFFFFFFFFFFFFFFFFFFFFFFFFFFFFFFFFFFF AND DUP2 MSTORE PUSH1 0x20 ADD SWAP2 POP POP PUSH1 0x40 MLOAD DUP1 SWAP2 SUB SWAP1 RETURN JUMPDEST PUSH2 0x41C PUSH1 0x4 DUP1 CALLDATASIZE SUB PUSH1 0x20 DUP2 LT ISZERO PUSH2 0x3F0 JUMPI PUSH1 0x0 DUP1 REVERT JUMPDEST DUP2 ADD SWAP1 DUP1 DUP1 CALLDATALOAD PUSH20 0xFFFFFFFFFFFFFFFFFFFFFFFFFFFFFFFFFFFFFFFF AND SWAP1 PUSH1 0x20 ADD SWAP1 SWAP3 SWAP2 SWAP1 POP POP POP PUSH2 0xBCA JUMP JUMPDEST STOP JUMPDEST PUSH2 0x426 PUSH2 0xC64 JUMP JUMPDEST PUSH1 0x0 PUSH20 0xFFFFFFFFFFFFFFFFFFFFFFFFFFFFFFFFFFFFFFFF AND DUP2 PUSH20 0xFFFFFFFFFFFFFFFFFFFFFFFFFFFFFFFFFFFFFFFF AND EQ ISZERO PUSH2 0x4C9 JUMPI PUSH1 0x40 MLOAD PUSH32 0x8C379A000000000000000000000000000000000000000000000000000000000 DUP2 MSTORE PUSH1 0x4 ADD DUP1 DUP1 PUSH1 0x20 ADD DUP3 DUP2 SUB DUP3 MSTORE PUSH1 0xC DUP2 MSTORE PUSH1 0x20 ADD DUP1 PUSH32 0x7A65726F20616464726573730000000000000000000000000000000000000000 DUP2 MSTORE POP PUSH1 0x20 ADD SWAP2 POP POP PUSH1 0x40 MLOAD DUP1 SWAP2 SUB SWAP1 REVERT JUMPDEST DUP1 PUSH1 0x2 PUSH1 0x0 PUSH2 0x100 EXP DUP2 SLOAD DUP2 PUSH20 0xFFFFFFFFFFFFFFFFFFFFFFFFFFFFFFFFFFFFFFFF MUL NOT AND SWAP1 DUP4 PUSH20 0xFFFFFFFFFFFFFFFFFFFFFFFFFFFFFFFFFFFFFFFF AND MUL OR SWAP1 SSTORE POP POP JUMP JUMPDEST PUSH2 0x2710 DUP2 JUMP JUMPDEST PUSH1 0x3 PUSH1 0x0 SWAP1 SLOAD SWAP1 PUSH2 0x100 EXP SWAP1 DIV PUSH20 0xFFFFFFFFFFFFFFFFFFFFFFFFFFFFFFFFFFFFFFFF AND DUP2 JUMP JUMPDEST PUSH2 0x541 PUSH2 0xC64 JUMP JUMPDEST PUSH1 0x0 PUSH20 0xFFFFFFFFFFFFFFFFFFFFFFFFFFFFFFFFFFFFFFFF AND DUP2 PUSH20 0xFFFFFFFFFFFFFFFFFFFFFFFFFFFFFFFFFFFFFFFF AND EQ ISZERO PUSH2 0x5E4 JUMPI PUSH1 0x40 MLOAD PUSH32 0x8C379A000000000000000000000000000000000000000000000000000000000 DUP2 MSTORE PUSH1 0x4 ADD DUP1 DUP1 PUSH1 0x20 ADD DUP3 DUP2 SUB DUP3 MSTORE PUSH1 0xC DUP2 MSTORE PUSH1 0x20 ADD DUP1 PUSH32 0x7A65726F20616464726573730000000000000000000000000000000000000000 DUP2 MSTORE POP PUSH1 0x20 ADD SWAP2 POP POP PUSH1 0x40 MLOAD DUP1 SWAP2 SUB SWAP1 REVERT JUMPDEST DUP1 PUSH1 0x1 PUSH1 0x0 PUSH2 0x100 EXP DUP2 SLOAD DUP2 PUSH20 0xFFFFFFFFFFFFFFFFFFFFFFFFFFFFFFFFFFFFFFFF MUL NOT AND SWAP1 DUP4 PUSH20 0xFFFFFFFFFFFFFFFFFFFFFFFFFFFFFFFFFFFFFFFF AND MUL OR SWAP1 SSTORE POP POP JUMP JUMPDEST PUSH1 0x4 SLOAD DUP2 JUMP JUMPDEST PUSH1 0x5 SLOAD DUP2 JUMP JUMPDEST PUSH2 0x63C PUSH2 0xC64 JUMP JUMPDEST PUSH2 0x2710 PUSH2 0x652 DUP3 DUP5 PUSH2 0xD15 SWAP1 SWAP2 SWAP1 PUSH4 0xFFFFFFFF AND JUMP JUMPDEST GT ISZERO PUSH2 0x6C6 JUMPI PUSH1 0x40 MLOAD PUSH32 0x8C379A000000000000000000000000000000000000000000000000000000000 DUP2 MSTORE PUSH1 0x4 ADD DUP1 DUP1 PUSH1 0x20 ADD DUP3 DUP2 SUB DUP3 MSTORE PUSH1 0xE DUP2 MSTORE PUSH1 0x20 ADD DUP1 PUSH32 0x696E76616C696420736861726573000000000000000000000000000000000000 DUP2 MSTORE POP PUSH1 0x20 ADD SWAP2 POP POP PUSH1 0x40 MLOAD DUP1 SWAP2 SUB SWAP1 REVERT JUMPDEST DUP2 PUSH1 0x4 DUP2 SWAP1 SSTORE POP DUP1 PUSH1 0x5 DUP2 SWAP1 SSTORE POP POP POP JUMP JUMPDEST PUSH2 0x6E0 PUSH2 0xC64 JUMP JUMPDEST PUSH2 0x6EA PUSH1 0x0 PUSH2 0xD9D JUMP JUMPDEST JUMP JUMPDEST PUSH2 0x6F4 PUSH2 0xC64 JUMP JUMPDEST PUSH2 0x7C0 DUP2 DUP4 PUSH20 0xFFFFFFFFFFFFFFFFFFFFFFFFFFFFFFFFFFFFFFFF AND PUSH4 0x70A08231 ADDRESS PUSH1 0x40 MLOAD DUP3 PUSH4 0xFFFFFFFF AND PUSH1 0xE0 SHL DUP2 MSTORE PUSH1 0x4 ADD DUP1 DUP3 PUSH20 0xFFFFFFFFFFFFFFFFFFFFFFFFFFFFFFFFFFFFFFFF AND DUP2 MSTORE PUSH1 0x20 ADD SWAP2 POP POP PUSH1 0x20 PUSH1 0x40 MLOAD DUP1 DUP4 SUB DUP2 DUP7 DUP1 EXTCODESIZE ISZERO DUP1 ISZERO PUSH2 0x75F JUMPI PUSH1 0x0 DUP1 REVERT JUMPDEST POP GAS STATICCALL ISZERO DUP1 ISZERO PUSH2 0x773 JUMPI RETURNDATASIZE PUSH1 0x0 DUP1 RETURNDATACOPY RETURNDATASIZE PUSH1 0x0 REVERT JUMPDEST POP POP POP POP PUSH1 0x40 MLOAD RETURNDATASIZE PUSH1 0x20 DUP2 LT ISZERO PUSH2 0x789 JUMPI PUSH1 0x0 DUP1 REVERT JUMPDEST DUP2 ADD SWAP1 DUP1 DUP1 MLOAD SWAP1 PUSH1 0x20 ADD SWAP1 SWAP3 SWAP2 SWAP1 POP POP POP DUP5 PUSH20 0xFFFFFFFFFFFFFFFFFFFFFFFFFFFFFFFFFFFFFFFF AND PUSH2 0xE61 SWAP1 SWAP3 SWAP2 SWAP1 PUSH4 0xFFFFFFFF AND JUMP JUMPDEST POP POP JUMP JUMPDEST PUSH2 0x7CC PUSH2 0xC64 JUMP JUMPDEST PUSH1 0x0 PUSH20 0xFFFFFFFFFFFFFFFFFFFFFFFFFFFFFFFFFFFFFFFF AND DUP2 PUSH20 0xFFFFFFFFFFFFFFFFFFFFFFFFFFFFFFFFFFFFFFFF AND EQ ISZERO PUSH2 0x86F JUMPI PUSH1 0x40 MLOAD PUSH32 0x8C379A000000000000000000000000000000000000000000000000000000000 DUP2 MSTORE PUSH1 0x4 ADD DUP1 DUP1 PUSH1 0x20 ADD DUP3 DUP2 SUB DUP3 MSTORE PUSH1 0xC DUP2 MSTORE PUSH1 0x20 ADD DUP1 PUSH32 0x7A65726F20616464726573730000000000000000000000000000000000000000 DUP2 MSTORE POP PUSH1 0x20 ADD SWAP2 POP POP PUSH1 0x40 MLOAD DUP1 SWAP2 SUB SWAP1 REVERT JUMPDEST DUP1 PUSH1 0x3 PUSH1 0x0 PUSH2 0x100 EXP DUP2 SLOAD DUP2 PUSH20 0xFFFFFFFFFFFFFFFFFFFFFFFFFFFFFFFFFFFFFFFF MUL NOT AND SWAP1 DUP4 PUSH20 0xFFFFFFFFFFFFFFFFFFFFFFFFFFFFFFFFFFFFFFFF AND MUL OR SWAP1 SSTORE POP POP JUMP JUMPDEST PUSH1 0x0 DUP1 PUSH1 0x0 SWAP1 SLOAD SWAP1 PUSH2 0x100 EXP SWAP1 DIV PUSH20 0xFFFFFFFFFFFFFFFFFFFFFFFFFFFFFFFFFFFFFFFF AND SWAP1 POP SWAP1 JUMP JUMPDEST PUSH2 0x8E4 PUSH2 0xC64 JUMP JUMPDEST PUSH1 0x0 DUP2 PUSH20 0xFFFFFFFFFFFFFFFFFFFFFFFFFFFFFFFFFFFFFFFF AND PUSH4 0x70A08231 ADDRESS PUSH1 0x40 MLOAD DUP3 PUSH4 0xFFFFFFFF AND PUSH1 0xE0 SHL DUP2 MSTORE PUSH1 0x4 ADD DUP1 DUP3 PUSH20 0xFFFFFFFFFFFFFFFFFFFFFFFFFFFFFFFFFFFFFFFF AND DUP2 MSTORE PUSH1 0x20 ADD SWAP2 POP POP PUSH1 0x20 PUSH1 0x40 MLOAD DUP1 DUP4 SUB DUP2 DUP7 DUP1 EXTCODESIZE ISZERO DUP1 ISZERO PUSH2 0x94D JUMPI PUSH1 0x0 DUP1 REVERT JUMPDEST POP GAS STATICCALL ISZERO DUP1 ISZERO PUSH2 0x961 JUMPI RETURNDATASIZE PUSH1 0x0 DUP1 RETURNDATACOPY RETURNDATASIZE PUSH1 0x0 REVERT JUMPDEST POP POP POP POP PUSH1 0x40 MLOAD RETURNDATASIZE PUSH1 0x20 DUP2 LT ISZERO PUSH2 0x977 JUMPI PUSH1 0x0 DUP1 REVERT JUMPDEST DUP2 ADD SWAP1 DUP1 DUP1 MLOAD SWAP1 PUSH1 0x20 ADD SWAP1 SWAP3 SWAP2 SWAP1 POP POP POP SWAP1 POP PUSH1 0x0 PUSH2 0x9B5 PUSH2 0x2710 PUSH2 0x9A7 PUSH1 0x4 SLOAD DUP6 PUSH2 0xF03 SWAP1 SWAP2 SWAP1 PUSH4 0xFFFFFFFF AND JUMP JUMPDEST PUSH2 0xF89 SWAP1 SWAP2 SWAP1 PUSH4 0xFFFFFFFF AND JUMP JUMPDEST SWAP1 POP PUSH1 0x0 PUSH2 0x9E2 PUSH2 0x2710 PUSH2 0x9D4 PUSH1 0x5 SLOAD DUP7 PUSH2 0xF03 SWAP1 SWAP2 SWAP1 PUSH4 0xFFFFFFFF AND JUMP JUMPDEST PUSH2 0xF89 SWAP1 SWAP2 SWAP1 PUSH4 0xFFFFFFFF AND JUMP JUMPDEST SWAP1 POP PUSH1 0x0 PUSH2 0xA0B DUP3 PUSH2 0x9FD DUP6 DUP8 PUSH2 0x1012 SWAP1 SWAP2 SWAP1 PUSH4 0xFFFFFFFF AND JUMP JUMPDEST PUSH2 0x1012 SWAP1 SWAP2 SWAP1 PUSH4 0xFFFFFFFF AND JUMP JUMPDEST SWAP1 POP PUSH1 0x0 DUP4 GT ISZERO PUSH2 0xA64 JUMPI PUSH2 0xA63 PUSH1 0x1 PUSH1 0x0 SWAP1 SLOAD SWAP1 PUSH2 0x100 EXP SWAP1 DIV PUSH20 0xFFFFFFFFFFFFFFFFFFFFFFFFFFFFFFFFFFFFFFFF AND DUP5 DUP8 PUSH20 0xFFFFFFFFFFFFFFFFFFFFFFFFFFFFFFFFFFFFFFFF AND PUSH2 0xE61 SWAP1 SWAP3 SWAP2 SWAP1 PUSH4 0xFFFFFFFF AND JUMP JUMPDEST JUMPDEST PUSH1 0x0 DUP3 GT ISZERO PUSH2 0xABB JUMPI PUSH2 0xABA PUSH1 0x2 PUSH1 0x0 SWAP1 SLOAD SWAP1 PUSH2 0x100 EXP SWAP1 DIV PUSH20 0xFFFFFFFFFFFFFFFFFFFFFFFFFFFFFFFFFFFFFFFF AND DUP4 DUP8 PUSH20 0xFFFFFFFFFFFFFFFFFFFFFFFFFFFFFFFFFFFFFFFF AND PUSH2 0xE61 SWAP1 SWAP3 SWAP2 SWAP1 PUSH4 0xFFFFFFFF AND JUMP JUMPDEST JUMPDEST PUSH1 0x0 DUP2 GT ISZERO PUSH2 0xB12 JUMPI PUSH2 0xB11 PUSH1 0x3 PUSH1 0x0 SWAP1 SLOAD SWAP1 PUSH2 0x100 EXP SWAP1 DIV PUSH20 0xFFFFFFFFFFFFFFFFFFFFFFFFFFFFFFFFFFFFFFFF AND DUP3 DUP8 PUSH20 0xFFFFFFFFFFFFFFFFFFFFFFFFFFFFFFFFFFFFFFFF AND PUSH2 0xE61 SWAP1 SWAP3 SWAP2 SWAP1 PUSH4 0xFFFFFFFF AND JUMP JUMPDEST JUMPDEST PUSH32 0x899F4B1088197F1163EFE7B38E0E7CE07A6B129DADF58829DD71FAE27F1F2374 DUP6 DUP5 DUP5 DUP5 PUSH1 0x40 MLOAD DUP1 DUP6 PUSH20 0xFFFFFFFFFFFFFFFFFFFFFFFFFFFFFFFFFFFFFFFF AND DUP2 MSTORE PUSH1 0x20 ADD DUP5 DUP2 MSTORE PUSH1 0x20 ADD DUP4 DUP2 MSTORE PUSH1 0x20 ADD DUP3 DUP2 MSTORE PUSH1 0x20 ADD SWAP5 POP POP POP POP POP PUSH1 0x40 MLOAD DUP1 SWAP2 SUB SWAP1 LOG1 POP POP POP POP POP JUMP JUMPDEST PUSH1 0x2 PUSH1 0x0 SWAP1 SLOAD SWAP1 PUSH2 0x100 EXP SWAP1 DIV PUSH20 0xFFFFFFFFFFFFFFFFFFFFFFFFFFFFFFFFFFFFFFFF AND DUP2 JUMP JUMPDEST PUSH1 0x1 PUSH1 0x0 SWAP1 SLOAD SWAP1 PUSH2 0x100 EXP SWAP1 DIV PUSH20 0xFFFFFFFFFFFFFFFFFFFFFFFFFFFFFFFFFFFFFFFF AND DUP2 JUMP JUMPDEST PUSH2 0xBD2 PUSH2 0xC64 JUMP JUMPDEST PUSH1 0x0 PUSH20 0xFFFFFFFFFFFFFFFFFFFFFFFFFFFFFFFFFFFFFFFF AND DUP2 PUSH20 0xFFFFFFFFFFFFFFFFFFFFFFFFFFFFFFFFFFFFFFFF AND EQ ISZERO PUSH2 0xC58 JUMPI PUSH1 0x40 MLOAD PUSH32 0x8C379A000000000000000000000000000000000000000000000000000000000 DUP2 MSTORE PUSH1 0x4 ADD DUP1 DUP1 PUSH1 0x20 ADD DUP3 DUP2 SUB DUP3 MSTORE PUSH1 0x26 DUP2 MSTORE PUSH1 0x20 ADD DUP1 PUSH2 0x142C PUSH1 0x26 SWAP2 CODECOPY PUSH1 0x40 ADD SWAP2 POP POP PUSH1 0x40 MLOAD DUP1 SWAP2 SUB SWAP1 REVERT JUMPDEST PUSH2 0xC61 DUP2 PUSH2 0xD9D JUMP JUMPDEST POP JUMP JUMPDEST PUSH2 0xC6C PUSH2 0x1095 JUMP JUMPDEST PUSH20 0xFFFFFFFFFFFFFFFFFFFFFFFFFFFFFFFFFFFFFFFF AND PUSH2 0xC8A PUSH2 0x8B3 JUMP JUMPDEST PUSH20 0xFFFFFFFFFFFFFFFFFFFFFFFFFFFFFFFFFFFFFFFF AND EQ PUSH2 0xD13 JUMPI PUSH1 0x40 MLOAD PUSH32 0x8C379A000000000000000000000000000000000000000000000000000000000 DUP2 MSTORE PUSH1 0x4 ADD DUP1 DUP1 PUSH1 0x20 ADD DUP3 DUP2 SUB DUP3 MSTORE PUSH1 0x20 DUP2 MSTORE PUSH1 0x20 ADD DUP1 PUSH32 0x4F776E61626C653A2063616C6C6572206973206E6F7420746865206F776E6572 DUP2 MSTORE POP PUSH1 0x20 ADD SWAP2 POP POP PUSH1 0x40 MLOAD DUP1 SWAP2 SUB SWAP1 REVERT JUMPDEST JUMP JUMPDEST PUSH1 0x0 DUP1 DUP3 DUP5 ADD SWAP1 POP DUP4 DUP2 LT ISZERO PUSH2 0xD93 JUMPI PUSH1 0x40 MLOAD PUSH32 0x8C379A000000000000000000000000000000000000000000000000000000000 DUP2 MSTORE PUSH1 0x4 ADD DUP1 DUP1 PUSH1 0x20 ADD DUP3 DUP2 SUB DUP3 MSTORE PUSH1 0x1B DUP2 MSTORE PUSH1 0x20 ADD DUP1 PUSH32 0x536166654D6174683A206164646974696F6E206F766572666C6F770000000000 DUP2 MSTORE POP PUSH1 0x20 ADD SWAP2 POP POP PUSH1 0x40 MLOAD DUP1 SWAP2 SUB SWAP1 REVERT JUMPDEST DUP1 SWAP2 POP POP SWAP3 SWAP2 POP POP JUMP JUMPDEST PUSH1 0x0 DUP1 PUSH1 0x0 SWAP1 SLOAD SWAP1 PUSH2 0x100 EXP SWAP1 DIV PUSH20 0xFFFFFFFFFFFFFFFFFFFFFFFFFFFFFFFFFFFFFFFF AND SWAP1 POP DUP2 PUSH1 0x0 DUP1 PUSH2 0x100 EXP DUP2 SLOAD DUP2 PUSH20 0xFFFFFFFFFFFFFFFFFFFFFFFFFFFFFFFFFFFFFFFF MUL NOT AND SWAP1 DUP4 PUSH20 0xFFFFFFFFFFFFFFFFFFFFFFFFFFFFFFFFFFFFFFFF AND MUL OR SWAP1 SSTORE POP DUP2 PUSH20 0xFFFFFFFFFFFFFFFFFFFFFFFFFFFFFFFFFFFFFFFF AND DUP2 PUSH20 0xFFFFFFFFFFFFFFFFFFFFFFFFFFFFFFFFFFFFFFFF AND PUSH32 0x8BE0079C531659141344CD1FD0A4F28419497F9722A3DAAFE3B4186F6B6457E0 PUSH1 0x40 MLOAD PUSH1 0x40 MLOAD DUP1 SWAP2 SUB SWAP1 LOG3 POP POP JUMP JUMPDEST PUSH2 0xEFE DUP4 PUSH4 0xA9059CBB PUSH1 0xE0 SHL DUP5 DUP5 PUSH1 0x40 MLOAD PUSH1 0x24 ADD DUP1 DUP4 PUSH20 0xFFFFFFFFFFFFFFFFFFFFFFFFFFFFFFFFFFFFFFFF AND DUP2 MSTORE PUSH1 0x20 ADD DUP3 DUP2 MSTORE PUSH1 0x20 ADD SWAP3 POP POP POP PUSH1 0x40 MLOAD PUSH1 0x20 DUP2 DUP4 SUB SUB DUP2 MSTORE SWAP1 PUSH1 0x40 MSTORE SWAP1 PUSH28 0xFFFFFFFFFFFFFFFFFFFFFFFFFFFFFFFFFFFFFFFFFFFFFFFFFFFFFFFF NOT AND PUSH1 0x20 DUP3 ADD DUP1 MLOAD PUSH28 0xFFFFFFFFFFFFFFFFFFFFFFFFFFFFFFFFFFFFFFFFFFFFFFFFFFFFFFFF DUP4 DUP2 DUP4 AND OR DUP4 MSTORE POP POP POP POP PUSH2 0x109D JUMP JUMPDEST POP POP POP JUMP JUMPDEST PUSH1 0x0 DUP1 DUP4 EQ ISZERO PUSH2 0xF16 JUMPI PUSH1 0x0 SWAP1 POP PUSH2 0xF83 JUMP JUMPDEST PUSH1 0x0 DUP3 DUP5 MUL SWAP1 POP DUP3 DUP5 DUP3 DUP2 PUSH2 0xF27 JUMPI INVALID JUMPDEST DIV EQ PUSH2 0xF7E JUMPI PUSH1 0x40 MLOAD PUSH32 0x8C379A000000000000000000000000000000000000000000000000000000000 DUP2 MSTORE PUSH1 0x4 ADD DUP1 DUP1 PUSH1 0x20 ADD DUP3 DUP2 SUB DUP3 MSTORE PUSH1 0x21 DUP2 MSTORE PUSH1 0x20 ADD DUP1 PUSH2 0x1478 PUSH1 0x21 SWAP2 CODECOPY PUSH1 0x40 ADD SWAP2 POP POP PUSH1 0x40 MLOAD DUP1 SWAP2 SUB SWAP1 REVERT JUMPDEST DUP1 SWAP2 POP POP JUMPDEST SWAP3 SWAP2 POP POP JUMP JUMPDEST PUSH1 0x0 DUP1 DUP3 GT PUSH2 0x1000 JUMPI PUSH1 0x40 MLOAD PUSH32 0x8C379A000000000000000000000000000000000000000000000000000000000 DUP2 MSTORE PUSH1 0x4 ADD DUP1 DUP1 PUSH1 0x20 ADD DUP3 DUP2 SUB DUP3 MSTORE PUSH1 0x1A DUP2 MSTORE PUSH1 0x20 ADD DUP1 PUSH32 0x536166654D6174683A206469766973696F6E206279207A65726F000000000000 DUP2 MSTORE POP PUSH1 0x20 ADD SWAP2 POP POP PUSH1 0x40 MLOAD DUP1 SWAP2 SUB SWAP1 REVERT JUMPDEST DUP2 DUP4 DUP2 PUSH2 0x1009 JUMPI INVALID JUMPDEST DIV SWAP1 POP SWAP3 SWAP2 POP POP JUMP JUMPDEST PUSH1 0x0 DUP3 DUP3 GT ISZERO PUSH2 0x108A JUMPI PUSH1 0x40 MLOAD PUSH32 0x8C379A000000000000000000000000000000000000000000000000000000000 DUP2 MSTORE PUSH1 0x4 ADD DUP1 DUP1 PUSH1 0x20 ADD DUP3 DUP2 SUB DUP3 MSTORE PUSH1 0x1E DUP2 MSTORE PUSH1 0x20 ADD DUP1 PUSH32 0x536166654D6174683A207375627472616374696F6E206F766572666C6F770000 DUP2 MSTORE POP PUSH1 0x20 ADD SWAP2 POP POP PUSH1 0x40 MLOAD DUP1 SWAP2 SUB SWAP1 REVERT JUMPDEST DUP2 DUP4 SUB SWAP1 POP SWAP3 SWAP2 POP POP JUMP JUMPDEST PUSH1 0x0 CALLER SWAP1 POP SWAP1 JUMP JUMPDEST PUSH1 0x0 PUSH2 0x10FF DUP3 PUSH1 0x40 MLOAD DUP1 PUSH1 0x40 ADD PUSH1 0x40 MSTORE DUP1 PUSH1 0x20 DUP2 MSTORE PUSH1 0x20 ADD PUSH32 0x5361666545524332303A206C6F772D6C6576656C2063616C6C206661696C6564 DUP2 MSTORE POP DUP6 PUSH20 0xFFFFFFFFFFFFFFFFFFFFFFFFFFFFFFFFFFFFFFFF AND PUSH2 0x118C SWAP1 SWAP3 SWAP2 SWAP1 PUSH4 0xFFFFFFFF AND JUMP JUMPDEST SWAP1 POP PUSH1 0x0 DUP2 MLOAD GT ISZERO PUSH2 0x1187 JUMPI DUP1 DUP1 PUSH1 0x20 ADD SWAP1 MLOAD PUSH1 0x20 DUP2 LT ISZERO PUSH2 0x1120 JUMPI PUSH1 0x0 DUP1 REVERT JUMPDEST DUP2 ADD SWAP1 DUP1 DUP1 MLOAD SWAP1 PUSH1 0x20 ADD SWAP1 SWAP3 SWAP2 SWAP1 POP POP POP PUSH2 0x1186 JUMPI PUSH1 0x40 MLOAD PUSH32 0x8C379A000000000000000000000000000000000000000000000000000000000 DUP2 MSTORE PUSH1 0x4 ADD DUP1 DUP1 PUSH1 0x20 ADD DUP3 DUP2 SUB DUP3 MSTORE PUSH1 0x2A DUP2 MSTORE PUSH1 0x20 ADD DUP1 PUSH2 0x1499 PUSH1 0x2A SWAP2 CODECOPY PUSH1 0x40 ADD SWAP2 POP POP PUSH1 0x40 MLOAD DUP1 SWAP2 SUB SWAP1 REVERT JUMPDEST JUMPDEST POP POP POP JUMP JUMPDEST PUSH1 0x60 PUSH2 0x119B DUP5 DUP5 PUSH1 0x0 DUP6 PUSH2 0x11A4 JUMP JUMPDEST SWAP1 POP SWAP4 SWAP3 POP POP POP JUMP JUMPDEST PUSH1 0x60 DUP3 SELFBALANCE LT ISZERO PUSH2 0x11FF JUMPI PUSH1 0x40 MLOAD PUSH32 0x8C379A000000000000000000000000000000000000000000000000000000000 DUP2 MSTORE PUSH1 0x4 ADD DUP1 DUP1 PUSH1 0x20 ADD DUP3 DUP2 SUB DUP3 MSTORE PUSH1 0x26 DUP2 MSTORE PUSH1 0x20 ADD DUP1 PUSH2 0x1452 PUSH1 0x26 SWAP2 CODECOPY PUSH1 0x40 ADD SWAP2 POP POP PUSH1 0x40 MLOAD DUP1 SWAP2 SUB SWAP1 REVERT JUMPDEST PUSH2 0x1208 DUP6 PUSH2 0x134C JUMP JUMPDEST PUSH2 0x127A JUMPI PUSH1 0x40 MLOAD PUSH32 0x8C379A000000000000000000000000000000000000000000000000000000000 DUP2 MSTORE PUSH1 0x4 ADD DUP1 DUP1 PUSH1 0x20 ADD DUP3 DUP2 SUB DUP3 MSTORE PUSH1 0x1D DUP2 MSTORE PUSH1 0x20 ADD DUP1 PUSH32 0x416464726573733A2063616C6C20746F206E6F6E2D636F6E7472616374000000 DUP2 MSTORE POP PUSH1 0x20 ADD SWAP2 POP POP PUSH1 0x40 MLOAD DUP1 SWAP2 SUB SWAP1 REVERT JUMPDEST PUSH1 0x0 DUP1 DUP7 PUSH20 0xFFFFFFFFFFFFFFFFFFFFFFFFFFFFFFFFFFFFFFFF AND DUP6 DUP8 PUSH1 0x40 MLOAD DUP1 DUP3 DUP1 MLOAD SWAP1 PUSH1 0x20 ADD SWAP1 DUP1 DUP4 DUP4 JUMPDEST PUSH1 0x20 DUP4 LT PUSH2 0x12C9 JUMPI DUP1 MLOAD DUP3 MSTORE PUSH1 0x20 DUP3 ADD SWAP2 POP PUSH1 0x20 DUP2 ADD SWAP1 POP PUSH1 0x20 DUP4 SUB SWAP3 POP PUSH2 0x12A6 JUMP JUMPDEST PUSH1 0x1 DUP4 PUSH1 0x20 SUB PUSH2 0x100 EXP SUB DUP1 NOT DUP3 MLOAD AND DUP2 DUP5 MLOAD AND DUP1 DUP3 OR DUP6 MSTORE POP POP POP POP POP POP SWAP1 POP ADD SWAP2 POP POP PUSH1 0x0 PUSH1 0x40 MLOAD DUP1 DUP4 SUB DUP2 DUP6 DUP8 GAS CALL SWAP3 POP POP POP RETURNDATASIZE DUP1 PUSH1 0x0 DUP2 EQ PUSH2 0x132B JUMPI PUSH1 0x40 MLOAD SWAP2 POP PUSH1 0x1F NOT PUSH1 0x3F RETURNDATASIZE ADD AND DUP3 ADD PUSH1 0x40 MSTORE RETURNDATASIZE DUP3 MSTORE RETURNDATASIZE PUSH1 0x0 PUSH1 0x20 DUP5 ADD RETURNDATACOPY PUSH2 0x1330 JUMP JUMPDEST PUSH1 0x60 SWAP2 POP JUMPDEST POP SWAP2 POP SWAP2 POP PUSH2 0x1340 DUP3 DUP3 DUP7 PUSH2 0x135F JUMP JUMPDEST SWAP3 POP POP POP SWAP5 SWAP4 POP POP POP POP JUMP JUMPDEST PUSH1 0x0 DUP1 DUP3 EXTCODESIZE SWAP1 POP PUSH1 0x0 DUP2 GT SWAP2 POP POP SWAP2 SWAP1 POP JUMP JUMPDEST PUSH1 0x60 DUP4 ISZERO PUSH2 0x136F JUMPI DUP3 SWAP1 POP PUSH2 0x1424 JUMP JUMPDEST PUSH1 0x0 DUP4 MLOAD GT ISZERO PUSH2 0x1382 JUMPI DUP3 MLOAD DUP1 DUP5 PUSH1 0x20 ADD REVERT JUMPDEST DUP2 PUSH1 0x40 MLOAD PUSH32 0x8C379A000000000000000000000000000000000000000000000000000000000 DUP2 MSTORE PUSH1 0x4 ADD DUP1 DUP1 PUSH1 0x20 ADD DUP3 DUP2 SUB DUP3 MSTORE DUP4 DUP2 DUP2 MLOAD DUP2 MSTORE PUSH1 0x20 ADD SWAP2 POP DUP1 MLOAD SWAP1 PUSH1 0x20 ADD SWAP1 DUP1 DUP4 DUP4 PUSH1 0x0 JUMPDEST DUP4 DUP2 LT ISZERO PUSH2 0x13E9 JUMPI DUP1 DUP3 ADD MLOAD DUP2 DUP5 ADD MSTORE PUSH1 0x20 DUP2 ADD SWAP1 POP PUSH2 0x13CE JUMP JUMPDEST POP POP POP POP SWAP1 POP SWAP1 DUP2 ADD SWAP1 PUSH1 0x1F AND DUP1 ISZERO PUSH2 0x1416 JUMPI DUP1 DUP3 SUB DUP1 MLOAD PUSH1 0x1 DUP4 PUSH1 0x20 SUB PUSH2 0x100 EXP SUB NOT AND DUP2 MSTORE PUSH1 0x20 ADD SWAP2 POP JUMPDEST POP SWAP3 POP POP POP PUSH1 0x40 MLOAD DUP1 SWAP2 SUB SWAP1 REVERT JUMPDEST SWAP4 SWAP3 POP POP POP JUMP INVALID 0x4F PUSH24 0x6E61626C653A206E6577206F776E65722069732074686520 PUSH27 0x65726F2061646472657373416464726573733A20696E7375666669 PUSH4 0x69656E74 KECCAK256 PUSH3 0x616C61 PUSH15 0x636520666F722063616C6C53616665 0x4D PUSH2 0x7468 GASPRICE KECCAK256 PUSH14 0x756C7469706C69636174696F6E20 PUSH16 0x766572666C6F77536166654552433230 GASPRICE KECCAK256 GASLIMIT MSTORE NUMBER ORIGIN ADDRESS KECCAK256 PUSH16 0x7065726174696F6E20646964206E6F74 KECCAK256 PUSH20 0x756363656564A26469706673582212207A63A459 CALLDATASIZE DUP11 0xC0 PUSH8 0xC8010E2FA8DB625B 0xD7 SHR 0xE3 0xDA 0xCC 0xB6 0xCD 0x2C 0xB3 GAS LOG4 LOG4 0xBD 0xD4 0xFB 0xE PUSH5 0x736F6C6343 STOP SMOD MOD STOP CALLER "
				},
				"gasEstimates": {
					"creation": {
						"codeDepositCost": "1073600",
						"executionCost": "infinite",
						"totalCost": "infinite"
					},
					"external": {
						"buybackAndBurnShare()": "1072",
						"buybackAndBurnWallet()": "1091",
						"distributeShares(address)": "infinite",
						"dividendsShare()": "1050",
						"dividendsWallet()": "1113",
						"operatingFundsWallet()": "1115",
						"owner()": "1144",
						"renounceOwnership()": "24421",
						"safeEmergencyWithdraw(address,address)": "infinite",
						"sharePrecision()": "251",
						"transferOwnership(address)": "infinite",
						"updateBuybackAndBurnWallet(address)": "22127",
						"updateDevelopmentFundsWallet(address)": "22170",
						"updateDividendsWallet(address)": "22126",
						"updateShares(uint256,uint256)": "infinite"
					}
				},
				"methodIdentifiers": {
					"buybackAndBurnShare()": "541effc3",
					"buybackAndBurnWallet()": "dc308193",
					"distributeShares(address)": "9bafaaa4",
					"dividendsShare()": "3f428adc",
					"dividendsWallet()": "e2c8dd34",
					"operatingFundsWallet()": "2ab8fc1e",
					"owner()": "8da5cb5b",
					"renounceOwnership()": "715018a6",
					"safeEmergencyWithdraw(address,address)": "7500412b",
					"sharePrecision()": "1efee6be",
					"transferOwnership(address)": "f2fde38b",
					"updateBuybackAndBurnWallet(address)": "0481531d",
					"updateDevelopmentFundsWallet(address)": "86df07ba",
					"updateDividendsWallet(address)": "327de06a",
					"updateShares(uint256,uint256)": "64790208"
				}
			},
			"storageLayout": {
				"storage": [
					{
						"astId": 273,
						"contract": "contracts/ProtocolEarnings.sol:ProtocolEarnings",
						"label": "_owner",
						"offset": 0,
						"slot": "0",
						"type": "t_address"
					},
					{
						"astId": 14,
						"contract": "contracts/ProtocolEarnings.sol:ProtocolEarnings",
						"label": "dividendsWallet",
						"offset": 0,
						"slot": "1",
						"type": "t_address"
					},
					{
						"astId": 16,
						"contract": "contracts/ProtocolEarnings.sol:ProtocolEarnings",
						"label": "buybackAndBurnWallet",
						"offset": 0,
						"slot": "2",
						"type": "t_address"
					},
					{
						"astId": 18,
						"contract": "contracts/ProtocolEarnings.sol:ProtocolEarnings",
						"label": "operatingFundsWallet",
						"offset": 0,
						"slot": "3",
						"type": "t_address"
					},
					{
						"astId": 24,
						"contract": "contracts/ProtocolEarnings.sol:ProtocolEarnings",
						"label": "dividendsShare",
						"offset": 0,
						"slot": "4",
						"type": "t_uint256"
					},
					{
						"astId": 27,
						"contract": "contracts/ProtocolEarnings.sol:ProtocolEarnings",
						"label": "buybackAndBurnShare",
						"offset": 0,
						"slot": "5",
						"type": "t_uint256"
					}
				],
				"types": {
					"t_address": {
						"encoding": "inplace",
						"label": "address",
						"numberOfBytes": "20"
					},
					"t_uint256": {
						"encoding": "inplace",
						"label": "uint256",
						"numberOfBytes": "32"
					}
				}
			},
			"userdoc": {
				"kind": "user",
				"methods": {},
				"version": 1
			}
		}
	}
}